{"abi":[{"inputs":[{"internalType":"string","name":"uri_","type":"string"},{"internalType":"uint32","name":"_timescale","type":"uint32"},{"internalType":"uint256","name":"_createCost","type":"uint256"},{"internalType":"uint256","name":"_feedCost","type":"uint256"},{"internalType":"uint256","name":"_grindReward","type":"uint256"}],"stateMutability":"nonpayable","type":"constructor","name":"constructor"},{"anonymous":false,"inputs":[{"indexed":true,"internalType":"address","name":"account","type":"address"},{"indexed":true,"internalType":"address","name":"operator","type":"address"},{"indexed":false,"internalType":"bool","name":"approved","type":"bool"}],"name":"ApprovalForAll","type":"event"},{"anonymous":false,"inputs":[{"indexed":true,"internalType":"address","name":"operator","type":"address"},{"indexed":true,"internalType":"address","name":"from","type":"address"},{"indexed":true,"internalType":"address","name":"to","type":"address"},{"indexed":false,"internalType":"uint256[]","name":"ids","type":"uint256[]"},{"indexed":false,"internalType":"uint256[]","name":"values","type":"uint256[]"}],"name":"TransferBatch","type":"event"},{"anonymous":false,"inputs":[{"indexed":true,"internalType":"address","name":"operator","type":"address"},{"indexed":true,"internalType":"address","name":"from","type":"address"},{"indexed":true,"internalType":"address","name":"to","type":"address"},{"indexed":false,"internalType":"uint256","name":"id","type":"uint256"},{"indexed":false,"internalType":"uint256","name":"value","type":"uint256"}],"name":"TransferSingle","type":"event"},{"anonymous":false,"inputs":[{"indexed":false,"internalType":"string","name":"value","type":"string"},{"indexed":true,"internalType":"uint256","name":"id","type":"uint256"}],"name":"URI","type":"event"},{"inputs":[{"internalType":"uint256","name":"feedingTimes","type":"uint256"},{"internalType":"uint256","name":"starterId","type":"uint256"}],"name":"autoFeed","outputs":[{"internalType":"bool","name":"","type":"bool"}],"stateMutability":"nonpayable","type":"function"},{"inputs":[{"internalType":"uint256","name":"recipeId","type":"uint256"},{"internalType":"uint256[]","name":"starterBatch","type":"uint256[]"}],"name":"bakeExistingRecipe","outputs":[{"internalType":"bool","name":"","type":"bool"}],"stateMutability":"nonpayable","type":"function"},{"inputs":[{"internalType":"address","name":"account","type":"address"},{"internalType":"uint256","name":"id","type":"uint256"}],"name":"balanceOf","outputs":[{"internalType":"uint256","name":"","type":"uint256"}],"stateMutability":"view","type":"function"},{"inputs":[{"internalType":"address[]","name":"accounts","type":"address[]"},{"internalType":"uint256[]","name":"ids","type":"uint256[]"}],"name":"balanceOfBatch","outputs":[{"internalType":"uint256[]","name":"","type":"uint256[]"}],"stateMutability":"view","type":"function"},{"inputs":[],"name":"createStarter","outputs":[{"internalType":"bool","name":"","type":"bool"}],"stateMutability":"nonpayable","type":"function"},{"inputs":[],"name":"devAddress","outputs":[{"internalType":"address","name":"","type":"address"}],"stateMutability":"view","type":"function"},{"inputs":[{"internalType":"uint256","name":"recipeId","type":"uint256"},{"internalType":"uint256","name":"amount","type":"uint256"}],"name":"eatBakedGood","outputs":[{"internalType":"bool","name":"","type":"bool"}],"stateMutability":"nonpayable","type":"function"},{"inputs":[{"internalType":"uint256","name":"tokenId","type":"uint256"}],"name":"feedStarter","outputs":[{"internalType":"bool","name":"","type":"bool"}],"stateMutability":"nonpayable","type":"function"},{"inputs":[],"name":"flourSupply","outputs":[{"internalType":"uint256","name":"","type":"uint256"}],"stateMutability":"view","type":"function"},{"inputs":[{"internalType":"uint256","name":"starterId","type":"uint256"}],"name":"getChildCount","outputs":[{"internalType":"uint8","name":"","type":"uint8"}],"stateMutability":"view","type":"function"},{"inputs":[{"internalType":"uint256","name":"starterId","type":"uint256"}],"name":"getCreationTime","outputs":[{"internalType":"uint32","name":"","type":"uint32"}],"stateMutability":"view","type":"function"},{"inputs":[{"internalType":"uint256","name":"starterId","type":"uint256"}],"name":"getCreatorAddress","outputs":[{"internalType":"address","name":"","type":"address"}],"stateMutability":"view","type":"function"},{"inputs":[{"internalType":"uint256","name":"recipeId","type":"uint256"}],"name":"getFlourRequired","outputs":[{"internalType":"uint256","name":"","type":"uint256"}],"stateMutability":"view","type":"function"},{"inputs":[{"internalType":"address","name":"player","type":"address"}],"name":"getGrindReset","outputs":[{"internalType":"uint32","name":"","type":"uint32"}],"stateMutability":"view","type":"function"},{"inputs":[{"internalType":"uint256","name":"recipeId","type":"uint256"},{"internalType":"uint256","name":"index","type":"uint256"}],"name":"getIngredientByIndex","outputs":[{"internalType":"uint32","name":"","type":"uint32"}],"stateMutability":"view","type":"function"},{"inputs":[{"internalType":"uint256","name":"recipeId","type":"uint256"}],"name":"getIngredientCount","outputs":[{"internalType":"uint256","name":"","type":"uint256"}],"stateMutability":"view","type":"function"},{"inputs":[{"internalType":"uint256","name":"starterId","type":"uint256"}],"name":"getIsAutoFed","outputs":[{"internalType":"bool","name":"","type":"bool"}],"stateMutability":"view","type":"function"},{"inputs":[{"internalType":"uint256","name":"recipeId","type":"uint256"}],"name":"getNumberEaten","outputs":[{"internalType":"uint256","name":"","type":"uint256"}],"stateMutability":"view","type":"function"},{"inputs":[{"internalType":"address","name":"owner","type":"address"}],"name":"getOwnerUniqueRecipes","outputs":[{"internalType":"uint256","name":"","type":"uint256"}],"stateMutability":"view","type":"function"},{"inputs":[{"internalType":"address","name":"owner","type":"address"}],"name":"getOwnerUniqueTokens","outputs":[{"internalType":"uint256","name":"","type":"uint256"}],"stateMutability":"view","type":"function"},{"inputs":[{"internalType":"address","name":"player","type":"address"}],"name":"getPlayerScore","outputs":[{"internalType":"uint256","name":"","type":"uint256"}],"stateMutability":"view","type":"function"},{"inputs":[{"internalType":"uint256","name":"recipeId","type":"uint256"}],"name":"getRecipeCreator","outputs":[{"internalType":"address","name":"","type":"address"}],"stateMutability":"view","type":"function"},{"inputs":[{"internalType":"uint256","name":"recipeId","type":"uint256"}],"name":"getRecipeName","outputs":[{"internalType":"string","name":"","type":"string"}],"stateMutability":"view","type":"function"},{"inputs":[{"internalType":"uint256","name":"recipeId","type":"uint256"}],"name":"getRecipeScore","outputs":[{"internalType":"uint32","name":"","type":"uint32"}],"stateMutability":"view","type":"function"},{"inputs":[{"internalType":"uint256","name":"starterId","type":"uint256"}],"name":"getTimeOfDeath","outputs":[{"internalType":"uint32","name":"","type":"uint32"}],"stateMutability":"view","type":"function"},{"inputs":[{"internalType":"uint256","name":"recipeId","type":"uint256"}],"name":"getTimesBaked","outputs":[{"internalType":"uint256","name":"","type":"uint256"}],"stateMutability":"view","type":"function"},{"inputs":[],"name":"grindFlour","outputs":[],"stateMutability":"nonpayable","type":"function"},{"inputs":[{"internalType":"address","name":"account","type":"address"},{"internalType":"address","name":"operator","type":"address"}],"name":"isApprovedForAll","outputs":[{"internalType":"bool","name":"","type":"bool"}],"stateMutability":"view","type":"function"},{"inputs":[{"internalType":"address","name":"player","type":"address"}],"name":"isPlayerAutoFeeding","outputs":[{"internalType":"bool","name":"","type":"bool"}],"stateMutability":"view","type":"function"},{"inputs":[],"name":"itemsBaked","outputs":[{"internalType":"uint256","name":"","type":"uint256"}],"stateMutability":"view","type":"function"},{"inputs":[],"name":"mostUsedRecipe","outputs":[{"internalType":"uint256","name":"","type":"uint256"}],"stateMutability":"view","type":"function"},{"inputs":[{"internalType":"uint256","name":"","type":"uint256"}],"name":"playerHighScore","outputs":[{"internalType":"address","name":"","type":"address"}],"stateMutability":"view","type":"function"},{"inputs":[{"internalType":"string","name":"name","type":"string"},{"internalType":"uint256","name":"flourRequired","type":"uint256"},{"internalType":"uint32[]","name":"ages","type":"uint32[]"},{"internalType":"uint256[]","name":"starterBatch","type":"uint256[]"}],"name":"publishNewRecipe","outputs":[{"internalType":"uint256","name":"","type":"uint256"}],"stateMutability":"nonpayable","type":"function"},{"inputs":[{"internalType":"uint256","name":"","type":"uint256"}],"name":"recipeHighScore","outputs":[{"internalType":"uint256","name":"","type":"uint256"}],"stateMutability":"view","type":"function"},{"inputs":[{"internalType":"address","name":"owner","type":"address"},{"internalType":"uint256","name":"index","type":"uint256"}],"name":"recipeOfOwnerByIndex","outputs":[{"internalType":"uint256","name":"","type":"uint256"}],"stateMutability":"view","type":"function"},{"inputs":[],"name":"recipesPublished","outputs":[{"internalType":"uint256","name":"","type":"uint256"}],"stateMutability":"view","type":"function"},{"inputs":[{"internalType":"address","name":"from","type":"address"},{"internalType":"address","name":"to","type":"address"},{"internalType":"uint256[]","name":"ids","type":"uint256[]"},{"internalType":"uint256[]","name":"amounts","type":"uint256[]"},{"internalType":"bytes","name":"data","type":"bytes"}],"name":"safeBatchTransferFrom","outputs":[],"stateMutability":"nonpayable","type":"function"},{"inputs":[{"internalType":"address","name":"from","type":"address"},{"internalType":"address","name":"to","type":"address"},{"internalType":"uint256","name":"id","type":"uint256"},{"internalType":"uint256","name":"amount","type":"uint256"},{"internalType":"bytes","name":"data","type":"bytes"}],"name":"safeTransferFrom","outputs":[],"stateMutability":"nonpayable","type":"function"},{"inputs":[{"internalType":"address","name":"operator","type":"address"},{"internalType":"bool","name":"approved","type":"bool"}],"name":"setApprovalForAll","outputs":[],"stateMutability":"nonpayable","type":"function"},{"inputs":[{"internalType":"uint256","name":"tokenId","type":"uint256"}],"name":"splitStarter","outputs":[{"internalType":"bool","name":"","type":"bool"}],"stateMutability":"nonpayable","type":"function"},{"inputs":[{"internalType":"uint256","name":"","type":"uint256"}],"name":"starterHighScore","outputs":[{"internalType":"uint256","name":"","type":"uint256"}],"stateMutability":"view","type":"function"},{"inputs":[],"name":"startersCreated","outputs":[{"internalType":"uint256","name":"","type":"uint256"}],"stateMutability":"view","type":"function"},{"inputs":[{"internalType":"uint256","name":"starterId","type":"uint256"}],"name":"stopAutoFeed","outputs":[{"internalType":"bool","name":"","type":"bool"}],"stateMutability":"nonpayable","type":"function"},{"inputs":[{"internalType":"bytes4","name":"interfaceId","type":"bytes4"}],"name":"supportsInterface","outputs":[{"internalType":"bool","name":"","type":"bool"}],"stateMutability":"view","type":"function"},{"inputs":[{"internalType":"address","name":"owner","type":"address"},{"internalType":"uint256","name":"index","type":"uint256"}],"name":"tokenOfOwnerByIndex","outputs":[{"internalType":"uint256","name":"","type":"uint256"}],"stateMutability":"view","type":"function"},{"inputs":[],"name":"topRecipeScore","outputs":[{"internalType":"uint256","name":"","type":"uint256"}],"stateMutability":"view","type":"function"},{"inputs":[{"internalType":"uint256","name":"","type":"uint256"}],"name":"uri","outputs":[{"internalType":"string","name":"","type":"string"}],"stateMutability":"view","type":"function"}],"bytecode":"6080604052600880546001600160a01b0319163017905560006009819055600160ff1b600a556034819055603581905560368190556037553480156200004457600080fd5b5060405162003c4138038062003c41833981016040819052620000679162000199565b846200007381620000c0565b506200007f85620000c0565b6006805463ffffffff90951663ffffffff1990951694909417909355600880546001600160a01b0319163317905560049190915560055560075550620002f2565b8051620000d5906003906020840190620000d9565b5050565b828054620000e7906200029f565b90600052602060002090601f0160209004810192826200010b576000855562000156565b82601f106200012657805160ff191683800117855562000156565b8280016001018555821562000156579182015b828111156200015657825182559160200191906001019062000139565b506200016492915062000168565b5090565b5b8082111562000164576000815560010162000169565b805163ffffffff811681146200019457600080fd5b919050565b600080600080600060a08688031215620001b1578081fd5b85516001600160401b0380821115620001c8578283fd5b818801915088601f830112620001dc578283fd5b815181811115620001f157620001f1620002dc565b604051601f8201601f19908116603f011681019083821181831017156200021c576200021c620002dc565b81604052828152602093508b8484870101111562000238578586fd5b8591505b828210156200025b57848201840151818301850152908301906200023c565b828211156200026c57858484830101525b98506200027e9150508882016200017f565b604089015160608a01516080909a0151989b919a5098979650945050505050565b600181811c90821680620002b457607f821691505b60208210811415620002d657634e487b7160e01b600052602260045260246000fd5b50919050565b634e487b7160e01b600052604160045260246000fd5b61393f80620003026000396000f3fe608060405234801561001057600080fd5b50600436106102945760003560e01c80637f8315cd11610167578063c8cf79d9116100ce578063e985e9c511610087578063e985e9c5146106f6578063f242432a14610732578063f6d989f214610745578063f71ed3b81461074e578063fc4f816c14610778578063fcf73cbe1461078b57610294565b8063c8cf79d91461062f578063cb20801014610642578063d0eaf36814610665578063d682d87a1461068e578063e085c539146106ba578063e11fd028146106e357610294565b8063a41e1c1711610120578063a41e1c17146105d1578063ab5e9e8e146105e4578063b172decc146105ed578063bf3c95b914610600578063c3b1066f14610613578063c889d0891461062657610294565b80637f8315cd14610510578063976c39be1461053657806397ec23cb14610559578063a22cb46514610586578063a30b4db914610599578063a3486758146105c957610294565b806336ff4c951161020b5780635c2c894a116101c45780635c2c894a146104525780636510989c1461045b57806370b5e7b01461046e578063781f1b75146104915780637985781f146104a45780637a77af5c146104d357610294565b806336ff4c95146103c45780633ad10ef6146103f057806342da6f9c146104035780634e1273f4146104165780634f41393b146104365780635aab8e2f1461044957610294565b8063214fa99b1161025d578063214fa99b1461031d5780632a316cdf146103485780632b944ddf1461036b5780632eb2c2d6146103745780632f745c591461038957806334b7fa221461039c57610294565b8062fdd58e1461029957806301ffc9a7146102bf57806307047482146102e25780630e89341c146102ea5780631269ca401461030a575b600080fd5b6102ac6102a7366004613087565b61079e565b6040519081526020015b60405180910390f35b6102d26102cd36600461317b565b61083a565b60405190151581526020016102b6565b6102d261088e565b6102fd6102f83660046132cc565b610a09565b6040516102b6919061349d565b6102fd6103183660046132cc565b610a9d565b61033061032b3660046132cc565b610aba565b6040516001600160a01b0390911681526020016102b6565b6102ac6103563660046132cc565b6000908152600d602052604090206001015490565b6102ac60355481565b610387610382366004612f44565b610ada565b005b6102ac610397366004613087565b610dcf565b6103af6103aa36600461331f565b610df8565b60405163ffffffff90911681526020016102b6565b6102d26103d2366004612ef8565b6001600160a01b031660009081526010602052604090205460ff1690565b600854610330906001600160a01b031681565b6102ac610411366004612ef8565b610e57565b6104296104243660046130b0565b610e78565b6040516102b6919061345c565b6102d26104443660046132e4565b610fda565b6102ac60325481565b6102ac60365481565b6102d261046936600461331f565b6111c1565b6102ac61047c3660046132cc565b6000908152600d602052604090206005015490565b6102d261049f3660046132cc565b6112da565b6103af6104b2366004612ef8565b6001600160a01b03166000908152600c602052604090205463ffffffff1690565b6104fe6104e13660046132cc565b6000908152600b6020526040902054640100000000900460ff1690565b60405160ff90911681526020016102b6565b6103af61051e3660046132cc565b6000908152600b602052604090205463ffffffff1690565b6102ac6105443660046132cc565b6000908152600d602052604090206004015490565b6103af6105673660046132cc565b6000908152600b6020526040902054600160281b900463ffffffff1690565b61038761059436600461304d565b61139c565b6103306105a73660046132cc565b6000908152600b6020526040902054600160481b90046001600160a01b031690565b610387611480565b6102ac6105df3660046131b3565b61155a565b6102ac60335481565b6102d26105fb36600461331f565b6117c1565b6102ac61060e366004612ef8565b6118b7565b6102ac6106213660046132cc565b6118d8565b6102ac60345481565b6102d261063d3660046132cc565b6118ef565b6102ac6106503660046132cc565b6000908152600d602052604090206002015490565b6103af6106733660046132cc565b6000908152600d602052604090206006015463ffffffff1690565b61033061069c3660046132cc565b6000908152600d60205260409020600301546001600160a01b031690565b6102ac6106c8366004612ef8565b6001600160a01b03166000908152600f602052604090205490565b6102ac6106f13660046132cc565b61195a565b6102d2610704366004612f12565b6001600160a01b03918216600090815260026020908152604080832093909416825291909152205460ff1690565b610387610740366004612fea565b61196a565b6102ac60375481565b6102d261075c3660046132cc565b6000908152600b6020526040902054600160e81b900460ff1690565b6102d26107863660046132cc565b611b9f565b6102ac610799366004613087565b611cc8565b60006001600160a01b03831661080f5760405162461bcd60e51b815260206004820152602b60248201527f455243313135353a2062616c616e636520717565727920666f7220746865207a60448201526a65726f206164647265737360a81b60648201526084015b60405180910390fd5b5060008181526001602090815260408083206001600160a01b03861684529091529020545b92915050565b60006001600160e01b03198216636cdb3d1360e11b148061086b57506001600160e01b031982166303a24d0760e21b145b8061088657506301ffc9a760e01b6001600160e01b03198316145b90505b919050565b600061089c33600454611cea565b600060355460016108ad91906136fd565b90506108d5336108be8360006136fd565b600160405180602001604052806000815250611d2a565b6040805160a081019091526006546000919081906108f99063ffffffff16426136fd565b63ffffffff168152602001600060ff1681526020014263ffffffff168152602001336001600160a01b0316815260200160001515815250905060016035600082825461094591906136fd565b90915550506000918252600b602090815260409283902082518154928401519484015160608501516080909501511515600160e81b0260ff60e81b196001600160a01b03909616600160481b027fffffff0000000000000000000000000000000000000000ffffffffffffffffff63ffffffff938416600160281b021665010000000000600160e81b031960ff9099166401000000000264ffffffffff19909716939094169290921794909417959095161793909317919091161790555060015b90565b606060038054610a1890613798565b80601f0160208091040260200160405190810160405280929190818152602001828054610a4490613798565b8015610a915780601f10610a6657610100808354040283529160200191610a91565b820191906000526020600020905b815481529060010190602001808311610a7457829003601f168201915b50505050509050919050565b6000818152600d60205260409020805460609190610a1890613798565b602781600b8110610aca57600080fd5b01546001600160a01b0316905081565b8151835114610afb5760405162461bcd60e51b815260040161080690613691565b6001600160a01b038416610b215760405162461bcd60e51b8152600401610806906135bf565b6001600160a01b038516331480610b3d5750610b3d8533610704565b610ba45760405162461bcd60e51b815260206004820152603260248201527f455243313135353a207472616e736665722063616c6c6572206973206e6f74206044820152711bdddb995c881b9bdc88185c1c1c9bdd995960721b6064820152608401610806565b3360005b8451811015610d61576000858281518110610bd357634e487b7160e01b600052603260045260246000fd5b602002602001015190506000858381518110610bff57634e487b7160e01b600052603260045260246000fd5b60209081029190910181015160008481526001835260408082206001600160a01b038e168352909352919091205490915081811015610c505760405162461bcd60e51b815260040161080690613647565b610c5a8282613781565b6001600085815260200190815260200160002060008c6001600160a01b03166001600160a01b0316815260200190815260200160002081905550816001600085815260200190815260200160002060008b6001600160a01b03166001600160a01b031681526020019081526020016000206000828254610cda91906136fd565b90915550506001600160a01b0389166000908152602081905260409020610d019084611e50565b5060008381526001602090815260408083206001600160a01b038e168452909152902054610d4d576001600160a01b038a166000908152602081905260409020610d4b9084611e5c565b505b50505080610d5a90613800565b9050610ba8565b50846001600160a01b0316866001600160a01b0316826001600160a01b03167f4a39dc06d4c0dbc64b70af90fd698a233a518aa5d07e595d983b8c0526c8f7fb8787604051610db192919061346f565b60405180910390a4610dc7818787878787611e68565b505050505050565b6001600160a01b0382166000908152602081905260408120610df19083611fd3565b9392505050565b6000828152600d60205260408120600201805483908110610e2957634e487b7160e01b600052603260045260246000fd5b90600052602060002090600891828204019190066004029054906101000a900463ffffffff16905092915050565b6001600160a01b038116600090815260208190526040812061088690611fdf565b60608151835114610edd5760405162461bcd60e51b815260206004820152602960248201527f455243313135353a206163636f756e747320616e6420696473206c656e677468604482015268040dad2e6dac2e8c6d60bb1b6064820152608401610806565b6000835167ffffffffffffffff811115610f0757634e487b7160e01b600052604160045260246000fd5b604051908082528060200260200182016040528015610f30578160200160208202803683370190505b50905060005b8451811015610fd257610f97858281518110610f6257634e487b7160e01b600052603260045260246000fd5b6020026020010151858381518110610f8a57634e487b7160e01b600052603260045260246000fd5b602002602001015161079e565b828281518110610fb757634e487b7160e01b600052603260045260246000fd5b6020908102919091010152610fcb81613800565b9050610f36565b509392505050565b6000828152600d6020526040808220815160e081019092528054839291908290829061100590613798565b80601f016020809104026020016040519081016040528092919081815260200182805461103190613798565b801561107e5780601f106110535761010080835404028352916020019161107e565b820191906000526020600020905b81548152906001019060200180831161106157829003601f168201915b50505050508152602001600182015481526020016002820180548060200260200160405190810160405280929190818152602001828054801561110c57602002820191906000526020600020906000905b82829054906101000a900463ffffffff1663ffffffff16815260200190600401906020826003010492830192600103820291508084116110cf5790505b505050918352505060038201546001600160a01b03166020820152600482015460408201526005820154606082015260069091015463ffffffff1660809091015290506111598184611fe9565b506000848152600d6020526040812060040180546001929061117c9084906136fd565b9250508190555060016036600082825461119691906136fd565b909155506111a59050846123d1565b6111b733600a54866108be91906136fd565b5060019392505050565b6000816111d63385600a546102a791906136fd565b10156112365760405162461bcd60e51b815260206004820152602960248201527f596f7520646f6e277420686176652074686174206d616e79206f662074686f736044820152686520746f206561742160b81b6064820152608401610806565b6000838152600d6020526040812060060154600a5463ffffffff909116919061125f90866136fd565b905061126c338286612498565b6000858152600d6020526040812060050180546001929061128e9084906136fd565b909155506112a490508463ffffffff8416613762565b336000908152600f6020526040812080549091906112c39084906136fd565b909155506112d29050336125e1565b505092915050565b60006112e6338361079e565b6001146113055760405162461bcd60e51b81526004016108069061353c565b61130e82611b9f565b5061131761088e565b506000828152600b602052604080822080546035548452918320805468ffffffff00000000001916600160281b9384900463ffffffff16909302929092179091559083905280546001919060049061137b908490640100000000900460ff1661373d565b92506101000a81548160ff021916908360ff16021790555060019050919050565b336001600160a01b03831614156114075760405162461bcd60e51b815260206004820152602960248201527f455243313135353a2073657474696e6720617070726f76616c20737461747573604482015268103337b91039b2b63360b91b6064820152608401610806565b3360008181526002602090815260408083206001600160a01b0387168085529252909120805460ff1916841515179055906001600160a01b03167f17307eab39ab6107e8899845ad3d59bd9653f200f220920489ca2b5937696c3183604051611474911515815260200190565b60405180910390a35050565b336000908152600c60205260409020544263ffffffff909116106114e65760405162461bcd60e51b815260206004820152601b60248201527f596f7520646964207468697320616c726561647920746f6461792100000000006044820152606401610806565b6115053360095460075460405180602001604052806000815250611d2a565b6007546034600082825461151991906136fd565b90915550506006546115319063ffffffff16426136fd565b336000908152600c60205260409020805463ffffffff191663ffffffff92909216919091179055565b6000600a835111156115be5760405162461bcd60e51b815260206004820152602760248201527f596f752063616e206f6e6c79206861766520757020746f20313020696e6772656044820152666469656e74732160c81b6064820152608401610806565b6040805160e0810182528681526020810186905290810184905233606082015260006080820181905260a0820181905260c08201526115fd8184611fe9565b5060408101516000805b82518110156116575782818151811061163057634e487b7160e01b600052603260045260246000fd5b6020026020010151826116439190613715565b91508061164f81613800565b915050611607565b5063ffffffff811660c0840152608083018051600191906116799083906136fd565b90525060368054600191906000906116929084906136fd565b925050819055506001603760008282546116ac91906136fd565b9091555050603754600a546000916116c3916136fd565b6037546000908152600d6020908152604090912086518051939450879391926116f192849290910190612cb1565b506020828101516001830155604083015180516117149260028501920190612d35565b5060608201516003820180546001600160a01b0319166001600160a01b039092169190911790556080820151600482015560a0820151600582015560c0909101516006909101805463ffffffff191663ffffffff928316179055603754336000908152600e6020526040902061178d92909190611e5016565b506117996037546123d1565b6117b53382600160405180602001604052806000815250611d2a565b98975050505050505050565b60006117cd338361079e565b6001146117ec5760405162461bcd60e51b81526004016108069061353c565b60006117f9846032613762565b9050600061180885600a613762565b90506118143383611cea565b6008546009546040805160208101909152600081526118429233926001600160a01b0390911691859061196a565b336000908152601060205260409020805460ff1916600117905560065461186f9063ffffffff1686613762565b61187990426136fd565b6000858152600b60205260409020805463ffffffff60ff60e81b01191663ffffffff9290921691909117600160e81b17905550600191505092915050565b6001600160a01b0381166000908152600e6020526040812061088690611fdf565b601181600b81106118e857600080fd5b0154905081565b6000818152600b6020526040812054600160e81b900460ff16151560011461191657600080fd5b6006546119299063ffffffff16426136fd565b6000928352600b6020526040909220805463ffffffff60ff60e81b01191663ffffffff939093169290921790915590565b601c81600b81106118e857600080fd5b6001600160a01b0384166119905760405162461bcd60e51b8152600401610806906135bf565b6001600160a01b0385163314806119ac57506119ac8533610704565b611a0a5760405162461bcd60e51b815260206004820152602960248201527f455243313135353a2063616c6c6572206973206e6f74206f776e6572206e6f7260448201526808185c1c1c9bdd995960ba1b6064820152608401610806565b33611a2a818787611a1a886126e9565b611a23886126e9565b5050505050565b60008481526001602090815260408083206001600160a01b038a16845290915290205483811015611a6d5760405162461bcd60e51b815260040161080690613647565b611a778482613781565b60008681526001602090815260408083206001600160a01b038c81168552925280832093909355881681529081208054869290611ab59084906136fd565b90915550506001600160a01b0386166000908152602081905260409020611adc9086611e50565b5060008581526001602090815260408083206001600160a01b038b168452909152902054611b28576001600160a01b0387166000908152602081905260409020611b269086611e5c565b505b856001600160a01b0316876001600160a01b0316836001600160a01b03167fc3d58168c5ae7397731d063d5bbf3d657854427343f4c083240f7aacaa2d0f628888604051611b80929190918252602082015260400190565b60405180910390a4611b96828888888888612742565b50505050505050565b6000611bab338361079e565b600114611bca5760405162461bcd60e51b81526004016108069061353c565b6000828152600b60205260409020544263ffffffff9091161015611c565760405162461bcd60e51b815260206004820152603960248201527f596f757220737461727465722069732064656164212020596f752073686f756c60448201527f6420686176652066656420697420736f6f6e6572203a28202e000000000000006064820152608401610806565b611c6233600554611cea565b600654611c759063ffffffff16426136fd565b6000838152600b60205260409020805463ffffffff191663ffffffff929092169190911790819055600160e81b900460ff1615611cb7576000829052600b6020525b611cc08261280c565b506001919050565b6001600160a01b0382166000908152600e60205260408120610df19083611fd3565b80611cf73360095461079e565b1015611d0257600080fd5b611d0f8260095483612498565b8060346000828254611d219190613781565b90915550505050565b6001600160a01b038416611d8a5760405162461bcd60e51b815260206004820152602160248201527f455243313135353a206d696e7420746f20746865207a65726f206164647265736044820152607360f81b6064820152608401610806565b33611d9b81600087611a1a886126e9565b60008481526001602090815260408083206001600160a01b038916845290915281208054859290611dcd9084906136fd565b90915550506001600160a01b0385166000908152602081905260409020611df49085611e50565b5060408051858152602081018590526001600160a01b0380881692600092918516917fc3d58168c5ae7397731d063d5bbf3d657854427343f4c083240f7aacaa2d0f62910160405180910390a4611a2381600087878787612742565b6000610df183836128e4565b6000610df18383612933565b6001600160a01b0384163b15610dc75760405163bc197c8160e01b81526001600160a01b0385169063bc197c8190611eac90899089908890889088906004016133c5565b602060405180830381600087803b158015611ec657600080fd5b505af1925050508015611ef6575060408051601f3d908101601f19168201909252611ef391810190613197565b60015b611fa357611f02613847565b806308c379a01415611f3c5750611f1761385e565b80611f225750611f3e565b8060405162461bcd60e51b8152600401610806919061349d565b505b60405162461bcd60e51b815260206004820152603460248201527f455243313135353a207472616e7366657220746f206e6f6e20455243313135356044820152732932b1b2b4bb32b91034b6b83632b6b2b73a32b960611b6064820152608401610806565b6001600160e01b0319811663bc197c8160e01b14611b965760405162461bcd60e51b8152600401610806906134b0565b6000610df18383612a4a565b6000610886825490565b60008260200151611ffc3360095461079e565b101561205d5760405162461bcd60e51b815260206004820152602a60248201527f596f7520646f6e2774206861766520656e6f75676820464c4f555220746f2062604482015269616b652074686174212160b01b6064820152608401610806565b60408301515160008167ffffffffffffffff81111561208c57634e487b7160e01b600052604160045260246000fd5b6040519080825280602002602001820160405280156120b5578160200160208202803683370190505b5090508351856040015151146121335760405162461bcd60e51b815260206004820152603c60248201527f596f7520686176656e277420616464656420746865207269676874206e756d6260448201527f6572206f6620737461727465727320746f2074686520626174636821000000006064820152608401610806565b60005b8560400151518110156123ac576000600b600087848151811061216957634e487b7160e01b600052603260045260246000fd5b60209081029190910181015182528101919091526040016000205461219b90600160281b900463ffffffff1642613781565b9050866040015182815181106121c157634e487b7160e01b600052603260045260246000fd5b602002602001015163ffffffff168163ffffffff16116122635760405162461bcd60e51b815260206004820152605160248201527f596f757220737461727465727320617265206e6f74206f6c6420656e6f75676860448201527f2c20706c65617365207573652074686520737461727465727320726571756972606482015270656420627920746869732072656369706560781b608482015260a401610806565b42600b600088858151811061228857634e487b7160e01b600052603260045260246000fd5b60209081029190910181015182528101919091526040016000205463ffffffff1610156123295760405162461bcd60e51b815260206004820152604360248201527f596f757220737461727465727320617265206e6f7420616c6c20616c6976652c60448201527f20796f75206d757374207573652061206c6976696e6720696e6772656469656e60648201526274212160e81b608482015260a401610806565b61234d33878481518110610f8a57634e487b7160e01b600052603260045260246000fd5b60011461236c5760405162461bcd60e51b81526004016108069061353c565b600183838151811061238e57634e487b7160e01b600052603260045260246000fd5b602090810291909101015250806123a481613800565b915050612136565b506123b8338583612ade565b6123c6338660200151611cea565b506001949350505050565b6000818152600d602052604080822060049081015460255484529190922090910154600991905b80821180156124075750600083115b1561249257601c83600b811061242d57634e487b7160e01b600052603260045260246000fd5b0154601c61243c8560016136fd565b600b811061245a57634e487b7160e01b600052603260045260246000fd5b015583601c84600b811061247e57634e487b7160e01b600052603260045260246000fd5b015561248b600184613781565b92506123f8565b50505050565b6001600160a01b0383166124be5760405162461bcd60e51b815260040161080690613604565b336124ee818560006124cf876126e9565b6124d8876126e9565b5050604080516020810190915260009052505050565b60008381526001602090815260408083206001600160a01b0388168452909152902054828110156125315760405162461bcd60e51b8152600401610806906134f8565b600061253d8483613781565b60008681526001602090815260408083206001600160a01b038b168452909152902081905590508061258d576001600160a01b038616600090815260208190526040902061258b9086611e5c565b505b60408051868152602081018690526000916001600160a01b0389811692908716917fc3d58168c5ae7397731d063d5bbf3d657854427343f4c083240f7aacaa2d0f62910160405180910390a4505050505050565b6001600160a01b038181166000908152600f6020526040808220546030549093168252902054600991905b808211801561261b5750600083115b1561249257602783600b811061264157634e487b7160e01b600052603260045260246000fd5b01546001600160a01b031660276126598560016136fd565b600b811061267757634e487b7160e01b600052603260045260246000fd5b0180546001600160a01b0319166001600160a01b039290921691909117905583602784600b81106126b857634e487b7160e01b600052603260045260246000fd5b0180546001600160a01b0319166001600160a01b03929092169190911790556126e2600184613781565b925061260c565b6040805160018082528183019092526060916000919060208083019080368337019050509050828160008151811061273157634e487b7160e01b600052603260045260246000fd5b602090810291909101015292915050565b6001600160a01b0384163b15610dc75760405163f23a6e6160e01b81526001600160a01b0385169063f23a6e61906127869089908990889088908890600401613417565b602060405180830381600087803b1580156127a057600080fd5b505af19250505080156127d0575060408051601f3d908101601f191682019092526127cd91810190613197565b60015b6127dc57611f02613847565b6001600160e01b0319811663f23a6e6160e01b14611b965760405162461bcd60e51b8152600401610806906134b0565b6000818152600b602052604080822054601a54835291205460099163ffffffff600160281b9182900481169291909104165b8063ffffffff168263ffffffff161080156128595750600083115b1561249257601183600b811061287f57634e487b7160e01b600052603260045260246000fd5b0154601161288e8560016136fd565b600b81106128ac57634e487b7160e01b600052603260045260246000fd5b015583601184600b81106128d057634e487b7160e01b600052603260045260246000fd5b01556128dd600184613781565b925061283e565b600081815260018301602052604081205461292b57508154600181810184556000848152602080822090930184905584548482528286019093526040902091909155610834565b506000610834565b60008181526001830160205260408120548015612a40576000612957600183613781565b855490915060009061296b90600190613781565b9050600086600001828154811061299257634e487b7160e01b600052603260045260246000fd5b90600052602060002001549050808760000184815481106129c357634e487b7160e01b600052603260045260246000fd5b600091825260208083209091019290925582815260018901909152604090208490558654879080612a0457634e487b7160e01b600052603160045260246000fd5b60019003818190600052602060002001600090559055866001016000878152602001908152602001600020600090556001945050505050610834565b6000915050610834565b81546000908210612aa85760405162461bcd60e51b815260206004820152602260248201527f456e756d657261626c655365743a20696e646578206f7574206f6620626f756e604482015261647360f01b6064820152608401610806565b826000018281548110612acb57634e487b7160e01b600052603260045260246000fd5b9060005260206000200154905092915050565b6001600160a01b038316612b045760405162461bcd60e51b815260040161080690613604565b8051825114612b255760405162461bcd60e51b815260040161080690613691565b604080516020810190915260009081905233905b8351811015612c52576000848281518110612b6457634e487b7160e01b600052603260045260246000fd5b602002602001015190506000848381518110612b9057634e487b7160e01b600052603260045260246000fd5b60209081029190910181015160008481526001835260408082206001600160a01b038c1683529093529182205490925090612bcb8383613781565b905082821015612bed5760405162461bcd60e51b8152600401610806906134f8565b60008481526001602090815260408083206001600160a01b038d168452909152902081905580612c3b576001600160a01b0389166000908152602081905260409020612c399085611e5c565b505b505050508080612c4a90613800565b915050612b39565b5060006001600160a01b0316846001600160a01b0316826001600160a01b03167f4a39dc06d4c0dbc64b70af90fd698a233a518aa5d07e595d983b8c0526c8f7fb8686604051612ca392919061346f565b60405180910390a450505050565b828054612cbd90613798565b90600052602060002090601f016020900481019282612cdf5760008555612d25565b82601f10612cf857805160ff1916838001178555612d25565b82800160010185558215612d25579182015b82811115612d25578251825591602001919060010190612d0a565b50612d31929150612ddb565b5090565b82805482825590600052602060002090600701600890048101928215612d255791602002820160005b83821115612da257835183826101000a81548163ffffffff021916908363ffffffff1602179055509260200192600401602081600301049283019260010302612d5e565b8015612dd25782816101000a81549063ffffffff0219169055600401602081600301049283019260010302612da2565b5050612d319291505b5b80821115612d315760008155600101612ddc565b600067ffffffffffffffff831115612e0a57612e0a613831565b604051612e21601f8501601f1916602001826137d3565b809150838152848484011115612e3657600080fd5b83836020830137600060208583010152509392505050565b80356001600160a01b038116811461088957600080fd5b600082601f830112612e75578081fd5b81356020612e82826136d9565b604051612e8f82826137d3565b8381528281019150858301600585901b87018401881015612eae578586fd5b855b85811015612ecc57813584529284019290840190600101612eb0565b5090979650505050505050565b600082601f830112612ee9578081fd5b610df183833560208501612df0565b600060208284031215612f09578081fd5b610df182612e4e565b60008060408385031215612f24578081fd5b612f2d83612e4e565b9150612f3b60208401612e4e565b90509250929050565b600080600080600060a08688031215612f5b578081fd5b612f6486612e4e565b9450612f7260208701612e4e565b9350604086013567ffffffffffffffff80821115612f8e578283fd5b612f9a89838a01612e65565b94506060880135915080821115612faf578283fd5b612fbb89838a01612e65565b93506080880135915080821115612fd0578283fd5b50612fdd88828901612ed9565b9150509295509295909350565b600080600080600060a08688031215613001578081fd5b61300a86612e4e565b945061301860208701612e4e565b93506040860135925060608601359150608086013567ffffffffffffffff811115613041578182fd5b612fdd88828901612ed9565b6000806040838503121561305f578182fd5b61306883612e4e565b91506020830135801515811461307c578182fd5b809150509250929050565b60008060408385031215613099578081fd5b6130a283612e4e565b946020939093013593505050565b600080604083850312156130c2578182fd5b823567ffffffffffffffff808211156130d9578384fd5b818501915085601f8301126130ec578384fd5b813560206130f9826136d9565b60405161310682826137d3565b8381528281019150858301600585901b870184018b1015613125578889fd5b8896505b8487101561314e5761313a81612e4e565b835260019690960195918301918301613129565b5096505086013592505080821115613164578283fd5b5061317185828601612e65565b9150509250929050565b60006020828403121561318c578081fd5b8135610df1816138f0565b6000602082840312156131a8578081fd5b8151610df1816138f0565b600080600080608085870312156131c8578182fd5b843567ffffffffffffffff808211156131df578384fd5b818701915087601f8301126131f2578384fd5b6020613202898435838601612df0565b9650808801359550604088013592508183111561321d578485fd5b828801925088601f840112613230578485fd5b823561323b816136d9565b60405161324882826137d3565b8281528381019150858401600584901b870185018d1015613267578889fd5b8896505b8387101561329a57803563ffffffff8116811461328657898afd5b83526001969096019591840191840161326b565b50965050505060608701359150808211156132b3578283fd5b506132c087828801612e65565b91505092959194509250565b6000602082840312156132dd578081fd5b5035919050565b600080604083850312156132f6578182fd5b82359150602083013567ffffffffffffffff811115613313578182fd5b61317185828601612e65565b60008060408385031215613331578182fd5b50508035926020909101359150565b6000815180845260208085019450808401835b8381101561336f57815187529582019590820190600101613353565b509495945050505050565b60008151808452815b8181101561339f57602081850181015186830182015201613383565b818111156133b05782602083870101525b50601f01601f19169290920160200192915050565b6001600160a01b0386811682528516602082015260a0604082018190526000906133f190830186613340565b82810360608401526134038186613340565b905082810360808401526117b5818561337a565b6001600160a01b03868116825285166020820152604081018490526060810183905260a0608082018190526000906134519083018461337a565b979650505050505050565b600060208252610df16020830184613340565b6000604082526134826040830185613340565b82810360208401526134948185613340565b95945050505050565b600060208252610df1602083018461337a565b60208082526028908201527f455243313135353a204552433131353552656365697665722072656a656374656040820152676420746f6b656e7360c01b606082015260800190565b60208082526024908201527f455243313135353a206275726e20616d6f756e7420657863656564732062616c604082015263616e636560e01b606082015260800190565b60208082526057908201527f54686973204964206e756d626572206973206e6f74206173736f63696174656460408201527f2077697468206f6e65206f6620796f75722073746172746572732c20706c656160608201527f736520747279207769746820612076616c69642069642e000000000000000000608082015260a00190565b60208082526025908201527f455243313135353a207472616e7366657220746f20746865207a65726f206164604082015264647265737360d81b606082015260800190565b60208082526023908201527f455243313135353a206275726e2066726f6d20746865207a65726f206164647260408201526265737360e81b606082015260800190565b6020808252602a908201527f455243313135353a20696e73756666696369656e742062616c616e636520666f60408201526939103a3930b739b332b960b11b606082015260800190565b60208082526028908201527f455243313135353a2069647320616e6420616d6f756e7473206c656e677468206040820152670dad2e6dac2e8c6d60c31b606082015260800190565b600067ffffffffffffffff8211156136f3576136f3613831565b5060051b60200190565b600082198211156137105761371061381b565b500190565b600063ffffffff8083168185168083038211156137345761373461381b565b01949350505050565b600060ff821660ff84168060ff0382111561375a5761375a61381b565b019392505050565b600081600019048311821515161561377c5761377c61381b565b500290565b6000828210156137935761379361381b565b500390565b600181811c908216806137ac57607f821691505b602082108114156137cd57634e487b7160e01b600052602260045260246000fd5b50919050565b601f8201601f1916810167ffffffffffffffff811182821017156137f9576137f9613831565b6040525050565b60006000198214156138145761381461381b565b5060010190565b634e487b7160e01b600052601160045260246000fd5b634e487b7160e01b600052604160045260246000fd5b600060033d1115610a0657600481823e5160e01c90565b600060443d101561386e57610a06565b6040516003193d81016004833e81513d67ffffffffffffffff81602484011181841117156138a0575050505050610a06565b82850191508151818111156138ba57505050505050610a06565b843d87010160208285010111156138d657505050505050610a06565b6138e5602082860101876137d3565b509094505050505090565b6001600160e01b03198116811461390657600080fd5b5056fea26469706673582212207ff15519fff64abfa0794f1fd02f39296be7af3b7108a9a1e87df7f98b3ff80864736f6c63430008030033","bytecodeSha1":"9be484ae0f010d1ffa0f990cde29abc91721d2eb","compiler":{"evm_version":"istanbul","optimizer":{"enabled":true,"runs":200},"version":"0.8.3+commit.8d00100c"},"contractName":"Cafe","language":"Solidity","natspec":{"kind":"dev","methods":{"bakeExistingRecipe(uint256,uint256[])":{"details":"Takes the id of an existing recipe and a batch of ingredients.  Burns the batch and the required flour, mints an item with the recipe Id "},"balanceOf(address,uint256)":{"details":"See {IERC1155-balanceOf}. Requirements: - `account` cannot be the zero address."},"balanceOfBatch(address[],uint256[])":{"details":"See {IERC1155-balanceOfBatch}. Requirements: - `accounts` and `ids` must have the same length."},"createStarter()":{"details":"Makes a new nonfungible starter with age attributes by burning 50 FLOUR "},"eatBakedGood(uint256,uint256)":{"details":"Burns an item, credits the player with a score equivalent to the total age of all ingredients "},"feedStarter(uint256)":{"details":"Burns 50 FLOUR and resets the time of death for your token"},"grindFlour()":{"details":"Credits the user FLOUR every 24 hours if submitted"},"isApprovedForAll(address,address)":{"details":"See {IERC1155-isApprovedForAll}."},"publishNewRecipe(string,uint256,uint32[],uint256[])":{"details":"Bakes and publishes a recipe that does not yet exist "},"safeBatchTransferFrom(address,address,uint256[],uint256[],bytes)":{"details":"See {IERC1155-safeBatchTransferFrom}."},"safeTransferFrom(address,address,uint256,uint256,bytes)":{"details":"See {IERC1155-safeTransferFrom}."},"setApprovalForAll(address,bool)":{"details":"See {IERC1155-setApprovalForAll}."},"splitStarter(uint256)":{"details":"Feeds and duplicates your starter, returning another with identical age - costs 100 FLOUR "},"supportsInterface(bytes4)":{"details":"See {IERC165-supportsInterface}."},"uri(uint256)":{"details":"See {IERC1155MetadataURI-uri}. This implementation returns the same URI for *all* token types. It relies on the token type ID substitution mechanism https://eips.ethereum.org/EIPS/eip-1155#metadata[defined in the EIP]. Clients calling this function must replace the `\\{id\\}` substring with the actual token type ID."}},"stateVariables":{"createCost":{"details":"These are the constructor parameters.  Create/feed Costs are the flour required to create and feed starters.   Timescale represents the timescale at which starters die, feed reset time, and  grindFlour cooldown grindReward is the reward for grinding flour"},"devAddress":{"details":"flourId denotes the id of the fungible FLOUR token dividerIndex separates semi-fungible starter ingredients and semi-fungible baked goods grindCooldown determine whether or not an address can grind flour"},"starterHighScore":{"details":"highscores here "},"startersCreated":{"details":"total stats"}},"version":1},"opcodes":"PUSH1 0x80 PUSH1 0x40 MSTORE CALLVALUE DUP1 ISZERO PUSH2 0x10 JUMPI PUSH1 0x0 DUP1 REVERT JUMPDEST POP PUSH1 0x4 CALLDATASIZE LT PUSH2 0x294 JUMPI PUSH1 0x0 CALLDATALOAD PUSH1 0xE0 SHR DUP1 PUSH4 0x7F8315CD GT PUSH2 0x167 JUMPI DUP1 PUSH4 0xC8CF79D9 GT PUSH2 0xCE JUMPI DUP1 PUSH4 0xE985E9C5 GT PUSH2 0x87 JUMPI DUP1 PUSH4 0xE985E9C5 EQ PUSH2 0x6F6 JUMPI DUP1 PUSH4 0xF242432A EQ PUSH2 0x732 JUMPI DUP1 PUSH4 0xF6D989F2 EQ PUSH2 0x745 JUMPI DUP1 PUSH4 0xF71ED3B8 EQ PUSH2 0x74E JUMPI DUP1 PUSH4 0xFC4F816C EQ PUSH2 0x778 JUMPI DUP1 PUSH4 0xFCF73CBE EQ PUSH2 0x78B JUMPI PUSH2 0x294 JUMP JUMPDEST DUP1 PUSH4 0xC8CF79D9 EQ PUSH2 0x62F JUMPI DUP1 PUSH4 0xCB208010 EQ PUSH2 0x642 JUMPI DUP1 PUSH4 0xD0EAF368 EQ PUSH2 0x665 JUMPI DUP1 PUSH4 0xD682D87A EQ PUSH2 0x68E JUMPI DUP1 PUSH4 0xE085C539 EQ PUSH2 0x6BA JUMPI DUP1 PUSH4 0xE11FD028 EQ PUSH2 0x6E3 JUMPI PUSH2 0x294 JUMP JUMPDEST DUP1 PUSH4 0xA41E1C17 GT PUSH2 0x120 JUMPI DUP1 PUSH4 0xA41E1C17 EQ PUSH2 0x5D1 JUMPI DUP1 PUSH4 0xAB5E9E8E EQ PUSH2 0x5E4 JUMPI DUP1 PUSH4 0xB172DECC EQ PUSH2 0x5ED JUMPI DUP1 PUSH4 0xBF3C95B9 EQ PUSH2 0x600 JUMPI DUP1 PUSH4 0xC3B1066F EQ PUSH2 0x613 JUMPI DUP1 PUSH4 0xC889D089 EQ PUSH2 0x626 JUMPI PUSH2 0x294 JUMP JUMPDEST DUP1 PUSH4 0x7F8315CD EQ PUSH2 0x510 JUMPI DUP1 PUSH4 0x976C39BE EQ PUSH2 0x536 JUMPI DUP1 PUSH4 0x97EC23CB EQ PUSH2 0x559 JUMPI DUP1 PUSH4 0xA22CB465 EQ PUSH2 0x586 JUMPI DUP1 PUSH4 0xA30B4DB9 EQ PUSH2 0x599 JUMPI DUP1 PUSH4 0xA3486758 EQ PUSH2 0x5C9 JUMPI PUSH2 0x294 JUMP JUMPDEST DUP1 PUSH4 0x36FF4C95 GT PUSH2 0x20B JUMPI DUP1 PUSH4 0x5C2C894A GT PUSH2 0x1C4 JUMPI DUP1 PUSH4 0x5C2C894A EQ PUSH2 0x452 JUMPI DUP1 PUSH4 0x6510989C EQ PUSH2 0x45B JUMPI DUP1 PUSH4 0x70B5E7B0 EQ PUSH2 0x46E JUMPI DUP1 PUSH4 0x781F1B75 EQ PUSH2 0x491 JUMPI DUP1 PUSH4 0x7985781F EQ PUSH2 0x4A4 JUMPI DUP1 PUSH4 0x7A77AF5C EQ PUSH2 0x4D3 JUMPI PUSH2 0x294 JUMP JUMPDEST DUP1 PUSH4 0x36FF4C95 EQ PUSH2 0x3C4 JUMPI DUP1 PUSH4 0x3AD10EF6 EQ PUSH2 0x3F0 JUMPI DUP1 PUSH4 0x42DA6F9C EQ PUSH2 0x403 JUMPI DUP1 PUSH4 0x4E1273F4 EQ PUSH2 0x416 JUMPI DUP1 PUSH4 0x4F41393B EQ PUSH2 0x436 JUMPI DUP1 PUSH4 0x5AAB8E2F EQ PUSH2 0x449 JUMPI PUSH2 0x294 JUMP JUMPDEST DUP1 PUSH4 0x214FA99B GT PUSH2 0x25D JUMPI DUP1 PUSH4 0x214FA99B EQ PUSH2 0x31D JUMPI DUP1 PUSH4 0x2A316CDF EQ PUSH2 0x348 JUMPI DUP1 PUSH4 0x2B944DDF EQ PUSH2 0x36B JUMPI DUP1 PUSH4 0x2EB2C2D6 EQ PUSH2 0x374 JUMPI DUP1 PUSH4 0x2F745C59 EQ PUSH2 0x389 JUMPI DUP1 PUSH4 0x34B7FA22 EQ PUSH2 0x39C JUMPI PUSH2 0x294 JUMP JUMPDEST DUP1 PUSH3 0xFDD58E EQ PUSH2 0x299 JUMPI DUP1 PUSH4 0x1FFC9A7 EQ PUSH2 0x2BF JUMPI DUP1 PUSH4 0x7047482 EQ PUSH2 0x2E2 JUMPI DUP1 PUSH4 0xE89341C EQ PUSH2 0x2EA JUMPI DUP1 PUSH4 0x1269CA40 EQ PUSH2 0x30A JUMPI JUMPDEST PUSH1 0x0 DUP1 REVERT JUMPDEST PUSH2 0x2AC PUSH2 0x2A7 CALLDATASIZE PUSH1 0x4 PUSH2 0x3087 JUMP JUMPDEST PUSH2 0x79E JUMP JUMPDEST PUSH1 0x40 MLOAD SWAP1 DUP2 MSTORE PUSH1 0x20 ADD JUMPDEST PUSH1 0x40 MLOAD DUP1 SWAP2 SUB SWAP1 RETURN JUMPDEST PUSH2 0x2D2 PUSH2 0x2CD CALLDATASIZE PUSH1 0x4 PUSH2 0x317B JUMP JUMPDEST PUSH2 0x83A JUMP JUMPDEST PUSH1 0x40 MLOAD SWAP1 ISZERO ISZERO DUP2 MSTORE PUSH1 0x20 ADD PUSH2 0x2B6 JUMP JUMPDEST PUSH2 0x2D2 PUSH2 0x88E JUMP JUMPDEST PUSH2 0x2FD PUSH2 0x2F8 CALLDATASIZE PUSH1 0x4 PUSH2 0x32CC JUMP JUMPDEST PUSH2 0xA09 JUMP JUMPDEST PUSH1 0x40 MLOAD PUSH2 0x2B6 SWAP2 SWAP1 PUSH2 0x349D JUMP JUMPDEST PUSH2 0x2FD PUSH2 0x318 CALLDATASIZE PUSH1 0x4 PUSH2 0x32CC JUMP JUMPDEST PUSH2 0xA9D JUMP JUMPDEST PUSH2 0x330 PUSH2 0x32B CALLDATASIZE PUSH1 0x4 PUSH2 0x32CC JUMP JUMPDEST PUSH2 0xABA JUMP JUMPDEST PUSH1 0x40 MLOAD PUSH1 0x1 PUSH1 0x1 PUSH1 0xA0 SHL SUB SWAP1 SWAP2 AND DUP2 MSTORE PUSH1 0x20 ADD PUSH2 0x2B6 JUMP JUMPDEST PUSH2 0x2AC PUSH2 0x356 CALLDATASIZE PUSH1 0x4 PUSH2 0x32CC JUMP JUMPDEST PUSH1 0x0 SWAP1 DUP2 MSTORE PUSH1 0xD PUSH1 0x20 MSTORE PUSH1 0x40 SWAP1 KECCAK256 PUSH1 0x1 ADD SLOAD SWAP1 JUMP JUMPDEST PUSH2 0x2AC PUSH1 0x35 SLOAD DUP2 JUMP JUMPDEST PUSH2 0x387 PUSH2 0x382 CALLDATASIZE PUSH1 0x4 PUSH2 0x2F44 JUMP JUMPDEST PUSH2 0xADA JUMP JUMPDEST STOP JUMPDEST PUSH2 0x2AC PUSH2 0x397 CALLDATASIZE PUSH1 0x4 PUSH2 0x3087 JUMP JUMPDEST PUSH2 0xDCF JUMP JUMPDEST PUSH2 0x3AF PUSH2 0x3AA CALLDATASIZE PUSH1 0x4 PUSH2 0x331F JUMP JUMPDEST PUSH2 0xDF8 JUMP JUMPDEST PUSH1 0x40 MLOAD PUSH4 0xFFFFFFFF SWAP1 SWAP2 AND DUP2 MSTORE PUSH1 0x20 ADD PUSH2 0x2B6 JUMP JUMPDEST PUSH2 0x2D2 PUSH2 0x3D2 CALLDATASIZE PUSH1 0x4 PUSH2 0x2EF8 JUMP JUMPDEST PUSH1 0x1 PUSH1 0x1 PUSH1 0xA0 SHL SUB AND PUSH1 0x0 SWAP1 DUP2 MSTORE PUSH1 0x10 PUSH1 0x20 MSTORE PUSH1 0x40 SWAP1 KECCAK256 SLOAD PUSH1 0xFF AND SWAP1 JUMP JUMPDEST PUSH1 0x8 SLOAD PUSH2 0x330 SWAP1 PUSH1 0x1 PUSH1 0x1 PUSH1 0xA0 SHL SUB AND DUP2 JUMP JUMPDEST PUSH2 0x2AC PUSH2 0x411 CALLDATASIZE PUSH1 0x4 PUSH2 0x2EF8 JUMP JUMPDEST PUSH2 0xE57 JUMP JUMPDEST PUSH2 0x429 PUSH2 0x424 CALLDATASIZE PUSH1 0x4 PUSH2 0x30B0 JUMP JUMPDEST PUSH2 0xE78 JUMP JUMPDEST PUSH1 0x40 MLOAD PUSH2 0x2B6 SWAP2 SWAP1 PUSH2 0x345C JUMP JUMPDEST PUSH2 0x2D2 PUSH2 0x444 CALLDATASIZE PUSH1 0x4 PUSH2 0x32E4 JUMP JUMPDEST PUSH2 0xFDA JUMP JUMPDEST PUSH2 0x2AC PUSH1 0x32 SLOAD DUP2 JUMP JUMPDEST PUSH2 0x2AC PUSH1 0x36 SLOAD DUP2 JUMP JUMPDEST PUSH2 0x2D2 PUSH2 0x469 CALLDATASIZE PUSH1 0x4 PUSH2 0x331F JUMP JUMPDEST PUSH2 0x11C1 JUMP JUMPDEST PUSH2 0x2AC PUSH2 0x47C CALLDATASIZE PUSH1 0x4 PUSH2 0x32CC JUMP JUMPDEST PUSH1 0x0 SWAP1 DUP2 MSTORE PUSH1 0xD PUSH1 0x20 MSTORE PUSH1 0x40 SWAP1 KECCAK256 PUSH1 0x5 ADD SLOAD SWAP1 JUMP JUMPDEST PUSH2 0x2D2 PUSH2 0x49F CALLDATASIZE PUSH1 0x4 PUSH2 0x32CC JUMP JUMPDEST PUSH2 0x12DA JUMP JUMPDEST PUSH2 0x3AF PUSH2 0x4B2 CALLDATASIZE PUSH1 0x4 PUSH2 0x2EF8 JUMP JUMPDEST PUSH1 0x1 PUSH1 0x1 PUSH1 0xA0 SHL SUB AND PUSH1 0x0 SWAP1 DUP2 MSTORE PUSH1 0xC PUSH1 0x20 MSTORE PUSH1 0x40 SWAP1 KECCAK256 SLOAD PUSH4 0xFFFFFFFF AND SWAP1 JUMP JUMPDEST PUSH2 0x4FE PUSH2 0x4E1 CALLDATASIZE PUSH1 0x4 PUSH2 0x32CC JUMP JUMPDEST PUSH1 0x0 SWAP1 DUP2 MSTORE PUSH1 0xB PUSH1 0x20 MSTORE PUSH1 0x40 SWAP1 KECCAK256 SLOAD PUSH5 0x100000000 SWAP1 DIV PUSH1 0xFF AND SWAP1 JUMP JUMPDEST PUSH1 0x40 MLOAD PUSH1 0xFF SWAP1 SWAP2 AND DUP2 MSTORE PUSH1 0x20 ADD PUSH2 0x2B6 JUMP JUMPDEST PUSH2 0x3AF PUSH2 0x51E CALLDATASIZE PUSH1 0x4 PUSH2 0x32CC JUMP JUMPDEST PUSH1 0x0 SWAP1 DUP2 MSTORE PUSH1 0xB PUSH1 0x20 MSTORE PUSH1 0x40 SWAP1 KECCAK256 SLOAD PUSH4 0xFFFFFFFF AND SWAP1 JUMP JUMPDEST PUSH2 0x2AC PUSH2 0x544 CALLDATASIZE PUSH1 0x4 PUSH2 0x32CC JUMP JUMPDEST PUSH1 0x0 SWAP1 DUP2 MSTORE PUSH1 0xD PUSH1 0x20 MSTORE PUSH1 0x40 SWAP1 KECCAK256 PUSH1 0x4 ADD SLOAD SWAP1 JUMP JUMPDEST PUSH2 0x3AF PUSH2 0x567 CALLDATASIZE PUSH1 0x4 PUSH2 0x32CC JUMP JUMPDEST PUSH1 0x0 SWAP1 DUP2 MSTORE PUSH1 0xB PUSH1 0x20 MSTORE PUSH1 0x40 SWAP1 KECCAK256 SLOAD PUSH1 0x1 PUSH1 0x28 SHL SWAP1 DIV PUSH4 0xFFFFFFFF AND SWAP1 JUMP JUMPDEST PUSH2 0x387 PUSH2 0x594 CALLDATASIZE PUSH1 0x4 PUSH2 0x304D JUMP JUMPDEST PUSH2 0x139C JUMP JUMPDEST PUSH2 0x330 PUSH2 0x5A7 CALLDATASIZE PUSH1 0x4 PUSH2 0x32CC JUMP JUMPDEST PUSH1 0x0 SWAP1 DUP2 MSTORE PUSH1 0xB PUSH1 0x20 MSTORE PUSH1 0x40 SWAP1 KECCAK256 SLOAD PUSH1 0x1 PUSH1 0x48 SHL SWAP1 DIV PUSH1 0x1 PUSH1 0x1 PUSH1 0xA0 SHL SUB AND SWAP1 JUMP JUMPDEST PUSH2 0x387 PUSH2 0x1480 JUMP JUMPDEST PUSH2 0x2AC PUSH2 0x5DF CALLDATASIZE PUSH1 0x4 PUSH2 0x31B3 JUMP JUMPDEST PUSH2 0x155A JUMP JUMPDEST PUSH2 0x2AC PUSH1 0x33 SLOAD DUP2 JUMP JUMPDEST PUSH2 0x2D2 PUSH2 0x5FB CALLDATASIZE PUSH1 0x4 PUSH2 0x331F JUMP JUMPDEST PUSH2 0x17C1 JUMP JUMPDEST PUSH2 0x2AC PUSH2 0x60E CALLDATASIZE PUSH1 0x4 PUSH2 0x2EF8 JUMP JUMPDEST PUSH2 0x18B7 JUMP JUMPDEST PUSH2 0x2AC PUSH2 0x621 CALLDATASIZE PUSH1 0x4 PUSH2 0x32CC JUMP JUMPDEST PUSH2 0x18D8 JUMP JUMPDEST PUSH2 0x2AC PUSH1 0x34 SLOAD DUP2 JUMP JUMPDEST PUSH2 0x2D2 PUSH2 0x63D CALLDATASIZE PUSH1 0x4 PUSH2 0x32CC JUMP JUMPDEST PUSH2 0x18EF JUMP JUMPDEST PUSH2 0x2AC PUSH2 0x650 CALLDATASIZE PUSH1 0x4 PUSH2 0x32CC JUMP JUMPDEST PUSH1 0x0 SWAP1 DUP2 MSTORE PUSH1 0xD PUSH1 0x20 MSTORE PUSH1 0x40 SWAP1 KECCAK256 PUSH1 0x2 ADD SLOAD SWAP1 JUMP JUMPDEST PUSH2 0x3AF PUSH2 0x673 CALLDATASIZE PUSH1 0x4 PUSH2 0x32CC JUMP JUMPDEST PUSH1 0x0 SWAP1 DUP2 MSTORE PUSH1 0xD PUSH1 0x20 MSTORE PUSH1 0x40 SWAP1 KECCAK256 PUSH1 0x6 ADD SLOAD PUSH4 0xFFFFFFFF AND SWAP1 JUMP JUMPDEST PUSH2 0x330 PUSH2 0x69C CALLDATASIZE PUSH1 0x4 PUSH2 0x32CC JUMP JUMPDEST PUSH1 0x0 SWAP1 DUP2 MSTORE PUSH1 0xD PUSH1 0x20 MSTORE PUSH1 0x40 SWAP1 KECCAK256 PUSH1 0x3 ADD SLOAD PUSH1 0x1 PUSH1 0x1 PUSH1 0xA0 SHL SUB AND SWAP1 JUMP JUMPDEST PUSH2 0x2AC PUSH2 0x6C8 CALLDATASIZE PUSH1 0x4 PUSH2 0x2EF8 JUMP JUMPDEST PUSH1 0x1 PUSH1 0x1 PUSH1 0xA0 SHL SUB AND PUSH1 0x0 SWAP1 DUP2 MSTORE PUSH1 0xF PUSH1 0x20 MSTORE PUSH1 0x40 SWAP1 KECCAK256 SLOAD SWAP1 JUMP JUMPDEST PUSH2 0x2AC PUSH2 0x6F1 CALLDATASIZE PUSH1 0x4 PUSH2 0x32CC JUMP JUMPDEST PUSH2 0x195A JUMP JUMPDEST PUSH2 0x2D2 PUSH2 0x704 CALLDATASIZE PUSH1 0x4 PUSH2 0x2F12 JUMP JUMPDEST PUSH1 0x1 PUSH1 0x1 PUSH1 0xA0 SHL SUB SWAP2 DUP3 AND PUSH1 0x0 SWAP1 DUP2 MSTORE PUSH1 0x2 PUSH1 0x20 SWAP1 DUP2 MSTORE PUSH1 0x40 DUP1 DUP4 KECCAK256 SWAP4 SWAP1 SWAP5 AND DUP3 MSTORE SWAP2 SWAP1 SWAP2 MSTORE KECCAK256 SLOAD PUSH1 0xFF AND SWAP1 JUMP JUMPDEST PUSH2 0x387 PUSH2 0x740 CALLDATASIZE PUSH1 0x4 PUSH2 0x2FEA JUMP JUMPDEST PUSH2 0x196A JUMP JUMPDEST PUSH2 0x2AC PUSH1 0x37 SLOAD DUP2 JUMP JUMPDEST PUSH2 0x2D2 PUSH2 0x75C CALLDATASIZE PUSH1 0x4 PUSH2 0x32CC JUMP JUMPDEST PUSH1 0x0 SWAP1 DUP2 MSTORE PUSH1 0xB PUSH1 0x20 MSTORE PUSH1 0x40 SWAP1 KECCAK256 SLOAD PUSH1 0x1 PUSH1 0xE8 SHL SWAP1 DIV PUSH1 0xFF AND SWAP1 JUMP JUMPDEST PUSH2 0x2D2 PUSH2 0x786 CALLDATASIZE PUSH1 0x4 PUSH2 0x32CC JUMP JUMPDEST PUSH2 0x1B9F JUMP JUMPDEST PUSH2 0x2AC PUSH2 0x799 CALLDATASIZE PUSH1 0x4 PUSH2 0x3087 JUMP JUMPDEST PUSH2 0x1CC8 JUMP JUMPDEST PUSH1 0x0 PUSH1 0x1 PUSH1 0x1 PUSH1 0xA0 SHL SUB DUP4 AND PUSH2 0x80F JUMPI PUSH1 0x40 MLOAD PUSH3 0x461BCD PUSH1 0xE5 SHL DUP2 MSTORE PUSH1 0x20 PUSH1 0x4 DUP3 ADD MSTORE PUSH1 0x2B PUSH1 0x24 DUP3 ADD MSTORE PUSH32 0x455243313135353A2062616C616E636520717565727920666F7220746865207A PUSH1 0x44 DUP3 ADD MSTORE PUSH11 0x65726F2061646472657373 PUSH1 0xA8 SHL PUSH1 0x64 DUP3 ADD MSTORE PUSH1 0x84 ADD JUMPDEST PUSH1 0x40 MLOAD DUP1 SWAP2 SUB SWAP1 REVERT JUMPDEST POP PUSH1 0x0 DUP2 DUP2 MSTORE PUSH1 0x1 PUSH1 0x20 SWAP1 DUP2 MSTORE PUSH1 0x40 DUP1 DUP4 KECCAK256 PUSH1 0x1 PUSH1 0x1 PUSH1 0xA0 SHL SUB DUP7 AND DUP5 MSTORE SWAP1 SWAP2 MSTORE SWAP1 KECCAK256 SLOAD JUMPDEST SWAP3 SWAP2 POP POP JUMP JUMPDEST PUSH1 0x0 PUSH1 0x1 PUSH1 0x1 PUSH1 0xE0 SHL SUB NOT DUP3 AND PUSH4 0x6CDB3D13 PUSH1 0xE1 SHL EQ DUP1 PUSH2 0x86B JUMPI POP PUSH1 0x1 PUSH1 0x1 PUSH1 0xE0 SHL SUB NOT DUP3 AND PUSH4 0x3A24D07 PUSH1 0xE2 SHL EQ JUMPDEST DUP1 PUSH2 0x886 JUMPI POP PUSH4 0x1FFC9A7 PUSH1 0xE0 SHL PUSH1 0x1 PUSH1 0x1 PUSH1 0xE0 SHL SUB NOT DUP4 AND EQ JUMPDEST SWAP1 POP JUMPDEST SWAP2 SWAP1 POP JUMP JUMPDEST PUSH1 0x0 PUSH2 0x89C CALLER PUSH1 0x4 SLOAD PUSH2 0x1CEA JUMP JUMPDEST PUSH1 0x0 PUSH1 0x35 SLOAD PUSH1 0x1 PUSH2 0x8AD SWAP2 SWAP1 PUSH2 0x36FD JUMP JUMPDEST SWAP1 POP PUSH2 0x8D5 CALLER PUSH2 0x8BE DUP4 PUSH1 0x0 PUSH2 0x36FD JUMP JUMPDEST PUSH1 0x1 PUSH1 0x40 MLOAD DUP1 PUSH1 0x20 ADD PUSH1 0x40 MSTORE DUP1 PUSH1 0x0 DUP2 MSTORE POP PUSH2 0x1D2A JUMP JUMPDEST PUSH1 0x40 DUP1 MLOAD PUSH1 0xA0 DUP2 ADD SWAP1 SWAP2 MSTORE PUSH1 0x6 SLOAD PUSH1 0x0 SWAP2 SWAP1 DUP2 SWAP1 PUSH2 0x8F9 SWAP1 PUSH4 0xFFFFFFFF AND TIMESTAMP PUSH2 0x36FD JUMP JUMPDEST PUSH4 0xFFFFFFFF AND DUP2 MSTORE PUSH1 0x20 ADD PUSH1 0x0 PUSH1 0xFF AND DUP2 MSTORE PUSH1 0x20 ADD TIMESTAMP PUSH4 0xFFFFFFFF AND DUP2 MSTORE PUSH1 0x20 ADD CALLER PUSH1 0x1 PUSH1 0x1 PUSH1 0xA0 SHL SUB AND DUP2 MSTORE PUSH1 0x20 ADD PUSH1 0x0 ISZERO ISZERO DUP2 MSTORE POP SWAP1 POP PUSH1 0x1 PUSH1 0x35 PUSH1 0x0 DUP3 DUP3 SLOAD PUSH2 0x945 SWAP2 SWAP1 PUSH2 0x36FD JUMP JUMPDEST SWAP1 SWAP2 SSTORE POP POP PUSH1 0x0 SWAP2 DUP3 MSTORE PUSH1 0xB PUSH1 0x20 SWAP1 DUP2 MSTORE PUSH1 0x40 SWAP3 DUP4 SWAP1 KECCAK256 DUP3 MLOAD DUP2 SLOAD SWAP3 DUP5 ADD MLOAD SWAP5 DUP5 ADD MLOAD PUSH1 0x60 DUP6 ADD MLOAD PUSH1 0x80 SWAP1 SWAP6 ADD MLOAD ISZERO ISZERO PUSH1 0x1 PUSH1 0xE8 SHL MUL PUSH1 0xFF PUSH1 0xE8 SHL NOT PUSH1 0x1 PUSH1 0x1 PUSH1 0xA0 SHL SUB SWAP1 SWAP7 AND PUSH1 0x1 PUSH1 0x48 SHL MUL PUSH32 0xFFFFFF0000000000000000000000000000000000000000FFFFFFFFFFFFFFFFFF PUSH4 0xFFFFFFFF SWAP4 DUP5 AND PUSH1 0x1 PUSH1 0x28 SHL MUL AND PUSH6 0x10000000000 PUSH1 0x1 PUSH1 0xE8 SHL SUB NOT PUSH1 0xFF SWAP1 SWAP10 AND PUSH5 0x100000000 MUL PUSH5 0xFFFFFFFFFF NOT SWAP1 SWAP8 AND SWAP4 SWAP1 SWAP5 AND SWAP3 SWAP1 SWAP3 OR SWAP5 SWAP1 SWAP5 OR SWAP6 SWAP1 SWAP6 AND OR SWAP4 SWAP1 SWAP4 OR SWAP2 SWAP1 SWAP2 AND OR SWAP1 SSTORE POP PUSH1 0x1 JUMPDEST SWAP1 JUMP JUMPDEST PUSH1 0x60 PUSH1 0x3 DUP1 SLOAD PUSH2 0xA18 SWAP1 PUSH2 0x3798 JUMP JUMPDEST DUP1 PUSH1 0x1F ADD PUSH1 0x20 DUP1 SWAP2 DIV MUL PUSH1 0x20 ADD PUSH1 0x40 MLOAD SWAP1 DUP2 ADD PUSH1 0x40 MSTORE DUP1 SWAP3 SWAP2 SWAP1 DUP2 DUP2 MSTORE PUSH1 0x20 ADD DUP3 DUP1 SLOAD PUSH2 0xA44 SWAP1 PUSH2 0x3798 JUMP JUMPDEST DUP1 ISZERO PUSH2 0xA91 JUMPI DUP1 PUSH1 0x1F LT PUSH2 0xA66 JUMPI PUSH2 0x100 DUP1 DUP4 SLOAD DIV MUL DUP4 MSTORE SWAP2 PUSH1 0x20 ADD SWAP2 PUSH2 0xA91 JUMP JUMPDEST DUP3 ADD SWAP2 SWAP1 PUSH1 0x0 MSTORE PUSH1 0x20 PUSH1 0x0 KECCAK256 SWAP1 JUMPDEST DUP2 SLOAD DUP2 MSTORE SWAP1 PUSH1 0x1 ADD SWAP1 PUSH1 0x20 ADD DUP1 DUP4 GT PUSH2 0xA74 JUMPI DUP3 SWAP1 SUB PUSH1 0x1F AND DUP3 ADD SWAP2 JUMPDEST POP POP POP POP POP SWAP1 POP SWAP2 SWAP1 POP JUMP JUMPDEST PUSH1 0x0 DUP2 DUP2 MSTORE PUSH1 0xD PUSH1 0x20 MSTORE PUSH1 0x40 SWAP1 KECCAK256 DUP1 SLOAD PUSH1 0x60 SWAP2 SWAP1 PUSH2 0xA18 SWAP1 PUSH2 0x3798 JUMP JUMPDEST PUSH1 0x27 DUP2 PUSH1 0xB DUP2 LT PUSH2 0xACA JUMPI PUSH1 0x0 DUP1 REVERT JUMPDEST ADD SLOAD PUSH1 0x1 PUSH1 0x1 PUSH1 0xA0 SHL SUB AND SWAP1 POP DUP2 JUMP JUMPDEST DUP2 MLOAD DUP4 MLOAD EQ PUSH2 0xAFB JUMPI PUSH1 0x40 MLOAD PUSH3 0x461BCD PUSH1 0xE5 SHL DUP2 MSTORE PUSH1 0x4 ADD PUSH2 0x806 SWAP1 PUSH2 0x3691 JUMP JUMPDEST PUSH1 0x1 PUSH1 0x1 PUSH1 0xA0 SHL SUB DUP5 AND PUSH2 0xB21 JUMPI PUSH1 0x40 MLOAD PUSH3 0x461BCD PUSH1 0xE5 SHL DUP2 MSTORE PUSH1 0x4 ADD PUSH2 0x806 SWAP1 PUSH2 0x35BF JUMP JUMPDEST PUSH1 0x1 PUSH1 0x1 PUSH1 0xA0 SHL SUB DUP6 AND CALLER EQ DUP1 PUSH2 0xB3D JUMPI POP PUSH2 0xB3D DUP6 CALLER PUSH2 0x704 JUMP JUMPDEST PUSH2 0xBA4 JUMPI PUSH1 0x40 MLOAD PUSH3 0x461BCD PUSH1 0xE5 SHL DUP2 MSTORE PUSH1 0x20 PUSH1 0x4 DUP3 ADD MSTORE PUSH1 0x32 PUSH1 0x24 DUP3 ADD MSTORE PUSH32 0x455243313135353A207472616E736665722063616C6C6572206973206E6F7420 PUSH1 0x44 DUP3 ADD MSTORE PUSH18 0x1BDDDB995C881B9BDC88185C1C1C9BDD9959 PUSH1 0x72 SHL PUSH1 0x64 DUP3 ADD MSTORE PUSH1 0x84 ADD PUSH2 0x806 JUMP JUMPDEST CALLER PUSH1 0x0 JUMPDEST DUP5 MLOAD DUP2 LT ISZERO PUSH2 0xD61 JUMPI PUSH1 0x0 DUP6 DUP3 DUP2 MLOAD DUP2 LT PUSH2 0xBD3 JUMPI PUSH4 0x4E487B71 PUSH1 0xE0 SHL PUSH1 0x0 MSTORE PUSH1 0x32 PUSH1 0x4 MSTORE PUSH1 0x24 PUSH1 0x0 REVERT JUMPDEST PUSH1 0x20 MUL PUSH1 0x20 ADD ADD MLOAD SWAP1 POP PUSH1 0x0 DUP6 DUP4 DUP2 MLOAD DUP2 LT PUSH2 0xBFF JUMPI PUSH4 0x4E487B71 PUSH1 0xE0 SHL PUSH1 0x0 MSTORE PUSH1 0x32 PUSH1 0x4 MSTORE PUSH1 0x24 PUSH1 0x0 REVERT JUMPDEST PUSH1 0x20 SWAP1 DUP2 MUL SWAP2 SWAP1 SWAP2 ADD DUP2 ADD MLOAD PUSH1 0x0 DUP5 DUP2 MSTORE PUSH1 0x1 DUP4 MSTORE PUSH1 0x40 DUP1 DUP3 KECCAK256 PUSH1 0x1 PUSH1 0x1 PUSH1 0xA0 SHL SUB DUP15 AND DUP4 MSTORE SWAP1 SWAP4 MSTORE SWAP2 SWAP1 SWAP2 KECCAK256 SLOAD SWAP1 SWAP2 POP DUP2 DUP2 LT ISZERO PUSH2 0xC50 JUMPI PUSH1 0x40 MLOAD PUSH3 0x461BCD PUSH1 0xE5 SHL DUP2 MSTORE PUSH1 0x4 ADD PUSH2 0x806 SWAP1 PUSH2 0x3647 JUMP JUMPDEST PUSH2 0xC5A DUP3 DUP3 PUSH2 0x3781 JUMP JUMPDEST PUSH1 0x1 PUSH1 0x0 DUP6 DUP2 MSTORE PUSH1 0x20 ADD SWAP1 DUP2 MSTORE PUSH1 0x20 ADD PUSH1 0x0 KECCAK256 PUSH1 0x0 DUP13 PUSH1 0x1 PUSH1 0x1 PUSH1 0xA0 SHL SUB AND PUSH1 0x1 PUSH1 0x1 PUSH1 0xA0 SHL SUB AND DUP2 MSTORE PUSH1 0x20 ADD SWAP1 DUP2 MSTORE PUSH1 0x20 ADD PUSH1 0x0 KECCAK256 DUP2 SWAP1 SSTORE POP DUP2 PUSH1 0x1 PUSH1 0x0 DUP6 DUP2 MSTORE PUSH1 0x20 ADD SWAP1 DUP2 MSTORE PUSH1 0x20 ADD PUSH1 0x0 KECCAK256 PUSH1 0x0 DUP12 PUSH1 0x1 PUSH1 0x1 PUSH1 0xA0 SHL SUB AND PUSH1 0x1 PUSH1 0x1 PUSH1 0xA0 SHL SUB AND DUP2 MSTORE PUSH1 0x20 ADD SWAP1 DUP2 MSTORE PUSH1 0x20 ADD PUSH1 0x0 KECCAK256 PUSH1 0x0 DUP3 DUP3 SLOAD PUSH2 0xCDA SWAP2 SWAP1 PUSH2 0x36FD JUMP JUMPDEST SWAP1 SWAP2 SSTORE POP POP PUSH1 0x1 PUSH1 0x1 PUSH1 0xA0 SHL SUB DUP10 AND PUSH1 0x0 SWAP1 DUP2 MSTORE PUSH1 0x20 DUP2 SWAP1 MSTORE PUSH1 0x40 SWAP1 KECCAK256 PUSH2 0xD01 SWAP1 DUP5 PUSH2 0x1E50 JUMP JUMPDEST POP PUSH1 0x0 DUP4 DUP2 MSTORE PUSH1 0x1 PUSH1 0x20 SWAP1 DUP2 MSTORE PUSH1 0x40 DUP1 DUP4 KECCAK256 PUSH1 0x1 PUSH1 0x1 PUSH1 0xA0 SHL SUB DUP15 AND DUP5 MSTORE SWAP1 SWAP2 MSTORE SWAP1 KECCAK256 SLOAD PUSH2 0xD4D JUMPI PUSH1 0x1 PUSH1 0x1 PUSH1 0xA0 SHL SUB DUP11 AND PUSH1 0x0 SWAP1 DUP2 MSTORE PUSH1 0x20 DUP2 SWAP1 MSTORE PUSH1 0x40 SWAP1 KECCAK256 PUSH2 0xD4B SWAP1 DUP5 PUSH2 0x1E5C JUMP JUMPDEST POP JUMPDEST POP POP POP DUP1 PUSH2 0xD5A SWAP1 PUSH2 0x3800 JUMP JUMPDEST SWAP1 POP PUSH2 0xBA8 JUMP JUMPDEST POP DUP5 PUSH1 0x1 PUSH1 0x1 PUSH1 0xA0 SHL SUB AND DUP7 PUSH1 0x1 PUSH1 0x1 PUSH1 0xA0 SHL SUB AND DUP3 PUSH1 0x1 PUSH1 0x1 PUSH1 0xA0 SHL SUB AND PUSH32 0x4A39DC06D4C0DBC64B70AF90FD698A233A518AA5D07E595D983B8C0526C8F7FB DUP8 DUP8 PUSH1 0x40 MLOAD PUSH2 0xDB1 SWAP3 SWAP2 SWAP1 PUSH2 0x346F JUMP JUMPDEST PUSH1 0x40 MLOAD DUP1 SWAP2 SUB SWAP1 LOG4 PUSH2 0xDC7 DUP2 DUP8 DUP8 DUP8 DUP8 DUP8 PUSH2 0x1E68 JUMP JUMPDEST POP POP POP POP POP POP JUMP JUMPDEST PUSH1 0x1 PUSH1 0x1 PUSH1 0xA0 SHL SUB DUP3 AND PUSH1 0x0 SWAP1 DUP2 MSTORE PUSH1 0x20 DUP2 SWAP1 MSTORE PUSH1 0x40 DUP2 KECCAK256 PUSH2 0xDF1 SWAP1 DUP4 PUSH2 0x1FD3 JUMP JUMPDEST SWAP4 SWAP3 POP POP POP JUMP JUMPDEST PUSH1 0x0 DUP3 DUP2 MSTORE PUSH1 0xD PUSH1 0x20 MSTORE PUSH1 0x40 DUP2 KECCAK256 PUSH1 0x2 ADD DUP1 SLOAD DUP4 SWAP1 DUP2 LT PUSH2 0xE29 JUMPI PUSH4 0x4E487B71 PUSH1 0xE0 SHL PUSH1 0x0 MSTORE PUSH1 0x32 PUSH1 0x4 MSTORE PUSH1 0x24 PUSH1 0x0 REVERT JUMPDEST SWAP1 PUSH1 0x0 MSTORE PUSH1 0x20 PUSH1 0x0 KECCAK256 SWAP1 PUSH1 0x8 SWAP2 DUP3 DUP3 DIV ADD SWAP2 SWAP1 MOD PUSH1 0x4 MUL SWAP1 SLOAD SWAP1 PUSH2 0x100 EXP SWAP1 DIV PUSH4 0xFFFFFFFF AND SWAP1 POP SWAP3 SWAP2 POP POP JUMP JUMPDEST PUSH1 0x1 PUSH1 0x1 PUSH1 0xA0 SHL SUB DUP2 AND PUSH1 0x0 SWAP1 DUP2 MSTORE PUSH1 0x20 DUP2 SWAP1 MSTORE PUSH1 0x40 DUP2 KECCAK256 PUSH2 0x886 SWAP1 PUSH2 0x1FDF JUMP JUMPDEST PUSH1 0x60 DUP2 MLOAD DUP4 MLOAD EQ PUSH2 0xEDD JUMPI PUSH1 0x40 MLOAD PUSH3 0x461BCD PUSH1 0xE5 SHL DUP2 MSTORE PUSH1 0x20 PUSH1 0x4 DUP3 ADD MSTORE PUSH1 0x29 PUSH1 0x24 DUP3 ADD MSTORE PUSH32 0x455243313135353A206163636F756E747320616E6420696473206C656E677468 PUSH1 0x44 DUP3 ADD MSTORE PUSH9 0x40DAD2E6DAC2E8C6D PUSH1 0xBB SHL PUSH1 0x64 DUP3 ADD MSTORE PUSH1 0x84 ADD PUSH2 0x806 JUMP JUMPDEST PUSH1 0x0 DUP4 MLOAD PUSH8 0xFFFFFFFFFFFFFFFF DUP2 GT ISZERO PUSH2 0xF07 JUMPI PUSH4 0x4E487B71 PUSH1 0xE0 SHL PUSH1 0x0 MSTORE PUSH1 0x41 PUSH1 0x4 MSTORE PUSH1 0x24 PUSH1 0x0 REVERT JUMPDEST PUSH1 0x40 MLOAD SWAP1 DUP1 DUP3 MSTORE DUP1 PUSH1 0x20 MUL PUSH1 0x20 ADD DUP3 ADD PUSH1 0x40 MSTORE DUP1 ISZERO PUSH2 0xF30 JUMPI DUP2 PUSH1 0x20 ADD PUSH1 0x20 DUP3 MUL DUP1 CALLDATASIZE DUP4 CALLDATACOPY ADD SWAP1 POP JUMPDEST POP SWAP1 POP PUSH1 0x0 JUMPDEST DUP5 MLOAD DUP2 LT ISZERO PUSH2 0xFD2 JUMPI PUSH2 0xF97 DUP6 DUP3 DUP2 MLOAD DUP2 LT PUSH2 0xF62 JUMPI PUSH4 0x4E487B71 PUSH1 0xE0 SHL PUSH1 0x0 MSTORE PUSH1 0x32 PUSH1 0x4 MSTORE PUSH1 0x24 PUSH1 0x0 REVERT JUMPDEST PUSH1 0x20 MUL PUSH1 0x20 ADD ADD MLOAD DUP6 DUP4 DUP2 MLOAD DUP2 LT PUSH2 0xF8A JUMPI PUSH4 0x4E487B71 PUSH1 0xE0 SHL PUSH1 0x0 MSTORE PUSH1 0x32 PUSH1 0x4 MSTORE PUSH1 0x24 PUSH1 0x0 REVERT JUMPDEST PUSH1 0x20 MUL PUSH1 0x20 ADD ADD MLOAD PUSH2 0x79E JUMP JUMPDEST DUP3 DUP3 DUP2 MLOAD DUP2 LT PUSH2 0xFB7 JUMPI PUSH4 0x4E487B71 PUSH1 0xE0 SHL PUSH1 0x0 MSTORE PUSH1 0x32 PUSH1 0x4 MSTORE PUSH1 0x24 PUSH1 0x0 REVERT JUMPDEST PUSH1 0x20 SWAP1 DUP2 MUL SWAP2 SWAP1 SWAP2 ADD ADD MSTORE PUSH2 0xFCB DUP2 PUSH2 0x3800 JUMP JUMPDEST SWAP1 POP PUSH2 0xF36 JUMP JUMPDEST POP SWAP4 SWAP3 POP POP POP JUMP JUMPDEST PUSH1 0x0 DUP3 DUP2 MSTORE PUSH1 0xD PUSH1 0x20 MSTORE PUSH1 0x40 DUP1 DUP3 KECCAK256 DUP2 MLOAD PUSH1 0xE0 DUP2 ADD SWAP1 SWAP3 MSTORE DUP1 SLOAD DUP4 SWAP3 SWAP2 SWAP1 DUP3 SWAP1 DUP3 SWAP1 PUSH2 0x1005 SWAP1 PUSH2 0x3798 JUMP JUMPDEST DUP1 PUSH1 0x1F ADD PUSH1 0x20 DUP1 SWAP2 DIV MUL PUSH1 0x20 ADD PUSH1 0x40 MLOAD SWAP1 DUP2 ADD PUSH1 0x40 MSTORE DUP1 SWAP3 SWAP2 SWAP1 DUP2 DUP2 MSTORE PUSH1 0x20 ADD DUP3 DUP1 SLOAD PUSH2 0x1031 SWAP1 PUSH2 0x3798 JUMP JUMPDEST DUP1 ISZERO PUSH2 0x107E JUMPI DUP1 PUSH1 0x1F LT PUSH2 0x1053 JUMPI PUSH2 0x100 DUP1 DUP4 SLOAD DIV MUL DUP4 MSTORE SWAP2 PUSH1 0x20 ADD SWAP2 PUSH2 0x107E JUMP JUMPDEST DUP3 ADD SWAP2 SWAP1 PUSH1 0x0 MSTORE PUSH1 0x20 PUSH1 0x0 KECCAK256 SWAP1 JUMPDEST DUP2 SLOAD DUP2 MSTORE SWAP1 PUSH1 0x1 ADD SWAP1 PUSH1 0x20 ADD DUP1 DUP4 GT PUSH2 0x1061 JUMPI DUP3 SWAP1 SUB PUSH1 0x1F AND DUP3 ADD SWAP2 JUMPDEST POP POP POP POP POP DUP2 MSTORE PUSH1 0x20 ADD PUSH1 0x1 DUP3 ADD SLOAD DUP2 MSTORE PUSH1 0x20 ADD PUSH1 0x2 DUP3 ADD DUP1 SLOAD DUP1 PUSH1 0x20 MUL PUSH1 0x20 ADD PUSH1 0x40 MLOAD SWAP1 DUP2 ADD PUSH1 0x40 MSTORE DUP1 SWAP3 SWAP2 SWAP1 DUP2 DUP2 MSTORE PUSH1 0x20 ADD DUP3 DUP1 SLOAD DUP1 ISZERO PUSH2 0x110C JUMPI PUSH1 0x20 MUL DUP3 ADD SWAP2 SWAP1 PUSH1 0x0 MSTORE PUSH1 0x20 PUSH1 0x0 KECCAK256 SWAP1 PUSH1 0x0 SWAP1 JUMPDEST DUP3 DUP3 SWAP1 SLOAD SWAP1 PUSH2 0x100 EXP SWAP1 DIV PUSH4 0xFFFFFFFF AND PUSH4 0xFFFFFFFF AND DUP2 MSTORE PUSH1 0x20 ADD SWAP1 PUSH1 0x4 ADD SWAP1 PUSH1 0x20 DUP3 PUSH1 0x3 ADD DIV SWAP3 DUP4 ADD SWAP3 PUSH1 0x1 SUB DUP3 MUL SWAP2 POP DUP1 DUP5 GT PUSH2 0x10CF JUMPI SWAP1 POP JUMPDEST POP POP POP SWAP2 DUP4 MSTORE POP POP PUSH1 0x3 DUP3 ADD SLOAD PUSH1 0x1 PUSH1 0x1 PUSH1 0xA0 SHL SUB AND PUSH1 0x20 DUP3 ADD MSTORE PUSH1 0x4 DUP3 ADD SLOAD PUSH1 0x40 DUP3 ADD MSTORE PUSH1 0x5 DUP3 ADD SLOAD PUSH1 0x60 DUP3 ADD MSTORE PUSH1 0x6 SWAP1 SWAP2 ADD SLOAD PUSH4 0xFFFFFFFF AND PUSH1 0x80 SWAP1 SWAP2 ADD MSTORE SWAP1 POP PUSH2 0x1159 DUP2 DUP5 PUSH2 0x1FE9 JUMP JUMPDEST POP PUSH1 0x0 DUP5 DUP2 MSTORE PUSH1 0xD PUSH1 0x20 MSTORE PUSH1 0x40 DUP2 KECCAK256 PUSH1 0x4 ADD DUP1 SLOAD PUSH1 0x1 SWAP3 SWAP1 PUSH2 0x117C SWAP1 DUP5 SWAP1 PUSH2 0x36FD JUMP JUMPDEST SWAP3 POP POP DUP2 SWAP1 SSTORE POP PUSH1 0x1 PUSH1 0x36 PUSH1 0x0 DUP3 DUP3 SLOAD PUSH2 0x1196 SWAP2 SWAP1 PUSH2 0x36FD JUMP JUMPDEST SWAP1 SWAP2 SSTORE POP PUSH2 0x11A5 SWAP1 POP DUP5 PUSH2 0x23D1 JUMP JUMPDEST PUSH2 0x11B7 CALLER PUSH1 0xA SLOAD DUP7 PUSH2 0x8BE SWAP2 SWAP1 PUSH2 0x36FD JUMP JUMPDEST POP PUSH1 0x1 SWAP4 SWAP3 POP POP POP JUMP JUMPDEST PUSH1 0x0 DUP2 PUSH2 0x11D6 CALLER DUP6 PUSH1 0xA SLOAD PUSH2 0x2A7 SWAP2 SWAP1 PUSH2 0x36FD JUMP JUMPDEST LT ISZERO PUSH2 0x1236 JUMPI PUSH1 0x40 MLOAD PUSH3 0x461BCD PUSH1 0xE5 SHL DUP2 MSTORE PUSH1 0x20 PUSH1 0x4 DUP3 ADD MSTORE PUSH1 0x29 PUSH1 0x24 DUP3 ADD MSTORE PUSH32 0x596F7520646F6E277420686176652074686174206D616E79206F662074686F73 PUSH1 0x44 DUP3 ADD MSTORE PUSH9 0x6520746F2065617421 PUSH1 0xB8 SHL PUSH1 0x64 DUP3 ADD MSTORE PUSH1 0x84 ADD PUSH2 0x806 JUMP JUMPDEST PUSH1 0x0 DUP4 DUP2 MSTORE PUSH1 0xD PUSH1 0x20 MSTORE PUSH1 0x40 DUP2 KECCAK256 PUSH1 0x6 ADD SLOAD PUSH1 0xA SLOAD PUSH4 0xFFFFFFFF SWAP1 SWAP2 AND SWAP2 SWAP1 PUSH2 0x125F SWAP1 DUP7 PUSH2 0x36FD JUMP JUMPDEST SWAP1 POP PUSH2 0x126C CALLER DUP3 DUP7 PUSH2 0x2498 JUMP JUMPDEST PUSH1 0x0 DUP6 DUP2 MSTORE PUSH1 0xD PUSH1 0x20 MSTORE PUSH1 0x40 DUP2 KECCAK256 PUSH1 0x5 ADD DUP1 SLOAD PUSH1 0x1 SWAP3 SWAP1 PUSH2 0x128E SWAP1 DUP5 SWAP1 PUSH2 0x36FD JUMP JUMPDEST SWAP1 SWAP2 SSTORE POP PUSH2 0x12A4 SWAP1 POP DUP5 PUSH4 0xFFFFFFFF DUP5 AND PUSH2 0x3762 JUMP JUMPDEST CALLER PUSH1 0x0 SWAP1 DUP2 MSTORE PUSH1 0xF PUSH1 0x20 MSTORE PUSH1 0x40 DUP2 KECCAK256 DUP1 SLOAD SWAP1 SWAP2 SWAP1 PUSH2 0x12C3 SWAP1 DUP5 SWAP1 PUSH2 0x36FD JUMP JUMPDEST SWAP1 SWAP2 SSTORE POP PUSH2 0x12D2 SWAP1 POP CALLER PUSH2 0x25E1 JUMP JUMPDEST POP POP SWAP3 SWAP2 POP POP JUMP JUMPDEST PUSH1 0x0 PUSH2 0x12E6 CALLER DUP4 PUSH2 0x79E JUMP JUMPDEST PUSH1 0x1 EQ PUSH2 0x1305 JUMPI PUSH1 0x40 MLOAD PUSH3 0x461BCD PUSH1 0xE5 SHL DUP2 MSTORE PUSH1 0x4 ADD PUSH2 0x806 SWAP1 PUSH2 0x353C JUMP JUMPDEST PUSH2 0x130E DUP3 PUSH2 0x1B9F JUMP JUMPDEST POP PUSH2 0x1317 PUSH2 0x88E JUMP JUMPDEST POP PUSH1 0x0 DUP3 DUP2 MSTORE PUSH1 0xB PUSH1 0x20 MSTORE PUSH1 0x40 DUP1 DUP3 KECCAK256 DUP1 SLOAD PUSH1 0x35 SLOAD DUP5 MSTORE SWAP2 DUP4 KECCAK256 DUP1 SLOAD PUSH9 0xFFFFFFFF0000000000 NOT AND PUSH1 0x1 PUSH1 0x28 SHL SWAP4 DUP5 SWAP1 DIV PUSH4 0xFFFFFFFF AND SWAP1 SWAP4 MUL SWAP3 SWAP1 SWAP3 OR SWAP1 SWAP2 SSTORE SWAP1 DUP4 SWAP1 MSTORE DUP1 SLOAD PUSH1 0x1 SWAP2 SWAP1 PUSH1 0x4 SWAP1 PUSH2 0x137B SWAP1 DUP5 SWAP1 PUSH5 0x100000000 SWAP1 DIV PUSH1 0xFF AND PUSH2 0x373D JUMP JUMPDEST SWAP3 POP PUSH2 0x100 EXP DUP2 SLOAD DUP2 PUSH1 0xFF MUL NOT AND SWAP1 DUP4 PUSH1 0xFF AND MUL OR SWAP1 SSTORE POP PUSH1 0x1 SWAP1 POP SWAP2 SWAP1 POP JUMP JUMPDEST CALLER PUSH1 0x1 PUSH1 0x1 PUSH1 0xA0 SHL SUB DUP4 AND EQ ISZERO PUSH2 0x1407 JUMPI PUSH1 0x40 MLOAD PUSH3 0x461BCD PUSH1 0xE5 SHL DUP2 MSTORE PUSH1 0x20 PUSH1 0x4 DUP3 ADD MSTORE PUSH1 0x29 PUSH1 0x24 DUP3 ADD MSTORE PUSH32 0x455243313135353A2073657474696E6720617070726F76616C20737461747573 PUSH1 0x44 DUP3 ADD MSTORE PUSH9 0x103337B91039B2B633 PUSH1 0xB9 SHL PUSH1 0x64 DUP3 ADD MSTORE PUSH1 0x84 ADD PUSH2 0x806 JUMP JUMPDEST CALLER PUSH1 0x0 DUP2 DUP2 MSTORE PUSH1 0x2 PUSH1 0x20 SWAP1 DUP2 MSTORE PUSH1 0x40 DUP1 DUP4 KECCAK256 PUSH1 0x1 PUSH1 0x1 PUSH1 0xA0 SHL SUB DUP8 AND DUP1 DUP6 MSTORE SWAP3 MSTORE SWAP1 SWAP2 KECCAK256 DUP1 SLOAD PUSH1 0xFF NOT AND DUP5 ISZERO ISZERO OR SWAP1 SSTORE SWAP1 PUSH1 0x1 PUSH1 0x1 PUSH1 0xA0 SHL SUB AND PUSH32 0x17307EAB39AB6107E8899845AD3D59BD9653F200F220920489CA2B5937696C31 DUP4 PUSH1 0x40 MLOAD PUSH2 0x1474 SWAP2 ISZERO ISZERO DUP2 MSTORE PUSH1 0x20 ADD SWAP1 JUMP JUMPDEST PUSH1 0x40 MLOAD DUP1 SWAP2 SUB SWAP1 LOG3 POP POP JUMP JUMPDEST CALLER PUSH1 0x0 SWAP1 DUP2 MSTORE PUSH1 0xC PUSH1 0x20 MSTORE PUSH1 0x40 SWAP1 KECCAK256 SLOAD TIMESTAMP PUSH4 0xFFFFFFFF SWAP1 SWAP2 AND LT PUSH2 0x14E6 JUMPI PUSH1 0x40 MLOAD PUSH3 0x461BCD PUSH1 0xE5 SHL DUP2 MSTORE PUSH1 0x20 PUSH1 0x4 DUP3 ADD MSTORE PUSH1 0x1B PUSH1 0x24 DUP3 ADD MSTORE PUSH32 0x596F7520646964207468697320616C726561647920746F646179210000000000 PUSH1 0x44 DUP3 ADD MSTORE PUSH1 0x64 ADD PUSH2 0x806 JUMP JUMPDEST PUSH2 0x1505 CALLER PUSH1 0x9 SLOAD PUSH1 0x7 SLOAD PUSH1 0x40 MLOAD DUP1 PUSH1 0x20 ADD PUSH1 0x40 MSTORE DUP1 PUSH1 0x0 DUP2 MSTORE POP PUSH2 0x1D2A JUMP JUMPDEST PUSH1 0x7 SLOAD PUSH1 0x34 PUSH1 0x0 DUP3 DUP3 SLOAD PUSH2 0x1519 SWAP2 SWAP1 PUSH2 0x36FD JUMP JUMPDEST SWAP1 SWAP2 SSTORE POP POP PUSH1 0x6 SLOAD PUSH2 0x1531 SWAP1 PUSH4 0xFFFFFFFF AND TIMESTAMP PUSH2 0x36FD JUMP JUMPDEST CALLER PUSH1 0x0 SWAP1 DUP2 MSTORE PUSH1 0xC PUSH1 0x20 MSTORE PUSH1 0x40 SWAP1 KECCAK256 DUP1 SLOAD PUSH4 0xFFFFFFFF NOT AND PUSH4 0xFFFFFFFF SWAP3 SWAP1 SWAP3 AND SWAP2 SWAP1 SWAP2 OR SWAP1 SSTORE JUMP JUMPDEST PUSH1 0x0 PUSH1 0xA DUP4 MLOAD GT ISZERO PUSH2 0x15BE JUMPI PUSH1 0x40 MLOAD PUSH3 0x461BCD PUSH1 0xE5 SHL DUP2 MSTORE PUSH1 0x20 PUSH1 0x4 DUP3 ADD MSTORE PUSH1 0x27 PUSH1 0x24 DUP3 ADD MSTORE PUSH32 0x596F752063616E206F6E6C79206861766520757020746F20313020696E677265 PUSH1 0x44 DUP3 ADD MSTORE PUSH7 0x6469656E747321 PUSH1 0xC8 SHL PUSH1 0x64 DUP3 ADD MSTORE PUSH1 0x84 ADD PUSH2 0x806 JUMP JUMPDEST PUSH1 0x40 DUP1 MLOAD PUSH1 0xE0 DUP2 ADD DUP3 MSTORE DUP7 DUP2 MSTORE PUSH1 0x20 DUP2 ADD DUP7 SWAP1 MSTORE SWAP1 DUP2 ADD DUP5 SWAP1 MSTORE CALLER PUSH1 0x60 DUP3 ADD MSTORE PUSH1 0x0 PUSH1 0x80 DUP3 ADD DUP2 SWAP1 MSTORE PUSH1 0xA0 DUP3 ADD DUP2 SWAP1 MSTORE PUSH1 0xC0 DUP3 ADD MSTORE PUSH2 0x15FD DUP2 DUP5 PUSH2 0x1FE9 JUMP JUMPDEST POP PUSH1 0x40 DUP2 ADD MLOAD PUSH1 0x0 DUP1 JUMPDEST DUP3 MLOAD DUP2 LT ISZERO PUSH2 0x1657 JUMPI DUP3 DUP2 DUP2 MLOAD DUP2 LT PUSH2 0x1630 JUMPI PUSH4 0x4E487B71 PUSH1 0xE0 SHL PUSH1 0x0 MSTORE PUSH1 0x32 PUSH1 0x4 MSTORE PUSH1 0x24 PUSH1 0x0 REVERT JUMPDEST PUSH1 0x20 MUL PUSH1 0x20 ADD ADD MLOAD DUP3 PUSH2 0x1643 SWAP2 SWAP1 PUSH2 0x3715 JUMP JUMPDEST SWAP2 POP DUP1 PUSH2 0x164F DUP2 PUSH2 0x3800 JUMP JUMPDEST SWAP2 POP POP PUSH2 0x1607 JUMP JUMPDEST POP PUSH4 0xFFFFFFFF DUP2 AND PUSH1 0xC0 DUP5 ADD MSTORE PUSH1 0x80 DUP4 ADD DUP1 MLOAD PUSH1 0x1 SWAP2 SWAP1 PUSH2 0x1679 SWAP1 DUP4 SWAP1 PUSH2 0x36FD JUMP JUMPDEST SWAP1 MSTORE POP PUSH1 0x36 DUP1 SLOAD PUSH1 0x1 SWAP2 SWAP1 PUSH1 0x0 SWAP1 PUSH2 0x1692 SWAP1 DUP5 SWAP1 PUSH2 0x36FD JUMP JUMPDEST SWAP3 POP POP DUP2 SWAP1 SSTORE POP PUSH1 0x1 PUSH1 0x37 PUSH1 0x0 DUP3 DUP3 SLOAD PUSH2 0x16AC SWAP2 SWAP1 PUSH2 0x36FD JUMP JUMPDEST SWAP1 SWAP2 SSTORE POP POP PUSH1 0x37 SLOAD PUSH1 0xA SLOAD PUSH1 0x0 SWAP2 PUSH2 0x16C3 SWAP2 PUSH2 0x36FD JUMP JUMPDEST PUSH1 0x37 SLOAD PUSH1 0x0 SWAP1 DUP2 MSTORE PUSH1 0xD PUSH1 0x20 SWAP1 DUP2 MSTORE PUSH1 0x40 SWAP1 SWAP2 KECCAK256 DUP7 MLOAD DUP1 MLOAD SWAP4 SWAP5 POP DUP8 SWAP4 SWAP2 SWAP3 PUSH2 0x16F1 SWAP3 DUP5 SWAP3 SWAP1 SWAP2 ADD SWAP1 PUSH2 0x2CB1 JUMP JUMPDEST POP PUSH1 0x20 DUP3 DUP2 ADD MLOAD PUSH1 0x1 DUP4 ADD SSTORE PUSH1 0x40 DUP4 ADD MLOAD DUP1 MLOAD PUSH2 0x1714 SWAP3 PUSH1 0x2 DUP6 ADD SWAP3 ADD SWAP1 PUSH2 0x2D35 JUMP JUMPDEST POP PUSH1 0x60 DUP3 ADD MLOAD PUSH1 0x3 DUP3 ADD DUP1 SLOAD PUSH1 0x1 PUSH1 0x1 PUSH1 0xA0 SHL SUB NOT AND PUSH1 0x1 PUSH1 0x1 PUSH1 0xA0 SHL SUB SWAP1 SWAP3 AND SWAP2 SWAP1 SWAP2 OR SWAP1 SSTORE PUSH1 0x80 DUP3 ADD MLOAD PUSH1 0x4 DUP3 ADD SSTORE PUSH1 0xA0 DUP3 ADD MLOAD PUSH1 0x5 DUP3 ADD SSTORE PUSH1 0xC0 SWAP1 SWAP2 ADD MLOAD PUSH1 0x6 SWAP1 SWAP2 ADD DUP1 SLOAD PUSH4 0xFFFFFFFF NOT AND PUSH4 0xFFFFFFFF SWAP3 DUP4 AND OR SWAP1 SSTORE PUSH1 0x37 SLOAD CALLER PUSH1 0x0 SWAP1 DUP2 MSTORE PUSH1 0xE PUSH1 0x20 MSTORE PUSH1 0x40 SWAP1 KECCAK256 PUSH2 0x178D SWAP3 SWAP1 SWAP2 SWAP1 PUSH2 0x1E50 AND JUMP JUMPDEST POP PUSH2 0x1799 PUSH1 0x37 SLOAD PUSH2 0x23D1 JUMP JUMPDEST PUSH2 0x17B5 CALLER DUP3 PUSH1 0x1 PUSH1 0x40 MLOAD DUP1 PUSH1 0x20 ADD PUSH1 0x40 MSTORE DUP1 PUSH1 0x0 DUP2 MSTORE POP PUSH2 0x1D2A JUMP JUMPDEST SWAP9 SWAP8 POP POP POP POP POP POP POP POP JUMP JUMPDEST PUSH1 0x0 PUSH2 0x17CD CALLER DUP4 PUSH2 0x79E JUMP JUMPDEST PUSH1 0x1 EQ PUSH2 0x17EC JUMPI PUSH1 0x40 MLOAD PUSH3 0x461BCD PUSH1 0xE5 SHL DUP2 MSTORE PUSH1 0x4 ADD PUSH2 0x806 SWAP1 PUSH2 0x353C JUMP JUMPDEST PUSH1 0x0 PUSH2 0x17F9 DUP5 PUSH1 0x32 PUSH2 0x3762 JUMP JUMPDEST SWAP1 POP PUSH1 0x0 PUSH2 0x1808 DUP6 PUSH1 0xA PUSH2 0x3762 JUMP JUMPDEST SWAP1 POP PUSH2 0x1814 CALLER DUP4 PUSH2 0x1CEA JUMP JUMPDEST PUSH1 0x8 SLOAD PUSH1 0x9 SLOAD PUSH1 0x40 DUP1 MLOAD PUSH1 0x20 DUP2 ADD SWAP1 SWAP2 MSTORE PUSH1 0x0 DUP2 MSTORE PUSH2 0x1842 SWAP3 CALLER SWAP3 PUSH1 0x1 PUSH1 0x1 PUSH1 0xA0 SHL SUB SWAP1 SWAP2 AND SWAP2 DUP6 SWAP1 PUSH2 0x196A JUMP JUMPDEST CALLER PUSH1 0x0 SWAP1 DUP2 MSTORE PUSH1 0x10 PUSH1 0x20 MSTORE PUSH1 0x40 SWAP1 KECCAK256 DUP1 SLOAD PUSH1 0xFF NOT AND PUSH1 0x1 OR SWAP1 SSTORE PUSH1 0x6 SLOAD PUSH2 0x186F SWAP1 PUSH4 0xFFFFFFFF AND DUP7 PUSH2 0x3762 JUMP JUMPDEST PUSH2 0x1879 SWAP1 TIMESTAMP PUSH2 0x36FD JUMP JUMPDEST PUSH1 0x0 DUP6 DUP2 MSTORE PUSH1 0xB PUSH1 0x20 MSTORE PUSH1 0x40 SWAP1 KECCAK256 DUP1 SLOAD PUSH4 0xFFFFFFFF PUSH1 0xFF PUSH1 0xE8 SHL ADD NOT AND PUSH4 0xFFFFFFFF SWAP3 SWAP1 SWAP3 AND SWAP2 SWAP1 SWAP2 OR PUSH1 0x1 PUSH1 0xE8 SHL OR SWAP1 SSTORE POP PUSH1 0x1 SWAP2 POP POP SWAP3 SWAP2 POP POP JUMP JUMPDEST PUSH1 0x1 PUSH1 0x1 PUSH1 0xA0 SHL SUB DUP2 AND PUSH1 0x0 SWAP1 DUP2 MSTORE PUSH1 0xE PUSH1 0x20 MSTORE PUSH1 0x40 DUP2 KECCAK256 PUSH2 0x886 SWAP1 PUSH2 0x1FDF JUMP JUMPDEST PUSH1 0x11 DUP2 PUSH1 0xB DUP2 LT PUSH2 0x18E8 JUMPI PUSH1 0x0 DUP1 REVERT JUMPDEST ADD SLOAD SWAP1 POP DUP2 JUMP JUMPDEST PUSH1 0x0 DUP2 DUP2 MSTORE PUSH1 0xB PUSH1 0x20 MSTORE PUSH1 0x40 DUP2 KECCAK256 SLOAD PUSH1 0x1 PUSH1 0xE8 SHL SWAP1 DIV PUSH1 0xFF AND ISZERO ISZERO PUSH1 0x1 EQ PUSH2 0x1916 JUMPI PUSH1 0x0 DUP1 REVERT JUMPDEST PUSH1 0x6 SLOAD PUSH2 0x1929 SWAP1 PUSH4 0xFFFFFFFF AND TIMESTAMP PUSH2 0x36FD JUMP JUMPDEST PUSH1 0x0 SWAP3 DUP4 MSTORE PUSH1 0xB PUSH1 0x20 MSTORE PUSH1 0x40 SWAP1 SWAP3 KECCAK256 DUP1 SLOAD PUSH4 0xFFFFFFFF PUSH1 0xFF PUSH1 0xE8 SHL ADD NOT AND PUSH4 0xFFFFFFFF SWAP4 SWAP1 SWAP4 AND SWAP3 SWAP1 SWAP3 OR SWAP1 SWAP2 SSTORE SWAP1 JUMP JUMPDEST PUSH1 0x1C DUP2 PUSH1 0xB DUP2 LT PUSH2 0x18E8 JUMPI PUSH1 0x0 DUP1 REVERT JUMPDEST PUSH1 0x1 PUSH1 0x1 PUSH1 0xA0 SHL SUB DUP5 AND PUSH2 0x1990 JUMPI PUSH1 0x40 MLOAD PUSH3 0x461BCD PUSH1 0xE5 SHL DUP2 MSTORE PUSH1 0x4 ADD PUSH2 0x806 SWAP1 PUSH2 0x35BF JUMP JUMPDEST PUSH1 0x1 PUSH1 0x1 PUSH1 0xA0 SHL SUB DUP6 AND CALLER EQ DUP1 PUSH2 0x19AC JUMPI POP PUSH2 0x19AC DUP6 CALLER PUSH2 0x704 JUMP JUMPDEST PUSH2 0x1A0A JUMPI PUSH1 0x40 MLOAD PUSH3 0x461BCD PUSH1 0xE5 SHL DUP2 MSTORE PUSH1 0x20 PUSH1 0x4 DUP3 ADD MSTORE PUSH1 0x29 PUSH1 0x24 DUP3 ADD MSTORE PUSH32 0x455243313135353A2063616C6C6572206973206E6F74206F776E6572206E6F72 PUSH1 0x44 DUP3 ADD MSTORE PUSH9 0x8185C1C1C9BDD9959 PUSH1 0xBA SHL PUSH1 0x64 DUP3 ADD MSTORE PUSH1 0x84 ADD PUSH2 0x806 JUMP JUMPDEST CALLER PUSH2 0x1A2A DUP2 DUP8 DUP8 PUSH2 0x1A1A DUP9 PUSH2 0x26E9 JUMP JUMPDEST PUSH2 0x1A23 DUP9 PUSH2 0x26E9 JUMP JUMPDEST POP POP POP POP POP JUMP JUMPDEST PUSH1 0x0 DUP5 DUP2 MSTORE PUSH1 0x1 PUSH1 0x20 SWAP1 DUP2 MSTORE PUSH1 0x40 DUP1 DUP4 KECCAK256 PUSH1 0x1 PUSH1 0x1 PUSH1 0xA0 SHL SUB DUP11 AND DUP5 MSTORE SWAP1 SWAP2 MSTORE SWAP1 KECCAK256 SLOAD DUP4 DUP2 LT ISZERO PUSH2 0x1A6D JUMPI PUSH1 0x40 MLOAD PUSH3 0x461BCD PUSH1 0xE5 SHL DUP2 MSTORE PUSH1 0x4 ADD PUSH2 0x806 SWAP1 PUSH2 0x3647 JUMP JUMPDEST PUSH2 0x1A77 DUP5 DUP3 PUSH2 0x3781 JUMP JUMPDEST PUSH1 0x0 DUP7 DUP2 MSTORE PUSH1 0x1 PUSH1 0x20 SWAP1 DUP2 MSTORE PUSH1 0x40 DUP1 DUP4 KECCAK256 PUSH1 0x1 PUSH1 0x1 PUSH1 0xA0 SHL SUB DUP13 DUP2 AND DUP6 MSTORE SWAP3 MSTORE DUP1 DUP4 KECCAK256 SWAP4 SWAP1 SWAP4 SSTORE DUP9 AND DUP2 MSTORE SWAP1 DUP2 KECCAK256 DUP1 SLOAD DUP7 SWAP3 SWAP1 PUSH2 0x1AB5 SWAP1 DUP5 SWAP1 PUSH2 0x36FD JUMP JUMPDEST SWAP1 SWAP2 SSTORE POP POP PUSH1 0x1 PUSH1 0x1 PUSH1 0xA0 SHL SUB DUP7 AND PUSH1 0x0 SWAP1 DUP2 MSTORE PUSH1 0x20 DUP2 SWAP1 MSTORE PUSH1 0x40 SWAP1 KECCAK256 PUSH2 0x1ADC SWAP1 DUP7 PUSH2 0x1E50 JUMP JUMPDEST POP PUSH1 0x0 DUP6 DUP2 MSTORE PUSH1 0x1 PUSH1 0x20 SWAP1 DUP2 MSTORE PUSH1 0x40 DUP1 DUP4 KECCAK256 PUSH1 0x1 PUSH1 0x1 PUSH1 0xA0 SHL SUB DUP12 AND DUP5 MSTORE SWAP1 SWAP2 MSTORE SWAP1 KECCAK256 SLOAD PUSH2 0x1B28 JUMPI PUSH1 0x1 PUSH1 0x1 PUSH1 0xA0 SHL SUB DUP8 AND PUSH1 0x0 SWAP1 DUP2 MSTORE PUSH1 0x20 DUP2 SWAP1 MSTORE PUSH1 0x40 SWAP1 KECCAK256 PUSH2 0x1B26 SWAP1 DUP7 PUSH2 0x1E5C JUMP JUMPDEST POP JUMPDEST DUP6 PUSH1 0x1 PUSH1 0x1 PUSH1 0xA0 SHL SUB AND DUP8 PUSH1 0x1 PUSH1 0x1 PUSH1 0xA0 SHL SUB AND DUP4 PUSH1 0x1 PUSH1 0x1 PUSH1 0xA0 SHL SUB AND PUSH32 0xC3D58168C5AE7397731D063D5BBF3D657854427343F4C083240F7AACAA2D0F62 DUP9 DUP9 PUSH1 0x40 MLOAD PUSH2 0x1B80 SWAP3 SWAP2 SWAP1 SWAP2 DUP3 MSTORE PUSH1 0x20 DUP3 ADD MSTORE PUSH1 0x40 ADD SWAP1 JUMP JUMPDEST PUSH1 0x40 MLOAD DUP1 SWAP2 SUB SWAP1 LOG4 PUSH2 0x1B96 DUP3 DUP9 DUP9 DUP9 DUP9 DUP9 PUSH2 0x2742 JUMP JUMPDEST POP POP POP POP POP POP POP JUMP JUMPDEST PUSH1 0x0 PUSH2 0x1BAB CALLER DUP4 PUSH2 0x79E JUMP JUMPDEST PUSH1 0x1 EQ PUSH2 0x1BCA JUMPI PUSH1 0x40 MLOAD PUSH3 0x461BCD PUSH1 0xE5 SHL DUP2 MSTORE PUSH1 0x4 ADD PUSH2 0x806 SWAP1 PUSH2 0x353C JUMP JUMPDEST PUSH1 0x0 DUP3 DUP2 MSTORE PUSH1 0xB PUSH1 0x20 MSTORE PUSH1 0x40 SWAP1 KECCAK256 SLOAD TIMESTAMP PUSH4 0xFFFFFFFF SWAP1 SWAP2 AND LT ISZERO PUSH2 0x1C56 JUMPI PUSH1 0x40 MLOAD PUSH3 0x461BCD PUSH1 0xE5 SHL DUP2 MSTORE PUSH1 0x20 PUSH1 0x4 DUP3 ADD MSTORE PUSH1 0x39 PUSH1 0x24 DUP3 ADD MSTORE PUSH32 0x596F757220737461727465722069732064656164212020596F752073686F756C PUSH1 0x44 DUP3 ADD MSTORE PUSH32 0x6420686176652066656420697420736F6F6E6572203A28202E00000000000000 PUSH1 0x64 DUP3 ADD MSTORE PUSH1 0x84 ADD PUSH2 0x806 JUMP JUMPDEST PUSH2 0x1C62 CALLER PUSH1 0x5 SLOAD PUSH2 0x1CEA JUMP JUMPDEST PUSH1 0x6 SLOAD PUSH2 0x1C75 SWAP1 PUSH4 0xFFFFFFFF AND TIMESTAMP PUSH2 0x36FD JUMP JUMPDEST PUSH1 0x0 DUP4 DUP2 MSTORE PUSH1 0xB PUSH1 0x20 MSTORE PUSH1 0x40 SWAP1 KECCAK256 DUP1 SLOAD PUSH4 0xFFFFFFFF NOT AND PUSH4 0xFFFFFFFF SWAP3 SWAP1 SWAP3 AND SWAP2 SWAP1 SWAP2 OR SWAP1 DUP2 SWAP1 SSTORE PUSH1 0x1 PUSH1 0xE8 SHL SWAP1 DIV PUSH1 0xFF AND ISZERO PUSH2 0x1CB7 JUMPI PUSH1 0x0 DUP3 SWAP1 MSTORE PUSH1 0xB PUSH1 0x20 MSTORE JUMPDEST PUSH2 0x1CC0 DUP3 PUSH2 0x280C JUMP JUMPDEST POP PUSH1 0x1 SWAP2 SWAP1 POP JUMP JUMPDEST PUSH1 0x1 PUSH1 0x1 PUSH1 0xA0 SHL SUB DUP3 AND PUSH1 0x0 SWAP1 DUP2 MSTORE PUSH1 0xE PUSH1 0x20 MSTORE PUSH1 0x40 DUP2 KECCAK256 PUSH2 0xDF1 SWAP1 DUP4 PUSH2 0x1FD3 JUMP JUMPDEST DUP1 PUSH2 0x1CF7 CALLER PUSH1 0x9 SLOAD PUSH2 0x79E JUMP JUMPDEST LT ISZERO PUSH2 0x1D02 JUMPI PUSH1 0x0 DUP1 REVERT JUMPDEST PUSH2 0x1D0F DUP3 PUSH1 0x9 SLOAD DUP4 PUSH2 0x2498 JUMP JUMPDEST DUP1 PUSH1 0x34 PUSH1 0x0 DUP3 DUP3 SLOAD PUSH2 0x1D21 SWAP2 SWAP1 PUSH2 0x3781 JUMP JUMPDEST SWAP1 SWAP2 SSTORE POP POP POP POP JUMP JUMPDEST PUSH1 0x1 PUSH1 0x1 PUSH1 0xA0 SHL SUB DUP5 AND PUSH2 0x1D8A JUMPI PUSH1 0x40 MLOAD PUSH3 0x461BCD PUSH1 0xE5 SHL DUP2 MSTORE PUSH1 0x20 PUSH1 0x4 DUP3 ADD MSTORE PUSH1 0x21 PUSH1 0x24 DUP3 ADD MSTORE PUSH32 0x455243313135353A206D696E7420746F20746865207A65726F20616464726573 PUSH1 0x44 DUP3 ADD MSTORE PUSH1 0x73 PUSH1 0xF8 SHL PUSH1 0x64 DUP3 ADD MSTORE PUSH1 0x84 ADD PUSH2 0x806 JUMP JUMPDEST CALLER PUSH2 0x1D9B DUP2 PUSH1 0x0 DUP8 PUSH2 0x1A1A DUP9 PUSH2 0x26E9 JUMP JUMPDEST PUSH1 0x0 DUP5 DUP2 MSTORE PUSH1 0x1 PUSH1 0x20 SWAP1 DUP2 MSTORE PUSH1 0x40 DUP1 DUP4 KECCAK256 PUSH1 0x1 PUSH1 0x1 PUSH1 0xA0 SHL SUB DUP10 AND DUP5 MSTORE SWAP1 SWAP2 MSTORE DUP2 KECCAK256 DUP1 SLOAD DUP6 SWAP3 SWAP1 PUSH2 0x1DCD SWAP1 DUP5 SWAP1 PUSH2 0x36FD JUMP JUMPDEST SWAP1 SWAP2 SSTORE POP POP PUSH1 0x1 PUSH1 0x1 PUSH1 0xA0 SHL SUB DUP6 AND PUSH1 0x0 SWAP1 DUP2 MSTORE PUSH1 0x20 DUP2 SWAP1 MSTORE PUSH1 0x40 SWAP1 KECCAK256 PUSH2 0x1DF4 SWAP1 DUP6 PUSH2 0x1E50 JUMP JUMPDEST POP PUSH1 0x40 DUP1 MLOAD DUP6 DUP2 MSTORE PUSH1 0x20 DUP2 ADD DUP6 SWAP1 MSTORE PUSH1 0x1 PUSH1 0x1 PUSH1 0xA0 SHL SUB DUP1 DUP9 AND SWAP3 PUSH1 0x0 SWAP3 SWAP2 DUP6 AND SWAP2 PUSH32 0xC3D58168C5AE7397731D063D5BBF3D657854427343F4C083240F7AACAA2D0F62 SWAP2 ADD PUSH1 0x40 MLOAD DUP1 SWAP2 SUB SWAP1 LOG4 PUSH2 0x1A23 DUP2 PUSH1 0x0 DUP8 DUP8 DUP8 DUP8 PUSH2 0x2742 JUMP JUMPDEST PUSH1 0x0 PUSH2 0xDF1 DUP4 DUP4 PUSH2 0x28E4 JUMP JUMPDEST PUSH1 0x0 PUSH2 0xDF1 DUP4 DUP4 PUSH2 0x2933 JUMP JUMPDEST PUSH1 0x1 PUSH1 0x1 PUSH1 0xA0 SHL SUB DUP5 AND EXTCODESIZE ISZERO PUSH2 0xDC7 JUMPI PUSH1 0x40 MLOAD PUSH4 0xBC197C81 PUSH1 0xE0 SHL DUP2 MSTORE PUSH1 0x1 PUSH1 0x1 PUSH1 0xA0 SHL SUB DUP6 AND SWAP1 PUSH4 0xBC197C81 SWAP1 PUSH2 0x1EAC SWAP1 DUP10 SWAP1 DUP10 SWAP1 DUP9 SWAP1 DUP9 SWAP1 DUP9 SWAP1 PUSH1 0x4 ADD PUSH2 0x33C5 JUMP JUMPDEST PUSH1 0x20 PUSH1 0x40 MLOAD DUP1 DUP4 SUB DUP2 PUSH1 0x0 DUP8 DUP1 EXTCODESIZE ISZERO DUP1 ISZERO PUSH2 0x1EC6 JUMPI PUSH1 0x0 DUP1 REVERT JUMPDEST POP GAS CALL SWAP3 POP POP POP DUP1 ISZERO PUSH2 0x1EF6 JUMPI POP PUSH1 0x40 DUP1 MLOAD PUSH1 0x1F RETURNDATASIZE SWAP1 DUP2 ADD PUSH1 0x1F NOT AND DUP3 ADD SWAP1 SWAP3 MSTORE PUSH2 0x1EF3 SWAP2 DUP2 ADD SWAP1 PUSH2 0x3197 JUMP JUMPDEST PUSH1 0x1 JUMPDEST PUSH2 0x1FA3 JUMPI PUSH2 0x1F02 PUSH2 0x3847 JUMP JUMPDEST DUP1 PUSH4 0x8C379A0 EQ ISZERO PUSH2 0x1F3C JUMPI POP PUSH2 0x1F17 PUSH2 0x385E JUMP JUMPDEST DUP1 PUSH2 0x1F22 JUMPI POP PUSH2 0x1F3E JUMP JUMPDEST DUP1 PUSH1 0x40 MLOAD PUSH3 0x461BCD PUSH1 0xE5 SHL DUP2 MSTORE PUSH1 0x4 ADD PUSH2 0x806 SWAP2 SWAP1 PUSH2 0x349D JUMP JUMPDEST POP JUMPDEST PUSH1 0x40 MLOAD PUSH3 0x461BCD PUSH1 0xE5 SHL DUP2 MSTORE PUSH1 0x20 PUSH1 0x4 DUP3 ADD MSTORE PUSH1 0x34 PUSH1 0x24 DUP3 ADD MSTORE PUSH32 0x455243313135353A207472616E7366657220746F206E6F6E2045524331313535 PUSH1 0x44 DUP3 ADD MSTORE PUSH20 0x2932B1B2B4BB32B91034B6B83632B6B2B73A32B9 PUSH1 0x61 SHL PUSH1 0x64 DUP3 ADD MSTORE PUSH1 0x84 ADD PUSH2 0x806 JUMP JUMPDEST PUSH1 0x1 PUSH1 0x1 PUSH1 0xE0 SHL SUB NOT DUP2 AND PUSH4 0xBC197C81 PUSH1 0xE0 SHL EQ PUSH2 0x1B96 JUMPI PUSH1 0x40 MLOAD PUSH3 0x461BCD PUSH1 0xE5 SHL DUP2 MSTORE PUSH1 0x4 ADD PUSH2 0x806 SWAP1 PUSH2 0x34B0 JUMP JUMPDEST PUSH1 0x0 PUSH2 0xDF1 DUP4 DUP4 PUSH2 0x2A4A JUMP JUMPDEST PUSH1 0x0 PUSH2 0x886 DUP3 SLOAD SWAP1 JUMP JUMPDEST PUSH1 0x0 DUP3 PUSH1 0x20 ADD MLOAD PUSH2 0x1FFC CALLER PUSH1 0x9 SLOAD PUSH2 0x79E JUMP JUMPDEST LT ISZERO PUSH2 0x205D JUMPI PUSH1 0x40 MLOAD PUSH3 0x461BCD PUSH1 0xE5 SHL DUP2 MSTORE PUSH1 0x20 PUSH1 0x4 DUP3 ADD MSTORE PUSH1 0x2A PUSH1 0x24 DUP3 ADD MSTORE PUSH32 0x596F7520646F6E2774206861766520656E6F75676820464C4F555220746F2062 PUSH1 0x44 DUP3 ADD MSTORE PUSH10 0x616B6520746861742121 PUSH1 0xB0 SHL PUSH1 0x64 DUP3 ADD MSTORE PUSH1 0x84 ADD PUSH2 0x806 JUMP JUMPDEST PUSH1 0x40 DUP4 ADD MLOAD MLOAD PUSH1 0x0 DUP2 PUSH8 0xFFFFFFFFFFFFFFFF DUP2 GT ISZERO PUSH2 0x208C JUMPI PUSH4 0x4E487B71 PUSH1 0xE0 SHL PUSH1 0x0 MSTORE PUSH1 0x41 PUSH1 0x4 MSTORE PUSH1 0x24 PUSH1 0x0 REVERT JUMPDEST PUSH1 0x40 MLOAD SWAP1 DUP1 DUP3 MSTORE DUP1 PUSH1 0x20 MUL PUSH1 0x20 ADD DUP3 ADD PUSH1 0x40 MSTORE DUP1 ISZERO PUSH2 0x20B5 JUMPI DUP2 PUSH1 0x20 ADD PUSH1 0x20 DUP3 MUL DUP1 CALLDATASIZE DUP4 CALLDATACOPY ADD SWAP1 POP JUMPDEST POP SWAP1 POP DUP4 MLOAD DUP6 PUSH1 0x40 ADD MLOAD MLOAD EQ PUSH2 0x2133 JUMPI PUSH1 0x40 MLOAD PUSH3 0x461BCD PUSH1 0xE5 SHL DUP2 MSTORE PUSH1 0x20 PUSH1 0x4 DUP3 ADD MSTORE PUSH1 0x3C PUSH1 0x24 DUP3 ADD MSTORE PUSH32 0x596F7520686176656E277420616464656420746865207269676874206E756D62 PUSH1 0x44 DUP3 ADD MSTORE PUSH32 0x6572206F6620737461727465727320746F207468652062617463682100000000 PUSH1 0x64 DUP3 ADD MSTORE PUSH1 0x84 ADD PUSH2 0x806 JUMP JUMPDEST PUSH1 0x0 JUMPDEST DUP6 PUSH1 0x40 ADD MLOAD MLOAD DUP2 LT ISZERO PUSH2 0x23AC JUMPI PUSH1 0x0 PUSH1 0xB PUSH1 0x0 DUP8 DUP5 DUP2 MLOAD DUP2 LT PUSH2 0x2169 JUMPI PUSH4 0x4E487B71 PUSH1 0xE0 SHL PUSH1 0x0 MSTORE PUSH1 0x32 PUSH1 0x4 MSTORE PUSH1 0x24 PUSH1 0x0 REVERT JUMPDEST PUSH1 0x20 SWAP1 DUP2 MUL SWAP2 SWAP1 SWAP2 ADD DUP2 ADD MLOAD DUP3 MSTORE DUP2 ADD SWAP2 SWAP1 SWAP2 MSTORE PUSH1 0x40 ADD PUSH1 0x0 KECCAK256 SLOAD PUSH2 0x219B SWAP1 PUSH1 0x1 PUSH1 0x28 SHL SWAP1 DIV PUSH4 0xFFFFFFFF AND TIMESTAMP PUSH2 0x3781 JUMP JUMPDEST SWAP1 POP DUP7 PUSH1 0x40 ADD MLOAD DUP3 DUP2 MLOAD DUP2 LT PUSH2 0x21C1 JUMPI PUSH4 0x4E487B71 PUSH1 0xE0 SHL PUSH1 0x0 MSTORE PUSH1 0x32 PUSH1 0x4 MSTORE PUSH1 0x24 PUSH1 0x0 REVERT JUMPDEST PUSH1 0x20 MUL PUSH1 0x20 ADD ADD MLOAD PUSH4 0xFFFFFFFF AND DUP2 PUSH4 0xFFFFFFFF AND GT PUSH2 0x2263 JUMPI PUSH1 0x40 MLOAD PUSH3 0x461BCD PUSH1 0xE5 SHL DUP2 MSTORE PUSH1 0x20 PUSH1 0x4 DUP3 ADD MSTORE PUSH1 0x51 PUSH1 0x24 DUP3 ADD MSTORE PUSH32 0x596F757220737461727465727320617265206E6F74206F6C6420656E6F756768 PUSH1 0x44 DUP3 ADD MSTORE PUSH32 0x2C20706C65617365207573652074686520737461727465727320726571756972 PUSH1 0x64 DUP3 ADD MSTORE PUSH17 0x6564206279207468697320726563697065 PUSH1 0x78 SHL PUSH1 0x84 DUP3 ADD MSTORE PUSH1 0xA4 ADD PUSH2 0x806 JUMP JUMPDEST TIMESTAMP PUSH1 0xB PUSH1 0x0 DUP9 DUP6 DUP2 MLOAD DUP2 LT PUSH2 0x2288 JUMPI PUSH4 0x4E487B71 PUSH1 0xE0 SHL PUSH1 0x0 MSTORE PUSH1 0x32 PUSH1 0x4 MSTORE PUSH1 0x24 PUSH1 0x0 REVERT JUMPDEST PUSH1 0x20 SWAP1 DUP2 MUL SWAP2 SWAP1 SWAP2 ADD DUP2 ADD MLOAD DUP3 MSTORE DUP2 ADD SWAP2 SWAP1 SWAP2 MSTORE PUSH1 0x40 ADD PUSH1 0x0 KECCAK256 SLOAD PUSH4 0xFFFFFFFF AND LT ISZERO PUSH2 0x2329 JUMPI PUSH1 0x40 MLOAD PUSH3 0x461BCD PUSH1 0xE5 SHL DUP2 MSTORE PUSH1 0x20 PUSH1 0x4 DUP3 ADD MSTORE PUSH1 0x43 PUSH1 0x24 DUP3 ADD MSTORE PUSH32 0x596F757220737461727465727320617265206E6F7420616C6C20616C6976652C PUSH1 0x44 DUP3 ADD MSTORE PUSH32 0x20796F75206D757374207573652061206C6976696E6720696E6772656469656E PUSH1 0x64 DUP3 ADD MSTORE PUSH3 0x742121 PUSH1 0xE8 SHL PUSH1 0x84 DUP3 ADD MSTORE PUSH1 0xA4 ADD PUSH2 0x806 JUMP JUMPDEST PUSH2 0x234D CALLER DUP8 DUP5 DUP2 MLOAD DUP2 LT PUSH2 0xF8A JUMPI PUSH4 0x4E487B71 PUSH1 0xE0 SHL PUSH1 0x0 MSTORE PUSH1 0x32 PUSH1 0x4 MSTORE PUSH1 0x24 PUSH1 0x0 REVERT JUMPDEST PUSH1 0x1 EQ PUSH2 0x236C JUMPI PUSH1 0x40 MLOAD PUSH3 0x461BCD PUSH1 0xE5 SHL DUP2 MSTORE PUSH1 0x4 ADD PUSH2 0x806 SWAP1 PUSH2 0x353C JUMP JUMPDEST PUSH1 0x1 DUP4 DUP4 DUP2 MLOAD DUP2 LT PUSH2 0x238E JUMPI PUSH4 0x4E487B71 PUSH1 0xE0 SHL PUSH1 0x0 MSTORE PUSH1 0x32 PUSH1 0x4 MSTORE PUSH1 0x24 PUSH1 0x0 REVERT JUMPDEST PUSH1 0x20 SWAP1 DUP2 MUL SWAP2 SWAP1 SWAP2 ADD ADD MSTORE POP DUP1 PUSH2 0x23A4 DUP2 PUSH2 0x3800 JUMP JUMPDEST SWAP2 POP POP PUSH2 0x2136 JUMP JUMPDEST POP PUSH2 0x23B8 CALLER DUP6 DUP4 PUSH2 0x2ADE JUMP JUMPDEST PUSH2 0x23C6 CALLER DUP7 PUSH1 0x20 ADD MLOAD PUSH2 0x1CEA JUMP JUMPDEST POP PUSH1 0x1 SWAP5 SWAP4 POP POP POP POP JUMP JUMPDEST PUSH1 0x0 DUP2 DUP2 MSTORE PUSH1 0xD PUSH1 0x20 MSTORE PUSH1 0x40 DUP1 DUP3 KECCAK256 PUSH1 0x4 SWAP1 DUP2 ADD SLOAD PUSH1 0x25 SLOAD DUP5 MSTORE SWAP2 SWAP1 SWAP3 KECCAK256 SWAP1 SWAP2 ADD SLOAD PUSH1 0x9 SWAP2 SWAP1 JUMPDEST DUP1 DUP3 GT DUP1 ISZERO PUSH2 0x2407 JUMPI POP PUSH1 0x0 DUP4 GT JUMPDEST ISZERO PUSH2 0x2492 JUMPI PUSH1 0x1C DUP4 PUSH1 0xB DUP2 LT PUSH2 0x242D JUMPI PUSH4 0x4E487B71 PUSH1 0xE0 SHL PUSH1 0x0 MSTORE PUSH1 0x32 PUSH1 0x4 MSTORE PUSH1 0x24 PUSH1 0x0 REVERT JUMPDEST ADD SLOAD PUSH1 0x1C PUSH2 0x243C DUP6 PUSH1 0x1 PUSH2 0x36FD JUMP JUMPDEST PUSH1 0xB DUP2 LT PUSH2 0x245A JUMPI PUSH4 0x4E487B71 PUSH1 0xE0 SHL PUSH1 0x0 MSTORE PUSH1 0x32 PUSH1 0x4 MSTORE PUSH1 0x24 PUSH1 0x0 REVERT JUMPDEST ADD SSTORE DUP4 PUSH1 0x1C DUP5 PUSH1 0xB DUP2 LT PUSH2 0x247E JUMPI PUSH4 0x4E487B71 PUSH1 0xE0 SHL PUSH1 0x0 MSTORE PUSH1 0x32 PUSH1 0x4 MSTORE PUSH1 0x24 PUSH1 0x0 REVERT JUMPDEST ADD SSTORE PUSH2 0x248B PUSH1 0x1 DUP5 PUSH2 0x3781 JUMP JUMPDEST SWAP3 POP PUSH2 0x23F8 JUMP JUMPDEST POP POP POP POP JUMP JUMPDEST PUSH1 0x1 PUSH1 0x1 PUSH1 0xA0 SHL SUB DUP4 AND PUSH2 0x24BE JUMPI PUSH1 0x40 MLOAD PUSH3 0x461BCD PUSH1 0xE5 SHL DUP2 MSTORE PUSH1 0x4 ADD PUSH2 0x806 SWAP1 PUSH2 0x3604 JUMP JUMPDEST CALLER PUSH2 0x24EE DUP2 DUP6 PUSH1 0x0 PUSH2 0x24CF DUP8 PUSH2 0x26E9 JUMP JUMPDEST PUSH2 0x24D8 DUP8 PUSH2 0x26E9 JUMP JUMPDEST POP POP PUSH1 0x40 DUP1 MLOAD PUSH1 0x20 DUP2 ADD SWAP1 SWAP2 MSTORE PUSH1 0x0 SWAP1 MSTORE POP POP POP JUMP JUMPDEST PUSH1 0x0 DUP4 DUP2 MSTORE PUSH1 0x1 PUSH1 0x20 SWAP1 DUP2 MSTORE PUSH1 0x40 DUP1 DUP4 KECCAK256 PUSH1 0x1 PUSH1 0x1 PUSH1 0xA0 SHL SUB DUP9 AND DUP5 MSTORE SWAP1 SWAP2 MSTORE SWAP1 KECCAK256 SLOAD DUP3 DUP2 LT ISZERO PUSH2 0x2531 JUMPI PUSH1 0x40 MLOAD PUSH3 0x461BCD PUSH1 0xE5 SHL DUP2 MSTORE PUSH1 0x4 ADD PUSH2 0x806 SWAP1 PUSH2 0x34F8 JUMP JUMPDEST PUSH1 0x0 PUSH2 0x253D DUP5 DUP4 PUSH2 0x3781 JUMP JUMPDEST PUSH1 0x0 DUP7 DUP2 MSTORE PUSH1 0x1 PUSH1 0x20 SWAP1 DUP2 MSTORE PUSH1 0x40 DUP1 DUP4 KECCAK256 PUSH1 0x1 PUSH1 0x1 PUSH1 0xA0 SHL SUB DUP12 AND DUP5 MSTORE SWAP1 SWAP2 MSTORE SWAP1 KECCAK256 DUP2 SWAP1 SSTORE SWAP1 POP DUP1 PUSH2 0x258D JUMPI PUSH1 0x1 PUSH1 0x1 PUSH1 0xA0 SHL SUB DUP7 AND PUSH1 0x0 SWAP1 DUP2 MSTORE PUSH1 0x20 DUP2 SWAP1 MSTORE PUSH1 0x40 SWAP1 KECCAK256 PUSH2 0x258B SWAP1 DUP7 PUSH2 0x1E5C JUMP JUMPDEST POP JUMPDEST PUSH1 0x40 DUP1 MLOAD DUP7 DUP2 MSTORE PUSH1 0x20 DUP2 ADD DUP7 SWAP1 MSTORE PUSH1 0x0 SWAP2 PUSH1 0x1 PUSH1 0x1 PUSH1 0xA0 SHL SUB DUP10 DUP2 AND SWAP3 SWAP1 DUP8 AND SWAP2 PUSH32 0xC3D58168C5AE7397731D063D5BBF3D657854427343F4C083240F7AACAA2D0F62 SWAP2 ADD PUSH1 0x40 MLOAD DUP1 SWAP2 SUB SWAP1 LOG4 POP POP POP POP POP POP JUMP JUMPDEST PUSH1 0x1 PUSH1 0x1 PUSH1 0xA0 SHL SUB DUP2 DUP2 AND PUSH1 0x0 SWAP1 DUP2 MSTORE PUSH1 0xF PUSH1 0x20 MSTORE PUSH1 0x40 DUP1 DUP3 KECCAK256 SLOAD PUSH1 0x30 SLOAD SWAP1 SWAP4 AND DUP3 MSTORE SWAP1 KECCAK256 SLOAD PUSH1 0x9 SWAP2 SWAP1 JUMPDEST DUP1 DUP3 GT DUP1 ISZERO PUSH2 0x261B JUMPI POP PUSH1 0x0 DUP4 GT JUMPDEST ISZERO PUSH2 0x2492 JUMPI PUSH1 0x27 DUP4 PUSH1 0xB DUP2 LT PUSH2 0x2641 JUMPI PUSH4 0x4E487B71 PUSH1 0xE0 SHL PUSH1 0x0 MSTORE PUSH1 0x32 PUSH1 0x4 MSTORE PUSH1 0x24 PUSH1 0x0 REVERT JUMPDEST ADD SLOAD PUSH1 0x1 PUSH1 0x1 PUSH1 0xA0 SHL SUB AND PUSH1 0x27 PUSH2 0x2659 DUP6 PUSH1 0x1 PUSH2 0x36FD JUMP JUMPDEST PUSH1 0xB DUP2 LT PUSH2 0x2677 JUMPI PUSH4 0x4E487B71 PUSH1 0xE0 SHL PUSH1 0x0 MSTORE PUSH1 0x32 PUSH1 0x4 MSTORE PUSH1 0x24 PUSH1 0x0 REVERT JUMPDEST ADD DUP1 SLOAD PUSH1 0x1 PUSH1 0x1 PUSH1 0xA0 SHL SUB NOT AND PUSH1 0x1 PUSH1 0x1 PUSH1 0xA0 SHL SUB SWAP3 SWAP1 SWAP3 AND SWAP2 SWAP1 SWAP2 OR SWAP1 SSTORE DUP4 PUSH1 0x27 DUP5 PUSH1 0xB DUP2 LT PUSH2 0x26B8 JUMPI PUSH4 0x4E487B71 PUSH1 0xE0 SHL PUSH1 0x0 MSTORE PUSH1 0x32 PUSH1 0x4 MSTORE PUSH1 0x24 PUSH1 0x0 REVERT JUMPDEST ADD DUP1 SLOAD PUSH1 0x1 PUSH1 0x1 PUSH1 0xA0 SHL SUB NOT AND PUSH1 0x1 PUSH1 0x1 PUSH1 0xA0 SHL SUB SWAP3 SWAP1 SWAP3 AND SWAP2 SWAP1 SWAP2 OR SWAP1 SSTORE PUSH2 0x26E2 PUSH1 0x1 DUP5 PUSH2 0x3781 JUMP JUMPDEST SWAP3 POP PUSH2 0x260C JUMP JUMPDEST PUSH1 0x40 DUP1 MLOAD PUSH1 0x1 DUP1 DUP3 MSTORE DUP2 DUP4 ADD SWAP1 SWAP3 MSTORE PUSH1 0x60 SWAP2 PUSH1 0x0 SWAP2 SWAP1 PUSH1 0x20 DUP1 DUP4 ADD SWAP1 DUP1 CALLDATASIZE DUP4 CALLDATACOPY ADD SWAP1 POP POP SWAP1 POP DUP3 DUP2 PUSH1 0x0 DUP2 MLOAD DUP2 LT PUSH2 0x2731 JUMPI PUSH4 0x4E487B71 PUSH1 0xE0 SHL PUSH1 0x0 MSTORE PUSH1 0x32 PUSH1 0x4 MSTORE PUSH1 0x24 PUSH1 0x0 REVERT JUMPDEST PUSH1 0x20 SWAP1 DUP2 MUL SWAP2 SWAP1 SWAP2 ADD ADD MSTORE SWAP3 SWAP2 POP POP JUMP JUMPDEST PUSH1 0x1 PUSH1 0x1 PUSH1 0xA0 SHL SUB DUP5 AND EXTCODESIZE ISZERO PUSH2 0xDC7 JUMPI PUSH1 0x40 MLOAD PUSH4 0xF23A6E61 PUSH1 0xE0 SHL DUP2 MSTORE PUSH1 0x1 PUSH1 0x1 PUSH1 0xA0 SHL SUB DUP6 AND SWAP1 PUSH4 0xF23A6E61 SWAP1 PUSH2 0x2786 SWAP1 DUP10 SWAP1 DUP10 SWAP1 DUP9 SWAP1 DUP9 SWAP1 DUP9 SWAP1 PUSH1 0x4 ADD PUSH2 0x3417 JUMP JUMPDEST PUSH1 0x20 PUSH1 0x40 MLOAD DUP1 DUP4 SUB DUP2 PUSH1 0x0 DUP8 DUP1 EXTCODESIZE ISZERO DUP1 ISZERO PUSH2 0x27A0 JUMPI PUSH1 0x0 DUP1 REVERT JUMPDEST POP GAS CALL SWAP3 POP POP POP DUP1 ISZERO PUSH2 0x27D0 JUMPI POP PUSH1 0x40 DUP1 MLOAD PUSH1 0x1F RETURNDATASIZE SWAP1 DUP2 ADD PUSH1 0x1F NOT AND DUP3 ADD SWAP1 SWAP3 MSTORE PUSH2 0x27CD SWAP2 DUP2 ADD SWAP1 PUSH2 0x3197 JUMP JUMPDEST PUSH1 0x1 JUMPDEST PUSH2 0x27DC JUMPI PUSH2 0x1F02 PUSH2 0x3847 JUMP JUMPDEST PUSH1 0x1 PUSH1 0x1 PUSH1 0xE0 SHL SUB NOT DUP2 AND PUSH4 0xF23A6E61 PUSH1 0xE0 SHL EQ PUSH2 0x1B96 JUMPI PUSH1 0x40 MLOAD PUSH3 0x461BCD PUSH1 0xE5 SHL DUP2 MSTORE PUSH1 0x4 ADD PUSH2 0x806 SWAP1 PUSH2 0x34B0 JUMP JUMPDEST PUSH1 0x0 DUP2 DUP2 MSTORE PUSH1 0xB PUSH1 0x20 MSTORE PUSH1 0x40 DUP1 DUP3 KECCAK256 SLOAD PUSH1 0x1A SLOAD DUP4 MSTORE SWAP2 KECCAK256 SLOAD PUSH1 0x9 SWAP2 PUSH4 0xFFFFFFFF PUSH1 0x1 PUSH1 0x28 SHL SWAP2 DUP3 SWAP1 DIV DUP2 AND SWAP3 SWAP2 SWAP1 SWAP2 DIV AND JUMPDEST DUP1 PUSH4 0xFFFFFFFF AND DUP3 PUSH4 0xFFFFFFFF AND LT DUP1 ISZERO PUSH2 0x2859 JUMPI POP PUSH1 0x0 DUP4 GT JUMPDEST ISZERO PUSH2 0x2492 JUMPI PUSH1 0x11 DUP4 PUSH1 0xB DUP2 LT PUSH2 0x287F JUMPI PUSH4 0x4E487B71 PUSH1 0xE0 SHL PUSH1 0x0 MSTORE PUSH1 0x32 PUSH1 0x4 MSTORE PUSH1 0x24 PUSH1 0x0 REVERT JUMPDEST ADD SLOAD PUSH1 0x11 PUSH2 0x288E DUP6 PUSH1 0x1 PUSH2 0x36FD JUMP JUMPDEST PUSH1 0xB DUP2 LT PUSH2 0x28AC JUMPI PUSH4 0x4E487B71 PUSH1 0xE0 SHL PUSH1 0x0 MSTORE PUSH1 0x32 PUSH1 0x4 MSTORE PUSH1 0x24 PUSH1 0x0 REVERT JUMPDEST ADD SSTORE DUP4 PUSH1 0x11 DUP5 PUSH1 0xB DUP2 LT PUSH2 0x28D0 JUMPI PUSH4 0x4E487B71 PUSH1 0xE0 SHL PUSH1 0x0 MSTORE PUSH1 0x32 PUSH1 0x4 MSTORE PUSH1 0x24 PUSH1 0x0 REVERT JUMPDEST ADD SSTORE PUSH2 0x28DD PUSH1 0x1 DUP5 PUSH2 0x3781 JUMP JUMPDEST SWAP3 POP PUSH2 0x283E JUMP JUMPDEST PUSH1 0x0 DUP2 DUP2 MSTORE PUSH1 0x1 DUP4 ADD PUSH1 0x20 MSTORE PUSH1 0x40 DUP2 KECCAK256 SLOAD PUSH2 0x292B JUMPI POP DUP2 SLOAD PUSH1 0x1 DUP2 DUP2 ADD DUP5 SSTORE PUSH1 0x0 DUP5 DUP2 MSTORE PUSH1 0x20 DUP1 DUP3 KECCAK256 SWAP1 SWAP4 ADD DUP5 SWAP1 SSTORE DUP5 SLOAD DUP5 DUP3 MSTORE DUP3 DUP7 ADD SWAP1 SWAP4 MSTORE PUSH1 0x40 SWAP1 KECCAK256 SWAP2 SWAP1 SWAP2 SSTORE PUSH2 0x834 JUMP JUMPDEST POP PUSH1 0x0 PUSH2 0x834 JUMP JUMPDEST PUSH1 0x0 DUP2 DUP2 MSTORE PUSH1 0x1 DUP4 ADD PUSH1 0x20 MSTORE PUSH1 0x40 DUP2 KECCAK256 SLOAD DUP1 ISZERO PUSH2 0x2A40 JUMPI PUSH1 0x0 PUSH2 0x2957 PUSH1 0x1 DUP4 PUSH2 0x3781 JUMP JUMPDEST DUP6 SLOAD SWAP1 SWAP2 POP PUSH1 0x0 SWAP1 PUSH2 0x296B SWAP1 PUSH1 0x1 SWAP1 PUSH2 0x3781 JUMP JUMPDEST SWAP1 POP PUSH1 0x0 DUP7 PUSH1 0x0 ADD DUP3 DUP2 SLOAD DUP2 LT PUSH2 0x2992 JUMPI PUSH4 0x4E487B71 PUSH1 0xE0 SHL PUSH1 0x0 MSTORE PUSH1 0x32 PUSH1 0x4 MSTORE PUSH1 0x24 PUSH1 0x0 REVERT JUMPDEST SWAP1 PUSH1 0x0 MSTORE PUSH1 0x20 PUSH1 0x0 KECCAK256 ADD SLOAD SWAP1 POP DUP1 DUP8 PUSH1 0x0 ADD DUP5 DUP2 SLOAD DUP2 LT PUSH2 0x29C3 JUMPI PUSH4 0x4E487B71 PUSH1 0xE0 SHL PUSH1 0x0 MSTORE PUSH1 0x32 PUSH1 0x4 MSTORE PUSH1 0x24 PUSH1 0x0 REVERT JUMPDEST PUSH1 0x0 SWAP2 DUP3 MSTORE PUSH1 0x20 DUP1 DUP4 KECCAK256 SWAP1 SWAP2 ADD SWAP3 SWAP1 SWAP3 SSTORE DUP3 DUP2 MSTORE PUSH1 0x1 DUP10 ADD SWAP1 SWAP2 MSTORE PUSH1 0x40 SWAP1 KECCAK256 DUP5 SWAP1 SSTORE DUP7 SLOAD DUP8 SWAP1 DUP1 PUSH2 0x2A04 JUMPI PUSH4 0x4E487B71 PUSH1 0xE0 SHL PUSH1 0x0 MSTORE PUSH1 0x31 PUSH1 0x4 MSTORE PUSH1 0x24 PUSH1 0x0 REVERT JUMPDEST PUSH1 0x1 SWAP1 SUB DUP2 DUP2 SWAP1 PUSH1 0x0 MSTORE PUSH1 0x20 PUSH1 0x0 KECCAK256 ADD PUSH1 0x0 SWAP1 SSTORE SWAP1 SSTORE DUP7 PUSH1 0x1 ADD PUSH1 0x0 DUP8 DUP2 MSTORE PUSH1 0x20 ADD SWAP1 DUP2 MSTORE PUSH1 0x20 ADD PUSH1 0x0 KECCAK256 PUSH1 0x0 SWAP1 SSTORE PUSH1 0x1 SWAP5 POP POP POP POP POP PUSH2 0x834 JUMP JUMPDEST PUSH1 0x0 SWAP2 POP POP PUSH2 0x834 JUMP JUMPDEST DUP2 SLOAD PUSH1 0x0 SWAP1 DUP3 LT PUSH2 0x2AA8 JUMPI PUSH1 0x40 MLOAD PUSH3 0x461BCD PUSH1 0xE5 SHL DUP2 MSTORE PUSH1 0x20 PUSH1 0x4 DUP3 ADD MSTORE PUSH1 0x22 PUSH1 0x24 DUP3 ADD MSTORE PUSH32 0x456E756D657261626C655365743A20696E646578206F7574206F6620626F756E PUSH1 0x44 DUP3 ADD MSTORE PUSH2 0x6473 PUSH1 0xF0 SHL PUSH1 0x64 DUP3 ADD MSTORE PUSH1 0x84 ADD PUSH2 0x806 JUMP JUMPDEST DUP3 PUSH1 0x0 ADD DUP3 DUP2 SLOAD DUP2 LT PUSH2 0x2ACB JUMPI PUSH4 0x4E487B71 PUSH1 0xE0 SHL PUSH1 0x0 MSTORE PUSH1 0x32 PUSH1 0x4 MSTORE PUSH1 0x24 PUSH1 0x0 REVERT JUMPDEST SWAP1 PUSH1 0x0 MSTORE PUSH1 0x20 PUSH1 0x0 KECCAK256 ADD SLOAD SWAP1 POP SWAP3 SWAP2 POP POP JUMP JUMPDEST PUSH1 0x1 PUSH1 0x1 PUSH1 0xA0 SHL SUB DUP4 AND PUSH2 0x2B04 JUMPI PUSH1 0x40 MLOAD PUSH3 0x461BCD PUSH1 0xE5 SHL DUP2 MSTORE PUSH1 0x4 ADD PUSH2 0x806 SWAP1 PUSH2 0x3604 JUMP JUMPDEST DUP1 MLOAD DUP3 MLOAD EQ PUSH2 0x2B25 JUMPI PUSH1 0x40 MLOAD PUSH3 0x461BCD PUSH1 0xE5 SHL DUP2 MSTORE PUSH1 0x4 ADD PUSH2 0x806 SWAP1 PUSH2 0x3691 JUMP JUMPDEST PUSH1 0x40 DUP1 MLOAD PUSH1 0x20 DUP2 ADD SWAP1 SWAP2 MSTORE PUSH1 0x0 SWAP1 DUP2 SWAP1 MSTORE CALLER SWAP1 JUMPDEST DUP4 MLOAD DUP2 LT ISZERO PUSH2 0x2C52 JUMPI PUSH1 0x0 DUP5 DUP3 DUP2 MLOAD DUP2 LT PUSH2 0x2B64 JUMPI PUSH4 0x4E487B71 PUSH1 0xE0 SHL PUSH1 0x0 MSTORE PUSH1 0x32 PUSH1 0x4 MSTORE PUSH1 0x24 PUSH1 0x0 REVERT JUMPDEST PUSH1 0x20 MUL PUSH1 0x20 ADD ADD MLOAD SWAP1 POP PUSH1 0x0 DUP5 DUP4 DUP2 MLOAD DUP2 LT PUSH2 0x2B90 JUMPI PUSH4 0x4E487B71 PUSH1 0xE0 SHL PUSH1 0x0 MSTORE PUSH1 0x32 PUSH1 0x4 MSTORE PUSH1 0x24 PUSH1 0x0 REVERT JUMPDEST PUSH1 0x20 SWAP1 DUP2 MUL SWAP2 SWAP1 SWAP2 ADD DUP2 ADD MLOAD PUSH1 0x0 DUP5 DUP2 MSTORE PUSH1 0x1 DUP4 MSTORE PUSH1 0x40 DUP1 DUP3 KECCAK256 PUSH1 0x1 PUSH1 0x1 PUSH1 0xA0 SHL SUB DUP13 AND DUP4 MSTORE SWAP1 SWAP4 MSTORE SWAP2 DUP3 KECCAK256 SLOAD SWAP1 SWAP3 POP SWAP1 PUSH2 0x2BCB DUP4 DUP4 PUSH2 0x3781 JUMP JUMPDEST SWAP1 POP DUP3 DUP3 LT ISZERO PUSH2 0x2BED JUMPI PUSH1 0x40 MLOAD PUSH3 0x461BCD PUSH1 0xE5 SHL DUP2 MSTORE PUSH1 0x4 ADD PUSH2 0x806 SWAP1 PUSH2 0x34F8 JUMP JUMPDEST PUSH1 0x0 DUP5 DUP2 MSTORE PUSH1 0x1 PUSH1 0x20 SWAP1 DUP2 MSTORE PUSH1 0x40 DUP1 DUP4 KECCAK256 PUSH1 0x1 PUSH1 0x1 PUSH1 0xA0 SHL SUB DUP14 AND DUP5 MSTORE SWAP1 SWAP2 MSTORE SWAP1 KECCAK256 DUP2 SWAP1 SSTORE DUP1 PUSH2 0x2C3B JUMPI PUSH1 0x1 PUSH1 0x1 PUSH1 0xA0 SHL SUB DUP10 AND PUSH1 0x0 SWAP1 DUP2 MSTORE PUSH1 0x20 DUP2 SWAP1 MSTORE PUSH1 0x40 SWAP1 KECCAK256 PUSH2 0x2C39 SWAP1 DUP6 PUSH2 0x1E5C JUMP JUMPDEST POP JUMPDEST POP POP POP POP DUP1 DUP1 PUSH2 0x2C4A SWAP1 PUSH2 0x3800 JUMP JUMPDEST SWAP2 POP POP PUSH2 0x2B39 JUMP JUMPDEST POP PUSH1 0x0 PUSH1 0x1 PUSH1 0x1 PUSH1 0xA0 SHL SUB AND DUP5 PUSH1 0x1 PUSH1 0x1 PUSH1 0xA0 SHL SUB AND DUP3 PUSH1 0x1 PUSH1 0x1 PUSH1 0xA0 SHL SUB AND PUSH32 0x4A39DC06D4C0DBC64B70AF90FD698A233A518AA5D07E595D983B8C0526C8F7FB DUP7 DUP7 PUSH1 0x40 MLOAD PUSH2 0x2CA3 SWAP3 SWAP2 SWAP1 PUSH2 0x346F JUMP JUMPDEST PUSH1 0x40 MLOAD DUP1 SWAP2 SUB SWAP1 LOG4 POP POP POP POP JUMP JUMPDEST DUP3 DUP1 SLOAD PUSH2 0x2CBD SWAP1 PUSH2 0x3798 JUMP JUMPDEST SWAP1 PUSH1 0x0 MSTORE PUSH1 0x20 PUSH1 0x0 KECCAK256 SWAP1 PUSH1 0x1F ADD PUSH1 0x20 SWAP1 DIV DUP2 ADD SWAP3 DUP3 PUSH2 0x2CDF JUMPI PUSH1 0x0 DUP6 SSTORE PUSH2 0x2D25 JUMP JUMPDEST DUP3 PUSH1 0x1F LT PUSH2 0x2CF8 JUMPI DUP1 MLOAD PUSH1 0xFF NOT AND DUP4 DUP1 ADD OR DUP6 SSTORE PUSH2 0x2D25 JUMP JUMPDEST DUP3 DUP1 ADD PUSH1 0x1 ADD DUP6 SSTORE DUP3 ISZERO PUSH2 0x2D25 JUMPI SWAP2 DUP3 ADD JUMPDEST DUP3 DUP2 GT ISZERO PUSH2 0x2D25 JUMPI DUP3 MLOAD DUP3 SSTORE SWAP2 PUSH1 0x20 ADD SWAP2 SWAP1 PUSH1 0x1 ADD SWAP1 PUSH2 0x2D0A JUMP JUMPDEST POP PUSH2 0x2D31 SWAP3 SWAP2 POP PUSH2 0x2DDB JUMP JUMPDEST POP SWAP1 JUMP JUMPDEST DUP3 DUP1 SLOAD DUP3 DUP3 SSTORE SWAP1 PUSH1 0x0 MSTORE PUSH1 0x20 PUSH1 0x0 KECCAK256 SWAP1 PUSH1 0x7 ADD PUSH1 0x8 SWAP1 DIV DUP2 ADD SWAP3 DUP3 ISZERO PUSH2 0x2D25 JUMPI SWAP2 PUSH1 0x20 MUL DUP3 ADD PUSH1 0x0 JUMPDEST DUP4 DUP3 GT ISZERO PUSH2 0x2DA2 JUMPI DUP4 MLOAD DUP4 DUP3 PUSH2 0x100 EXP DUP2 SLOAD DUP2 PUSH4 0xFFFFFFFF MUL NOT AND SWAP1 DUP4 PUSH4 0xFFFFFFFF AND MUL OR SWAP1 SSTORE POP SWAP3 PUSH1 0x20 ADD SWAP3 PUSH1 0x4 ADD PUSH1 0x20 DUP2 PUSH1 0x3 ADD DIV SWAP3 DUP4 ADD SWAP3 PUSH1 0x1 SUB MUL PUSH2 0x2D5E JUMP JUMPDEST DUP1 ISZERO PUSH2 0x2DD2 JUMPI DUP3 DUP2 PUSH2 0x100 EXP DUP2 SLOAD SWAP1 PUSH4 0xFFFFFFFF MUL NOT AND SWAP1 SSTORE PUSH1 0x4 ADD PUSH1 0x20 DUP2 PUSH1 0x3 ADD DIV SWAP3 DUP4 ADD SWAP3 PUSH1 0x1 SUB MUL PUSH2 0x2DA2 JUMP JUMPDEST POP POP PUSH2 0x2D31 SWAP3 SWAP2 POP JUMPDEST JUMPDEST DUP1 DUP3 GT ISZERO PUSH2 0x2D31 JUMPI PUSH1 0x0 DUP2 SSTORE PUSH1 0x1 ADD PUSH2 0x2DDC JUMP JUMPDEST PUSH1 0x0 PUSH8 0xFFFFFFFFFFFFFFFF DUP4 GT ISZERO PUSH2 0x2E0A JUMPI PUSH2 0x2E0A PUSH2 0x3831 JUMP JUMPDEST PUSH1 0x40 MLOAD PUSH2 0x2E21 PUSH1 0x1F DUP6 ADD PUSH1 0x1F NOT AND PUSH1 0x20 ADD DUP3 PUSH2 0x37D3 JUMP JUMPDEST DUP1 SWAP2 POP DUP4 DUP2 MSTORE DUP5 DUP5 DUP5 ADD GT ISZERO PUSH2 0x2E36 JUMPI PUSH1 0x0 DUP1 REVERT JUMPDEST DUP4 DUP4 PUSH1 0x20 DUP4 ADD CALLDATACOPY PUSH1 0x0 PUSH1 0x20 DUP6 DUP4 ADD ADD MSTORE POP SWAP4 SWAP3 POP POP POP JUMP JUMPDEST DUP1 CALLDATALOAD PUSH1 0x1 PUSH1 0x1 PUSH1 0xA0 SHL SUB DUP2 AND DUP2 EQ PUSH2 0x889 JUMPI PUSH1 0x0 DUP1 REVERT JUMPDEST PUSH1 0x0 DUP3 PUSH1 0x1F DUP4 ADD SLT PUSH2 0x2E75 JUMPI DUP1 DUP2 REVERT JUMPDEST DUP2 CALLDATALOAD PUSH1 0x20 PUSH2 0x2E82 DUP3 PUSH2 0x36D9 JUMP JUMPDEST PUSH1 0x40 MLOAD PUSH2 0x2E8F DUP3 DUP3 PUSH2 0x37D3 JUMP JUMPDEST DUP4 DUP2 MSTORE DUP3 DUP2 ADD SWAP2 POP DUP6 DUP4 ADD PUSH1 0x5 DUP6 SWAP1 SHL DUP8 ADD DUP5 ADD DUP9 LT ISZERO PUSH2 0x2EAE JUMPI DUP6 DUP7 REVERT JUMPDEST DUP6 JUMPDEST DUP6 DUP2 LT ISZERO PUSH2 0x2ECC JUMPI DUP2 CALLDATALOAD DUP5 MSTORE SWAP3 DUP5 ADD SWAP3 SWAP1 DUP5 ADD SWAP1 PUSH1 0x1 ADD PUSH2 0x2EB0 JUMP JUMPDEST POP SWAP1 SWAP8 SWAP7 POP POP POP POP POP POP POP JUMP JUMPDEST PUSH1 0x0 DUP3 PUSH1 0x1F DUP4 ADD SLT PUSH2 0x2EE9 JUMPI DUP1 DUP2 REVERT JUMPDEST PUSH2 0xDF1 DUP4 DUP4 CALLDATALOAD PUSH1 0x20 DUP6 ADD PUSH2 0x2DF0 JUMP JUMPDEST PUSH1 0x0 PUSH1 0x20 DUP3 DUP5 SUB SLT ISZERO PUSH2 0x2F09 JUMPI DUP1 DUP2 REVERT JUMPDEST PUSH2 0xDF1 DUP3 PUSH2 0x2E4E JUMP JUMPDEST PUSH1 0x0 DUP1 PUSH1 0x40 DUP4 DUP6 SUB SLT ISZERO PUSH2 0x2F24 JUMPI DUP1 DUP2 REVERT JUMPDEST PUSH2 0x2F2D DUP4 PUSH2 0x2E4E JUMP JUMPDEST SWAP2 POP PUSH2 0x2F3B PUSH1 0x20 DUP5 ADD PUSH2 0x2E4E JUMP JUMPDEST SWAP1 POP SWAP3 POP SWAP3 SWAP1 POP JUMP JUMPDEST PUSH1 0x0 DUP1 PUSH1 0x0 DUP1 PUSH1 0x0 PUSH1 0xA0 DUP7 DUP9 SUB SLT ISZERO PUSH2 0x2F5B JUMPI DUP1 DUP2 REVERT JUMPDEST PUSH2 0x2F64 DUP7 PUSH2 0x2E4E JUMP JUMPDEST SWAP5 POP PUSH2 0x2F72 PUSH1 0x20 DUP8 ADD PUSH2 0x2E4E JUMP JUMPDEST SWAP4 POP PUSH1 0x40 DUP7 ADD CALLDATALOAD PUSH8 0xFFFFFFFFFFFFFFFF DUP1 DUP3 GT ISZERO PUSH2 0x2F8E JUMPI DUP3 DUP4 REVERT JUMPDEST PUSH2 0x2F9A DUP10 DUP4 DUP11 ADD PUSH2 0x2E65 JUMP JUMPDEST SWAP5 POP PUSH1 0x60 DUP9 ADD CALLDATALOAD SWAP2 POP DUP1 DUP3 GT ISZERO PUSH2 0x2FAF JUMPI DUP3 DUP4 REVERT JUMPDEST PUSH2 0x2FBB DUP10 DUP4 DUP11 ADD PUSH2 0x2E65 JUMP JUMPDEST SWAP4 POP PUSH1 0x80 DUP9 ADD CALLDATALOAD SWAP2 POP DUP1 DUP3 GT ISZERO PUSH2 0x2FD0 JUMPI DUP3 DUP4 REVERT JUMPDEST POP PUSH2 0x2FDD DUP9 DUP3 DUP10 ADD PUSH2 0x2ED9 JUMP JUMPDEST SWAP2 POP POP SWAP3 SWAP6 POP SWAP3 SWAP6 SWAP1 SWAP4 POP JUMP JUMPDEST PUSH1 0x0 DUP1 PUSH1 0x0 DUP1 PUSH1 0x0 PUSH1 0xA0 DUP7 DUP9 SUB SLT ISZERO PUSH2 0x3001 JUMPI DUP1 DUP2 REVERT JUMPDEST PUSH2 0x300A DUP7 PUSH2 0x2E4E JUMP JUMPDEST SWAP5 POP PUSH2 0x3018 PUSH1 0x20 DUP8 ADD PUSH2 0x2E4E JUMP JUMPDEST SWAP4 POP PUSH1 0x40 DUP7 ADD CALLDATALOAD SWAP3 POP PUSH1 0x60 DUP7 ADD CALLDATALOAD SWAP2 POP PUSH1 0x80 DUP7 ADD CALLDATALOAD PUSH8 0xFFFFFFFFFFFFFFFF DUP2 GT ISZERO PUSH2 0x3041 JUMPI DUP2 DUP3 REVERT JUMPDEST PUSH2 0x2FDD DUP9 DUP3 DUP10 ADD PUSH2 0x2ED9 JUMP JUMPDEST PUSH1 0x0 DUP1 PUSH1 0x40 DUP4 DUP6 SUB SLT ISZERO PUSH2 0x305F JUMPI DUP2 DUP3 REVERT JUMPDEST PUSH2 0x3068 DUP4 PUSH2 0x2E4E JUMP JUMPDEST SWAP2 POP PUSH1 0x20 DUP4 ADD CALLDATALOAD DUP1 ISZERO ISZERO DUP2 EQ PUSH2 0x307C JUMPI DUP2 DUP3 REVERT JUMPDEST DUP1 SWAP2 POP POP SWAP3 POP SWAP3 SWAP1 POP JUMP JUMPDEST PUSH1 0x0 DUP1 PUSH1 0x40 DUP4 DUP6 SUB SLT ISZERO PUSH2 0x3099 JUMPI DUP1 DUP2 REVERT JUMPDEST PUSH2 0x30A2 DUP4 PUSH2 0x2E4E JUMP JUMPDEST SWAP5 PUSH1 0x20 SWAP4 SWAP1 SWAP4 ADD CALLDATALOAD SWAP4 POP POP POP JUMP JUMPDEST PUSH1 0x0 DUP1 PUSH1 0x40 DUP4 DUP6 SUB SLT ISZERO PUSH2 0x30C2 JUMPI DUP2 DUP3 REVERT JUMPDEST DUP3 CALLDATALOAD PUSH8 0xFFFFFFFFFFFFFFFF DUP1 DUP3 GT ISZERO PUSH2 0x30D9 JUMPI DUP4 DUP5 REVERT JUMPDEST DUP2 DUP6 ADD SWAP2 POP DUP6 PUSH1 0x1F DUP4 ADD SLT PUSH2 0x30EC JUMPI DUP4 DUP5 REVERT JUMPDEST DUP2 CALLDATALOAD PUSH1 0x20 PUSH2 0x30F9 DUP3 PUSH2 0x36D9 JUMP JUMPDEST PUSH1 0x40 MLOAD PUSH2 0x3106 DUP3 DUP3 PUSH2 0x37D3 JUMP JUMPDEST DUP4 DUP2 MSTORE DUP3 DUP2 ADD SWAP2 POP DUP6 DUP4 ADD PUSH1 0x5 DUP6 SWAP1 SHL DUP8 ADD DUP5 ADD DUP12 LT ISZERO PUSH2 0x3125 JUMPI DUP9 DUP10 REVERT JUMPDEST DUP9 SWAP7 POP JUMPDEST DUP5 DUP8 LT ISZERO PUSH2 0x314E JUMPI PUSH2 0x313A DUP2 PUSH2 0x2E4E JUMP JUMPDEST DUP4 MSTORE PUSH1 0x1 SWAP7 SWAP1 SWAP7 ADD SWAP6 SWAP2 DUP4 ADD SWAP2 DUP4 ADD PUSH2 0x3129 JUMP JUMPDEST POP SWAP7 POP POP DUP7 ADD CALLDATALOAD SWAP3 POP POP DUP1 DUP3 GT ISZERO PUSH2 0x3164 JUMPI DUP3 DUP4 REVERT JUMPDEST POP PUSH2 0x3171 DUP6 DUP3 DUP7 ADD PUSH2 0x2E65 JUMP JUMPDEST SWAP2 POP POP SWAP3 POP SWAP3 SWAP1 POP JUMP JUMPDEST PUSH1 0x0 PUSH1 0x20 DUP3 DUP5 SUB SLT ISZERO PUSH2 0x318C JUMPI DUP1 DUP2 REVERT JUMPDEST DUP2 CALLDATALOAD PUSH2 0xDF1 DUP2 PUSH2 0x38F0 JUMP JUMPDEST PUSH1 0x0 PUSH1 0x20 DUP3 DUP5 SUB SLT ISZERO PUSH2 0x31A8 JUMPI DUP1 DUP2 REVERT JUMPDEST DUP2 MLOAD PUSH2 0xDF1 DUP2 PUSH2 0x38F0 JUMP JUMPDEST PUSH1 0x0 DUP1 PUSH1 0x0 DUP1 PUSH1 0x80 DUP6 DUP8 SUB SLT ISZERO PUSH2 0x31C8 JUMPI DUP2 DUP3 REVERT JUMPDEST DUP5 CALLDATALOAD PUSH8 0xFFFFFFFFFFFFFFFF DUP1 DUP3 GT ISZERO PUSH2 0x31DF JUMPI DUP4 DUP5 REVERT JUMPDEST DUP2 DUP8 ADD SWAP2 POP DUP8 PUSH1 0x1F DUP4 ADD SLT PUSH2 0x31F2 JUMPI DUP4 DUP5 REVERT JUMPDEST PUSH1 0x20 PUSH2 0x3202 DUP10 DUP5 CALLDATALOAD DUP4 DUP7 ADD PUSH2 0x2DF0 JUMP JUMPDEST SWAP7 POP DUP1 DUP9 ADD CALLDATALOAD SWAP6 POP PUSH1 0x40 DUP9 ADD CALLDATALOAD SWAP3 POP DUP2 DUP4 GT ISZERO PUSH2 0x321D JUMPI DUP5 DUP6 REVERT JUMPDEST DUP3 DUP9 ADD SWAP3 POP DUP9 PUSH1 0x1F DUP5 ADD SLT PUSH2 0x3230 JUMPI DUP5 DUP6 REVERT JUMPDEST DUP3 CALLDATALOAD PUSH2 0x323B DUP2 PUSH2 0x36D9 JUMP JUMPDEST PUSH1 0x40 MLOAD PUSH2 0x3248 DUP3 DUP3 PUSH2 0x37D3 JUMP JUMPDEST DUP3 DUP2 MSTORE DUP4 DUP2 ADD SWAP2 POP DUP6 DUP5 ADD PUSH1 0x5 DUP5 SWAP1 SHL DUP8 ADD DUP6 ADD DUP14 LT ISZERO PUSH2 0x3267 JUMPI DUP9 DUP10 REVERT JUMPDEST DUP9 SWAP7 POP JUMPDEST DUP4 DUP8 LT ISZERO PUSH2 0x329A JUMPI DUP1 CALLDATALOAD PUSH4 0xFFFFFFFF DUP2 AND DUP2 EQ PUSH2 0x3286 JUMPI DUP10 DUP11 REVERT JUMPDEST DUP4 MSTORE PUSH1 0x1 SWAP7 SWAP1 SWAP7 ADD SWAP6 SWAP2 DUP5 ADD SWAP2 DUP5 ADD PUSH2 0x326B JUMP JUMPDEST POP SWAP7 POP POP POP POP PUSH1 0x60 DUP8 ADD CALLDATALOAD SWAP2 POP DUP1 DUP3 GT ISZERO PUSH2 0x32B3 JUMPI DUP3 DUP4 REVERT JUMPDEST POP PUSH2 0x32C0 DUP8 DUP3 DUP9 ADD PUSH2 0x2E65 JUMP JUMPDEST SWAP2 POP POP SWAP3 SWAP6 SWAP2 SWAP5 POP SWAP3 POP JUMP JUMPDEST PUSH1 0x0 PUSH1 0x20 DUP3 DUP5 SUB SLT ISZERO PUSH2 0x32DD JUMPI DUP1 DUP2 REVERT JUMPDEST POP CALLDATALOAD SWAP2 SWAP1 POP JUMP JUMPDEST PUSH1 0x0 DUP1 PUSH1 0x40 DUP4 DUP6 SUB SLT ISZERO PUSH2 0x32F6 JUMPI DUP2 DUP3 REVERT JUMPDEST DUP3 CALLDATALOAD SWAP2 POP PUSH1 0x20 DUP4 ADD CALLDATALOAD PUSH8 0xFFFFFFFFFFFFFFFF DUP2 GT ISZERO PUSH2 0x3313 JUMPI DUP2 DUP3 REVERT JUMPDEST PUSH2 0x3171 DUP6 DUP3 DUP7 ADD PUSH2 0x2E65 JUMP JUMPDEST PUSH1 0x0 DUP1 PUSH1 0x40 DUP4 DUP6 SUB SLT ISZERO PUSH2 0x3331 JUMPI DUP2 DUP3 REVERT JUMPDEST POP POP DUP1 CALLDATALOAD SWAP3 PUSH1 0x20 SWAP1 SWAP2 ADD CALLDATALOAD SWAP2 POP JUMP JUMPDEST PUSH1 0x0 DUP2 MLOAD DUP1 DUP5 MSTORE PUSH1 0x20 DUP1 DUP6 ADD SWAP5 POP DUP1 DUP5 ADD DUP4 JUMPDEST DUP4 DUP2 LT ISZERO PUSH2 0x336F JUMPI DUP2 MLOAD DUP8 MSTORE SWAP6 DUP3 ADD SWAP6 SWAP1 DUP3 ADD SWAP1 PUSH1 0x1 ADD PUSH2 0x3353 JUMP JUMPDEST POP SWAP5 SWAP6 SWAP5 POP POP POP POP POP JUMP JUMPDEST PUSH1 0x0 DUP2 MLOAD DUP1 DUP5 MSTORE DUP2 JUMPDEST DUP2 DUP2 LT ISZERO PUSH2 0x339F JUMPI PUSH1 0x20 DUP2 DUP6 ADD DUP2 ADD MLOAD DUP7 DUP4 ADD DUP3 ADD MSTORE ADD PUSH2 0x3383 JUMP JUMPDEST DUP2 DUP2 GT ISZERO PUSH2 0x33B0 JUMPI DUP3 PUSH1 0x20 DUP4 DUP8 ADD ADD MSTORE JUMPDEST POP PUSH1 0x1F ADD PUSH1 0x1F NOT AND SWAP3 SWAP1 SWAP3 ADD PUSH1 0x20 ADD SWAP3 SWAP2 POP POP JUMP JUMPDEST PUSH1 0x1 PUSH1 0x1 PUSH1 0xA0 SHL SUB DUP7 DUP2 AND DUP3 MSTORE DUP6 AND PUSH1 0x20 DUP3 ADD MSTORE PUSH1 0xA0 PUSH1 0x40 DUP3 ADD DUP2 SWAP1 MSTORE PUSH1 0x0 SWAP1 PUSH2 0x33F1 SWAP1 DUP4 ADD DUP7 PUSH2 0x3340 JUMP JUMPDEST DUP3 DUP2 SUB PUSH1 0x60 DUP5 ADD MSTORE PUSH2 0x3403 DUP2 DUP7 PUSH2 0x3340 JUMP JUMPDEST SWAP1 POP DUP3 DUP2 SUB PUSH1 0x80 DUP5 ADD MSTORE PUSH2 0x17B5 DUP2 DUP6 PUSH2 0x337A JUMP JUMPDEST PUSH1 0x1 PUSH1 0x1 PUSH1 0xA0 SHL SUB DUP7 DUP2 AND DUP3 MSTORE DUP6 AND PUSH1 0x20 DUP3 ADD MSTORE PUSH1 0x40 DUP2 ADD DUP5 SWAP1 MSTORE PUSH1 0x60 DUP2 ADD DUP4 SWAP1 MSTORE PUSH1 0xA0 PUSH1 0x80 DUP3 ADD DUP2 SWAP1 MSTORE PUSH1 0x0 SWAP1 PUSH2 0x3451 SWAP1 DUP4 ADD DUP5 PUSH2 0x337A JUMP JUMPDEST SWAP8 SWAP7 POP POP POP POP POP POP POP JUMP JUMPDEST PUSH1 0x0 PUSH1 0x20 DUP3 MSTORE PUSH2 0xDF1 PUSH1 0x20 DUP4 ADD DUP5 PUSH2 0x3340 JUMP JUMPDEST PUSH1 0x0 PUSH1 0x40 DUP3 MSTORE PUSH2 0x3482 PUSH1 0x40 DUP4 ADD DUP6 PUSH2 0x3340 JUMP JUMPDEST DUP3 DUP2 SUB PUSH1 0x20 DUP5 ADD MSTORE PUSH2 0x3494 DUP2 DUP6 PUSH2 0x3340 JUMP JUMPDEST SWAP6 SWAP5 POP POP POP POP POP JUMP JUMPDEST PUSH1 0x0 PUSH1 0x20 DUP3 MSTORE PUSH2 0xDF1 PUSH1 0x20 DUP4 ADD DUP5 PUSH2 0x337A JUMP JUMPDEST PUSH1 0x20 DUP1 DUP3 MSTORE PUSH1 0x28 SWAP1 DUP3 ADD MSTORE PUSH32 0x455243313135353A204552433131353552656365697665722072656A65637465 PUSH1 0x40 DUP3 ADD MSTORE PUSH8 0x6420746F6B656E73 PUSH1 0xC0 SHL PUSH1 0x60 DUP3 ADD MSTORE PUSH1 0x80 ADD SWAP1 JUMP JUMPDEST PUSH1 0x20 DUP1 DUP3 MSTORE PUSH1 0x24 SWAP1 DUP3 ADD MSTORE PUSH32 0x455243313135353A206275726E20616D6F756E7420657863656564732062616C PUSH1 0x40 DUP3 ADD MSTORE PUSH4 0x616E6365 PUSH1 0xE0 SHL PUSH1 0x60 DUP3 ADD MSTORE PUSH1 0x80 ADD SWAP1 JUMP JUMPDEST PUSH1 0x20 DUP1 DUP3 MSTORE PUSH1 0x57 SWAP1 DUP3 ADD MSTORE PUSH32 0x54686973204964206E756D626572206973206E6F74206173736F636961746564 PUSH1 0x40 DUP3 ADD MSTORE PUSH32 0x2077697468206F6E65206F6620796F75722073746172746572732C20706C6561 PUSH1 0x60 DUP3 ADD MSTORE PUSH32 0x736520747279207769746820612076616C69642069642E000000000000000000 PUSH1 0x80 DUP3 ADD MSTORE PUSH1 0xA0 ADD SWAP1 JUMP JUMPDEST PUSH1 0x20 DUP1 DUP3 MSTORE PUSH1 0x25 SWAP1 DUP3 ADD MSTORE PUSH32 0x455243313135353A207472616E7366657220746F20746865207A65726F206164 PUSH1 0x40 DUP3 ADD MSTORE PUSH5 0x6472657373 PUSH1 0xD8 SHL PUSH1 0x60 DUP3 ADD MSTORE PUSH1 0x80 ADD SWAP1 JUMP JUMPDEST PUSH1 0x20 DUP1 DUP3 MSTORE PUSH1 0x23 SWAP1 DUP3 ADD MSTORE PUSH32 0x455243313135353A206275726E2066726F6D20746865207A65726F2061646472 PUSH1 0x40 DUP3 ADD MSTORE PUSH3 0x657373 PUSH1 0xE8 SHL PUSH1 0x60 DUP3 ADD MSTORE PUSH1 0x80 ADD SWAP1 JUMP JUMPDEST PUSH1 0x20 DUP1 DUP3 MSTORE PUSH1 0x2A SWAP1 DUP3 ADD MSTORE PUSH32 0x455243313135353A20696E73756666696369656E742062616C616E636520666F PUSH1 0x40 DUP3 ADD MSTORE PUSH10 0x39103A3930B739B332B9 PUSH1 0xB1 SHL PUSH1 0x60 DUP3 ADD MSTORE PUSH1 0x80 ADD SWAP1 JUMP JUMPDEST PUSH1 0x20 DUP1 DUP3 MSTORE PUSH1 0x28 SWAP1 DUP3 ADD MSTORE PUSH32 0x455243313135353A2069647320616E6420616D6F756E7473206C656E67746820 PUSH1 0x40 DUP3 ADD MSTORE PUSH8 0xDAD2E6DAC2E8C6D PUSH1 0xC3 SHL PUSH1 0x60 DUP3 ADD MSTORE PUSH1 0x80 ADD SWAP1 JUMP JUMPDEST PUSH1 0x0 PUSH8 0xFFFFFFFFFFFFFFFF DUP3 GT ISZERO PUSH2 0x36F3 JUMPI PUSH2 0x36F3 PUSH2 0x3831 JUMP JUMPDEST POP PUSH1 0x5 SHL PUSH1 0x20 ADD SWAP1 JUMP JUMPDEST PUSH1 0x0 DUP3 NOT DUP3 GT ISZERO PUSH2 0x3710 JUMPI PUSH2 0x3710 PUSH2 0x381B JUMP JUMPDEST POP ADD SWAP1 JUMP JUMPDEST PUSH1 0x0 PUSH4 0xFFFFFFFF DUP1 DUP4 AND DUP2 DUP6 AND DUP1 DUP4 SUB DUP3 GT ISZERO PUSH2 0x3734 JUMPI PUSH2 0x3734 PUSH2 0x381B JUMP JUMPDEST ADD SWAP5 SWAP4 POP POP POP POP JUMP JUMPDEST PUSH1 0x0 PUSH1 0xFF DUP3 AND PUSH1 0xFF DUP5 AND DUP1 PUSH1 0xFF SUB DUP3 GT ISZERO PUSH2 0x375A JUMPI PUSH2 0x375A PUSH2 0x381B JUMP JUMPDEST ADD SWAP4 SWAP3 POP POP POP JUMP JUMPDEST PUSH1 0x0 DUP2 PUSH1 0x0 NOT DIV DUP4 GT DUP3 ISZERO ISZERO AND ISZERO PUSH2 0x377C JUMPI PUSH2 0x377C PUSH2 0x381B JUMP JUMPDEST POP MUL SWAP1 JUMP JUMPDEST PUSH1 0x0 DUP3 DUP3 LT ISZERO PUSH2 0x3793 JUMPI PUSH2 0x3793 PUSH2 0x381B JUMP JUMPDEST POP SUB SWAP1 JUMP JUMPDEST PUSH1 0x1 DUP2 DUP2 SHR SWAP1 DUP3 AND DUP1 PUSH2 0x37AC JUMPI PUSH1 0x7F DUP3 AND SWAP2 POP JUMPDEST PUSH1 0x20 DUP3 LT DUP2 EQ ISZERO PUSH2 0x37CD JUMPI PUSH4 0x4E487B71 PUSH1 0xE0 SHL PUSH1 0x0 MSTORE PUSH1 0x22 PUSH1 0x4 MSTORE PUSH1 0x24 PUSH1 0x0 REVERT JUMPDEST POP SWAP2 SWAP1 POP JUMP JUMPDEST PUSH1 0x1F DUP3 ADD PUSH1 0x1F NOT AND DUP2 ADD PUSH8 0xFFFFFFFFFFFFFFFF DUP2 GT DUP3 DUP3 LT OR ISZERO PUSH2 0x37F9 JUMPI PUSH2 0x37F9 PUSH2 0x3831 JUMP JUMPDEST PUSH1 0x40 MSTORE POP POP JUMP JUMPDEST PUSH1 0x0 PUSH1 0x0 NOT DUP3 EQ ISZERO PUSH2 0x3814 JUMPI PUSH2 0x3814 PUSH2 0x381B JUMP JUMPDEST POP PUSH1 0x1 ADD SWAP1 JUMP JUMPDEST PUSH4 0x4E487B71 PUSH1 0xE0 SHL PUSH1 0x0 MSTORE PUSH1 0x11 PUSH1 0x4 MSTORE PUSH1 0x24 PUSH1 0x0 REVERT JUMPDEST PUSH4 0x4E487B71 PUSH1 0xE0 SHL PUSH1 0x0 MSTORE PUSH1 0x41 PUSH1 0x4 MSTORE PUSH1 0x24 PUSH1 0x0 REVERT JUMPDEST PUSH1 0x0 PUSH1 0x3 RETURNDATASIZE GT ISZERO PUSH2 0xA06 JUMPI PUSH1 0x4 DUP2 DUP3 RETURNDATACOPY MLOAD PUSH1 0xE0 SHR SWAP1 JUMP JUMPDEST PUSH1 0x0 PUSH1 0x44 RETURNDATASIZE LT ISZERO PUSH2 0x386E JUMPI PUSH2 0xA06 JUMP JUMPDEST PUSH1 0x40 MLOAD PUSH1 0x3 NOT RETURNDATASIZE DUP2 ADD PUSH1 0x4 DUP4 RETURNDATACOPY DUP2 MLOAD RETURNDATASIZE PUSH8 0xFFFFFFFFFFFFFFFF DUP2 PUSH1 0x24 DUP5 ADD GT DUP2 DUP5 GT OR ISZERO PUSH2 0x38A0 JUMPI POP POP POP POP POP PUSH2 0xA06 JUMP JUMPDEST DUP3 DUP6 ADD SWAP2 POP DUP2 MLOAD DUP2 DUP2 GT ISZERO PUSH2 0x38BA JUMPI POP POP POP POP POP POP PUSH2 0xA06 JUMP JUMPDEST DUP5 RETURNDATASIZE DUP8 ADD ADD PUSH1 0x20 DUP3 DUP6 ADD ADD GT ISZERO PUSH2 0x38D6 JUMPI POP POP POP POP POP POP PUSH2 0xA06 JUMP JUMPDEST PUSH2 0x38E5 PUSH1 0x20 DUP3 DUP7 ADD ADD DUP8 PUSH2 0x37D3 JUMP JUMPDEST POP SWAP1 SWAP5 POP POP POP POP POP SWAP1 JUMP JUMPDEST PUSH1 0x1 PUSH1 0x1 PUSH1 0xE0 SHL SUB NOT DUP2 AND DUP2 EQ PUSH2 0x3906 JUMPI PUSH1 0x0 DUP1 REVERT JUMPDEST POP JUMP INVALID LOG2 PUSH5 0x6970667358 0x22 SLT KECCAK256 PUSH32 0xF15519FFF64ABFA0794F1FD02F39296BE7AF3B7108A9A1E87DF7F98B3FF80864 PUSH20 0x6F6C634300080300330000000000000000000000 ","sha1":"9fc9a37af7a10d927225d6b2005591c7759d636e","source":"pragma solidity ^0.8.0;\n\nimport \"./openzeppelin-contracts/contracts/token/ERC1155/ERC1155.sol\";\nimport \"./openzeppelin-contracts/contracts/utils/structs/EnumerableSet.sol\";\n  \n\ncontract Cafe is ERC1155 {\n\n    using EnumerableSet for EnumerableSet.UintSet;\n    \n    \n    constructor (string memory uri_, uint32 _timescale, uint256 _createCost, uint256 _feedCost, uint256 _grindReward) public ERC1155(uri_) {\n        _setURI(uri_);\n        timescale = _timescale;\n        devAddress=msg.sender;\n        createCost = _createCost;\n        feedCost = _feedCost;\n        grindReward = _grindReward;\n    }\n    /** @dev These are the constructor parameters.  Create/feed Costs are the flour required to create and feed starters.  \n    Timescale represents the timescale at which starters die, feed reset time, and  grindFlour cooldown\n    grindReward is the reward for grinding flour\n     */\n    uint256 createCost;\n    uint256 feedCost;\n    uint32 timescale;\n    uint256 grindReward;\n\n\n    /** @dev Sourdough Struct represents the living sourdough starters\n    _timeOfDeath is the Unix timestamp at which the starter 'dies' and becomes unavailable for use in baking\n    _childCount describes the number of times the starter has been split\n    _creationTime shows when the starter was born! \n    _creator is the person who made the starter\n     */\n\n    struct Sourdough{\n        uint32 _timeOfDeath;\n        uint8 _childCount;\n        uint32 _creationTime;\n        address _creator;\n        bool _beingAutoFed;\n        }\n\n\n\n\n/** @dev Recipe struct represents baked items.  \n_name is the name..must be unique\n_flourRequired is burned when baking the recipe\n_ages is an array of the ages of the required starter ingredients*/\n    struct Recipe{\n        string _name;\n        uint256 _flourRequired;\n        uint32[] _ages;\n        address _creator;\n        uint256 _timesBaked;\n        uint256 _numberEaten;\n        uint32 _score;\n        \n    }\n/** @dev flourId denotes the id of the fungible FLOUR token\ndividerIndex separates semi-fungible starter ingredients and semi-fungible baked goods\ngrindCooldown determine whether or not an address can grind flour\n */\n    address public devAddress = address(this);\n    uint256 flourId = 0;\n    uint256 dividerIndex = 57896044618658097711785492504343953926634992332820282019728792003956564819968;\n    mapping (uint256 => Sourdough) Sourdoughs;\n    mapping(address => uint32) grindCooldown;\n\n    mapping(uint256 => Recipe) BakedGoods;\n    mapping(address =>  EnumerableSet.UintSet) private _ownerRecipes;\n    mapping(address => uint256) totalScore;\n    mapping(address => bool) isAutoFeeding;\n\n/** @dev highscores here */\n\n    uint256[11] public starterHighScore;\n    uint256[11] public recipeHighScore;\n    address[11] public playerHighScore;\n\n   \n    uint256 public mostUsedRecipe;\n    uint256 public topRecipeScore;\n\n  \n    uint256 public flourSupply = 0;\n   \n/** @dev total stats\n */ \n    uint256 public startersCreated = 0;\n    uint256 public itemsBaked = 0;\n    uint256 public recipesPublished = 0;\n\n/** @dev Credits the user FLOUR every 24 hours if submitted\n */\n    function grindFlour() public {\n       \n        require(grindCooldown[msg.sender]<block.timestamp,\"You did this already today!\");\n        _mint(msg.sender,flourId, grindReward, \"\");\n        flourSupply += grindReward;\n        grindCooldown[msg.sender] = uint32(block.timestamp + timescale);\n    }\n\n/** @dev Internally used to get rid of flour tokens */\n    function _burnFlour(address account, uint256 amount) internal {\n        require(balanceOf(msg.sender,flourId)>=amount);\n        _burn(account,flourId,amount);\n        flourSupply -= amount;\n    }\n\n/** @dev Makes a new nonfungible starter with age attributes by burning 50 FLOUR */\n    function createStarter() public returns (bool) {\n        _burnFlour(msg.sender,  createCost);  \n        uint256 tokenId = startersCreated +1; \n        _mint(msg.sender, 0+tokenId, 1,\"\");\n        Sourdough memory sourdough = Sourdough(uint32(block.timestamp + timescale),0,uint32(block.timestamp),msg.sender,false);\n        \n        startersCreated+=1;\n        Sourdoughs[tokenId] = sourdough;\n        return true;\n    \n    }\n/** @dev Burns 50 FLOUR and resets the time of death for your token*/\n    function feedStarter(uint256 tokenId) public returns (bool) {\n        require(balanceOf(msg.sender,tokenId) == 1, \"This Id number is not associated with one of your starters, please try with a valid id.\");\n        require(Sourdoughs[tokenId]._timeOfDeath >= block.timestamp, \"Your starter is dead!  You should have fed it sooner :( .\");\n        _burnFlour(msg.sender, feedCost);\n        Sourdoughs[tokenId]._timeOfDeath = uint32(block.timestamp + timescale);\n        if(Sourdoughs[tokenId]._beingAutoFed){\n            Sourdoughs[tokenId]._beingAutoFed==false;\n        }\n        _updateStarterScore(tokenId);\n\n        return true;\n    }\n\n/** @dev Feeds and duplicates your starter, returning another with identical age - costs 100 FLOUR */\n    function splitStarter(uint256 tokenId) public returns (bool) { \n        require(balanceOf(msg.sender,tokenId)==1, \"This Id number is not associated with one of your starters, please try with a valid id.\");\n        feedStarter(tokenId);\n        createStarter();\n        Sourdoughs[startersCreated]._creationTime = Sourdoughs[tokenId]._creationTime;\n        Sourdoughs[tokenId]._childCount+=1;\n        return true;\n\n    }\n/** @dev Internal. Takes a recipe struct and a batch of ingredients by id number.  Burns the ingredients and FLOUR required, then mints a semi-fungible item to the owner\nwith the Id of the recipe */\n    function _bakeRecipe(Recipe memory recipe, uint256[] memory starterBatch) internal returns (bool) {\n        require(balanceOf(msg.sender, flourId)>= recipe._flourRequired,\"You don't have enough FLOUR to bake that!!\");\n        uint length = recipe._ages.length;\n        uint[] memory amounts = new uint[](length);\n        require(recipe._ages.length == starterBatch.length,\"You haven't added the right number of starters to the batch!\");\n        for(uint i=0;i<recipe._ages.length;i++){\n            uint32 starterAge = uint32(block.timestamp-Sourdoughs[starterBatch[i]]._creationTime);\n            require(starterAge > recipe._ages[i], \"Your starters are not old enough, please use the starters required by this recipe\");  \n            require(Sourdoughs[starterBatch[i]]._timeOfDeath >= block.timestamp, \"Your starters are not all alive, you must use a living ingredient!!\");\n            require(balanceOf(msg.sender,starterBatch[i])==1, \"This Id number is not associated with one of your starters, please try with a valid id.\");\n            amounts[i] = 1;\n        }\n        _burnBatch(msg.sender, starterBatch, amounts); \n        _burnFlour(msg.sender,recipe._flourRequired);\n        return true;\n    }\n/** @dev Bakes and publishes a recipe that does not yet exist */\n    function publishNewRecipe(string memory name, uint256 flourRequired, uint32[] memory ages, uint256[] memory starterBatch) public returns (uint256) {\n        require(ages.length <=10, \"You can only have up to 10 ingredients!\");\n        Recipe memory recipe = Recipe(name,flourRequired, ages,msg.sender,0,0,0);\n        _bakeRecipe(recipe,starterBatch);\n\n        uint32[] memory ages = recipe._ages;\n        uint32 total;\n        for(uint i=0;i<ages.length;i++){\n            total+=ages[i];\n        }\n        recipe._score = total;\n\n        recipe._timesBaked+=1;\n        itemsBaked+=1;\n        recipesPublished+=1;\n        uint256 recipeId = dividerIndex + recipesPublished;\n        BakedGoods[recipesPublished] = recipe;\n        _ownerRecipes[msg.sender].add(recipesPublished);\n        _updateRecipeScore(recipesPublished);\n        _mint(msg.sender,recipeId,1,\"\");\n        return recipeId;\n\n\n    }\n/** @dev Takes the id of an existing recipe and a batch of ingredients.  Burns the batch and the required flour, mints an item with the recipe Id */\n    function bakeExistingRecipe(uint256 recipeId, uint256[] memory starterBatch) public returns (bool) {\n        Recipe memory recipe = BakedGoods[recipeId];\n        _bakeRecipe(recipe,starterBatch);\n\n        BakedGoods[recipeId]._timesBaked+=1;\n        \n        itemsBaked+=1;\n        _updateRecipeScore(recipeId);\n        _mint(msg.sender,recipeId+dividerIndex,1,\"\");\n        return true;\n    }\n/** @dev Burns an item, credits the player with a score equivalent to the total age of all ingredients */\n    function eatBakedGood(uint256 recipeId, uint256 amount) public returns (bool){\n        require(balanceOf(msg.sender,dividerIndex + recipeId)>=amount, \"You don't have that many of those to eat!\");\n        \n        uint32 total = BakedGoods[recipeId]._score;\n       \n        uint256 index = recipeId + dividerIndex;\n        _burn(msg.sender,index,amount);\n        BakedGoods[recipeId]._numberEaten+=1;\n        totalScore[msg.sender]+= uint256(total)*amount;\n        _updatePlayerScore(msg.sender);\n\n        \n    }\n\n\n\n    function autoFeed(uint feedingTimes,uint256 starterId) public returns (bool) {\n        require(balanceOf(msg.sender,starterId)==1, \"This Id number is not associated with one of your starters, please try with a valid id.\");\n        uint256 cost = feedingTimes*50;\n        uint256 devFee = feedingTimes*10;\n        _burnFlour(msg.sender, cost);\n        safeTransferFrom(msg.sender,devAddress,flourId,devFee,\"\");\n        isAutoFeeding[msg.sender]=true;\n        Sourdoughs[starterId]._timeOfDeath =  uint32(block.timestamp + feedingTimes* timescale);\n        Sourdoughs[starterId]._beingAutoFed = true;\n        return true;\n    }\n\n\n    function stopAutoFeed(uint256 starterId) public returns(bool) {\n        require(Sourdoughs[starterId]._beingAutoFed ==true);\n        Sourdoughs[starterId]._timeOfDeath = uint32(block.timestamp + timescale);\n        Sourdoughs[starterId]._beingAutoFed = false;\n    }\n    \n\n    function _updateStarterScore(uint256 _starterId) internal {\n        uint index = 9;\n        uint32 time = Sourdoughs[_starterId]._creationTime;\n        uint32 toBeat = Sourdoughs[starterHighScore[index]]._creationTime;\n        while(time < toBeat && index>0 ){\n            starterHighScore[index+1] =starterHighScore[index];\n            starterHighScore[index] = _starterId;\n            index = index-1;\n        }\n\n    } \n\n    function _updateRecipeScore(uint256 _recipeId) internal {\n        uint index = 9;\n        uint256 score = BakedGoods[_recipeId]._timesBaked;\n        uint256 toBeat = BakedGoods[recipeHighScore[index]]._timesBaked;\n        while(score>toBeat && index>0 ){\n            recipeHighScore[index+1]= recipeHighScore[index];\n            recipeHighScore[index] = _recipeId;\n            index = index-1;\n        }\n\n    }\n\n    function _updatePlayerScore(address _player) internal {\n        uint index = 9;\n        uint256 score = totalScore[_player];\n        uint256 toBeat = totalScore[playerHighScore[index]];\n         while(score>toBeat && index>0 ){\n            playerHighScore[index+1]= playerHighScore[index];\n            playerHighScore[index] = _player;\n            index = index-1;\n        }\n\n\n    }\n\n\n\n\n\n\n\n    function getTimeOfDeath(uint256 starterId) public view returns(uint32){\n        return Sourdoughs[starterId]._timeOfDeath;\n    }\n    function getChildCount(uint256 starterId) public view returns(uint8){\n        return Sourdoughs[starterId]._childCount;\n    }\n    function getCreationTime(uint256 starterId) public view returns(uint32){\n        return Sourdoughs[starterId]._creationTime;\n    }\n    function getCreatorAddress(uint256 starterId) public view returns(address){\n        return Sourdoughs[starterId]._creator;\n    }\n    function getIsAutoFed(uint256 starterId) public view returns(bool){\n        return Sourdoughs[starterId]._beingAutoFed;\n    }\n\n\n\n\n    function getRecipeName(uint256 recipeId) public view returns(string memory){\n        return BakedGoods[recipeId]._name;\n    }\n\n    function getRecipeScore(uint256 recipeId) public view returns(uint32){\n        return BakedGoods[recipeId]._score;\n    }\n    function getIngredientCount(uint256 recipeId) public view returns(uint256){\n        return BakedGoods[recipeId]._ages.length;\n    }\n     function getIngredientByIndex(uint256 recipeId, uint index) public view returns(uint32){\n        return BakedGoods[recipeId]._ages[index];\n    }\n     function getRecipeCreator(uint256 recipeId) public view returns(address){\n        return BakedGoods[recipeId]._creator;\n    }\n     function getFlourRequired(uint256 recipeId) public view returns(uint256){\n        return BakedGoods[recipeId]._flourRequired;\n    }\n     function getTimesBaked(uint256 recipeId) public view returns(uint256){\n        return BakedGoods[recipeId]._timesBaked;\n    }\n     function getNumberEaten(uint256 recipeId) public view returns(uint256){\n        return BakedGoods[recipeId]._numberEaten;\n    }\n\n\n    function getGrindReset(address player) public view returns(uint32){\n        return grindCooldown[player];\n    }\n    function getPlayerScore(address player) public view returns(uint256){\n        return totalScore[player];\n    }\n    function isPlayerAutoFeeding(address player) public view returns(bool){\n        return isAutoFeeding[player];\n    }\n\n      function recipeOfOwnerByIndex(address owner, uint256 index) public view returns (uint256) {\n        return _ownerRecipes[owner].at(index);\n    }\n    function getOwnerUniqueRecipes(address owner) public view returns (uint256) {\n        return _ownerRecipes[owner].length();\n    }\n}\n    \n","sourcePath":"contracts/Cafe.sol","type":"contract","deployment":{"address":"0x3C235b0c4A668B8eC7bB8569F6207923A0f64A5e","chainid":"3","blockHeight":10047524}}