{"abi":[{"inputs":[{"internalType":"string","name":"uri_","type":"string"},{"internalType":"uint32","name":"_timescale","type":"uint32"},{"internalType":"uint256","name":"_createCost","type":"uint256"},{"internalType":"uint256","name":"_feedCost","type":"uint256"},{"internalType":"uint256","name":"_grindReward","type":"uint256"}],"stateMutability":"nonpayable","type":"constructor","name":"constructor"},{"anonymous":false,"inputs":[{"indexed":true,"internalType":"address","name":"account","type":"address"},{"indexed":true,"internalType":"address","name":"operator","type":"address"},{"indexed":false,"internalType":"bool","name":"approved","type":"bool"}],"name":"ApprovalForAll","type":"event"},{"anonymous":false,"inputs":[{"indexed":true,"internalType":"address","name":"operator","type":"address"},{"indexed":true,"internalType":"address","name":"from","type":"address"},{"indexed":true,"internalType":"address","name":"to","type":"address"},{"indexed":false,"internalType":"uint256[]","name":"ids","type":"uint256[]"},{"indexed":false,"internalType":"uint256[]","name":"values","type":"uint256[]"}],"name":"TransferBatch","type":"event"},{"anonymous":false,"inputs":[{"indexed":true,"internalType":"address","name":"operator","type":"address"},{"indexed":true,"internalType":"address","name":"from","type":"address"},{"indexed":true,"internalType":"address","name":"to","type":"address"},{"indexed":false,"internalType":"uint256","name":"id","type":"uint256"},{"indexed":false,"internalType":"uint256","name":"value","type":"uint256"}],"name":"TransferSingle","type":"event"},{"anonymous":false,"inputs":[{"indexed":false,"internalType":"string","name":"value","type":"string"},{"indexed":true,"internalType":"uint256","name":"id","type":"uint256"}],"name":"URI","type":"event"},{"inputs":[{"internalType":"uint256","name":"feedingTimes","type":"uint256"},{"internalType":"uint256","name":"starterId","type":"uint256"}],"name":"autoFeed","outputs":[{"internalType":"bool","name":"","type":"bool"}],"stateMutability":"nonpayable","type":"function"},{"inputs":[{"internalType":"uint256","name":"recipeId","type":"uint256"},{"internalType":"uint256[]","name":"starterBatch","type":"uint256[]"}],"name":"bakeExistingRecipe","outputs":[{"internalType":"bool","name":"","type":"bool"}],"stateMutability":"nonpayable","type":"function"},{"inputs":[{"internalType":"address","name":"account","type":"address"},{"internalType":"uint256","name":"id","type":"uint256"}],"name":"balanceOf","outputs":[{"internalType":"uint256","name":"","type":"uint256"}],"stateMutability":"view","type":"function"},{"inputs":[{"internalType":"address[]","name":"accounts","type":"address[]"},{"internalType":"uint256[]","name":"ids","type":"uint256[]"}],"name":"balanceOfBatch","outputs":[{"internalType":"uint256[]","name":"","type":"uint256[]"}],"stateMutability":"view","type":"function"},{"inputs":[],"name":"createStarter","outputs":[{"internalType":"bool","name":"","type":"bool"}],"stateMutability":"nonpayable","type":"function"},{"inputs":[],"name":"devAddress","outputs":[{"internalType":"address","name":"","type":"address"}],"stateMutability":"view","type":"function"},{"inputs":[{"internalType":"uint256","name":"recipeId","type":"uint256"},{"internalType":"uint256","name":"amount","type":"uint256"}],"name":"eatBakedGood","outputs":[{"internalType":"bool","name":"","type":"bool"}],"stateMutability":"nonpayable","type":"function"},{"inputs":[{"internalType":"uint256","name":"tokenId","type":"uint256"}],"name":"feedStarter","outputs":[{"internalType":"bool","name":"","type":"bool"}],"stateMutability":"nonpayable","type":"function"},{"inputs":[],"name":"flourSupply","outputs":[{"internalType":"uint256","name":"","type":"uint256"}],"stateMutability":"view","type":"function"},{"inputs":[{"internalType":"uint256","name":"starterId","type":"uint256"}],"name":"getChildCount","outputs":[{"internalType":"uint8","name":"","type":"uint8"}],"stateMutability":"view","type":"function"},{"inputs":[{"internalType":"uint256","name":"starterId","type":"uint256"}],"name":"getCreationTime","outputs":[{"internalType":"uint32","name":"","type":"uint32"}],"stateMutability":"view","type":"function"},{"inputs":[{"internalType":"uint256","name":"starterId","type":"uint256"}],"name":"getCreatorAddress","outputs":[{"internalType":"address","name":"","type":"address"}],"stateMutability":"view","type":"function"},{"inputs":[{"internalType":"uint256","name":"recipeId","type":"uint256"}],"name":"getFlourRequired","outputs":[{"internalType":"uint256","name":"","type":"uint256"}],"stateMutability":"view","type":"function"},{"inputs":[{"internalType":"address","name":"player","type":"address"}],"name":"getGrindReset","outputs":[{"internalType":"uint32","name":"","type":"uint32"}],"stateMutability":"view","type":"function"},{"inputs":[{"internalType":"uint256","name":"recipeId","type":"uint256"},{"internalType":"uint256","name":"index","type":"uint256"}],"name":"getIngredientByIndex","outputs":[{"internalType":"uint32","name":"","type":"uint32"}],"stateMutability":"view","type":"function"},{"inputs":[{"internalType":"uint256","name":"recipeId","type":"uint256"}],"name":"getIngredientCount","outputs":[{"internalType":"uint256","name":"","type":"uint256"}],"stateMutability":"view","type":"function"},{"inputs":[{"internalType":"uint256","name":"starterId","type":"uint256"}],"name":"getIsAutoFed","outputs":[{"internalType":"bool","name":"","type":"bool"}],"stateMutability":"view","type":"function"},{"inputs":[{"internalType":"uint256","name":"recipeId","type":"uint256"}],"name":"getNumberEaten","outputs":[{"internalType":"uint256","name":"","type":"uint256"}],"stateMutability":"view","type":"function"},{"inputs":[{"internalType":"address","name":"owner","type":"address"}],"name":"getOwnerUniqueRecipes","outputs":[{"internalType":"uint256","name":"","type":"uint256"}],"stateMutability":"view","type":"function"},{"inputs":[{"internalType":"address","name":"owner","type":"address"}],"name":"getOwnerUniqueTokens","outputs":[{"internalType":"uint256","name":"","type":"uint256"}],"stateMutability":"view","type":"function"},{"inputs":[{"internalType":"address","name":"player","type":"address"}],"name":"getPlayerScore","outputs":[{"internalType":"uint256","name":"","type":"uint256"}],"stateMutability":"view","type":"function"},{"inputs":[{"internalType":"uint256","name":"recipeId","type":"uint256"}],"name":"getRecipeCreator","outputs":[{"internalType":"address","name":"","type":"address"}],"stateMutability":"view","type":"function"},{"inputs":[{"internalType":"uint256","name":"recipeId","type":"uint256"}],"name":"getRecipeName","outputs":[{"internalType":"string","name":"","type":"string"}],"stateMutability":"view","type":"function"},{"inputs":[{"internalType":"uint256","name":"recipeId","type":"uint256"}],"name":"getRecipeScore","outputs":[{"internalType":"uint32","name":"","type":"uint32"}],"stateMutability":"view","type":"function"},{"inputs":[{"internalType":"uint256","name":"starterId","type":"uint256"}],"name":"getTimeOfDeath","outputs":[{"internalType":"uint32","name":"","type":"uint32"}],"stateMutability":"view","type":"function"},{"inputs":[{"internalType":"uint256","name":"recipeId","type":"uint256"}],"name":"getTimesBaked","outputs":[{"internalType":"uint256","name":"","type":"uint256"}],"stateMutability":"view","type":"function"},{"inputs":[],"name":"grindFlour","outputs":[],"stateMutability":"nonpayable","type":"function"},{"inputs":[{"internalType":"address","name":"account","type":"address"},{"internalType":"address","name":"operator","type":"address"}],"name":"isApprovedForAll","outputs":[{"internalType":"bool","name":"","type":"bool"}],"stateMutability":"view","type":"function"},{"inputs":[{"internalType":"address","name":"player","type":"address"}],"name":"isPlayerAutoFeeding","outputs":[{"internalType":"bool","name":"","type":"bool"}],"stateMutability":"view","type":"function"},{"inputs":[],"name":"itemsBaked","outputs":[{"internalType":"uint256","name":"","type":"uint256"}],"stateMutability":"view","type":"function"},{"inputs":[{"internalType":"uint256","name":"","type":"uint256"}],"name":"playerHighScore","outputs":[{"internalType":"address","name":"","type":"address"}],"stateMutability":"view","type":"function"},{"inputs":[{"internalType":"string","name":"name","type":"string"},{"internalType":"uint256","name":"flourRequired","type":"uint256"},{"internalType":"uint32[]","name":"ages","type":"uint32[]"},{"internalType":"uint256[]","name":"starterBatch","type":"uint256[]"}],"name":"publishNewRecipe","outputs":[{"internalType":"uint256","name":"","type":"uint256"}],"stateMutability":"nonpayable","type":"function"},{"inputs":[{"internalType":"uint256","name":"","type":"uint256"}],"name":"recipeHighScore","outputs":[{"internalType":"uint256","name":"","type":"uint256"}],"stateMutability":"view","type":"function"},{"inputs":[{"internalType":"address","name":"owner","type":"address"},{"internalType":"uint256","name":"index","type":"uint256"}],"name":"recipeOfOwnerByIndex","outputs":[{"internalType":"uint256","name":"","type":"uint256"}],"stateMutability":"view","type":"function"},{"inputs":[],"name":"recipesPublished","outputs":[{"internalType":"uint256","name":"","type":"uint256"}],"stateMutability":"view","type":"function"},{"inputs":[{"internalType":"address","name":"from","type":"address"},{"internalType":"address","name":"to","type":"address"},{"internalType":"uint256[]","name":"ids","type":"uint256[]"},{"internalType":"uint256[]","name":"amounts","type":"uint256[]"},{"internalType":"bytes","name":"data","type":"bytes"}],"name":"safeBatchTransferFrom","outputs":[],"stateMutability":"nonpayable","type":"function"},{"inputs":[{"internalType":"address","name":"from","type":"address"},{"internalType":"address","name":"to","type":"address"},{"internalType":"uint256","name":"id","type":"uint256"},{"internalType":"uint256","name":"amount","type":"uint256"},{"internalType":"bytes","name":"data","type":"bytes"}],"name":"safeTransferFrom","outputs":[],"stateMutability":"nonpayable","type":"function"},{"inputs":[{"internalType":"address","name":"operator","type":"address"},{"internalType":"bool","name":"approved","type":"bool"}],"name":"setApprovalForAll","outputs":[],"stateMutability":"nonpayable","type":"function"},{"inputs":[{"internalType":"uint256","name":"tokenId","type":"uint256"}],"name":"splitStarter","outputs":[{"internalType":"bool","name":"","type":"bool"}],"stateMutability":"nonpayable","type":"function"},{"inputs":[{"internalType":"uint256","name":"","type":"uint256"}],"name":"starterHighScore","outputs":[{"internalType":"uint256","name":"","type":"uint256"}],"stateMutability":"view","type":"function"},{"inputs":[],"name":"startersCreated","outputs":[{"internalType":"uint256","name":"","type":"uint256"}],"stateMutability":"view","type":"function"},{"inputs":[{"internalType":"uint256","name":"starterId","type":"uint256"}],"name":"stopAutoFeed","outputs":[{"internalType":"bool","name":"","type":"bool"}],"stateMutability":"nonpayable","type":"function"},{"inputs":[{"internalType":"bytes4","name":"interfaceId","type":"bytes4"}],"name":"supportsInterface","outputs":[{"internalType":"bool","name":"","type":"bool"}],"stateMutability":"view","type":"function"},{"inputs":[{"internalType":"address","name":"owner","type":"address"},{"internalType":"uint256","name":"index","type":"uint256"}],"name":"tokenOfOwnerByIndex","outputs":[{"internalType":"uint256","name":"","type":"uint256"}],"stateMutability":"view","type":"function"},{"inputs":[{"internalType":"uint256","name":"","type":"uint256"}],"name":"uri","outputs":[{"internalType":"string","name":"","type":"string"}],"stateMutability":"view","type":"function"}],"bytecode":"6080604052600880546001600160a01b0319163017905560006009819055600160ff1b600a556032819055603381905560348190556035553480156200004457600080fd5b5060405162003c3138038062003c31833981016040819052620000679162000199565b846200007381620000c0565b506200007f85620000c0565b6006805463ffffffff90951663ffffffff1990951694909417909355600880546001600160a01b0319163317905560049190915560055560075550620002f2565b8051620000d5906003906020840190620000d9565b5050565b828054620000e7906200029f565b90600052602060002090601f0160209004810192826200010b576000855562000156565b82601f106200012657805160ff191683800117855562000156565b8280016001018555821562000156579182015b828111156200015657825182559160200191906001019062000139565b506200016492915062000168565b5090565b5b8082111562000164576000815560010162000169565b805163ffffffff811681146200019457600080fd5b919050565b600080600080600060a08688031215620001b1578081fd5b85516001600160401b0380821115620001c8578283fd5b818801915088601f830112620001dc578283fd5b815181811115620001f157620001f1620002dc565b604051601f8201601f19908116603f011681019083821181831017156200021c576200021c620002dc565b81604052828152602093508b8484870101111562000238578586fd5b8591505b828210156200025b57848201840151818301850152908301906200023c565b828211156200026c57858484830101525b98506200027e9150508882016200017f565b604089015160608a01516080909a0151989b919a5098979650945050505050565b600181811c90821680620002b457607f821691505b60208210811415620002d657634e487b7160e01b600052602260045260246000fd5b50919050565b634e487b7160e01b600052604160045260246000fd5b61392f80620003026000396000f3fe608060405234801561001057600080fd5b506004361061027e5760003560e01c80637f8315cd1161015c578063c8cf79d9116100ce578063e985e9c511610087578063e985e9c5146106ce578063f242432a1461070a578063f6d989f21461071d578063f71ed3b814610726578063fc4f816c14610750578063fcf73cbe146107635761027e565b8063c8cf79d914610607578063cb2080101461061a578063d0eaf3681461063d578063d682d87a14610666578063e085c53914610692578063e11fd028146106bb5761027e565b8063a348675811610120578063a3486758146105aa578063a41e1c17146105b2578063b172decc146105c5578063bf3c95b9146105d8578063c3b1066f146105eb578063c889d089146105fe5761027e565b80637f8315cd146104f1578063976c39be1461051757806397ec23cb1461053a578063a22cb46514610567578063a30b4db91461057a5761027e565b806336ff4c95116101f55780635c2c894a116101b95780635c2c894a146104335780636510989c1461043c57806370b5e7b01461044f578063781f1b75146104725780637985781f146104855780637a77af5c146104b45761027e565b806336ff4c95146103ae5780633ad10ef6146103da57806342da6f9c146103ed5780634e1273f4146104005780634f41393b146104205761027e565b8063214fa99b11610247578063214fa99b146103075780632a316cdf146103325780632b944ddf146103555780632eb2c2d61461035e5780632f745c591461037357806334b7fa22146103865761027e565b8062fdd58e1461028357806301ffc9a7146102a957806307047482146102cc5780630e89341c146102d45780631269ca40146102f4575b600080fd5b610296610291366004613077565b610776565b6040519081526020015b60405180910390f35b6102bc6102b736600461316b565b610812565b60405190151581526020016102a0565b6102bc610866565b6102e76102e23660046132bc565b6109e1565b6040516102a0919061348d565b6102e76103023660046132bc565b610a75565b61031a6103153660046132bc565b610a92565b6040516001600160a01b0390911681526020016102a0565b6102966103403660046132bc565b6000908152600d602052604090206001015490565b61029660335481565b61037161036c366004612f34565b610ab2565b005b610296610381366004613077565b610da7565b61039961039436600461330f565b610dd0565b60405163ffffffff90911681526020016102a0565b6102bc6103bc366004612ee8565b6001600160a01b031660009081526010602052604090205460ff1690565b60085461031a906001600160a01b031681565b6102966103fb366004612ee8565b610e2f565b61041361040e3660046130a0565b610e50565b6040516102a0919061344c565b6102bc61042e3660046132d4565b610fb2565b61029660345481565b6102bc61044a36600461330f565b611199565b61029661045d3660046132bc565b6000908152600d602052604090206005015490565b6102bc6104803660046132bc565b6112b2565b610399610493366004612ee8565b6001600160a01b03166000908152600c602052604090205463ffffffff1690565b6104df6104c23660046132bc565b6000908152600b6020526040902054640100000000900460ff1690565b60405160ff90911681526020016102a0565b6103996104ff3660046132bc565b6000908152600b602052604090205463ffffffff1690565b6102966105253660046132bc565b6000908152600d602052604090206004015490565b6103996105483660046132bc565b6000908152600b6020526040902054600160281b900463ffffffff1690565b61037161057536600461303d565b611374565b61031a6105883660046132bc565b6000908152600b6020526040902054600160481b90046001600160a01b031690565b610371611458565b6102966105c03660046131a3565b611532565b6102bc6105d336600461330f565b611799565b6102966105e6366004612ee8565b61188f565b6102966105f93660046132bc565b6118b0565b61029660325481565b6102bc6106153660046132bc565b6118c7565b6102966106283660046132bc565b6000908152600d602052604090206002015490565b61039961064b3660046132bc565b6000908152600d602052604090206006015463ffffffff1690565b61031a6106743660046132bc565b6000908152600d60205260409020600301546001600160a01b031690565b6102966106a0366004612ee8565b6001600160a01b03166000908152600f602052604090205490565b6102966106c93660046132bc565b611932565b6102bc6106dc366004612f02565b6001600160a01b03918216600090815260026020908152604080832093909416825291909152205460ff1690565b610371610718366004612fda565b611942565b61029660355481565b6102bc6107343660046132bc565b6000908152600b6020526040902054600160e81b900460ff1690565b6102bc61075e3660046132bc565b611b77565b610296610771366004613077565b611ca0565b60006001600160a01b0383166107e75760405162461bcd60e51b815260206004820152602b60248201527f455243313135353a2062616c616e636520717565727920666f7220746865207a60448201526a65726f206164647265737360a81b60648201526084015b60405180910390fd5b5060008181526001602090815260408083206001600160a01b03861684529091529020545b92915050565b60006001600160e01b03198216636cdb3d1360e11b148061084357506001600160e01b031982166303a24d0760e21b145b8061085e57506301ffc9a760e01b6001600160e01b03198316145b90505b919050565b600061087433600454611cc2565b6000603354600161088591906136ed565b90506108ad336108968360006136ed565b600160405180602001604052806000815250611d02565b6040805160a081019091526006546000919081906108d19063ffffffff16426136ed565b63ffffffff168152602001600060ff1681526020014263ffffffff168152602001336001600160a01b0316815260200160001515815250905060016033600082825461091d91906136ed565b90915550506000918252600b602090815260409283902082518154928401519484015160608501516080909501511515600160e81b0260ff60e81b196001600160a01b03909616600160481b027fffffff0000000000000000000000000000000000000000ffffffffffffffffff63ffffffff938416600160281b021665010000000000600160e81b031960ff9099166401000000000264ffffffffff19909716939094169290921794909417959095161793909317919091161790555060015b90565b6060600380546109f090613788565b80601f0160208091040260200160405190810160405280929190818152602001828054610a1c90613788565b8015610a695780601f10610a3e57610100808354040283529160200191610a69565b820191906000526020600020905b815481529060010190602001808311610a4c57829003601f168201915b50505050509050919050565b6000818152600d602052604090208054606091906109f090613788565b602781600b8110610aa257600080fd5b01546001600160a01b0316905081565b8151835114610ad35760405162461bcd60e51b81526004016107de90613681565b6001600160a01b038416610af95760405162461bcd60e51b81526004016107de906135af565b6001600160a01b038516331480610b155750610b1585336106dc565b610b7c5760405162461bcd60e51b815260206004820152603260248201527f455243313135353a207472616e736665722063616c6c6572206973206e6f74206044820152711bdddb995c881b9bdc88185c1c1c9bdd995960721b60648201526084016107de565b3360005b8451811015610d39576000858281518110610bab57634e487b7160e01b600052603260045260246000fd5b602002602001015190506000858381518110610bd757634e487b7160e01b600052603260045260246000fd5b60209081029190910181015160008481526001835260408082206001600160a01b038e168352909352919091205490915081811015610c285760405162461bcd60e51b81526004016107de90613637565b610c328282613771565b6001600085815260200190815260200160002060008c6001600160a01b03166001600160a01b0316815260200190815260200160002081905550816001600085815260200190815260200160002060008b6001600160a01b03166001600160a01b031681526020019081526020016000206000828254610cb291906136ed565b90915550506001600160a01b0389166000908152602081905260409020610cd99084611e28565b5060008381526001602090815260408083206001600160a01b038e168452909152902054610d25576001600160a01b038a166000908152602081905260409020610d239084611e34565b505b50505080610d32906137f0565b9050610b80565b50846001600160a01b0316866001600160a01b0316826001600160a01b03167f4a39dc06d4c0dbc64b70af90fd698a233a518aa5d07e595d983b8c0526c8f7fb8787604051610d8992919061345f565b60405180910390a4610d9f818787878787611e40565b505050505050565b6001600160a01b0382166000908152602081905260408120610dc99083611fab565b9392505050565b6000828152600d60205260408120600201805483908110610e0157634e487b7160e01b600052603260045260246000fd5b90600052602060002090600891828204019190066004029054906101000a900463ffffffff16905092915050565b6001600160a01b038116600090815260208190526040812061085e90611fb7565b60608151835114610eb55760405162461bcd60e51b815260206004820152602960248201527f455243313135353a206163636f756e747320616e6420696473206c656e677468604482015268040dad2e6dac2e8c6d60bb1b60648201526084016107de565b6000835167ffffffffffffffff811115610edf57634e487b7160e01b600052604160045260246000fd5b604051908082528060200260200182016040528015610f08578160200160208202803683370190505b50905060005b8451811015610faa57610f6f858281518110610f3a57634e487b7160e01b600052603260045260246000fd5b6020026020010151858381518110610f6257634e487b7160e01b600052603260045260246000fd5b6020026020010151610776565b828281518110610f8f57634e487b7160e01b600052603260045260246000fd5b6020908102919091010152610fa3816137f0565b9050610f0e565b509392505050565b6000828152600d6020526040808220815160e0810190925280548392919082908290610fdd90613788565b80601f016020809104026020016040519081016040528092919081815260200182805461100990613788565b80156110565780601f1061102b57610100808354040283529160200191611056565b820191906000526020600020905b81548152906001019060200180831161103957829003601f168201915b5050505050815260200160018201548152602001600282018054806020026020016040519081016040528092919081815260200182805480156110e457602002820191906000526020600020906000905b82829054906101000a900463ffffffff1663ffffffff16815260200190600401906020826003010492830192600103820291508084116110a75790505b505050918352505060038201546001600160a01b03166020820152600482015460408201526005820154606082015260069091015463ffffffff1660809091015290506111318184611fc1565b506000848152600d602052604081206004018054600192906111549084906136ed565b9250508190555060016034600082825461116e91906136ed565b9091555061117d9050846123a9565b61118f33600a548661089691906136ed565b5060019392505050565b6000816111ae3385600a5461029191906136ed565b101561120e5760405162461bcd60e51b815260206004820152602960248201527f596f7520646f6e277420686176652074686174206d616e79206f662074686f736044820152686520746f206561742160b81b60648201526084016107de565b6000838152600d6020526040812060060154600a5463ffffffff909116919061123790866136ed565b9050611244338286612478565b6000858152600d602052604081206005018054600192906112669084906136ed565b9091555061127c90508463ffffffff8416613752565b336000908152600f60205260408120805490919061129b9084906136ed565b909155506112aa9050336125c1565b505092915050565b60006112be3383610776565b6001146112dd5760405162461bcd60e51b81526004016107de9061352c565b6112e682611b77565b506112ef610866565b506000828152600b602052604080822080546033548452918320805468ffffffff00000000001916600160281b9384900463ffffffff169093029290921790915590839052805460019190600490611353908490640100000000900460ff1661372d565b92506101000a81548160ff021916908360ff16021790555060019050919050565b336001600160a01b03831614156113df5760405162461bcd60e51b815260206004820152602960248201527f455243313135353a2073657474696e6720617070726f76616c20737461747573604482015268103337b91039b2b63360b91b60648201526084016107de565b3360008181526002602090815260408083206001600160a01b0387168085529252909120805460ff1916841515179055906001600160a01b03167f17307eab39ab6107e8899845ad3d59bd9653f200f220920489ca2b5937696c318360405161144c911515815260200190565b60405180910390a35050565b336000908152600c60205260409020544263ffffffff909116106114be5760405162461bcd60e51b815260206004820152601b60248201527f596f7520646964207468697320616c726561647920746f64617921000000000060448201526064016107de565b6114dd3360095460075460405180602001604052806000815250611d02565b600754603260008282546114f191906136ed565b90915550506006546115099063ffffffff16426136ed565b336000908152600c60205260409020805463ffffffff191663ffffffff92909216919091179055565b6000600a835111156115965760405162461bcd60e51b815260206004820152602760248201527f596f752063616e206f6e6c79206861766520757020746f20313020696e6772656044820152666469656e74732160c81b60648201526084016107de565b6040805160e0810182528681526020810186905290810184905233606082015260006080820181905260a0820181905260c08201526115d58184611fc1565b5060408101516000805b825181101561162f5782818151811061160857634e487b7160e01b600052603260045260246000fd5b60200260200101518261161b9190613705565b915080611627816137f0565b9150506115df565b5063ffffffff811660c0840152608083018051600191906116519083906136ed565b905250603480546001919060009061166a9084906136ed565b9250508190555060016035600082825461168491906136ed565b9091555050603554600a5460009161169b916136ed565b6035546000908152600d6020908152604090912086518051939450879391926116c992849290910190612ca1565b506020828101516001830155604083015180516116ec9260028501920190612d25565b5060608201516003820180546001600160a01b0319166001600160a01b039092169190911790556080820151600482015560a0820151600582015560c0909101516006909101805463ffffffff191663ffffffff928316179055603554336000908152600e6020526040902061176592909190611e2816565b506117716035546123a9565b61178d3382600160405180602001604052806000815250611d02565b98975050505050505050565b60006117a53383610776565b6001146117c45760405162461bcd60e51b81526004016107de9061352c565b60006117d1846032613752565b905060006117e085600a613752565b90506117ec3383611cc2565b60085460095460408051602081019091526000815261181a9233926001600160a01b03909116918590611942565b336000908152601060205260409020805460ff191660011790556006546118479063ffffffff1686613752565b61185190426136ed565b6000858152600b60205260409020805463ffffffff60ff60e81b01191663ffffffff9290921691909117600160e81b17905550600191505092915050565b6001600160a01b0381166000908152600e6020526040812061085e90611fb7565b601181600b81106118c057600080fd5b0154905081565b6000818152600b6020526040812054600160e81b900460ff1615156001146118ee57600080fd5b6006546119019063ffffffff16426136ed565b6000928352600b6020526040909220805463ffffffff60ff60e81b01191663ffffffff939093169290921790915590565b601c81600b81106118c057600080fd5b6001600160a01b0384166119685760405162461bcd60e51b81526004016107de906135af565b6001600160a01b038516331480611984575061198485336106dc565b6119e25760405162461bcd60e51b815260206004820152602960248201527f455243313135353a2063616c6c6572206973206e6f74206f776e6572206e6f7260448201526808185c1c1c9bdd995960ba1b60648201526084016107de565b33611a028187876119f2886126d1565b6119fb886126d1565b5050505050565b60008481526001602090815260408083206001600160a01b038a16845290915290205483811015611a455760405162461bcd60e51b81526004016107de90613637565b611a4f8482613771565b60008681526001602090815260408083206001600160a01b038c81168552925280832093909355881681529081208054869290611a8d9084906136ed565b90915550506001600160a01b0386166000908152602081905260409020611ab49086611e28565b5060008581526001602090815260408083206001600160a01b038b168452909152902054611b00576001600160a01b0387166000908152602081905260409020611afe9086611e34565b505b856001600160a01b0316876001600160a01b0316836001600160a01b03167fc3d58168c5ae7397731d063d5bbf3d657854427343f4c083240f7aacaa2d0f628888604051611b58929190918252602082015260400190565b60405180910390a4611b6e82888888888861272a565b50505050505050565b6000611b833383610776565b600114611ba25760405162461bcd60e51b81526004016107de9061352c565b6000828152600b60205260409020544263ffffffff9091161015611c2e5760405162461bcd60e51b815260206004820152603960248201527f596f757220737461727465722069732064656164212020596f752073686f756c60448201527f6420686176652066656420697420736f6f6e6572203a28202e0000000000000060648201526084016107de565b611c3a33600554611cc2565b600654611c4d9063ffffffff16426136ed565b6000838152600b60205260409020805463ffffffff191663ffffffff929092169190911790819055600160e81b900460ff1615611c8f576000829052600b6020525b611c98826127f4565b506001919050565b6001600160a01b0382166000908152600e60205260408120610dc99083611fab565b80611ccf33600954610776565b1015611cda57600080fd5b611ce78260095483612478565b8060326000828254611cf99190613771565b90915550505050565b6001600160a01b038416611d625760405162461bcd60e51b815260206004820152602160248201527f455243313135353a206d696e7420746f20746865207a65726f206164647265736044820152607360f81b60648201526084016107de565b33611d73816000876119f2886126d1565b60008481526001602090815260408083206001600160a01b038916845290915281208054859290611da59084906136ed565b90915550506001600160a01b0385166000908152602081905260409020611dcc9085611e28565b5060408051858152602081018590526001600160a01b0380881692600092918516917fc3d58168c5ae7397731d063d5bbf3d657854427343f4c083240f7aacaa2d0f62910160405180910390a46119fb8160008787878761272a565b6000610dc983836128d4565b6000610dc98383612923565b6001600160a01b0384163b15610d9f5760405163bc197c8160e01b81526001600160a01b0385169063bc197c8190611e8490899089908890889088906004016133b5565b602060405180830381600087803b158015611e9e57600080fd5b505af1925050508015611ece575060408051601f3d908101601f19168201909252611ecb91810190613187565b60015b611f7b57611eda613837565b806308c379a01415611f145750611eef61384e565b80611efa5750611f16565b8060405162461bcd60e51b81526004016107de919061348d565b505b60405162461bcd60e51b815260206004820152603460248201527f455243313135353a207472616e7366657220746f206e6f6e20455243313135356044820152732932b1b2b4bb32b91034b6b83632b6b2b73a32b960611b60648201526084016107de565b6001600160e01b0319811663bc197c8160e01b14611b6e5760405162461bcd60e51b81526004016107de906134a0565b6000610dc98383612a3a565b600061085e825490565b60008260200151611fd433600954610776565b10156120355760405162461bcd60e51b815260206004820152602a60248201527f596f7520646f6e2774206861766520656e6f75676820464c4f555220746f2062604482015269616b652074686174212160b01b60648201526084016107de565b60408301515160008167ffffffffffffffff81111561206457634e487b7160e01b600052604160045260246000fd5b60405190808252806020026020018201604052801561208d578160200160208202803683370190505b50905083518560400151511461210b5760405162461bcd60e51b815260206004820152603c60248201527f596f7520686176656e277420616464656420746865207269676874206e756d6260448201527f6572206f6620737461727465727320746f20746865206261746368210000000060648201526084016107de565b60005b856040015151811015612384576000600b600087848151811061214157634e487b7160e01b600052603260045260246000fd5b60209081029190910181015182528101919091526040016000205461217390600160281b900463ffffffff1642613771565b90508660400151828151811061219957634e487b7160e01b600052603260045260246000fd5b602002602001015163ffffffff168163ffffffff161161223b5760405162461bcd60e51b815260206004820152605160248201527f596f757220737461727465727320617265206e6f74206f6c6420656e6f75676860448201527f2c20706c65617365207573652074686520737461727465727320726571756972606482015270656420627920746869732072656369706560781b608482015260a4016107de565b42600b600088858151811061226057634e487b7160e01b600052603260045260246000fd5b60209081029190910181015182528101919091526040016000205463ffffffff1610156123015760405162461bcd60e51b815260206004820152604360248201527f596f757220737461727465727320617265206e6f7420616c6c20616c6976652c60448201527f20796f75206d757374207573652061206c6976696e6720696e6772656469656e60648201526274212160e81b608482015260a4016107de565b61232533878481518110610f6257634e487b7160e01b600052603260045260246000fd5b6001146123445760405162461bcd60e51b81526004016107de9061352c565b600183838151811061236657634e487b7160e01b600052603260045260246000fd5b6020908102919091010152508061237c816137f0565b91505061210e565b50612390338583612ace565b61239e338660200151611cc2565b506001949350505050565b6000818152600d602052604080822060049081015460255484529190922090910154600991905b80821180156123dd575060015b1561247257601c83600b811061240357634e487b7160e01b600052603260045260246000fd5b0154601c6124128560016136ed565b600b811061243057634e487b7160e01b600052603260045260246000fd5b015583601c84600b811061245457634e487b7160e01b600052603260045260246000fd5b01558261246057612472565b61246b600184613771565b92506123d0565b50505050565b6001600160a01b03831661249e5760405162461bcd60e51b81526004016107de906135f4565b336124ce818560006124af876126d1565b6124b8876126d1565b5050604080516020810190915260009052505050565b60008381526001602090815260408083206001600160a01b0388168452909152902054828110156125115760405162461bcd60e51b81526004016107de906134e8565b600061251d8483613771565b60008681526001602090815260408083206001600160a01b038b168452909152902081905590508061256d576001600160a01b038616600090815260208190526040902061256b9086611e34565b505b60408051868152602081018690526000916001600160a01b0389811692908716917fc3d58168c5ae7397731d063d5bbf3d657854427343f4c083240f7aacaa2d0f62910160405180910390a4505050505050565b6001600160a01b038181166000908152600f6020526040808220546030549093168252902054600991905b80821180156125f9575060015b1561247257602783600b811061261f57634e487b7160e01b600052603260045260246000fd5b01546001600160a01b031660276126378560016136ed565b600b811061265557634e487b7160e01b600052603260045260246000fd5b0180546001600160a01b0319166001600160a01b039290921691909117905583602784600b811061269657634e487b7160e01b600052603260045260246000fd5b0180546001600160a01b0319166001600160a01b0392909216919091179055826126bf57612472565b6126ca600184613771565b92506125ec565b6040805160018082528183019092526060916000919060208083019080368337019050509050828160008151811061271957634e487b7160e01b600052603260045260246000fd5b602090810291909101015292915050565b6001600160a01b0384163b15610d9f5760405163f23a6e6160e01b81526001600160a01b0385169063f23a6e619061276e9089908990889088908890600401613407565b602060405180830381600087803b15801561278857600080fd5b505af19250505080156127b8575060408051601f3d908101601f191682019092526127b591810190613187565b60015b6127c457611eda613837565b6001600160e01b0319811663f23a6e6160e01b14611b6e5760405162461bcd60e51b81526004016107de906134a0565b6000818152600b602052604080822054601a54835291205460099163ffffffff600160281b9182900481169291909104165b8063ffffffff168263ffffffff1610801561283f575060015b1561247257601183600b811061286557634e487b7160e01b600052603260045260246000fd5b015460116128748560016136ed565b600b811061289257634e487b7160e01b600052603260045260246000fd5b015583601184600b81106128b657634e487b7160e01b600052603260045260246000fd5b0155826128c257612472565b6128cd600184613771565b9250612826565b600081815260018301602052604081205461291b5750815460018181018455600084815260208082209093018490558454848252828601909352604090209190915561080c565b50600061080c565b60008181526001830160205260408120548015612a30576000612947600183613771565b855490915060009061295b90600190613771565b9050600086600001828154811061298257634e487b7160e01b600052603260045260246000fd5b90600052602060002001549050808760000184815481106129b357634e487b7160e01b600052603260045260246000fd5b6000918252602080832090910192909255828152600189019091526040902084905586548790806129f457634e487b7160e01b600052603160045260246000fd5b6001900381819060005260206000200160009055905586600101600087815260200190815260200160002060009055600194505050505061080c565b600091505061080c565b81546000908210612a985760405162461bcd60e51b815260206004820152602260248201527f456e756d657261626c655365743a20696e646578206f7574206f6620626f756e604482015261647360f01b60648201526084016107de565b826000018281548110612abb57634e487b7160e01b600052603260045260246000fd5b9060005260206000200154905092915050565b6001600160a01b038316612af45760405162461bcd60e51b81526004016107de906135f4565b8051825114612b155760405162461bcd60e51b81526004016107de90613681565b604080516020810190915260009081905233905b8351811015612c42576000848281518110612b5457634e487b7160e01b600052603260045260246000fd5b602002602001015190506000848381518110612b8057634e487b7160e01b600052603260045260246000fd5b60209081029190910181015160008481526001835260408082206001600160a01b038c1683529093529182205490925090612bbb8383613771565b905082821015612bdd5760405162461bcd60e51b81526004016107de906134e8565b60008481526001602090815260408083206001600160a01b038d168452909152902081905580612c2b576001600160a01b0389166000908152602081905260409020612c299085611e34565b505b505050508080612c3a906137f0565b915050612b29565b5060006001600160a01b0316846001600160a01b0316826001600160a01b03167f4a39dc06d4c0dbc64b70af90fd698a233a518aa5d07e595d983b8c0526c8f7fb8686604051612c9392919061345f565b60405180910390a450505050565b828054612cad90613788565b90600052602060002090601f016020900481019282612ccf5760008555612d15565b82601f10612ce857805160ff1916838001178555612d15565b82800160010185558215612d15579182015b82811115612d15578251825591602001919060010190612cfa565b50612d21929150612dcb565b5090565b82805482825590600052602060002090600701600890048101928215612d155791602002820160005b83821115612d9257835183826101000a81548163ffffffff021916908363ffffffff1602179055509260200192600401602081600301049283019260010302612d4e565b8015612dc25782816101000a81549063ffffffff0219169055600401602081600301049283019260010302612d92565b5050612d219291505b5b80821115612d215760008155600101612dcc565b600067ffffffffffffffff831115612dfa57612dfa613821565b604051612e11601f8501601f1916602001826137c3565b809150838152848484011115612e2657600080fd5b83836020830137600060208583010152509392505050565b80356001600160a01b038116811461086157600080fd5b600082601f830112612e65578081fd5b81356020612e72826136c9565b604051612e7f82826137c3565b8381528281019150858301600585901b87018401881015612e9e578586fd5b855b85811015612ebc57813584529284019290840190600101612ea0565b5090979650505050505050565b600082601f830112612ed9578081fd5b610dc983833560208501612de0565b600060208284031215612ef9578081fd5b610dc982612e3e565b60008060408385031215612f14578081fd5b612f1d83612e3e565b9150612f2b60208401612e3e565b90509250929050565b600080600080600060a08688031215612f4b578081fd5b612f5486612e3e565b9450612f6260208701612e3e565b9350604086013567ffffffffffffffff80821115612f7e578283fd5b612f8a89838a01612e55565b94506060880135915080821115612f9f578283fd5b612fab89838a01612e55565b93506080880135915080821115612fc0578283fd5b50612fcd88828901612ec9565b9150509295509295909350565b600080600080600060a08688031215612ff1578081fd5b612ffa86612e3e565b945061300860208701612e3e565b93506040860135925060608601359150608086013567ffffffffffffffff811115613031578182fd5b612fcd88828901612ec9565b6000806040838503121561304f578182fd5b61305883612e3e565b91506020830135801515811461306c578182fd5b809150509250929050565b60008060408385031215613089578081fd5b61309283612e3e565b946020939093013593505050565b600080604083850312156130b2578182fd5b823567ffffffffffffffff808211156130c9578384fd5b818501915085601f8301126130dc578384fd5b813560206130e9826136c9565b6040516130f682826137c3565b8381528281019150858301600585901b870184018b1015613115578889fd5b8896505b8487101561313e5761312a81612e3e565b835260019690960195918301918301613119565b5096505086013592505080821115613154578283fd5b5061316185828601612e55565b9150509250929050565b60006020828403121561317c578081fd5b8135610dc9816138e0565b600060208284031215613198578081fd5b8151610dc9816138e0565b600080600080608085870312156131b8578182fd5b843567ffffffffffffffff808211156131cf578384fd5b818701915087601f8301126131e2578384fd5b60206131f2898435838601612de0565b9650808801359550604088013592508183111561320d578485fd5b828801925088601f840112613220578485fd5b823561322b816136c9565b60405161323882826137c3565b8281528381019150858401600584901b870185018d1015613257578889fd5b8896505b8387101561328a57803563ffffffff8116811461327657898afd5b83526001969096019591840191840161325b565b50965050505060608701359150808211156132a3578283fd5b506132b087828801612e55565b91505092959194509250565b6000602082840312156132cd578081fd5b5035919050565b600080604083850312156132e6578182fd5b82359150602083013567ffffffffffffffff811115613303578182fd5b61316185828601612e55565b60008060408385031215613321578182fd5b50508035926020909101359150565b6000815180845260208085019450808401835b8381101561335f57815187529582019590820190600101613343565b509495945050505050565b60008151808452815b8181101561338f57602081850181015186830182015201613373565b818111156133a05782602083870101525b50601f01601f19169290920160200192915050565b6001600160a01b0386811682528516602082015260a0604082018190526000906133e190830186613330565b82810360608401526133f38186613330565b9050828103608084015261178d818561336a565b6001600160a01b03868116825285166020820152604081018490526060810183905260a0608082018190526000906134419083018461336a565b979650505050505050565b600060208252610dc96020830184613330565b6000604082526134726040830185613330565b82810360208401526134848185613330565b95945050505050565b600060208252610dc9602083018461336a565b60208082526028908201527f455243313135353a204552433131353552656365697665722072656a656374656040820152676420746f6b656e7360c01b606082015260800190565b60208082526024908201527f455243313135353a206275726e20616d6f756e7420657863656564732062616c604082015263616e636560e01b606082015260800190565b60208082526057908201527f54686973204964206e756d626572206973206e6f74206173736f63696174656460408201527f2077697468206f6e65206f6620796f75722073746172746572732c20706c656160608201527f736520747279207769746820612076616c69642069642e000000000000000000608082015260a00190565b60208082526025908201527f455243313135353a207472616e7366657220746f20746865207a65726f206164604082015264647265737360d81b606082015260800190565b60208082526023908201527f455243313135353a206275726e2066726f6d20746865207a65726f206164647260408201526265737360e81b606082015260800190565b6020808252602a908201527f455243313135353a20696e73756666696369656e742062616c616e636520666f60408201526939103a3930b739b332b960b11b606082015260800190565b60208082526028908201527f455243313135353a2069647320616e6420616d6f756e7473206c656e677468206040820152670dad2e6dac2e8c6d60c31b606082015260800190565b600067ffffffffffffffff8211156136e3576136e3613821565b5060051b60200190565b600082198211156137005761370061380b565b500190565b600063ffffffff8083168185168083038211156137245761372461380b565b01949350505050565b600060ff821660ff84168060ff0382111561374a5761374a61380b565b019392505050565b600081600019048311821515161561376c5761376c61380b565b500290565b6000828210156137835761378361380b565b500390565b600181811c9082168061379c57607f821691505b602082108114156137bd57634e487b7160e01b600052602260045260246000fd5b50919050565b601f8201601f1916810167ffffffffffffffff811182821017156137e9576137e9613821565b6040525050565b60006000198214156138045761380461380b565b5060010190565b634e487b7160e01b600052601160045260246000fd5b634e487b7160e01b600052604160045260246000fd5b600060033d11156109de57600481823e5160e01c90565b600060443d101561385e576109de565b6040516003193d81016004833e81513d67ffffffffffffffff81602484011181841117156138905750505050506109de565b82850191508151818111156138aa575050505050506109de565b843d87010160208285010111156138c6575050505050506109de565b6138d5602082860101876137c3565b509094505050505090565b6001600160e01b0319811681146138f657600080fd5b5056fea2646970667358221220c2e8ae26834b8a547ce88872422786c12587569b8c1c871d3a8dfc5b81fd5e4664736f6c63430008030033","bytecodeSha1":"053a94f9548ea5a289e34e0d862e6b112e74279d","compiler":{"evm_version":"istanbul","optimizer":{"enabled":true,"runs":200},"version":"0.8.3+commit.8d00100c"},"contractName":"Cafe","language":"Solidity","natspec":{"kind":"dev","methods":{"bakeExistingRecipe(uint256,uint256[])":{"details":"Takes the id of an existing recipe and a batch of ingredients.  Burns the batch and the required flour, mints an item with the recipe Id "},"balanceOf(address,uint256)":{"details":"See {IERC1155-balanceOf}. Requirements: - `account` cannot be the zero address."},"balanceOfBatch(address[],uint256[])":{"details":"See {IERC1155-balanceOfBatch}. Requirements: - `accounts` and `ids` must have the same length."},"createStarter()":{"details":"Makes a new nonfungible starter with age attributes by burning 50 FLOUR "},"eatBakedGood(uint256,uint256)":{"details":"Burns an item, credits the player with a score equivalent to the total age of all ingredients "},"feedStarter(uint256)":{"details":"Burns 50 FLOUR and resets the time of death for your token"},"grindFlour()":{"details":"Credits the user FLOUR every 24 hours if submitted"},"isApprovedForAll(address,address)":{"details":"See {IERC1155-isApprovedForAll}."},"publishNewRecipe(string,uint256,uint32[],uint256[])":{"details":"Bakes and publishes a recipe that does not yet exist "},"safeBatchTransferFrom(address,address,uint256[],uint256[],bytes)":{"details":"See {IERC1155-safeBatchTransferFrom}."},"safeTransferFrom(address,address,uint256,uint256,bytes)":{"details":"See {IERC1155-safeTransferFrom}."},"setApprovalForAll(address,bool)":{"details":"See {IERC1155-setApprovalForAll}."},"splitStarter(uint256)":{"details":"Feeds and duplicates your starter, returning another with identical age - costs 100 FLOUR "},"supportsInterface(bytes4)":{"details":"See {IERC165-supportsInterface}."},"uri(uint256)":{"details":"See {IERC1155MetadataURI-uri}. This implementation returns the same URI for *all* token types. It relies on the token type ID substitution mechanism https://eips.ethereum.org/EIPS/eip-1155#metadata[defined in the EIP]. Clients calling this function must replace the `\\{id\\}` substring with the actual token type ID."}},"stateVariables":{"createCost":{"details":"These are the constructor parameters.  Create/feed Costs are the flour required to create and feed starters.   Timescale represents the timescale at which starters die, feed reset time, and  grindFlour cooldown grindReward is the reward for grinding flour"},"devAddress":{"details":"flourId denotes the id of the fungible FLOUR token dividerIndex separates semi-fungible starter ingredients and semi-fungible baked goods grindCooldown determine whether or not an address can grind flour"},"starterHighScore":{"details":"highscores here "},"startersCreated":{"details":"total stats"}},"version":1},"opcodes":"PUSH1 0x80 PUSH1 0x40 MSTORE CALLVALUE DUP1 ISZERO PUSH2 0x10 JUMPI PUSH1 0x0 DUP1 REVERT JUMPDEST POP PUSH1 0x4 CALLDATASIZE LT PUSH2 0x27E JUMPI PUSH1 0x0 CALLDATALOAD PUSH1 0xE0 SHR DUP1 PUSH4 0x7F8315CD GT PUSH2 0x15C JUMPI DUP1 PUSH4 0xC8CF79D9 GT PUSH2 0xCE JUMPI DUP1 PUSH4 0xE985E9C5 GT PUSH2 0x87 JUMPI DUP1 PUSH4 0xE985E9C5 EQ PUSH2 0x6CE JUMPI DUP1 PUSH4 0xF242432A EQ PUSH2 0x70A JUMPI DUP1 PUSH4 0xF6D989F2 EQ PUSH2 0x71D JUMPI DUP1 PUSH4 0xF71ED3B8 EQ PUSH2 0x726 JUMPI DUP1 PUSH4 0xFC4F816C EQ PUSH2 0x750 JUMPI DUP1 PUSH4 0xFCF73CBE EQ PUSH2 0x763 JUMPI PUSH2 0x27E JUMP JUMPDEST DUP1 PUSH4 0xC8CF79D9 EQ PUSH2 0x607 JUMPI DUP1 PUSH4 0xCB208010 EQ PUSH2 0x61A JUMPI DUP1 PUSH4 0xD0EAF368 EQ PUSH2 0x63D JUMPI DUP1 PUSH4 0xD682D87A EQ PUSH2 0x666 JUMPI DUP1 PUSH4 0xE085C539 EQ PUSH2 0x692 JUMPI DUP1 PUSH4 0xE11FD028 EQ PUSH2 0x6BB JUMPI PUSH2 0x27E JUMP JUMPDEST DUP1 PUSH4 0xA3486758 GT PUSH2 0x120 JUMPI DUP1 PUSH4 0xA3486758 EQ PUSH2 0x5AA JUMPI DUP1 PUSH4 0xA41E1C17 EQ PUSH2 0x5B2 JUMPI DUP1 PUSH4 0xB172DECC EQ PUSH2 0x5C5 JUMPI DUP1 PUSH4 0xBF3C95B9 EQ PUSH2 0x5D8 JUMPI DUP1 PUSH4 0xC3B1066F EQ PUSH2 0x5EB JUMPI DUP1 PUSH4 0xC889D089 EQ PUSH2 0x5FE JUMPI PUSH2 0x27E JUMP JUMPDEST DUP1 PUSH4 0x7F8315CD EQ PUSH2 0x4F1 JUMPI DUP1 PUSH4 0x976C39BE EQ PUSH2 0x517 JUMPI DUP1 PUSH4 0x97EC23CB EQ PUSH2 0x53A JUMPI DUP1 PUSH4 0xA22CB465 EQ PUSH2 0x567 JUMPI DUP1 PUSH4 0xA30B4DB9 EQ PUSH2 0x57A JUMPI PUSH2 0x27E JUMP JUMPDEST DUP1 PUSH4 0x36FF4C95 GT PUSH2 0x1F5 JUMPI DUP1 PUSH4 0x5C2C894A GT PUSH2 0x1B9 JUMPI DUP1 PUSH4 0x5C2C894A EQ PUSH2 0x433 JUMPI DUP1 PUSH4 0x6510989C EQ PUSH2 0x43C JUMPI DUP1 PUSH4 0x70B5E7B0 EQ PUSH2 0x44F JUMPI DUP1 PUSH4 0x781F1B75 EQ PUSH2 0x472 JUMPI DUP1 PUSH4 0x7985781F EQ PUSH2 0x485 JUMPI DUP1 PUSH4 0x7A77AF5C EQ PUSH2 0x4B4 JUMPI PUSH2 0x27E JUMP JUMPDEST DUP1 PUSH4 0x36FF4C95 EQ PUSH2 0x3AE JUMPI DUP1 PUSH4 0x3AD10EF6 EQ PUSH2 0x3DA JUMPI DUP1 PUSH4 0x42DA6F9C EQ PUSH2 0x3ED JUMPI DUP1 PUSH4 0x4E1273F4 EQ PUSH2 0x400 JUMPI DUP1 PUSH4 0x4F41393B EQ PUSH2 0x420 JUMPI PUSH2 0x27E JUMP JUMPDEST DUP1 PUSH4 0x214FA99B GT PUSH2 0x247 JUMPI DUP1 PUSH4 0x214FA99B EQ PUSH2 0x307 JUMPI DUP1 PUSH4 0x2A316CDF EQ PUSH2 0x332 JUMPI DUP1 PUSH4 0x2B944DDF EQ PUSH2 0x355 JUMPI DUP1 PUSH4 0x2EB2C2D6 EQ PUSH2 0x35E JUMPI DUP1 PUSH4 0x2F745C59 EQ PUSH2 0x373 JUMPI DUP1 PUSH4 0x34B7FA22 EQ PUSH2 0x386 JUMPI PUSH2 0x27E JUMP JUMPDEST DUP1 PUSH3 0xFDD58E EQ PUSH2 0x283 JUMPI DUP1 PUSH4 0x1FFC9A7 EQ PUSH2 0x2A9 JUMPI DUP1 PUSH4 0x7047482 EQ PUSH2 0x2CC JUMPI DUP1 PUSH4 0xE89341C EQ PUSH2 0x2D4 JUMPI DUP1 PUSH4 0x1269CA40 EQ PUSH2 0x2F4 JUMPI JUMPDEST PUSH1 0x0 DUP1 REVERT JUMPDEST PUSH2 0x296 PUSH2 0x291 CALLDATASIZE PUSH1 0x4 PUSH2 0x3077 JUMP JUMPDEST PUSH2 0x776 JUMP JUMPDEST PUSH1 0x40 MLOAD SWAP1 DUP2 MSTORE PUSH1 0x20 ADD JUMPDEST PUSH1 0x40 MLOAD DUP1 SWAP2 SUB SWAP1 RETURN JUMPDEST PUSH2 0x2BC PUSH2 0x2B7 CALLDATASIZE PUSH1 0x4 PUSH2 0x316B JUMP JUMPDEST PUSH2 0x812 JUMP JUMPDEST PUSH1 0x40 MLOAD SWAP1 ISZERO ISZERO DUP2 MSTORE PUSH1 0x20 ADD PUSH2 0x2A0 JUMP JUMPDEST PUSH2 0x2BC PUSH2 0x866 JUMP JUMPDEST PUSH2 0x2E7 PUSH2 0x2E2 CALLDATASIZE PUSH1 0x4 PUSH2 0x32BC JUMP JUMPDEST PUSH2 0x9E1 JUMP JUMPDEST PUSH1 0x40 MLOAD PUSH2 0x2A0 SWAP2 SWAP1 PUSH2 0x348D JUMP JUMPDEST PUSH2 0x2E7 PUSH2 0x302 CALLDATASIZE PUSH1 0x4 PUSH2 0x32BC JUMP JUMPDEST PUSH2 0xA75 JUMP JUMPDEST PUSH2 0x31A PUSH2 0x315 CALLDATASIZE PUSH1 0x4 PUSH2 0x32BC JUMP JUMPDEST PUSH2 0xA92 JUMP JUMPDEST PUSH1 0x40 MLOAD PUSH1 0x1 PUSH1 0x1 PUSH1 0xA0 SHL SUB SWAP1 SWAP2 AND DUP2 MSTORE PUSH1 0x20 ADD PUSH2 0x2A0 JUMP JUMPDEST PUSH2 0x296 PUSH2 0x340 CALLDATASIZE PUSH1 0x4 PUSH2 0x32BC JUMP JUMPDEST PUSH1 0x0 SWAP1 DUP2 MSTORE PUSH1 0xD PUSH1 0x20 MSTORE PUSH1 0x40 SWAP1 KECCAK256 PUSH1 0x1 ADD SLOAD SWAP1 JUMP JUMPDEST PUSH2 0x296 PUSH1 0x33 SLOAD DUP2 JUMP JUMPDEST PUSH2 0x371 PUSH2 0x36C CALLDATASIZE PUSH1 0x4 PUSH2 0x2F34 JUMP JUMPDEST PUSH2 0xAB2 JUMP JUMPDEST STOP JUMPDEST PUSH2 0x296 PUSH2 0x381 CALLDATASIZE PUSH1 0x4 PUSH2 0x3077 JUMP JUMPDEST PUSH2 0xDA7 JUMP JUMPDEST PUSH2 0x399 PUSH2 0x394 CALLDATASIZE PUSH1 0x4 PUSH2 0x330F JUMP JUMPDEST PUSH2 0xDD0 JUMP JUMPDEST PUSH1 0x40 MLOAD PUSH4 0xFFFFFFFF SWAP1 SWAP2 AND DUP2 MSTORE PUSH1 0x20 ADD PUSH2 0x2A0 JUMP JUMPDEST PUSH2 0x2BC PUSH2 0x3BC CALLDATASIZE PUSH1 0x4 PUSH2 0x2EE8 JUMP JUMPDEST PUSH1 0x1 PUSH1 0x1 PUSH1 0xA0 SHL SUB AND PUSH1 0x0 SWAP1 DUP2 MSTORE PUSH1 0x10 PUSH1 0x20 MSTORE PUSH1 0x40 SWAP1 KECCAK256 SLOAD PUSH1 0xFF AND SWAP1 JUMP JUMPDEST PUSH1 0x8 SLOAD PUSH2 0x31A SWAP1 PUSH1 0x1 PUSH1 0x1 PUSH1 0xA0 SHL SUB AND DUP2 JUMP JUMPDEST PUSH2 0x296 PUSH2 0x3FB CALLDATASIZE PUSH1 0x4 PUSH2 0x2EE8 JUMP JUMPDEST PUSH2 0xE2F JUMP JUMPDEST PUSH2 0x413 PUSH2 0x40E CALLDATASIZE PUSH1 0x4 PUSH2 0x30A0 JUMP JUMPDEST PUSH2 0xE50 JUMP JUMPDEST PUSH1 0x40 MLOAD PUSH2 0x2A0 SWAP2 SWAP1 PUSH2 0x344C JUMP JUMPDEST PUSH2 0x2BC PUSH2 0x42E CALLDATASIZE PUSH1 0x4 PUSH2 0x32D4 JUMP JUMPDEST PUSH2 0xFB2 JUMP JUMPDEST PUSH2 0x296 PUSH1 0x34 SLOAD DUP2 JUMP JUMPDEST PUSH2 0x2BC PUSH2 0x44A CALLDATASIZE PUSH1 0x4 PUSH2 0x330F JUMP JUMPDEST PUSH2 0x1199 JUMP JUMPDEST PUSH2 0x296 PUSH2 0x45D CALLDATASIZE PUSH1 0x4 PUSH2 0x32BC JUMP JUMPDEST PUSH1 0x0 SWAP1 DUP2 MSTORE PUSH1 0xD PUSH1 0x20 MSTORE PUSH1 0x40 SWAP1 KECCAK256 PUSH1 0x5 ADD SLOAD SWAP1 JUMP JUMPDEST PUSH2 0x2BC PUSH2 0x480 CALLDATASIZE PUSH1 0x4 PUSH2 0x32BC JUMP JUMPDEST PUSH2 0x12B2 JUMP JUMPDEST PUSH2 0x399 PUSH2 0x493 CALLDATASIZE PUSH1 0x4 PUSH2 0x2EE8 JUMP JUMPDEST PUSH1 0x1 PUSH1 0x1 PUSH1 0xA0 SHL SUB AND PUSH1 0x0 SWAP1 DUP2 MSTORE PUSH1 0xC PUSH1 0x20 MSTORE PUSH1 0x40 SWAP1 KECCAK256 SLOAD PUSH4 0xFFFFFFFF AND SWAP1 JUMP JUMPDEST PUSH2 0x4DF PUSH2 0x4C2 CALLDATASIZE PUSH1 0x4 PUSH2 0x32BC JUMP JUMPDEST PUSH1 0x0 SWAP1 DUP2 MSTORE PUSH1 0xB PUSH1 0x20 MSTORE PUSH1 0x40 SWAP1 KECCAK256 SLOAD PUSH5 0x100000000 SWAP1 DIV PUSH1 0xFF AND SWAP1 JUMP JUMPDEST PUSH1 0x40 MLOAD PUSH1 0xFF SWAP1 SWAP2 AND DUP2 MSTORE PUSH1 0x20 ADD PUSH2 0x2A0 JUMP JUMPDEST PUSH2 0x399 PUSH2 0x4FF CALLDATASIZE PUSH1 0x4 PUSH2 0x32BC JUMP JUMPDEST PUSH1 0x0 SWAP1 DUP2 MSTORE PUSH1 0xB PUSH1 0x20 MSTORE PUSH1 0x40 SWAP1 KECCAK256 SLOAD PUSH4 0xFFFFFFFF AND SWAP1 JUMP JUMPDEST PUSH2 0x296 PUSH2 0x525 CALLDATASIZE PUSH1 0x4 PUSH2 0x32BC JUMP JUMPDEST PUSH1 0x0 SWAP1 DUP2 MSTORE PUSH1 0xD PUSH1 0x20 MSTORE PUSH1 0x40 SWAP1 KECCAK256 PUSH1 0x4 ADD SLOAD SWAP1 JUMP JUMPDEST PUSH2 0x399 PUSH2 0x548 CALLDATASIZE PUSH1 0x4 PUSH2 0x32BC JUMP JUMPDEST PUSH1 0x0 SWAP1 DUP2 MSTORE PUSH1 0xB PUSH1 0x20 MSTORE PUSH1 0x40 SWAP1 KECCAK256 SLOAD PUSH1 0x1 PUSH1 0x28 SHL SWAP1 DIV PUSH4 0xFFFFFFFF AND SWAP1 JUMP JUMPDEST PUSH2 0x371 PUSH2 0x575 CALLDATASIZE PUSH1 0x4 PUSH2 0x303D JUMP JUMPDEST PUSH2 0x1374 JUMP JUMPDEST PUSH2 0x31A PUSH2 0x588 CALLDATASIZE PUSH1 0x4 PUSH2 0x32BC JUMP JUMPDEST PUSH1 0x0 SWAP1 DUP2 MSTORE PUSH1 0xB PUSH1 0x20 MSTORE PUSH1 0x40 SWAP1 KECCAK256 SLOAD PUSH1 0x1 PUSH1 0x48 SHL SWAP1 DIV PUSH1 0x1 PUSH1 0x1 PUSH1 0xA0 SHL SUB AND SWAP1 JUMP JUMPDEST PUSH2 0x371 PUSH2 0x1458 JUMP JUMPDEST PUSH2 0x296 PUSH2 0x5C0 CALLDATASIZE PUSH1 0x4 PUSH2 0x31A3 JUMP JUMPDEST PUSH2 0x1532 JUMP JUMPDEST PUSH2 0x2BC PUSH2 0x5D3 CALLDATASIZE PUSH1 0x4 PUSH2 0x330F JUMP JUMPDEST PUSH2 0x1799 JUMP JUMPDEST PUSH2 0x296 PUSH2 0x5E6 CALLDATASIZE PUSH1 0x4 PUSH2 0x2EE8 JUMP JUMPDEST PUSH2 0x188F JUMP JUMPDEST PUSH2 0x296 PUSH2 0x5F9 CALLDATASIZE PUSH1 0x4 PUSH2 0x32BC JUMP JUMPDEST PUSH2 0x18B0 JUMP JUMPDEST PUSH2 0x296 PUSH1 0x32 SLOAD DUP2 JUMP JUMPDEST PUSH2 0x2BC PUSH2 0x615 CALLDATASIZE PUSH1 0x4 PUSH2 0x32BC JUMP JUMPDEST PUSH2 0x18C7 JUMP JUMPDEST PUSH2 0x296 PUSH2 0x628 CALLDATASIZE PUSH1 0x4 PUSH2 0x32BC JUMP JUMPDEST PUSH1 0x0 SWAP1 DUP2 MSTORE PUSH1 0xD PUSH1 0x20 MSTORE PUSH1 0x40 SWAP1 KECCAK256 PUSH1 0x2 ADD SLOAD SWAP1 JUMP JUMPDEST PUSH2 0x399 PUSH2 0x64B CALLDATASIZE PUSH1 0x4 PUSH2 0x32BC JUMP JUMPDEST PUSH1 0x0 SWAP1 DUP2 MSTORE PUSH1 0xD PUSH1 0x20 MSTORE PUSH1 0x40 SWAP1 KECCAK256 PUSH1 0x6 ADD SLOAD PUSH4 0xFFFFFFFF AND SWAP1 JUMP JUMPDEST PUSH2 0x31A PUSH2 0x674 CALLDATASIZE PUSH1 0x4 PUSH2 0x32BC JUMP JUMPDEST PUSH1 0x0 SWAP1 DUP2 MSTORE PUSH1 0xD PUSH1 0x20 MSTORE PUSH1 0x40 SWAP1 KECCAK256 PUSH1 0x3 ADD SLOAD PUSH1 0x1 PUSH1 0x1 PUSH1 0xA0 SHL SUB AND SWAP1 JUMP JUMPDEST PUSH2 0x296 PUSH2 0x6A0 CALLDATASIZE PUSH1 0x4 PUSH2 0x2EE8 JUMP JUMPDEST PUSH1 0x1 PUSH1 0x1 PUSH1 0xA0 SHL SUB AND PUSH1 0x0 SWAP1 DUP2 MSTORE PUSH1 0xF PUSH1 0x20 MSTORE PUSH1 0x40 SWAP1 KECCAK256 SLOAD SWAP1 JUMP JUMPDEST PUSH2 0x296 PUSH2 0x6C9 CALLDATASIZE PUSH1 0x4 PUSH2 0x32BC JUMP JUMPDEST PUSH2 0x1932 JUMP JUMPDEST PUSH2 0x2BC PUSH2 0x6DC CALLDATASIZE PUSH1 0x4 PUSH2 0x2F02 JUMP JUMPDEST PUSH1 0x1 PUSH1 0x1 PUSH1 0xA0 SHL SUB SWAP2 DUP3 AND PUSH1 0x0 SWAP1 DUP2 MSTORE PUSH1 0x2 PUSH1 0x20 SWAP1 DUP2 MSTORE PUSH1 0x40 DUP1 DUP4 KECCAK256 SWAP4 SWAP1 SWAP5 AND DUP3 MSTORE SWAP2 SWAP1 SWAP2 MSTORE KECCAK256 SLOAD PUSH1 0xFF AND SWAP1 JUMP JUMPDEST PUSH2 0x371 PUSH2 0x718 CALLDATASIZE PUSH1 0x4 PUSH2 0x2FDA JUMP JUMPDEST PUSH2 0x1942 JUMP JUMPDEST PUSH2 0x296 PUSH1 0x35 SLOAD DUP2 JUMP JUMPDEST PUSH2 0x2BC PUSH2 0x734 CALLDATASIZE PUSH1 0x4 PUSH2 0x32BC JUMP JUMPDEST PUSH1 0x0 SWAP1 DUP2 MSTORE PUSH1 0xB PUSH1 0x20 MSTORE PUSH1 0x40 SWAP1 KECCAK256 SLOAD PUSH1 0x1 PUSH1 0xE8 SHL SWAP1 DIV PUSH1 0xFF AND SWAP1 JUMP JUMPDEST PUSH2 0x2BC PUSH2 0x75E CALLDATASIZE PUSH1 0x4 PUSH2 0x32BC JUMP JUMPDEST PUSH2 0x1B77 JUMP JUMPDEST PUSH2 0x296 PUSH2 0x771 CALLDATASIZE PUSH1 0x4 PUSH2 0x3077 JUMP JUMPDEST PUSH2 0x1CA0 JUMP JUMPDEST PUSH1 0x0 PUSH1 0x1 PUSH1 0x1 PUSH1 0xA0 SHL SUB DUP4 AND PUSH2 0x7E7 JUMPI PUSH1 0x40 MLOAD PUSH3 0x461BCD PUSH1 0xE5 SHL DUP2 MSTORE PUSH1 0x20 PUSH1 0x4 DUP3 ADD MSTORE PUSH1 0x2B PUSH1 0x24 DUP3 ADD MSTORE PUSH32 0x455243313135353A2062616C616E636520717565727920666F7220746865207A PUSH1 0x44 DUP3 ADD MSTORE PUSH11 0x65726F2061646472657373 PUSH1 0xA8 SHL PUSH1 0x64 DUP3 ADD MSTORE PUSH1 0x84 ADD JUMPDEST PUSH1 0x40 MLOAD DUP1 SWAP2 SUB SWAP1 REVERT JUMPDEST POP PUSH1 0x0 DUP2 DUP2 MSTORE PUSH1 0x1 PUSH1 0x20 SWAP1 DUP2 MSTORE PUSH1 0x40 DUP1 DUP4 KECCAK256 PUSH1 0x1 PUSH1 0x1 PUSH1 0xA0 SHL SUB DUP7 AND DUP5 MSTORE SWAP1 SWAP2 MSTORE SWAP1 KECCAK256 SLOAD JUMPDEST SWAP3 SWAP2 POP POP JUMP JUMPDEST PUSH1 0x0 PUSH1 0x1 PUSH1 0x1 PUSH1 0xE0 SHL SUB NOT DUP3 AND PUSH4 0x6CDB3D13 PUSH1 0xE1 SHL EQ DUP1 PUSH2 0x843 JUMPI POP PUSH1 0x1 PUSH1 0x1 PUSH1 0xE0 SHL SUB NOT DUP3 AND PUSH4 0x3A24D07 PUSH1 0xE2 SHL EQ JUMPDEST DUP1 PUSH2 0x85E JUMPI POP PUSH4 0x1FFC9A7 PUSH1 0xE0 SHL PUSH1 0x1 PUSH1 0x1 PUSH1 0xE0 SHL SUB NOT DUP4 AND EQ JUMPDEST SWAP1 POP JUMPDEST SWAP2 SWAP1 POP JUMP JUMPDEST PUSH1 0x0 PUSH2 0x874 CALLER PUSH1 0x4 SLOAD PUSH2 0x1CC2 JUMP JUMPDEST PUSH1 0x0 PUSH1 0x33 SLOAD PUSH1 0x1 PUSH2 0x885 SWAP2 SWAP1 PUSH2 0x36ED JUMP JUMPDEST SWAP1 POP PUSH2 0x8AD CALLER PUSH2 0x896 DUP4 PUSH1 0x0 PUSH2 0x36ED JUMP JUMPDEST PUSH1 0x1 PUSH1 0x40 MLOAD DUP1 PUSH1 0x20 ADD PUSH1 0x40 MSTORE DUP1 PUSH1 0x0 DUP2 MSTORE POP PUSH2 0x1D02 JUMP JUMPDEST PUSH1 0x40 DUP1 MLOAD PUSH1 0xA0 DUP2 ADD SWAP1 SWAP2 MSTORE PUSH1 0x6 SLOAD PUSH1 0x0 SWAP2 SWAP1 DUP2 SWAP1 PUSH2 0x8D1 SWAP1 PUSH4 0xFFFFFFFF AND TIMESTAMP PUSH2 0x36ED JUMP JUMPDEST PUSH4 0xFFFFFFFF AND DUP2 MSTORE PUSH1 0x20 ADD PUSH1 0x0 PUSH1 0xFF AND DUP2 MSTORE PUSH1 0x20 ADD TIMESTAMP PUSH4 0xFFFFFFFF AND DUP2 MSTORE PUSH1 0x20 ADD CALLER PUSH1 0x1 PUSH1 0x1 PUSH1 0xA0 SHL SUB AND DUP2 MSTORE PUSH1 0x20 ADD PUSH1 0x0 ISZERO ISZERO DUP2 MSTORE POP SWAP1 POP PUSH1 0x1 PUSH1 0x33 PUSH1 0x0 DUP3 DUP3 SLOAD PUSH2 0x91D SWAP2 SWAP1 PUSH2 0x36ED JUMP JUMPDEST SWAP1 SWAP2 SSTORE POP POP PUSH1 0x0 SWAP2 DUP3 MSTORE PUSH1 0xB PUSH1 0x20 SWAP1 DUP2 MSTORE PUSH1 0x40 SWAP3 DUP4 SWAP1 KECCAK256 DUP3 MLOAD DUP2 SLOAD SWAP3 DUP5 ADD MLOAD SWAP5 DUP5 ADD MLOAD PUSH1 0x60 DUP6 ADD MLOAD PUSH1 0x80 SWAP1 SWAP6 ADD MLOAD ISZERO ISZERO PUSH1 0x1 PUSH1 0xE8 SHL MUL PUSH1 0xFF PUSH1 0xE8 SHL NOT PUSH1 0x1 PUSH1 0x1 PUSH1 0xA0 SHL SUB SWAP1 SWAP7 AND PUSH1 0x1 PUSH1 0x48 SHL MUL PUSH32 0xFFFFFF0000000000000000000000000000000000000000FFFFFFFFFFFFFFFFFF PUSH4 0xFFFFFFFF SWAP4 DUP5 AND PUSH1 0x1 PUSH1 0x28 SHL MUL AND PUSH6 0x10000000000 PUSH1 0x1 PUSH1 0xE8 SHL SUB NOT PUSH1 0xFF SWAP1 SWAP10 AND PUSH5 0x100000000 MUL PUSH5 0xFFFFFFFFFF NOT SWAP1 SWAP8 AND SWAP4 SWAP1 SWAP5 AND SWAP3 SWAP1 SWAP3 OR SWAP5 SWAP1 SWAP5 OR SWAP6 SWAP1 SWAP6 AND OR SWAP4 SWAP1 SWAP4 OR SWAP2 SWAP1 SWAP2 AND OR SWAP1 SSTORE POP PUSH1 0x1 JUMPDEST SWAP1 JUMP JUMPDEST PUSH1 0x60 PUSH1 0x3 DUP1 SLOAD PUSH2 0x9F0 SWAP1 PUSH2 0x3788 JUMP JUMPDEST DUP1 PUSH1 0x1F ADD PUSH1 0x20 DUP1 SWAP2 DIV MUL PUSH1 0x20 ADD PUSH1 0x40 MLOAD SWAP1 DUP2 ADD PUSH1 0x40 MSTORE DUP1 SWAP3 SWAP2 SWAP1 DUP2 DUP2 MSTORE PUSH1 0x20 ADD DUP3 DUP1 SLOAD PUSH2 0xA1C SWAP1 PUSH2 0x3788 JUMP JUMPDEST DUP1 ISZERO PUSH2 0xA69 JUMPI DUP1 PUSH1 0x1F LT PUSH2 0xA3E JUMPI PUSH2 0x100 DUP1 DUP4 SLOAD DIV MUL DUP4 MSTORE SWAP2 PUSH1 0x20 ADD SWAP2 PUSH2 0xA69 JUMP JUMPDEST DUP3 ADD SWAP2 SWAP1 PUSH1 0x0 MSTORE PUSH1 0x20 PUSH1 0x0 KECCAK256 SWAP1 JUMPDEST DUP2 SLOAD DUP2 MSTORE SWAP1 PUSH1 0x1 ADD SWAP1 PUSH1 0x20 ADD DUP1 DUP4 GT PUSH2 0xA4C JUMPI DUP3 SWAP1 SUB PUSH1 0x1F AND DUP3 ADD SWAP2 JUMPDEST POP POP POP POP POP SWAP1 POP SWAP2 SWAP1 POP JUMP JUMPDEST PUSH1 0x0 DUP2 DUP2 MSTORE PUSH1 0xD PUSH1 0x20 MSTORE PUSH1 0x40 SWAP1 KECCAK256 DUP1 SLOAD PUSH1 0x60 SWAP2 SWAP1 PUSH2 0x9F0 SWAP1 PUSH2 0x3788 JUMP JUMPDEST PUSH1 0x27 DUP2 PUSH1 0xB DUP2 LT PUSH2 0xAA2 JUMPI PUSH1 0x0 DUP1 REVERT JUMPDEST ADD SLOAD PUSH1 0x1 PUSH1 0x1 PUSH1 0xA0 SHL SUB AND SWAP1 POP DUP2 JUMP JUMPDEST DUP2 MLOAD DUP4 MLOAD EQ PUSH2 0xAD3 JUMPI PUSH1 0x40 MLOAD PUSH3 0x461BCD PUSH1 0xE5 SHL DUP2 MSTORE PUSH1 0x4 ADD PUSH2 0x7DE SWAP1 PUSH2 0x3681 JUMP JUMPDEST PUSH1 0x1 PUSH1 0x1 PUSH1 0xA0 SHL SUB DUP5 AND PUSH2 0xAF9 JUMPI PUSH1 0x40 MLOAD PUSH3 0x461BCD PUSH1 0xE5 SHL DUP2 MSTORE PUSH1 0x4 ADD PUSH2 0x7DE SWAP1 PUSH2 0x35AF JUMP JUMPDEST PUSH1 0x1 PUSH1 0x1 PUSH1 0xA0 SHL SUB DUP6 AND CALLER EQ DUP1 PUSH2 0xB15 JUMPI POP PUSH2 0xB15 DUP6 CALLER PUSH2 0x6DC JUMP JUMPDEST PUSH2 0xB7C JUMPI PUSH1 0x40 MLOAD PUSH3 0x461BCD PUSH1 0xE5 SHL DUP2 MSTORE PUSH1 0x20 PUSH1 0x4 DUP3 ADD MSTORE PUSH1 0x32 PUSH1 0x24 DUP3 ADD MSTORE PUSH32 0x455243313135353A207472616E736665722063616C6C6572206973206E6F7420 PUSH1 0x44 DUP3 ADD MSTORE PUSH18 0x1BDDDB995C881B9BDC88185C1C1C9BDD9959 PUSH1 0x72 SHL PUSH1 0x64 DUP3 ADD MSTORE PUSH1 0x84 ADD PUSH2 0x7DE JUMP JUMPDEST CALLER PUSH1 0x0 JUMPDEST DUP5 MLOAD DUP2 LT ISZERO PUSH2 0xD39 JUMPI PUSH1 0x0 DUP6 DUP3 DUP2 MLOAD DUP2 LT PUSH2 0xBAB JUMPI PUSH4 0x4E487B71 PUSH1 0xE0 SHL PUSH1 0x0 MSTORE PUSH1 0x32 PUSH1 0x4 MSTORE PUSH1 0x24 PUSH1 0x0 REVERT JUMPDEST PUSH1 0x20 MUL PUSH1 0x20 ADD ADD MLOAD SWAP1 POP PUSH1 0x0 DUP6 DUP4 DUP2 MLOAD DUP2 LT PUSH2 0xBD7 JUMPI PUSH4 0x4E487B71 PUSH1 0xE0 SHL PUSH1 0x0 MSTORE PUSH1 0x32 PUSH1 0x4 MSTORE PUSH1 0x24 PUSH1 0x0 REVERT JUMPDEST PUSH1 0x20 SWAP1 DUP2 MUL SWAP2 SWAP1 SWAP2 ADD DUP2 ADD MLOAD PUSH1 0x0 DUP5 DUP2 MSTORE PUSH1 0x1 DUP4 MSTORE PUSH1 0x40 DUP1 DUP3 KECCAK256 PUSH1 0x1 PUSH1 0x1 PUSH1 0xA0 SHL SUB DUP15 AND DUP4 MSTORE SWAP1 SWAP4 MSTORE SWAP2 SWAP1 SWAP2 KECCAK256 SLOAD SWAP1 SWAP2 POP DUP2 DUP2 LT ISZERO PUSH2 0xC28 JUMPI PUSH1 0x40 MLOAD PUSH3 0x461BCD PUSH1 0xE5 SHL DUP2 MSTORE PUSH1 0x4 ADD PUSH2 0x7DE SWAP1 PUSH2 0x3637 JUMP JUMPDEST PUSH2 0xC32 DUP3 DUP3 PUSH2 0x3771 JUMP JUMPDEST PUSH1 0x1 PUSH1 0x0 DUP6 DUP2 MSTORE PUSH1 0x20 ADD SWAP1 DUP2 MSTORE PUSH1 0x20 ADD PUSH1 0x0 KECCAK256 PUSH1 0x0 DUP13 PUSH1 0x1 PUSH1 0x1 PUSH1 0xA0 SHL SUB AND PUSH1 0x1 PUSH1 0x1 PUSH1 0xA0 SHL SUB AND DUP2 MSTORE PUSH1 0x20 ADD SWAP1 DUP2 MSTORE PUSH1 0x20 ADD PUSH1 0x0 KECCAK256 DUP2 SWAP1 SSTORE POP DUP2 PUSH1 0x1 PUSH1 0x0 DUP6 DUP2 MSTORE PUSH1 0x20 ADD SWAP1 DUP2 MSTORE PUSH1 0x20 ADD PUSH1 0x0 KECCAK256 PUSH1 0x0 DUP12 PUSH1 0x1 PUSH1 0x1 PUSH1 0xA0 SHL SUB AND PUSH1 0x1 PUSH1 0x1 PUSH1 0xA0 SHL SUB AND DUP2 MSTORE PUSH1 0x20 ADD SWAP1 DUP2 MSTORE PUSH1 0x20 ADD PUSH1 0x0 KECCAK256 PUSH1 0x0 DUP3 DUP3 SLOAD PUSH2 0xCB2 SWAP2 SWAP1 PUSH2 0x36ED JUMP JUMPDEST SWAP1 SWAP2 SSTORE POP POP PUSH1 0x1 PUSH1 0x1 PUSH1 0xA0 SHL SUB DUP10 AND PUSH1 0x0 SWAP1 DUP2 MSTORE PUSH1 0x20 DUP2 SWAP1 MSTORE PUSH1 0x40 SWAP1 KECCAK256 PUSH2 0xCD9 SWAP1 DUP5 PUSH2 0x1E28 JUMP JUMPDEST POP PUSH1 0x0 DUP4 DUP2 MSTORE PUSH1 0x1 PUSH1 0x20 SWAP1 DUP2 MSTORE PUSH1 0x40 DUP1 DUP4 KECCAK256 PUSH1 0x1 PUSH1 0x1 PUSH1 0xA0 SHL SUB DUP15 AND DUP5 MSTORE SWAP1 SWAP2 MSTORE SWAP1 KECCAK256 SLOAD PUSH2 0xD25 JUMPI PUSH1 0x1 PUSH1 0x1 PUSH1 0xA0 SHL SUB DUP11 AND PUSH1 0x0 SWAP1 DUP2 MSTORE PUSH1 0x20 DUP2 SWAP1 MSTORE PUSH1 0x40 SWAP1 KECCAK256 PUSH2 0xD23 SWAP1 DUP5 PUSH2 0x1E34 JUMP JUMPDEST POP JUMPDEST POP POP POP DUP1 PUSH2 0xD32 SWAP1 PUSH2 0x37F0 JUMP JUMPDEST SWAP1 POP PUSH2 0xB80 JUMP JUMPDEST POP DUP5 PUSH1 0x1 PUSH1 0x1 PUSH1 0xA0 SHL SUB AND DUP7 PUSH1 0x1 PUSH1 0x1 PUSH1 0xA0 SHL SUB AND DUP3 PUSH1 0x1 PUSH1 0x1 PUSH1 0xA0 SHL SUB AND PUSH32 0x4A39DC06D4C0DBC64B70AF90FD698A233A518AA5D07E595D983B8C0526C8F7FB DUP8 DUP8 PUSH1 0x40 MLOAD PUSH2 0xD89 SWAP3 SWAP2 SWAP1 PUSH2 0x345F JUMP JUMPDEST PUSH1 0x40 MLOAD DUP1 SWAP2 SUB SWAP1 LOG4 PUSH2 0xD9F DUP2 DUP8 DUP8 DUP8 DUP8 DUP8 PUSH2 0x1E40 JUMP JUMPDEST POP POP POP POP POP POP JUMP JUMPDEST PUSH1 0x1 PUSH1 0x1 PUSH1 0xA0 SHL SUB DUP3 AND PUSH1 0x0 SWAP1 DUP2 MSTORE PUSH1 0x20 DUP2 SWAP1 MSTORE PUSH1 0x40 DUP2 KECCAK256 PUSH2 0xDC9 SWAP1 DUP4 PUSH2 0x1FAB JUMP JUMPDEST SWAP4 SWAP3 POP POP POP JUMP JUMPDEST PUSH1 0x0 DUP3 DUP2 MSTORE PUSH1 0xD PUSH1 0x20 MSTORE PUSH1 0x40 DUP2 KECCAK256 PUSH1 0x2 ADD DUP1 SLOAD DUP4 SWAP1 DUP2 LT PUSH2 0xE01 JUMPI PUSH4 0x4E487B71 PUSH1 0xE0 SHL PUSH1 0x0 MSTORE PUSH1 0x32 PUSH1 0x4 MSTORE PUSH1 0x24 PUSH1 0x0 REVERT JUMPDEST SWAP1 PUSH1 0x0 MSTORE PUSH1 0x20 PUSH1 0x0 KECCAK256 SWAP1 PUSH1 0x8 SWAP2 DUP3 DUP3 DIV ADD SWAP2 SWAP1 MOD PUSH1 0x4 MUL SWAP1 SLOAD SWAP1 PUSH2 0x100 EXP SWAP1 DIV PUSH4 0xFFFFFFFF AND SWAP1 POP SWAP3 SWAP2 POP POP JUMP JUMPDEST PUSH1 0x1 PUSH1 0x1 PUSH1 0xA0 SHL SUB DUP2 AND PUSH1 0x0 SWAP1 DUP2 MSTORE PUSH1 0x20 DUP2 SWAP1 MSTORE PUSH1 0x40 DUP2 KECCAK256 PUSH2 0x85E SWAP1 PUSH2 0x1FB7 JUMP JUMPDEST PUSH1 0x60 DUP2 MLOAD DUP4 MLOAD EQ PUSH2 0xEB5 JUMPI PUSH1 0x40 MLOAD PUSH3 0x461BCD PUSH1 0xE5 SHL DUP2 MSTORE PUSH1 0x20 PUSH1 0x4 DUP3 ADD MSTORE PUSH1 0x29 PUSH1 0x24 DUP3 ADD MSTORE PUSH32 0x455243313135353A206163636F756E747320616E6420696473206C656E677468 PUSH1 0x44 DUP3 ADD MSTORE PUSH9 0x40DAD2E6DAC2E8C6D PUSH1 0xBB SHL PUSH1 0x64 DUP3 ADD MSTORE PUSH1 0x84 ADD PUSH2 0x7DE JUMP JUMPDEST PUSH1 0x0 DUP4 MLOAD PUSH8 0xFFFFFFFFFFFFFFFF DUP2 GT ISZERO PUSH2 0xEDF JUMPI PUSH4 0x4E487B71 PUSH1 0xE0 SHL PUSH1 0x0 MSTORE PUSH1 0x41 PUSH1 0x4 MSTORE PUSH1 0x24 PUSH1 0x0 REVERT JUMPDEST PUSH1 0x40 MLOAD SWAP1 DUP1 DUP3 MSTORE DUP1 PUSH1 0x20 MUL PUSH1 0x20 ADD DUP3 ADD PUSH1 0x40 MSTORE DUP1 ISZERO PUSH2 0xF08 JUMPI DUP2 PUSH1 0x20 ADD PUSH1 0x20 DUP3 MUL DUP1 CALLDATASIZE DUP4 CALLDATACOPY ADD SWAP1 POP JUMPDEST POP SWAP1 POP PUSH1 0x0 JUMPDEST DUP5 MLOAD DUP2 LT ISZERO PUSH2 0xFAA JUMPI PUSH2 0xF6F DUP6 DUP3 DUP2 MLOAD DUP2 LT PUSH2 0xF3A JUMPI PUSH4 0x4E487B71 PUSH1 0xE0 SHL PUSH1 0x0 MSTORE PUSH1 0x32 PUSH1 0x4 MSTORE PUSH1 0x24 PUSH1 0x0 REVERT JUMPDEST PUSH1 0x20 MUL PUSH1 0x20 ADD ADD MLOAD DUP6 DUP4 DUP2 MLOAD DUP2 LT PUSH2 0xF62 JUMPI PUSH4 0x4E487B71 PUSH1 0xE0 SHL PUSH1 0x0 MSTORE PUSH1 0x32 PUSH1 0x4 MSTORE PUSH1 0x24 PUSH1 0x0 REVERT JUMPDEST PUSH1 0x20 MUL PUSH1 0x20 ADD ADD MLOAD PUSH2 0x776 JUMP JUMPDEST DUP3 DUP3 DUP2 MLOAD DUP2 LT PUSH2 0xF8F JUMPI PUSH4 0x4E487B71 PUSH1 0xE0 SHL PUSH1 0x0 MSTORE PUSH1 0x32 PUSH1 0x4 MSTORE PUSH1 0x24 PUSH1 0x0 REVERT JUMPDEST PUSH1 0x20 SWAP1 DUP2 MUL SWAP2 SWAP1 SWAP2 ADD ADD MSTORE PUSH2 0xFA3 DUP2 PUSH2 0x37F0 JUMP JUMPDEST SWAP1 POP PUSH2 0xF0E JUMP JUMPDEST POP SWAP4 SWAP3 POP POP POP JUMP JUMPDEST PUSH1 0x0 DUP3 DUP2 MSTORE PUSH1 0xD PUSH1 0x20 MSTORE PUSH1 0x40 DUP1 DUP3 KECCAK256 DUP2 MLOAD PUSH1 0xE0 DUP2 ADD SWAP1 SWAP3 MSTORE DUP1 SLOAD DUP4 SWAP3 SWAP2 SWAP1 DUP3 SWAP1 DUP3 SWAP1 PUSH2 0xFDD SWAP1 PUSH2 0x3788 JUMP JUMPDEST DUP1 PUSH1 0x1F ADD PUSH1 0x20 DUP1 SWAP2 DIV MUL PUSH1 0x20 ADD PUSH1 0x40 MLOAD SWAP1 DUP2 ADD PUSH1 0x40 MSTORE DUP1 SWAP3 SWAP2 SWAP1 DUP2 DUP2 MSTORE PUSH1 0x20 ADD DUP3 DUP1 SLOAD PUSH2 0x1009 SWAP1 PUSH2 0x3788 JUMP JUMPDEST DUP1 ISZERO PUSH2 0x1056 JUMPI DUP1 PUSH1 0x1F LT PUSH2 0x102B JUMPI PUSH2 0x100 DUP1 DUP4 SLOAD DIV MUL DUP4 MSTORE SWAP2 PUSH1 0x20 ADD SWAP2 PUSH2 0x1056 JUMP JUMPDEST DUP3 ADD SWAP2 SWAP1 PUSH1 0x0 MSTORE PUSH1 0x20 PUSH1 0x0 KECCAK256 SWAP1 JUMPDEST DUP2 SLOAD DUP2 MSTORE SWAP1 PUSH1 0x1 ADD SWAP1 PUSH1 0x20 ADD DUP1 DUP4 GT PUSH2 0x1039 JUMPI DUP3 SWAP1 SUB PUSH1 0x1F AND DUP3 ADD SWAP2 JUMPDEST POP POP POP POP POP DUP2 MSTORE PUSH1 0x20 ADD PUSH1 0x1 DUP3 ADD SLOAD DUP2 MSTORE PUSH1 0x20 ADD PUSH1 0x2 DUP3 ADD DUP1 SLOAD DUP1 PUSH1 0x20 MUL PUSH1 0x20 ADD PUSH1 0x40 MLOAD SWAP1 DUP2 ADD PUSH1 0x40 MSTORE DUP1 SWAP3 SWAP2 SWAP1 DUP2 DUP2 MSTORE PUSH1 0x20 ADD DUP3 DUP1 SLOAD DUP1 ISZERO PUSH2 0x10E4 JUMPI PUSH1 0x20 MUL DUP3 ADD SWAP2 SWAP1 PUSH1 0x0 MSTORE PUSH1 0x20 PUSH1 0x0 KECCAK256 SWAP1 PUSH1 0x0 SWAP1 JUMPDEST DUP3 DUP3 SWAP1 SLOAD SWAP1 PUSH2 0x100 EXP SWAP1 DIV PUSH4 0xFFFFFFFF AND PUSH4 0xFFFFFFFF AND DUP2 MSTORE PUSH1 0x20 ADD SWAP1 PUSH1 0x4 ADD SWAP1 PUSH1 0x20 DUP3 PUSH1 0x3 ADD DIV SWAP3 DUP4 ADD SWAP3 PUSH1 0x1 SUB DUP3 MUL SWAP2 POP DUP1 DUP5 GT PUSH2 0x10A7 JUMPI SWAP1 POP JUMPDEST POP POP POP SWAP2 DUP4 MSTORE POP POP PUSH1 0x3 DUP3 ADD SLOAD PUSH1 0x1 PUSH1 0x1 PUSH1 0xA0 SHL SUB AND PUSH1 0x20 DUP3 ADD MSTORE PUSH1 0x4 DUP3 ADD SLOAD PUSH1 0x40 DUP3 ADD MSTORE PUSH1 0x5 DUP3 ADD SLOAD PUSH1 0x60 DUP3 ADD MSTORE PUSH1 0x6 SWAP1 SWAP2 ADD SLOAD PUSH4 0xFFFFFFFF AND PUSH1 0x80 SWAP1 SWAP2 ADD MSTORE SWAP1 POP PUSH2 0x1131 DUP2 DUP5 PUSH2 0x1FC1 JUMP JUMPDEST POP PUSH1 0x0 DUP5 DUP2 MSTORE PUSH1 0xD PUSH1 0x20 MSTORE PUSH1 0x40 DUP2 KECCAK256 PUSH1 0x4 ADD DUP1 SLOAD PUSH1 0x1 SWAP3 SWAP1 PUSH2 0x1154 SWAP1 DUP5 SWAP1 PUSH2 0x36ED JUMP JUMPDEST SWAP3 POP POP DUP2 SWAP1 SSTORE POP PUSH1 0x1 PUSH1 0x34 PUSH1 0x0 DUP3 DUP3 SLOAD PUSH2 0x116E SWAP2 SWAP1 PUSH2 0x36ED JUMP JUMPDEST SWAP1 SWAP2 SSTORE POP PUSH2 0x117D SWAP1 POP DUP5 PUSH2 0x23A9 JUMP JUMPDEST PUSH2 0x118F CALLER PUSH1 0xA SLOAD DUP7 PUSH2 0x896 SWAP2 SWAP1 PUSH2 0x36ED JUMP JUMPDEST POP PUSH1 0x1 SWAP4 SWAP3 POP POP POP JUMP JUMPDEST PUSH1 0x0 DUP2 PUSH2 0x11AE CALLER DUP6 PUSH1 0xA SLOAD PUSH2 0x291 SWAP2 SWAP1 PUSH2 0x36ED JUMP JUMPDEST LT ISZERO PUSH2 0x120E JUMPI PUSH1 0x40 MLOAD PUSH3 0x461BCD PUSH1 0xE5 SHL DUP2 MSTORE PUSH1 0x20 PUSH1 0x4 DUP3 ADD MSTORE PUSH1 0x29 PUSH1 0x24 DUP3 ADD MSTORE PUSH32 0x596F7520646F6E277420686176652074686174206D616E79206F662074686F73 PUSH1 0x44 DUP3 ADD MSTORE PUSH9 0x6520746F2065617421 PUSH1 0xB8 SHL PUSH1 0x64 DUP3 ADD MSTORE PUSH1 0x84 ADD PUSH2 0x7DE JUMP JUMPDEST PUSH1 0x0 DUP4 DUP2 MSTORE PUSH1 0xD PUSH1 0x20 MSTORE PUSH1 0x40 DUP2 KECCAK256 PUSH1 0x6 ADD SLOAD PUSH1 0xA SLOAD PUSH4 0xFFFFFFFF SWAP1 SWAP2 AND SWAP2 SWAP1 PUSH2 0x1237 SWAP1 DUP7 PUSH2 0x36ED JUMP JUMPDEST SWAP1 POP PUSH2 0x1244 CALLER DUP3 DUP7 PUSH2 0x2478 JUMP JUMPDEST PUSH1 0x0 DUP6 DUP2 MSTORE PUSH1 0xD PUSH1 0x20 MSTORE PUSH1 0x40 DUP2 KECCAK256 PUSH1 0x5 ADD DUP1 SLOAD PUSH1 0x1 SWAP3 SWAP1 PUSH2 0x1266 SWAP1 DUP5 SWAP1 PUSH2 0x36ED JUMP JUMPDEST SWAP1 SWAP2 SSTORE POP PUSH2 0x127C SWAP1 POP DUP5 PUSH4 0xFFFFFFFF DUP5 AND PUSH2 0x3752 JUMP JUMPDEST CALLER PUSH1 0x0 SWAP1 DUP2 MSTORE PUSH1 0xF PUSH1 0x20 MSTORE PUSH1 0x40 DUP2 KECCAK256 DUP1 SLOAD SWAP1 SWAP2 SWAP1 PUSH2 0x129B SWAP1 DUP5 SWAP1 PUSH2 0x36ED JUMP JUMPDEST SWAP1 SWAP2 SSTORE POP PUSH2 0x12AA SWAP1 POP CALLER PUSH2 0x25C1 JUMP JUMPDEST POP POP SWAP3 SWAP2 POP POP JUMP JUMPDEST PUSH1 0x0 PUSH2 0x12BE CALLER DUP4 PUSH2 0x776 JUMP JUMPDEST PUSH1 0x1 EQ PUSH2 0x12DD JUMPI PUSH1 0x40 MLOAD PUSH3 0x461BCD PUSH1 0xE5 SHL DUP2 MSTORE PUSH1 0x4 ADD PUSH2 0x7DE SWAP1 PUSH2 0x352C JUMP JUMPDEST PUSH2 0x12E6 DUP3 PUSH2 0x1B77 JUMP JUMPDEST POP PUSH2 0x12EF PUSH2 0x866 JUMP JUMPDEST POP PUSH1 0x0 DUP3 DUP2 MSTORE PUSH1 0xB PUSH1 0x20 MSTORE PUSH1 0x40 DUP1 DUP3 KECCAK256 DUP1 SLOAD PUSH1 0x33 SLOAD DUP5 MSTORE SWAP2 DUP4 KECCAK256 DUP1 SLOAD PUSH9 0xFFFFFFFF0000000000 NOT AND PUSH1 0x1 PUSH1 0x28 SHL SWAP4 DUP5 SWAP1 DIV PUSH4 0xFFFFFFFF AND SWAP1 SWAP4 MUL SWAP3 SWAP1 SWAP3 OR SWAP1 SWAP2 SSTORE SWAP1 DUP4 SWAP1 MSTORE DUP1 SLOAD PUSH1 0x1 SWAP2 SWAP1 PUSH1 0x4 SWAP1 PUSH2 0x1353 SWAP1 DUP5 SWAP1 PUSH5 0x100000000 SWAP1 DIV PUSH1 0xFF AND PUSH2 0x372D JUMP JUMPDEST SWAP3 POP PUSH2 0x100 EXP DUP2 SLOAD DUP2 PUSH1 0xFF MUL NOT AND SWAP1 DUP4 PUSH1 0xFF AND MUL OR SWAP1 SSTORE POP PUSH1 0x1 SWAP1 POP SWAP2 SWAP1 POP JUMP JUMPDEST CALLER PUSH1 0x1 PUSH1 0x1 PUSH1 0xA0 SHL SUB DUP4 AND EQ ISZERO PUSH2 0x13DF JUMPI PUSH1 0x40 MLOAD PUSH3 0x461BCD PUSH1 0xE5 SHL DUP2 MSTORE PUSH1 0x20 PUSH1 0x4 DUP3 ADD MSTORE PUSH1 0x29 PUSH1 0x24 DUP3 ADD MSTORE PUSH32 0x455243313135353A2073657474696E6720617070726F76616C20737461747573 PUSH1 0x44 DUP3 ADD MSTORE PUSH9 0x103337B91039B2B633 PUSH1 0xB9 SHL PUSH1 0x64 DUP3 ADD MSTORE PUSH1 0x84 ADD PUSH2 0x7DE JUMP JUMPDEST CALLER PUSH1 0x0 DUP2 DUP2 MSTORE PUSH1 0x2 PUSH1 0x20 SWAP1 DUP2 MSTORE PUSH1 0x40 DUP1 DUP4 KECCAK256 PUSH1 0x1 PUSH1 0x1 PUSH1 0xA0 SHL SUB DUP8 AND DUP1 DUP6 MSTORE SWAP3 MSTORE SWAP1 SWAP2 KECCAK256 DUP1 SLOAD PUSH1 0xFF NOT AND DUP5 ISZERO ISZERO OR SWAP1 SSTORE SWAP1 PUSH1 0x1 PUSH1 0x1 PUSH1 0xA0 SHL SUB AND PUSH32 0x17307EAB39AB6107E8899845AD3D59BD9653F200F220920489CA2B5937696C31 DUP4 PUSH1 0x40 MLOAD PUSH2 0x144C SWAP2 ISZERO ISZERO DUP2 MSTORE PUSH1 0x20 ADD SWAP1 JUMP JUMPDEST PUSH1 0x40 MLOAD DUP1 SWAP2 SUB SWAP1 LOG3 POP POP JUMP JUMPDEST CALLER PUSH1 0x0 SWAP1 DUP2 MSTORE PUSH1 0xC PUSH1 0x20 MSTORE PUSH1 0x40 SWAP1 KECCAK256 SLOAD TIMESTAMP PUSH4 0xFFFFFFFF SWAP1 SWAP2 AND LT PUSH2 0x14BE JUMPI PUSH1 0x40 MLOAD PUSH3 0x461BCD PUSH1 0xE5 SHL DUP2 MSTORE PUSH1 0x20 PUSH1 0x4 DUP3 ADD MSTORE PUSH1 0x1B PUSH1 0x24 DUP3 ADD MSTORE PUSH32 0x596F7520646964207468697320616C726561647920746F646179210000000000 PUSH1 0x44 DUP3 ADD MSTORE PUSH1 0x64 ADD PUSH2 0x7DE JUMP JUMPDEST PUSH2 0x14DD CALLER PUSH1 0x9 SLOAD PUSH1 0x7 SLOAD PUSH1 0x40 MLOAD DUP1 PUSH1 0x20 ADD PUSH1 0x40 MSTORE DUP1 PUSH1 0x0 DUP2 MSTORE POP PUSH2 0x1D02 JUMP JUMPDEST PUSH1 0x7 SLOAD PUSH1 0x32 PUSH1 0x0 DUP3 DUP3 SLOAD PUSH2 0x14F1 SWAP2 SWAP1 PUSH2 0x36ED JUMP JUMPDEST SWAP1 SWAP2 SSTORE POP POP PUSH1 0x6 SLOAD PUSH2 0x1509 SWAP1 PUSH4 0xFFFFFFFF AND TIMESTAMP PUSH2 0x36ED JUMP JUMPDEST CALLER PUSH1 0x0 SWAP1 DUP2 MSTORE PUSH1 0xC PUSH1 0x20 MSTORE PUSH1 0x40 SWAP1 KECCAK256 DUP1 SLOAD PUSH4 0xFFFFFFFF NOT AND PUSH4 0xFFFFFFFF SWAP3 SWAP1 SWAP3 AND SWAP2 SWAP1 SWAP2 OR SWAP1 SSTORE JUMP JUMPDEST PUSH1 0x0 PUSH1 0xA DUP4 MLOAD GT ISZERO PUSH2 0x1596 JUMPI PUSH1 0x40 MLOAD PUSH3 0x461BCD PUSH1 0xE5 SHL DUP2 MSTORE PUSH1 0x20 PUSH1 0x4 DUP3 ADD MSTORE PUSH1 0x27 PUSH1 0x24 DUP3 ADD MSTORE PUSH32 0x596F752063616E206F6E6C79206861766520757020746F20313020696E677265 PUSH1 0x44 DUP3 ADD MSTORE PUSH7 0x6469656E747321 PUSH1 0xC8 SHL PUSH1 0x64 DUP3 ADD MSTORE PUSH1 0x84 ADD PUSH2 0x7DE JUMP JUMPDEST PUSH1 0x40 DUP1 MLOAD PUSH1 0xE0 DUP2 ADD DUP3 MSTORE DUP7 DUP2 MSTORE PUSH1 0x20 DUP2 ADD DUP7 SWAP1 MSTORE SWAP1 DUP2 ADD DUP5 SWAP1 MSTORE CALLER PUSH1 0x60 DUP3 ADD MSTORE PUSH1 0x0 PUSH1 0x80 DUP3 ADD DUP2 SWAP1 MSTORE PUSH1 0xA0 DUP3 ADD DUP2 SWAP1 MSTORE PUSH1 0xC0 DUP3 ADD MSTORE PUSH2 0x15D5 DUP2 DUP5 PUSH2 0x1FC1 JUMP JUMPDEST POP PUSH1 0x40 DUP2 ADD MLOAD PUSH1 0x0 DUP1 JUMPDEST DUP3 MLOAD DUP2 LT ISZERO PUSH2 0x162F JUMPI DUP3 DUP2 DUP2 MLOAD DUP2 LT PUSH2 0x1608 JUMPI PUSH4 0x4E487B71 PUSH1 0xE0 SHL PUSH1 0x0 MSTORE PUSH1 0x32 PUSH1 0x4 MSTORE PUSH1 0x24 PUSH1 0x0 REVERT JUMPDEST PUSH1 0x20 MUL PUSH1 0x20 ADD ADD MLOAD DUP3 PUSH2 0x161B SWAP2 SWAP1 PUSH2 0x3705 JUMP JUMPDEST SWAP2 POP DUP1 PUSH2 0x1627 DUP2 PUSH2 0x37F0 JUMP JUMPDEST SWAP2 POP POP PUSH2 0x15DF JUMP JUMPDEST POP PUSH4 0xFFFFFFFF DUP2 AND PUSH1 0xC0 DUP5 ADD MSTORE PUSH1 0x80 DUP4 ADD DUP1 MLOAD PUSH1 0x1 SWAP2 SWAP1 PUSH2 0x1651 SWAP1 DUP4 SWAP1 PUSH2 0x36ED JUMP JUMPDEST SWAP1 MSTORE POP PUSH1 0x34 DUP1 SLOAD PUSH1 0x1 SWAP2 SWAP1 PUSH1 0x0 SWAP1 PUSH2 0x166A SWAP1 DUP5 SWAP1 PUSH2 0x36ED JUMP JUMPDEST SWAP3 POP POP DUP2 SWAP1 SSTORE POP PUSH1 0x1 PUSH1 0x35 PUSH1 0x0 DUP3 DUP3 SLOAD PUSH2 0x1684 SWAP2 SWAP1 PUSH2 0x36ED JUMP JUMPDEST SWAP1 SWAP2 SSTORE POP POP PUSH1 0x35 SLOAD PUSH1 0xA SLOAD PUSH1 0x0 SWAP2 PUSH2 0x169B SWAP2 PUSH2 0x36ED JUMP JUMPDEST PUSH1 0x35 SLOAD PUSH1 0x0 SWAP1 DUP2 MSTORE PUSH1 0xD PUSH1 0x20 SWAP1 DUP2 MSTORE PUSH1 0x40 SWAP1 SWAP2 KECCAK256 DUP7 MLOAD DUP1 MLOAD SWAP4 SWAP5 POP DUP8 SWAP4 SWAP2 SWAP3 PUSH2 0x16C9 SWAP3 DUP5 SWAP3 SWAP1 SWAP2 ADD SWAP1 PUSH2 0x2CA1 JUMP JUMPDEST POP PUSH1 0x20 DUP3 DUP2 ADD MLOAD PUSH1 0x1 DUP4 ADD SSTORE PUSH1 0x40 DUP4 ADD MLOAD DUP1 MLOAD PUSH2 0x16EC SWAP3 PUSH1 0x2 DUP6 ADD SWAP3 ADD SWAP1 PUSH2 0x2D25 JUMP JUMPDEST POP PUSH1 0x60 DUP3 ADD MLOAD PUSH1 0x3 DUP3 ADD DUP1 SLOAD PUSH1 0x1 PUSH1 0x1 PUSH1 0xA0 SHL SUB NOT AND PUSH1 0x1 PUSH1 0x1 PUSH1 0xA0 SHL SUB SWAP1 SWAP3 AND SWAP2 SWAP1 SWAP2 OR SWAP1 SSTORE PUSH1 0x80 DUP3 ADD MLOAD PUSH1 0x4 DUP3 ADD SSTORE PUSH1 0xA0 DUP3 ADD MLOAD PUSH1 0x5 DUP3 ADD SSTORE PUSH1 0xC0 SWAP1 SWAP2 ADD MLOAD PUSH1 0x6 SWAP1 SWAP2 ADD DUP1 SLOAD PUSH4 0xFFFFFFFF NOT AND PUSH4 0xFFFFFFFF SWAP3 DUP4 AND OR SWAP1 SSTORE PUSH1 0x35 SLOAD CALLER PUSH1 0x0 SWAP1 DUP2 MSTORE PUSH1 0xE PUSH1 0x20 MSTORE PUSH1 0x40 SWAP1 KECCAK256 PUSH2 0x1765 SWAP3 SWAP1 SWAP2 SWAP1 PUSH2 0x1E28 AND JUMP JUMPDEST POP PUSH2 0x1771 PUSH1 0x35 SLOAD PUSH2 0x23A9 JUMP JUMPDEST PUSH2 0x178D CALLER DUP3 PUSH1 0x1 PUSH1 0x40 MLOAD DUP1 PUSH1 0x20 ADD PUSH1 0x40 MSTORE DUP1 PUSH1 0x0 DUP2 MSTORE POP PUSH2 0x1D02 JUMP JUMPDEST SWAP9 SWAP8 POP POP POP POP POP POP POP POP JUMP JUMPDEST PUSH1 0x0 PUSH2 0x17A5 CALLER DUP4 PUSH2 0x776 JUMP JUMPDEST PUSH1 0x1 EQ PUSH2 0x17C4 JUMPI PUSH1 0x40 MLOAD PUSH3 0x461BCD PUSH1 0xE5 SHL DUP2 MSTORE PUSH1 0x4 ADD PUSH2 0x7DE SWAP1 PUSH2 0x352C JUMP JUMPDEST PUSH1 0x0 PUSH2 0x17D1 DUP5 PUSH1 0x32 PUSH2 0x3752 JUMP JUMPDEST SWAP1 POP PUSH1 0x0 PUSH2 0x17E0 DUP6 PUSH1 0xA PUSH2 0x3752 JUMP JUMPDEST SWAP1 POP PUSH2 0x17EC CALLER DUP4 PUSH2 0x1CC2 JUMP JUMPDEST PUSH1 0x8 SLOAD PUSH1 0x9 SLOAD PUSH1 0x40 DUP1 MLOAD PUSH1 0x20 DUP2 ADD SWAP1 SWAP2 MSTORE PUSH1 0x0 DUP2 MSTORE PUSH2 0x181A SWAP3 CALLER SWAP3 PUSH1 0x1 PUSH1 0x1 PUSH1 0xA0 SHL SUB SWAP1 SWAP2 AND SWAP2 DUP6 SWAP1 PUSH2 0x1942 JUMP JUMPDEST CALLER PUSH1 0x0 SWAP1 DUP2 MSTORE PUSH1 0x10 PUSH1 0x20 MSTORE PUSH1 0x40 SWAP1 KECCAK256 DUP1 SLOAD PUSH1 0xFF NOT AND PUSH1 0x1 OR SWAP1 SSTORE PUSH1 0x6 SLOAD PUSH2 0x1847 SWAP1 PUSH4 0xFFFFFFFF AND DUP7 PUSH2 0x3752 JUMP JUMPDEST PUSH2 0x1851 SWAP1 TIMESTAMP PUSH2 0x36ED JUMP JUMPDEST PUSH1 0x0 DUP6 DUP2 MSTORE PUSH1 0xB PUSH1 0x20 MSTORE PUSH1 0x40 SWAP1 KECCAK256 DUP1 SLOAD PUSH4 0xFFFFFFFF PUSH1 0xFF PUSH1 0xE8 SHL ADD NOT AND PUSH4 0xFFFFFFFF SWAP3 SWAP1 SWAP3 AND SWAP2 SWAP1 SWAP2 OR PUSH1 0x1 PUSH1 0xE8 SHL OR SWAP1 SSTORE POP PUSH1 0x1 SWAP2 POP POP SWAP3 SWAP2 POP POP JUMP JUMPDEST PUSH1 0x1 PUSH1 0x1 PUSH1 0xA0 SHL SUB DUP2 AND PUSH1 0x0 SWAP1 DUP2 MSTORE PUSH1 0xE PUSH1 0x20 MSTORE PUSH1 0x40 DUP2 KECCAK256 PUSH2 0x85E SWAP1 PUSH2 0x1FB7 JUMP JUMPDEST PUSH1 0x11 DUP2 PUSH1 0xB DUP2 LT PUSH2 0x18C0 JUMPI PUSH1 0x0 DUP1 REVERT JUMPDEST ADD SLOAD SWAP1 POP DUP2 JUMP JUMPDEST PUSH1 0x0 DUP2 DUP2 MSTORE PUSH1 0xB PUSH1 0x20 MSTORE PUSH1 0x40 DUP2 KECCAK256 SLOAD PUSH1 0x1 PUSH1 0xE8 SHL SWAP1 DIV PUSH1 0xFF AND ISZERO ISZERO PUSH1 0x1 EQ PUSH2 0x18EE JUMPI PUSH1 0x0 DUP1 REVERT JUMPDEST PUSH1 0x6 SLOAD PUSH2 0x1901 SWAP1 PUSH4 0xFFFFFFFF AND TIMESTAMP PUSH2 0x36ED JUMP JUMPDEST PUSH1 0x0 SWAP3 DUP4 MSTORE PUSH1 0xB PUSH1 0x20 MSTORE PUSH1 0x40 SWAP1 SWAP3 KECCAK256 DUP1 SLOAD PUSH4 0xFFFFFFFF PUSH1 0xFF PUSH1 0xE8 SHL ADD NOT AND PUSH4 0xFFFFFFFF SWAP4 SWAP1 SWAP4 AND SWAP3 SWAP1 SWAP3 OR SWAP1 SWAP2 SSTORE SWAP1 JUMP JUMPDEST PUSH1 0x1C DUP2 PUSH1 0xB DUP2 LT PUSH2 0x18C0 JUMPI PUSH1 0x0 DUP1 REVERT JUMPDEST PUSH1 0x1 PUSH1 0x1 PUSH1 0xA0 SHL SUB DUP5 AND PUSH2 0x1968 JUMPI PUSH1 0x40 MLOAD PUSH3 0x461BCD PUSH1 0xE5 SHL DUP2 MSTORE PUSH1 0x4 ADD PUSH2 0x7DE SWAP1 PUSH2 0x35AF JUMP JUMPDEST PUSH1 0x1 PUSH1 0x1 PUSH1 0xA0 SHL SUB DUP6 AND CALLER EQ DUP1 PUSH2 0x1984 JUMPI POP PUSH2 0x1984 DUP6 CALLER PUSH2 0x6DC JUMP JUMPDEST PUSH2 0x19E2 JUMPI PUSH1 0x40 MLOAD PUSH3 0x461BCD PUSH1 0xE5 SHL DUP2 MSTORE PUSH1 0x20 PUSH1 0x4 DUP3 ADD MSTORE PUSH1 0x29 PUSH1 0x24 DUP3 ADD MSTORE PUSH32 0x455243313135353A2063616C6C6572206973206E6F74206F776E6572206E6F72 PUSH1 0x44 DUP3 ADD MSTORE PUSH9 0x8185C1C1C9BDD9959 PUSH1 0xBA SHL PUSH1 0x64 DUP3 ADD MSTORE PUSH1 0x84 ADD PUSH2 0x7DE JUMP JUMPDEST CALLER PUSH2 0x1A02 DUP2 DUP8 DUP8 PUSH2 0x19F2 DUP9 PUSH2 0x26D1 JUMP JUMPDEST PUSH2 0x19FB DUP9 PUSH2 0x26D1 JUMP JUMPDEST POP POP POP POP POP JUMP JUMPDEST PUSH1 0x0 DUP5 DUP2 MSTORE PUSH1 0x1 PUSH1 0x20 SWAP1 DUP2 MSTORE PUSH1 0x40 DUP1 DUP4 KECCAK256 PUSH1 0x1 PUSH1 0x1 PUSH1 0xA0 SHL SUB DUP11 AND DUP5 MSTORE SWAP1 SWAP2 MSTORE SWAP1 KECCAK256 SLOAD DUP4 DUP2 LT ISZERO PUSH2 0x1A45 JUMPI PUSH1 0x40 MLOAD PUSH3 0x461BCD PUSH1 0xE5 SHL DUP2 MSTORE PUSH1 0x4 ADD PUSH2 0x7DE SWAP1 PUSH2 0x3637 JUMP JUMPDEST PUSH2 0x1A4F DUP5 DUP3 PUSH2 0x3771 JUMP JUMPDEST PUSH1 0x0 DUP7 DUP2 MSTORE PUSH1 0x1 PUSH1 0x20 SWAP1 DUP2 MSTORE PUSH1 0x40 DUP1 DUP4 KECCAK256 PUSH1 0x1 PUSH1 0x1 PUSH1 0xA0 SHL SUB DUP13 DUP2 AND DUP6 MSTORE SWAP3 MSTORE DUP1 DUP4 KECCAK256 SWAP4 SWAP1 SWAP4 SSTORE DUP9 AND DUP2 MSTORE SWAP1 DUP2 KECCAK256 DUP1 SLOAD DUP7 SWAP3 SWAP1 PUSH2 0x1A8D SWAP1 DUP5 SWAP1 PUSH2 0x36ED JUMP JUMPDEST SWAP1 SWAP2 SSTORE POP POP PUSH1 0x1 PUSH1 0x1 PUSH1 0xA0 SHL SUB DUP7 AND PUSH1 0x0 SWAP1 DUP2 MSTORE PUSH1 0x20 DUP2 SWAP1 MSTORE PUSH1 0x40 SWAP1 KECCAK256 PUSH2 0x1AB4 SWAP1 DUP7 PUSH2 0x1E28 JUMP JUMPDEST POP PUSH1 0x0 DUP6 DUP2 MSTORE PUSH1 0x1 PUSH1 0x20 SWAP1 DUP2 MSTORE PUSH1 0x40 DUP1 DUP4 KECCAK256 PUSH1 0x1 PUSH1 0x1 PUSH1 0xA0 SHL SUB DUP12 AND DUP5 MSTORE SWAP1 SWAP2 MSTORE SWAP1 KECCAK256 SLOAD PUSH2 0x1B00 JUMPI PUSH1 0x1 PUSH1 0x1 PUSH1 0xA0 SHL SUB DUP8 AND PUSH1 0x0 SWAP1 DUP2 MSTORE PUSH1 0x20 DUP2 SWAP1 MSTORE PUSH1 0x40 SWAP1 KECCAK256 PUSH2 0x1AFE SWAP1 DUP7 PUSH2 0x1E34 JUMP JUMPDEST POP JUMPDEST DUP6 PUSH1 0x1 PUSH1 0x1 PUSH1 0xA0 SHL SUB AND DUP8 PUSH1 0x1 PUSH1 0x1 PUSH1 0xA0 SHL SUB AND DUP4 PUSH1 0x1 PUSH1 0x1 PUSH1 0xA0 SHL SUB AND PUSH32 0xC3D58168C5AE7397731D063D5BBF3D657854427343F4C083240F7AACAA2D0F62 DUP9 DUP9 PUSH1 0x40 MLOAD PUSH2 0x1B58 SWAP3 SWAP2 SWAP1 SWAP2 DUP3 MSTORE PUSH1 0x20 DUP3 ADD MSTORE PUSH1 0x40 ADD SWAP1 JUMP JUMPDEST PUSH1 0x40 MLOAD DUP1 SWAP2 SUB SWAP1 LOG4 PUSH2 0x1B6E DUP3 DUP9 DUP9 DUP9 DUP9 DUP9 PUSH2 0x272A JUMP JUMPDEST POP POP POP POP POP POP POP JUMP JUMPDEST PUSH1 0x0 PUSH2 0x1B83 CALLER DUP4 PUSH2 0x776 JUMP JUMPDEST PUSH1 0x1 EQ PUSH2 0x1BA2 JUMPI PUSH1 0x40 MLOAD PUSH3 0x461BCD PUSH1 0xE5 SHL DUP2 MSTORE PUSH1 0x4 ADD PUSH2 0x7DE SWAP1 PUSH2 0x352C JUMP JUMPDEST PUSH1 0x0 DUP3 DUP2 MSTORE PUSH1 0xB PUSH1 0x20 MSTORE PUSH1 0x40 SWAP1 KECCAK256 SLOAD TIMESTAMP PUSH4 0xFFFFFFFF SWAP1 SWAP2 AND LT ISZERO PUSH2 0x1C2E JUMPI PUSH1 0x40 MLOAD PUSH3 0x461BCD PUSH1 0xE5 SHL DUP2 MSTORE PUSH1 0x20 PUSH1 0x4 DUP3 ADD MSTORE PUSH1 0x39 PUSH1 0x24 DUP3 ADD MSTORE PUSH32 0x596F757220737461727465722069732064656164212020596F752073686F756C PUSH1 0x44 DUP3 ADD MSTORE PUSH32 0x6420686176652066656420697420736F6F6E6572203A28202E00000000000000 PUSH1 0x64 DUP3 ADD MSTORE PUSH1 0x84 ADD PUSH2 0x7DE JUMP JUMPDEST PUSH2 0x1C3A CALLER PUSH1 0x5 SLOAD PUSH2 0x1CC2 JUMP JUMPDEST PUSH1 0x6 SLOAD PUSH2 0x1C4D SWAP1 PUSH4 0xFFFFFFFF AND TIMESTAMP PUSH2 0x36ED JUMP JUMPDEST PUSH1 0x0 DUP4 DUP2 MSTORE PUSH1 0xB PUSH1 0x20 MSTORE PUSH1 0x40 SWAP1 KECCAK256 DUP1 SLOAD PUSH4 0xFFFFFFFF NOT AND PUSH4 0xFFFFFFFF SWAP3 SWAP1 SWAP3 AND SWAP2 SWAP1 SWAP2 OR SWAP1 DUP2 SWAP1 SSTORE PUSH1 0x1 PUSH1 0xE8 SHL SWAP1 DIV PUSH1 0xFF AND ISZERO PUSH2 0x1C8F JUMPI PUSH1 0x0 DUP3 SWAP1 MSTORE PUSH1 0xB PUSH1 0x20 MSTORE JUMPDEST PUSH2 0x1C98 DUP3 PUSH2 0x27F4 JUMP JUMPDEST POP PUSH1 0x1 SWAP2 SWAP1 POP JUMP JUMPDEST PUSH1 0x1 PUSH1 0x1 PUSH1 0xA0 SHL SUB DUP3 AND PUSH1 0x0 SWAP1 DUP2 MSTORE PUSH1 0xE PUSH1 0x20 MSTORE PUSH1 0x40 DUP2 KECCAK256 PUSH2 0xDC9 SWAP1 DUP4 PUSH2 0x1FAB JUMP JUMPDEST DUP1 PUSH2 0x1CCF CALLER PUSH1 0x9 SLOAD PUSH2 0x776 JUMP JUMPDEST LT ISZERO PUSH2 0x1CDA JUMPI PUSH1 0x0 DUP1 REVERT JUMPDEST PUSH2 0x1CE7 DUP3 PUSH1 0x9 SLOAD DUP4 PUSH2 0x2478 JUMP JUMPDEST DUP1 PUSH1 0x32 PUSH1 0x0 DUP3 DUP3 SLOAD PUSH2 0x1CF9 SWAP2 SWAP1 PUSH2 0x3771 JUMP JUMPDEST SWAP1 SWAP2 SSTORE POP POP POP POP JUMP JUMPDEST PUSH1 0x1 PUSH1 0x1 PUSH1 0xA0 SHL SUB DUP5 AND PUSH2 0x1D62 JUMPI PUSH1 0x40 MLOAD PUSH3 0x461BCD PUSH1 0xE5 SHL DUP2 MSTORE PUSH1 0x20 PUSH1 0x4 DUP3 ADD MSTORE PUSH1 0x21 PUSH1 0x24 DUP3 ADD MSTORE PUSH32 0x455243313135353A206D696E7420746F20746865207A65726F20616464726573 PUSH1 0x44 DUP3 ADD MSTORE PUSH1 0x73 PUSH1 0xF8 SHL PUSH1 0x64 DUP3 ADD MSTORE PUSH1 0x84 ADD PUSH2 0x7DE JUMP JUMPDEST CALLER PUSH2 0x1D73 DUP2 PUSH1 0x0 DUP8 PUSH2 0x19F2 DUP9 PUSH2 0x26D1 JUMP JUMPDEST PUSH1 0x0 DUP5 DUP2 MSTORE PUSH1 0x1 PUSH1 0x20 SWAP1 DUP2 MSTORE PUSH1 0x40 DUP1 DUP4 KECCAK256 PUSH1 0x1 PUSH1 0x1 PUSH1 0xA0 SHL SUB DUP10 AND DUP5 MSTORE SWAP1 SWAP2 MSTORE DUP2 KECCAK256 DUP1 SLOAD DUP6 SWAP3 SWAP1 PUSH2 0x1DA5 SWAP1 DUP5 SWAP1 PUSH2 0x36ED JUMP JUMPDEST SWAP1 SWAP2 SSTORE POP POP PUSH1 0x1 PUSH1 0x1 PUSH1 0xA0 SHL SUB DUP6 AND PUSH1 0x0 SWAP1 DUP2 MSTORE PUSH1 0x20 DUP2 SWAP1 MSTORE PUSH1 0x40 SWAP1 KECCAK256 PUSH2 0x1DCC SWAP1 DUP6 PUSH2 0x1E28 JUMP JUMPDEST POP PUSH1 0x40 DUP1 MLOAD DUP6 DUP2 MSTORE PUSH1 0x20 DUP2 ADD DUP6 SWAP1 MSTORE PUSH1 0x1 PUSH1 0x1 PUSH1 0xA0 SHL SUB DUP1 DUP9 AND SWAP3 PUSH1 0x0 SWAP3 SWAP2 DUP6 AND SWAP2 PUSH32 0xC3D58168C5AE7397731D063D5BBF3D657854427343F4C083240F7AACAA2D0F62 SWAP2 ADD PUSH1 0x40 MLOAD DUP1 SWAP2 SUB SWAP1 LOG4 PUSH2 0x19FB DUP2 PUSH1 0x0 DUP8 DUP8 DUP8 DUP8 PUSH2 0x272A JUMP JUMPDEST PUSH1 0x0 PUSH2 0xDC9 DUP4 DUP4 PUSH2 0x28D4 JUMP JUMPDEST PUSH1 0x0 PUSH2 0xDC9 DUP4 DUP4 PUSH2 0x2923 JUMP JUMPDEST PUSH1 0x1 PUSH1 0x1 PUSH1 0xA0 SHL SUB DUP5 AND EXTCODESIZE ISZERO PUSH2 0xD9F JUMPI PUSH1 0x40 MLOAD PUSH4 0xBC197C81 PUSH1 0xE0 SHL DUP2 MSTORE PUSH1 0x1 PUSH1 0x1 PUSH1 0xA0 SHL SUB DUP6 AND SWAP1 PUSH4 0xBC197C81 SWAP1 PUSH2 0x1E84 SWAP1 DUP10 SWAP1 DUP10 SWAP1 DUP9 SWAP1 DUP9 SWAP1 DUP9 SWAP1 PUSH1 0x4 ADD PUSH2 0x33B5 JUMP JUMPDEST PUSH1 0x20 PUSH1 0x40 MLOAD DUP1 DUP4 SUB DUP2 PUSH1 0x0 DUP8 DUP1 EXTCODESIZE ISZERO DUP1 ISZERO PUSH2 0x1E9E JUMPI PUSH1 0x0 DUP1 REVERT JUMPDEST POP GAS CALL SWAP3 POP POP POP DUP1 ISZERO PUSH2 0x1ECE JUMPI POP PUSH1 0x40 DUP1 MLOAD PUSH1 0x1F RETURNDATASIZE SWAP1 DUP2 ADD PUSH1 0x1F NOT AND DUP3 ADD SWAP1 SWAP3 MSTORE PUSH2 0x1ECB SWAP2 DUP2 ADD SWAP1 PUSH2 0x3187 JUMP JUMPDEST PUSH1 0x1 JUMPDEST PUSH2 0x1F7B JUMPI PUSH2 0x1EDA PUSH2 0x3837 JUMP JUMPDEST DUP1 PUSH4 0x8C379A0 EQ ISZERO PUSH2 0x1F14 JUMPI POP PUSH2 0x1EEF PUSH2 0x384E JUMP JUMPDEST DUP1 PUSH2 0x1EFA JUMPI POP PUSH2 0x1F16 JUMP JUMPDEST DUP1 PUSH1 0x40 MLOAD PUSH3 0x461BCD PUSH1 0xE5 SHL DUP2 MSTORE PUSH1 0x4 ADD PUSH2 0x7DE SWAP2 SWAP1 PUSH2 0x348D JUMP JUMPDEST POP JUMPDEST PUSH1 0x40 MLOAD PUSH3 0x461BCD PUSH1 0xE5 SHL DUP2 MSTORE PUSH1 0x20 PUSH1 0x4 DUP3 ADD MSTORE PUSH1 0x34 PUSH1 0x24 DUP3 ADD MSTORE PUSH32 0x455243313135353A207472616E7366657220746F206E6F6E2045524331313535 PUSH1 0x44 DUP3 ADD MSTORE PUSH20 0x2932B1B2B4BB32B91034B6B83632B6B2B73A32B9 PUSH1 0x61 SHL PUSH1 0x64 DUP3 ADD MSTORE PUSH1 0x84 ADD PUSH2 0x7DE JUMP JUMPDEST PUSH1 0x1 PUSH1 0x1 PUSH1 0xE0 SHL SUB NOT DUP2 AND PUSH4 0xBC197C81 PUSH1 0xE0 SHL EQ PUSH2 0x1B6E JUMPI PUSH1 0x40 MLOAD PUSH3 0x461BCD PUSH1 0xE5 SHL DUP2 MSTORE PUSH1 0x4 ADD PUSH2 0x7DE SWAP1 PUSH2 0x34A0 JUMP JUMPDEST PUSH1 0x0 PUSH2 0xDC9 DUP4 DUP4 PUSH2 0x2A3A JUMP JUMPDEST PUSH1 0x0 PUSH2 0x85E DUP3 SLOAD SWAP1 JUMP JUMPDEST PUSH1 0x0 DUP3 PUSH1 0x20 ADD MLOAD PUSH2 0x1FD4 CALLER PUSH1 0x9 SLOAD PUSH2 0x776 JUMP JUMPDEST LT ISZERO PUSH2 0x2035 JUMPI PUSH1 0x40 MLOAD PUSH3 0x461BCD PUSH1 0xE5 SHL DUP2 MSTORE PUSH1 0x20 PUSH1 0x4 DUP3 ADD MSTORE PUSH1 0x2A PUSH1 0x24 DUP3 ADD MSTORE PUSH32 0x596F7520646F6E2774206861766520656E6F75676820464C4F555220746F2062 PUSH1 0x44 DUP3 ADD MSTORE PUSH10 0x616B6520746861742121 PUSH1 0xB0 SHL PUSH1 0x64 DUP3 ADD MSTORE PUSH1 0x84 ADD PUSH2 0x7DE JUMP JUMPDEST PUSH1 0x40 DUP4 ADD MLOAD MLOAD PUSH1 0x0 DUP2 PUSH8 0xFFFFFFFFFFFFFFFF DUP2 GT ISZERO PUSH2 0x2064 JUMPI PUSH4 0x4E487B71 PUSH1 0xE0 SHL PUSH1 0x0 MSTORE PUSH1 0x41 PUSH1 0x4 MSTORE PUSH1 0x24 PUSH1 0x0 REVERT JUMPDEST PUSH1 0x40 MLOAD SWAP1 DUP1 DUP3 MSTORE DUP1 PUSH1 0x20 MUL PUSH1 0x20 ADD DUP3 ADD PUSH1 0x40 MSTORE DUP1 ISZERO PUSH2 0x208D JUMPI DUP2 PUSH1 0x20 ADD PUSH1 0x20 DUP3 MUL DUP1 CALLDATASIZE DUP4 CALLDATACOPY ADD SWAP1 POP JUMPDEST POP SWAP1 POP DUP4 MLOAD DUP6 PUSH1 0x40 ADD MLOAD MLOAD EQ PUSH2 0x210B JUMPI PUSH1 0x40 MLOAD PUSH3 0x461BCD PUSH1 0xE5 SHL DUP2 MSTORE PUSH1 0x20 PUSH1 0x4 DUP3 ADD MSTORE PUSH1 0x3C PUSH1 0x24 DUP3 ADD MSTORE PUSH32 0x596F7520686176656E277420616464656420746865207269676874206E756D62 PUSH1 0x44 DUP3 ADD MSTORE PUSH32 0x6572206F6620737461727465727320746F207468652062617463682100000000 PUSH1 0x64 DUP3 ADD MSTORE PUSH1 0x84 ADD PUSH2 0x7DE JUMP JUMPDEST PUSH1 0x0 JUMPDEST DUP6 PUSH1 0x40 ADD MLOAD MLOAD DUP2 LT ISZERO PUSH2 0x2384 JUMPI PUSH1 0x0 PUSH1 0xB PUSH1 0x0 DUP8 DUP5 DUP2 MLOAD DUP2 LT PUSH2 0x2141 JUMPI PUSH4 0x4E487B71 PUSH1 0xE0 SHL PUSH1 0x0 MSTORE PUSH1 0x32 PUSH1 0x4 MSTORE PUSH1 0x24 PUSH1 0x0 REVERT JUMPDEST PUSH1 0x20 SWAP1 DUP2 MUL SWAP2 SWAP1 SWAP2 ADD DUP2 ADD MLOAD DUP3 MSTORE DUP2 ADD SWAP2 SWAP1 SWAP2 MSTORE PUSH1 0x40 ADD PUSH1 0x0 KECCAK256 SLOAD PUSH2 0x2173 SWAP1 PUSH1 0x1 PUSH1 0x28 SHL SWAP1 DIV PUSH4 0xFFFFFFFF AND TIMESTAMP PUSH2 0x3771 JUMP JUMPDEST SWAP1 POP DUP7 PUSH1 0x40 ADD MLOAD DUP3 DUP2 MLOAD DUP2 LT PUSH2 0x2199 JUMPI PUSH4 0x4E487B71 PUSH1 0xE0 SHL PUSH1 0x0 MSTORE PUSH1 0x32 PUSH1 0x4 MSTORE PUSH1 0x24 PUSH1 0x0 REVERT JUMPDEST PUSH1 0x20 MUL PUSH1 0x20 ADD ADD MLOAD PUSH4 0xFFFFFFFF AND DUP2 PUSH4 0xFFFFFFFF AND GT PUSH2 0x223B JUMPI PUSH1 0x40 MLOAD PUSH3 0x461BCD PUSH1 0xE5 SHL DUP2 MSTORE PUSH1 0x20 PUSH1 0x4 DUP3 ADD MSTORE PUSH1 0x51 PUSH1 0x24 DUP3 ADD MSTORE PUSH32 0x596F757220737461727465727320617265206E6F74206F6C6420656E6F756768 PUSH1 0x44 DUP3 ADD MSTORE PUSH32 0x2C20706C65617365207573652074686520737461727465727320726571756972 PUSH1 0x64 DUP3 ADD MSTORE PUSH17 0x6564206279207468697320726563697065 PUSH1 0x78 SHL PUSH1 0x84 DUP3 ADD MSTORE PUSH1 0xA4 ADD PUSH2 0x7DE JUMP JUMPDEST TIMESTAMP PUSH1 0xB PUSH1 0x0 DUP9 DUP6 DUP2 MLOAD DUP2 LT PUSH2 0x2260 JUMPI PUSH4 0x4E487B71 PUSH1 0xE0 SHL PUSH1 0x0 MSTORE PUSH1 0x32 PUSH1 0x4 MSTORE PUSH1 0x24 PUSH1 0x0 REVERT JUMPDEST PUSH1 0x20 SWAP1 DUP2 MUL SWAP2 SWAP1 SWAP2 ADD DUP2 ADD MLOAD DUP3 MSTORE DUP2 ADD SWAP2 SWAP1 SWAP2 MSTORE PUSH1 0x40 ADD PUSH1 0x0 KECCAK256 SLOAD PUSH4 0xFFFFFFFF AND LT ISZERO PUSH2 0x2301 JUMPI PUSH1 0x40 MLOAD PUSH3 0x461BCD PUSH1 0xE5 SHL DUP2 MSTORE PUSH1 0x20 PUSH1 0x4 DUP3 ADD MSTORE PUSH1 0x43 PUSH1 0x24 DUP3 ADD MSTORE PUSH32 0x596F757220737461727465727320617265206E6F7420616C6C20616C6976652C PUSH1 0x44 DUP3 ADD MSTORE PUSH32 0x20796F75206D757374207573652061206C6976696E6720696E6772656469656E PUSH1 0x64 DUP3 ADD MSTORE PUSH3 0x742121 PUSH1 0xE8 SHL PUSH1 0x84 DUP3 ADD MSTORE PUSH1 0xA4 ADD PUSH2 0x7DE JUMP JUMPDEST PUSH2 0x2325 CALLER DUP8 DUP5 DUP2 MLOAD DUP2 LT PUSH2 0xF62 JUMPI PUSH4 0x4E487B71 PUSH1 0xE0 SHL PUSH1 0x0 MSTORE PUSH1 0x32 PUSH1 0x4 MSTORE PUSH1 0x24 PUSH1 0x0 REVERT JUMPDEST PUSH1 0x1 EQ PUSH2 0x2344 JUMPI PUSH1 0x40 MLOAD PUSH3 0x461BCD PUSH1 0xE5 SHL DUP2 MSTORE PUSH1 0x4 ADD PUSH2 0x7DE SWAP1 PUSH2 0x352C JUMP JUMPDEST PUSH1 0x1 DUP4 DUP4 DUP2 MLOAD DUP2 LT PUSH2 0x2366 JUMPI PUSH4 0x4E487B71 PUSH1 0xE0 SHL PUSH1 0x0 MSTORE PUSH1 0x32 PUSH1 0x4 MSTORE PUSH1 0x24 PUSH1 0x0 REVERT JUMPDEST PUSH1 0x20 SWAP1 DUP2 MUL SWAP2 SWAP1 SWAP2 ADD ADD MSTORE POP DUP1 PUSH2 0x237C DUP2 PUSH2 0x37F0 JUMP JUMPDEST SWAP2 POP POP PUSH2 0x210E JUMP JUMPDEST POP PUSH2 0x2390 CALLER DUP6 DUP4 PUSH2 0x2ACE JUMP JUMPDEST PUSH2 0x239E CALLER DUP7 PUSH1 0x20 ADD MLOAD PUSH2 0x1CC2 JUMP JUMPDEST POP PUSH1 0x1 SWAP5 SWAP4 POP POP POP POP JUMP JUMPDEST PUSH1 0x0 DUP2 DUP2 MSTORE PUSH1 0xD PUSH1 0x20 MSTORE PUSH1 0x40 DUP1 DUP3 KECCAK256 PUSH1 0x4 SWAP1 DUP2 ADD SLOAD PUSH1 0x25 SLOAD DUP5 MSTORE SWAP2 SWAP1 SWAP3 KECCAK256 SWAP1 SWAP2 ADD SLOAD PUSH1 0x9 SWAP2 SWAP1 JUMPDEST DUP1 DUP3 GT DUP1 ISZERO PUSH2 0x23DD JUMPI POP PUSH1 0x1 JUMPDEST ISZERO PUSH2 0x2472 JUMPI PUSH1 0x1C DUP4 PUSH1 0xB DUP2 LT PUSH2 0x2403 JUMPI PUSH4 0x4E487B71 PUSH1 0xE0 SHL PUSH1 0x0 MSTORE PUSH1 0x32 PUSH1 0x4 MSTORE PUSH1 0x24 PUSH1 0x0 REVERT JUMPDEST ADD SLOAD PUSH1 0x1C PUSH2 0x2412 DUP6 PUSH1 0x1 PUSH2 0x36ED JUMP JUMPDEST PUSH1 0xB DUP2 LT PUSH2 0x2430 JUMPI PUSH4 0x4E487B71 PUSH1 0xE0 SHL PUSH1 0x0 MSTORE PUSH1 0x32 PUSH1 0x4 MSTORE PUSH1 0x24 PUSH1 0x0 REVERT JUMPDEST ADD SSTORE DUP4 PUSH1 0x1C DUP5 PUSH1 0xB DUP2 LT PUSH2 0x2454 JUMPI PUSH4 0x4E487B71 PUSH1 0xE0 SHL PUSH1 0x0 MSTORE PUSH1 0x32 PUSH1 0x4 MSTORE PUSH1 0x24 PUSH1 0x0 REVERT JUMPDEST ADD SSTORE DUP3 PUSH2 0x2460 JUMPI PUSH2 0x2472 JUMP JUMPDEST PUSH2 0x246B PUSH1 0x1 DUP5 PUSH2 0x3771 JUMP JUMPDEST SWAP3 POP PUSH2 0x23D0 JUMP JUMPDEST POP POP POP POP JUMP JUMPDEST PUSH1 0x1 PUSH1 0x1 PUSH1 0xA0 SHL SUB DUP4 AND PUSH2 0x249E JUMPI PUSH1 0x40 MLOAD PUSH3 0x461BCD PUSH1 0xE5 SHL DUP2 MSTORE PUSH1 0x4 ADD PUSH2 0x7DE SWAP1 PUSH2 0x35F4 JUMP JUMPDEST CALLER PUSH2 0x24CE DUP2 DUP6 PUSH1 0x0 PUSH2 0x24AF DUP8 PUSH2 0x26D1 JUMP JUMPDEST PUSH2 0x24B8 DUP8 PUSH2 0x26D1 JUMP JUMPDEST POP POP PUSH1 0x40 DUP1 MLOAD PUSH1 0x20 DUP2 ADD SWAP1 SWAP2 MSTORE PUSH1 0x0 SWAP1 MSTORE POP POP POP JUMP JUMPDEST PUSH1 0x0 DUP4 DUP2 MSTORE PUSH1 0x1 PUSH1 0x20 SWAP1 DUP2 MSTORE PUSH1 0x40 DUP1 DUP4 KECCAK256 PUSH1 0x1 PUSH1 0x1 PUSH1 0xA0 SHL SUB DUP9 AND DUP5 MSTORE SWAP1 SWAP2 MSTORE SWAP1 KECCAK256 SLOAD DUP3 DUP2 LT ISZERO PUSH2 0x2511 JUMPI PUSH1 0x40 MLOAD PUSH3 0x461BCD PUSH1 0xE5 SHL DUP2 MSTORE PUSH1 0x4 ADD PUSH2 0x7DE SWAP1 PUSH2 0x34E8 JUMP JUMPDEST PUSH1 0x0 PUSH2 0x251D DUP5 DUP4 PUSH2 0x3771 JUMP JUMPDEST PUSH1 0x0 DUP7 DUP2 MSTORE PUSH1 0x1 PUSH1 0x20 SWAP1 DUP2 MSTORE PUSH1 0x40 DUP1 DUP4 KECCAK256 PUSH1 0x1 PUSH1 0x1 PUSH1 0xA0 SHL SUB DUP12 AND DUP5 MSTORE SWAP1 SWAP2 MSTORE SWAP1 KECCAK256 DUP2 SWAP1 SSTORE SWAP1 POP DUP1 PUSH2 0x256D JUMPI PUSH1 0x1 PUSH1 0x1 PUSH1 0xA0 SHL SUB DUP7 AND PUSH1 0x0 SWAP1 DUP2 MSTORE PUSH1 0x20 DUP2 SWAP1 MSTORE PUSH1 0x40 SWAP1 KECCAK256 PUSH2 0x256B SWAP1 DUP7 PUSH2 0x1E34 JUMP JUMPDEST POP JUMPDEST PUSH1 0x40 DUP1 MLOAD DUP7 DUP2 MSTORE PUSH1 0x20 DUP2 ADD DUP7 SWAP1 MSTORE PUSH1 0x0 SWAP2 PUSH1 0x1 PUSH1 0x1 PUSH1 0xA0 SHL SUB DUP10 DUP2 AND SWAP3 SWAP1 DUP8 AND SWAP2 PUSH32 0xC3D58168C5AE7397731D063D5BBF3D657854427343F4C083240F7AACAA2D0F62 SWAP2 ADD PUSH1 0x40 MLOAD DUP1 SWAP2 SUB SWAP1 LOG4 POP POP POP POP POP POP JUMP JUMPDEST PUSH1 0x1 PUSH1 0x1 PUSH1 0xA0 SHL SUB DUP2 DUP2 AND PUSH1 0x0 SWAP1 DUP2 MSTORE PUSH1 0xF PUSH1 0x20 MSTORE PUSH1 0x40 DUP1 DUP3 KECCAK256 SLOAD PUSH1 0x30 SLOAD SWAP1 SWAP4 AND DUP3 MSTORE SWAP1 KECCAK256 SLOAD PUSH1 0x9 SWAP2 SWAP1 JUMPDEST DUP1 DUP3 GT DUP1 ISZERO PUSH2 0x25F9 JUMPI POP PUSH1 0x1 JUMPDEST ISZERO PUSH2 0x2472 JUMPI PUSH1 0x27 DUP4 PUSH1 0xB DUP2 LT PUSH2 0x261F JUMPI PUSH4 0x4E487B71 PUSH1 0xE0 SHL PUSH1 0x0 MSTORE PUSH1 0x32 PUSH1 0x4 MSTORE PUSH1 0x24 PUSH1 0x0 REVERT JUMPDEST ADD SLOAD PUSH1 0x1 PUSH1 0x1 PUSH1 0xA0 SHL SUB AND PUSH1 0x27 PUSH2 0x2637 DUP6 PUSH1 0x1 PUSH2 0x36ED JUMP JUMPDEST PUSH1 0xB DUP2 LT PUSH2 0x2655 JUMPI PUSH4 0x4E487B71 PUSH1 0xE0 SHL PUSH1 0x0 MSTORE PUSH1 0x32 PUSH1 0x4 MSTORE PUSH1 0x24 PUSH1 0x0 REVERT JUMPDEST ADD DUP1 SLOAD PUSH1 0x1 PUSH1 0x1 PUSH1 0xA0 SHL SUB NOT AND PUSH1 0x1 PUSH1 0x1 PUSH1 0xA0 SHL SUB SWAP3 SWAP1 SWAP3 AND SWAP2 SWAP1 SWAP2 OR SWAP1 SSTORE DUP4 PUSH1 0x27 DUP5 PUSH1 0xB DUP2 LT PUSH2 0x2696 JUMPI PUSH4 0x4E487B71 PUSH1 0xE0 SHL PUSH1 0x0 MSTORE PUSH1 0x32 PUSH1 0x4 MSTORE PUSH1 0x24 PUSH1 0x0 REVERT JUMPDEST ADD DUP1 SLOAD PUSH1 0x1 PUSH1 0x1 PUSH1 0xA0 SHL SUB NOT AND PUSH1 0x1 PUSH1 0x1 PUSH1 0xA0 SHL SUB SWAP3 SWAP1 SWAP3 AND SWAP2 SWAP1 SWAP2 OR SWAP1 SSTORE DUP3 PUSH2 0x26BF JUMPI PUSH2 0x2472 JUMP JUMPDEST PUSH2 0x26CA PUSH1 0x1 DUP5 PUSH2 0x3771 JUMP JUMPDEST SWAP3 POP PUSH2 0x25EC JUMP JUMPDEST PUSH1 0x40 DUP1 MLOAD PUSH1 0x1 DUP1 DUP3 MSTORE DUP2 DUP4 ADD SWAP1 SWAP3 MSTORE PUSH1 0x60 SWAP2 PUSH1 0x0 SWAP2 SWAP1 PUSH1 0x20 DUP1 DUP4 ADD SWAP1 DUP1 CALLDATASIZE DUP4 CALLDATACOPY ADD SWAP1 POP POP SWAP1 POP DUP3 DUP2 PUSH1 0x0 DUP2 MLOAD DUP2 LT PUSH2 0x2719 JUMPI PUSH4 0x4E487B71 PUSH1 0xE0 SHL PUSH1 0x0 MSTORE PUSH1 0x32 PUSH1 0x4 MSTORE PUSH1 0x24 PUSH1 0x0 REVERT JUMPDEST PUSH1 0x20 SWAP1 DUP2 MUL SWAP2 SWAP1 SWAP2 ADD ADD MSTORE SWAP3 SWAP2 POP POP JUMP JUMPDEST PUSH1 0x1 PUSH1 0x1 PUSH1 0xA0 SHL SUB DUP5 AND EXTCODESIZE ISZERO PUSH2 0xD9F JUMPI PUSH1 0x40 MLOAD PUSH4 0xF23A6E61 PUSH1 0xE0 SHL DUP2 MSTORE PUSH1 0x1 PUSH1 0x1 PUSH1 0xA0 SHL SUB DUP6 AND SWAP1 PUSH4 0xF23A6E61 SWAP1 PUSH2 0x276E SWAP1 DUP10 SWAP1 DUP10 SWAP1 DUP9 SWAP1 DUP9 SWAP1 DUP9 SWAP1 PUSH1 0x4 ADD PUSH2 0x3407 JUMP JUMPDEST PUSH1 0x20 PUSH1 0x40 MLOAD DUP1 DUP4 SUB DUP2 PUSH1 0x0 DUP8 DUP1 EXTCODESIZE ISZERO DUP1 ISZERO PUSH2 0x2788 JUMPI PUSH1 0x0 DUP1 REVERT JUMPDEST POP GAS CALL SWAP3 POP POP POP DUP1 ISZERO PUSH2 0x27B8 JUMPI POP PUSH1 0x40 DUP1 MLOAD PUSH1 0x1F RETURNDATASIZE SWAP1 DUP2 ADD PUSH1 0x1F NOT AND DUP3 ADD SWAP1 SWAP3 MSTORE PUSH2 0x27B5 SWAP2 DUP2 ADD SWAP1 PUSH2 0x3187 JUMP JUMPDEST PUSH1 0x1 JUMPDEST PUSH2 0x27C4 JUMPI PUSH2 0x1EDA PUSH2 0x3837 JUMP JUMPDEST PUSH1 0x1 PUSH1 0x1 PUSH1 0xE0 SHL SUB NOT DUP2 AND PUSH4 0xF23A6E61 PUSH1 0xE0 SHL EQ PUSH2 0x1B6E JUMPI PUSH1 0x40 MLOAD PUSH3 0x461BCD PUSH1 0xE5 SHL DUP2 MSTORE PUSH1 0x4 ADD PUSH2 0x7DE SWAP1 PUSH2 0x34A0 JUMP JUMPDEST PUSH1 0x0 DUP2 DUP2 MSTORE PUSH1 0xB PUSH1 0x20 MSTORE PUSH1 0x40 DUP1 DUP3 KECCAK256 SLOAD PUSH1 0x1A SLOAD DUP4 MSTORE SWAP2 KECCAK256 SLOAD PUSH1 0x9 SWAP2 PUSH4 0xFFFFFFFF PUSH1 0x1 PUSH1 0x28 SHL SWAP2 DUP3 SWAP1 DIV DUP2 AND SWAP3 SWAP2 SWAP1 SWAP2 DIV AND JUMPDEST DUP1 PUSH4 0xFFFFFFFF AND DUP3 PUSH4 0xFFFFFFFF AND LT DUP1 ISZERO PUSH2 0x283F JUMPI POP PUSH1 0x1 JUMPDEST ISZERO PUSH2 0x2472 JUMPI PUSH1 0x11 DUP4 PUSH1 0xB DUP2 LT PUSH2 0x2865 JUMPI PUSH4 0x4E487B71 PUSH1 0xE0 SHL PUSH1 0x0 MSTORE PUSH1 0x32 PUSH1 0x4 MSTORE PUSH1 0x24 PUSH1 0x0 REVERT JUMPDEST ADD SLOAD PUSH1 0x11 PUSH2 0x2874 DUP6 PUSH1 0x1 PUSH2 0x36ED JUMP JUMPDEST PUSH1 0xB DUP2 LT PUSH2 0x2892 JUMPI PUSH4 0x4E487B71 PUSH1 0xE0 SHL PUSH1 0x0 MSTORE PUSH1 0x32 PUSH1 0x4 MSTORE PUSH1 0x24 PUSH1 0x0 REVERT JUMPDEST ADD SSTORE DUP4 PUSH1 0x11 DUP5 PUSH1 0xB DUP2 LT PUSH2 0x28B6 JUMPI PUSH4 0x4E487B71 PUSH1 0xE0 SHL PUSH1 0x0 MSTORE PUSH1 0x32 PUSH1 0x4 MSTORE PUSH1 0x24 PUSH1 0x0 REVERT JUMPDEST ADD SSTORE DUP3 PUSH2 0x28C2 JUMPI PUSH2 0x2472 JUMP JUMPDEST PUSH2 0x28CD PUSH1 0x1 DUP5 PUSH2 0x3771 JUMP JUMPDEST SWAP3 POP PUSH2 0x2826 JUMP JUMPDEST PUSH1 0x0 DUP2 DUP2 MSTORE PUSH1 0x1 DUP4 ADD PUSH1 0x20 MSTORE PUSH1 0x40 DUP2 KECCAK256 SLOAD PUSH2 0x291B JUMPI POP DUP2 SLOAD PUSH1 0x1 DUP2 DUP2 ADD DUP5 SSTORE PUSH1 0x0 DUP5 DUP2 MSTORE PUSH1 0x20 DUP1 DUP3 KECCAK256 SWAP1 SWAP4 ADD DUP5 SWAP1 SSTORE DUP5 SLOAD DUP5 DUP3 MSTORE DUP3 DUP7 ADD SWAP1 SWAP4 MSTORE PUSH1 0x40 SWAP1 KECCAK256 SWAP2 SWAP1 SWAP2 SSTORE PUSH2 0x80C JUMP JUMPDEST POP PUSH1 0x0 PUSH2 0x80C JUMP JUMPDEST PUSH1 0x0 DUP2 DUP2 MSTORE PUSH1 0x1 DUP4 ADD PUSH1 0x20 MSTORE PUSH1 0x40 DUP2 KECCAK256 SLOAD DUP1 ISZERO PUSH2 0x2A30 JUMPI PUSH1 0x0 PUSH2 0x2947 PUSH1 0x1 DUP4 PUSH2 0x3771 JUMP JUMPDEST DUP6 SLOAD SWAP1 SWAP2 POP PUSH1 0x0 SWAP1 PUSH2 0x295B SWAP1 PUSH1 0x1 SWAP1 PUSH2 0x3771 JUMP JUMPDEST SWAP1 POP PUSH1 0x0 DUP7 PUSH1 0x0 ADD DUP3 DUP2 SLOAD DUP2 LT PUSH2 0x2982 JUMPI PUSH4 0x4E487B71 PUSH1 0xE0 SHL PUSH1 0x0 MSTORE PUSH1 0x32 PUSH1 0x4 MSTORE PUSH1 0x24 PUSH1 0x0 REVERT JUMPDEST SWAP1 PUSH1 0x0 MSTORE PUSH1 0x20 PUSH1 0x0 KECCAK256 ADD SLOAD SWAP1 POP DUP1 DUP8 PUSH1 0x0 ADD DUP5 DUP2 SLOAD DUP2 LT PUSH2 0x29B3 JUMPI PUSH4 0x4E487B71 PUSH1 0xE0 SHL PUSH1 0x0 MSTORE PUSH1 0x32 PUSH1 0x4 MSTORE PUSH1 0x24 PUSH1 0x0 REVERT JUMPDEST PUSH1 0x0 SWAP2 DUP3 MSTORE PUSH1 0x20 DUP1 DUP4 KECCAK256 SWAP1 SWAP2 ADD SWAP3 SWAP1 SWAP3 SSTORE DUP3 DUP2 MSTORE PUSH1 0x1 DUP10 ADD SWAP1 SWAP2 MSTORE PUSH1 0x40 SWAP1 KECCAK256 DUP5 SWAP1 SSTORE DUP7 SLOAD DUP8 SWAP1 DUP1 PUSH2 0x29F4 JUMPI PUSH4 0x4E487B71 PUSH1 0xE0 SHL PUSH1 0x0 MSTORE PUSH1 0x31 PUSH1 0x4 MSTORE PUSH1 0x24 PUSH1 0x0 REVERT JUMPDEST PUSH1 0x1 SWAP1 SUB DUP2 DUP2 SWAP1 PUSH1 0x0 MSTORE PUSH1 0x20 PUSH1 0x0 KECCAK256 ADD PUSH1 0x0 SWAP1 SSTORE SWAP1 SSTORE DUP7 PUSH1 0x1 ADD PUSH1 0x0 DUP8 DUP2 MSTORE PUSH1 0x20 ADD SWAP1 DUP2 MSTORE PUSH1 0x20 ADD PUSH1 0x0 KECCAK256 PUSH1 0x0 SWAP1 SSTORE PUSH1 0x1 SWAP5 POP POP POP POP POP PUSH2 0x80C JUMP JUMPDEST PUSH1 0x0 SWAP2 POP POP PUSH2 0x80C JUMP JUMPDEST DUP2 SLOAD PUSH1 0x0 SWAP1 DUP3 LT PUSH2 0x2A98 JUMPI PUSH1 0x40 MLOAD PUSH3 0x461BCD PUSH1 0xE5 SHL DUP2 MSTORE PUSH1 0x20 PUSH1 0x4 DUP3 ADD MSTORE PUSH1 0x22 PUSH1 0x24 DUP3 ADD MSTORE PUSH32 0x456E756D657261626C655365743A20696E646578206F7574206F6620626F756E PUSH1 0x44 DUP3 ADD MSTORE PUSH2 0x6473 PUSH1 0xF0 SHL PUSH1 0x64 DUP3 ADD MSTORE PUSH1 0x84 ADD PUSH2 0x7DE JUMP JUMPDEST DUP3 PUSH1 0x0 ADD DUP3 DUP2 SLOAD DUP2 LT PUSH2 0x2ABB JUMPI PUSH4 0x4E487B71 PUSH1 0xE0 SHL PUSH1 0x0 MSTORE PUSH1 0x32 PUSH1 0x4 MSTORE PUSH1 0x24 PUSH1 0x0 REVERT JUMPDEST SWAP1 PUSH1 0x0 MSTORE PUSH1 0x20 PUSH1 0x0 KECCAK256 ADD SLOAD SWAP1 POP SWAP3 SWAP2 POP POP JUMP JUMPDEST PUSH1 0x1 PUSH1 0x1 PUSH1 0xA0 SHL SUB DUP4 AND PUSH2 0x2AF4 JUMPI PUSH1 0x40 MLOAD PUSH3 0x461BCD PUSH1 0xE5 SHL DUP2 MSTORE PUSH1 0x4 ADD PUSH2 0x7DE SWAP1 PUSH2 0x35F4 JUMP JUMPDEST DUP1 MLOAD DUP3 MLOAD EQ PUSH2 0x2B15 JUMPI PUSH1 0x40 MLOAD PUSH3 0x461BCD PUSH1 0xE5 SHL DUP2 MSTORE PUSH1 0x4 ADD PUSH2 0x7DE SWAP1 PUSH2 0x3681 JUMP JUMPDEST PUSH1 0x40 DUP1 MLOAD PUSH1 0x20 DUP2 ADD SWAP1 SWAP2 MSTORE PUSH1 0x0 SWAP1 DUP2 SWAP1 MSTORE CALLER SWAP1 JUMPDEST DUP4 MLOAD DUP2 LT ISZERO PUSH2 0x2C42 JUMPI PUSH1 0x0 DUP5 DUP3 DUP2 MLOAD DUP2 LT PUSH2 0x2B54 JUMPI PUSH4 0x4E487B71 PUSH1 0xE0 SHL PUSH1 0x0 MSTORE PUSH1 0x32 PUSH1 0x4 MSTORE PUSH1 0x24 PUSH1 0x0 REVERT JUMPDEST PUSH1 0x20 MUL PUSH1 0x20 ADD ADD MLOAD SWAP1 POP PUSH1 0x0 DUP5 DUP4 DUP2 MLOAD DUP2 LT PUSH2 0x2B80 JUMPI PUSH4 0x4E487B71 PUSH1 0xE0 SHL PUSH1 0x0 MSTORE PUSH1 0x32 PUSH1 0x4 MSTORE PUSH1 0x24 PUSH1 0x0 REVERT JUMPDEST PUSH1 0x20 SWAP1 DUP2 MUL SWAP2 SWAP1 SWAP2 ADD DUP2 ADD MLOAD PUSH1 0x0 DUP5 DUP2 MSTORE PUSH1 0x1 DUP4 MSTORE PUSH1 0x40 DUP1 DUP3 KECCAK256 PUSH1 0x1 PUSH1 0x1 PUSH1 0xA0 SHL SUB DUP13 AND DUP4 MSTORE SWAP1 SWAP4 MSTORE SWAP2 DUP3 KECCAK256 SLOAD SWAP1 SWAP3 POP SWAP1 PUSH2 0x2BBB DUP4 DUP4 PUSH2 0x3771 JUMP JUMPDEST SWAP1 POP DUP3 DUP3 LT ISZERO PUSH2 0x2BDD JUMPI PUSH1 0x40 MLOAD PUSH3 0x461BCD PUSH1 0xE5 SHL DUP2 MSTORE PUSH1 0x4 ADD PUSH2 0x7DE SWAP1 PUSH2 0x34E8 JUMP JUMPDEST PUSH1 0x0 DUP5 DUP2 MSTORE PUSH1 0x1 PUSH1 0x20 SWAP1 DUP2 MSTORE PUSH1 0x40 DUP1 DUP4 KECCAK256 PUSH1 0x1 PUSH1 0x1 PUSH1 0xA0 SHL SUB DUP14 AND DUP5 MSTORE SWAP1 SWAP2 MSTORE SWAP1 KECCAK256 DUP2 SWAP1 SSTORE DUP1 PUSH2 0x2C2B JUMPI PUSH1 0x1 PUSH1 0x1 PUSH1 0xA0 SHL SUB DUP10 AND PUSH1 0x0 SWAP1 DUP2 MSTORE PUSH1 0x20 DUP2 SWAP1 MSTORE PUSH1 0x40 SWAP1 KECCAK256 PUSH2 0x2C29 SWAP1 DUP6 PUSH2 0x1E34 JUMP JUMPDEST POP JUMPDEST POP POP POP POP DUP1 DUP1 PUSH2 0x2C3A SWAP1 PUSH2 0x37F0 JUMP JUMPDEST SWAP2 POP POP PUSH2 0x2B29 JUMP JUMPDEST POP PUSH1 0x0 PUSH1 0x1 PUSH1 0x1 PUSH1 0xA0 SHL SUB AND DUP5 PUSH1 0x1 PUSH1 0x1 PUSH1 0xA0 SHL SUB AND DUP3 PUSH1 0x1 PUSH1 0x1 PUSH1 0xA0 SHL SUB AND PUSH32 0x4A39DC06D4C0DBC64B70AF90FD698A233A518AA5D07E595D983B8C0526C8F7FB DUP7 DUP7 PUSH1 0x40 MLOAD PUSH2 0x2C93 SWAP3 SWAP2 SWAP1 PUSH2 0x345F JUMP JUMPDEST PUSH1 0x40 MLOAD DUP1 SWAP2 SUB SWAP1 LOG4 POP POP POP POP JUMP JUMPDEST DUP3 DUP1 SLOAD PUSH2 0x2CAD SWAP1 PUSH2 0x3788 JUMP JUMPDEST SWAP1 PUSH1 0x0 MSTORE PUSH1 0x20 PUSH1 0x0 KECCAK256 SWAP1 PUSH1 0x1F ADD PUSH1 0x20 SWAP1 DIV DUP2 ADD SWAP3 DUP3 PUSH2 0x2CCF JUMPI PUSH1 0x0 DUP6 SSTORE PUSH2 0x2D15 JUMP JUMPDEST DUP3 PUSH1 0x1F LT PUSH2 0x2CE8 JUMPI DUP1 MLOAD PUSH1 0xFF NOT AND DUP4 DUP1 ADD OR DUP6 SSTORE PUSH2 0x2D15 JUMP JUMPDEST DUP3 DUP1 ADD PUSH1 0x1 ADD DUP6 SSTORE DUP3 ISZERO PUSH2 0x2D15 JUMPI SWAP2 DUP3 ADD JUMPDEST DUP3 DUP2 GT ISZERO PUSH2 0x2D15 JUMPI DUP3 MLOAD DUP3 SSTORE SWAP2 PUSH1 0x20 ADD SWAP2 SWAP1 PUSH1 0x1 ADD SWAP1 PUSH2 0x2CFA JUMP JUMPDEST POP PUSH2 0x2D21 SWAP3 SWAP2 POP PUSH2 0x2DCB JUMP JUMPDEST POP SWAP1 JUMP JUMPDEST DUP3 DUP1 SLOAD DUP3 DUP3 SSTORE SWAP1 PUSH1 0x0 MSTORE PUSH1 0x20 PUSH1 0x0 KECCAK256 SWAP1 PUSH1 0x7 ADD PUSH1 0x8 SWAP1 DIV DUP2 ADD SWAP3 DUP3 ISZERO PUSH2 0x2D15 JUMPI SWAP2 PUSH1 0x20 MUL DUP3 ADD PUSH1 0x0 JUMPDEST DUP4 DUP3 GT ISZERO PUSH2 0x2D92 JUMPI DUP4 MLOAD DUP4 DUP3 PUSH2 0x100 EXP DUP2 SLOAD DUP2 PUSH4 0xFFFFFFFF MUL NOT AND SWAP1 DUP4 PUSH4 0xFFFFFFFF AND MUL OR SWAP1 SSTORE POP SWAP3 PUSH1 0x20 ADD SWAP3 PUSH1 0x4 ADD PUSH1 0x20 DUP2 PUSH1 0x3 ADD DIV SWAP3 DUP4 ADD SWAP3 PUSH1 0x1 SUB MUL PUSH2 0x2D4E JUMP JUMPDEST DUP1 ISZERO PUSH2 0x2DC2 JUMPI DUP3 DUP2 PUSH2 0x100 EXP DUP2 SLOAD SWAP1 PUSH4 0xFFFFFFFF MUL NOT AND SWAP1 SSTORE PUSH1 0x4 ADD PUSH1 0x20 DUP2 PUSH1 0x3 ADD DIV SWAP3 DUP4 ADD SWAP3 PUSH1 0x1 SUB MUL PUSH2 0x2D92 JUMP JUMPDEST POP POP PUSH2 0x2D21 SWAP3 SWAP2 POP JUMPDEST JUMPDEST DUP1 DUP3 GT ISZERO PUSH2 0x2D21 JUMPI PUSH1 0x0 DUP2 SSTORE PUSH1 0x1 ADD PUSH2 0x2DCC JUMP JUMPDEST PUSH1 0x0 PUSH8 0xFFFFFFFFFFFFFFFF DUP4 GT ISZERO PUSH2 0x2DFA JUMPI PUSH2 0x2DFA PUSH2 0x3821 JUMP JUMPDEST PUSH1 0x40 MLOAD PUSH2 0x2E11 PUSH1 0x1F DUP6 ADD PUSH1 0x1F NOT AND PUSH1 0x20 ADD DUP3 PUSH2 0x37C3 JUMP JUMPDEST DUP1 SWAP2 POP DUP4 DUP2 MSTORE DUP5 DUP5 DUP5 ADD GT ISZERO PUSH2 0x2E26 JUMPI PUSH1 0x0 DUP1 REVERT JUMPDEST DUP4 DUP4 PUSH1 0x20 DUP4 ADD CALLDATACOPY PUSH1 0x0 PUSH1 0x20 DUP6 DUP4 ADD ADD MSTORE POP SWAP4 SWAP3 POP POP POP JUMP JUMPDEST DUP1 CALLDATALOAD PUSH1 0x1 PUSH1 0x1 PUSH1 0xA0 SHL SUB DUP2 AND DUP2 EQ PUSH2 0x861 JUMPI PUSH1 0x0 DUP1 REVERT JUMPDEST PUSH1 0x0 DUP3 PUSH1 0x1F DUP4 ADD SLT PUSH2 0x2E65 JUMPI DUP1 DUP2 REVERT JUMPDEST DUP2 CALLDATALOAD PUSH1 0x20 PUSH2 0x2E72 DUP3 PUSH2 0x36C9 JUMP JUMPDEST PUSH1 0x40 MLOAD PUSH2 0x2E7F DUP3 DUP3 PUSH2 0x37C3 JUMP JUMPDEST DUP4 DUP2 MSTORE DUP3 DUP2 ADD SWAP2 POP DUP6 DUP4 ADD PUSH1 0x5 DUP6 SWAP1 SHL DUP8 ADD DUP5 ADD DUP9 LT ISZERO PUSH2 0x2E9E JUMPI DUP6 DUP7 REVERT JUMPDEST DUP6 JUMPDEST DUP6 DUP2 LT ISZERO PUSH2 0x2EBC JUMPI DUP2 CALLDATALOAD DUP5 MSTORE SWAP3 DUP5 ADD SWAP3 SWAP1 DUP5 ADD SWAP1 PUSH1 0x1 ADD PUSH2 0x2EA0 JUMP JUMPDEST POP SWAP1 SWAP8 SWAP7 POP POP POP POP POP POP POP JUMP JUMPDEST PUSH1 0x0 DUP3 PUSH1 0x1F DUP4 ADD SLT PUSH2 0x2ED9 JUMPI DUP1 DUP2 REVERT JUMPDEST PUSH2 0xDC9 DUP4 DUP4 CALLDATALOAD PUSH1 0x20 DUP6 ADD PUSH2 0x2DE0 JUMP JUMPDEST PUSH1 0x0 PUSH1 0x20 DUP3 DUP5 SUB SLT ISZERO PUSH2 0x2EF9 JUMPI DUP1 DUP2 REVERT JUMPDEST PUSH2 0xDC9 DUP3 PUSH2 0x2E3E JUMP JUMPDEST PUSH1 0x0 DUP1 PUSH1 0x40 DUP4 DUP6 SUB SLT ISZERO PUSH2 0x2F14 JUMPI DUP1 DUP2 REVERT JUMPDEST PUSH2 0x2F1D DUP4 PUSH2 0x2E3E JUMP JUMPDEST SWAP2 POP PUSH2 0x2F2B PUSH1 0x20 DUP5 ADD PUSH2 0x2E3E JUMP JUMPDEST SWAP1 POP SWAP3 POP SWAP3 SWAP1 POP JUMP JUMPDEST PUSH1 0x0 DUP1 PUSH1 0x0 DUP1 PUSH1 0x0 PUSH1 0xA0 DUP7 DUP9 SUB SLT ISZERO PUSH2 0x2F4B JUMPI DUP1 DUP2 REVERT JUMPDEST PUSH2 0x2F54 DUP7 PUSH2 0x2E3E JUMP JUMPDEST SWAP5 POP PUSH2 0x2F62 PUSH1 0x20 DUP8 ADD PUSH2 0x2E3E JUMP JUMPDEST SWAP4 POP PUSH1 0x40 DUP7 ADD CALLDATALOAD PUSH8 0xFFFFFFFFFFFFFFFF DUP1 DUP3 GT ISZERO PUSH2 0x2F7E JUMPI DUP3 DUP4 REVERT JUMPDEST PUSH2 0x2F8A DUP10 DUP4 DUP11 ADD PUSH2 0x2E55 JUMP JUMPDEST SWAP5 POP PUSH1 0x60 DUP9 ADD CALLDATALOAD SWAP2 POP DUP1 DUP3 GT ISZERO PUSH2 0x2F9F JUMPI DUP3 DUP4 REVERT JUMPDEST PUSH2 0x2FAB DUP10 DUP4 DUP11 ADD PUSH2 0x2E55 JUMP JUMPDEST SWAP4 POP PUSH1 0x80 DUP9 ADD CALLDATALOAD SWAP2 POP DUP1 DUP3 GT ISZERO PUSH2 0x2FC0 JUMPI DUP3 DUP4 REVERT JUMPDEST POP PUSH2 0x2FCD DUP9 DUP3 DUP10 ADD PUSH2 0x2EC9 JUMP JUMPDEST SWAP2 POP POP SWAP3 SWAP6 POP SWAP3 SWAP6 SWAP1 SWAP4 POP JUMP JUMPDEST PUSH1 0x0 DUP1 PUSH1 0x0 DUP1 PUSH1 0x0 PUSH1 0xA0 DUP7 DUP9 SUB SLT ISZERO PUSH2 0x2FF1 JUMPI DUP1 DUP2 REVERT JUMPDEST PUSH2 0x2FFA DUP7 PUSH2 0x2E3E JUMP JUMPDEST SWAP5 POP PUSH2 0x3008 PUSH1 0x20 DUP8 ADD PUSH2 0x2E3E JUMP JUMPDEST SWAP4 POP PUSH1 0x40 DUP7 ADD CALLDATALOAD SWAP3 POP PUSH1 0x60 DUP7 ADD CALLDATALOAD SWAP2 POP PUSH1 0x80 DUP7 ADD CALLDATALOAD PUSH8 0xFFFFFFFFFFFFFFFF DUP2 GT ISZERO PUSH2 0x3031 JUMPI DUP2 DUP3 REVERT JUMPDEST PUSH2 0x2FCD DUP9 DUP3 DUP10 ADD PUSH2 0x2EC9 JUMP JUMPDEST PUSH1 0x0 DUP1 PUSH1 0x40 DUP4 DUP6 SUB SLT ISZERO PUSH2 0x304F JUMPI DUP2 DUP3 REVERT JUMPDEST PUSH2 0x3058 DUP4 PUSH2 0x2E3E JUMP JUMPDEST SWAP2 POP PUSH1 0x20 DUP4 ADD CALLDATALOAD DUP1 ISZERO ISZERO DUP2 EQ PUSH2 0x306C JUMPI DUP2 DUP3 REVERT JUMPDEST DUP1 SWAP2 POP POP SWAP3 POP SWAP3 SWAP1 POP JUMP JUMPDEST PUSH1 0x0 DUP1 PUSH1 0x40 DUP4 DUP6 SUB SLT ISZERO PUSH2 0x3089 JUMPI DUP1 DUP2 REVERT JUMPDEST PUSH2 0x3092 DUP4 PUSH2 0x2E3E JUMP JUMPDEST SWAP5 PUSH1 0x20 SWAP4 SWAP1 SWAP4 ADD CALLDATALOAD SWAP4 POP POP POP JUMP JUMPDEST PUSH1 0x0 DUP1 PUSH1 0x40 DUP4 DUP6 SUB SLT ISZERO PUSH2 0x30B2 JUMPI DUP2 DUP3 REVERT JUMPDEST DUP3 CALLDATALOAD PUSH8 0xFFFFFFFFFFFFFFFF DUP1 DUP3 GT ISZERO PUSH2 0x30C9 JUMPI DUP4 DUP5 REVERT JUMPDEST DUP2 DUP6 ADD SWAP2 POP DUP6 PUSH1 0x1F DUP4 ADD SLT PUSH2 0x30DC JUMPI DUP4 DUP5 REVERT JUMPDEST DUP2 CALLDATALOAD PUSH1 0x20 PUSH2 0x30E9 DUP3 PUSH2 0x36C9 JUMP JUMPDEST PUSH1 0x40 MLOAD PUSH2 0x30F6 DUP3 DUP3 PUSH2 0x37C3 JUMP JUMPDEST DUP4 DUP2 MSTORE DUP3 DUP2 ADD SWAP2 POP DUP6 DUP4 ADD PUSH1 0x5 DUP6 SWAP1 SHL DUP8 ADD DUP5 ADD DUP12 LT ISZERO PUSH2 0x3115 JUMPI DUP9 DUP10 REVERT JUMPDEST DUP9 SWAP7 POP JUMPDEST DUP5 DUP8 LT ISZERO PUSH2 0x313E JUMPI PUSH2 0x312A DUP2 PUSH2 0x2E3E JUMP JUMPDEST DUP4 MSTORE PUSH1 0x1 SWAP7 SWAP1 SWAP7 ADD SWAP6 SWAP2 DUP4 ADD SWAP2 DUP4 ADD PUSH2 0x3119 JUMP JUMPDEST POP SWAP7 POP POP DUP7 ADD CALLDATALOAD SWAP3 POP POP DUP1 DUP3 GT ISZERO PUSH2 0x3154 JUMPI DUP3 DUP4 REVERT JUMPDEST POP PUSH2 0x3161 DUP6 DUP3 DUP7 ADD PUSH2 0x2E55 JUMP JUMPDEST SWAP2 POP POP SWAP3 POP SWAP3 SWAP1 POP JUMP JUMPDEST PUSH1 0x0 PUSH1 0x20 DUP3 DUP5 SUB SLT ISZERO PUSH2 0x317C JUMPI DUP1 DUP2 REVERT JUMPDEST DUP2 CALLDATALOAD PUSH2 0xDC9 DUP2 PUSH2 0x38E0 JUMP JUMPDEST PUSH1 0x0 PUSH1 0x20 DUP3 DUP5 SUB SLT ISZERO PUSH2 0x3198 JUMPI DUP1 DUP2 REVERT JUMPDEST DUP2 MLOAD PUSH2 0xDC9 DUP2 PUSH2 0x38E0 JUMP JUMPDEST PUSH1 0x0 DUP1 PUSH1 0x0 DUP1 PUSH1 0x80 DUP6 DUP8 SUB SLT ISZERO PUSH2 0x31B8 JUMPI DUP2 DUP3 REVERT JUMPDEST DUP5 CALLDATALOAD PUSH8 0xFFFFFFFFFFFFFFFF DUP1 DUP3 GT ISZERO PUSH2 0x31CF JUMPI DUP4 DUP5 REVERT JUMPDEST DUP2 DUP8 ADD SWAP2 POP DUP8 PUSH1 0x1F DUP4 ADD SLT PUSH2 0x31E2 JUMPI DUP4 DUP5 REVERT JUMPDEST PUSH1 0x20 PUSH2 0x31F2 DUP10 DUP5 CALLDATALOAD DUP4 DUP7 ADD PUSH2 0x2DE0 JUMP JUMPDEST SWAP7 POP DUP1 DUP9 ADD CALLDATALOAD SWAP6 POP PUSH1 0x40 DUP9 ADD CALLDATALOAD SWAP3 POP DUP2 DUP4 GT ISZERO PUSH2 0x320D JUMPI DUP5 DUP6 REVERT JUMPDEST DUP3 DUP9 ADD SWAP3 POP DUP9 PUSH1 0x1F DUP5 ADD SLT PUSH2 0x3220 JUMPI DUP5 DUP6 REVERT JUMPDEST DUP3 CALLDATALOAD PUSH2 0x322B DUP2 PUSH2 0x36C9 JUMP JUMPDEST PUSH1 0x40 MLOAD PUSH2 0x3238 DUP3 DUP3 PUSH2 0x37C3 JUMP JUMPDEST DUP3 DUP2 MSTORE DUP4 DUP2 ADD SWAP2 POP DUP6 DUP5 ADD PUSH1 0x5 DUP5 SWAP1 SHL DUP8 ADD DUP6 ADD DUP14 LT ISZERO PUSH2 0x3257 JUMPI DUP9 DUP10 REVERT JUMPDEST DUP9 SWAP7 POP JUMPDEST DUP4 DUP8 LT ISZERO PUSH2 0x328A JUMPI DUP1 CALLDATALOAD PUSH4 0xFFFFFFFF DUP2 AND DUP2 EQ PUSH2 0x3276 JUMPI DUP10 DUP11 REVERT JUMPDEST DUP4 MSTORE PUSH1 0x1 SWAP7 SWAP1 SWAP7 ADD SWAP6 SWAP2 DUP5 ADD SWAP2 DUP5 ADD PUSH2 0x325B JUMP JUMPDEST POP SWAP7 POP POP POP POP PUSH1 0x60 DUP8 ADD CALLDATALOAD SWAP2 POP DUP1 DUP3 GT ISZERO PUSH2 0x32A3 JUMPI DUP3 DUP4 REVERT JUMPDEST POP PUSH2 0x32B0 DUP8 DUP3 DUP9 ADD PUSH2 0x2E55 JUMP JUMPDEST SWAP2 POP POP SWAP3 SWAP6 SWAP2 SWAP5 POP SWAP3 POP JUMP JUMPDEST PUSH1 0x0 PUSH1 0x20 DUP3 DUP5 SUB SLT ISZERO PUSH2 0x32CD JUMPI DUP1 DUP2 REVERT JUMPDEST POP CALLDATALOAD SWAP2 SWAP1 POP JUMP JUMPDEST PUSH1 0x0 DUP1 PUSH1 0x40 DUP4 DUP6 SUB SLT ISZERO PUSH2 0x32E6 JUMPI DUP2 DUP3 REVERT JUMPDEST DUP3 CALLDATALOAD SWAP2 POP PUSH1 0x20 DUP4 ADD CALLDATALOAD PUSH8 0xFFFFFFFFFFFFFFFF DUP2 GT ISZERO PUSH2 0x3303 JUMPI DUP2 DUP3 REVERT JUMPDEST PUSH2 0x3161 DUP6 DUP3 DUP7 ADD PUSH2 0x2E55 JUMP JUMPDEST PUSH1 0x0 DUP1 PUSH1 0x40 DUP4 DUP6 SUB SLT ISZERO PUSH2 0x3321 JUMPI DUP2 DUP3 REVERT JUMPDEST POP POP DUP1 CALLDATALOAD SWAP3 PUSH1 0x20 SWAP1 SWAP2 ADD CALLDATALOAD SWAP2 POP JUMP JUMPDEST PUSH1 0x0 DUP2 MLOAD DUP1 DUP5 MSTORE PUSH1 0x20 DUP1 DUP6 ADD SWAP5 POP DUP1 DUP5 ADD DUP4 JUMPDEST DUP4 DUP2 LT ISZERO PUSH2 0x335F JUMPI DUP2 MLOAD DUP8 MSTORE SWAP6 DUP3 ADD SWAP6 SWAP1 DUP3 ADD SWAP1 PUSH1 0x1 ADD PUSH2 0x3343 JUMP JUMPDEST POP SWAP5 SWAP6 SWAP5 POP POP POP POP POP JUMP JUMPDEST PUSH1 0x0 DUP2 MLOAD DUP1 DUP5 MSTORE DUP2 JUMPDEST DUP2 DUP2 LT ISZERO PUSH2 0x338F JUMPI PUSH1 0x20 DUP2 DUP6 ADD DUP2 ADD MLOAD DUP7 DUP4 ADD DUP3 ADD MSTORE ADD PUSH2 0x3373 JUMP JUMPDEST DUP2 DUP2 GT ISZERO PUSH2 0x33A0 JUMPI DUP3 PUSH1 0x20 DUP4 DUP8 ADD ADD MSTORE JUMPDEST POP PUSH1 0x1F ADD PUSH1 0x1F NOT AND SWAP3 SWAP1 SWAP3 ADD PUSH1 0x20 ADD SWAP3 SWAP2 POP POP JUMP JUMPDEST PUSH1 0x1 PUSH1 0x1 PUSH1 0xA0 SHL SUB DUP7 DUP2 AND DUP3 MSTORE DUP6 AND PUSH1 0x20 DUP3 ADD MSTORE PUSH1 0xA0 PUSH1 0x40 DUP3 ADD DUP2 SWAP1 MSTORE PUSH1 0x0 SWAP1 PUSH2 0x33E1 SWAP1 DUP4 ADD DUP7 PUSH2 0x3330 JUMP JUMPDEST DUP3 DUP2 SUB PUSH1 0x60 DUP5 ADD MSTORE PUSH2 0x33F3 DUP2 DUP7 PUSH2 0x3330 JUMP JUMPDEST SWAP1 POP DUP3 DUP2 SUB PUSH1 0x80 DUP5 ADD MSTORE PUSH2 0x178D DUP2 DUP6 PUSH2 0x336A JUMP JUMPDEST PUSH1 0x1 PUSH1 0x1 PUSH1 0xA0 SHL SUB DUP7 DUP2 AND DUP3 MSTORE DUP6 AND PUSH1 0x20 DUP3 ADD MSTORE PUSH1 0x40 DUP2 ADD DUP5 SWAP1 MSTORE PUSH1 0x60 DUP2 ADD DUP4 SWAP1 MSTORE PUSH1 0xA0 PUSH1 0x80 DUP3 ADD DUP2 SWAP1 MSTORE PUSH1 0x0 SWAP1 PUSH2 0x3441 SWAP1 DUP4 ADD DUP5 PUSH2 0x336A JUMP JUMPDEST SWAP8 SWAP7 POP POP POP POP POP POP POP JUMP JUMPDEST PUSH1 0x0 PUSH1 0x20 DUP3 MSTORE PUSH2 0xDC9 PUSH1 0x20 DUP4 ADD DUP5 PUSH2 0x3330 JUMP JUMPDEST PUSH1 0x0 PUSH1 0x40 DUP3 MSTORE PUSH2 0x3472 PUSH1 0x40 DUP4 ADD DUP6 PUSH2 0x3330 JUMP JUMPDEST DUP3 DUP2 SUB PUSH1 0x20 DUP5 ADD MSTORE PUSH2 0x3484 DUP2 DUP6 PUSH2 0x3330 JUMP JUMPDEST SWAP6 SWAP5 POP POP POP POP POP JUMP JUMPDEST PUSH1 0x0 PUSH1 0x20 DUP3 MSTORE PUSH2 0xDC9 PUSH1 0x20 DUP4 ADD DUP5 PUSH2 0x336A JUMP JUMPDEST PUSH1 0x20 DUP1 DUP3 MSTORE PUSH1 0x28 SWAP1 DUP3 ADD MSTORE PUSH32 0x455243313135353A204552433131353552656365697665722072656A65637465 PUSH1 0x40 DUP3 ADD MSTORE PUSH8 0x6420746F6B656E73 PUSH1 0xC0 SHL PUSH1 0x60 DUP3 ADD MSTORE PUSH1 0x80 ADD SWAP1 JUMP JUMPDEST PUSH1 0x20 DUP1 DUP3 MSTORE PUSH1 0x24 SWAP1 DUP3 ADD MSTORE PUSH32 0x455243313135353A206275726E20616D6F756E7420657863656564732062616C PUSH1 0x40 DUP3 ADD MSTORE PUSH4 0x616E6365 PUSH1 0xE0 SHL PUSH1 0x60 DUP3 ADD MSTORE PUSH1 0x80 ADD SWAP1 JUMP JUMPDEST PUSH1 0x20 DUP1 DUP3 MSTORE PUSH1 0x57 SWAP1 DUP3 ADD MSTORE PUSH32 0x54686973204964206E756D626572206973206E6F74206173736F636961746564 PUSH1 0x40 DUP3 ADD MSTORE PUSH32 0x2077697468206F6E65206F6620796F75722073746172746572732C20706C6561 PUSH1 0x60 DUP3 ADD MSTORE PUSH32 0x736520747279207769746820612076616C69642069642E000000000000000000 PUSH1 0x80 DUP3 ADD MSTORE PUSH1 0xA0 ADD SWAP1 JUMP JUMPDEST PUSH1 0x20 DUP1 DUP3 MSTORE PUSH1 0x25 SWAP1 DUP3 ADD MSTORE PUSH32 0x455243313135353A207472616E7366657220746F20746865207A65726F206164 PUSH1 0x40 DUP3 ADD MSTORE PUSH5 0x6472657373 PUSH1 0xD8 SHL PUSH1 0x60 DUP3 ADD MSTORE PUSH1 0x80 ADD SWAP1 JUMP JUMPDEST PUSH1 0x20 DUP1 DUP3 MSTORE PUSH1 0x23 SWAP1 DUP3 ADD MSTORE PUSH32 0x455243313135353A206275726E2066726F6D20746865207A65726F2061646472 PUSH1 0x40 DUP3 ADD MSTORE PUSH3 0x657373 PUSH1 0xE8 SHL PUSH1 0x60 DUP3 ADD MSTORE PUSH1 0x80 ADD SWAP1 JUMP JUMPDEST PUSH1 0x20 DUP1 DUP3 MSTORE PUSH1 0x2A SWAP1 DUP3 ADD MSTORE PUSH32 0x455243313135353A20696E73756666696369656E742062616C616E636520666F PUSH1 0x40 DUP3 ADD MSTORE PUSH10 0x39103A3930B739B332B9 PUSH1 0xB1 SHL PUSH1 0x60 DUP3 ADD MSTORE PUSH1 0x80 ADD SWAP1 JUMP JUMPDEST PUSH1 0x20 DUP1 DUP3 MSTORE PUSH1 0x28 SWAP1 DUP3 ADD MSTORE PUSH32 0x455243313135353A2069647320616E6420616D6F756E7473206C656E67746820 PUSH1 0x40 DUP3 ADD MSTORE PUSH8 0xDAD2E6DAC2E8C6D PUSH1 0xC3 SHL PUSH1 0x60 DUP3 ADD MSTORE PUSH1 0x80 ADD SWAP1 JUMP JUMPDEST PUSH1 0x0 PUSH8 0xFFFFFFFFFFFFFFFF DUP3 GT ISZERO PUSH2 0x36E3 JUMPI PUSH2 0x36E3 PUSH2 0x3821 JUMP JUMPDEST POP PUSH1 0x5 SHL PUSH1 0x20 ADD SWAP1 JUMP JUMPDEST PUSH1 0x0 DUP3 NOT DUP3 GT ISZERO PUSH2 0x3700 JUMPI PUSH2 0x3700 PUSH2 0x380B JUMP JUMPDEST POP ADD SWAP1 JUMP JUMPDEST PUSH1 0x0 PUSH4 0xFFFFFFFF DUP1 DUP4 AND DUP2 DUP6 AND DUP1 DUP4 SUB DUP3 GT ISZERO PUSH2 0x3724 JUMPI PUSH2 0x3724 PUSH2 0x380B JUMP JUMPDEST ADD SWAP5 SWAP4 POP POP POP POP JUMP JUMPDEST PUSH1 0x0 PUSH1 0xFF DUP3 AND PUSH1 0xFF DUP5 AND DUP1 PUSH1 0xFF SUB DUP3 GT ISZERO PUSH2 0x374A JUMPI PUSH2 0x374A PUSH2 0x380B JUMP JUMPDEST ADD SWAP4 SWAP3 POP POP POP JUMP JUMPDEST PUSH1 0x0 DUP2 PUSH1 0x0 NOT DIV DUP4 GT DUP3 ISZERO ISZERO AND ISZERO PUSH2 0x376C JUMPI PUSH2 0x376C PUSH2 0x380B JUMP JUMPDEST POP MUL SWAP1 JUMP JUMPDEST PUSH1 0x0 DUP3 DUP3 LT ISZERO PUSH2 0x3783 JUMPI PUSH2 0x3783 PUSH2 0x380B JUMP JUMPDEST POP SUB SWAP1 JUMP JUMPDEST PUSH1 0x1 DUP2 DUP2 SHR SWAP1 DUP3 AND DUP1 PUSH2 0x379C JUMPI PUSH1 0x7F DUP3 AND SWAP2 POP JUMPDEST PUSH1 0x20 DUP3 LT DUP2 EQ ISZERO PUSH2 0x37BD JUMPI PUSH4 0x4E487B71 PUSH1 0xE0 SHL PUSH1 0x0 MSTORE PUSH1 0x22 PUSH1 0x4 MSTORE PUSH1 0x24 PUSH1 0x0 REVERT JUMPDEST POP SWAP2 SWAP1 POP JUMP JUMPDEST PUSH1 0x1F DUP3 ADD PUSH1 0x1F NOT AND DUP2 ADD PUSH8 0xFFFFFFFFFFFFFFFF DUP2 GT DUP3 DUP3 LT OR ISZERO PUSH2 0x37E9 JUMPI PUSH2 0x37E9 PUSH2 0x3821 JUMP JUMPDEST PUSH1 0x40 MSTORE POP POP JUMP JUMPDEST PUSH1 0x0 PUSH1 0x0 NOT DUP3 EQ ISZERO PUSH2 0x3804 JUMPI PUSH2 0x3804 PUSH2 0x380B JUMP JUMPDEST POP PUSH1 0x1 ADD SWAP1 JUMP JUMPDEST PUSH4 0x4E487B71 PUSH1 0xE0 SHL PUSH1 0x0 MSTORE PUSH1 0x11 PUSH1 0x4 MSTORE PUSH1 0x24 PUSH1 0x0 REVERT JUMPDEST PUSH4 0x4E487B71 PUSH1 0xE0 SHL PUSH1 0x0 MSTORE PUSH1 0x41 PUSH1 0x4 MSTORE PUSH1 0x24 PUSH1 0x0 REVERT JUMPDEST PUSH1 0x0 PUSH1 0x3 RETURNDATASIZE GT ISZERO PUSH2 0x9DE JUMPI PUSH1 0x4 DUP2 DUP3 RETURNDATACOPY MLOAD PUSH1 0xE0 SHR SWAP1 JUMP JUMPDEST PUSH1 0x0 PUSH1 0x44 RETURNDATASIZE LT ISZERO PUSH2 0x385E JUMPI PUSH2 0x9DE JUMP JUMPDEST PUSH1 0x40 MLOAD PUSH1 0x3 NOT RETURNDATASIZE DUP2 ADD PUSH1 0x4 DUP4 RETURNDATACOPY DUP2 MLOAD RETURNDATASIZE PUSH8 0xFFFFFFFFFFFFFFFF DUP2 PUSH1 0x24 DUP5 ADD GT DUP2 DUP5 GT OR ISZERO PUSH2 0x3890 JUMPI POP POP POP POP POP PUSH2 0x9DE JUMP JUMPDEST DUP3 DUP6 ADD SWAP2 POP DUP2 MLOAD DUP2 DUP2 GT ISZERO PUSH2 0x38AA JUMPI POP POP POP POP POP POP PUSH2 0x9DE JUMP JUMPDEST DUP5 RETURNDATASIZE DUP8 ADD ADD PUSH1 0x20 DUP3 DUP6 ADD ADD GT ISZERO PUSH2 0x38C6 JUMPI POP POP POP POP POP POP PUSH2 0x9DE JUMP JUMPDEST PUSH2 0x38D5 PUSH1 0x20 DUP3 DUP7 ADD ADD DUP8 PUSH2 0x37C3 JUMP JUMPDEST POP SWAP1 SWAP5 POP POP POP POP POP SWAP1 JUMP JUMPDEST PUSH1 0x1 PUSH1 0x1 PUSH1 0xE0 SHL SUB NOT DUP2 AND DUP2 EQ PUSH2 0x38F6 JUMPI PUSH1 0x0 DUP1 REVERT JUMPDEST POP JUMP INVALID LOG2 PUSH5 0x6970667358 0x22 SLT KECCAK256 0xC2 0xE8 0xAE 0x26 DUP4 0x4B DUP11 SLOAD PUSH29 0xE88872422786C12587569B8C1C871D3A8DFC5B81FD5E4664736F6C6343 STOP ADDMOD SUB STOP CALLER ","sha1":"32a982ca541b9618915873a99be761b663c57ea4","source":"pragma solidity ^0.8.0;\n\nimport \"./openzeppelin-contracts/contracts/token/ERC1155/ERC1155.sol\";\nimport \"./openzeppelin-contracts/contracts/utils/structs/EnumerableSet.sol\";\n  \n\ncontract Cafe is ERC1155 {\n\n    using EnumerableSet for EnumerableSet.UintSet;\n    \n    \n    constructor (string memory uri_, uint32 _timescale, uint256 _createCost, uint256 _feedCost, uint256 _grindReward) public ERC1155(uri_) {\n        _setURI(uri_);\n        timescale = _timescale;\n        devAddress=msg.sender;\n        createCost = _createCost;\n        feedCost = _feedCost;\n        grindReward = _grindReward;\n    }\n    /** @dev These are the constructor parameters.  Create/feed Costs are the flour required to create and feed starters.  \n    Timescale represents the timescale at which starters die, feed reset time, and  grindFlour cooldown\n    grindReward is the reward for grinding flour\n     */\n    uint256 createCost;\n    uint256 feedCost;\n    uint32 timescale;\n    uint256 grindReward;\n\n\n    /** @dev Sourdough Struct represents the living sourdough starters\n    _timeOfDeath is the Unix timestamp at which the starter 'dies' and becomes unavailable for use in baking\n    _childCount describes the number of times the starter has been split\n    _creationTime shows when the starter was born! \n    _creator is the person who made the starter\n     */\n\n    struct Sourdough{\n        uint32 _timeOfDeath;\n        uint8 _childCount;\n        uint32 _creationTime;\n        address _creator;\n        bool _beingAutoFed;\n        }\n\n\n\n\n/** @dev Recipe struct represents baked items.  \n_name is the name..must be unique\n_flourRequired is burned when baking the recipe\n_ages is an array of the ages of the required starter ingredients*/\n    struct Recipe{\n        string _name;\n        uint256 _flourRequired;\n        uint32[] _ages;\n        address _creator;\n        uint256 _timesBaked;\n        uint256 _numberEaten;\n        uint32 _score;\n        \n    }\n/** @dev flourId denotes the id of the fungible FLOUR token\ndividerIndex separates semi-fungible starter ingredients and semi-fungible baked goods\ngrindCooldown determine whether or not an address can grind flour\n */\n    address public devAddress = address(this);\n    uint256 flourId = 0;\n    uint256 dividerIndex = 57896044618658097711785492504343953926634992332820282019728792003956564819968;\n    mapping (uint256 => Sourdough) Sourdoughs;\n    mapping(address => uint32) grindCooldown;\n\n    mapping(uint256 => Recipe) BakedGoods;\n    mapping(address =>  EnumerableSet.UintSet) private _ownerRecipes;\n    mapping(address => uint256) totalScore;\n    mapping(address => bool) isAutoFeeding;\n\n/** @dev highscores here */\n\n    uint256[11] public starterHighScore;\n    uint256[11] public recipeHighScore;\n    address[11] public playerHighScore;\n\n   \n   \n\n  \n    uint256 public flourSupply = 0;\n   \n/** @dev total stats\n */ \n    uint256 public startersCreated = 0;\n    uint256 public itemsBaked = 0;\n    uint256 public recipesPublished = 0;\n\n/** @dev Credits the user FLOUR every 24 hours if submitted\n */\n    function grindFlour() public {\n       \n        require(grindCooldown[msg.sender]<block.timestamp,\"You did this already today!\");\n        _mint(msg.sender,flourId, grindReward, \"\");\n        flourSupply += grindReward;\n        grindCooldown[msg.sender] = uint32(block.timestamp + timescale);\n    }\n\n/** @dev Internally used to get rid of flour tokens */\n    function _burnFlour(address account, uint256 amount) internal {\n        require(balanceOf(msg.sender,flourId)>=amount);\n        _burn(account,flourId,amount);\n        flourSupply -= amount;\n    }\n\n/** @dev Makes a new nonfungible starter with age attributes by burning 50 FLOUR */\n    function createStarter() public returns (bool) {\n        _burnFlour(msg.sender,  createCost);  \n        uint256 tokenId = startersCreated +1; \n        _mint(msg.sender, 0+tokenId, 1,\"\");\n        Sourdough memory sourdough = Sourdough(uint32(block.timestamp + timescale),0,uint32(block.timestamp),msg.sender,false);\n        \n        startersCreated+=1;\n        Sourdoughs[tokenId] = sourdough;\n        return true;\n    \n    }\n/** @dev Burns 50 FLOUR and resets the time of death for your token*/\n    function feedStarter(uint256 tokenId) public returns (bool) {\n        require(balanceOf(msg.sender,tokenId) == 1, \"This Id number is not associated with one of your starters, please try with a valid id.\");\n        require(Sourdoughs[tokenId]._timeOfDeath >= block.timestamp, \"Your starter is dead!  You should have fed it sooner :( .\");\n        _burnFlour(msg.sender, feedCost);\n        Sourdoughs[tokenId]._timeOfDeath = uint32(block.timestamp + timescale);\n        if(Sourdoughs[tokenId]._beingAutoFed){\n            Sourdoughs[tokenId]._beingAutoFed==false;\n        }\n        _updateStarterScore(tokenId);\n\n        return true;\n    }\n\n/** @dev Feeds and duplicates your starter, returning another with identical age - costs 100 FLOUR */\n    function splitStarter(uint256 tokenId) public returns (bool) { \n        require(balanceOf(msg.sender,tokenId)==1, \"This Id number is not associated with one of your starters, please try with a valid id.\");\n        feedStarter(tokenId);\n        createStarter();\n        Sourdoughs[startersCreated]._creationTime = Sourdoughs[tokenId]._creationTime;\n        Sourdoughs[tokenId]._childCount+=1;\n        return true;\n\n    }\n/** @dev Internal. Takes a recipe struct and a batch of ingredients by id number.  Burns the ingredients and FLOUR required, then mints a semi-fungible item to the owner\nwith the Id of the recipe */\n    function _bakeRecipe(Recipe memory recipe, uint256[] memory starterBatch) internal returns (bool) {\n        require(balanceOf(msg.sender, flourId)>= recipe._flourRequired,\"You don't have enough FLOUR to bake that!!\");\n        uint length = recipe._ages.length;\n        uint[] memory amounts = new uint[](length);\n        require(recipe._ages.length == starterBatch.length,\"You haven't added the right number of starters to the batch!\");\n        for(uint i=0;i<recipe._ages.length;i++){\n            uint32 starterAge = uint32(block.timestamp-Sourdoughs[starterBatch[i]]._creationTime);\n            require(starterAge > recipe._ages[i], \"Your starters are not old enough, please use the starters required by this recipe\");  \n            require(Sourdoughs[starterBatch[i]]._timeOfDeath >= block.timestamp, \"Your starters are not all alive, you must use a living ingredient!!\");\n            require(balanceOf(msg.sender,starterBatch[i])==1, \"This Id number is not associated with one of your starters, please try with a valid id.\");\n            amounts[i] = 1;\n        }\n        _burnBatch(msg.sender, starterBatch, amounts); \n        _burnFlour(msg.sender,recipe._flourRequired);\n        return true;\n    }\n/** @dev Bakes and publishes a recipe that does not yet exist */\n    function publishNewRecipe(string memory name, uint256 flourRequired, uint32[] memory ages, uint256[] memory starterBatch) public returns (uint256) {\n        require(ages.length <=10, \"You can only have up to 10 ingredients!\");\n        Recipe memory recipe = Recipe(name,flourRequired, ages,msg.sender,0,0,0);\n        _bakeRecipe(recipe,starterBatch);\n\n        uint32[] memory ages = recipe._ages;\n        uint32 total;\n        for(uint i=0;i<ages.length;i++){\n            total+=ages[i];\n        }\n        recipe._score = total;\n\n        recipe._timesBaked+=1;\n        itemsBaked+=1;\n        recipesPublished+=1;\n        uint256 recipeId = dividerIndex + recipesPublished;\n        BakedGoods[recipesPublished] = recipe;\n        _ownerRecipes[msg.sender].add(recipesPublished);\n        _updateRecipeScore(recipesPublished);\n        _mint(msg.sender,recipeId,1,\"\");\n        return recipeId;\n\n\n    }\n/** @dev Takes the id of an existing recipe and a batch of ingredients.  Burns the batch and the required flour, mints an item with the recipe Id */\n    function bakeExistingRecipe(uint256 recipeId, uint256[] memory starterBatch) public returns (bool) {\n        Recipe memory recipe = BakedGoods[recipeId];\n        _bakeRecipe(recipe,starterBatch);\n\n        BakedGoods[recipeId]._timesBaked+=1;\n        \n        itemsBaked+=1;\n        _updateRecipeScore(recipeId);\n        _mint(msg.sender,recipeId+dividerIndex,1,\"\");\n        return true;\n    }\n/** @dev Burns an item, credits the player with a score equivalent to the total age of all ingredients */\n    function eatBakedGood(uint256 recipeId, uint256 amount) public returns (bool){\n        require(balanceOf(msg.sender,dividerIndex + recipeId)>=amount, \"You don't have that many of those to eat!\");\n        \n        uint32 total = BakedGoods[recipeId]._score;\n       \n        uint256 index = recipeId + dividerIndex;\n        _burn(msg.sender,index,amount);\n        BakedGoods[recipeId]._numberEaten+=1;\n        totalScore[msg.sender]+= uint256(total)*amount;\n        _updatePlayerScore(msg.sender);\n\n        \n    }\n\n\n\n    function autoFeed(uint feedingTimes,uint256 starterId) public returns (bool) {\n        require(balanceOf(msg.sender,starterId)==1, \"This Id number is not associated with one of your starters, please try with a valid id.\");\n        uint256 cost = feedingTimes*50;\n        uint256 devFee = feedingTimes*10;\n        _burnFlour(msg.sender, cost);\n        safeTransferFrom(msg.sender,devAddress,flourId,devFee,\"\");\n        isAutoFeeding[msg.sender]=true;\n        Sourdoughs[starterId]._timeOfDeath =  uint32(block.timestamp + feedingTimes* timescale);\n        Sourdoughs[starterId]._beingAutoFed = true;\n        return true;\n    }\n\n\n    function stopAutoFeed(uint256 starterId) public returns(bool) {\n        require(Sourdoughs[starterId]._beingAutoFed ==true);\n        Sourdoughs[starterId]._timeOfDeath = uint32(block.timestamp + timescale);\n        Sourdoughs[starterId]._beingAutoFed = false;\n    }\n    \n\n    function _updateStarterScore(uint256 _starterId) internal {\n        uint index = 9;\n        uint32 time = Sourdoughs[_starterId]._creationTime;\n        uint32 toBeat = Sourdoughs[starterHighScore[index]]._creationTime;\n        while(time < toBeat && index>=0 ){\n            starterHighScore[index+1] =starterHighScore[index];\n            starterHighScore[index] = _starterId;\n            if(index==0){\n                break;\n            }else{\n            index = index-1;}\n        }\n\n    } \n\n    function _updateRecipeScore(uint256 _recipeId) internal {\n        uint index = 9;\n        uint256 score = BakedGoods[_recipeId]._timesBaked;\n        uint256 toBeat = BakedGoods[recipeHighScore[index]]._timesBaked;\n        while(score>toBeat && index>=0 ){\n            recipeHighScore[index+1]= recipeHighScore[index];\n            recipeHighScore[index] = _recipeId;\n            \n            if(index==0){\n                break;\n            }else{\n                index = index-1;\n            }\n        }\n\n    }\n\n    function _updatePlayerScore(address _player) internal {\n        uint index = 9;\n        uint256 score = totalScore[_player];\n        uint256 toBeat = totalScore[playerHighScore[index]];\n         while(score>toBeat && index>=0 ){\n            playerHighScore[index+1]= playerHighScore[index];\n            playerHighScore[index] = _player;\n            if (index==0){\n                break;\n            }\n            else{\n                index=index-1;\n            }\n        }\n\n\n    }\n\n\n\n\n\n\n\n    function getTimeOfDeath(uint256 starterId) public view returns(uint32){\n        return Sourdoughs[starterId]._timeOfDeath;\n    }\n    function getChildCount(uint256 starterId) public view returns(uint8){\n        return Sourdoughs[starterId]._childCount;\n    }\n    function getCreationTime(uint256 starterId) public view returns(uint32){\n        return Sourdoughs[starterId]._creationTime;\n    }\n    function getCreatorAddress(uint256 starterId) public view returns(address){\n        return Sourdoughs[starterId]._creator;\n    }\n    function getIsAutoFed(uint256 starterId) public view returns(bool){\n        return Sourdoughs[starterId]._beingAutoFed;\n    }\n\n\n\n\n    function getRecipeName(uint256 recipeId) public view returns(string memory){\n        return BakedGoods[recipeId]._name;\n    }\n\n    function getRecipeScore(uint256 recipeId) public view returns(uint32){\n        return BakedGoods[recipeId]._score;\n    }\n    function getIngredientCount(uint256 recipeId) public view returns(uint256){\n        return BakedGoods[recipeId]._ages.length;\n    }\n     function getIngredientByIndex(uint256 recipeId, uint index) public view returns(uint32){\n        return BakedGoods[recipeId]._ages[index];\n    }\n     function getRecipeCreator(uint256 recipeId) public view returns(address){\n        return BakedGoods[recipeId]._creator;\n    }\n     function getFlourRequired(uint256 recipeId) public view returns(uint256){\n        return BakedGoods[recipeId]._flourRequired;\n    }\n     function getTimesBaked(uint256 recipeId) public view returns(uint256){\n        return BakedGoods[recipeId]._timesBaked;\n    }\n     function getNumberEaten(uint256 recipeId) public view returns(uint256){\n        return BakedGoods[recipeId]._numberEaten;\n    }\n\n\n    function getGrindReset(address player) public view returns(uint32){\n        return grindCooldown[player];\n    }\n    function getPlayerScore(address player) public view returns(uint256){\n        return totalScore[player];\n    }\n    function isPlayerAutoFeeding(address player) public view returns(bool){\n        return isAutoFeeding[player];\n    }\n\n      function recipeOfOwnerByIndex(address owner, uint256 index) public view returns (uint256) {\n        return _ownerRecipes[owner].at(index);\n    }\n    function getOwnerUniqueRecipes(address owner) public view returns (uint256) {\n        return _ownerRecipes[owner].length();\n    }\n}\n    \n","sourcePath":"contracts/Cafe.sol","type":"contract","deployment":{"address":"0xF929b2D189FC79405316651e15a0880606C9274b","chainid":"3","blockHeight":10048217}}