{"abi":[{"inputs":[{"internalType":"string","name":"uri_","type":"string"},{"internalType":"uint32","name":"_timescale","type":"uint32"},{"internalType":"uint256","name":"_createCost","type":"uint256"},{"internalType":"uint256","name":"_feedCost","type":"uint256"},{"internalType":"uint256","name":"_grindReward","type":"uint256"}],"stateMutability":"nonpayable","type":"constructor","name":"constructor"},{"anonymous":false,"inputs":[{"indexed":true,"internalType":"address","name":"account","type":"address"},{"indexed":true,"internalType":"address","name":"operator","type":"address"},{"indexed":false,"internalType":"bool","name":"approved","type":"bool"}],"name":"ApprovalForAll","type":"event"},{"anonymous":false,"inputs":[{"indexed":true,"internalType":"address","name":"operator","type":"address"},{"indexed":true,"internalType":"address","name":"from","type":"address"},{"indexed":true,"internalType":"address","name":"to","type":"address"},{"indexed":false,"internalType":"uint256[]","name":"ids","type":"uint256[]"},{"indexed":false,"internalType":"uint256[]","name":"values","type":"uint256[]"}],"name":"TransferBatch","type":"event"},{"anonymous":false,"inputs":[{"indexed":true,"internalType":"address","name":"operator","type":"address"},{"indexed":true,"internalType":"address","name":"from","type":"address"},{"indexed":true,"internalType":"address","name":"to","type":"address"},{"indexed":false,"internalType":"uint256","name":"id","type":"uint256"},{"indexed":false,"internalType":"uint256","name":"value","type":"uint256"}],"name":"TransferSingle","type":"event"},{"anonymous":false,"inputs":[{"indexed":false,"internalType":"string","name":"value","type":"string"},{"indexed":true,"internalType":"uint256","name":"id","type":"uint256"}],"name":"URI","type":"event"},{"inputs":[{"internalType":"uint256","name":"feedingTimes","type":"uint256"},{"internalType":"uint256","name":"starterId","type":"uint256"}],"name":"autoFeed","outputs":[{"internalType":"bool","name":"","type":"bool"}],"stateMutability":"nonpayable","type":"function"},{"inputs":[{"internalType":"uint256","name":"recipeId","type":"uint256"},{"internalType":"uint256[]","name":"starterBatch","type":"uint256[]"}],"name":"bakeExistingRecipe","outputs":[{"internalType":"bool","name":"","type":"bool"}],"stateMutability":"nonpayable","type":"function"},{"inputs":[{"internalType":"address","name":"account","type":"address"},{"internalType":"uint256","name":"id","type":"uint256"}],"name":"balanceOf","outputs":[{"internalType":"uint256","name":"","type":"uint256"}],"stateMutability":"view","type":"function"},{"inputs":[{"internalType":"address[]","name":"accounts","type":"address[]"},{"internalType":"uint256[]","name":"ids","type":"uint256[]"}],"name":"balanceOfBatch","outputs":[{"internalType":"uint256[]","name":"","type":"uint256[]"}],"stateMutability":"view","type":"function"},{"inputs":[],"name":"createStarter","outputs":[{"internalType":"bool","name":"","type":"bool"}],"stateMutability":"nonpayable","type":"function"},{"inputs":[],"name":"devAddress","outputs":[{"internalType":"address","name":"","type":"address"}],"stateMutability":"view","type":"function"},{"inputs":[{"internalType":"uint256","name":"recipeId","type":"uint256"},{"internalType":"uint256","name":"amount","type":"uint256"}],"name":"eatBakedGood","outputs":[{"internalType":"bool","name":"","type":"bool"}],"stateMutability":"nonpayable","type":"function"},{"inputs":[{"internalType":"uint256","name":"tokenId","type":"uint256"}],"name":"feedStarter","outputs":[{"internalType":"bool","name":"","type":"bool"}],"stateMutability":"nonpayable","type":"function"},{"inputs":[],"name":"flourSupply","outputs":[{"internalType":"uint256","name":"","type":"uint256"}],"stateMutability":"view","type":"function"},{"inputs":[{"internalType":"uint256","name":"starterId","type":"uint256"}],"name":"getChildCount","outputs":[{"internalType":"uint8","name":"","type":"uint8"}],"stateMutability":"view","type":"function"},{"inputs":[{"internalType":"uint256","name":"starterId","type":"uint256"}],"name":"getCreationTime","outputs":[{"internalType":"uint32","name":"","type":"uint32"}],"stateMutability":"view","type":"function"},{"inputs":[{"internalType":"uint256","name":"starterId","type":"uint256"}],"name":"getCreatorAddress","outputs":[{"internalType":"address","name":"","type":"address"}],"stateMutability":"view","type":"function"},{"inputs":[{"internalType":"uint256","name":"recipeId","type":"uint256"}],"name":"getFlourRequired","outputs":[{"internalType":"uint256","name":"","type":"uint256"}],"stateMutability":"view","type":"function"},{"inputs":[{"internalType":"address","name":"player","type":"address"}],"name":"getGrindReset","outputs":[{"internalType":"uint32","name":"","type":"uint32"}],"stateMutability":"view","type":"function"},{"inputs":[{"internalType":"uint256","name":"recipeId","type":"uint256"},{"internalType":"uint256","name":"index","type":"uint256"}],"name":"getIngredientByIndex","outputs":[{"internalType":"uint32","name":"","type":"uint32"}],"stateMutability":"view","type":"function"},{"inputs":[{"internalType":"uint256","name":"recipeId","type":"uint256"}],"name":"getIngredientCount","outputs":[{"internalType":"uint256","name":"","type":"uint256"}],"stateMutability":"view","type":"function"},{"inputs":[{"internalType":"uint256","name":"starterId","type":"uint256"}],"name":"getIsAutoFed","outputs":[{"internalType":"bool","name":"","type":"bool"}],"stateMutability":"view","type":"function"},{"inputs":[{"internalType":"uint256","name":"recipeId","type":"uint256"}],"name":"getNumberEaten","outputs":[{"internalType":"uint256","name":"","type":"uint256"}],"stateMutability":"view","type":"function"},{"inputs":[{"internalType":"address","name":"owner","type":"address"}],"name":"getOwnerUniqueTokens","outputs":[{"internalType":"uint256","name":"","type":"uint256"}],"stateMutability":"view","type":"function"},{"inputs":[{"internalType":"address","name":"player","type":"address"}],"name":"getPlayerScore","outputs":[{"internalType":"uint256","name":"","type":"uint256"}],"stateMutability":"view","type":"function"},{"inputs":[{"internalType":"uint256","name":"recipeId","type":"uint256"}],"name":"getRecipeCreator","outputs":[{"internalType":"address","name":"","type":"address"}],"stateMutability":"view","type":"function"},{"inputs":[{"internalType":"uint256","name":"recipeId","type":"uint256"}],"name":"getRecipeName","outputs":[{"internalType":"string","name":"","type":"string"}],"stateMutability":"view","type":"function"},{"inputs":[{"internalType":"uint256","name":"starterId","type":"uint256"}],"name":"getTimeOfDeath","outputs":[{"internalType":"uint32","name":"","type":"uint32"}],"stateMutability":"view","type":"function"},{"inputs":[{"internalType":"uint256","name":"recipeId","type":"uint256"}],"name":"getTimesBaked","outputs":[{"internalType":"uint256","name":"","type":"uint256"}],"stateMutability":"view","type":"function"},{"inputs":[],"name":"grindFlour","outputs":[],"stateMutability":"nonpayable","type":"function"},{"inputs":[{"internalType":"address","name":"account","type":"address"},{"internalType":"address","name":"operator","type":"address"}],"name":"isApprovedForAll","outputs":[{"internalType":"bool","name":"","type":"bool"}],"stateMutability":"view","type":"function"},{"inputs":[{"internalType":"address","name":"player","type":"address"}],"name":"isPlayerAutoFeeding","outputs":[{"internalType":"bool","name":"","type":"bool"}],"stateMutability":"view","type":"function"},{"inputs":[],"name":"itemsBaked","outputs":[{"internalType":"uint256","name":"","type":"uint256"}],"stateMutability":"view","type":"function"},{"inputs":[],"name":"leader","outputs":[{"internalType":"address","name":"","type":"address"}],"stateMutability":"view","type":"function"},{"inputs":[],"name":"mostUsedRecipe","outputs":[{"internalType":"uint256","name":"","type":"uint256"}],"stateMutability":"view","type":"function"},{"inputs":[],"name":"oldestStarterAge","outputs":[{"internalType":"uint32","name":"","type":"uint32"}],"stateMutability":"view","type":"function"},{"inputs":[],"name":"oldestStarterId","outputs":[{"internalType":"uint256","name":"","type":"uint256"}],"stateMutability":"view","type":"function"},{"inputs":[{"internalType":"string","name":"name","type":"string"},{"internalType":"uint256","name":"flourRequired","type":"uint256"},{"internalType":"uint32[]","name":"ages","type":"uint32[]"},{"internalType":"uint256[]","name":"starterBatch","type":"uint256[]"}],"name":"publishNewRecipe","outputs":[{"internalType":"bool","name":"","type":"bool"}],"stateMutability":"nonpayable","type":"function"},{"inputs":[],"name":"recipesPublished","outputs":[{"internalType":"uint256","name":"","type":"uint256"}],"stateMutability":"view","type":"function"},{"inputs":[{"internalType":"address","name":"from","type":"address"},{"internalType":"address","name":"to","type":"address"},{"internalType":"uint256[]","name":"ids","type":"uint256[]"},{"internalType":"uint256[]","name":"amounts","type":"uint256[]"},{"internalType":"bytes","name":"data","type":"bytes"}],"name":"safeBatchTransferFrom","outputs":[],"stateMutability":"nonpayable","type":"function"},{"inputs":[{"internalType":"address","name":"from","type":"address"},{"internalType":"address","name":"to","type":"address"},{"internalType":"uint256","name":"id","type":"uint256"},{"internalType":"uint256","name":"amount","type":"uint256"},{"internalType":"bytes","name":"data","type":"bytes"}],"name":"safeTransferFrom","outputs":[],"stateMutability":"nonpayable","type":"function"},{"inputs":[{"internalType":"address","name":"operator","type":"address"},{"internalType":"bool","name":"approved","type":"bool"}],"name":"setApprovalForAll","outputs":[],"stateMutability":"nonpayable","type":"function"},{"inputs":[{"internalType":"uint256","name":"tokenId","type":"uint256"}],"name":"splitStarter","outputs":[{"internalType":"bool","name":"","type":"bool"}],"stateMutability":"nonpayable","type":"function"},{"inputs":[],"name":"startersCreated","outputs":[{"internalType":"uint256","name":"","type":"uint256"}],"stateMutability":"view","type":"function"},{"inputs":[{"internalType":"uint256","name":"starterId","type":"uint256"}],"name":"stopAutoFeed","outputs":[{"internalType":"bool","name":"","type":"bool"}],"stateMutability":"nonpayable","type":"function"},{"inputs":[{"internalType":"bytes4","name":"interfaceId","type":"bytes4"}],"name":"supportsInterface","outputs":[{"internalType":"bool","name":"","type":"bool"}],"stateMutability":"view","type":"function"},{"inputs":[{"internalType":"address","name":"owner","type":"address"},{"internalType":"uint256","name":"index","type":"uint256"}],"name":"tokenOfOwnerByIndex","outputs":[{"internalType":"uint256","name":"","type":"uint256"}],"stateMutability":"view","type":"function"},{"inputs":[],"name":"topRecipeScore","outputs":[{"internalType":"uint256","name":"","type":"uint256"}],"stateMutability":"view","type":"function"},{"inputs":[],"name":"topScore","outputs":[{"internalType":"uint256","name":"","type":"uint256"}],"stateMutability":"view","type":"function"},{"inputs":[{"internalType":"uint256","name":"","type":"uint256"}],"name":"uri","outputs":[{"internalType":"string","name":"","type":"string"}],"stateMutability":"view","type":"function"}],"bytecode":"6080604052600880546001600160a01b0319163017905560006009819055600160ff1b600a556011805463ffffffff1916905560128190556014819055601781905560188190556019553480156200005657600080fd5b5060405162003a7038038062003a708339810160408190526200007991620001ab565b846200008581620000d2565b506200009185620000d2565b6006805463ffffffff90951663ffffffff1990951694909417909355600880546001600160a01b031916331790556004919091556005556007555062000304565b8051620000e7906003906020840190620000eb565b5050565b828054620000f990620002b1565b90600052602060002090601f0160209004810192826200011d576000855562000168565b82601f106200013857805160ff191683800117855562000168565b8280016001018555821562000168579182015b82811115620001685782518255916020019190600101906200014b565b50620001769291506200017a565b5090565b5b808211156200017657600081556001016200017b565b805163ffffffff81168114620001a657600080fd5b919050565b600080600080600060a08688031215620001c3578081fd5b85516001600160401b0380821115620001da578283fd5b818801915088601f830112620001ee578283fd5b815181811115620002035762000203620002ee565b604051601f8201601f19908116603f011681019083821181831017156200022e576200022e620002ee565b81604052828152602093508b848487010111156200024a578586fd5b8591505b828210156200026d57848201840151818301850152908301906200024e565b828211156200027e57858484830101525b98506200029091505088820162000191565b604089015160608a01516080909a0151989b919a5098979650945050505050565b600181811c90821680620002c657607f821691505b60208210811415620002e857634e487b7160e01b600052602260045260246000fd5b50919050565b634e487b7160e01b600052604160045260246000fd5b61375c80620003146000396000f3fe608060405234801561001057600080fd5b506004361061027e5760003560e01c80637985781f1161015c578063b172decc116100ce578063e085c53911610087578063e085c53914610677578063e985e9c5146106a0578063f242432a146106dc578063f6d989f2146106ef578063f71ed3b8146106f8578063fc4f816c146107225761027e565b8063b172decc146105e9578063c889d089146105fc578063c8cf79d914610605578063cb20801014610618578063d4d3c09c1461063b578063d682d87a1461064b5761027e565b8063a22cb46511610120578063a22cb46514610579578063a30b4db91461058c578063a3486758146105bc578063a41e1c17146105c4578063a73adbc6146105d7578063ab5e9e8e146105e05761027e565b80637985781f146104975780637a77af5c146104c65780637f8315cd14610503578063976c39be1461052957806397ec23cb1461054c5761027e565b80633ad10ef6116101f55780635aab8e2f116101b95780635aab8e2f146104335780635c2c894a1461043c5780636510989c1461044557806369c13e8b1461045857806370b5e7b014610461578063781f1b75146104845761027e565b80633ad10ef6146103af57806340eedabb146103da57806342da6f9c146103ed5780634e1273f4146104005780634f41393b146104205761027e565b80632a316cdf116102475780632a316cdf146103075780632b944ddf1461032a5780632eb2c2d6146103335780632f745c591461034857806334b7fa221461035b57806336ff4c95146103835761027e565b8062fdd58e1461028357806301ffc9a7146102a957806307047482146102cc5780630e89341c146102d45780631269ca40146102f4575b600080fd5b610296610291366004612e73565b610735565b6040519081526020015b60405180910390f35b6102bc6102b7366004612f67565b6107d1565b60405190151581526020016102a0565b6102bc610825565b6102e76102e23660046130b8565b6109a0565b6040516102a09190613295565b6102e76103023660046130b8565b610a34565b6102966103153660046130b8565b6000908152600d602052604090206001015490565b61029660175481565b610346610341366004612d30565b610a51565b005b610296610356366004612e73565b610d46565b61036e61036936600461310b565b610d6f565b60405163ffffffff90911681526020016102a0565b6102bc610391366004612ce4565b6001600160a01b03166000908152600f602052604090205460ff1690565b6008546103c2906001600160a01b031681565b6040516001600160a01b0390911681526020016102a0565b6013546103c2906001600160a01b031681565b6102966103fb366004612ce4565b610dce565b61041361040e366004612e9c565b610def565b6040516102a09190613254565b6102bc61042e3660046130d0565b610f51565b61029660155481565b61029660185481565b6102bc61045336600461310b565b611154565b61029660105481565b61029661046f3660046130b8565b6000908152600d602052604090206005015490565b6102bc6104923660046130b8565b611371565b61036e6104a5366004612ce4565b6001600160a01b03166000908152600c602052604090205463ffffffff1690565b6104f16104d43660046130b8565b6000908152600b6020526040902054640100000000900460ff1690565b60405160ff90911681526020016102a0565b61036e6105113660046130b8565b6000908152600b602052604090205463ffffffff1690565b6102966105373660046130b8565b6000908152600d602052604090206004015490565b61036e61055a3660046130b8565b6000908152600b6020526040902054600160281b900463ffffffff1690565b610346610587366004612e39565b611433565b6103c261059a3660046130b8565b6000908152600b6020526040902054600160481b90046001600160a01b031690565b610346611517565b6102bc6105d2366004612f9f565b61167f565b61029660125481565b61029660165481565b6102bc6105f736600461310b565b61186e565b61029660145481565b6102bc6106133660046130b8565b611964565b6102966106263660046130b8565b6000908152600d602052604090206002015490565b60115461036e9063ffffffff1681565b6103c26106593660046130b8565b6000908152600d60205260409020600301546001600160a01b031690565b610296610685366004612ce4565b6001600160a01b03166000908152600e602052604090205490565b6102bc6106ae366004612cfe565b6001600160a01b03918216600090815260026020908152604080832093909416825291909152205460ff1690565b6103466106ea366004612dd6565b6119cf565b61029660195481565b6102bc6107063660046130b8565b6000908152600b6020526040902054600160e81b900460ff1690565b6102bc6107303660046130b8565b611c04565b60006001600160a01b0383166107a65760405162461bcd60e51b815260206004820152602b60248201527f455243313135353a2062616c616e636520717565727920666f7220746865207a60448201526a65726f206164647265737360a81b60648201526084015b60405180910390fd5b5060008181526001602090815260408083206001600160a01b03861684529091529020545b92915050565b60006001600160e01b03198216636cdb3d1360e11b148061080257506001600160e01b031982166303a24d0760e21b145b8061081d57506301ffc9a760e01b6001600160e01b03198316145b90505b919050565b600061083333600454611d7d565b6000601754600161084491906134f5565b905061086c336108558360006134f5565b600160405180602001604052806000815250611dbd565b6040805160a081019091526006546000919081906108909063ffffffff16426134f5565b63ffffffff168152602001600060ff1681526020014263ffffffff168152602001336001600160a01b031681526020016000151581525090506001601760008282546108dc91906134f5565b90915550506000918252600b602090815260409283902082518154928401519484015160608501516080909501511515600160e81b0260ff60e81b196001600160a01b03909616600160481b027fffffff0000000000000000000000000000000000000000ffffffffffffffffff63ffffffff938416600160281b021665010000000000600160e81b031960ff9099166401000000000264ffffffffff19909716939094169290921794909417959095161793909317919091161790555060015b90565b6060600380546109af906135b5565b80601f01602080910402602001604051908101604052809291908181526020018280546109db906135b5565b8015610a285780601f106109fd57610100808354040283529160200191610a28565b820191906000526020600020905b815481529060010190602001808311610a0b57829003601f168201915b50505050509050919050565b6000818152600d602052604090208054606091906109af906135b5565b8151835114610a725760405162461bcd60e51b815260040161079d90613489565b6001600160a01b038416610a985760405162461bcd60e51b815260040161079d906133b7565b6001600160a01b038516331480610ab45750610ab485336106ae565b610b1b5760405162461bcd60e51b815260206004820152603260248201527f455243313135353a207472616e736665722063616c6c6572206973206e6f74206044820152711bdddb995c881b9bdc88185c1c1c9bdd995960721b606482015260840161079d565b3360005b8451811015610cd8576000858281518110610b4a57634e487b7160e01b600052603260045260246000fd5b602002602001015190506000858381518110610b7657634e487b7160e01b600052603260045260246000fd5b60209081029190910181015160008481526001835260408082206001600160a01b038e168352909352919091205490915081811015610bc75760405162461bcd60e51b815260040161079d9061343f565b610bd18282613579565b6001600085815260200190815260200160002060008c6001600160a01b03166001600160a01b0316815260200190815260200160002081905550816001600085815260200190815260200160002060008b6001600160a01b03166001600160a01b031681526020019081526020016000206000828254610c5191906134f5565b90915550506001600160a01b0389166000908152602081905260409020610c789084611ee3565b5060008381526001602090815260408083206001600160a01b038e168452909152902054610cc4576001600160a01b038a166000908152602081905260409020610cc29084611eef565b505b50505080610cd19061361d565b9050610b1f565b50846001600160a01b0316866001600160a01b0316826001600160a01b03167f4a39dc06d4c0dbc64b70af90fd698a233a518aa5d07e595d983b8c0526c8f7fb8787604051610d28929190613267565b60405180910390a4610d3e818787878787611efb565b505050505050565b6001600160a01b0382166000908152602081905260408120610d689083612066565b9392505050565b6000828152600d60205260408120600201805483908110610da057634e487b7160e01b600052603260045260246000fd5b90600052602060002090600891828204019190066004029054906101000a900463ffffffff16905092915050565b6001600160a01b038116600090815260208190526040812061081d90612072565b60608151835114610e545760405162461bcd60e51b815260206004820152602960248201527f455243313135353a206163636f756e747320616e6420696473206c656e677468604482015268040dad2e6dac2e8c6d60bb1b606482015260840161079d565b6000835167ffffffffffffffff811115610e7e57634e487b7160e01b600052604160045260246000fd5b604051908082528060200260200182016040528015610ea7578160200160208202803683370190505b50905060005b8451811015610f4957610f0e858281518110610ed957634e487b7160e01b600052603260045260246000fd5b6020026020010151858381518110610f0157634e487b7160e01b600052603260045260246000fd5b6020026020010151610735565b828281518110610f2e57634e487b7160e01b600052603260045260246000fd5b6020908102919091010152610f428161361d565b9050610ead565b509392505050565b6000828152600d6020526040808220815160c0810190925280548392919082908290610f7c906135b5565b80601f0160208091040260200160405190810160405280929190818152602001828054610fa8906135b5565b8015610ff55780601f10610fca57610100808354040283529160200191610ff5565b820191906000526020600020905b815481529060010190602001808311610fd857829003601f168201915b50505050508152602001600182015481526020016002820180548060200260200160405190810160405280929190818152602001828054801561108357602002820191906000526020600020906000905b82829054906101000a900463ffffffff1663ffffffff16815260200190600401906020826003010492830192600103820291508084116110465790505b505050918352505060038201546001600160a01b031660208201526004820154604082015260059091015460609091015290506110c0818461207c565b506000848152600d602052604081206004018054600192906110e39084906134f5565b925050819055506001601860008282546110fd91906134f5565b90915550506016546000858152600d60205260409020600401541115611138576000848152600d602052604090206004015460165560158490555b61114a33600a548661085591906134f5565b5060019392505050565b6000816111693385600a5461029191906134f5565b10156111c95760405162461bcd60e51b815260206004820152602960248201527f596f7520646f6e277420686176652074686174206d616e79206f662074686f736044820152686520746f206561742160b81b606482015260840161079d565b6000838152600d602090815260408083206002018054825181850281018501909352808352919290919083018282801561124e57602002820191906000526020600020906000905b82829054906101000a900463ffffffff1663ffffffff16815260200190600401906020826003010492830192600103820291508084116112115790505b50505050509050600080600090505b82518110156112ad5782818151811061128657634e487b7160e01b600052603260045260246000fd5b602002602001015182611299919061350d565b9150806112a58161361d565b91505061125d565b506000600a54866112be91906134f5565b90506112cb338287612464565b6000868152600d602052604081206005018054600192906112ed9084906134f5565b9091555061130390508563ffffffff841661355a565b336000908152600e6020526040812080549091906113229084906134f5565b9091555050601254336000908152600e6020526040902054111561136857601380546001600160a01b031916339081179091556000908152600e60205260409020546012555b50505092915050565b600061137d3383610735565b60011461139c5760405162461bcd60e51b815260040161079d90613334565b6113a582611c04565b506113ae610825565b506000828152600b602052604080822080546017548452918320805468ffffffff00000000001916600160281b9384900463ffffffff169093029290921790915590839052805460019190600490611412908490640100000000900460ff16613535565b92506101000a81548160ff021916908360ff16021790555060019050919050565b336001600160a01b038316141561149e5760405162461bcd60e51b815260206004820152602960248201527f455243313135353a2073657474696e6720617070726f76616c20737461747573604482015268103337b91039b2b63360b91b606482015260840161079d565b3360008181526002602090815260408083206001600160a01b0387168085529252909120805460ff1916841515179055906001600160a01b03167f17307eab39ab6107e8899845ad3d59bd9653f200f220920489ca2b5937696c318360405161150b911515815260200190565b60405180910390a35050565b336000908152600f602052604090205460ff16156115a75760405162461bcd60e51b815260206004820152604160248201527f596f752061726520616c726561647920696e207468652062616b6572792c206560448201527f69746865722077616974206f72207475726e206175746f2066656564206f66666064820152602160f81b608482015260a40161079d565b336000908152600c60205260409020544263ffffffff9091161061160d5760405162461bcd60e51b815260206004820152601b60248201527f596f7520646964207468697320616c726561647920746f646179210000000000604482015260640161079d565b61162b33600954606460405180602001604052806000815250611dbd565b60646014600082825461163e91906134f5565b90915550506006546116569063ffffffff16426134f5565b336000908152600c60205260409020805463ffffffff191663ffffffff92909216919091179055565b6000600a835111156116e35760405162461bcd60e51b815260206004820152602760248201527f596f752063616e206f6e6c79206861766520757020746f20313020696e6772656044820152666469656e74732160c81b606482015260840161079d565b6040805160c0810182528681526020810186905290810184905233606082015260006080820181905260a082015261171b818461207c565b5060018160800181815161172f91906134f5565b90525060188054600191906000906117489084906134f5565b9250508190555060016019600082825461176291906134f5565b9091555050601954600a54600091611779916134f5565b6019546000908152600d6020908152604090912084518051939450859391926117a792849290910190612a9d565b506020828101516001830155604083015180516117ca9260028501920190612b21565b5060608201516003820180546001600160a01b0319166001600160a01b03909216919091179055608082015160048083019190915560a0909201516005909101556016546019546000908152600d60205260409020909101541115611845576019546000818152600d60205260409020600401546016556015555b6118613382600160405180602001604052806000815250611dbd565b5060019695505050505050565b600061187a3383610735565b6001146118995760405162461bcd60e51b815260040161079d90613334565b60006118a684603261355a565b905060006118b585600a61355a565b90506118c13383611d7d565b6008546009546040805160208101909152600081526118ef9233926001600160a01b039091169185906119cf565b336000908152600f60205260409020805460ff1916600117905560065461191c9063ffffffff168661355a565b61192690426134f5565b6000858152600b60205260409020805463ffffffff60ff60e81b01191663ffffffff9290921691909117600160e81b17905550600191505092915050565b6000818152600b6020526040812054600160e81b900460ff16151560011461198b57600080fd5b60065461199e9063ffffffff16426134f5565b6000928352600b6020526040909220805463ffffffff60ff60e81b01191663ffffffff939093169290921790915590565b6001600160a01b0384166119f55760405162461bcd60e51b815260040161079d906133b7565b6001600160a01b038516331480611a115750611a1185336106ae565b611a6f5760405162461bcd60e51b815260206004820152602960248201527f455243313135353a2063616c6c6572206973206e6f74206f776e6572206e6f7260448201526808185c1c1c9bdd995960ba1b606482015260840161079d565b33611a8f818787611a7f886125ad565b611a88886125ad565b5050505050565b60008481526001602090815260408083206001600160a01b038a16845290915290205483811015611ad25760405162461bcd60e51b815260040161079d9061343f565b611adc8482613579565b60008681526001602090815260408083206001600160a01b038c81168552925280832093909355881681529081208054869290611b1a9084906134f5565b90915550506001600160a01b0386166000908152602081905260409020611b419086611ee3565b5060008581526001602090815260408083206001600160a01b038b168452909152902054611b8d576001600160a01b0387166000908152602081905260409020611b8b9086611eef565b505b856001600160a01b0316876001600160a01b0316836001600160a01b03167fc3d58168c5ae7397731d063d5bbf3d657854427343f4c083240f7aacaa2d0f628888604051611be5929190918252602082015260400190565b60405180910390a4611bfb828888888888612606565b50505050505050565b6000611c103383610735565b600114611c2f5760405162461bcd60e51b815260040161079d90613334565b6000828152600b60205260409020544263ffffffff9091161015611cbb5760405162461bcd60e51b815260206004820152603960248201527f596f757220737461727465722069732064656164212020596f752073686f756c60448201527f6420686176652066656420697420736f6f6e6572203a28202e00000000000000606482015260840161079d565b611cc733600554611d7d565b600654611cda9063ffffffff16426134f5565b6000838152600b60205260409020805463ffffffff191663ffffffff929092169190911790819055600160e81b900460ff1615611d1c576000829052600b6020525b6000828152600b6020526040812054611d4290600160281b900463ffffffff1642613590565b60115490915063ffffffff9081169082161115611d74576011805463ffffffff191663ffffffff831617905560108390555b50600192915050565b80611d8a33600954610735565b1015611d9557600080fd5b611da28260095483612464565b8060146000828254611db49190613579565b90915550505050565b6001600160a01b038416611e1d5760405162461bcd60e51b815260206004820152602160248201527f455243313135353a206d696e7420746f20746865207a65726f206164647265736044820152607360f81b606482015260840161079d565b33611e2e81600087611a7f886125ad565b60008481526001602090815260408083206001600160a01b038916845290915281208054859290611e609084906134f5565b90915550506001600160a01b0385166000908152602081905260409020611e879085611ee3565b5060408051858152602081018590526001600160a01b0380881692600092918516917fc3d58168c5ae7397731d063d5bbf3d657854427343f4c083240f7aacaa2d0f62910160405180910390a4611a8881600087878787612606565b6000610d6883836126d0565b6000610d68838361271f565b6001600160a01b0384163b15610d3e5760405163bc197c8160e01b81526001600160a01b0385169063bc197c8190611f3f90899089908890889088906004016131b1565b602060405180830381600087803b158015611f5957600080fd5b505af1925050508015611f89575060408051601f3d908101601f19168201909252611f8691810190612f83565b60015b61203657611f95613664565b806308c379a01415611fcf5750611faa61367b565b80611fb55750611fd1565b8060405162461bcd60e51b815260040161079d9190613295565b505b60405162461bcd60e51b815260206004820152603460248201527f455243313135353a207472616e7366657220746f206e6f6e20455243313135356044820152732932b1b2b4bb32b91034b6b83632b6b2b73a32b960611b606482015260840161079d565b6001600160e01b0319811663bc197c8160e01b14611bfb5760405162461bcd60e51b815260040161079d906132a8565b6000610d688383612836565b600061081d825490565b6000826020015161208f33600954610735565b10156120f05760405162461bcd60e51b815260206004820152602a60248201527f596f7520646f6e2774206861766520656e6f75676820464c4f555220746f2062604482015269616b652074686174212160b01b606482015260840161079d565b60408301515160008167ffffffffffffffff81111561211f57634e487b7160e01b600052604160045260246000fd5b604051908082528060200260200182016040528015612148578160200160208202803683370190505b5090508351856040015151146121c65760405162461bcd60e51b815260206004820152603c60248201527f596f7520686176656e277420616464656420746865207269676874206e756d6260448201527f6572206f6620737461727465727320746f207468652062617463682100000000606482015260840161079d565b60005b85604001515181101561243f576000600b60008784815181106121fc57634e487b7160e01b600052603260045260246000fd5b60209081029190910181015182528101919091526040016000205461222e90600160281b900463ffffffff1642613579565b90508660400151828151811061225457634e487b7160e01b600052603260045260246000fd5b602002602001015163ffffffff168163ffffffff16116122f65760405162461bcd60e51b815260206004820152605160248201527f596f757220737461727465727320617265206e6f74206f6c6420656e6f75676860448201527f2c20706c65617365207573652074686520737461727465727320726571756972606482015270656420627920746869732072656369706560781b608482015260a40161079d565b42600b600088858151811061231b57634e487b7160e01b600052603260045260246000fd5b60209081029190910181015182528101919091526040016000205463ffffffff1610156123bc5760405162461bcd60e51b815260206004820152604360248201527f596f757220737461727465727320617265206e6f7420616c6c20616c6976652c60448201527f20796f75206d757374207573652061206c6976696e6720696e6772656469656e60648201526274212160e81b608482015260a40161079d565b6123e033878481518110610f0157634e487b7160e01b600052603260045260246000fd5b6001146123ff5760405162461bcd60e51b815260040161079d90613334565b600183838151811061242157634e487b7160e01b600052603260045260246000fd5b602090810291909101015250806124378161361d565b9150506121c9565b5061244b3385836128ca565b612459338660200151611d7d565b506001949350505050565b6001600160a01b03831661248a5760405162461bcd60e51b815260040161079d906133fc565b336124ba8185600061249b876125ad565b6124a4876125ad565b5050604080516020810190915260009052505050565b60008381526001602090815260408083206001600160a01b0388168452909152902054828110156124fd5760405162461bcd60e51b815260040161079d906132f0565b60006125098483613579565b60008681526001602090815260408083206001600160a01b038b1684529091529020819055905080612559576001600160a01b03861660009081526020819052604090206125579086611eef565b505b60408051868152602081018690526000916001600160a01b0389811692908716917fc3d58168c5ae7397731d063d5bbf3d657854427343f4c083240f7aacaa2d0f62910160405180910390a4505050505050565b604080516001808252818301909252606091600091906020808301908036833701905050905082816000815181106125f557634e487b7160e01b600052603260045260246000fd5b602090810291909101015292915050565b6001600160a01b0384163b15610d3e5760405163f23a6e6160e01b81526001600160a01b0385169063f23a6e619061264a908990899088908890889060040161320f565b602060405180830381600087803b15801561266457600080fd5b505af1925050508015612694575060408051601f3d908101601f1916820190925261269191810190612f83565b60015b6126a057611f95613664565b6001600160e01b0319811663f23a6e6160e01b14611bfb5760405162461bcd60e51b815260040161079d906132a8565b6000818152600183016020526040812054612717575081546001818101845560008481526020808220909301849055845484825282860190935260409020919091556107cb565b5060006107cb565b6000818152600183016020526040812054801561282c576000612743600183613579565b855490915060009061275790600190613579565b9050600086600001828154811061277e57634e487b7160e01b600052603260045260246000fd5b90600052602060002001549050808760000184815481106127af57634e487b7160e01b600052603260045260246000fd5b6000918252602080832090910192909255828152600189019091526040902084905586548790806127f057634e487b7160e01b600052603160045260246000fd5b600190038181906000526020600020016000905590558660010160008781526020019081526020016000206000905560019450505050506107cb565b60009150506107cb565b815460009082106128945760405162461bcd60e51b815260206004820152602260248201527f456e756d657261626c655365743a20696e646578206f7574206f6620626f756e604482015261647360f01b606482015260840161079d565b8260000182815481106128b757634e487b7160e01b600052603260045260246000fd5b9060005260206000200154905092915050565b6001600160a01b0383166128f05760405162461bcd60e51b815260040161079d906133fc565b80518251146129115760405162461bcd60e51b815260040161079d90613489565b604080516020810190915260009081905233905b8351811015612a3e57600084828151811061295057634e487b7160e01b600052603260045260246000fd5b60200260200101519050600084838151811061297c57634e487b7160e01b600052603260045260246000fd5b60209081029190910181015160008481526001835260408082206001600160a01b038c16835290935291822054909250906129b78383613579565b9050828210156129d95760405162461bcd60e51b815260040161079d906132f0565b60008481526001602090815260408083206001600160a01b038d168452909152902081905580612a27576001600160a01b0389166000908152602081905260409020612a259085611eef565b505b505050508080612a369061361d565b915050612925565b5060006001600160a01b0316846001600160a01b0316826001600160a01b03167f4a39dc06d4c0dbc64b70af90fd698a233a518aa5d07e595d983b8c0526c8f7fb8686604051612a8f929190613267565b60405180910390a450505050565b828054612aa9906135b5565b90600052602060002090601f016020900481019282612acb5760008555612b11565b82601f10612ae457805160ff1916838001178555612b11565b82800160010185558215612b11579182015b82811115612b11578251825591602001919060010190612af6565b50612b1d929150612bc7565b5090565b82805482825590600052602060002090600701600890048101928215612b115791602002820160005b83821115612b8e57835183826101000a81548163ffffffff021916908363ffffffff1602179055509260200192600401602081600301049283019260010302612b4a565b8015612bbe5782816101000a81549063ffffffff0219169055600401602081600301049283019260010302612b8e565b5050612b1d9291505b5b80821115612b1d5760008155600101612bc8565b600067ffffffffffffffff831115612bf657612bf661364e565b604051612c0d601f8501601f1916602001826135f0565b809150838152848484011115612c2257600080fd5b83836020830137600060208583010152509392505050565b80356001600160a01b038116811461082057600080fd5b600082601f830112612c61578081fd5b81356020612c6e826134d1565b604051612c7b82826135f0565b8381528281019150858301600585901b87018401881015612c9a578586fd5b855b85811015612cb857813584529284019290840190600101612c9c565b5090979650505050505050565b600082601f830112612cd5578081fd5b610d6883833560208501612bdc565b600060208284031215612cf5578081fd5b610d6882612c3a565b60008060408385031215612d10578081fd5b612d1983612c3a565b9150612d2760208401612c3a565b90509250929050565b600080600080600060a08688031215612d47578081fd5b612d5086612c3a565b9450612d5e60208701612c3a565b9350604086013567ffffffffffffffff80821115612d7a578283fd5b612d8689838a01612c51565b94506060880135915080821115612d9b578283fd5b612da789838a01612c51565b93506080880135915080821115612dbc578283fd5b50612dc988828901612cc5565b9150509295509295909350565b600080600080600060a08688031215612ded578081fd5b612df686612c3a565b9450612e0460208701612c3a565b93506040860135925060608601359150608086013567ffffffffffffffff811115612e2d578182fd5b612dc988828901612cc5565b60008060408385031215612e4b578182fd5b612e5483612c3a565b915060208301358015158114612e68578182fd5b809150509250929050565b60008060408385031215612e85578081fd5b612e8e83612c3a565b946020939093013593505050565b60008060408385031215612eae578182fd5b823567ffffffffffffffff80821115612ec5578384fd5b818501915085601f830112612ed8578384fd5b81356020612ee5826134d1565b604051612ef282826135f0565b8381528281019150858301600585901b870184018b1015612f11578889fd5b8896505b84871015612f3a57612f2681612c3a565b835260019690960195918301918301612f15565b5096505086013592505080821115612f50578283fd5b50612f5d85828601612c51565b9150509250929050565b600060208284031215612f78578081fd5b8135610d688161370d565b600060208284031215612f94578081fd5b8151610d688161370d565b60008060008060808587031215612fb4578182fd5b843567ffffffffffffffff80821115612fcb578384fd5b818701915087601f830112612fde578384fd5b6020612fee898435838601612bdc565b96508088013595506040880135925081831115613009578485fd5b828801925088601f84011261301c578485fd5b8235613027816134d1565b60405161303482826135f0565b8281528381019150858401600584901b870185018d1015613053578889fd5b8896505b8387101561308657803563ffffffff8116811461307257898afd5b835260019690960195918401918401613057565b509650505050606087013591508082111561309f578283fd5b506130ac87828801612c51565b91505092959194509250565b6000602082840312156130c9578081fd5b5035919050565b600080604083850312156130e2578182fd5b82359150602083013567ffffffffffffffff8111156130ff578182fd5b612f5d85828601612c51565b6000806040838503121561311d578182fd5b50508035926020909101359150565b6000815180845260208085019450808401835b8381101561315b5781518752958201959082019060010161313f565b509495945050505050565b60008151808452815b8181101561318b5760208185018101518683018201520161316f565b8181111561319c5782602083870101525b50601f01601f19169290920160200192915050565b6001600160a01b0386811682528516602082015260a0604082018190526000906131dd9083018661312c565b82810360608401526131ef818661312c565b905082810360808401526132038185613166565b98975050505050505050565b6001600160a01b03868116825285166020820152604081018490526060810183905260a06080820181905260009061324990830184613166565b979650505050505050565b600060208252610d68602083018461312c565b60006040825261327a604083018561312c565b828103602084015261328c818561312c565b95945050505050565b600060208252610d686020830184613166565b60208082526028908201527f455243313135353a204552433131353552656365697665722072656a656374656040820152676420746f6b656e7360c01b606082015260800190565b60208082526024908201527f455243313135353a206275726e20616d6f756e7420657863656564732062616c604082015263616e636560e01b606082015260800190565b60208082526057908201527f54686973204964206e756d626572206973206e6f74206173736f63696174656460408201527f2077697468206f6e65206f6620796f75722073746172746572732c20706c656160608201527f736520747279207769746820612076616c69642069642e000000000000000000608082015260a00190565b60208082526025908201527f455243313135353a207472616e7366657220746f20746865207a65726f206164604082015264647265737360d81b606082015260800190565b60208082526023908201527f455243313135353a206275726e2066726f6d20746865207a65726f206164647260408201526265737360e81b606082015260800190565b6020808252602a908201527f455243313135353a20696e73756666696369656e742062616c616e636520666f60408201526939103a3930b739b332b960b11b606082015260800190565b60208082526028908201527f455243313135353a2069647320616e6420616d6f756e7473206c656e677468206040820152670dad2e6dac2e8c6d60c31b606082015260800190565b600067ffffffffffffffff8211156134eb576134eb61364e565b5060051b60200190565b6000821982111561350857613508613638565b500190565b600063ffffffff80831681851680830382111561352c5761352c613638565b01949350505050565b600060ff821660ff84168060ff0382111561355257613552613638565b019392505050565b600081600019048311821515161561357457613574613638565b500290565b60008282101561358b5761358b613638565b500390565b600063ffffffff838116908316818110156135ad576135ad613638565b039392505050565b600181811c908216806135c957607f821691505b602082108114156135ea57634e487b7160e01b600052602260045260246000fd5b50919050565b601f8201601f1916810167ffffffffffffffff811182821017156136165761361661364e565b6040525050565b600060001982141561363157613631613638565b5060010190565b634e487b7160e01b600052601160045260246000fd5b634e487b7160e01b600052604160045260246000fd5b600060033d111561099d57600481823e5160e01c90565b600060443d101561368b5761099d565b6040516003193d81016004833e81513d67ffffffffffffffff81602484011181841117156136bd57505050505061099d565b82850191508151818111156136d75750505050505061099d565b843d87010160208285010111156136f35750505050505061099d565b613702602082860101876135f0565b509094505050505090565b6001600160e01b03198116811461372357600080fd5b5056fea26469706673582212200e4582ba9d290de2a0cfaad69faed2f55fccd897ed042741e33c4943c23b235364736f6c63430008030033","bytecodeSha1":"ee658472103c0ab8b2ab1e97a724a55fb03fc8d2","compiler":{"evm_version":"istanbul","optimizer":{"enabled":true,"runs":200},"version":"0.8.3+commit.8d00100c"},"contractName":"Cafe","language":"Solidity","natspec":{"kind":"dev","methods":{"bakeExistingRecipe(uint256,uint256[])":{"details":"Takes the id of an existing recipe and a batch of ingredients.  Burns the batch and the required flour, mints an item with the recipe Id "},"balanceOf(address,uint256)":{"details":"See {IERC1155-balanceOf}. Requirements: - `account` cannot be the zero address."},"balanceOfBatch(address[],uint256[])":{"details":"See {IERC1155-balanceOfBatch}. Requirements: - `accounts` and `ids` must have the same length."},"createStarter()":{"details":"Makes a new nonfungible starter with age attributes by burning 50 FLOUR "},"eatBakedGood(uint256,uint256)":{"details":"Burns an item, credits the player with a score equivalent to the total age of all ingredients "},"feedStarter(uint256)":{"details":"Burns 50 FLOUR and resets the time of death for your token"},"grindFlour()":{"details":"Credits the user 100 FLOUR every 24 hours if submitted"},"isApprovedForAll(address,address)":{"details":"See {IERC1155-isApprovedForAll}."},"publishNewRecipe(string,uint256,uint32[],uint256[])":{"details":"Bakes and publishes a recipe that does not yet exist "},"safeBatchTransferFrom(address,address,uint256[],uint256[],bytes)":{"details":"See {IERC1155-safeBatchTransferFrom}."},"safeTransferFrom(address,address,uint256,uint256,bytes)":{"details":"See {IERC1155-safeTransferFrom}."},"setApprovalForAll(address,bool)":{"details":"See {IERC1155-setApprovalForAll}."},"splitStarter(uint256)":{"details":"Feeds and duplicates your starter, returning another with identical age - costs 100 FLOUR "},"supportsInterface(bytes4)":{"details":"See {IERC165-supportsInterface}."},"uri(uint256)":{"details":"See {IERC1155MetadataURI-uri}. This implementation returns the same URI for *all* token types. It relies on the token type ID substitution mechanism https://eips.ethereum.org/EIPS/eip-1155#metadata[defined in the EIP]. Clients calling this function must replace the `\\{id\\}` substring with the actual token type ID."}},"stateVariables":{"createCost":{"details":"These are the constructor parameters.  Create/feed Costs are the flour required to create and feed starters.   Timescale represents the timescale at which starters die, feed reset time, and  grindFlour cooldown grindReward is the reward for grinding flour"},"devAddress":{"details":"flourId denotes the id of the fungible FLOUR token dividerIndex separates semi-fungible starter ingredients and semi-fungible baked goods grindCooldown determine whether or not an address can grind flour"},"oldestStarterId":{"details":"total stats"}},"version":1},"opcodes":"PUSH1 0x80 PUSH1 0x40 MSTORE CALLVALUE DUP1 ISZERO PUSH2 0x10 JUMPI PUSH1 0x0 DUP1 REVERT JUMPDEST POP PUSH1 0x4 CALLDATASIZE LT PUSH2 0x27E JUMPI PUSH1 0x0 CALLDATALOAD PUSH1 0xE0 SHR DUP1 PUSH4 0x7985781F GT PUSH2 0x15C JUMPI DUP1 PUSH4 0xB172DECC GT PUSH2 0xCE JUMPI DUP1 PUSH4 0xE085C539 GT PUSH2 0x87 JUMPI DUP1 PUSH4 0xE085C539 EQ PUSH2 0x677 JUMPI DUP1 PUSH4 0xE985E9C5 EQ PUSH2 0x6A0 JUMPI DUP1 PUSH4 0xF242432A EQ PUSH2 0x6DC JUMPI DUP1 PUSH4 0xF6D989F2 EQ PUSH2 0x6EF JUMPI DUP1 PUSH4 0xF71ED3B8 EQ PUSH2 0x6F8 JUMPI DUP1 PUSH4 0xFC4F816C EQ PUSH2 0x722 JUMPI PUSH2 0x27E JUMP JUMPDEST DUP1 PUSH4 0xB172DECC EQ PUSH2 0x5E9 JUMPI DUP1 PUSH4 0xC889D089 EQ PUSH2 0x5FC JUMPI DUP1 PUSH4 0xC8CF79D9 EQ PUSH2 0x605 JUMPI DUP1 PUSH4 0xCB208010 EQ PUSH2 0x618 JUMPI DUP1 PUSH4 0xD4D3C09C EQ PUSH2 0x63B JUMPI DUP1 PUSH4 0xD682D87A EQ PUSH2 0x64B JUMPI PUSH2 0x27E JUMP JUMPDEST DUP1 PUSH4 0xA22CB465 GT PUSH2 0x120 JUMPI DUP1 PUSH4 0xA22CB465 EQ PUSH2 0x579 JUMPI DUP1 PUSH4 0xA30B4DB9 EQ PUSH2 0x58C JUMPI DUP1 PUSH4 0xA3486758 EQ PUSH2 0x5BC JUMPI DUP1 PUSH4 0xA41E1C17 EQ PUSH2 0x5C4 JUMPI DUP1 PUSH4 0xA73ADBC6 EQ PUSH2 0x5D7 JUMPI DUP1 PUSH4 0xAB5E9E8E EQ PUSH2 0x5E0 JUMPI PUSH2 0x27E JUMP JUMPDEST DUP1 PUSH4 0x7985781F EQ PUSH2 0x497 JUMPI DUP1 PUSH4 0x7A77AF5C EQ PUSH2 0x4C6 JUMPI DUP1 PUSH4 0x7F8315CD EQ PUSH2 0x503 JUMPI DUP1 PUSH4 0x976C39BE EQ PUSH2 0x529 JUMPI DUP1 PUSH4 0x97EC23CB EQ PUSH2 0x54C JUMPI PUSH2 0x27E JUMP JUMPDEST DUP1 PUSH4 0x3AD10EF6 GT PUSH2 0x1F5 JUMPI DUP1 PUSH4 0x5AAB8E2F GT PUSH2 0x1B9 JUMPI DUP1 PUSH4 0x5AAB8E2F EQ PUSH2 0x433 JUMPI DUP1 PUSH4 0x5C2C894A EQ PUSH2 0x43C JUMPI DUP1 PUSH4 0x6510989C EQ PUSH2 0x445 JUMPI DUP1 PUSH4 0x69C13E8B EQ PUSH2 0x458 JUMPI DUP1 PUSH4 0x70B5E7B0 EQ PUSH2 0x461 JUMPI DUP1 PUSH4 0x781F1B75 EQ PUSH2 0x484 JUMPI PUSH2 0x27E JUMP JUMPDEST DUP1 PUSH4 0x3AD10EF6 EQ PUSH2 0x3AF JUMPI DUP1 PUSH4 0x40EEDABB EQ PUSH2 0x3DA JUMPI DUP1 PUSH4 0x42DA6F9C EQ PUSH2 0x3ED JUMPI DUP1 PUSH4 0x4E1273F4 EQ PUSH2 0x400 JUMPI DUP1 PUSH4 0x4F41393B EQ PUSH2 0x420 JUMPI PUSH2 0x27E JUMP JUMPDEST DUP1 PUSH4 0x2A316CDF GT PUSH2 0x247 JUMPI DUP1 PUSH4 0x2A316CDF EQ PUSH2 0x307 JUMPI DUP1 PUSH4 0x2B944DDF EQ PUSH2 0x32A JUMPI DUP1 PUSH4 0x2EB2C2D6 EQ PUSH2 0x333 JUMPI DUP1 PUSH4 0x2F745C59 EQ PUSH2 0x348 JUMPI DUP1 PUSH4 0x34B7FA22 EQ PUSH2 0x35B JUMPI DUP1 PUSH4 0x36FF4C95 EQ PUSH2 0x383 JUMPI PUSH2 0x27E JUMP JUMPDEST DUP1 PUSH3 0xFDD58E EQ PUSH2 0x283 JUMPI DUP1 PUSH4 0x1FFC9A7 EQ PUSH2 0x2A9 JUMPI DUP1 PUSH4 0x7047482 EQ PUSH2 0x2CC JUMPI DUP1 PUSH4 0xE89341C EQ PUSH2 0x2D4 JUMPI DUP1 PUSH4 0x1269CA40 EQ PUSH2 0x2F4 JUMPI JUMPDEST PUSH1 0x0 DUP1 REVERT JUMPDEST PUSH2 0x296 PUSH2 0x291 CALLDATASIZE PUSH1 0x4 PUSH2 0x2E73 JUMP JUMPDEST PUSH2 0x735 JUMP JUMPDEST PUSH1 0x40 MLOAD SWAP1 DUP2 MSTORE PUSH1 0x20 ADD JUMPDEST PUSH1 0x40 MLOAD DUP1 SWAP2 SUB SWAP1 RETURN JUMPDEST PUSH2 0x2BC PUSH2 0x2B7 CALLDATASIZE PUSH1 0x4 PUSH2 0x2F67 JUMP JUMPDEST PUSH2 0x7D1 JUMP JUMPDEST PUSH1 0x40 MLOAD SWAP1 ISZERO ISZERO DUP2 MSTORE PUSH1 0x20 ADD PUSH2 0x2A0 JUMP JUMPDEST PUSH2 0x2BC PUSH2 0x825 JUMP JUMPDEST PUSH2 0x2E7 PUSH2 0x2E2 CALLDATASIZE PUSH1 0x4 PUSH2 0x30B8 JUMP JUMPDEST PUSH2 0x9A0 JUMP JUMPDEST PUSH1 0x40 MLOAD PUSH2 0x2A0 SWAP2 SWAP1 PUSH2 0x3295 JUMP JUMPDEST PUSH2 0x2E7 PUSH2 0x302 CALLDATASIZE PUSH1 0x4 PUSH2 0x30B8 JUMP JUMPDEST PUSH2 0xA34 JUMP JUMPDEST PUSH2 0x296 PUSH2 0x315 CALLDATASIZE PUSH1 0x4 PUSH2 0x30B8 JUMP JUMPDEST PUSH1 0x0 SWAP1 DUP2 MSTORE PUSH1 0xD PUSH1 0x20 MSTORE PUSH1 0x40 SWAP1 KECCAK256 PUSH1 0x1 ADD SLOAD SWAP1 JUMP JUMPDEST PUSH2 0x296 PUSH1 0x17 SLOAD DUP2 JUMP JUMPDEST PUSH2 0x346 PUSH2 0x341 CALLDATASIZE PUSH1 0x4 PUSH2 0x2D30 JUMP JUMPDEST PUSH2 0xA51 JUMP JUMPDEST STOP JUMPDEST PUSH2 0x296 PUSH2 0x356 CALLDATASIZE PUSH1 0x4 PUSH2 0x2E73 JUMP JUMPDEST PUSH2 0xD46 JUMP JUMPDEST PUSH2 0x36E PUSH2 0x369 CALLDATASIZE PUSH1 0x4 PUSH2 0x310B JUMP JUMPDEST PUSH2 0xD6F JUMP JUMPDEST PUSH1 0x40 MLOAD PUSH4 0xFFFFFFFF SWAP1 SWAP2 AND DUP2 MSTORE PUSH1 0x20 ADD PUSH2 0x2A0 JUMP JUMPDEST PUSH2 0x2BC PUSH2 0x391 CALLDATASIZE PUSH1 0x4 PUSH2 0x2CE4 JUMP JUMPDEST PUSH1 0x1 PUSH1 0x1 PUSH1 0xA0 SHL SUB AND PUSH1 0x0 SWAP1 DUP2 MSTORE PUSH1 0xF PUSH1 0x20 MSTORE PUSH1 0x40 SWAP1 KECCAK256 SLOAD PUSH1 0xFF AND SWAP1 JUMP JUMPDEST PUSH1 0x8 SLOAD PUSH2 0x3C2 SWAP1 PUSH1 0x1 PUSH1 0x1 PUSH1 0xA0 SHL SUB AND DUP2 JUMP JUMPDEST PUSH1 0x40 MLOAD PUSH1 0x1 PUSH1 0x1 PUSH1 0xA0 SHL SUB SWAP1 SWAP2 AND DUP2 MSTORE PUSH1 0x20 ADD PUSH2 0x2A0 JUMP JUMPDEST PUSH1 0x13 SLOAD PUSH2 0x3C2 SWAP1 PUSH1 0x1 PUSH1 0x1 PUSH1 0xA0 SHL SUB AND DUP2 JUMP JUMPDEST PUSH2 0x296 PUSH2 0x3FB CALLDATASIZE PUSH1 0x4 PUSH2 0x2CE4 JUMP JUMPDEST PUSH2 0xDCE JUMP JUMPDEST PUSH2 0x413 PUSH2 0x40E CALLDATASIZE PUSH1 0x4 PUSH2 0x2E9C JUMP JUMPDEST PUSH2 0xDEF JUMP JUMPDEST PUSH1 0x40 MLOAD PUSH2 0x2A0 SWAP2 SWAP1 PUSH2 0x3254 JUMP JUMPDEST PUSH2 0x2BC PUSH2 0x42E CALLDATASIZE PUSH1 0x4 PUSH2 0x30D0 JUMP JUMPDEST PUSH2 0xF51 JUMP JUMPDEST PUSH2 0x296 PUSH1 0x15 SLOAD DUP2 JUMP JUMPDEST PUSH2 0x296 PUSH1 0x18 SLOAD DUP2 JUMP JUMPDEST PUSH2 0x2BC PUSH2 0x453 CALLDATASIZE PUSH1 0x4 PUSH2 0x310B JUMP JUMPDEST PUSH2 0x1154 JUMP JUMPDEST PUSH2 0x296 PUSH1 0x10 SLOAD DUP2 JUMP JUMPDEST PUSH2 0x296 PUSH2 0x46F CALLDATASIZE PUSH1 0x4 PUSH2 0x30B8 JUMP JUMPDEST PUSH1 0x0 SWAP1 DUP2 MSTORE PUSH1 0xD PUSH1 0x20 MSTORE PUSH1 0x40 SWAP1 KECCAK256 PUSH1 0x5 ADD SLOAD SWAP1 JUMP JUMPDEST PUSH2 0x2BC PUSH2 0x492 CALLDATASIZE PUSH1 0x4 PUSH2 0x30B8 JUMP JUMPDEST PUSH2 0x1371 JUMP JUMPDEST PUSH2 0x36E PUSH2 0x4A5 CALLDATASIZE PUSH1 0x4 PUSH2 0x2CE4 JUMP JUMPDEST PUSH1 0x1 PUSH1 0x1 PUSH1 0xA0 SHL SUB AND PUSH1 0x0 SWAP1 DUP2 MSTORE PUSH1 0xC PUSH1 0x20 MSTORE PUSH1 0x40 SWAP1 KECCAK256 SLOAD PUSH4 0xFFFFFFFF AND SWAP1 JUMP JUMPDEST PUSH2 0x4F1 PUSH2 0x4D4 CALLDATASIZE PUSH1 0x4 PUSH2 0x30B8 JUMP JUMPDEST PUSH1 0x0 SWAP1 DUP2 MSTORE PUSH1 0xB PUSH1 0x20 MSTORE PUSH1 0x40 SWAP1 KECCAK256 SLOAD PUSH5 0x100000000 SWAP1 DIV PUSH1 0xFF AND SWAP1 JUMP JUMPDEST PUSH1 0x40 MLOAD PUSH1 0xFF SWAP1 SWAP2 AND DUP2 MSTORE PUSH1 0x20 ADD PUSH2 0x2A0 JUMP JUMPDEST PUSH2 0x36E PUSH2 0x511 CALLDATASIZE PUSH1 0x4 PUSH2 0x30B8 JUMP JUMPDEST PUSH1 0x0 SWAP1 DUP2 MSTORE PUSH1 0xB PUSH1 0x20 MSTORE PUSH1 0x40 SWAP1 KECCAK256 SLOAD PUSH4 0xFFFFFFFF AND SWAP1 JUMP JUMPDEST PUSH2 0x296 PUSH2 0x537 CALLDATASIZE PUSH1 0x4 PUSH2 0x30B8 JUMP JUMPDEST PUSH1 0x0 SWAP1 DUP2 MSTORE PUSH1 0xD PUSH1 0x20 MSTORE PUSH1 0x40 SWAP1 KECCAK256 PUSH1 0x4 ADD SLOAD SWAP1 JUMP JUMPDEST PUSH2 0x36E PUSH2 0x55A CALLDATASIZE PUSH1 0x4 PUSH2 0x30B8 JUMP JUMPDEST PUSH1 0x0 SWAP1 DUP2 MSTORE PUSH1 0xB PUSH1 0x20 MSTORE PUSH1 0x40 SWAP1 KECCAK256 SLOAD PUSH1 0x1 PUSH1 0x28 SHL SWAP1 DIV PUSH4 0xFFFFFFFF AND SWAP1 JUMP JUMPDEST PUSH2 0x346 PUSH2 0x587 CALLDATASIZE PUSH1 0x4 PUSH2 0x2E39 JUMP JUMPDEST PUSH2 0x1433 JUMP JUMPDEST PUSH2 0x3C2 PUSH2 0x59A CALLDATASIZE PUSH1 0x4 PUSH2 0x30B8 JUMP JUMPDEST PUSH1 0x0 SWAP1 DUP2 MSTORE PUSH1 0xB PUSH1 0x20 MSTORE PUSH1 0x40 SWAP1 KECCAK256 SLOAD PUSH1 0x1 PUSH1 0x48 SHL SWAP1 DIV PUSH1 0x1 PUSH1 0x1 PUSH1 0xA0 SHL SUB AND SWAP1 JUMP JUMPDEST PUSH2 0x346 PUSH2 0x1517 JUMP JUMPDEST PUSH2 0x2BC PUSH2 0x5D2 CALLDATASIZE PUSH1 0x4 PUSH2 0x2F9F JUMP JUMPDEST PUSH2 0x167F JUMP JUMPDEST PUSH2 0x296 PUSH1 0x12 SLOAD DUP2 JUMP JUMPDEST PUSH2 0x296 PUSH1 0x16 SLOAD DUP2 JUMP JUMPDEST PUSH2 0x2BC PUSH2 0x5F7 CALLDATASIZE PUSH1 0x4 PUSH2 0x310B JUMP JUMPDEST PUSH2 0x186E JUMP JUMPDEST PUSH2 0x296 PUSH1 0x14 SLOAD DUP2 JUMP JUMPDEST PUSH2 0x2BC PUSH2 0x613 CALLDATASIZE PUSH1 0x4 PUSH2 0x30B8 JUMP JUMPDEST PUSH2 0x1964 JUMP JUMPDEST PUSH2 0x296 PUSH2 0x626 CALLDATASIZE PUSH1 0x4 PUSH2 0x30B8 JUMP JUMPDEST PUSH1 0x0 SWAP1 DUP2 MSTORE PUSH1 0xD PUSH1 0x20 MSTORE PUSH1 0x40 SWAP1 KECCAK256 PUSH1 0x2 ADD SLOAD SWAP1 JUMP JUMPDEST PUSH1 0x11 SLOAD PUSH2 0x36E SWAP1 PUSH4 0xFFFFFFFF AND DUP2 JUMP JUMPDEST PUSH2 0x3C2 PUSH2 0x659 CALLDATASIZE PUSH1 0x4 PUSH2 0x30B8 JUMP JUMPDEST PUSH1 0x0 SWAP1 DUP2 MSTORE PUSH1 0xD PUSH1 0x20 MSTORE PUSH1 0x40 SWAP1 KECCAK256 PUSH1 0x3 ADD SLOAD PUSH1 0x1 PUSH1 0x1 PUSH1 0xA0 SHL SUB AND SWAP1 JUMP JUMPDEST PUSH2 0x296 PUSH2 0x685 CALLDATASIZE PUSH1 0x4 PUSH2 0x2CE4 JUMP JUMPDEST PUSH1 0x1 PUSH1 0x1 PUSH1 0xA0 SHL SUB AND PUSH1 0x0 SWAP1 DUP2 MSTORE PUSH1 0xE PUSH1 0x20 MSTORE PUSH1 0x40 SWAP1 KECCAK256 SLOAD SWAP1 JUMP JUMPDEST PUSH2 0x2BC PUSH2 0x6AE CALLDATASIZE PUSH1 0x4 PUSH2 0x2CFE JUMP JUMPDEST PUSH1 0x1 PUSH1 0x1 PUSH1 0xA0 SHL SUB SWAP2 DUP3 AND PUSH1 0x0 SWAP1 DUP2 MSTORE PUSH1 0x2 PUSH1 0x20 SWAP1 DUP2 MSTORE PUSH1 0x40 DUP1 DUP4 KECCAK256 SWAP4 SWAP1 SWAP5 AND DUP3 MSTORE SWAP2 SWAP1 SWAP2 MSTORE KECCAK256 SLOAD PUSH1 0xFF AND SWAP1 JUMP JUMPDEST PUSH2 0x346 PUSH2 0x6EA CALLDATASIZE PUSH1 0x4 PUSH2 0x2DD6 JUMP JUMPDEST PUSH2 0x19CF JUMP JUMPDEST PUSH2 0x296 PUSH1 0x19 SLOAD DUP2 JUMP JUMPDEST PUSH2 0x2BC PUSH2 0x706 CALLDATASIZE PUSH1 0x4 PUSH2 0x30B8 JUMP JUMPDEST PUSH1 0x0 SWAP1 DUP2 MSTORE PUSH1 0xB PUSH1 0x20 MSTORE PUSH1 0x40 SWAP1 KECCAK256 SLOAD PUSH1 0x1 PUSH1 0xE8 SHL SWAP1 DIV PUSH1 0xFF AND SWAP1 JUMP JUMPDEST PUSH2 0x2BC PUSH2 0x730 CALLDATASIZE PUSH1 0x4 PUSH2 0x30B8 JUMP JUMPDEST PUSH2 0x1C04 JUMP JUMPDEST PUSH1 0x0 PUSH1 0x1 PUSH1 0x1 PUSH1 0xA0 SHL SUB DUP4 AND PUSH2 0x7A6 JUMPI PUSH1 0x40 MLOAD PUSH3 0x461BCD PUSH1 0xE5 SHL DUP2 MSTORE PUSH1 0x20 PUSH1 0x4 DUP3 ADD MSTORE PUSH1 0x2B PUSH1 0x24 DUP3 ADD MSTORE PUSH32 0x455243313135353A2062616C616E636520717565727920666F7220746865207A PUSH1 0x44 DUP3 ADD MSTORE PUSH11 0x65726F2061646472657373 PUSH1 0xA8 SHL PUSH1 0x64 DUP3 ADD MSTORE PUSH1 0x84 ADD JUMPDEST PUSH1 0x40 MLOAD DUP1 SWAP2 SUB SWAP1 REVERT JUMPDEST POP PUSH1 0x0 DUP2 DUP2 MSTORE PUSH1 0x1 PUSH1 0x20 SWAP1 DUP2 MSTORE PUSH1 0x40 DUP1 DUP4 KECCAK256 PUSH1 0x1 PUSH1 0x1 PUSH1 0xA0 SHL SUB DUP7 AND DUP5 MSTORE SWAP1 SWAP2 MSTORE SWAP1 KECCAK256 SLOAD JUMPDEST SWAP3 SWAP2 POP POP JUMP JUMPDEST PUSH1 0x0 PUSH1 0x1 PUSH1 0x1 PUSH1 0xE0 SHL SUB NOT DUP3 AND PUSH4 0x6CDB3D13 PUSH1 0xE1 SHL EQ DUP1 PUSH2 0x802 JUMPI POP PUSH1 0x1 PUSH1 0x1 PUSH1 0xE0 SHL SUB NOT DUP3 AND PUSH4 0x3A24D07 PUSH1 0xE2 SHL EQ JUMPDEST DUP1 PUSH2 0x81D JUMPI POP PUSH4 0x1FFC9A7 PUSH1 0xE0 SHL PUSH1 0x1 PUSH1 0x1 PUSH1 0xE0 SHL SUB NOT DUP4 AND EQ JUMPDEST SWAP1 POP JUMPDEST SWAP2 SWAP1 POP JUMP JUMPDEST PUSH1 0x0 PUSH2 0x833 CALLER PUSH1 0x4 SLOAD PUSH2 0x1D7D JUMP JUMPDEST PUSH1 0x0 PUSH1 0x17 SLOAD PUSH1 0x1 PUSH2 0x844 SWAP2 SWAP1 PUSH2 0x34F5 JUMP JUMPDEST SWAP1 POP PUSH2 0x86C CALLER PUSH2 0x855 DUP4 PUSH1 0x0 PUSH2 0x34F5 JUMP JUMPDEST PUSH1 0x1 PUSH1 0x40 MLOAD DUP1 PUSH1 0x20 ADD PUSH1 0x40 MSTORE DUP1 PUSH1 0x0 DUP2 MSTORE POP PUSH2 0x1DBD JUMP JUMPDEST PUSH1 0x40 DUP1 MLOAD PUSH1 0xA0 DUP2 ADD SWAP1 SWAP2 MSTORE PUSH1 0x6 SLOAD PUSH1 0x0 SWAP2 SWAP1 DUP2 SWAP1 PUSH2 0x890 SWAP1 PUSH4 0xFFFFFFFF AND TIMESTAMP PUSH2 0x34F5 JUMP JUMPDEST PUSH4 0xFFFFFFFF AND DUP2 MSTORE PUSH1 0x20 ADD PUSH1 0x0 PUSH1 0xFF AND DUP2 MSTORE PUSH1 0x20 ADD TIMESTAMP PUSH4 0xFFFFFFFF AND DUP2 MSTORE PUSH1 0x20 ADD CALLER PUSH1 0x1 PUSH1 0x1 PUSH1 0xA0 SHL SUB AND DUP2 MSTORE PUSH1 0x20 ADD PUSH1 0x0 ISZERO ISZERO DUP2 MSTORE POP SWAP1 POP PUSH1 0x1 PUSH1 0x17 PUSH1 0x0 DUP3 DUP3 SLOAD PUSH2 0x8DC SWAP2 SWAP1 PUSH2 0x34F5 JUMP JUMPDEST SWAP1 SWAP2 SSTORE POP POP PUSH1 0x0 SWAP2 DUP3 MSTORE PUSH1 0xB PUSH1 0x20 SWAP1 DUP2 MSTORE PUSH1 0x40 SWAP3 DUP4 SWAP1 KECCAK256 DUP3 MLOAD DUP2 SLOAD SWAP3 DUP5 ADD MLOAD SWAP5 DUP5 ADD MLOAD PUSH1 0x60 DUP6 ADD MLOAD PUSH1 0x80 SWAP1 SWAP6 ADD MLOAD ISZERO ISZERO PUSH1 0x1 PUSH1 0xE8 SHL MUL PUSH1 0xFF PUSH1 0xE8 SHL NOT PUSH1 0x1 PUSH1 0x1 PUSH1 0xA0 SHL SUB SWAP1 SWAP7 AND PUSH1 0x1 PUSH1 0x48 SHL MUL PUSH32 0xFFFFFF0000000000000000000000000000000000000000FFFFFFFFFFFFFFFFFF PUSH4 0xFFFFFFFF SWAP4 DUP5 AND PUSH1 0x1 PUSH1 0x28 SHL MUL AND PUSH6 0x10000000000 PUSH1 0x1 PUSH1 0xE8 SHL SUB NOT PUSH1 0xFF SWAP1 SWAP10 AND PUSH5 0x100000000 MUL PUSH5 0xFFFFFFFFFF NOT SWAP1 SWAP8 AND SWAP4 SWAP1 SWAP5 AND SWAP3 SWAP1 SWAP3 OR SWAP5 SWAP1 SWAP5 OR SWAP6 SWAP1 SWAP6 AND OR SWAP4 SWAP1 SWAP4 OR SWAP2 SWAP1 SWAP2 AND OR SWAP1 SSTORE POP PUSH1 0x1 JUMPDEST SWAP1 JUMP JUMPDEST PUSH1 0x60 PUSH1 0x3 DUP1 SLOAD PUSH2 0x9AF SWAP1 PUSH2 0x35B5 JUMP JUMPDEST DUP1 PUSH1 0x1F ADD PUSH1 0x20 DUP1 SWAP2 DIV MUL PUSH1 0x20 ADD PUSH1 0x40 MLOAD SWAP1 DUP2 ADD PUSH1 0x40 MSTORE DUP1 SWAP3 SWAP2 SWAP1 DUP2 DUP2 MSTORE PUSH1 0x20 ADD DUP3 DUP1 SLOAD PUSH2 0x9DB SWAP1 PUSH2 0x35B5 JUMP JUMPDEST DUP1 ISZERO PUSH2 0xA28 JUMPI DUP1 PUSH1 0x1F LT PUSH2 0x9FD JUMPI PUSH2 0x100 DUP1 DUP4 SLOAD DIV MUL DUP4 MSTORE SWAP2 PUSH1 0x20 ADD SWAP2 PUSH2 0xA28 JUMP JUMPDEST DUP3 ADD SWAP2 SWAP1 PUSH1 0x0 MSTORE PUSH1 0x20 PUSH1 0x0 KECCAK256 SWAP1 JUMPDEST DUP2 SLOAD DUP2 MSTORE SWAP1 PUSH1 0x1 ADD SWAP1 PUSH1 0x20 ADD DUP1 DUP4 GT PUSH2 0xA0B JUMPI DUP3 SWAP1 SUB PUSH1 0x1F AND DUP3 ADD SWAP2 JUMPDEST POP POP POP POP POP SWAP1 POP SWAP2 SWAP1 POP JUMP JUMPDEST PUSH1 0x0 DUP2 DUP2 MSTORE PUSH1 0xD PUSH1 0x20 MSTORE PUSH1 0x40 SWAP1 KECCAK256 DUP1 SLOAD PUSH1 0x60 SWAP2 SWAP1 PUSH2 0x9AF SWAP1 PUSH2 0x35B5 JUMP JUMPDEST DUP2 MLOAD DUP4 MLOAD EQ PUSH2 0xA72 JUMPI PUSH1 0x40 MLOAD PUSH3 0x461BCD PUSH1 0xE5 SHL DUP2 MSTORE PUSH1 0x4 ADD PUSH2 0x79D SWAP1 PUSH2 0x3489 JUMP JUMPDEST PUSH1 0x1 PUSH1 0x1 PUSH1 0xA0 SHL SUB DUP5 AND PUSH2 0xA98 JUMPI PUSH1 0x40 MLOAD PUSH3 0x461BCD PUSH1 0xE5 SHL DUP2 MSTORE PUSH1 0x4 ADD PUSH2 0x79D SWAP1 PUSH2 0x33B7 JUMP JUMPDEST PUSH1 0x1 PUSH1 0x1 PUSH1 0xA0 SHL SUB DUP6 AND CALLER EQ DUP1 PUSH2 0xAB4 JUMPI POP PUSH2 0xAB4 DUP6 CALLER PUSH2 0x6AE JUMP JUMPDEST PUSH2 0xB1B JUMPI PUSH1 0x40 MLOAD PUSH3 0x461BCD PUSH1 0xE5 SHL DUP2 MSTORE PUSH1 0x20 PUSH1 0x4 DUP3 ADD MSTORE PUSH1 0x32 PUSH1 0x24 DUP3 ADD MSTORE PUSH32 0x455243313135353A207472616E736665722063616C6C6572206973206E6F7420 PUSH1 0x44 DUP3 ADD MSTORE PUSH18 0x1BDDDB995C881B9BDC88185C1C1C9BDD9959 PUSH1 0x72 SHL PUSH1 0x64 DUP3 ADD MSTORE PUSH1 0x84 ADD PUSH2 0x79D JUMP JUMPDEST CALLER PUSH1 0x0 JUMPDEST DUP5 MLOAD DUP2 LT ISZERO PUSH2 0xCD8 JUMPI PUSH1 0x0 DUP6 DUP3 DUP2 MLOAD DUP2 LT PUSH2 0xB4A JUMPI PUSH4 0x4E487B71 PUSH1 0xE0 SHL PUSH1 0x0 MSTORE PUSH1 0x32 PUSH1 0x4 MSTORE PUSH1 0x24 PUSH1 0x0 REVERT JUMPDEST PUSH1 0x20 MUL PUSH1 0x20 ADD ADD MLOAD SWAP1 POP PUSH1 0x0 DUP6 DUP4 DUP2 MLOAD DUP2 LT PUSH2 0xB76 JUMPI PUSH4 0x4E487B71 PUSH1 0xE0 SHL PUSH1 0x0 MSTORE PUSH1 0x32 PUSH1 0x4 MSTORE PUSH1 0x24 PUSH1 0x0 REVERT JUMPDEST PUSH1 0x20 SWAP1 DUP2 MUL SWAP2 SWAP1 SWAP2 ADD DUP2 ADD MLOAD PUSH1 0x0 DUP5 DUP2 MSTORE PUSH1 0x1 DUP4 MSTORE PUSH1 0x40 DUP1 DUP3 KECCAK256 PUSH1 0x1 PUSH1 0x1 PUSH1 0xA0 SHL SUB DUP15 AND DUP4 MSTORE SWAP1 SWAP4 MSTORE SWAP2 SWAP1 SWAP2 KECCAK256 SLOAD SWAP1 SWAP2 POP DUP2 DUP2 LT ISZERO PUSH2 0xBC7 JUMPI PUSH1 0x40 MLOAD PUSH3 0x461BCD PUSH1 0xE5 SHL DUP2 MSTORE PUSH1 0x4 ADD PUSH2 0x79D SWAP1 PUSH2 0x343F JUMP JUMPDEST PUSH2 0xBD1 DUP3 DUP3 PUSH2 0x3579 JUMP JUMPDEST PUSH1 0x1 PUSH1 0x0 DUP6 DUP2 MSTORE PUSH1 0x20 ADD SWAP1 DUP2 MSTORE PUSH1 0x20 ADD PUSH1 0x0 KECCAK256 PUSH1 0x0 DUP13 PUSH1 0x1 PUSH1 0x1 PUSH1 0xA0 SHL SUB AND PUSH1 0x1 PUSH1 0x1 PUSH1 0xA0 SHL SUB AND DUP2 MSTORE PUSH1 0x20 ADD SWAP1 DUP2 MSTORE PUSH1 0x20 ADD PUSH1 0x0 KECCAK256 DUP2 SWAP1 SSTORE POP DUP2 PUSH1 0x1 PUSH1 0x0 DUP6 DUP2 MSTORE PUSH1 0x20 ADD SWAP1 DUP2 MSTORE PUSH1 0x20 ADD PUSH1 0x0 KECCAK256 PUSH1 0x0 DUP12 PUSH1 0x1 PUSH1 0x1 PUSH1 0xA0 SHL SUB AND PUSH1 0x1 PUSH1 0x1 PUSH1 0xA0 SHL SUB AND DUP2 MSTORE PUSH1 0x20 ADD SWAP1 DUP2 MSTORE PUSH1 0x20 ADD PUSH1 0x0 KECCAK256 PUSH1 0x0 DUP3 DUP3 SLOAD PUSH2 0xC51 SWAP2 SWAP1 PUSH2 0x34F5 JUMP JUMPDEST SWAP1 SWAP2 SSTORE POP POP PUSH1 0x1 PUSH1 0x1 PUSH1 0xA0 SHL SUB DUP10 AND PUSH1 0x0 SWAP1 DUP2 MSTORE PUSH1 0x20 DUP2 SWAP1 MSTORE PUSH1 0x40 SWAP1 KECCAK256 PUSH2 0xC78 SWAP1 DUP5 PUSH2 0x1EE3 JUMP JUMPDEST POP PUSH1 0x0 DUP4 DUP2 MSTORE PUSH1 0x1 PUSH1 0x20 SWAP1 DUP2 MSTORE PUSH1 0x40 DUP1 DUP4 KECCAK256 PUSH1 0x1 PUSH1 0x1 PUSH1 0xA0 SHL SUB DUP15 AND DUP5 MSTORE SWAP1 SWAP2 MSTORE SWAP1 KECCAK256 SLOAD PUSH2 0xCC4 JUMPI PUSH1 0x1 PUSH1 0x1 PUSH1 0xA0 SHL SUB DUP11 AND PUSH1 0x0 SWAP1 DUP2 MSTORE PUSH1 0x20 DUP2 SWAP1 MSTORE PUSH1 0x40 SWAP1 KECCAK256 PUSH2 0xCC2 SWAP1 DUP5 PUSH2 0x1EEF JUMP JUMPDEST POP JUMPDEST POP POP POP DUP1 PUSH2 0xCD1 SWAP1 PUSH2 0x361D JUMP JUMPDEST SWAP1 POP PUSH2 0xB1F JUMP JUMPDEST POP DUP5 PUSH1 0x1 PUSH1 0x1 PUSH1 0xA0 SHL SUB AND DUP7 PUSH1 0x1 PUSH1 0x1 PUSH1 0xA0 SHL SUB AND DUP3 PUSH1 0x1 PUSH1 0x1 PUSH1 0xA0 SHL SUB AND PUSH32 0x4A39DC06D4C0DBC64B70AF90FD698A233A518AA5D07E595D983B8C0526C8F7FB DUP8 DUP8 PUSH1 0x40 MLOAD PUSH2 0xD28 SWAP3 SWAP2 SWAP1 PUSH2 0x3267 JUMP JUMPDEST PUSH1 0x40 MLOAD DUP1 SWAP2 SUB SWAP1 LOG4 PUSH2 0xD3E DUP2 DUP8 DUP8 DUP8 DUP8 DUP8 PUSH2 0x1EFB JUMP JUMPDEST POP POP POP POP POP POP JUMP JUMPDEST PUSH1 0x1 PUSH1 0x1 PUSH1 0xA0 SHL SUB DUP3 AND PUSH1 0x0 SWAP1 DUP2 MSTORE PUSH1 0x20 DUP2 SWAP1 MSTORE PUSH1 0x40 DUP2 KECCAK256 PUSH2 0xD68 SWAP1 DUP4 PUSH2 0x2066 JUMP JUMPDEST SWAP4 SWAP3 POP POP POP JUMP JUMPDEST PUSH1 0x0 DUP3 DUP2 MSTORE PUSH1 0xD PUSH1 0x20 MSTORE PUSH1 0x40 DUP2 KECCAK256 PUSH1 0x2 ADD DUP1 SLOAD DUP4 SWAP1 DUP2 LT PUSH2 0xDA0 JUMPI PUSH4 0x4E487B71 PUSH1 0xE0 SHL PUSH1 0x0 MSTORE PUSH1 0x32 PUSH1 0x4 MSTORE PUSH1 0x24 PUSH1 0x0 REVERT JUMPDEST SWAP1 PUSH1 0x0 MSTORE PUSH1 0x20 PUSH1 0x0 KECCAK256 SWAP1 PUSH1 0x8 SWAP2 DUP3 DUP3 DIV ADD SWAP2 SWAP1 MOD PUSH1 0x4 MUL SWAP1 SLOAD SWAP1 PUSH2 0x100 EXP SWAP1 DIV PUSH4 0xFFFFFFFF AND SWAP1 POP SWAP3 SWAP2 POP POP JUMP JUMPDEST PUSH1 0x1 PUSH1 0x1 PUSH1 0xA0 SHL SUB DUP2 AND PUSH1 0x0 SWAP1 DUP2 MSTORE PUSH1 0x20 DUP2 SWAP1 MSTORE PUSH1 0x40 DUP2 KECCAK256 PUSH2 0x81D SWAP1 PUSH2 0x2072 JUMP JUMPDEST PUSH1 0x60 DUP2 MLOAD DUP4 MLOAD EQ PUSH2 0xE54 JUMPI PUSH1 0x40 MLOAD PUSH3 0x461BCD PUSH1 0xE5 SHL DUP2 MSTORE PUSH1 0x20 PUSH1 0x4 DUP3 ADD MSTORE PUSH1 0x29 PUSH1 0x24 DUP3 ADD MSTORE PUSH32 0x455243313135353A206163636F756E747320616E6420696473206C656E677468 PUSH1 0x44 DUP3 ADD MSTORE PUSH9 0x40DAD2E6DAC2E8C6D PUSH1 0xBB SHL PUSH1 0x64 DUP3 ADD MSTORE PUSH1 0x84 ADD PUSH2 0x79D JUMP JUMPDEST PUSH1 0x0 DUP4 MLOAD PUSH8 0xFFFFFFFFFFFFFFFF DUP2 GT ISZERO PUSH2 0xE7E JUMPI PUSH4 0x4E487B71 PUSH1 0xE0 SHL PUSH1 0x0 MSTORE PUSH1 0x41 PUSH1 0x4 MSTORE PUSH1 0x24 PUSH1 0x0 REVERT JUMPDEST PUSH1 0x40 MLOAD SWAP1 DUP1 DUP3 MSTORE DUP1 PUSH1 0x20 MUL PUSH1 0x20 ADD DUP3 ADD PUSH1 0x40 MSTORE DUP1 ISZERO PUSH2 0xEA7 JUMPI DUP2 PUSH1 0x20 ADD PUSH1 0x20 DUP3 MUL DUP1 CALLDATASIZE DUP4 CALLDATACOPY ADD SWAP1 POP JUMPDEST POP SWAP1 POP PUSH1 0x0 JUMPDEST DUP5 MLOAD DUP2 LT ISZERO PUSH2 0xF49 JUMPI PUSH2 0xF0E DUP6 DUP3 DUP2 MLOAD DUP2 LT PUSH2 0xED9 JUMPI PUSH4 0x4E487B71 PUSH1 0xE0 SHL PUSH1 0x0 MSTORE PUSH1 0x32 PUSH1 0x4 MSTORE PUSH1 0x24 PUSH1 0x0 REVERT JUMPDEST PUSH1 0x20 MUL PUSH1 0x20 ADD ADD MLOAD DUP6 DUP4 DUP2 MLOAD DUP2 LT PUSH2 0xF01 JUMPI PUSH4 0x4E487B71 PUSH1 0xE0 SHL PUSH1 0x0 MSTORE PUSH1 0x32 PUSH1 0x4 MSTORE PUSH1 0x24 PUSH1 0x0 REVERT JUMPDEST PUSH1 0x20 MUL PUSH1 0x20 ADD ADD MLOAD PUSH2 0x735 JUMP JUMPDEST DUP3 DUP3 DUP2 MLOAD DUP2 LT PUSH2 0xF2E JUMPI PUSH4 0x4E487B71 PUSH1 0xE0 SHL PUSH1 0x0 MSTORE PUSH1 0x32 PUSH1 0x4 MSTORE PUSH1 0x24 PUSH1 0x0 REVERT JUMPDEST PUSH1 0x20 SWAP1 DUP2 MUL SWAP2 SWAP1 SWAP2 ADD ADD MSTORE PUSH2 0xF42 DUP2 PUSH2 0x361D JUMP JUMPDEST SWAP1 POP PUSH2 0xEAD JUMP JUMPDEST POP SWAP4 SWAP3 POP POP POP JUMP JUMPDEST PUSH1 0x0 DUP3 DUP2 MSTORE PUSH1 0xD PUSH1 0x20 MSTORE PUSH1 0x40 DUP1 DUP3 KECCAK256 DUP2 MLOAD PUSH1 0xC0 DUP2 ADD SWAP1 SWAP3 MSTORE DUP1 SLOAD DUP4 SWAP3 SWAP2 SWAP1 DUP3 SWAP1 DUP3 SWAP1 PUSH2 0xF7C SWAP1 PUSH2 0x35B5 JUMP JUMPDEST DUP1 PUSH1 0x1F ADD PUSH1 0x20 DUP1 SWAP2 DIV MUL PUSH1 0x20 ADD PUSH1 0x40 MLOAD SWAP1 DUP2 ADD PUSH1 0x40 MSTORE DUP1 SWAP3 SWAP2 SWAP1 DUP2 DUP2 MSTORE PUSH1 0x20 ADD DUP3 DUP1 SLOAD PUSH2 0xFA8 SWAP1 PUSH2 0x35B5 JUMP JUMPDEST DUP1 ISZERO PUSH2 0xFF5 JUMPI DUP1 PUSH1 0x1F LT PUSH2 0xFCA JUMPI PUSH2 0x100 DUP1 DUP4 SLOAD DIV MUL DUP4 MSTORE SWAP2 PUSH1 0x20 ADD SWAP2 PUSH2 0xFF5 JUMP JUMPDEST DUP3 ADD SWAP2 SWAP1 PUSH1 0x0 MSTORE PUSH1 0x20 PUSH1 0x0 KECCAK256 SWAP1 JUMPDEST DUP2 SLOAD DUP2 MSTORE SWAP1 PUSH1 0x1 ADD SWAP1 PUSH1 0x20 ADD DUP1 DUP4 GT PUSH2 0xFD8 JUMPI DUP3 SWAP1 SUB PUSH1 0x1F AND DUP3 ADD SWAP2 JUMPDEST POP POP POP POP POP DUP2 MSTORE PUSH1 0x20 ADD PUSH1 0x1 DUP3 ADD SLOAD DUP2 MSTORE PUSH1 0x20 ADD PUSH1 0x2 DUP3 ADD DUP1 SLOAD DUP1 PUSH1 0x20 MUL PUSH1 0x20 ADD PUSH1 0x40 MLOAD SWAP1 DUP2 ADD PUSH1 0x40 MSTORE DUP1 SWAP3 SWAP2 SWAP1 DUP2 DUP2 MSTORE PUSH1 0x20 ADD DUP3 DUP1 SLOAD DUP1 ISZERO PUSH2 0x1083 JUMPI PUSH1 0x20 MUL DUP3 ADD SWAP2 SWAP1 PUSH1 0x0 MSTORE PUSH1 0x20 PUSH1 0x0 KECCAK256 SWAP1 PUSH1 0x0 SWAP1 JUMPDEST DUP3 DUP3 SWAP1 SLOAD SWAP1 PUSH2 0x100 EXP SWAP1 DIV PUSH4 0xFFFFFFFF AND PUSH4 0xFFFFFFFF AND DUP2 MSTORE PUSH1 0x20 ADD SWAP1 PUSH1 0x4 ADD SWAP1 PUSH1 0x20 DUP3 PUSH1 0x3 ADD DIV SWAP3 DUP4 ADD SWAP3 PUSH1 0x1 SUB DUP3 MUL SWAP2 POP DUP1 DUP5 GT PUSH2 0x1046 JUMPI SWAP1 POP JUMPDEST POP POP POP SWAP2 DUP4 MSTORE POP POP PUSH1 0x3 DUP3 ADD SLOAD PUSH1 0x1 PUSH1 0x1 PUSH1 0xA0 SHL SUB AND PUSH1 0x20 DUP3 ADD MSTORE PUSH1 0x4 DUP3 ADD SLOAD PUSH1 0x40 DUP3 ADD MSTORE PUSH1 0x5 SWAP1 SWAP2 ADD SLOAD PUSH1 0x60 SWAP1 SWAP2 ADD MSTORE SWAP1 POP PUSH2 0x10C0 DUP2 DUP5 PUSH2 0x207C JUMP JUMPDEST POP PUSH1 0x0 DUP5 DUP2 MSTORE PUSH1 0xD PUSH1 0x20 MSTORE PUSH1 0x40 DUP2 KECCAK256 PUSH1 0x4 ADD DUP1 SLOAD PUSH1 0x1 SWAP3 SWAP1 PUSH2 0x10E3 SWAP1 DUP5 SWAP1 PUSH2 0x34F5 JUMP JUMPDEST SWAP3 POP POP DUP2 SWAP1 SSTORE POP PUSH1 0x1 PUSH1 0x18 PUSH1 0x0 DUP3 DUP3 SLOAD PUSH2 0x10FD SWAP2 SWAP1 PUSH2 0x34F5 JUMP JUMPDEST SWAP1 SWAP2 SSTORE POP POP PUSH1 0x16 SLOAD PUSH1 0x0 DUP6 DUP2 MSTORE PUSH1 0xD PUSH1 0x20 MSTORE PUSH1 0x40 SWAP1 KECCAK256 PUSH1 0x4 ADD SLOAD GT ISZERO PUSH2 0x1138 JUMPI PUSH1 0x0 DUP5 DUP2 MSTORE PUSH1 0xD PUSH1 0x20 MSTORE PUSH1 0x40 SWAP1 KECCAK256 PUSH1 0x4 ADD SLOAD PUSH1 0x16 SSTORE PUSH1 0x15 DUP5 SWAP1 SSTORE JUMPDEST PUSH2 0x114A CALLER PUSH1 0xA SLOAD DUP7 PUSH2 0x855 SWAP2 SWAP1 PUSH2 0x34F5 JUMP JUMPDEST POP PUSH1 0x1 SWAP4 SWAP3 POP POP POP JUMP JUMPDEST PUSH1 0x0 DUP2 PUSH2 0x1169 CALLER DUP6 PUSH1 0xA SLOAD PUSH2 0x291 SWAP2 SWAP1 PUSH2 0x34F5 JUMP JUMPDEST LT ISZERO PUSH2 0x11C9 JUMPI PUSH1 0x40 MLOAD PUSH3 0x461BCD PUSH1 0xE5 SHL DUP2 MSTORE PUSH1 0x20 PUSH1 0x4 DUP3 ADD MSTORE PUSH1 0x29 PUSH1 0x24 DUP3 ADD MSTORE PUSH32 0x596F7520646F6E277420686176652074686174206D616E79206F662074686F73 PUSH1 0x44 DUP3 ADD MSTORE PUSH9 0x6520746F2065617421 PUSH1 0xB8 SHL PUSH1 0x64 DUP3 ADD MSTORE PUSH1 0x84 ADD PUSH2 0x79D JUMP JUMPDEST PUSH1 0x0 DUP4 DUP2 MSTORE PUSH1 0xD PUSH1 0x20 SWAP1 DUP2 MSTORE PUSH1 0x40 DUP1 DUP4 KECCAK256 PUSH1 0x2 ADD DUP1 SLOAD DUP3 MLOAD DUP2 DUP6 MUL DUP2 ADD DUP6 ADD SWAP1 SWAP4 MSTORE DUP1 DUP4 MSTORE SWAP2 SWAP3 SWAP1 SWAP2 SWAP1 DUP4 ADD DUP3 DUP3 DUP1 ISZERO PUSH2 0x124E JUMPI PUSH1 0x20 MUL DUP3 ADD SWAP2 SWAP1 PUSH1 0x0 MSTORE PUSH1 0x20 PUSH1 0x0 KECCAK256 SWAP1 PUSH1 0x0 SWAP1 JUMPDEST DUP3 DUP3 SWAP1 SLOAD SWAP1 PUSH2 0x100 EXP SWAP1 DIV PUSH4 0xFFFFFFFF AND PUSH4 0xFFFFFFFF AND DUP2 MSTORE PUSH1 0x20 ADD SWAP1 PUSH1 0x4 ADD SWAP1 PUSH1 0x20 DUP3 PUSH1 0x3 ADD DIV SWAP3 DUP4 ADD SWAP3 PUSH1 0x1 SUB DUP3 MUL SWAP2 POP DUP1 DUP5 GT PUSH2 0x1211 JUMPI SWAP1 POP JUMPDEST POP POP POP POP POP SWAP1 POP PUSH1 0x0 DUP1 PUSH1 0x0 SWAP1 POP JUMPDEST DUP3 MLOAD DUP2 LT ISZERO PUSH2 0x12AD JUMPI DUP3 DUP2 DUP2 MLOAD DUP2 LT PUSH2 0x1286 JUMPI PUSH4 0x4E487B71 PUSH1 0xE0 SHL PUSH1 0x0 MSTORE PUSH1 0x32 PUSH1 0x4 MSTORE PUSH1 0x24 PUSH1 0x0 REVERT JUMPDEST PUSH1 0x20 MUL PUSH1 0x20 ADD ADD MLOAD DUP3 PUSH2 0x1299 SWAP2 SWAP1 PUSH2 0x350D JUMP JUMPDEST SWAP2 POP DUP1 PUSH2 0x12A5 DUP2 PUSH2 0x361D JUMP JUMPDEST SWAP2 POP POP PUSH2 0x125D JUMP JUMPDEST POP PUSH1 0x0 PUSH1 0xA SLOAD DUP7 PUSH2 0x12BE SWAP2 SWAP1 PUSH2 0x34F5 JUMP JUMPDEST SWAP1 POP PUSH2 0x12CB CALLER DUP3 DUP8 PUSH2 0x2464 JUMP JUMPDEST PUSH1 0x0 DUP7 DUP2 MSTORE PUSH1 0xD PUSH1 0x20 MSTORE PUSH1 0x40 DUP2 KECCAK256 PUSH1 0x5 ADD DUP1 SLOAD PUSH1 0x1 SWAP3 SWAP1 PUSH2 0x12ED SWAP1 DUP5 SWAP1 PUSH2 0x34F5 JUMP JUMPDEST SWAP1 SWAP2 SSTORE POP PUSH2 0x1303 SWAP1 POP DUP6 PUSH4 0xFFFFFFFF DUP5 AND PUSH2 0x355A JUMP JUMPDEST CALLER PUSH1 0x0 SWAP1 DUP2 MSTORE PUSH1 0xE PUSH1 0x20 MSTORE PUSH1 0x40 DUP2 KECCAK256 DUP1 SLOAD SWAP1 SWAP2 SWAP1 PUSH2 0x1322 SWAP1 DUP5 SWAP1 PUSH2 0x34F5 JUMP JUMPDEST SWAP1 SWAP2 SSTORE POP POP PUSH1 0x12 SLOAD CALLER PUSH1 0x0 SWAP1 DUP2 MSTORE PUSH1 0xE PUSH1 0x20 MSTORE PUSH1 0x40 SWAP1 KECCAK256 SLOAD GT ISZERO PUSH2 0x1368 JUMPI PUSH1 0x13 DUP1 SLOAD PUSH1 0x1 PUSH1 0x1 PUSH1 0xA0 SHL SUB NOT AND CALLER SWAP1 DUP2 OR SWAP1 SWAP2 SSTORE PUSH1 0x0 SWAP1 DUP2 MSTORE PUSH1 0xE PUSH1 0x20 MSTORE PUSH1 0x40 SWAP1 KECCAK256 SLOAD PUSH1 0x12 SSTORE JUMPDEST POP POP POP SWAP3 SWAP2 POP POP JUMP JUMPDEST PUSH1 0x0 PUSH2 0x137D CALLER DUP4 PUSH2 0x735 JUMP JUMPDEST PUSH1 0x1 EQ PUSH2 0x139C JUMPI PUSH1 0x40 MLOAD PUSH3 0x461BCD PUSH1 0xE5 SHL DUP2 MSTORE PUSH1 0x4 ADD PUSH2 0x79D SWAP1 PUSH2 0x3334 JUMP JUMPDEST PUSH2 0x13A5 DUP3 PUSH2 0x1C04 JUMP JUMPDEST POP PUSH2 0x13AE PUSH2 0x825 JUMP JUMPDEST POP PUSH1 0x0 DUP3 DUP2 MSTORE PUSH1 0xB PUSH1 0x20 MSTORE PUSH1 0x40 DUP1 DUP3 KECCAK256 DUP1 SLOAD PUSH1 0x17 SLOAD DUP5 MSTORE SWAP2 DUP4 KECCAK256 DUP1 SLOAD PUSH9 0xFFFFFFFF0000000000 NOT AND PUSH1 0x1 PUSH1 0x28 SHL SWAP4 DUP5 SWAP1 DIV PUSH4 0xFFFFFFFF AND SWAP1 SWAP4 MUL SWAP3 SWAP1 SWAP3 OR SWAP1 SWAP2 SSTORE SWAP1 DUP4 SWAP1 MSTORE DUP1 SLOAD PUSH1 0x1 SWAP2 SWAP1 PUSH1 0x4 SWAP1 PUSH2 0x1412 SWAP1 DUP5 SWAP1 PUSH5 0x100000000 SWAP1 DIV PUSH1 0xFF AND PUSH2 0x3535 JUMP JUMPDEST SWAP3 POP PUSH2 0x100 EXP DUP2 SLOAD DUP2 PUSH1 0xFF MUL NOT AND SWAP1 DUP4 PUSH1 0xFF AND MUL OR SWAP1 SSTORE POP PUSH1 0x1 SWAP1 POP SWAP2 SWAP1 POP JUMP JUMPDEST CALLER PUSH1 0x1 PUSH1 0x1 PUSH1 0xA0 SHL SUB DUP4 AND EQ ISZERO PUSH2 0x149E JUMPI PUSH1 0x40 MLOAD PUSH3 0x461BCD PUSH1 0xE5 SHL DUP2 MSTORE PUSH1 0x20 PUSH1 0x4 DUP3 ADD MSTORE PUSH1 0x29 PUSH1 0x24 DUP3 ADD MSTORE PUSH32 0x455243313135353A2073657474696E6720617070726F76616C20737461747573 PUSH1 0x44 DUP3 ADD MSTORE PUSH9 0x103337B91039B2B633 PUSH1 0xB9 SHL PUSH1 0x64 DUP3 ADD MSTORE PUSH1 0x84 ADD PUSH2 0x79D JUMP JUMPDEST CALLER PUSH1 0x0 DUP2 DUP2 MSTORE PUSH1 0x2 PUSH1 0x20 SWAP1 DUP2 MSTORE PUSH1 0x40 DUP1 DUP4 KECCAK256 PUSH1 0x1 PUSH1 0x1 PUSH1 0xA0 SHL SUB DUP8 AND DUP1 DUP6 MSTORE SWAP3 MSTORE SWAP1 SWAP2 KECCAK256 DUP1 SLOAD PUSH1 0xFF NOT AND DUP5 ISZERO ISZERO OR SWAP1 SSTORE SWAP1 PUSH1 0x1 PUSH1 0x1 PUSH1 0xA0 SHL SUB AND PUSH32 0x17307EAB39AB6107E8899845AD3D59BD9653F200F220920489CA2B5937696C31 DUP4 PUSH1 0x40 MLOAD PUSH2 0x150B SWAP2 ISZERO ISZERO DUP2 MSTORE PUSH1 0x20 ADD SWAP1 JUMP JUMPDEST PUSH1 0x40 MLOAD DUP1 SWAP2 SUB SWAP1 LOG3 POP POP JUMP JUMPDEST CALLER PUSH1 0x0 SWAP1 DUP2 MSTORE PUSH1 0xF PUSH1 0x20 MSTORE PUSH1 0x40 SWAP1 KECCAK256 SLOAD PUSH1 0xFF AND ISZERO PUSH2 0x15A7 JUMPI PUSH1 0x40 MLOAD PUSH3 0x461BCD PUSH1 0xE5 SHL DUP2 MSTORE PUSH1 0x20 PUSH1 0x4 DUP3 ADD MSTORE PUSH1 0x41 PUSH1 0x24 DUP3 ADD MSTORE PUSH32 0x596F752061726520616C726561647920696E207468652062616B6572792C2065 PUSH1 0x44 DUP3 ADD MSTORE PUSH32 0x69746865722077616974206F72207475726E206175746F2066656564206F6666 PUSH1 0x64 DUP3 ADD MSTORE PUSH1 0x21 PUSH1 0xF8 SHL PUSH1 0x84 DUP3 ADD MSTORE PUSH1 0xA4 ADD PUSH2 0x79D JUMP JUMPDEST CALLER PUSH1 0x0 SWAP1 DUP2 MSTORE PUSH1 0xC PUSH1 0x20 MSTORE PUSH1 0x40 SWAP1 KECCAK256 SLOAD TIMESTAMP PUSH4 0xFFFFFFFF SWAP1 SWAP2 AND LT PUSH2 0x160D JUMPI PUSH1 0x40 MLOAD PUSH3 0x461BCD PUSH1 0xE5 SHL DUP2 MSTORE PUSH1 0x20 PUSH1 0x4 DUP3 ADD MSTORE PUSH1 0x1B PUSH1 0x24 DUP3 ADD MSTORE PUSH32 0x596F7520646964207468697320616C726561647920746F646179210000000000 PUSH1 0x44 DUP3 ADD MSTORE PUSH1 0x64 ADD PUSH2 0x79D JUMP JUMPDEST PUSH2 0x162B CALLER PUSH1 0x9 SLOAD PUSH1 0x64 PUSH1 0x40 MLOAD DUP1 PUSH1 0x20 ADD PUSH1 0x40 MSTORE DUP1 PUSH1 0x0 DUP2 MSTORE POP PUSH2 0x1DBD JUMP JUMPDEST PUSH1 0x64 PUSH1 0x14 PUSH1 0x0 DUP3 DUP3 SLOAD PUSH2 0x163E SWAP2 SWAP1 PUSH2 0x34F5 JUMP JUMPDEST SWAP1 SWAP2 SSTORE POP POP PUSH1 0x6 SLOAD PUSH2 0x1656 SWAP1 PUSH4 0xFFFFFFFF AND TIMESTAMP PUSH2 0x34F5 JUMP JUMPDEST CALLER PUSH1 0x0 SWAP1 DUP2 MSTORE PUSH1 0xC PUSH1 0x20 MSTORE PUSH1 0x40 SWAP1 KECCAK256 DUP1 SLOAD PUSH4 0xFFFFFFFF NOT AND PUSH4 0xFFFFFFFF SWAP3 SWAP1 SWAP3 AND SWAP2 SWAP1 SWAP2 OR SWAP1 SSTORE JUMP JUMPDEST PUSH1 0x0 PUSH1 0xA DUP4 MLOAD GT ISZERO PUSH2 0x16E3 JUMPI PUSH1 0x40 MLOAD PUSH3 0x461BCD PUSH1 0xE5 SHL DUP2 MSTORE PUSH1 0x20 PUSH1 0x4 DUP3 ADD MSTORE PUSH1 0x27 PUSH1 0x24 DUP3 ADD MSTORE PUSH32 0x596F752063616E206F6E6C79206861766520757020746F20313020696E677265 PUSH1 0x44 DUP3 ADD MSTORE PUSH7 0x6469656E747321 PUSH1 0xC8 SHL PUSH1 0x64 DUP3 ADD MSTORE PUSH1 0x84 ADD PUSH2 0x79D JUMP JUMPDEST PUSH1 0x40 DUP1 MLOAD PUSH1 0xC0 DUP2 ADD DUP3 MSTORE DUP7 DUP2 MSTORE PUSH1 0x20 DUP2 ADD DUP7 SWAP1 MSTORE SWAP1 DUP2 ADD DUP5 SWAP1 MSTORE CALLER PUSH1 0x60 DUP3 ADD MSTORE PUSH1 0x0 PUSH1 0x80 DUP3 ADD DUP2 SWAP1 MSTORE PUSH1 0xA0 DUP3 ADD MSTORE PUSH2 0x171B DUP2 DUP5 PUSH2 0x207C JUMP JUMPDEST POP PUSH1 0x1 DUP2 PUSH1 0x80 ADD DUP2 DUP2 MLOAD PUSH2 0x172F SWAP2 SWAP1 PUSH2 0x34F5 JUMP JUMPDEST SWAP1 MSTORE POP PUSH1 0x18 DUP1 SLOAD PUSH1 0x1 SWAP2 SWAP1 PUSH1 0x0 SWAP1 PUSH2 0x1748 SWAP1 DUP5 SWAP1 PUSH2 0x34F5 JUMP JUMPDEST SWAP3 POP POP DUP2 SWAP1 SSTORE POP PUSH1 0x1 PUSH1 0x19 PUSH1 0x0 DUP3 DUP3 SLOAD PUSH2 0x1762 SWAP2 SWAP1 PUSH2 0x34F5 JUMP JUMPDEST SWAP1 SWAP2 SSTORE POP POP PUSH1 0x19 SLOAD PUSH1 0xA SLOAD PUSH1 0x0 SWAP2 PUSH2 0x1779 SWAP2 PUSH2 0x34F5 JUMP JUMPDEST PUSH1 0x19 SLOAD PUSH1 0x0 SWAP1 DUP2 MSTORE PUSH1 0xD PUSH1 0x20 SWAP1 DUP2 MSTORE PUSH1 0x40 SWAP1 SWAP2 KECCAK256 DUP5 MLOAD DUP1 MLOAD SWAP4 SWAP5 POP DUP6 SWAP4 SWAP2 SWAP3 PUSH2 0x17A7 SWAP3 DUP5 SWAP3 SWAP1 SWAP2 ADD SWAP1 PUSH2 0x2A9D JUMP JUMPDEST POP PUSH1 0x20 DUP3 DUP2 ADD MLOAD PUSH1 0x1 DUP4 ADD SSTORE PUSH1 0x40 DUP4 ADD MLOAD DUP1 MLOAD PUSH2 0x17CA SWAP3 PUSH1 0x2 DUP6 ADD SWAP3 ADD SWAP1 PUSH2 0x2B21 JUMP JUMPDEST POP PUSH1 0x60 DUP3 ADD MLOAD PUSH1 0x3 DUP3 ADD DUP1 SLOAD PUSH1 0x1 PUSH1 0x1 PUSH1 0xA0 SHL SUB NOT AND PUSH1 0x1 PUSH1 0x1 PUSH1 0xA0 SHL SUB SWAP1 SWAP3 AND SWAP2 SWAP1 SWAP2 OR SWAP1 SSTORE PUSH1 0x80 DUP3 ADD MLOAD PUSH1 0x4 DUP1 DUP4 ADD SWAP2 SWAP1 SWAP2 SSTORE PUSH1 0xA0 SWAP1 SWAP3 ADD MLOAD PUSH1 0x5 SWAP1 SWAP2 ADD SSTORE PUSH1 0x16 SLOAD PUSH1 0x19 SLOAD PUSH1 0x0 SWAP1 DUP2 MSTORE PUSH1 0xD PUSH1 0x20 MSTORE PUSH1 0x40 SWAP1 KECCAK256 SWAP1 SWAP2 ADD SLOAD GT ISZERO PUSH2 0x1845 JUMPI PUSH1 0x19 SLOAD PUSH1 0x0 DUP2 DUP2 MSTORE PUSH1 0xD PUSH1 0x20 MSTORE PUSH1 0x40 SWAP1 KECCAK256 PUSH1 0x4 ADD SLOAD PUSH1 0x16 SSTORE PUSH1 0x15 SSTORE JUMPDEST PUSH2 0x1861 CALLER DUP3 PUSH1 0x1 PUSH1 0x40 MLOAD DUP1 PUSH1 0x20 ADD PUSH1 0x40 MSTORE DUP1 PUSH1 0x0 DUP2 MSTORE POP PUSH2 0x1DBD JUMP JUMPDEST POP PUSH1 0x1 SWAP7 SWAP6 POP POP POP POP POP POP JUMP JUMPDEST PUSH1 0x0 PUSH2 0x187A CALLER DUP4 PUSH2 0x735 JUMP JUMPDEST PUSH1 0x1 EQ PUSH2 0x1899 JUMPI PUSH1 0x40 MLOAD PUSH3 0x461BCD PUSH1 0xE5 SHL DUP2 MSTORE PUSH1 0x4 ADD PUSH2 0x79D SWAP1 PUSH2 0x3334 JUMP JUMPDEST PUSH1 0x0 PUSH2 0x18A6 DUP5 PUSH1 0x32 PUSH2 0x355A JUMP JUMPDEST SWAP1 POP PUSH1 0x0 PUSH2 0x18B5 DUP6 PUSH1 0xA PUSH2 0x355A JUMP JUMPDEST SWAP1 POP PUSH2 0x18C1 CALLER DUP4 PUSH2 0x1D7D JUMP JUMPDEST PUSH1 0x8 SLOAD PUSH1 0x9 SLOAD PUSH1 0x40 DUP1 MLOAD PUSH1 0x20 DUP2 ADD SWAP1 SWAP2 MSTORE PUSH1 0x0 DUP2 MSTORE PUSH2 0x18EF SWAP3 CALLER SWAP3 PUSH1 0x1 PUSH1 0x1 PUSH1 0xA0 SHL SUB SWAP1 SWAP2 AND SWAP2 DUP6 SWAP1 PUSH2 0x19CF JUMP JUMPDEST CALLER PUSH1 0x0 SWAP1 DUP2 MSTORE PUSH1 0xF PUSH1 0x20 MSTORE PUSH1 0x40 SWAP1 KECCAK256 DUP1 SLOAD PUSH1 0xFF NOT AND PUSH1 0x1 OR SWAP1 SSTORE PUSH1 0x6 SLOAD PUSH2 0x191C SWAP1 PUSH4 0xFFFFFFFF AND DUP7 PUSH2 0x355A JUMP JUMPDEST PUSH2 0x1926 SWAP1 TIMESTAMP PUSH2 0x34F5 JUMP JUMPDEST PUSH1 0x0 DUP6 DUP2 MSTORE PUSH1 0xB PUSH1 0x20 MSTORE PUSH1 0x40 SWAP1 KECCAK256 DUP1 SLOAD PUSH4 0xFFFFFFFF PUSH1 0xFF PUSH1 0xE8 SHL ADD NOT AND PUSH4 0xFFFFFFFF SWAP3 SWAP1 SWAP3 AND SWAP2 SWAP1 SWAP2 OR PUSH1 0x1 PUSH1 0xE8 SHL OR SWAP1 SSTORE POP PUSH1 0x1 SWAP2 POP POP SWAP3 SWAP2 POP POP JUMP JUMPDEST PUSH1 0x0 DUP2 DUP2 MSTORE PUSH1 0xB PUSH1 0x20 MSTORE PUSH1 0x40 DUP2 KECCAK256 SLOAD PUSH1 0x1 PUSH1 0xE8 SHL SWAP1 DIV PUSH1 0xFF AND ISZERO ISZERO PUSH1 0x1 EQ PUSH2 0x198B JUMPI PUSH1 0x0 DUP1 REVERT JUMPDEST PUSH1 0x6 SLOAD PUSH2 0x199E SWAP1 PUSH4 0xFFFFFFFF AND TIMESTAMP PUSH2 0x34F5 JUMP JUMPDEST PUSH1 0x0 SWAP3 DUP4 MSTORE PUSH1 0xB PUSH1 0x20 MSTORE PUSH1 0x40 SWAP1 SWAP3 KECCAK256 DUP1 SLOAD PUSH4 0xFFFFFFFF PUSH1 0xFF PUSH1 0xE8 SHL ADD NOT AND PUSH4 0xFFFFFFFF SWAP4 SWAP1 SWAP4 AND SWAP3 SWAP1 SWAP3 OR SWAP1 SWAP2 SSTORE SWAP1 JUMP JUMPDEST PUSH1 0x1 PUSH1 0x1 PUSH1 0xA0 SHL SUB DUP5 AND PUSH2 0x19F5 JUMPI PUSH1 0x40 MLOAD PUSH3 0x461BCD PUSH1 0xE5 SHL DUP2 MSTORE PUSH1 0x4 ADD PUSH2 0x79D SWAP1 PUSH2 0x33B7 JUMP JUMPDEST PUSH1 0x1 PUSH1 0x1 PUSH1 0xA0 SHL SUB DUP6 AND CALLER EQ DUP1 PUSH2 0x1A11 JUMPI POP PUSH2 0x1A11 DUP6 CALLER PUSH2 0x6AE JUMP JUMPDEST PUSH2 0x1A6F JUMPI PUSH1 0x40 MLOAD PUSH3 0x461BCD PUSH1 0xE5 SHL DUP2 MSTORE PUSH1 0x20 PUSH1 0x4 DUP3 ADD MSTORE PUSH1 0x29 PUSH1 0x24 DUP3 ADD MSTORE PUSH32 0x455243313135353A2063616C6C6572206973206E6F74206F776E6572206E6F72 PUSH1 0x44 DUP3 ADD MSTORE PUSH9 0x8185C1C1C9BDD9959 PUSH1 0xBA SHL PUSH1 0x64 DUP3 ADD MSTORE PUSH1 0x84 ADD PUSH2 0x79D JUMP JUMPDEST CALLER PUSH2 0x1A8F DUP2 DUP8 DUP8 PUSH2 0x1A7F DUP9 PUSH2 0x25AD JUMP JUMPDEST PUSH2 0x1A88 DUP9 PUSH2 0x25AD JUMP JUMPDEST POP POP POP POP POP JUMP JUMPDEST PUSH1 0x0 DUP5 DUP2 MSTORE PUSH1 0x1 PUSH1 0x20 SWAP1 DUP2 MSTORE PUSH1 0x40 DUP1 DUP4 KECCAK256 PUSH1 0x1 PUSH1 0x1 PUSH1 0xA0 SHL SUB DUP11 AND DUP5 MSTORE SWAP1 SWAP2 MSTORE SWAP1 KECCAK256 SLOAD DUP4 DUP2 LT ISZERO PUSH2 0x1AD2 JUMPI PUSH1 0x40 MLOAD PUSH3 0x461BCD PUSH1 0xE5 SHL DUP2 MSTORE PUSH1 0x4 ADD PUSH2 0x79D SWAP1 PUSH2 0x343F JUMP JUMPDEST PUSH2 0x1ADC DUP5 DUP3 PUSH2 0x3579 JUMP JUMPDEST PUSH1 0x0 DUP7 DUP2 MSTORE PUSH1 0x1 PUSH1 0x20 SWAP1 DUP2 MSTORE PUSH1 0x40 DUP1 DUP4 KECCAK256 PUSH1 0x1 PUSH1 0x1 PUSH1 0xA0 SHL SUB DUP13 DUP2 AND DUP6 MSTORE SWAP3 MSTORE DUP1 DUP4 KECCAK256 SWAP4 SWAP1 SWAP4 SSTORE DUP9 AND DUP2 MSTORE SWAP1 DUP2 KECCAK256 DUP1 SLOAD DUP7 SWAP3 SWAP1 PUSH2 0x1B1A SWAP1 DUP5 SWAP1 PUSH2 0x34F5 JUMP JUMPDEST SWAP1 SWAP2 SSTORE POP POP PUSH1 0x1 PUSH1 0x1 PUSH1 0xA0 SHL SUB DUP7 AND PUSH1 0x0 SWAP1 DUP2 MSTORE PUSH1 0x20 DUP2 SWAP1 MSTORE PUSH1 0x40 SWAP1 KECCAK256 PUSH2 0x1B41 SWAP1 DUP7 PUSH2 0x1EE3 JUMP JUMPDEST POP PUSH1 0x0 DUP6 DUP2 MSTORE PUSH1 0x1 PUSH1 0x20 SWAP1 DUP2 MSTORE PUSH1 0x40 DUP1 DUP4 KECCAK256 PUSH1 0x1 PUSH1 0x1 PUSH1 0xA0 SHL SUB DUP12 AND DUP5 MSTORE SWAP1 SWAP2 MSTORE SWAP1 KECCAK256 SLOAD PUSH2 0x1B8D JUMPI PUSH1 0x1 PUSH1 0x1 PUSH1 0xA0 SHL SUB DUP8 AND PUSH1 0x0 SWAP1 DUP2 MSTORE PUSH1 0x20 DUP2 SWAP1 MSTORE PUSH1 0x40 SWAP1 KECCAK256 PUSH2 0x1B8B SWAP1 DUP7 PUSH2 0x1EEF JUMP JUMPDEST POP JUMPDEST DUP6 PUSH1 0x1 PUSH1 0x1 PUSH1 0xA0 SHL SUB AND DUP8 PUSH1 0x1 PUSH1 0x1 PUSH1 0xA0 SHL SUB AND DUP4 PUSH1 0x1 PUSH1 0x1 PUSH1 0xA0 SHL SUB AND PUSH32 0xC3D58168C5AE7397731D063D5BBF3D657854427343F4C083240F7AACAA2D0F62 DUP9 DUP9 PUSH1 0x40 MLOAD PUSH2 0x1BE5 SWAP3 SWAP2 SWAP1 SWAP2 DUP3 MSTORE PUSH1 0x20 DUP3 ADD MSTORE PUSH1 0x40 ADD SWAP1 JUMP JUMPDEST PUSH1 0x40 MLOAD DUP1 SWAP2 SUB SWAP1 LOG4 PUSH2 0x1BFB DUP3 DUP9 DUP9 DUP9 DUP9 DUP9 PUSH2 0x2606 JUMP JUMPDEST POP POP POP POP POP POP POP JUMP JUMPDEST PUSH1 0x0 PUSH2 0x1C10 CALLER DUP4 PUSH2 0x735 JUMP JUMPDEST PUSH1 0x1 EQ PUSH2 0x1C2F JUMPI PUSH1 0x40 MLOAD PUSH3 0x461BCD PUSH1 0xE5 SHL DUP2 MSTORE PUSH1 0x4 ADD PUSH2 0x79D SWAP1 PUSH2 0x3334 JUMP JUMPDEST PUSH1 0x0 DUP3 DUP2 MSTORE PUSH1 0xB PUSH1 0x20 MSTORE PUSH1 0x40 SWAP1 KECCAK256 SLOAD TIMESTAMP PUSH4 0xFFFFFFFF SWAP1 SWAP2 AND LT ISZERO PUSH2 0x1CBB JUMPI PUSH1 0x40 MLOAD PUSH3 0x461BCD PUSH1 0xE5 SHL DUP2 MSTORE PUSH1 0x20 PUSH1 0x4 DUP3 ADD MSTORE PUSH1 0x39 PUSH1 0x24 DUP3 ADD MSTORE PUSH32 0x596F757220737461727465722069732064656164212020596F752073686F756C PUSH1 0x44 DUP3 ADD MSTORE PUSH32 0x6420686176652066656420697420736F6F6E6572203A28202E00000000000000 PUSH1 0x64 DUP3 ADD MSTORE PUSH1 0x84 ADD PUSH2 0x79D JUMP JUMPDEST PUSH2 0x1CC7 CALLER PUSH1 0x5 SLOAD PUSH2 0x1D7D JUMP JUMPDEST PUSH1 0x6 SLOAD PUSH2 0x1CDA SWAP1 PUSH4 0xFFFFFFFF AND TIMESTAMP PUSH2 0x34F5 JUMP JUMPDEST PUSH1 0x0 DUP4 DUP2 MSTORE PUSH1 0xB PUSH1 0x20 MSTORE PUSH1 0x40 SWAP1 KECCAK256 DUP1 SLOAD PUSH4 0xFFFFFFFF NOT AND PUSH4 0xFFFFFFFF SWAP3 SWAP1 SWAP3 AND SWAP2 SWAP1 SWAP2 OR SWAP1 DUP2 SWAP1 SSTORE PUSH1 0x1 PUSH1 0xE8 SHL SWAP1 DIV PUSH1 0xFF AND ISZERO PUSH2 0x1D1C JUMPI PUSH1 0x0 DUP3 SWAP1 MSTORE PUSH1 0xB PUSH1 0x20 MSTORE JUMPDEST PUSH1 0x0 DUP3 DUP2 MSTORE PUSH1 0xB PUSH1 0x20 MSTORE PUSH1 0x40 DUP2 KECCAK256 SLOAD PUSH2 0x1D42 SWAP1 PUSH1 0x1 PUSH1 0x28 SHL SWAP1 DIV PUSH4 0xFFFFFFFF AND TIMESTAMP PUSH2 0x3590 JUMP JUMPDEST PUSH1 0x11 SLOAD SWAP1 SWAP2 POP PUSH4 0xFFFFFFFF SWAP1 DUP2 AND SWAP1 DUP3 AND GT ISZERO PUSH2 0x1D74 JUMPI PUSH1 0x11 DUP1 SLOAD PUSH4 0xFFFFFFFF NOT AND PUSH4 0xFFFFFFFF DUP4 AND OR SWAP1 SSTORE PUSH1 0x10 DUP4 SWAP1 SSTORE JUMPDEST POP PUSH1 0x1 SWAP3 SWAP2 POP POP JUMP JUMPDEST DUP1 PUSH2 0x1D8A CALLER PUSH1 0x9 SLOAD PUSH2 0x735 JUMP JUMPDEST LT ISZERO PUSH2 0x1D95 JUMPI PUSH1 0x0 DUP1 REVERT JUMPDEST PUSH2 0x1DA2 DUP3 PUSH1 0x9 SLOAD DUP4 PUSH2 0x2464 JUMP JUMPDEST DUP1 PUSH1 0x14 PUSH1 0x0 DUP3 DUP3 SLOAD PUSH2 0x1DB4 SWAP2 SWAP1 PUSH2 0x3579 JUMP JUMPDEST SWAP1 SWAP2 SSTORE POP POP POP POP JUMP JUMPDEST PUSH1 0x1 PUSH1 0x1 PUSH1 0xA0 SHL SUB DUP5 AND PUSH2 0x1E1D JUMPI PUSH1 0x40 MLOAD PUSH3 0x461BCD PUSH1 0xE5 SHL DUP2 MSTORE PUSH1 0x20 PUSH1 0x4 DUP3 ADD MSTORE PUSH1 0x21 PUSH1 0x24 DUP3 ADD MSTORE PUSH32 0x455243313135353A206D696E7420746F20746865207A65726F20616464726573 PUSH1 0x44 DUP3 ADD MSTORE PUSH1 0x73 PUSH1 0xF8 SHL PUSH1 0x64 DUP3 ADD MSTORE PUSH1 0x84 ADD PUSH2 0x79D JUMP JUMPDEST CALLER PUSH2 0x1E2E DUP2 PUSH1 0x0 DUP8 PUSH2 0x1A7F DUP9 PUSH2 0x25AD JUMP JUMPDEST PUSH1 0x0 DUP5 DUP2 MSTORE PUSH1 0x1 PUSH1 0x20 SWAP1 DUP2 MSTORE PUSH1 0x40 DUP1 DUP4 KECCAK256 PUSH1 0x1 PUSH1 0x1 PUSH1 0xA0 SHL SUB DUP10 AND DUP5 MSTORE SWAP1 SWAP2 MSTORE DUP2 KECCAK256 DUP1 SLOAD DUP6 SWAP3 SWAP1 PUSH2 0x1E60 SWAP1 DUP5 SWAP1 PUSH2 0x34F5 JUMP JUMPDEST SWAP1 SWAP2 SSTORE POP POP PUSH1 0x1 PUSH1 0x1 PUSH1 0xA0 SHL SUB DUP6 AND PUSH1 0x0 SWAP1 DUP2 MSTORE PUSH1 0x20 DUP2 SWAP1 MSTORE PUSH1 0x40 SWAP1 KECCAK256 PUSH2 0x1E87 SWAP1 DUP6 PUSH2 0x1EE3 JUMP JUMPDEST POP PUSH1 0x40 DUP1 MLOAD DUP6 DUP2 MSTORE PUSH1 0x20 DUP2 ADD DUP6 SWAP1 MSTORE PUSH1 0x1 PUSH1 0x1 PUSH1 0xA0 SHL SUB DUP1 DUP9 AND SWAP3 PUSH1 0x0 SWAP3 SWAP2 DUP6 AND SWAP2 PUSH32 0xC3D58168C5AE7397731D063D5BBF3D657854427343F4C083240F7AACAA2D0F62 SWAP2 ADD PUSH1 0x40 MLOAD DUP1 SWAP2 SUB SWAP1 LOG4 PUSH2 0x1A88 DUP2 PUSH1 0x0 DUP8 DUP8 DUP8 DUP8 PUSH2 0x2606 JUMP JUMPDEST PUSH1 0x0 PUSH2 0xD68 DUP4 DUP4 PUSH2 0x26D0 JUMP JUMPDEST PUSH1 0x0 PUSH2 0xD68 DUP4 DUP4 PUSH2 0x271F JUMP JUMPDEST PUSH1 0x1 PUSH1 0x1 PUSH1 0xA0 SHL SUB DUP5 AND EXTCODESIZE ISZERO PUSH2 0xD3E JUMPI PUSH1 0x40 MLOAD PUSH4 0xBC197C81 PUSH1 0xE0 SHL DUP2 MSTORE PUSH1 0x1 PUSH1 0x1 PUSH1 0xA0 SHL SUB DUP6 AND SWAP1 PUSH4 0xBC197C81 SWAP1 PUSH2 0x1F3F SWAP1 DUP10 SWAP1 DUP10 SWAP1 DUP9 SWAP1 DUP9 SWAP1 DUP9 SWAP1 PUSH1 0x4 ADD PUSH2 0x31B1 JUMP JUMPDEST PUSH1 0x20 PUSH1 0x40 MLOAD DUP1 DUP4 SUB DUP2 PUSH1 0x0 DUP8 DUP1 EXTCODESIZE ISZERO DUP1 ISZERO PUSH2 0x1F59 JUMPI PUSH1 0x0 DUP1 REVERT JUMPDEST POP GAS CALL SWAP3 POP POP POP DUP1 ISZERO PUSH2 0x1F89 JUMPI POP PUSH1 0x40 DUP1 MLOAD PUSH1 0x1F RETURNDATASIZE SWAP1 DUP2 ADD PUSH1 0x1F NOT AND DUP3 ADD SWAP1 SWAP3 MSTORE PUSH2 0x1F86 SWAP2 DUP2 ADD SWAP1 PUSH2 0x2F83 JUMP JUMPDEST PUSH1 0x1 JUMPDEST PUSH2 0x2036 JUMPI PUSH2 0x1F95 PUSH2 0x3664 JUMP JUMPDEST DUP1 PUSH4 0x8C379A0 EQ ISZERO PUSH2 0x1FCF JUMPI POP PUSH2 0x1FAA PUSH2 0x367B JUMP JUMPDEST DUP1 PUSH2 0x1FB5 JUMPI POP PUSH2 0x1FD1 JUMP JUMPDEST DUP1 PUSH1 0x40 MLOAD PUSH3 0x461BCD PUSH1 0xE5 SHL DUP2 MSTORE PUSH1 0x4 ADD PUSH2 0x79D SWAP2 SWAP1 PUSH2 0x3295 JUMP JUMPDEST POP JUMPDEST PUSH1 0x40 MLOAD PUSH3 0x461BCD PUSH1 0xE5 SHL DUP2 MSTORE PUSH1 0x20 PUSH1 0x4 DUP3 ADD MSTORE PUSH1 0x34 PUSH1 0x24 DUP3 ADD MSTORE PUSH32 0x455243313135353A207472616E7366657220746F206E6F6E2045524331313535 PUSH1 0x44 DUP3 ADD MSTORE PUSH20 0x2932B1B2B4BB32B91034B6B83632B6B2B73A32B9 PUSH1 0x61 SHL PUSH1 0x64 DUP3 ADD MSTORE PUSH1 0x84 ADD PUSH2 0x79D JUMP JUMPDEST PUSH1 0x1 PUSH1 0x1 PUSH1 0xE0 SHL SUB NOT DUP2 AND PUSH4 0xBC197C81 PUSH1 0xE0 SHL EQ PUSH2 0x1BFB JUMPI PUSH1 0x40 MLOAD PUSH3 0x461BCD PUSH1 0xE5 SHL DUP2 MSTORE PUSH1 0x4 ADD PUSH2 0x79D SWAP1 PUSH2 0x32A8 JUMP JUMPDEST PUSH1 0x0 PUSH2 0xD68 DUP4 DUP4 PUSH2 0x2836 JUMP JUMPDEST PUSH1 0x0 PUSH2 0x81D DUP3 SLOAD SWAP1 JUMP JUMPDEST PUSH1 0x0 DUP3 PUSH1 0x20 ADD MLOAD PUSH2 0x208F CALLER PUSH1 0x9 SLOAD PUSH2 0x735 JUMP JUMPDEST LT ISZERO PUSH2 0x20F0 JUMPI PUSH1 0x40 MLOAD PUSH3 0x461BCD PUSH1 0xE5 SHL DUP2 MSTORE PUSH1 0x20 PUSH1 0x4 DUP3 ADD MSTORE PUSH1 0x2A PUSH1 0x24 DUP3 ADD MSTORE PUSH32 0x596F7520646F6E2774206861766520656E6F75676820464C4F555220746F2062 PUSH1 0x44 DUP3 ADD MSTORE PUSH10 0x616B6520746861742121 PUSH1 0xB0 SHL PUSH1 0x64 DUP3 ADD MSTORE PUSH1 0x84 ADD PUSH2 0x79D JUMP JUMPDEST PUSH1 0x40 DUP4 ADD MLOAD MLOAD PUSH1 0x0 DUP2 PUSH8 0xFFFFFFFFFFFFFFFF DUP2 GT ISZERO PUSH2 0x211F JUMPI PUSH4 0x4E487B71 PUSH1 0xE0 SHL PUSH1 0x0 MSTORE PUSH1 0x41 PUSH1 0x4 MSTORE PUSH1 0x24 PUSH1 0x0 REVERT JUMPDEST PUSH1 0x40 MLOAD SWAP1 DUP1 DUP3 MSTORE DUP1 PUSH1 0x20 MUL PUSH1 0x20 ADD DUP3 ADD PUSH1 0x40 MSTORE DUP1 ISZERO PUSH2 0x2148 JUMPI DUP2 PUSH1 0x20 ADD PUSH1 0x20 DUP3 MUL DUP1 CALLDATASIZE DUP4 CALLDATACOPY ADD SWAP1 POP JUMPDEST POP SWAP1 POP DUP4 MLOAD DUP6 PUSH1 0x40 ADD MLOAD MLOAD EQ PUSH2 0x21C6 JUMPI PUSH1 0x40 MLOAD PUSH3 0x461BCD PUSH1 0xE5 SHL DUP2 MSTORE PUSH1 0x20 PUSH1 0x4 DUP3 ADD MSTORE PUSH1 0x3C PUSH1 0x24 DUP3 ADD MSTORE PUSH32 0x596F7520686176656E277420616464656420746865207269676874206E756D62 PUSH1 0x44 DUP3 ADD MSTORE PUSH32 0x6572206F6620737461727465727320746F207468652062617463682100000000 PUSH1 0x64 DUP3 ADD MSTORE PUSH1 0x84 ADD PUSH2 0x79D JUMP JUMPDEST PUSH1 0x0 JUMPDEST DUP6 PUSH1 0x40 ADD MLOAD MLOAD DUP2 LT ISZERO PUSH2 0x243F JUMPI PUSH1 0x0 PUSH1 0xB PUSH1 0x0 DUP8 DUP5 DUP2 MLOAD DUP2 LT PUSH2 0x21FC JUMPI PUSH4 0x4E487B71 PUSH1 0xE0 SHL PUSH1 0x0 MSTORE PUSH1 0x32 PUSH1 0x4 MSTORE PUSH1 0x24 PUSH1 0x0 REVERT JUMPDEST PUSH1 0x20 SWAP1 DUP2 MUL SWAP2 SWAP1 SWAP2 ADD DUP2 ADD MLOAD DUP3 MSTORE DUP2 ADD SWAP2 SWAP1 SWAP2 MSTORE PUSH1 0x40 ADD PUSH1 0x0 KECCAK256 SLOAD PUSH2 0x222E SWAP1 PUSH1 0x1 PUSH1 0x28 SHL SWAP1 DIV PUSH4 0xFFFFFFFF AND TIMESTAMP PUSH2 0x3579 JUMP JUMPDEST SWAP1 POP DUP7 PUSH1 0x40 ADD MLOAD DUP3 DUP2 MLOAD DUP2 LT PUSH2 0x2254 JUMPI PUSH4 0x4E487B71 PUSH1 0xE0 SHL PUSH1 0x0 MSTORE PUSH1 0x32 PUSH1 0x4 MSTORE PUSH1 0x24 PUSH1 0x0 REVERT JUMPDEST PUSH1 0x20 MUL PUSH1 0x20 ADD ADD MLOAD PUSH4 0xFFFFFFFF AND DUP2 PUSH4 0xFFFFFFFF AND GT PUSH2 0x22F6 JUMPI PUSH1 0x40 MLOAD PUSH3 0x461BCD PUSH1 0xE5 SHL DUP2 MSTORE PUSH1 0x20 PUSH1 0x4 DUP3 ADD MSTORE PUSH1 0x51 PUSH1 0x24 DUP3 ADD MSTORE PUSH32 0x596F757220737461727465727320617265206E6F74206F6C6420656E6F756768 PUSH1 0x44 DUP3 ADD MSTORE PUSH32 0x2C20706C65617365207573652074686520737461727465727320726571756972 PUSH1 0x64 DUP3 ADD MSTORE PUSH17 0x6564206279207468697320726563697065 PUSH1 0x78 SHL PUSH1 0x84 DUP3 ADD MSTORE PUSH1 0xA4 ADD PUSH2 0x79D JUMP JUMPDEST TIMESTAMP PUSH1 0xB PUSH1 0x0 DUP9 DUP6 DUP2 MLOAD DUP2 LT PUSH2 0x231B JUMPI PUSH4 0x4E487B71 PUSH1 0xE0 SHL PUSH1 0x0 MSTORE PUSH1 0x32 PUSH1 0x4 MSTORE PUSH1 0x24 PUSH1 0x0 REVERT JUMPDEST PUSH1 0x20 SWAP1 DUP2 MUL SWAP2 SWAP1 SWAP2 ADD DUP2 ADD MLOAD DUP3 MSTORE DUP2 ADD SWAP2 SWAP1 SWAP2 MSTORE PUSH1 0x40 ADD PUSH1 0x0 KECCAK256 SLOAD PUSH4 0xFFFFFFFF AND LT ISZERO PUSH2 0x23BC JUMPI PUSH1 0x40 MLOAD PUSH3 0x461BCD PUSH1 0xE5 SHL DUP2 MSTORE PUSH1 0x20 PUSH1 0x4 DUP3 ADD MSTORE PUSH1 0x43 PUSH1 0x24 DUP3 ADD MSTORE PUSH32 0x596F757220737461727465727320617265206E6F7420616C6C20616C6976652C PUSH1 0x44 DUP3 ADD MSTORE PUSH32 0x20796F75206D757374207573652061206C6976696E6720696E6772656469656E PUSH1 0x64 DUP3 ADD MSTORE PUSH3 0x742121 PUSH1 0xE8 SHL PUSH1 0x84 DUP3 ADD MSTORE PUSH1 0xA4 ADD PUSH2 0x79D JUMP JUMPDEST PUSH2 0x23E0 CALLER DUP8 DUP5 DUP2 MLOAD DUP2 LT PUSH2 0xF01 JUMPI PUSH4 0x4E487B71 PUSH1 0xE0 SHL PUSH1 0x0 MSTORE PUSH1 0x32 PUSH1 0x4 MSTORE PUSH1 0x24 PUSH1 0x0 REVERT JUMPDEST PUSH1 0x1 EQ PUSH2 0x23FF JUMPI PUSH1 0x40 MLOAD PUSH3 0x461BCD PUSH1 0xE5 SHL DUP2 MSTORE PUSH1 0x4 ADD PUSH2 0x79D SWAP1 PUSH2 0x3334 JUMP JUMPDEST PUSH1 0x1 DUP4 DUP4 DUP2 MLOAD DUP2 LT PUSH2 0x2421 JUMPI PUSH4 0x4E487B71 PUSH1 0xE0 SHL PUSH1 0x0 MSTORE PUSH1 0x32 PUSH1 0x4 MSTORE PUSH1 0x24 PUSH1 0x0 REVERT JUMPDEST PUSH1 0x20 SWAP1 DUP2 MUL SWAP2 SWAP1 SWAP2 ADD ADD MSTORE POP DUP1 PUSH2 0x2437 DUP2 PUSH2 0x361D JUMP JUMPDEST SWAP2 POP POP PUSH2 0x21C9 JUMP JUMPDEST POP PUSH2 0x244B CALLER DUP6 DUP4 PUSH2 0x28CA JUMP JUMPDEST PUSH2 0x2459 CALLER DUP7 PUSH1 0x20 ADD MLOAD PUSH2 0x1D7D JUMP JUMPDEST POP PUSH1 0x1 SWAP5 SWAP4 POP POP POP POP JUMP JUMPDEST PUSH1 0x1 PUSH1 0x1 PUSH1 0xA0 SHL SUB DUP4 AND PUSH2 0x248A JUMPI PUSH1 0x40 MLOAD PUSH3 0x461BCD PUSH1 0xE5 SHL DUP2 MSTORE PUSH1 0x4 ADD PUSH2 0x79D SWAP1 PUSH2 0x33FC JUMP JUMPDEST CALLER PUSH2 0x24BA DUP2 DUP6 PUSH1 0x0 PUSH2 0x249B DUP8 PUSH2 0x25AD JUMP JUMPDEST PUSH2 0x24A4 DUP8 PUSH2 0x25AD JUMP JUMPDEST POP POP PUSH1 0x40 DUP1 MLOAD PUSH1 0x20 DUP2 ADD SWAP1 SWAP2 MSTORE PUSH1 0x0 SWAP1 MSTORE POP POP POP JUMP JUMPDEST PUSH1 0x0 DUP4 DUP2 MSTORE PUSH1 0x1 PUSH1 0x20 SWAP1 DUP2 MSTORE PUSH1 0x40 DUP1 DUP4 KECCAK256 PUSH1 0x1 PUSH1 0x1 PUSH1 0xA0 SHL SUB DUP9 AND DUP5 MSTORE SWAP1 SWAP2 MSTORE SWAP1 KECCAK256 SLOAD DUP3 DUP2 LT ISZERO PUSH2 0x24FD JUMPI PUSH1 0x40 MLOAD PUSH3 0x461BCD PUSH1 0xE5 SHL DUP2 MSTORE PUSH1 0x4 ADD PUSH2 0x79D SWAP1 PUSH2 0x32F0 JUMP JUMPDEST PUSH1 0x0 PUSH2 0x2509 DUP5 DUP4 PUSH2 0x3579 JUMP JUMPDEST PUSH1 0x0 DUP7 DUP2 MSTORE PUSH1 0x1 PUSH1 0x20 SWAP1 DUP2 MSTORE PUSH1 0x40 DUP1 DUP4 KECCAK256 PUSH1 0x1 PUSH1 0x1 PUSH1 0xA0 SHL SUB DUP12 AND DUP5 MSTORE SWAP1 SWAP2 MSTORE SWAP1 KECCAK256 DUP2 SWAP1 SSTORE SWAP1 POP DUP1 PUSH2 0x2559 JUMPI PUSH1 0x1 PUSH1 0x1 PUSH1 0xA0 SHL SUB DUP7 AND PUSH1 0x0 SWAP1 DUP2 MSTORE PUSH1 0x20 DUP2 SWAP1 MSTORE PUSH1 0x40 SWAP1 KECCAK256 PUSH2 0x2557 SWAP1 DUP7 PUSH2 0x1EEF JUMP JUMPDEST POP JUMPDEST PUSH1 0x40 DUP1 MLOAD DUP7 DUP2 MSTORE PUSH1 0x20 DUP2 ADD DUP7 SWAP1 MSTORE PUSH1 0x0 SWAP2 PUSH1 0x1 PUSH1 0x1 PUSH1 0xA0 SHL SUB DUP10 DUP2 AND SWAP3 SWAP1 DUP8 AND SWAP2 PUSH32 0xC3D58168C5AE7397731D063D5BBF3D657854427343F4C083240F7AACAA2D0F62 SWAP2 ADD PUSH1 0x40 MLOAD DUP1 SWAP2 SUB SWAP1 LOG4 POP POP POP POP POP POP JUMP JUMPDEST PUSH1 0x40 DUP1 MLOAD PUSH1 0x1 DUP1 DUP3 MSTORE DUP2 DUP4 ADD SWAP1 SWAP3 MSTORE PUSH1 0x60 SWAP2 PUSH1 0x0 SWAP2 SWAP1 PUSH1 0x20 DUP1 DUP4 ADD SWAP1 DUP1 CALLDATASIZE DUP4 CALLDATACOPY ADD SWAP1 POP POP SWAP1 POP DUP3 DUP2 PUSH1 0x0 DUP2 MLOAD DUP2 LT PUSH2 0x25F5 JUMPI PUSH4 0x4E487B71 PUSH1 0xE0 SHL PUSH1 0x0 MSTORE PUSH1 0x32 PUSH1 0x4 MSTORE PUSH1 0x24 PUSH1 0x0 REVERT JUMPDEST PUSH1 0x20 SWAP1 DUP2 MUL SWAP2 SWAP1 SWAP2 ADD ADD MSTORE SWAP3 SWAP2 POP POP JUMP JUMPDEST PUSH1 0x1 PUSH1 0x1 PUSH1 0xA0 SHL SUB DUP5 AND EXTCODESIZE ISZERO PUSH2 0xD3E JUMPI PUSH1 0x40 MLOAD PUSH4 0xF23A6E61 PUSH1 0xE0 SHL DUP2 MSTORE PUSH1 0x1 PUSH1 0x1 PUSH1 0xA0 SHL SUB DUP6 AND SWAP1 PUSH4 0xF23A6E61 SWAP1 PUSH2 0x264A SWAP1 DUP10 SWAP1 DUP10 SWAP1 DUP9 SWAP1 DUP9 SWAP1 DUP9 SWAP1 PUSH1 0x4 ADD PUSH2 0x320F JUMP JUMPDEST PUSH1 0x20 PUSH1 0x40 MLOAD DUP1 DUP4 SUB DUP2 PUSH1 0x0 DUP8 DUP1 EXTCODESIZE ISZERO DUP1 ISZERO PUSH2 0x2664 JUMPI PUSH1 0x0 DUP1 REVERT JUMPDEST POP GAS CALL SWAP3 POP POP POP DUP1 ISZERO PUSH2 0x2694 JUMPI POP PUSH1 0x40 DUP1 MLOAD PUSH1 0x1F RETURNDATASIZE SWAP1 DUP2 ADD PUSH1 0x1F NOT AND DUP3 ADD SWAP1 SWAP3 MSTORE PUSH2 0x2691 SWAP2 DUP2 ADD SWAP1 PUSH2 0x2F83 JUMP JUMPDEST PUSH1 0x1 JUMPDEST PUSH2 0x26A0 JUMPI PUSH2 0x1F95 PUSH2 0x3664 JUMP JUMPDEST PUSH1 0x1 PUSH1 0x1 PUSH1 0xE0 SHL SUB NOT DUP2 AND PUSH4 0xF23A6E61 PUSH1 0xE0 SHL EQ PUSH2 0x1BFB JUMPI PUSH1 0x40 MLOAD PUSH3 0x461BCD PUSH1 0xE5 SHL DUP2 MSTORE PUSH1 0x4 ADD PUSH2 0x79D SWAP1 PUSH2 0x32A8 JUMP JUMPDEST PUSH1 0x0 DUP2 DUP2 MSTORE PUSH1 0x1 DUP4 ADD PUSH1 0x20 MSTORE PUSH1 0x40 DUP2 KECCAK256 SLOAD PUSH2 0x2717 JUMPI POP DUP2 SLOAD PUSH1 0x1 DUP2 DUP2 ADD DUP5 SSTORE PUSH1 0x0 DUP5 DUP2 MSTORE PUSH1 0x20 DUP1 DUP3 KECCAK256 SWAP1 SWAP4 ADD DUP5 SWAP1 SSTORE DUP5 SLOAD DUP5 DUP3 MSTORE DUP3 DUP7 ADD SWAP1 SWAP4 MSTORE PUSH1 0x40 SWAP1 KECCAK256 SWAP2 SWAP1 SWAP2 SSTORE PUSH2 0x7CB JUMP JUMPDEST POP PUSH1 0x0 PUSH2 0x7CB JUMP JUMPDEST PUSH1 0x0 DUP2 DUP2 MSTORE PUSH1 0x1 DUP4 ADD PUSH1 0x20 MSTORE PUSH1 0x40 DUP2 KECCAK256 SLOAD DUP1 ISZERO PUSH2 0x282C JUMPI PUSH1 0x0 PUSH2 0x2743 PUSH1 0x1 DUP4 PUSH2 0x3579 JUMP JUMPDEST DUP6 SLOAD SWAP1 SWAP2 POP PUSH1 0x0 SWAP1 PUSH2 0x2757 SWAP1 PUSH1 0x1 SWAP1 PUSH2 0x3579 JUMP JUMPDEST SWAP1 POP PUSH1 0x0 DUP7 PUSH1 0x0 ADD DUP3 DUP2 SLOAD DUP2 LT PUSH2 0x277E JUMPI PUSH4 0x4E487B71 PUSH1 0xE0 SHL PUSH1 0x0 MSTORE PUSH1 0x32 PUSH1 0x4 MSTORE PUSH1 0x24 PUSH1 0x0 REVERT JUMPDEST SWAP1 PUSH1 0x0 MSTORE PUSH1 0x20 PUSH1 0x0 KECCAK256 ADD SLOAD SWAP1 POP DUP1 DUP8 PUSH1 0x0 ADD DUP5 DUP2 SLOAD DUP2 LT PUSH2 0x27AF JUMPI PUSH4 0x4E487B71 PUSH1 0xE0 SHL PUSH1 0x0 MSTORE PUSH1 0x32 PUSH1 0x4 MSTORE PUSH1 0x24 PUSH1 0x0 REVERT JUMPDEST PUSH1 0x0 SWAP2 DUP3 MSTORE PUSH1 0x20 DUP1 DUP4 KECCAK256 SWAP1 SWAP2 ADD SWAP3 SWAP1 SWAP3 SSTORE DUP3 DUP2 MSTORE PUSH1 0x1 DUP10 ADD SWAP1 SWAP2 MSTORE PUSH1 0x40 SWAP1 KECCAK256 DUP5 SWAP1 SSTORE DUP7 SLOAD DUP8 SWAP1 DUP1 PUSH2 0x27F0 JUMPI PUSH4 0x4E487B71 PUSH1 0xE0 SHL PUSH1 0x0 MSTORE PUSH1 0x31 PUSH1 0x4 MSTORE PUSH1 0x24 PUSH1 0x0 REVERT JUMPDEST PUSH1 0x1 SWAP1 SUB DUP2 DUP2 SWAP1 PUSH1 0x0 MSTORE PUSH1 0x20 PUSH1 0x0 KECCAK256 ADD PUSH1 0x0 SWAP1 SSTORE SWAP1 SSTORE DUP7 PUSH1 0x1 ADD PUSH1 0x0 DUP8 DUP2 MSTORE PUSH1 0x20 ADD SWAP1 DUP2 MSTORE PUSH1 0x20 ADD PUSH1 0x0 KECCAK256 PUSH1 0x0 SWAP1 SSTORE PUSH1 0x1 SWAP5 POP POP POP POP POP PUSH2 0x7CB JUMP JUMPDEST PUSH1 0x0 SWAP2 POP POP PUSH2 0x7CB JUMP JUMPDEST DUP2 SLOAD PUSH1 0x0 SWAP1 DUP3 LT PUSH2 0x2894 JUMPI PUSH1 0x40 MLOAD PUSH3 0x461BCD PUSH1 0xE5 SHL DUP2 MSTORE PUSH1 0x20 PUSH1 0x4 DUP3 ADD MSTORE PUSH1 0x22 PUSH1 0x24 DUP3 ADD MSTORE PUSH32 0x456E756D657261626C655365743A20696E646578206F7574206F6620626F756E PUSH1 0x44 DUP3 ADD MSTORE PUSH2 0x6473 PUSH1 0xF0 SHL PUSH1 0x64 DUP3 ADD MSTORE PUSH1 0x84 ADD PUSH2 0x79D JUMP JUMPDEST DUP3 PUSH1 0x0 ADD DUP3 DUP2 SLOAD DUP2 LT PUSH2 0x28B7 JUMPI PUSH4 0x4E487B71 PUSH1 0xE0 SHL PUSH1 0x0 MSTORE PUSH1 0x32 PUSH1 0x4 MSTORE PUSH1 0x24 PUSH1 0x0 REVERT JUMPDEST SWAP1 PUSH1 0x0 MSTORE PUSH1 0x20 PUSH1 0x0 KECCAK256 ADD SLOAD SWAP1 POP SWAP3 SWAP2 POP POP JUMP JUMPDEST PUSH1 0x1 PUSH1 0x1 PUSH1 0xA0 SHL SUB DUP4 AND PUSH2 0x28F0 JUMPI PUSH1 0x40 MLOAD PUSH3 0x461BCD PUSH1 0xE5 SHL DUP2 MSTORE PUSH1 0x4 ADD PUSH2 0x79D SWAP1 PUSH2 0x33FC JUMP JUMPDEST DUP1 MLOAD DUP3 MLOAD EQ PUSH2 0x2911 JUMPI PUSH1 0x40 MLOAD PUSH3 0x461BCD PUSH1 0xE5 SHL DUP2 MSTORE PUSH1 0x4 ADD PUSH2 0x79D SWAP1 PUSH2 0x3489 JUMP JUMPDEST PUSH1 0x40 DUP1 MLOAD PUSH1 0x20 DUP2 ADD SWAP1 SWAP2 MSTORE PUSH1 0x0 SWAP1 DUP2 SWAP1 MSTORE CALLER SWAP1 JUMPDEST DUP4 MLOAD DUP2 LT ISZERO PUSH2 0x2A3E JUMPI PUSH1 0x0 DUP5 DUP3 DUP2 MLOAD DUP2 LT PUSH2 0x2950 JUMPI PUSH4 0x4E487B71 PUSH1 0xE0 SHL PUSH1 0x0 MSTORE PUSH1 0x32 PUSH1 0x4 MSTORE PUSH1 0x24 PUSH1 0x0 REVERT JUMPDEST PUSH1 0x20 MUL PUSH1 0x20 ADD ADD MLOAD SWAP1 POP PUSH1 0x0 DUP5 DUP4 DUP2 MLOAD DUP2 LT PUSH2 0x297C JUMPI PUSH4 0x4E487B71 PUSH1 0xE0 SHL PUSH1 0x0 MSTORE PUSH1 0x32 PUSH1 0x4 MSTORE PUSH1 0x24 PUSH1 0x0 REVERT JUMPDEST PUSH1 0x20 SWAP1 DUP2 MUL SWAP2 SWAP1 SWAP2 ADD DUP2 ADD MLOAD PUSH1 0x0 DUP5 DUP2 MSTORE PUSH1 0x1 DUP4 MSTORE PUSH1 0x40 DUP1 DUP3 KECCAK256 PUSH1 0x1 PUSH1 0x1 PUSH1 0xA0 SHL SUB DUP13 AND DUP4 MSTORE SWAP1 SWAP4 MSTORE SWAP2 DUP3 KECCAK256 SLOAD SWAP1 SWAP3 POP SWAP1 PUSH2 0x29B7 DUP4 DUP4 PUSH2 0x3579 JUMP JUMPDEST SWAP1 POP DUP3 DUP3 LT ISZERO PUSH2 0x29D9 JUMPI PUSH1 0x40 MLOAD PUSH3 0x461BCD PUSH1 0xE5 SHL DUP2 MSTORE PUSH1 0x4 ADD PUSH2 0x79D SWAP1 PUSH2 0x32F0 JUMP JUMPDEST PUSH1 0x0 DUP5 DUP2 MSTORE PUSH1 0x1 PUSH1 0x20 SWAP1 DUP2 MSTORE PUSH1 0x40 DUP1 DUP4 KECCAK256 PUSH1 0x1 PUSH1 0x1 PUSH1 0xA0 SHL SUB DUP14 AND DUP5 MSTORE SWAP1 SWAP2 MSTORE SWAP1 KECCAK256 DUP2 SWAP1 SSTORE DUP1 PUSH2 0x2A27 JUMPI PUSH1 0x1 PUSH1 0x1 PUSH1 0xA0 SHL SUB DUP10 AND PUSH1 0x0 SWAP1 DUP2 MSTORE PUSH1 0x20 DUP2 SWAP1 MSTORE PUSH1 0x40 SWAP1 KECCAK256 PUSH2 0x2A25 SWAP1 DUP6 PUSH2 0x1EEF JUMP JUMPDEST POP JUMPDEST POP POP POP POP DUP1 DUP1 PUSH2 0x2A36 SWAP1 PUSH2 0x361D JUMP JUMPDEST SWAP2 POP POP PUSH2 0x2925 JUMP JUMPDEST POP PUSH1 0x0 PUSH1 0x1 PUSH1 0x1 PUSH1 0xA0 SHL SUB AND DUP5 PUSH1 0x1 PUSH1 0x1 PUSH1 0xA0 SHL SUB AND DUP3 PUSH1 0x1 PUSH1 0x1 PUSH1 0xA0 SHL SUB AND PUSH32 0x4A39DC06D4C0DBC64B70AF90FD698A233A518AA5D07E595D983B8C0526C8F7FB DUP7 DUP7 PUSH1 0x40 MLOAD PUSH2 0x2A8F SWAP3 SWAP2 SWAP1 PUSH2 0x3267 JUMP JUMPDEST PUSH1 0x40 MLOAD DUP1 SWAP2 SUB SWAP1 LOG4 POP POP POP POP JUMP JUMPDEST DUP3 DUP1 SLOAD PUSH2 0x2AA9 SWAP1 PUSH2 0x35B5 JUMP JUMPDEST SWAP1 PUSH1 0x0 MSTORE PUSH1 0x20 PUSH1 0x0 KECCAK256 SWAP1 PUSH1 0x1F ADD PUSH1 0x20 SWAP1 DIV DUP2 ADD SWAP3 DUP3 PUSH2 0x2ACB JUMPI PUSH1 0x0 DUP6 SSTORE PUSH2 0x2B11 JUMP JUMPDEST DUP3 PUSH1 0x1F LT PUSH2 0x2AE4 JUMPI DUP1 MLOAD PUSH1 0xFF NOT AND DUP4 DUP1 ADD OR DUP6 SSTORE PUSH2 0x2B11 JUMP JUMPDEST DUP3 DUP1 ADD PUSH1 0x1 ADD DUP6 SSTORE DUP3 ISZERO PUSH2 0x2B11 JUMPI SWAP2 DUP3 ADD JUMPDEST DUP3 DUP2 GT ISZERO PUSH2 0x2B11 JUMPI DUP3 MLOAD DUP3 SSTORE SWAP2 PUSH1 0x20 ADD SWAP2 SWAP1 PUSH1 0x1 ADD SWAP1 PUSH2 0x2AF6 JUMP JUMPDEST POP PUSH2 0x2B1D SWAP3 SWAP2 POP PUSH2 0x2BC7 JUMP JUMPDEST POP SWAP1 JUMP JUMPDEST DUP3 DUP1 SLOAD DUP3 DUP3 SSTORE SWAP1 PUSH1 0x0 MSTORE PUSH1 0x20 PUSH1 0x0 KECCAK256 SWAP1 PUSH1 0x7 ADD PUSH1 0x8 SWAP1 DIV DUP2 ADD SWAP3 DUP3 ISZERO PUSH2 0x2B11 JUMPI SWAP2 PUSH1 0x20 MUL DUP3 ADD PUSH1 0x0 JUMPDEST DUP4 DUP3 GT ISZERO PUSH2 0x2B8E JUMPI DUP4 MLOAD DUP4 DUP3 PUSH2 0x100 EXP DUP2 SLOAD DUP2 PUSH4 0xFFFFFFFF MUL NOT AND SWAP1 DUP4 PUSH4 0xFFFFFFFF AND MUL OR SWAP1 SSTORE POP SWAP3 PUSH1 0x20 ADD SWAP3 PUSH1 0x4 ADD PUSH1 0x20 DUP2 PUSH1 0x3 ADD DIV SWAP3 DUP4 ADD SWAP3 PUSH1 0x1 SUB MUL PUSH2 0x2B4A JUMP JUMPDEST DUP1 ISZERO PUSH2 0x2BBE JUMPI DUP3 DUP2 PUSH2 0x100 EXP DUP2 SLOAD SWAP1 PUSH4 0xFFFFFFFF MUL NOT AND SWAP1 SSTORE PUSH1 0x4 ADD PUSH1 0x20 DUP2 PUSH1 0x3 ADD DIV SWAP3 DUP4 ADD SWAP3 PUSH1 0x1 SUB MUL PUSH2 0x2B8E JUMP JUMPDEST POP POP PUSH2 0x2B1D SWAP3 SWAP2 POP JUMPDEST JUMPDEST DUP1 DUP3 GT ISZERO PUSH2 0x2B1D JUMPI PUSH1 0x0 DUP2 SSTORE PUSH1 0x1 ADD PUSH2 0x2BC8 JUMP JUMPDEST PUSH1 0x0 PUSH8 0xFFFFFFFFFFFFFFFF DUP4 GT ISZERO PUSH2 0x2BF6 JUMPI PUSH2 0x2BF6 PUSH2 0x364E JUMP JUMPDEST PUSH1 0x40 MLOAD PUSH2 0x2C0D PUSH1 0x1F DUP6 ADD PUSH1 0x1F NOT AND PUSH1 0x20 ADD DUP3 PUSH2 0x35F0 JUMP JUMPDEST DUP1 SWAP2 POP DUP4 DUP2 MSTORE DUP5 DUP5 DUP5 ADD GT ISZERO PUSH2 0x2C22 JUMPI PUSH1 0x0 DUP1 REVERT JUMPDEST DUP4 DUP4 PUSH1 0x20 DUP4 ADD CALLDATACOPY PUSH1 0x0 PUSH1 0x20 DUP6 DUP4 ADD ADD MSTORE POP SWAP4 SWAP3 POP POP POP JUMP JUMPDEST DUP1 CALLDATALOAD PUSH1 0x1 PUSH1 0x1 PUSH1 0xA0 SHL SUB DUP2 AND DUP2 EQ PUSH2 0x820 JUMPI PUSH1 0x0 DUP1 REVERT JUMPDEST PUSH1 0x0 DUP3 PUSH1 0x1F DUP4 ADD SLT PUSH2 0x2C61 JUMPI DUP1 DUP2 REVERT JUMPDEST DUP2 CALLDATALOAD PUSH1 0x20 PUSH2 0x2C6E DUP3 PUSH2 0x34D1 JUMP JUMPDEST PUSH1 0x40 MLOAD PUSH2 0x2C7B DUP3 DUP3 PUSH2 0x35F0 JUMP JUMPDEST DUP4 DUP2 MSTORE DUP3 DUP2 ADD SWAP2 POP DUP6 DUP4 ADD PUSH1 0x5 DUP6 SWAP1 SHL DUP8 ADD DUP5 ADD DUP9 LT ISZERO PUSH2 0x2C9A JUMPI DUP6 DUP7 REVERT JUMPDEST DUP6 JUMPDEST DUP6 DUP2 LT ISZERO PUSH2 0x2CB8 JUMPI DUP2 CALLDATALOAD DUP5 MSTORE SWAP3 DUP5 ADD SWAP3 SWAP1 DUP5 ADD SWAP1 PUSH1 0x1 ADD PUSH2 0x2C9C JUMP JUMPDEST POP SWAP1 SWAP8 SWAP7 POP POP POP POP POP POP POP JUMP JUMPDEST PUSH1 0x0 DUP3 PUSH1 0x1F DUP4 ADD SLT PUSH2 0x2CD5 JUMPI DUP1 DUP2 REVERT JUMPDEST PUSH2 0xD68 DUP4 DUP4 CALLDATALOAD PUSH1 0x20 DUP6 ADD PUSH2 0x2BDC JUMP JUMPDEST PUSH1 0x0 PUSH1 0x20 DUP3 DUP5 SUB SLT ISZERO PUSH2 0x2CF5 JUMPI DUP1 DUP2 REVERT JUMPDEST PUSH2 0xD68 DUP3 PUSH2 0x2C3A JUMP JUMPDEST PUSH1 0x0 DUP1 PUSH1 0x40 DUP4 DUP6 SUB SLT ISZERO PUSH2 0x2D10 JUMPI DUP1 DUP2 REVERT JUMPDEST PUSH2 0x2D19 DUP4 PUSH2 0x2C3A JUMP JUMPDEST SWAP2 POP PUSH2 0x2D27 PUSH1 0x20 DUP5 ADD PUSH2 0x2C3A JUMP JUMPDEST SWAP1 POP SWAP3 POP SWAP3 SWAP1 POP JUMP JUMPDEST PUSH1 0x0 DUP1 PUSH1 0x0 DUP1 PUSH1 0x0 PUSH1 0xA0 DUP7 DUP9 SUB SLT ISZERO PUSH2 0x2D47 JUMPI DUP1 DUP2 REVERT JUMPDEST PUSH2 0x2D50 DUP7 PUSH2 0x2C3A JUMP JUMPDEST SWAP5 POP PUSH2 0x2D5E PUSH1 0x20 DUP8 ADD PUSH2 0x2C3A JUMP JUMPDEST SWAP4 POP PUSH1 0x40 DUP7 ADD CALLDATALOAD PUSH8 0xFFFFFFFFFFFFFFFF DUP1 DUP3 GT ISZERO PUSH2 0x2D7A JUMPI DUP3 DUP4 REVERT JUMPDEST PUSH2 0x2D86 DUP10 DUP4 DUP11 ADD PUSH2 0x2C51 JUMP JUMPDEST SWAP5 POP PUSH1 0x60 DUP9 ADD CALLDATALOAD SWAP2 POP DUP1 DUP3 GT ISZERO PUSH2 0x2D9B JUMPI DUP3 DUP4 REVERT JUMPDEST PUSH2 0x2DA7 DUP10 DUP4 DUP11 ADD PUSH2 0x2C51 JUMP JUMPDEST SWAP4 POP PUSH1 0x80 DUP9 ADD CALLDATALOAD SWAP2 POP DUP1 DUP3 GT ISZERO PUSH2 0x2DBC JUMPI DUP3 DUP4 REVERT JUMPDEST POP PUSH2 0x2DC9 DUP9 DUP3 DUP10 ADD PUSH2 0x2CC5 JUMP JUMPDEST SWAP2 POP POP SWAP3 SWAP6 POP SWAP3 SWAP6 SWAP1 SWAP4 POP JUMP JUMPDEST PUSH1 0x0 DUP1 PUSH1 0x0 DUP1 PUSH1 0x0 PUSH1 0xA0 DUP7 DUP9 SUB SLT ISZERO PUSH2 0x2DED JUMPI DUP1 DUP2 REVERT JUMPDEST PUSH2 0x2DF6 DUP7 PUSH2 0x2C3A JUMP JUMPDEST SWAP5 POP PUSH2 0x2E04 PUSH1 0x20 DUP8 ADD PUSH2 0x2C3A JUMP JUMPDEST SWAP4 POP PUSH1 0x40 DUP7 ADD CALLDATALOAD SWAP3 POP PUSH1 0x60 DUP7 ADD CALLDATALOAD SWAP2 POP PUSH1 0x80 DUP7 ADD CALLDATALOAD PUSH8 0xFFFFFFFFFFFFFFFF DUP2 GT ISZERO PUSH2 0x2E2D JUMPI DUP2 DUP3 REVERT JUMPDEST PUSH2 0x2DC9 DUP9 DUP3 DUP10 ADD PUSH2 0x2CC5 JUMP JUMPDEST PUSH1 0x0 DUP1 PUSH1 0x40 DUP4 DUP6 SUB SLT ISZERO PUSH2 0x2E4B JUMPI DUP2 DUP3 REVERT JUMPDEST PUSH2 0x2E54 DUP4 PUSH2 0x2C3A JUMP JUMPDEST SWAP2 POP PUSH1 0x20 DUP4 ADD CALLDATALOAD DUP1 ISZERO ISZERO DUP2 EQ PUSH2 0x2E68 JUMPI DUP2 DUP3 REVERT JUMPDEST DUP1 SWAP2 POP POP SWAP3 POP SWAP3 SWAP1 POP JUMP JUMPDEST PUSH1 0x0 DUP1 PUSH1 0x40 DUP4 DUP6 SUB SLT ISZERO PUSH2 0x2E85 JUMPI DUP1 DUP2 REVERT JUMPDEST PUSH2 0x2E8E DUP4 PUSH2 0x2C3A JUMP JUMPDEST SWAP5 PUSH1 0x20 SWAP4 SWAP1 SWAP4 ADD CALLDATALOAD SWAP4 POP POP POP JUMP JUMPDEST PUSH1 0x0 DUP1 PUSH1 0x40 DUP4 DUP6 SUB SLT ISZERO PUSH2 0x2EAE JUMPI DUP2 DUP3 REVERT JUMPDEST DUP3 CALLDATALOAD PUSH8 0xFFFFFFFFFFFFFFFF DUP1 DUP3 GT ISZERO PUSH2 0x2EC5 JUMPI DUP4 DUP5 REVERT JUMPDEST DUP2 DUP6 ADD SWAP2 POP DUP6 PUSH1 0x1F DUP4 ADD SLT PUSH2 0x2ED8 JUMPI DUP4 DUP5 REVERT JUMPDEST DUP2 CALLDATALOAD PUSH1 0x20 PUSH2 0x2EE5 DUP3 PUSH2 0x34D1 JUMP JUMPDEST PUSH1 0x40 MLOAD PUSH2 0x2EF2 DUP3 DUP3 PUSH2 0x35F0 JUMP JUMPDEST DUP4 DUP2 MSTORE DUP3 DUP2 ADD SWAP2 POP DUP6 DUP4 ADD PUSH1 0x5 DUP6 SWAP1 SHL DUP8 ADD DUP5 ADD DUP12 LT ISZERO PUSH2 0x2F11 JUMPI DUP9 DUP10 REVERT JUMPDEST DUP9 SWAP7 POP JUMPDEST DUP5 DUP8 LT ISZERO PUSH2 0x2F3A JUMPI PUSH2 0x2F26 DUP2 PUSH2 0x2C3A JUMP JUMPDEST DUP4 MSTORE PUSH1 0x1 SWAP7 SWAP1 SWAP7 ADD SWAP6 SWAP2 DUP4 ADD SWAP2 DUP4 ADD PUSH2 0x2F15 JUMP JUMPDEST POP SWAP7 POP POP DUP7 ADD CALLDATALOAD SWAP3 POP POP DUP1 DUP3 GT ISZERO PUSH2 0x2F50 JUMPI DUP3 DUP4 REVERT JUMPDEST POP PUSH2 0x2F5D DUP6 DUP3 DUP7 ADD PUSH2 0x2C51 JUMP JUMPDEST SWAP2 POP POP SWAP3 POP SWAP3 SWAP1 POP JUMP JUMPDEST PUSH1 0x0 PUSH1 0x20 DUP3 DUP5 SUB SLT ISZERO PUSH2 0x2F78 JUMPI DUP1 DUP2 REVERT JUMPDEST DUP2 CALLDATALOAD PUSH2 0xD68 DUP2 PUSH2 0x370D JUMP JUMPDEST PUSH1 0x0 PUSH1 0x20 DUP3 DUP5 SUB SLT ISZERO PUSH2 0x2F94 JUMPI DUP1 DUP2 REVERT JUMPDEST DUP2 MLOAD PUSH2 0xD68 DUP2 PUSH2 0x370D JUMP JUMPDEST PUSH1 0x0 DUP1 PUSH1 0x0 DUP1 PUSH1 0x80 DUP6 DUP8 SUB SLT ISZERO PUSH2 0x2FB4 JUMPI DUP2 DUP3 REVERT JUMPDEST DUP5 CALLDATALOAD PUSH8 0xFFFFFFFFFFFFFFFF DUP1 DUP3 GT ISZERO PUSH2 0x2FCB JUMPI DUP4 DUP5 REVERT JUMPDEST DUP2 DUP8 ADD SWAP2 POP DUP8 PUSH1 0x1F DUP4 ADD SLT PUSH2 0x2FDE JUMPI DUP4 DUP5 REVERT JUMPDEST PUSH1 0x20 PUSH2 0x2FEE DUP10 DUP5 CALLDATALOAD DUP4 DUP7 ADD PUSH2 0x2BDC JUMP JUMPDEST SWAP7 POP DUP1 DUP9 ADD CALLDATALOAD SWAP6 POP PUSH1 0x40 DUP9 ADD CALLDATALOAD SWAP3 POP DUP2 DUP4 GT ISZERO PUSH2 0x3009 JUMPI DUP5 DUP6 REVERT JUMPDEST DUP3 DUP9 ADD SWAP3 POP DUP9 PUSH1 0x1F DUP5 ADD SLT PUSH2 0x301C JUMPI DUP5 DUP6 REVERT JUMPDEST DUP3 CALLDATALOAD PUSH2 0x3027 DUP2 PUSH2 0x34D1 JUMP JUMPDEST PUSH1 0x40 MLOAD PUSH2 0x3034 DUP3 DUP3 PUSH2 0x35F0 JUMP JUMPDEST DUP3 DUP2 MSTORE DUP4 DUP2 ADD SWAP2 POP DUP6 DUP5 ADD PUSH1 0x5 DUP5 SWAP1 SHL DUP8 ADD DUP6 ADD DUP14 LT ISZERO PUSH2 0x3053 JUMPI DUP9 DUP10 REVERT JUMPDEST DUP9 SWAP7 POP JUMPDEST DUP4 DUP8 LT ISZERO PUSH2 0x3086 JUMPI DUP1 CALLDATALOAD PUSH4 0xFFFFFFFF DUP2 AND DUP2 EQ PUSH2 0x3072 JUMPI DUP10 DUP11 REVERT JUMPDEST DUP4 MSTORE PUSH1 0x1 SWAP7 SWAP1 SWAP7 ADD SWAP6 SWAP2 DUP5 ADD SWAP2 DUP5 ADD PUSH2 0x3057 JUMP JUMPDEST POP SWAP7 POP POP POP POP PUSH1 0x60 DUP8 ADD CALLDATALOAD SWAP2 POP DUP1 DUP3 GT ISZERO PUSH2 0x309F JUMPI DUP3 DUP4 REVERT JUMPDEST POP PUSH2 0x30AC DUP8 DUP3 DUP9 ADD PUSH2 0x2C51 JUMP JUMPDEST SWAP2 POP POP SWAP3 SWAP6 SWAP2 SWAP5 POP SWAP3 POP JUMP JUMPDEST PUSH1 0x0 PUSH1 0x20 DUP3 DUP5 SUB SLT ISZERO PUSH2 0x30C9 JUMPI DUP1 DUP2 REVERT JUMPDEST POP CALLDATALOAD SWAP2 SWAP1 POP JUMP JUMPDEST PUSH1 0x0 DUP1 PUSH1 0x40 DUP4 DUP6 SUB SLT ISZERO PUSH2 0x30E2 JUMPI DUP2 DUP3 REVERT JUMPDEST DUP3 CALLDATALOAD SWAP2 POP PUSH1 0x20 DUP4 ADD CALLDATALOAD PUSH8 0xFFFFFFFFFFFFFFFF DUP2 GT ISZERO PUSH2 0x30FF JUMPI DUP2 DUP3 REVERT JUMPDEST PUSH2 0x2F5D DUP6 DUP3 DUP7 ADD PUSH2 0x2C51 JUMP JUMPDEST PUSH1 0x0 DUP1 PUSH1 0x40 DUP4 DUP6 SUB SLT ISZERO PUSH2 0x311D JUMPI DUP2 DUP3 REVERT JUMPDEST POP POP DUP1 CALLDATALOAD SWAP3 PUSH1 0x20 SWAP1 SWAP2 ADD CALLDATALOAD SWAP2 POP JUMP JUMPDEST PUSH1 0x0 DUP2 MLOAD DUP1 DUP5 MSTORE PUSH1 0x20 DUP1 DUP6 ADD SWAP5 POP DUP1 DUP5 ADD DUP4 JUMPDEST DUP4 DUP2 LT ISZERO PUSH2 0x315B JUMPI DUP2 MLOAD DUP8 MSTORE SWAP6 DUP3 ADD SWAP6 SWAP1 DUP3 ADD SWAP1 PUSH1 0x1 ADD PUSH2 0x313F JUMP JUMPDEST POP SWAP5 SWAP6 SWAP5 POP POP POP POP POP JUMP JUMPDEST PUSH1 0x0 DUP2 MLOAD DUP1 DUP5 MSTORE DUP2 JUMPDEST DUP2 DUP2 LT ISZERO PUSH2 0x318B JUMPI PUSH1 0x20 DUP2 DUP6 ADD DUP2 ADD MLOAD DUP7 DUP4 ADD DUP3 ADD MSTORE ADD PUSH2 0x316F JUMP JUMPDEST DUP2 DUP2 GT ISZERO PUSH2 0x319C JUMPI DUP3 PUSH1 0x20 DUP4 DUP8 ADD ADD MSTORE JUMPDEST POP PUSH1 0x1F ADD PUSH1 0x1F NOT AND SWAP3 SWAP1 SWAP3 ADD PUSH1 0x20 ADD SWAP3 SWAP2 POP POP JUMP JUMPDEST PUSH1 0x1 PUSH1 0x1 PUSH1 0xA0 SHL SUB DUP7 DUP2 AND DUP3 MSTORE DUP6 AND PUSH1 0x20 DUP3 ADD MSTORE PUSH1 0xA0 PUSH1 0x40 DUP3 ADD DUP2 SWAP1 MSTORE PUSH1 0x0 SWAP1 PUSH2 0x31DD SWAP1 DUP4 ADD DUP7 PUSH2 0x312C JUMP JUMPDEST DUP3 DUP2 SUB PUSH1 0x60 DUP5 ADD MSTORE PUSH2 0x31EF DUP2 DUP7 PUSH2 0x312C JUMP JUMPDEST SWAP1 POP DUP3 DUP2 SUB PUSH1 0x80 DUP5 ADD MSTORE PUSH2 0x3203 DUP2 DUP6 PUSH2 0x3166 JUMP JUMPDEST SWAP9 SWAP8 POP POP POP POP POP POP POP POP JUMP JUMPDEST PUSH1 0x1 PUSH1 0x1 PUSH1 0xA0 SHL SUB DUP7 DUP2 AND DUP3 MSTORE DUP6 AND PUSH1 0x20 DUP3 ADD MSTORE PUSH1 0x40 DUP2 ADD DUP5 SWAP1 MSTORE PUSH1 0x60 DUP2 ADD DUP4 SWAP1 MSTORE PUSH1 0xA0 PUSH1 0x80 DUP3 ADD DUP2 SWAP1 MSTORE PUSH1 0x0 SWAP1 PUSH2 0x3249 SWAP1 DUP4 ADD DUP5 PUSH2 0x3166 JUMP JUMPDEST SWAP8 SWAP7 POP POP POP POP POP POP POP JUMP JUMPDEST PUSH1 0x0 PUSH1 0x20 DUP3 MSTORE PUSH2 0xD68 PUSH1 0x20 DUP4 ADD DUP5 PUSH2 0x312C JUMP JUMPDEST PUSH1 0x0 PUSH1 0x40 DUP3 MSTORE PUSH2 0x327A PUSH1 0x40 DUP4 ADD DUP6 PUSH2 0x312C JUMP JUMPDEST DUP3 DUP2 SUB PUSH1 0x20 DUP5 ADD MSTORE PUSH2 0x328C DUP2 DUP6 PUSH2 0x312C JUMP JUMPDEST SWAP6 SWAP5 POP POP POP POP POP JUMP JUMPDEST PUSH1 0x0 PUSH1 0x20 DUP3 MSTORE PUSH2 0xD68 PUSH1 0x20 DUP4 ADD DUP5 PUSH2 0x3166 JUMP JUMPDEST PUSH1 0x20 DUP1 DUP3 MSTORE PUSH1 0x28 SWAP1 DUP3 ADD MSTORE PUSH32 0x455243313135353A204552433131353552656365697665722072656A65637465 PUSH1 0x40 DUP3 ADD MSTORE PUSH8 0x6420746F6B656E73 PUSH1 0xC0 SHL PUSH1 0x60 DUP3 ADD MSTORE PUSH1 0x80 ADD SWAP1 JUMP JUMPDEST PUSH1 0x20 DUP1 DUP3 MSTORE PUSH1 0x24 SWAP1 DUP3 ADD MSTORE PUSH32 0x455243313135353A206275726E20616D6F756E7420657863656564732062616C PUSH1 0x40 DUP3 ADD MSTORE PUSH4 0x616E6365 PUSH1 0xE0 SHL PUSH1 0x60 DUP3 ADD MSTORE PUSH1 0x80 ADD SWAP1 JUMP JUMPDEST PUSH1 0x20 DUP1 DUP3 MSTORE PUSH1 0x57 SWAP1 DUP3 ADD MSTORE PUSH32 0x54686973204964206E756D626572206973206E6F74206173736F636961746564 PUSH1 0x40 DUP3 ADD MSTORE PUSH32 0x2077697468206F6E65206F6620796F75722073746172746572732C20706C6561 PUSH1 0x60 DUP3 ADD MSTORE PUSH32 0x736520747279207769746820612076616C69642069642E000000000000000000 PUSH1 0x80 DUP3 ADD MSTORE PUSH1 0xA0 ADD SWAP1 JUMP JUMPDEST PUSH1 0x20 DUP1 DUP3 MSTORE PUSH1 0x25 SWAP1 DUP3 ADD MSTORE PUSH32 0x455243313135353A207472616E7366657220746F20746865207A65726F206164 PUSH1 0x40 DUP3 ADD MSTORE PUSH5 0x6472657373 PUSH1 0xD8 SHL PUSH1 0x60 DUP3 ADD MSTORE PUSH1 0x80 ADD SWAP1 JUMP JUMPDEST PUSH1 0x20 DUP1 DUP3 MSTORE PUSH1 0x23 SWAP1 DUP3 ADD MSTORE PUSH32 0x455243313135353A206275726E2066726F6D20746865207A65726F2061646472 PUSH1 0x40 DUP3 ADD MSTORE PUSH3 0x657373 PUSH1 0xE8 SHL PUSH1 0x60 DUP3 ADD MSTORE PUSH1 0x80 ADD SWAP1 JUMP JUMPDEST PUSH1 0x20 DUP1 DUP3 MSTORE PUSH1 0x2A SWAP1 DUP3 ADD MSTORE PUSH32 0x455243313135353A20696E73756666696369656E742062616C616E636520666F PUSH1 0x40 DUP3 ADD MSTORE PUSH10 0x39103A3930B739B332B9 PUSH1 0xB1 SHL PUSH1 0x60 DUP3 ADD MSTORE PUSH1 0x80 ADD SWAP1 JUMP JUMPDEST PUSH1 0x20 DUP1 DUP3 MSTORE PUSH1 0x28 SWAP1 DUP3 ADD MSTORE PUSH32 0x455243313135353A2069647320616E6420616D6F756E7473206C656E67746820 PUSH1 0x40 DUP3 ADD MSTORE PUSH8 0xDAD2E6DAC2E8C6D PUSH1 0xC3 SHL PUSH1 0x60 DUP3 ADD MSTORE PUSH1 0x80 ADD SWAP1 JUMP JUMPDEST PUSH1 0x0 PUSH8 0xFFFFFFFFFFFFFFFF DUP3 GT ISZERO PUSH2 0x34EB JUMPI PUSH2 0x34EB PUSH2 0x364E JUMP JUMPDEST POP PUSH1 0x5 SHL PUSH1 0x20 ADD SWAP1 JUMP JUMPDEST PUSH1 0x0 DUP3 NOT DUP3 GT ISZERO PUSH2 0x3508 JUMPI PUSH2 0x3508 PUSH2 0x3638 JUMP JUMPDEST POP ADD SWAP1 JUMP JUMPDEST PUSH1 0x0 PUSH4 0xFFFFFFFF DUP1 DUP4 AND DUP2 DUP6 AND DUP1 DUP4 SUB DUP3 GT ISZERO PUSH2 0x352C JUMPI PUSH2 0x352C PUSH2 0x3638 JUMP JUMPDEST ADD SWAP5 SWAP4 POP POP POP POP JUMP JUMPDEST PUSH1 0x0 PUSH1 0xFF DUP3 AND PUSH1 0xFF DUP5 AND DUP1 PUSH1 0xFF SUB DUP3 GT ISZERO PUSH2 0x3552 JUMPI PUSH2 0x3552 PUSH2 0x3638 JUMP JUMPDEST ADD SWAP4 SWAP3 POP POP POP JUMP JUMPDEST PUSH1 0x0 DUP2 PUSH1 0x0 NOT DIV DUP4 GT DUP3 ISZERO ISZERO AND ISZERO PUSH2 0x3574 JUMPI PUSH2 0x3574 PUSH2 0x3638 JUMP JUMPDEST POP MUL SWAP1 JUMP JUMPDEST PUSH1 0x0 DUP3 DUP3 LT ISZERO PUSH2 0x358B JUMPI PUSH2 0x358B PUSH2 0x3638 JUMP JUMPDEST POP SUB SWAP1 JUMP JUMPDEST PUSH1 0x0 PUSH4 0xFFFFFFFF DUP4 DUP2 AND SWAP1 DUP4 AND DUP2 DUP2 LT ISZERO PUSH2 0x35AD JUMPI PUSH2 0x35AD PUSH2 0x3638 JUMP JUMPDEST SUB SWAP4 SWAP3 POP POP POP JUMP JUMPDEST PUSH1 0x1 DUP2 DUP2 SHR SWAP1 DUP3 AND DUP1 PUSH2 0x35C9 JUMPI PUSH1 0x7F DUP3 AND SWAP2 POP JUMPDEST PUSH1 0x20 DUP3 LT DUP2 EQ ISZERO PUSH2 0x35EA JUMPI PUSH4 0x4E487B71 PUSH1 0xE0 SHL PUSH1 0x0 MSTORE PUSH1 0x22 PUSH1 0x4 MSTORE PUSH1 0x24 PUSH1 0x0 REVERT JUMPDEST POP SWAP2 SWAP1 POP JUMP JUMPDEST PUSH1 0x1F DUP3 ADD PUSH1 0x1F NOT AND DUP2 ADD PUSH8 0xFFFFFFFFFFFFFFFF DUP2 GT DUP3 DUP3 LT OR ISZERO PUSH2 0x3616 JUMPI PUSH2 0x3616 PUSH2 0x364E JUMP JUMPDEST PUSH1 0x40 MSTORE POP POP JUMP JUMPDEST PUSH1 0x0 PUSH1 0x0 NOT DUP3 EQ ISZERO PUSH2 0x3631 JUMPI PUSH2 0x3631 PUSH2 0x3638 JUMP JUMPDEST POP PUSH1 0x1 ADD SWAP1 JUMP JUMPDEST PUSH4 0x4E487B71 PUSH1 0xE0 SHL PUSH1 0x0 MSTORE PUSH1 0x11 PUSH1 0x4 MSTORE PUSH1 0x24 PUSH1 0x0 REVERT JUMPDEST PUSH4 0x4E487B71 PUSH1 0xE0 SHL PUSH1 0x0 MSTORE PUSH1 0x41 PUSH1 0x4 MSTORE PUSH1 0x24 PUSH1 0x0 REVERT JUMPDEST PUSH1 0x0 PUSH1 0x3 RETURNDATASIZE GT ISZERO PUSH2 0x99D JUMPI PUSH1 0x4 DUP2 DUP3 RETURNDATACOPY MLOAD PUSH1 0xE0 SHR SWAP1 JUMP JUMPDEST PUSH1 0x0 PUSH1 0x44 RETURNDATASIZE LT ISZERO PUSH2 0x368B JUMPI PUSH2 0x99D JUMP JUMPDEST PUSH1 0x40 MLOAD PUSH1 0x3 NOT RETURNDATASIZE DUP2 ADD PUSH1 0x4 DUP4 RETURNDATACOPY DUP2 MLOAD RETURNDATASIZE PUSH8 0xFFFFFFFFFFFFFFFF DUP2 PUSH1 0x24 DUP5 ADD GT DUP2 DUP5 GT OR ISZERO PUSH2 0x36BD JUMPI POP POP POP POP POP PUSH2 0x99D JUMP JUMPDEST DUP3 DUP6 ADD SWAP2 POP DUP2 MLOAD DUP2 DUP2 GT ISZERO PUSH2 0x36D7 JUMPI POP POP POP POP POP POP PUSH2 0x99D JUMP JUMPDEST DUP5 RETURNDATASIZE DUP8 ADD ADD PUSH1 0x20 DUP3 DUP6 ADD ADD GT ISZERO PUSH2 0x36F3 JUMPI POP POP POP POP POP POP PUSH2 0x99D JUMP JUMPDEST PUSH2 0x3702 PUSH1 0x20 DUP3 DUP7 ADD ADD DUP8 PUSH2 0x35F0 JUMP JUMPDEST POP SWAP1 SWAP5 POP POP POP POP POP SWAP1 JUMP JUMPDEST PUSH1 0x1 PUSH1 0x1 PUSH1 0xE0 SHL SUB NOT DUP2 AND DUP2 EQ PUSH2 0x3723 JUMPI PUSH1 0x0 DUP1 REVERT JUMPDEST POP JUMP INVALID LOG2 PUSH5 0x6970667358 0x22 SLT KECCAK256 0xE GASLIMIT DUP3 0xBA SWAP14 0x29 0xD 0xE2 LOG0 0xCF 0xAA 0xD6 SWAP16 0xAE 0xD2 CREATE2 0x5F 0xCC 0xD8 SWAP8 0xED DIV 0x27 COINBASE 0xE3 EXTCODECOPY 0x49 NUMBER 0xC2 EXTCODESIZE 0x23 MSTORE8 PUSH5 0x736F6C6343 STOP ADDMOD SUB STOP CALLER ","sha1":"6dfe9239ac81194b74de6d3e8eb87a45d759e6d0","source":"pragma solidity ^0.8.0;\n\nimport \"./openzeppelin-contracts/contracts/token/ERC1155/ERC1155.sol\";\n\n  \n\ncontract Cafe is ERC1155 {\n    \n    \n    constructor (string memory uri_, uint32 _timescale, uint256 _createCost, uint256 _feedCost, uint256 _grindReward) public ERC1155(uri_) {\n        _setURI(uri_);\n        timescale = _timescale;\n        devAddress=msg.sender;\n        createCost = _createCost;\n        feedCost = _feedCost;\n        grindReward = _grindReward;\n    }\n    /** @dev These are the constructor parameters.  Create/feed Costs are the flour required to create and feed starters.  \n    Timescale represents the timescale at which starters die, feed reset time, and  grindFlour cooldown\n    grindReward is the reward for grinding flour\n     */\n    uint256 createCost;\n    uint256 feedCost;\n    uint32 timescale;\n    uint256 grindReward;\n\n\n    /** @dev Sourdough Struct represents the living sourdough starters\n    _timeOfDeath is the Unix timestamp at which the starter 'dies' and becomes unavailable for use in baking\n    _childCount describes the number of times the starter has been split\n    _creationTime shows when the starter was born! \n    _creator is the person who made the starter\n     */\n\n    struct Sourdough{\n        uint32 _timeOfDeath;\n        uint8 _childCount;\n        uint32 _creationTime;\n        address _creator;\n        bool _beingAutoFed;\n        }\n\n\n\n\n/** @dev Recipe struct represents baked items.  \n_name is the name..must be unique\n_flourRequired is burned when baking the recipe\n_ages is an array of the ages of the required starter ingredients*/\n    struct Recipe{\n        string _name;\n        uint256 _flourRequired;\n        uint32[] _ages;\n        address _creator;\n        uint256 _timesBaked;\n        uint256 _numberEaten;\n        \n    }\n/** @dev flourId denotes the id of the fungible FLOUR token\ndividerIndex separates semi-fungible starter ingredients and semi-fungible baked goods\ngrindCooldown determine whether or not an address can grind flour\n */\n    address public devAddress = address(this);\n    uint256 flourId = 0;\n    uint256 dividerIndex = 57896044618658097711785492504343953926634992332820282019728792003956564819968;\n    mapping (uint256 => Sourdough) Sourdoughs;\n    mapping(address => uint32) grindCooldown;\n    mapping(uint256 => Recipe) BakedGoods;\n    mapping(address => uint256) totalScore;\n    mapping(address => bool) isAutoFeeding;\n/** @dev total stats\n */ \n    uint256 public oldestStarterId;\n    uint32 public oldestStarterAge =0;\n    uint256 public topScore =0;\n    address public leader;\n    uint256 public flourSupply = 0;\n    uint256 public mostUsedRecipe;\n    uint256 public topRecipeScore;\n\n    uint256 public startersCreated = 0;\n    uint256 public itemsBaked = 0;\n    uint256 public recipesPublished = 0;\n\n/** @dev Credits the user 100 FLOUR every 24 hours if submitted\n */\n    function grindFlour() public {\n        require(isAutoFeeding[msg.sender]==false,\"You are already in the bakery, either wait or turn auto feed off!\");\n        require(grindCooldown[msg.sender]<block.timestamp,\"You did this already today!\");\n        _mint(msg.sender,flourId, 100, \"\");\n        flourSupply += 100;\n        grindCooldown[msg.sender] = uint32(block.timestamp + timescale);\n    }\n\n/** @dev Internally used to get rid of flour tokens */\n    function _burnFlour(address account, uint256 amount) internal {\n        require(balanceOf(msg.sender,flourId)>=amount);\n        _burn(account,flourId,amount);\n        flourSupply -= amount;\n    }\n\n/** @dev Makes a new nonfungible starter with age attributes by burning 50 FLOUR */\n    function createStarter() public returns (bool) {\n        _burnFlour(msg.sender,  createCost);  \n        uint256 tokenId = startersCreated +1; \n        _mint(msg.sender, 0+tokenId, 1,\"\");\n        Sourdough memory sourdough = Sourdough(uint32(block.timestamp + timescale),0,uint32(block.timestamp),msg.sender,false);\n        \n        startersCreated+=1;\n        Sourdoughs[tokenId] = sourdough;\n        return true;\n    \n    }\n/** @dev Burns 50 FLOUR and resets the time of death for your token*/\n    function feedStarter(uint256 tokenId) public returns (bool) {\n        require(balanceOf(msg.sender,tokenId) == 1, \"This Id number is not associated with one of your starters, please try with a valid id.\");\n        require(Sourdoughs[tokenId]._timeOfDeath >= block.timestamp, \"Your starter is dead!  You should have fed it sooner :( .\");\n        _burnFlour(msg.sender, feedCost);\n        Sourdoughs[tokenId]._timeOfDeath = uint32(block.timestamp + timescale);\n        if(Sourdoughs[tokenId]._beingAutoFed){\n            Sourdoughs[tokenId]._beingAutoFed==false;\n        }\n        uint32 currentAge = uint32(block.timestamp) - Sourdoughs[tokenId]._creationTime;\n\n        if(currentAge > oldestStarterAge){\n            oldestStarterAge = currentAge;\n            oldestStarterId = tokenId;\n        }\n\n        return true;\n    }\n\n/** @dev Feeds and duplicates your starter, returning another with identical age - costs 100 FLOUR */\n    function splitStarter(uint256 tokenId) public returns (bool) { \n        require(balanceOf(msg.sender,tokenId)==1, \"This Id number is not associated with one of your starters, please try with a valid id.\");\n        feedStarter(tokenId);\n        createStarter();\n        Sourdoughs[startersCreated]._creationTime = Sourdoughs[tokenId]._creationTime;\n        Sourdoughs[tokenId]._childCount+=1;\n        return true;\n\n    }\n/** @dev Internal. Takes a recipe struct and a batch of ingredients by id number.  Burns the ingredients and FLOUR required, then mints a semi-fungible item to the owner\nwith the Id of the recipe */\n    function _bakeRecipe(Recipe memory recipe, uint256[] memory starterBatch) internal returns (bool) {\n        require(balanceOf(msg.sender, flourId)>= recipe._flourRequired,\"You don't have enough FLOUR to bake that!!\");\n        uint length = recipe._ages.length;\n        uint[] memory amounts = new uint[](length);\n        require(recipe._ages.length == starterBatch.length,\"You haven't added the right number of starters to the batch!\");\n        for(uint i=0;i<recipe._ages.length;i++){\n            uint32 starterAge = uint32(block.timestamp-Sourdoughs[starterBatch[i]]._creationTime);\n            require(starterAge > recipe._ages[i], \"Your starters are not old enough, please use the starters required by this recipe\");  \n            require(Sourdoughs[starterBatch[i]]._timeOfDeath >= block.timestamp, \"Your starters are not all alive, you must use a living ingredient!!\");\n            require(balanceOf(msg.sender,starterBatch[i])==1, \"This Id number is not associated with one of your starters, please try with a valid id.\");\n            amounts[i] = 1;\n        }\n        _burnBatch(msg.sender, starterBatch, amounts); \n        _burnFlour(msg.sender,recipe._flourRequired);\n        return true;\n    }\n/** @dev Bakes and publishes a recipe that does not yet exist */\n    function publishNewRecipe(string memory name, uint256 flourRequired, uint32[] memory ages, uint256[] memory starterBatch) public returns (bool) {\n        require(ages.length <=10, \"You can only have up to 10 ingredients!\");\n        Recipe memory recipe = Recipe(name,flourRequired, ages,msg.sender,0,0);\n        _bakeRecipe(recipe,starterBatch);\n\n        recipe._timesBaked+=1;\n        itemsBaked+=1;\n        recipesPublished+=1;\n        uint256 recipeId = dividerIndex + recipesPublished;\n        BakedGoods[recipesPublished] = recipe;\n        if (BakedGoods[recipesPublished]._timesBaked> topRecipeScore){\n            topRecipeScore = BakedGoods[recipesPublished]._timesBaked;\n            mostUsedRecipe = recipesPublished;\n        }\n        _mint(msg.sender,recipeId,1,\"\");\n        return true;\n\n\n    }\n/** @dev Takes the id of an existing recipe and a batch of ingredients.  Burns the batch and the required flour, mints an item with the recipe Id */\n    function bakeExistingRecipe(uint256 recipeId, uint256[] memory starterBatch) public returns (bool) {\n        Recipe memory recipe = BakedGoods[recipeId];\n        _bakeRecipe(recipe,starterBatch);\n\n        BakedGoods[recipeId]._timesBaked+=1;\n        \n        itemsBaked+=1;\n        if( BakedGoods[recipeId]._timesBaked > topRecipeScore){\n            topRecipeScore = BakedGoods[recipeId]._timesBaked;\n            mostUsedRecipe = recipeId;\n        }\n        _mint(msg.sender,recipeId+dividerIndex,1,\"\");\n        return true;\n    }\n/** @dev Burns an item, credits the player with a score equivalent to the total age of all ingredients */\n    function eatBakedGood(uint256 recipeId, uint256 amount) public returns (bool){\n        require(balanceOf(msg.sender,dividerIndex + recipeId)>=amount, \"You don't have that many of those to eat!\");\n        uint32[] memory ages = BakedGoods[recipeId]._ages;\n        uint32 total;\n        for(uint i=0;i<ages.length;i++){\n            total+=ages[i];\n        }\n        uint256 index = recipeId + dividerIndex;\n        _burn(msg.sender,index,amount);\n        BakedGoods[recipeId]._numberEaten+=1;\n        totalScore[msg.sender]+= uint256(total)*amount;\n        if (totalScore[msg.sender] > topScore){\n            leader = msg.sender;\n            topScore = totalScore[msg.sender];\n        }\n\n        \n    }\n\n\n\n    function autoFeed(uint feedingTimes,uint256 starterId) public returns (bool) {\n        require(balanceOf(msg.sender,starterId)==1, \"This Id number is not associated with one of your starters, please try with a valid id.\");\n        uint256 cost = feedingTimes*50;\n        uint256 devFee = feedingTimes*10;\n        _burnFlour(msg.sender, cost);\n        safeTransferFrom(msg.sender,devAddress,flourId,devFee,\"\");\n        isAutoFeeding[msg.sender]=true;\n        Sourdoughs[starterId]._timeOfDeath =  uint32(block.timestamp + feedingTimes* timescale);\n        Sourdoughs[starterId]._beingAutoFed = true;\n        return true;\n    }\n\n\n    function stopAutoFeed(uint256 starterId) public returns(bool) {\n        require(Sourdoughs[starterId]._beingAutoFed ==true);\n        Sourdoughs[starterId]._timeOfDeath = uint32(block.timestamp + timescale);\n        Sourdoughs[starterId]._beingAutoFed = false;\n    }\n    \n\n\n\n\n\n\n\n\n\n\n    function getTimeOfDeath(uint256 starterId) public view returns(uint32){\n        return Sourdoughs[starterId]._timeOfDeath;\n    }\n    function getChildCount(uint256 starterId) public view returns(uint8){\n        return Sourdoughs[starterId]._childCount;\n    }\n    function getCreationTime(uint256 starterId) public view returns(uint32){\n        return Sourdoughs[starterId]._creationTime;\n    }\n    function getCreatorAddress(uint256 starterId) public view returns(address){\n        return Sourdoughs[starterId]._creator;\n    }\n    function getIsAutoFed(uint256 starterId) public view returns(bool){\n        return Sourdoughs[starterId]._beingAutoFed;\n    }\n\n\n\n\n    function getRecipeName(uint256 recipeId) public view returns(string memory){\n        return BakedGoods[recipeId]._name;\n    }\n\n    function getIngredientCount(uint256 recipeId) public view returns(uint256){\n        return BakedGoods[recipeId]._ages.length;\n    }\n     function getIngredientByIndex(uint256 recipeId, uint index) public view returns(uint32){\n        return BakedGoods[recipeId]._ages[index];\n    }\n     function getRecipeCreator(uint256 recipeId) public view returns(address){\n        return BakedGoods[recipeId]._creator;\n    }\n     function getFlourRequired(uint256 recipeId) public view returns(uint256){\n        return BakedGoods[recipeId]._flourRequired;\n    }\n     function getTimesBaked(uint256 recipeId) public view returns(uint256){\n        return BakedGoods[recipeId]._timesBaked;\n    }\n     function getNumberEaten(uint256 recipeId) public view returns(uint256){\n        return BakedGoods[recipeId]._numberEaten;\n    }\n\n\n    function getGrindReset(address player) public view returns(uint32){\n        return grindCooldown[player];\n    }\n    function getPlayerScore(address player) public view returns(uint256){\n        return totalScore[player];\n    }\n    function isPlayerAutoFeeding(address player) public view returns(bool){\n        return isAutoFeeding[player];\n    }\n}\n    \n","sourcePath":"contracts/Cafe.sol","type":"contract","deployment":{"address":"0x00C5dFF2d77712Fe1F0f965A60dCFcDf53134861","chainid":"4","blockHeight":8407205}}