{"abi":[{"inputs":[{"internalType":"string","name":"uri_","type":"string"},{"internalType":"uint32","name":"_timescale","type":"uint32"}],"stateMutability":"nonpayable","type":"constructor","name":"constructor"},{"anonymous":false,"inputs":[{"indexed":true,"internalType":"address","name":"account","type":"address"},{"indexed":true,"internalType":"address","name":"operator","type":"address"},{"indexed":false,"internalType":"bool","name":"approved","type":"bool"}],"name":"ApprovalForAll","type":"event"},{"anonymous":false,"inputs":[{"indexed":true,"internalType":"address","name":"operator","type":"address"},{"indexed":true,"internalType":"address","name":"from","type":"address"},{"indexed":true,"internalType":"address","name":"to","type":"address"},{"indexed":false,"internalType":"uint256[]","name":"ids","type":"uint256[]"},{"indexed":false,"internalType":"uint256[]","name":"values","type":"uint256[]"}],"name":"TransferBatch","type":"event"},{"anonymous":false,"inputs":[{"indexed":true,"internalType":"address","name":"operator","type":"address"},{"indexed":true,"internalType":"address","name":"from","type":"address"},{"indexed":true,"internalType":"address","name":"to","type":"address"},{"indexed":false,"internalType":"uint256","name":"id","type":"uint256"},{"indexed":false,"internalType":"uint256","name":"value","type":"uint256"}],"name":"TransferSingle","type":"event"},{"anonymous":false,"inputs":[{"indexed":false,"internalType":"string","name":"value","type":"string"},{"indexed":true,"internalType":"uint256","name":"id","type":"uint256"}],"name":"URI","type":"event"},{"inputs":[{"internalType":"uint256","name":"feedingTimes","type":"uint256"},{"internalType":"uint256","name":"starterId","type":"uint256"}],"name":"autoFeed","outputs":[{"internalType":"bool","name":"","type":"bool"}],"stateMutability":"nonpayable","type":"function"},{"inputs":[{"internalType":"uint256","name":"recipeId","type":"uint256"},{"internalType":"uint256[]","name":"starterBatch","type":"uint256[]"}],"name":"bakeExistingRecipe","outputs":[{"internalType":"bool","name":"","type":"bool"}],"stateMutability":"nonpayable","type":"function"},{"inputs":[{"internalType":"address","name":"account","type":"address"},{"internalType":"uint256","name":"id","type":"uint256"}],"name":"balanceOf","outputs":[{"internalType":"uint256","name":"","type":"uint256"}],"stateMutability":"view","type":"function"},{"inputs":[{"internalType":"address[]","name":"accounts","type":"address[]"},{"internalType":"uint256[]","name":"ids","type":"uint256[]"}],"name":"balanceOfBatch","outputs":[{"internalType":"uint256[]","name":"","type":"uint256[]"}],"stateMutability":"view","type":"function"},{"inputs":[],"name":"createStarter","outputs":[{"internalType":"bool","name":"","type":"bool"}],"stateMutability":"nonpayable","type":"function"},{"inputs":[],"name":"devAddress","outputs":[{"internalType":"address","name":"","type":"address"}],"stateMutability":"view","type":"function"},{"inputs":[{"internalType":"uint256","name":"recipeId","type":"uint256"},{"internalType":"uint256","name":"amount","type":"uint256"}],"name":"eatBakedGood","outputs":[{"internalType":"bool","name":"","type":"bool"}],"stateMutability":"nonpayable","type":"function"},{"inputs":[{"internalType":"uint256","name":"tokenId","type":"uint256"}],"name":"feedStarter","outputs":[{"internalType":"bool","name":"","type":"bool"}],"stateMutability":"nonpayable","type":"function"},{"inputs":[],"name":"flourSupply","outputs":[{"internalType":"uint256","name":"","type":"uint256"}],"stateMutability":"view","type":"function"},{"inputs":[{"internalType":"uint256","name":"starterId","type":"uint256"}],"name":"getChildCount","outputs":[{"internalType":"uint8","name":"","type":"uint8"}],"stateMutability":"view","type":"function"},{"inputs":[{"internalType":"uint256","name":"starterId","type":"uint256"}],"name":"getCreationTime","outputs":[{"internalType":"uint32","name":"","type":"uint32"}],"stateMutability":"view","type":"function"},{"inputs":[{"internalType":"uint256","name":"starterId","type":"uint256"}],"name":"getCreatorAddress","outputs":[{"internalType":"address","name":"","type":"address"}],"stateMutability":"view","type":"function"},{"inputs":[{"internalType":"uint256","name":"recipeId","type":"uint256"}],"name":"getFlourRequired","outputs":[{"internalType":"uint256","name":"","type":"uint256"}],"stateMutability":"view","type":"function"},{"inputs":[{"internalType":"address","name":"player","type":"address"}],"name":"getGrindReset","outputs":[{"internalType":"uint32","name":"","type":"uint32"}],"stateMutability":"view","type":"function"},{"inputs":[{"internalType":"uint256","name":"recipeId","type":"uint256"},{"internalType":"uint256","name":"index","type":"uint256"}],"name":"getIngredientByIndex","outputs":[{"internalType":"uint32","name":"","type":"uint32"}],"stateMutability":"view","type":"function"},{"inputs":[{"internalType":"uint256","name":"starterId","type":"uint256"}],"name":"getIsAutoFed","outputs":[{"internalType":"bool","name":"","type":"bool"}],"stateMutability":"view","type":"function"},{"inputs":[{"internalType":"uint256","name":"recipeId","type":"uint256"}],"name":"getNumberEaten","outputs":[{"internalType":"uint256","name":"","type":"uint256"}],"stateMutability":"view","type":"function"},{"inputs":[{"internalType":"address","name":"owner","type":"address"}],"name":"getOwnerUniqueTokens","outputs":[{"internalType":"uint256","name":"","type":"uint256"}],"stateMutability":"view","type":"function"},{"inputs":[{"internalType":"address","name":"player","type":"address"}],"name":"getPlayerScore","outputs":[{"internalType":"uint256","name":"","type":"uint256"}],"stateMutability":"view","type":"function"},{"inputs":[{"internalType":"uint256","name":"recipeId","type":"uint256"}],"name":"getRecipeCreator","outputs":[{"internalType":"address","name":"","type":"address"}],"stateMutability":"view","type":"function"},{"inputs":[{"internalType":"uint256","name":"recipeId","type":"uint256"}],"name":"getRecipeName","outputs":[{"internalType":"string","name":"","type":"string"}],"stateMutability":"view","type":"function"},{"inputs":[{"internalType":"uint256","name":"starterId","type":"uint256"}],"name":"getTimeOfDeath","outputs":[{"internalType":"uint32","name":"","type":"uint32"}],"stateMutability":"view","type":"function"},{"inputs":[{"internalType":"uint256","name":"recipeId","type":"uint256"}],"name":"getTimesBaked","outputs":[{"internalType":"uint256","name":"","type":"uint256"}],"stateMutability":"view","type":"function"},{"inputs":[],"name":"grindFlour","outputs":[],"stateMutability":"nonpayable","type":"function"},{"inputs":[{"internalType":"address","name":"account","type":"address"},{"internalType":"address","name":"operator","type":"address"}],"name":"isApprovedForAll","outputs":[{"internalType":"bool","name":"","type":"bool"}],"stateMutability":"view","type":"function"},{"inputs":[{"internalType":"address","name":"player","type":"address"}],"name":"isPlayerAutoFeeding","outputs":[{"internalType":"bool","name":"","type":"bool"}],"stateMutability":"view","type":"function"},{"inputs":[],"name":"itemsBaked","outputs":[{"internalType":"uint256","name":"","type":"uint256"}],"stateMutability":"view","type":"function"},{"inputs":[],"name":"leader","outputs":[{"internalType":"address","name":"","type":"address"}],"stateMutability":"view","type":"function"},{"inputs":[],"name":"mostUsedRecipe","outputs":[{"internalType":"uint256","name":"","type":"uint256"}],"stateMutability":"view","type":"function"},{"inputs":[],"name":"oldestStarterAge","outputs":[{"internalType":"uint32","name":"","type":"uint32"}],"stateMutability":"view","type":"function"},{"inputs":[],"name":"oldestStarterId","outputs":[{"internalType":"uint256","name":"","type":"uint256"}],"stateMutability":"view","type":"function"},{"inputs":[{"internalType":"string","name":"name","type":"string"},{"internalType":"uint256","name":"flourRequired","type":"uint256"},{"internalType":"uint32[]","name":"ages","type":"uint32[]"},{"internalType":"uint256[]","name":"starterBatch","type":"uint256[]"}],"name":"publishNewRecipe","outputs":[{"internalType":"bool","name":"","type":"bool"}],"stateMutability":"nonpayable","type":"function"},{"inputs":[],"name":"recipesPublished","outputs":[{"internalType":"uint256","name":"","type":"uint256"}],"stateMutability":"view","type":"function"},{"inputs":[{"internalType":"address","name":"from","type":"address"},{"internalType":"address","name":"to","type":"address"},{"internalType":"uint256[]","name":"ids","type":"uint256[]"},{"internalType":"uint256[]","name":"amounts","type":"uint256[]"},{"internalType":"bytes","name":"data","type":"bytes"}],"name":"safeBatchTransferFrom","outputs":[],"stateMutability":"nonpayable","type":"function"},{"inputs":[{"internalType":"address","name":"from","type":"address"},{"internalType":"address","name":"to","type":"address"},{"internalType":"uint256","name":"id","type":"uint256"},{"internalType":"uint256","name":"amount","type":"uint256"},{"internalType":"bytes","name":"data","type":"bytes"}],"name":"safeTransferFrom","outputs":[],"stateMutability":"nonpayable","type":"function"},{"inputs":[{"internalType":"address","name":"operator","type":"address"},{"internalType":"bool","name":"approved","type":"bool"}],"name":"setApprovalForAll","outputs":[],"stateMutability":"nonpayable","type":"function"},{"inputs":[{"internalType":"uint256","name":"tokenId","type":"uint256"}],"name":"splitStarter","outputs":[{"internalType":"bool","name":"","type":"bool"}],"stateMutability":"nonpayable","type":"function"},{"inputs":[],"name":"startersCreated","outputs":[{"internalType":"uint256","name":"","type":"uint256"}],"stateMutability":"view","type":"function"},{"inputs":[{"internalType":"uint256","name":"starterId","type":"uint256"}],"name":"stopAutoFeed","outputs":[{"internalType":"bool","name":"","type":"bool"}],"stateMutability":"nonpayable","type":"function"},{"inputs":[{"internalType":"bytes4","name":"interfaceId","type":"bytes4"}],"name":"supportsInterface","outputs":[{"internalType":"bool","name":"","type":"bool"}],"stateMutability":"view","type":"function"},{"inputs":[{"internalType":"address","name":"owner","type":"address"},{"internalType":"uint256","name":"index","type":"uint256"}],"name":"tokenOfOwnerByIndex","outputs":[{"internalType":"uint256","name":"","type":"uint256"}],"stateMutability":"view","type":"function"},{"inputs":[],"name":"topRecipeScore","outputs":[{"internalType":"uint256","name":"","type":"uint256"}],"stateMutability":"view","type":"function"},{"inputs":[],"name":"topScore","outputs":[{"internalType":"uint256","name":"","type":"uint256"}],"stateMutability":"view","type":"function"},{"inputs":[{"internalType":"uint256","name":"","type":"uint256"}],"name":"uri","outputs":[{"internalType":"string","name":"","type":"string"}],"stateMutability":"view","type":"function"}],"bytecode":"608060405260048054600160201b600160c01b031916306401000000000217905560006005819055600160ff1b600655600d805463ffffffff19169055600e8190556010819055601381905560148190556015553480156200006057600080fd5b5060405162003a2838038062003a288339810160408190526200008391620001a3565b816200008f81620000ca565b506200009b82620000ca565b6004805463ffffffff929092166001600160c01b031990921691909117336401000000000217905550620002e1565b8051620000df906003906020840190620000e3565b5050565b828054620000f1906200028e565b90600052602060002090601f01602090048101928262000115576000855562000160565b82601f106200013057805160ff191683800117855562000160565b8280016001018555821562000160579182015b828111156200016057825182559160200191906001019062000143565b506200016e92915062000172565b5090565b5b808211156200016e576000815560010162000173565b805163ffffffff811681146200019e57600080fd5b919050565b60008060408385031215620001b6578182fd5b82516001600160401b0380821115620001cd578384fd5b818501915085601f830112620001e1578384fd5b815181811115620001f657620001f6620002cb565b604051601f8201601f19908116603f01168101908382118183101715620002215762000221620002cb565b816040528281526020935088848487010111156200023d578687fd5b8691505b8282101562000260578482018401518183018501529083019062000241565b828211156200027157868484830101525b95506200028391505085820162000189565b925050509250929050565b600181811c90821680620002a357607f821691505b60208210811415620002c557634e487b7160e01b600052602260045260246000fd5b50919050565b634e487b7160e01b600052604160045260246000fd5b61373780620002f16000396000f3fe608060405234801561001057600080fd5b50600436106102735760003560e01c80637985781f11610151578063b172decc116100c3578063e085c53911610087578063e085c53914610651578063e985e9c51461067a578063f242432a146106b6578063f6d989f2146106c9578063f71ed3b8146106d2578063fc4f816c146106fc57610273565b8063b172decc146105e6578063c889d089146105f9578063c8cf79d914610602578063d4d3c09c14610615578063d682d87a1461062557610273565b8063a22cb46511610115578063a22cb46514610576578063a30b4db914610589578063a3486758146105b9578063a41e1c17146105c1578063a73adbc6146105d4578063ab5e9e8e146105dd57610273565b80637985781f146104945780637a77af5c146104c35780637f8315cd14610500578063976c39be1461052657806397ec23cb1461054957610273565b80633ad10ef6116101ea5780635aab8e2f116101ae5780635aab8e2f146104305780635c2c894a146104395780636510989c1461044257806369c13e8b1461045557806370b5e7b01461045e578063781f1b751461048157610273565b80633ad10ef6146103a457806340eedabb146103d757806342da6f9c146103ea5780634e1273f4146103fd5780634f41393b1461041d57610273565b80632a316cdf1161023c5780632a316cdf146102fc5780632b944ddf1461031f5780632eb2c2d6146103285780632f745c591461033d57806334b7fa221461035057806336ff4c951461037857610273565b8062fdd58e1461027857806301ffc9a71461029e57806307047482146102c15780630e89341c146102c95780631269ca40146102e9575b600080fd5b61028b610286366004612e4e565b61070f565b6040519081526020015b60405180910390f35b6102b16102ac366004612f42565b6107ab565b6040519015158152602001610295565b6102b16107ff565b6102dc6102d7366004613093565b610979565b6040516102959190613270565b6102dc6102f7366004613093565b610a0d565b61028b61030a366004613093565b60009081526009602052604090206001015490565b61028b60135481565b61033b610336366004612d0b565b610a2a565b005b61028b61034b366004612e4e565b610d1f565b61036361035e3660046130e6565b610d48565b60405163ffffffff9091168152602001610295565b6102b1610386366004612cbf565b6001600160a01b03166000908152600b602052604090205460ff1690565b6004546103bf9064010000000090046001600160a01b031681565b6040516001600160a01b039091168152602001610295565b600f546103bf906001600160a01b031681565b61028b6103f8366004612cbf565b610da7565b61041061040b366004612e77565b610dc8565b604051610295919061322f565b6102b161042b3660046130ab565b610f2a565b61028b60115481565b61028b60145481565b6102b16104503660046130e6565b61112d565b61028b600c5481565b61028b61046c366004613093565b60009081526009602052604090206005015490565b6102b161048f366004613093565b61134a565b6103636104a2366004612cbf565b6001600160a01b031660009081526008602052604090205463ffffffff1690565b6104ee6104d1366004613093565b600090815260076020526040902054640100000000900460ff1690565b60405160ff9091168152602001610295565b61036361050e366004613093565b60009081526007602052604090205463ffffffff1690565b61028b610534366004613093565b60009081526009602052604090206004015490565b610363610557366004613093565b600090815260076020526040902054600160281b900463ffffffff1690565b61033b610584366004612e14565b61140c565b6103bf610597366004613093565b600090815260076020526040902054600160481b90046001600160a01b031690565b61033b6114f0565b6102b16105cf366004612f7a565b611658565b61028b600e5481565b61028b60125481565b6102b16105f43660046130e6565b611847565b61028b60105481565b6102b1610610366004613093565b611940565b600d546103639063ffffffff1681565b6103bf610633366004613093565b6000908152600960205260409020600301546001600160a01b031690565b61028b61065f366004612cbf565b6001600160a01b03166000908152600a602052604090205490565b6102b1610688366004612cd9565b6001600160a01b03918216600090815260026020908152604080832093909416825291909152205460ff1690565b61033b6106c4366004612db1565b6119ab565b61028b60155481565b6102b16106e0366004613093565b600090815260076020526040902054600160e81b900460ff1690565b6102b161070a366004613093565b611be0565b60006001600160a01b0383166107805760405162461bcd60e51b815260206004820152602b60248201527f455243313135353a2062616c616e636520717565727920666f7220746865207a60448201526a65726f206164647265737360a81b60648201526084015b60405180910390fd5b5060008181526001602090815260408083206001600160a01b03861684529091529020545b92915050565b60006001600160e01b03198216636cdb3d1360e11b14806107dc57506001600160e01b031982166303a24d0760e21b145b806107f757506301ffc9a760e01b6001600160e01b03198316145b90505b919050565b600061080c336032611d58565b6000601354600161081d91906134d0565b90506108453361082e8360006134d0565b600160405180602001604052806000815250611d98565b6040805160a081019091526004546000919081906108699063ffffffff16426134d0565b63ffffffff168152602001600060ff1681526020014263ffffffff168152602001336001600160a01b031681526020016000151581525090506001601360008282546108b591906134d0565b909155505060009182526007602090815260409283902082518154928401519484015160608501516080909501511515600160e81b0260ff60e81b196001600160a01b03909616600160481b027fffffff0000000000000000000000000000000000000000ffffffffffffffffff63ffffffff938416600160281b021665010000000000600160e81b031960ff9099166401000000000264ffffffffff19909716939094169290921794909417959095161793909317919091161790555060015b90565b60606003805461098890613590565b80601f01602080910402602001604051908101604052809291908181526020018280546109b490613590565b8015610a015780601f106109d657610100808354040283529160200191610a01565b820191906000526020600020905b8154815290600101906020018083116109e457829003601f168201915b50505050509050919050565b600081815260096020526040902080546060919061098890613590565b8151835114610a4b5760405162461bcd60e51b815260040161077790613464565b6001600160a01b038416610a715760405162461bcd60e51b815260040161077790613392565b6001600160a01b038516331480610a8d5750610a8d8533610688565b610af45760405162461bcd60e51b815260206004820152603260248201527f455243313135353a207472616e736665722063616c6c6572206973206e6f74206044820152711bdddb995c881b9bdc88185c1c1c9bdd995960721b6064820152608401610777565b3360005b8451811015610cb1576000858281518110610b2357634e487b7160e01b600052603260045260246000fd5b602002602001015190506000858381518110610b4f57634e487b7160e01b600052603260045260246000fd5b60209081029190910181015160008481526001835260408082206001600160a01b038e168352909352919091205490915081811015610ba05760405162461bcd60e51b81526004016107779061341a565b610baa8282613554565b6001600085815260200190815260200160002060008c6001600160a01b03166001600160a01b0316815260200190815260200160002081905550816001600085815260200190815260200160002060008b6001600160a01b03166001600160a01b031681526020019081526020016000206000828254610c2a91906134d0565b90915550506001600160a01b0389166000908152602081905260409020610c519084611ebe565b5060008381526001602090815260408083206001600160a01b038e168452909152902054610c9d576001600160a01b038a166000908152602081905260409020610c9b9084611eca565b505b50505080610caa906135f8565b9050610af8565b50846001600160a01b0316866001600160a01b0316826001600160a01b03167f4a39dc06d4c0dbc64b70af90fd698a233a518aa5d07e595d983b8c0526c8f7fb8787604051610d01929190613242565b60405180910390a4610d17818787878787611ed6565b505050505050565b6001600160a01b0382166000908152602081905260408120610d419083612041565b9392505050565b6000828152600960205260408120600201805483908110610d7957634e487b7160e01b600052603260045260246000fd5b90600052602060002090600891828204019190066004029054906101000a900463ffffffff16905092915050565b6001600160a01b03811660009081526020819052604081206107f79061204d565b60608151835114610e2d5760405162461bcd60e51b815260206004820152602960248201527f455243313135353a206163636f756e747320616e6420696473206c656e677468604482015268040dad2e6dac2e8c6d60bb1b6064820152608401610777565b6000835167ffffffffffffffff811115610e5757634e487b7160e01b600052604160045260246000fd5b604051908082528060200260200182016040528015610e80578160200160208202803683370190505b50905060005b8451811015610f2257610ee7858281518110610eb257634e487b7160e01b600052603260045260246000fd5b6020026020010151858381518110610eda57634e487b7160e01b600052603260045260246000fd5b602002602001015161070f565b828281518110610f0757634e487b7160e01b600052603260045260246000fd5b6020908102919091010152610f1b816135f8565b9050610e86565b509392505050565b600082815260096020526040808220815160c0810190925280548392919082908290610f5590613590565b80601f0160208091040260200160405190810160405280929190818152602001828054610f8190613590565b8015610fce5780601f10610fa357610100808354040283529160200191610fce565b820191906000526020600020905b815481529060010190602001808311610fb157829003601f168201915b50505050508152602001600182015481526020016002820180548060200260200160405190810160405280929190818152602001828054801561105c57602002820191906000526020600020906000905b82829054906101000a900463ffffffff1663ffffffff168152602001906004019060208260030104928301926001038202915080841161101f5790505b505050918352505060038201546001600160a01b031660208201526004820154604082015260059091015460609091015290506110998184612057565b5060008481526009602052604081206004018054600192906110bc9084906134d0565b925050819055506001601460008282546110d691906134d0565b909155505060125460008581526009602052604090206004015411156111115760008481526009602052604090206004015460125560118490555b611123336006548661082e91906134d0565b5060019392505050565b600081611142338560065461028691906134d0565b10156111a25760405162461bcd60e51b815260206004820152602960248201527f596f7520646f6e277420686176652074686174206d616e79206f662074686f736044820152686520746f206561742160b81b6064820152608401610777565b60008381526009602090815260408083206002018054825181850281018501909352808352919290919083018282801561122757602002820191906000526020600020906000905b82829054906101000a900463ffffffff1663ffffffff16815260200190600401906020826003010492830192600103820291508084116111ea5790505b50505050509050600080600090505b82518110156112865782818151811061125f57634e487b7160e01b600052603260045260246000fd5b60200260200101518261127291906134e8565b91508061127e816135f8565b915050611236565b5060006006548661129791906134d0565b90506112a433828761243f565b60008681526009602052604081206005018054600192906112c69084906134d0565b909155506112dc90508563ffffffff8416613535565b336000908152600a6020526040812080549091906112fb9084906134d0565b9091555050600e54336000908152600a6020526040902054111561134157600f80546001600160a01b031916339081179091556000908152600a6020526040902054600e555b50505092915050565b6000611356338361070f565b6001146113755760405162461bcd60e51b81526004016107779061330f565b61137e82611be0565b506113876107ff565b5060008281526007602052604080822080546013548452918320805468ffffffff00000000001916600160281b9384900463ffffffff1690930292909217909155908390528054600191906004906113eb908490640100000000900460ff16613510565b92506101000a81548160ff021916908360ff16021790555060019050919050565b336001600160a01b03831614156114775760405162461bcd60e51b815260206004820152602960248201527f455243313135353a2073657474696e6720617070726f76616c20737461747573604482015268103337b91039b2b63360b91b6064820152608401610777565b3360008181526002602090815260408083206001600160a01b0387168085529252909120805460ff1916841515179055906001600160a01b03167f17307eab39ab6107e8899845ad3d59bd9653f200f220920489ca2b5937696c31836040516114e4911515815260200190565b60405180910390a35050565b336000908152600b602052604090205460ff16156115805760405162461bcd60e51b815260206004820152604160248201527f596f752061726520616c726561647920696e207468652062616b6572792c206560448201527f69746865722077616974206f72207475726e206175746f2066656564206f66666064820152602160f81b608482015260a401610777565b336000908152600860205260409020544263ffffffff909116106115e65760405162461bcd60e51b815260206004820152601b60248201527f596f7520646964207468697320616c726561647920746f6461792100000000006044820152606401610777565b61160433600554606460405180602001604052806000815250611d98565b60646010600082825461161791906134d0565b909155505060045461162f9063ffffffff16426134d0565b336000908152600860205260409020805463ffffffff191663ffffffff92909216919091179055565b6000600a835111156116bc5760405162461bcd60e51b815260206004820152602760248201527f596f752063616e206f6e6c79206861766520757020746f20313020696e6772656044820152666469656e74732160c81b6064820152608401610777565b6040805160c0810182528681526020810186905290810184905233606082015260006080820181905260a08201526116f48184612057565b5060018160800181815161170891906134d0565b90525060148054600191906000906117219084906134d0565b9250508190555060016015600082825461173b91906134d0565b9091555050601554600654600091611752916134d0565b6015546000908152600960209081526040909120845180519394508593919261178092849290910190612a78565b506020828101516001830155604083015180516117a39260028501920190612afc565b5060608201516003820180546001600160a01b0319166001600160a01b03909216919091179055608082015160048083019190915560a090920151600590910155601254601554600090815260096020526040902090910154111561181e576015546000818152600960205260409020600401546012556011555b61183a3382600160405180602001604052806000815250611d98565b5060019695505050505050565b6000611853338361070f565b6001146118725760405162461bcd60e51b81526004016107779061330f565b600061187f846032613535565b9050600061188e85600a613535565b905061189a3383611d58565b6118cb3360048054906101000a90046001600160a01b031660055484604051806020016040528060008152506119ab565b336000908152600b60205260409020805460ff191660011790556004546118f89063ffffffff1686613535565b61190290426134d0565b6000858152600760205260409020805463ffffffff60ff60e81b01191663ffffffff9290921691909117600160e81b17905550600191505092915050565b600081815260076020526040812054600160e81b900460ff16151560011461196757600080fd5b60045461197a9063ffffffff16426134d0565b600092835260076020526040909220805463ffffffff60ff60e81b01191663ffffffff939093169290921790915590565b6001600160a01b0384166119d15760405162461bcd60e51b815260040161077790613392565b6001600160a01b0385163314806119ed57506119ed8533610688565b611a4b5760405162461bcd60e51b815260206004820152602960248201527f455243313135353a2063616c6c6572206973206e6f74206f776e6572206e6f7260448201526808185c1c1c9bdd995960ba1b6064820152608401610777565b33611a6b818787611a5b88612588565b611a6488612588565b5050505050565b60008481526001602090815260408083206001600160a01b038a16845290915290205483811015611aae5760405162461bcd60e51b81526004016107779061341a565b611ab88482613554565b60008681526001602090815260408083206001600160a01b038c81168552925280832093909355881681529081208054869290611af69084906134d0565b90915550506001600160a01b0386166000908152602081905260409020611b1d9086611ebe565b5060008581526001602090815260408083206001600160a01b038b168452909152902054611b69576001600160a01b0387166000908152602081905260409020611b679086611eca565b505b856001600160a01b0316876001600160a01b0316836001600160a01b03167fc3d58168c5ae7397731d063d5bbf3d657854427343f4c083240f7aacaa2d0f628888604051611bc1929190918252602082015260400190565b60405180910390a4611bd78288888888886125e1565b50505050505050565b6000611bec338361070f565b600114611c0b5760405162461bcd60e51b81526004016107779061330f565b6000828152600760205260409020544263ffffffff9091161015611c975760405162461bcd60e51b815260206004820152603960248201527f596f757220737461727465722069732064656164212020596f752073686f756c60448201527f6420686176652066656420697420736f6f6e6572203a28202e000000000000006064820152608401610777565b611ca2336032611d58565b600454611cb59063ffffffff16426134d0565b6000838152600760205260409020805463ffffffff191663ffffffff929092169190911790819055600160e81b900460ff1615611cf757600082905260076020525b600082815260076020526040812054611d1d90600160281b900463ffffffff164261356b565b600d5490915063ffffffff9081169082161115611d4f57600d805463ffffffff191663ffffffff8316179055600c8390555b50600192915050565b80611d653360055461070f565b1015611d7057600080fd5b611d7d826005548361243f565b8060106000828254611d8f9190613554565b90915550505050565b6001600160a01b038416611df85760405162461bcd60e51b815260206004820152602160248201527f455243313135353a206d696e7420746f20746865207a65726f206164647265736044820152607360f81b6064820152608401610777565b33611e0981600087611a5b88612588565b60008481526001602090815260408083206001600160a01b038916845290915281208054859290611e3b9084906134d0565b90915550506001600160a01b0385166000908152602081905260409020611e629085611ebe565b5060408051858152602081018590526001600160a01b0380881692600092918516917fc3d58168c5ae7397731d063d5bbf3d657854427343f4c083240f7aacaa2d0f62910160405180910390a4611a64816000878787876125e1565b6000610d4183836126ab565b6000610d4183836126fa565b6001600160a01b0384163b15610d175760405163bc197c8160e01b81526001600160a01b0385169063bc197c8190611f1a908990899088908890889060040161318c565b602060405180830381600087803b158015611f3457600080fd5b505af1925050508015611f64575060408051601f3d908101601f19168201909252611f6191810190612f5e565b60015b61201157611f7061363f565b806308c379a01415611faa5750611f85613656565b80611f905750611fac565b8060405162461bcd60e51b81526004016107779190613270565b505b60405162461bcd60e51b815260206004820152603460248201527f455243313135353a207472616e7366657220746f206e6f6e20455243313135356044820152732932b1b2b4bb32b91034b6b83632b6b2b73a32b960611b6064820152608401610777565b6001600160e01b0319811663bc197c8160e01b14611bd75760405162461bcd60e51b815260040161077790613283565b6000610d418383612811565b60006107f7825490565b6000826020015161206a3360055461070f565b10156120cb5760405162461bcd60e51b815260206004820152602a60248201527f596f7520646f6e2774206861766520656e6f75676820464c4f555220746f2062604482015269616b652074686174212160b01b6064820152608401610777565b60408301515160008167ffffffffffffffff8111156120fa57634e487b7160e01b600052604160045260246000fd5b604051908082528060200260200182016040528015612123578160200160208202803683370190505b5090508351856040015151146121a15760405162461bcd60e51b815260206004820152603c60248201527f596f7520686176656e277420616464656420746865207269676874206e756d6260448201527f6572206f6620737461727465727320746f2074686520626174636821000000006064820152608401610777565b60005b85604001515181101561241a576000600760008784815181106121d757634e487b7160e01b600052603260045260246000fd5b60209081029190910181015182528101919091526040016000205461220990600160281b900463ffffffff1642613554565b90508660400151828151811061222f57634e487b7160e01b600052603260045260246000fd5b602002602001015163ffffffff168163ffffffff16116122d15760405162461bcd60e51b815260206004820152605160248201527f596f757220737461727465727320617265206e6f74206f6c6420656e6f75676860448201527f2c20706c65617365207573652074686520737461727465727320726571756972606482015270656420627920746869732072656369706560781b608482015260a401610777565b42600760008885815181106122f657634e487b7160e01b600052603260045260246000fd5b60209081029190910181015182528101919091526040016000205463ffffffff1610156123975760405162461bcd60e51b815260206004820152604360248201527f596f757220737461727465727320617265206e6f7420616c6c20616c6976652c60448201527f20796f75206d757374207573652061206c6976696e6720696e6772656469656e60648201526274212160e81b608482015260a401610777565b6123bb33878481518110610eda57634e487b7160e01b600052603260045260246000fd5b6001146123da5760405162461bcd60e51b81526004016107779061330f565b60018383815181106123fc57634e487b7160e01b600052603260045260246000fd5b60209081029190910101525080612412816135f8565b9150506121a4565b506124263385836128a5565b612434338660200151611d58565b506001949350505050565b6001600160a01b0383166124655760405162461bcd60e51b8152600401610777906133d7565b336124958185600061247687612588565b61247f87612588565b5050604080516020810190915260009052505050565b60008381526001602090815260408083206001600160a01b0388168452909152902054828110156124d85760405162461bcd60e51b8152600401610777906132cb565b60006124e48483613554565b60008681526001602090815260408083206001600160a01b038b1684529091529020819055905080612534576001600160a01b03861660009081526020819052604090206125329086611eca565b505b60408051868152602081018690526000916001600160a01b0389811692908716917fc3d58168c5ae7397731d063d5bbf3d657854427343f4c083240f7aacaa2d0f62910160405180910390a4505050505050565b604080516001808252818301909252606091600091906020808301908036833701905050905082816000815181106125d057634e487b7160e01b600052603260045260246000fd5b602090810291909101015292915050565b6001600160a01b0384163b15610d175760405163f23a6e6160e01b81526001600160a01b0385169063f23a6e619061262590899089908890889088906004016131ea565b602060405180830381600087803b15801561263f57600080fd5b505af192505050801561266f575060408051601f3d908101601f1916820190925261266c91810190612f5e565b60015b61267b57611f7061363f565b6001600160e01b0319811663f23a6e6160e01b14611bd75760405162461bcd60e51b815260040161077790613283565b60008181526001830160205260408120546126f2575081546001818101845560008481526020808220909301849055845484825282860190935260409020919091556107a5565b5060006107a5565b6000818152600183016020526040812054801561280757600061271e600183613554565b855490915060009061273290600190613554565b9050600086600001828154811061275957634e487b7160e01b600052603260045260246000fd5b906000526020600020015490508087600001848154811061278a57634e487b7160e01b600052603260045260246000fd5b6000918252602080832090910192909255828152600189019091526040902084905586548790806127cb57634e487b7160e01b600052603160045260246000fd5b600190038181906000526020600020016000905590558660010160008781526020019081526020016000206000905560019450505050506107a5565b60009150506107a5565b8154600090821061286f5760405162461bcd60e51b815260206004820152602260248201527f456e756d657261626c655365743a20696e646578206f7574206f6620626f756e604482015261647360f01b6064820152608401610777565b82600001828154811061289257634e487b7160e01b600052603260045260246000fd5b9060005260206000200154905092915050565b6001600160a01b0383166128cb5760405162461bcd60e51b8152600401610777906133d7565b80518251146128ec5760405162461bcd60e51b815260040161077790613464565b604080516020810190915260009081905233905b8351811015612a1957600084828151811061292b57634e487b7160e01b600052603260045260246000fd5b60200260200101519050600084838151811061295757634e487b7160e01b600052603260045260246000fd5b60209081029190910181015160008481526001835260408082206001600160a01b038c16835290935291822054909250906129928383613554565b9050828210156129b45760405162461bcd60e51b8152600401610777906132cb565b60008481526001602090815260408083206001600160a01b038d168452909152902081905580612a02576001600160a01b0389166000908152602081905260409020612a009085611eca565b505b505050508080612a11906135f8565b915050612900565b5060006001600160a01b0316846001600160a01b0316826001600160a01b03167f4a39dc06d4c0dbc64b70af90fd698a233a518aa5d07e595d983b8c0526c8f7fb8686604051612a6a929190613242565b60405180910390a450505050565b828054612a8490613590565b90600052602060002090601f016020900481019282612aa65760008555612aec565b82601f10612abf57805160ff1916838001178555612aec565b82800160010185558215612aec579182015b82811115612aec578251825591602001919060010190612ad1565b50612af8929150612ba2565b5090565b82805482825590600052602060002090600701600890048101928215612aec5791602002820160005b83821115612b6957835183826101000a81548163ffffffff021916908363ffffffff1602179055509260200192600401602081600301049283019260010302612b25565b8015612b995782816101000a81549063ffffffff0219169055600401602081600301049283019260010302612b69565b5050612af89291505b5b80821115612af85760008155600101612ba3565b600067ffffffffffffffff831115612bd157612bd1613629565b604051612be8601f8501601f1916602001826135cb565b809150838152848484011115612bfd57600080fd5b83836020830137600060208583010152509392505050565b80356001600160a01b03811681146107fa57600080fd5b600082601f830112612c3c578081fd5b81356020612c49826134ac565b604051612c5682826135cb565b8381528281019150858301600585901b87018401881015612c75578586fd5b855b85811015612c9357813584529284019290840190600101612c77565b5090979650505050505050565b600082601f830112612cb0578081fd5b610d4183833560208501612bb7565b600060208284031215612cd0578081fd5b610d4182612c15565b60008060408385031215612ceb578081fd5b612cf483612c15565b9150612d0260208401612c15565b90509250929050565b600080600080600060a08688031215612d22578081fd5b612d2b86612c15565b9450612d3960208701612c15565b9350604086013567ffffffffffffffff80821115612d55578283fd5b612d6189838a01612c2c565b94506060880135915080821115612d76578283fd5b612d8289838a01612c2c565b93506080880135915080821115612d97578283fd5b50612da488828901612ca0565b9150509295509295909350565b600080600080600060a08688031215612dc8578081fd5b612dd186612c15565b9450612ddf60208701612c15565b93506040860135925060608601359150608086013567ffffffffffffffff811115612e08578182fd5b612da488828901612ca0565b60008060408385031215612e26578182fd5b612e2f83612c15565b915060208301358015158114612e43578182fd5b809150509250929050565b60008060408385031215612e60578081fd5b612e6983612c15565b946020939093013593505050565b60008060408385031215612e89578182fd5b823567ffffffffffffffff80821115612ea0578384fd5b818501915085601f830112612eb3578384fd5b81356020612ec0826134ac565b604051612ecd82826135cb565b8381528281019150858301600585901b870184018b1015612eec578889fd5b8896505b84871015612f1557612f0181612c15565b835260019690960195918301918301612ef0565b5096505086013592505080821115612f2b578283fd5b50612f3885828601612c2c565b9150509250929050565b600060208284031215612f53578081fd5b8135610d41816136e8565b600060208284031215612f6f578081fd5b8151610d41816136e8565b60008060008060808587031215612f8f578182fd5b843567ffffffffffffffff80821115612fa6578384fd5b818701915087601f830112612fb9578384fd5b6020612fc9898435838601612bb7565b96508088013595506040880135925081831115612fe4578485fd5b828801925088601f840112612ff7578485fd5b8235613002816134ac565b60405161300f82826135cb565b8281528381019150858401600584901b870185018d101561302e578889fd5b8896505b8387101561306157803563ffffffff8116811461304d57898afd5b835260019690960195918401918401613032565b509650505050606087013591508082111561307a578283fd5b5061308787828801612c2c565b91505092959194509250565b6000602082840312156130a4578081fd5b5035919050565b600080604083850312156130bd578182fd5b82359150602083013567ffffffffffffffff8111156130da578182fd5b612f3885828601612c2c565b600080604083850312156130f8578182fd5b50508035926020909101359150565b6000815180845260208085019450808401835b838110156131365781518752958201959082019060010161311a565b509495945050505050565b60008151808452815b818110156131665760208185018101518683018201520161314a565b818111156131775782602083870101525b50601f01601f19169290920160200192915050565b6001600160a01b0386811682528516602082015260a0604082018190526000906131b890830186613107565b82810360608401526131ca8186613107565b905082810360808401526131de8185613141565b98975050505050505050565b6001600160a01b03868116825285166020820152604081018490526060810183905260a06080820181905260009061322490830184613141565b979650505050505050565b600060208252610d416020830184613107565b6000604082526132556040830185613107565b82810360208401526132678185613107565b95945050505050565b600060208252610d416020830184613141565b60208082526028908201527f455243313135353a204552433131353552656365697665722072656a656374656040820152676420746f6b656e7360c01b606082015260800190565b60208082526024908201527f455243313135353a206275726e20616d6f756e7420657863656564732062616c604082015263616e636560e01b606082015260800190565b60208082526057908201527f54686973204964206e756d626572206973206e6f74206173736f63696174656460408201527f2077697468206f6e65206f6620796f75722073746172746572732c20706c656160608201527f736520747279207769746820612076616c69642069642e000000000000000000608082015260a00190565b60208082526025908201527f455243313135353a207472616e7366657220746f20746865207a65726f206164604082015264647265737360d81b606082015260800190565b60208082526023908201527f455243313135353a206275726e2066726f6d20746865207a65726f206164647260408201526265737360e81b606082015260800190565b6020808252602a908201527f455243313135353a20696e73756666696369656e742062616c616e636520666f60408201526939103a3930b739b332b960b11b606082015260800190565b60208082526028908201527f455243313135353a2069647320616e6420616d6f756e7473206c656e677468206040820152670dad2e6dac2e8c6d60c31b606082015260800190565b600067ffffffffffffffff8211156134c6576134c6613629565b5060051b60200190565b600082198211156134e3576134e3613613565b500190565b600063ffffffff80831681851680830382111561350757613507613613565b01949350505050565b600060ff821660ff84168060ff0382111561352d5761352d613613565b019392505050565b600081600019048311821515161561354f5761354f613613565b500290565b60008282101561356657613566613613565b500390565b600063ffffffff8381169083168181101561358857613588613613565b039392505050565b600181811c908216806135a457607f821691505b602082108114156135c557634e487b7160e01b600052602260045260246000fd5b50919050565b601f8201601f1916810167ffffffffffffffff811182821017156135f1576135f1613629565b6040525050565b600060001982141561360c5761360c613613565b5060010190565b634e487b7160e01b600052601160045260246000fd5b634e487b7160e01b600052604160045260246000fd5b600060033d111561097657600481823e5160e01c90565b600060443d101561366657610976565b6040516003193d81016004833e81513d67ffffffffffffffff8160248401118184111715613698575050505050610976565b82850191508151818111156136b257505050505050610976565b843d87010160208285010111156136ce57505050505050610976565b6136dd602082860101876135cb565b509094505050505090565b6001600160e01b0319811681146136fe57600080fd5b5056fea2646970667358221220e6c9a215ada1cbc4f6f18be4983ee9c2f933636b9d6cc3f29c78eebf733d992564736f6c63430008030033","bytecodeSha1":"809efe08e295dbc0ef3296da5315685b32852db1","compiler":{"evm_version":"istanbul","optimizer":{"enabled":true,"runs":200},"version":"0.8.3+commit.8d00100c"},"contractName":"Cafe","language":"Solidity","natspec":{"kind":"dev","methods":{"bakeExistingRecipe(uint256,uint256[])":{"details":"Takes the id of an existing recipe and a batch of ingredients.  Burns the batch and the required flour, mints an item with the recipe Id "},"balanceOf(address,uint256)":{"details":"See {IERC1155-balanceOf}. Requirements: - `account` cannot be the zero address."},"balanceOfBatch(address[],uint256[])":{"details":"See {IERC1155-balanceOfBatch}. Requirements: - `accounts` and `ids` must have the same length."},"createStarter()":{"details":"Makes a new nonfungible starter with age attributes by burning 50 FLOUR "},"eatBakedGood(uint256,uint256)":{"details":"Burns an item, credits the player with a score equivalent to the total age of all ingredients "},"feedStarter(uint256)":{"details":"Burns 50 FLOUR and resets the time of death for your token"},"grindFlour()":{"details":"Credits the user 100 FLOUR every 24 hours if submitted"},"isApprovedForAll(address,address)":{"details":"See {IERC1155-isApprovedForAll}."},"publishNewRecipe(string,uint256,uint32[],uint256[])":{"details":"Bakes and publishes a recipe that does not yet exist "},"safeBatchTransferFrom(address,address,uint256[],uint256[],bytes)":{"details":"See {IERC1155-safeBatchTransferFrom}."},"safeTransferFrom(address,address,uint256,uint256,bytes)":{"details":"See {IERC1155-safeTransferFrom}."},"setApprovalForAll(address,bool)":{"details":"See {IERC1155-setApprovalForAll}."},"splitStarter(uint256)":{"details":"Feeds and duplicates your starter, returning another with identical age - costs 100 FLOUR "},"supportsInterface(bytes4)":{"details":"See {IERC165-supportsInterface}."},"uri(uint256)":{"details":"See {IERC1155MetadataURI-uri}. This implementation returns the same URI for *all* token types. It relies on the token type ID substitution mechanism https://eips.ethereum.org/EIPS/eip-1155#metadata[defined in the EIP]. Clients calling this function must replace the `\\{id\\}` substring with the actual token type ID."}},"stateVariables":{"devAddress":{"details":"flourId denotes the id of the fungible FLOUR token dividerIndex separates semi-fungible starter ingredients and semi-fungible baked goods grindCooldown determine whether or not an address can grind flour"},"oldestStarterId":{"details":"total stats"}},"version":1},"opcodes":"PUSH1 0x80 PUSH1 0x40 MSTORE CALLVALUE DUP1 ISZERO PUSH2 0x10 JUMPI PUSH1 0x0 DUP1 REVERT JUMPDEST POP PUSH1 0x4 CALLDATASIZE LT PUSH2 0x273 JUMPI PUSH1 0x0 CALLDATALOAD PUSH1 0xE0 SHR DUP1 PUSH4 0x7985781F GT PUSH2 0x151 JUMPI DUP1 PUSH4 0xB172DECC GT PUSH2 0xC3 JUMPI DUP1 PUSH4 0xE085C539 GT PUSH2 0x87 JUMPI DUP1 PUSH4 0xE085C539 EQ PUSH2 0x651 JUMPI DUP1 PUSH4 0xE985E9C5 EQ PUSH2 0x67A JUMPI DUP1 PUSH4 0xF242432A EQ PUSH2 0x6B6 JUMPI DUP1 PUSH4 0xF6D989F2 EQ PUSH2 0x6C9 JUMPI DUP1 PUSH4 0xF71ED3B8 EQ PUSH2 0x6D2 JUMPI DUP1 PUSH4 0xFC4F816C EQ PUSH2 0x6FC JUMPI PUSH2 0x273 JUMP JUMPDEST DUP1 PUSH4 0xB172DECC EQ PUSH2 0x5E6 JUMPI DUP1 PUSH4 0xC889D089 EQ PUSH2 0x5F9 JUMPI DUP1 PUSH4 0xC8CF79D9 EQ PUSH2 0x602 JUMPI DUP1 PUSH4 0xD4D3C09C EQ PUSH2 0x615 JUMPI DUP1 PUSH4 0xD682D87A EQ PUSH2 0x625 JUMPI PUSH2 0x273 JUMP JUMPDEST DUP1 PUSH4 0xA22CB465 GT PUSH2 0x115 JUMPI DUP1 PUSH4 0xA22CB465 EQ PUSH2 0x576 JUMPI DUP1 PUSH4 0xA30B4DB9 EQ PUSH2 0x589 JUMPI DUP1 PUSH4 0xA3486758 EQ PUSH2 0x5B9 JUMPI DUP1 PUSH4 0xA41E1C17 EQ PUSH2 0x5C1 JUMPI DUP1 PUSH4 0xA73ADBC6 EQ PUSH2 0x5D4 JUMPI DUP1 PUSH4 0xAB5E9E8E EQ PUSH2 0x5DD JUMPI PUSH2 0x273 JUMP JUMPDEST DUP1 PUSH4 0x7985781F EQ PUSH2 0x494 JUMPI DUP1 PUSH4 0x7A77AF5C EQ PUSH2 0x4C3 JUMPI DUP1 PUSH4 0x7F8315CD EQ PUSH2 0x500 JUMPI DUP1 PUSH4 0x976C39BE EQ PUSH2 0x526 JUMPI DUP1 PUSH4 0x97EC23CB EQ PUSH2 0x549 JUMPI PUSH2 0x273 JUMP JUMPDEST DUP1 PUSH4 0x3AD10EF6 GT PUSH2 0x1EA JUMPI DUP1 PUSH4 0x5AAB8E2F GT PUSH2 0x1AE JUMPI DUP1 PUSH4 0x5AAB8E2F EQ PUSH2 0x430 JUMPI DUP1 PUSH4 0x5C2C894A EQ PUSH2 0x439 JUMPI DUP1 PUSH4 0x6510989C EQ PUSH2 0x442 JUMPI DUP1 PUSH4 0x69C13E8B EQ PUSH2 0x455 JUMPI DUP1 PUSH4 0x70B5E7B0 EQ PUSH2 0x45E JUMPI DUP1 PUSH4 0x781F1B75 EQ PUSH2 0x481 JUMPI PUSH2 0x273 JUMP JUMPDEST DUP1 PUSH4 0x3AD10EF6 EQ PUSH2 0x3A4 JUMPI DUP1 PUSH4 0x40EEDABB EQ PUSH2 0x3D7 JUMPI DUP1 PUSH4 0x42DA6F9C EQ PUSH2 0x3EA JUMPI DUP1 PUSH4 0x4E1273F4 EQ PUSH2 0x3FD JUMPI DUP1 PUSH4 0x4F41393B EQ PUSH2 0x41D JUMPI PUSH2 0x273 JUMP JUMPDEST DUP1 PUSH4 0x2A316CDF GT PUSH2 0x23C JUMPI DUP1 PUSH4 0x2A316CDF EQ PUSH2 0x2FC JUMPI DUP1 PUSH4 0x2B944DDF EQ PUSH2 0x31F JUMPI DUP1 PUSH4 0x2EB2C2D6 EQ PUSH2 0x328 JUMPI DUP1 PUSH4 0x2F745C59 EQ PUSH2 0x33D JUMPI DUP1 PUSH4 0x34B7FA22 EQ PUSH2 0x350 JUMPI DUP1 PUSH4 0x36FF4C95 EQ PUSH2 0x378 JUMPI PUSH2 0x273 JUMP JUMPDEST DUP1 PUSH3 0xFDD58E EQ PUSH2 0x278 JUMPI DUP1 PUSH4 0x1FFC9A7 EQ PUSH2 0x29E JUMPI DUP1 PUSH4 0x7047482 EQ PUSH2 0x2C1 JUMPI DUP1 PUSH4 0xE89341C EQ PUSH2 0x2C9 JUMPI DUP1 PUSH4 0x1269CA40 EQ PUSH2 0x2E9 JUMPI JUMPDEST PUSH1 0x0 DUP1 REVERT JUMPDEST PUSH2 0x28B PUSH2 0x286 CALLDATASIZE PUSH1 0x4 PUSH2 0x2E4E JUMP JUMPDEST PUSH2 0x70F JUMP JUMPDEST PUSH1 0x40 MLOAD SWAP1 DUP2 MSTORE PUSH1 0x20 ADD JUMPDEST PUSH1 0x40 MLOAD DUP1 SWAP2 SUB SWAP1 RETURN JUMPDEST PUSH2 0x2B1 PUSH2 0x2AC CALLDATASIZE PUSH1 0x4 PUSH2 0x2F42 JUMP JUMPDEST PUSH2 0x7AB JUMP JUMPDEST PUSH1 0x40 MLOAD SWAP1 ISZERO ISZERO DUP2 MSTORE PUSH1 0x20 ADD PUSH2 0x295 JUMP JUMPDEST PUSH2 0x2B1 PUSH2 0x7FF JUMP JUMPDEST PUSH2 0x2DC PUSH2 0x2D7 CALLDATASIZE PUSH1 0x4 PUSH2 0x3093 JUMP JUMPDEST PUSH2 0x979 JUMP JUMPDEST PUSH1 0x40 MLOAD PUSH2 0x295 SWAP2 SWAP1 PUSH2 0x3270 JUMP JUMPDEST PUSH2 0x2DC PUSH2 0x2F7 CALLDATASIZE PUSH1 0x4 PUSH2 0x3093 JUMP JUMPDEST PUSH2 0xA0D JUMP JUMPDEST PUSH2 0x28B PUSH2 0x30A CALLDATASIZE PUSH1 0x4 PUSH2 0x3093 JUMP JUMPDEST PUSH1 0x0 SWAP1 DUP2 MSTORE PUSH1 0x9 PUSH1 0x20 MSTORE PUSH1 0x40 SWAP1 KECCAK256 PUSH1 0x1 ADD SLOAD SWAP1 JUMP JUMPDEST PUSH2 0x28B PUSH1 0x13 SLOAD DUP2 JUMP JUMPDEST PUSH2 0x33B PUSH2 0x336 CALLDATASIZE PUSH1 0x4 PUSH2 0x2D0B JUMP JUMPDEST PUSH2 0xA2A JUMP JUMPDEST STOP JUMPDEST PUSH2 0x28B PUSH2 0x34B CALLDATASIZE PUSH1 0x4 PUSH2 0x2E4E JUMP JUMPDEST PUSH2 0xD1F JUMP JUMPDEST PUSH2 0x363 PUSH2 0x35E CALLDATASIZE PUSH1 0x4 PUSH2 0x30E6 JUMP JUMPDEST PUSH2 0xD48 JUMP JUMPDEST PUSH1 0x40 MLOAD PUSH4 0xFFFFFFFF SWAP1 SWAP2 AND DUP2 MSTORE PUSH1 0x20 ADD PUSH2 0x295 JUMP JUMPDEST PUSH2 0x2B1 PUSH2 0x386 CALLDATASIZE PUSH1 0x4 PUSH2 0x2CBF JUMP JUMPDEST PUSH1 0x1 PUSH1 0x1 PUSH1 0xA0 SHL SUB AND PUSH1 0x0 SWAP1 DUP2 MSTORE PUSH1 0xB PUSH1 0x20 MSTORE PUSH1 0x40 SWAP1 KECCAK256 SLOAD PUSH1 0xFF AND SWAP1 JUMP JUMPDEST PUSH1 0x4 SLOAD PUSH2 0x3BF SWAP1 PUSH5 0x100000000 SWAP1 DIV PUSH1 0x1 PUSH1 0x1 PUSH1 0xA0 SHL SUB AND DUP2 JUMP JUMPDEST PUSH1 0x40 MLOAD PUSH1 0x1 PUSH1 0x1 PUSH1 0xA0 SHL SUB SWAP1 SWAP2 AND DUP2 MSTORE PUSH1 0x20 ADD PUSH2 0x295 JUMP JUMPDEST PUSH1 0xF SLOAD PUSH2 0x3BF SWAP1 PUSH1 0x1 PUSH1 0x1 PUSH1 0xA0 SHL SUB AND DUP2 JUMP JUMPDEST PUSH2 0x28B PUSH2 0x3F8 CALLDATASIZE PUSH1 0x4 PUSH2 0x2CBF JUMP JUMPDEST PUSH2 0xDA7 JUMP JUMPDEST PUSH2 0x410 PUSH2 0x40B CALLDATASIZE PUSH1 0x4 PUSH2 0x2E77 JUMP JUMPDEST PUSH2 0xDC8 JUMP JUMPDEST PUSH1 0x40 MLOAD PUSH2 0x295 SWAP2 SWAP1 PUSH2 0x322F JUMP JUMPDEST PUSH2 0x2B1 PUSH2 0x42B CALLDATASIZE PUSH1 0x4 PUSH2 0x30AB JUMP JUMPDEST PUSH2 0xF2A JUMP JUMPDEST PUSH2 0x28B PUSH1 0x11 SLOAD DUP2 JUMP JUMPDEST PUSH2 0x28B PUSH1 0x14 SLOAD DUP2 JUMP JUMPDEST PUSH2 0x2B1 PUSH2 0x450 CALLDATASIZE PUSH1 0x4 PUSH2 0x30E6 JUMP JUMPDEST PUSH2 0x112D JUMP JUMPDEST PUSH2 0x28B PUSH1 0xC SLOAD DUP2 JUMP JUMPDEST PUSH2 0x28B PUSH2 0x46C CALLDATASIZE PUSH1 0x4 PUSH2 0x3093 JUMP JUMPDEST PUSH1 0x0 SWAP1 DUP2 MSTORE PUSH1 0x9 PUSH1 0x20 MSTORE PUSH1 0x40 SWAP1 KECCAK256 PUSH1 0x5 ADD SLOAD SWAP1 JUMP JUMPDEST PUSH2 0x2B1 PUSH2 0x48F CALLDATASIZE PUSH1 0x4 PUSH2 0x3093 JUMP JUMPDEST PUSH2 0x134A JUMP JUMPDEST PUSH2 0x363 PUSH2 0x4A2 CALLDATASIZE PUSH1 0x4 PUSH2 0x2CBF JUMP JUMPDEST PUSH1 0x1 PUSH1 0x1 PUSH1 0xA0 SHL SUB AND PUSH1 0x0 SWAP1 DUP2 MSTORE PUSH1 0x8 PUSH1 0x20 MSTORE PUSH1 0x40 SWAP1 KECCAK256 SLOAD PUSH4 0xFFFFFFFF AND SWAP1 JUMP JUMPDEST PUSH2 0x4EE PUSH2 0x4D1 CALLDATASIZE PUSH1 0x4 PUSH2 0x3093 JUMP JUMPDEST PUSH1 0x0 SWAP1 DUP2 MSTORE PUSH1 0x7 PUSH1 0x20 MSTORE PUSH1 0x40 SWAP1 KECCAK256 SLOAD PUSH5 0x100000000 SWAP1 DIV PUSH1 0xFF AND SWAP1 JUMP JUMPDEST PUSH1 0x40 MLOAD PUSH1 0xFF SWAP1 SWAP2 AND DUP2 MSTORE PUSH1 0x20 ADD PUSH2 0x295 JUMP JUMPDEST PUSH2 0x363 PUSH2 0x50E CALLDATASIZE PUSH1 0x4 PUSH2 0x3093 JUMP JUMPDEST PUSH1 0x0 SWAP1 DUP2 MSTORE PUSH1 0x7 PUSH1 0x20 MSTORE PUSH1 0x40 SWAP1 KECCAK256 SLOAD PUSH4 0xFFFFFFFF AND SWAP1 JUMP JUMPDEST PUSH2 0x28B PUSH2 0x534 CALLDATASIZE PUSH1 0x4 PUSH2 0x3093 JUMP JUMPDEST PUSH1 0x0 SWAP1 DUP2 MSTORE PUSH1 0x9 PUSH1 0x20 MSTORE PUSH1 0x40 SWAP1 KECCAK256 PUSH1 0x4 ADD SLOAD SWAP1 JUMP JUMPDEST PUSH2 0x363 PUSH2 0x557 CALLDATASIZE PUSH1 0x4 PUSH2 0x3093 JUMP JUMPDEST PUSH1 0x0 SWAP1 DUP2 MSTORE PUSH1 0x7 PUSH1 0x20 MSTORE PUSH1 0x40 SWAP1 KECCAK256 SLOAD PUSH1 0x1 PUSH1 0x28 SHL SWAP1 DIV PUSH4 0xFFFFFFFF AND SWAP1 JUMP JUMPDEST PUSH2 0x33B PUSH2 0x584 CALLDATASIZE PUSH1 0x4 PUSH2 0x2E14 JUMP JUMPDEST PUSH2 0x140C JUMP JUMPDEST PUSH2 0x3BF PUSH2 0x597 CALLDATASIZE PUSH1 0x4 PUSH2 0x3093 JUMP JUMPDEST PUSH1 0x0 SWAP1 DUP2 MSTORE PUSH1 0x7 PUSH1 0x20 MSTORE PUSH1 0x40 SWAP1 KECCAK256 SLOAD PUSH1 0x1 PUSH1 0x48 SHL SWAP1 DIV PUSH1 0x1 PUSH1 0x1 PUSH1 0xA0 SHL SUB AND SWAP1 JUMP JUMPDEST PUSH2 0x33B PUSH2 0x14F0 JUMP JUMPDEST PUSH2 0x2B1 PUSH2 0x5CF CALLDATASIZE PUSH1 0x4 PUSH2 0x2F7A JUMP JUMPDEST PUSH2 0x1658 JUMP JUMPDEST PUSH2 0x28B PUSH1 0xE SLOAD DUP2 JUMP JUMPDEST PUSH2 0x28B PUSH1 0x12 SLOAD DUP2 JUMP JUMPDEST PUSH2 0x2B1 PUSH2 0x5F4 CALLDATASIZE PUSH1 0x4 PUSH2 0x30E6 JUMP JUMPDEST PUSH2 0x1847 JUMP JUMPDEST PUSH2 0x28B PUSH1 0x10 SLOAD DUP2 JUMP JUMPDEST PUSH2 0x2B1 PUSH2 0x610 CALLDATASIZE PUSH1 0x4 PUSH2 0x3093 JUMP JUMPDEST PUSH2 0x1940 JUMP JUMPDEST PUSH1 0xD SLOAD PUSH2 0x363 SWAP1 PUSH4 0xFFFFFFFF AND DUP2 JUMP JUMPDEST PUSH2 0x3BF PUSH2 0x633 CALLDATASIZE PUSH1 0x4 PUSH2 0x3093 JUMP JUMPDEST PUSH1 0x0 SWAP1 DUP2 MSTORE PUSH1 0x9 PUSH1 0x20 MSTORE PUSH1 0x40 SWAP1 KECCAK256 PUSH1 0x3 ADD SLOAD PUSH1 0x1 PUSH1 0x1 PUSH1 0xA0 SHL SUB AND SWAP1 JUMP JUMPDEST PUSH2 0x28B PUSH2 0x65F CALLDATASIZE PUSH1 0x4 PUSH2 0x2CBF JUMP JUMPDEST PUSH1 0x1 PUSH1 0x1 PUSH1 0xA0 SHL SUB AND PUSH1 0x0 SWAP1 DUP2 MSTORE PUSH1 0xA PUSH1 0x20 MSTORE PUSH1 0x40 SWAP1 KECCAK256 SLOAD SWAP1 JUMP JUMPDEST PUSH2 0x2B1 PUSH2 0x688 CALLDATASIZE PUSH1 0x4 PUSH2 0x2CD9 JUMP JUMPDEST PUSH1 0x1 PUSH1 0x1 PUSH1 0xA0 SHL SUB SWAP2 DUP3 AND PUSH1 0x0 SWAP1 DUP2 MSTORE PUSH1 0x2 PUSH1 0x20 SWAP1 DUP2 MSTORE PUSH1 0x40 DUP1 DUP4 KECCAK256 SWAP4 SWAP1 SWAP5 AND DUP3 MSTORE SWAP2 SWAP1 SWAP2 MSTORE KECCAK256 SLOAD PUSH1 0xFF AND SWAP1 JUMP JUMPDEST PUSH2 0x33B PUSH2 0x6C4 CALLDATASIZE PUSH1 0x4 PUSH2 0x2DB1 JUMP JUMPDEST PUSH2 0x19AB JUMP JUMPDEST PUSH2 0x28B PUSH1 0x15 SLOAD DUP2 JUMP JUMPDEST PUSH2 0x2B1 PUSH2 0x6E0 CALLDATASIZE PUSH1 0x4 PUSH2 0x3093 JUMP JUMPDEST PUSH1 0x0 SWAP1 DUP2 MSTORE PUSH1 0x7 PUSH1 0x20 MSTORE PUSH1 0x40 SWAP1 KECCAK256 SLOAD PUSH1 0x1 PUSH1 0xE8 SHL SWAP1 DIV PUSH1 0xFF AND SWAP1 JUMP JUMPDEST PUSH2 0x2B1 PUSH2 0x70A CALLDATASIZE PUSH1 0x4 PUSH2 0x3093 JUMP JUMPDEST PUSH2 0x1BE0 JUMP JUMPDEST PUSH1 0x0 PUSH1 0x1 PUSH1 0x1 PUSH1 0xA0 SHL SUB DUP4 AND PUSH2 0x780 JUMPI PUSH1 0x40 MLOAD PUSH3 0x461BCD PUSH1 0xE5 SHL DUP2 MSTORE PUSH1 0x20 PUSH1 0x4 DUP3 ADD MSTORE PUSH1 0x2B PUSH1 0x24 DUP3 ADD MSTORE PUSH32 0x455243313135353A2062616C616E636520717565727920666F7220746865207A PUSH1 0x44 DUP3 ADD MSTORE PUSH11 0x65726F2061646472657373 PUSH1 0xA8 SHL PUSH1 0x64 DUP3 ADD MSTORE PUSH1 0x84 ADD JUMPDEST PUSH1 0x40 MLOAD DUP1 SWAP2 SUB SWAP1 REVERT JUMPDEST POP PUSH1 0x0 DUP2 DUP2 MSTORE PUSH1 0x1 PUSH1 0x20 SWAP1 DUP2 MSTORE PUSH1 0x40 DUP1 DUP4 KECCAK256 PUSH1 0x1 PUSH1 0x1 PUSH1 0xA0 SHL SUB DUP7 AND DUP5 MSTORE SWAP1 SWAP2 MSTORE SWAP1 KECCAK256 SLOAD JUMPDEST SWAP3 SWAP2 POP POP JUMP JUMPDEST PUSH1 0x0 PUSH1 0x1 PUSH1 0x1 PUSH1 0xE0 SHL SUB NOT DUP3 AND PUSH4 0x6CDB3D13 PUSH1 0xE1 SHL EQ DUP1 PUSH2 0x7DC JUMPI POP PUSH1 0x1 PUSH1 0x1 PUSH1 0xE0 SHL SUB NOT DUP3 AND PUSH4 0x3A24D07 PUSH1 0xE2 SHL EQ JUMPDEST DUP1 PUSH2 0x7F7 JUMPI POP PUSH4 0x1FFC9A7 PUSH1 0xE0 SHL PUSH1 0x1 PUSH1 0x1 PUSH1 0xE0 SHL SUB NOT DUP4 AND EQ JUMPDEST SWAP1 POP JUMPDEST SWAP2 SWAP1 POP JUMP JUMPDEST PUSH1 0x0 PUSH2 0x80C CALLER PUSH1 0x32 PUSH2 0x1D58 JUMP JUMPDEST PUSH1 0x0 PUSH1 0x13 SLOAD PUSH1 0x1 PUSH2 0x81D SWAP2 SWAP1 PUSH2 0x34D0 JUMP JUMPDEST SWAP1 POP PUSH2 0x845 CALLER PUSH2 0x82E DUP4 PUSH1 0x0 PUSH2 0x34D0 JUMP JUMPDEST PUSH1 0x1 PUSH1 0x40 MLOAD DUP1 PUSH1 0x20 ADD PUSH1 0x40 MSTORE DUP1 PUSH1 0x0 DUP2 MSTORE POP PUSH2 0x1D98 JUMP JUMPDEST PUSH1 0x40 DUP1 MLOAD PUSH1 0xA0 DUP2 ADD SWAP1 SWAP2 MSTORE PUSH1 0x4 SLOAD PUSH1 0x0 SWAP2 SWAP1 DUP2 SWAP1 PUSH2 0x869 SWAP1 PUSH4 0xFFFFFFFF AND TIMESTAMP PUSH2 0x34D0 JUMP JUMPDEST PUSH4 0xFFFFFFFF AND DUP2 MSTORE PUSH1 0x20 ADD PUSH1 0x0 PUSH1 0xFF AND DUP2 MSTORE PUSH1 0x20 ADD TIMESTAMP PUSH4 0xFFFFFFFF AND DUP2 MSTORE PUSH1 0x20 ADD CALLER PUSH1 0x1 PUSH1 0x1 PUSH1 0xA0 SHL SUB AND DUP2 MSTORE PUSH1 0x20 ADD PUSH1 0x0 ISZERO ISZERO DUP2 MSTORE POP SWAP1 POP PUSH1 0x1 PUSH1 0x13 PUSH1 0x0 DUP3 DUP3 SLOAD PUSH2 0x8B5 SWAP2 SWAP1 PUSH2 0x34D0 JUMP JUMPDEST SWAP1 SWAP2 SSTORE POP POP PUSH1 0x0 SWAP2 DUP3 MSTORE PUSH1 0x7 PUSH1 0x20 SWAP1 DUP2 MSTORE PUSH1 0x40 SWAP3 DUP4 SWAP1 KECCAK256 DUP3 MLOAD DUP2 SLOAD SWAP3 DUP5 ADD MLOAD SWAP5 DUP5 ADD MLOAD PUSH1 0x60 DUP6 ADD MLOAD PUSH1 0x80 SWAP1 SWAP6 ADD MLOAD ISZERO ISZERO PUSH1 0x1 PUSH1 0xE8 SHL MUL PUSH1 0xFF PUSH1 0xE8 SHL NOT PUSH1 0x1 PUSH1 0x1 PUSH1 0xA0 SHL SUB SWAP1 SWAP7 AND PUSH1 0x1 PUSH1 0x48 SHL MUL PUSH32 0xFFFFFF0000000000000000000000000000000000000000FFFFFFFFFFFFFFFFFF PUSH4 0xFFFFFFFF SWAP4 DUP5 AND PUSH1 0x1 PUSH1 0x28 SHL MUL AND PUSH6 0x10000000000 PUSH1 0x1 PUSH1 0xE8 SHL SUB NOT PUSH1 0xFF SWAP1 SWAP10 AND PUSH5 0x100000000 MUL PUSH5 0xFFFFFFFFFF NOT SWAP1 SWAP8 AND SWAP4 SWAP1 SWAP5 AND SWAP3 SWAP1 SWAP3 OR SWAP5 SWAP1 SWAP5 OR SWAP6 SWAP1 SWAP6 AND OR SWAP4 SWAP1 SWAP4 OR SWAP2 SWAP1 SWAP2 AND OR SWAP1 SSTORE POP PUSH1 0x1 JUMPDEST SWAP1 JUMP JUMPDEST PUSH1 0x60 PUSH1 0x3 DUP1 SLOAD PUSH2 0x988 SWAP1 PUSH2 0x3590 JUMP JUMPDEST DUP1 PUSH1 0x1F ADD PUSH1 0x20 DUP1 SWAP2 DIV MUL PUSH1 0x20 ADD PUSH1 0x40 MLOAD SWAP1 DUP2 ADD PUSH1 0x40 MSTORE DUP1 SWAP3 SWAP2 SWAP1 DUP2 DUP2 MSTORE PUSH1 0x20 ADD DUP3 DUP1 SLOAD PUSH2 0x9B4 SWAP1 PUSH2 0x3590 JUMP JUMPDEST DUP1 ISZERO PUSH2 0xA01 JUMPI DUP1 PUSH1 0x1F LT PUSH2 0x9D6 JUMPI PUSH2 0x100 DUP1 DUP4 SLOAD DIV MUL DUP4 MSTORE SWAP2 PUSH1 0x20 ADD SWAP2 PUSH2 0xA01 JUMP JUMPDEST DUP3 ADD SWAP2 SWAP1 PUSH1 0x0 MSTORE PUSH1 0x20 PUSH1 0x0 KECCAK256 SWAP1 JUMPDEST DUP2 SLOAD DUP2 MSTORE SWAP1 PUSH1 0x1 ADD SWAP1 PUSH1 0x20 ADD DUP1 DUP4 GT PUSH2 0x9E4 JUMPI DUP3 SWAP1 SUB PUSH1 0x1F AND DUP3 ADD SWAP2 JUMPDEST POP POP POP POP POP SWAP1 POP SWAP2 SWAP1 POP JUMP JUMPDEST PUSH1 0x0 DUP2 DUP2 MSTORE PUSH1 0x9 PUSH1 0x20 MSTORE PUSH1 0x40 SWAP1 KECCAK256 DUP1 SLOAD PUSH1 0x60 SWAP2 SWAP1 PUSH2 0x988 SWAP1 PUSH2 0x3590 JUMP JUMPDEST DUP2 MLOAD DUP4 MLOAD EQ PUSH2 0xA4B JUMPI PUSH1 0x40 MLOAD PUSH3 0x461BCD PUSH1 0xE5 SHL DUP2 MSTORE PUSH1 0x4 ADD PUSH2 0x777 SWAP1 PUSH2 0x3464 JUMP JUMPDEST PUSH1 0x1 PUSH1 0x1 PUSH1 0xA0 SHL SUB DUP5 AND PUSH2 0xA71 JUMPI PUSH1 0x40 MLOAD PUSH3 0x461BCD PUSH1 0xE5 SHL DUP2 MSTORE PUSH1 0x4 ADD PUSH2 0x777 SWAP1 PUSH2 0x3392 JUMP JUMPDEST PUSH1 0x1 PUSH1 0x1 PUSH1 0xA0 SHL SUB DUP6 AND CALLER EQ DUP1 PUSH2 0xA8D JUMPI POP PUSH2 0xA8D DUP6 CALLER PUSH2 0x688 JUMP JUMPDEST PUSH2 0xAF4 JUMPI PUSH1 0x40 MLOAD PUSH3 0x461BCD PUSH1 0xE5 SHL DUP2 MSTORE PUSH1 0x20 PUSH1 0x4 DUP3 ADD MSTORE PUSH1 0x32 PUSH1 0x24 DUP3 ADD MSTORE PUSH32 0x455243313135353A207472616E736665722063616C6C6572206973206E6F7420 PUSH1 0x44 DUP3 ADD MSTORE PUSH18 0x1BDDDB995C881B9BDC88185C1C1C9BDD9959 PUSH1 0x72 SHL PUSH1 0x64 DUP3 ADD MSTORE PUSH1 0x84 ADD PUSH2 0x777 JUMP JUMPDEST CALLER PUSH1 0x0 JUMPDEST DUP5 MLOAD DUP2 LT ISZERO PUSH2 0xCB1 JUMPI PUSH1 0x0 DUP6 DUP3 DUP2 MLOAD DUP2 LT PUSH2 0xB23 JUMPI PUSH4 0x4E487B71 PUSH1 0xE0 SHL PUSH1 0x0 MSTORE PUSH1 0x32 PUSH1 0x4 MSTORE PUSH1 0x24 PUSH1 0x0 REVERT JUMPDEST PUSH1 0x20 MUL PUSH1 0x20 ADD ADD MLOAD SWAP1 POP PUSH1 0x0 DUP6 DUP4 DUP2 MLOAD DUP2 LT PUSH2 0xB4F JUMPI PUSH4 0x4E487B71 PUSH1 0xE0 SHL PUSH1 0x0 MSTORE PUSH1 0x32 PUSH1 0x4 MSTORE PUSH1 0x24 PUSH1 0x0 REVERT JUMPDEST PUSH1 0x20 SWAP1 DUP2 MUL SWAP2 SWAP1 SWAP2 ADD DUP2 ADD MLOAD PUSH1 0x0 DUP5 DUP2 MSTORE PUSH1 0x1 DUP4 MSTORE PUSH1 0x40 DUP1 DUP3 KECCAK256 PUSH1 0x1 PUSH1 0x1 PUSH1 0xA0 SHL SUB DUP15 AND DUP4 MSTORE SWAP1 SWAP4 MSTORE SWAP2 SWAP1 SWAP2 KECCAK256 SLOAD SWAP1 SWAP2 POP DUP2 DUP2 LT ISZERO PUSH2 0xBA0 JUMPI PUSH1 0x40 MLOAD PUSH3 0x461BCD PUSH1 0xE5 SHL DUP2 MSTORE PUSH1 0x4 ADD PUSH2 0x777 SWAP1 PUSH2 0x341A JUMP JUMPDEST PUSH2 0xBAA DUP3 DUP3 PUSH2 0x3554 JUMP JUMPDEST PUSH1 0x1 PUSH1 0x0 DUP6 DUP2 MSTORE PUSH1 0x20 ADD SWAP1 DUP2 MSTORE PUSH1 0x20 ADD PUSH1 0x0 KECCAK256 PUSH1 0x0 DUP13 PUSH1 0x1 PUSH1 0x1 PUSH1 0xA0 SHL SUB AND PUSH1 0x1 PUSH1 0x1 PUSH1 0xA0 SHL SUB AND DUP2 MSTORE PUSH1 0x20 ADD SWAP1 DUP2 MSTORE PUSH1 0x20 ADD PUSH1 0x0 KECCAK256 DUP2 SWAP1 SSTORE POP DUP2 PUSH1 0x1 PUSH1 0x0 DUP6 DUP2 MSTORE PUSH1 0x20 ADD SWAP1 DUP2 MSTORE PUSH1 0x20 ADD PUSH1 0x0 KECCAK256 PUSH1 0x0 DUP12 PUSH1 0x1 PUSH1 0x1 PUSH1 0xA0 SHL SUB AND PUSH1 0x1 PUSH1 0x1 PUSH1 0xA0 SHL SUB AND DUP2 MSTORE PUSH1 0x20 ADD SWAP1 DUP2 MSTORE PUSH1 0x20 ADD PUSH1 0x0 KECCAK256 PUSH1 0x0 DUP3 DUP3 SLOAD PUSH2 0xC2A SWAP2 SWAP1 PUSH2 0x34D0 JUMP JUMPDEST SWAP1 SWAP2 SSTORE POP POP PUSH1 0x1 PUSH1 0x1 PUSH1 0xA0 SHL SUB DUP10 AND PUSH1 0x0 SWAP1 DUP2 MSTORE PUSH1 0x20 DUP2 SWAP1 MSTORE PUSH1 0x40 SWAP1 KECCAK256 PUSH2 0xC51 SWAP1 DUP5 PUSH2 0x1EBE JUMP JUMPDEST POP PUSH1 0x0 DUP4 DUP2 MSTORE PUSH1 0x1 PUSH1 0x20 SWAP1 DUP2 MSTORE PUSH1 0x40 DUP1 DUP4 KECCAK256 PUSH1 0x1 PUSH1 0x1 PUSH1 0xA0 SHL SUB DUP15 AND DUP5 MSTORE SWAP1 SWAP2 MSTORE SWAP1 KECCAK256 SLOAD PUSH2 0xC9D JUMPI PUSH1 0x1 PUSH1 0x1 PUSH1 0xA0 SHL SUB DUP11 AND PUSH1 0x0 SWAP1 DUP2 MSTORE PUSH1 0x20 DUP2 SWAP1 MSTORE PUSH1 0x40 SWAP1 KECCAK256 PUSH2 0xC9B SWAP1 DUP5 PUSH2 0x1ECA JUMP JUMPDEST POP JUMPDEST POP POP POP DUP1 PUSH2 0xCAA SWAP1 PUSH2 0x35F8 JUMP JUMPDEST SWAP1 POP PUSH2 0xAF8 JUMP JUMPDEST POP DUP5 PUSH1 0x1 PUSH1 0x1 PUSH1 0xA0 SHL SUB AND DUP7 PUSH1 0x1 PUSH1 0x1 PUSH1 0xA0 SHL SUB AND DUP3 PUSH1 0x1 PUSH1 0x1 PUSH1 0xA0 SHL SUB AND PUSH32 0x4A39DC06D4C0DBC64B70AF90FD698A233A518AA5D07E595D983B8C0526C8F7FB DUP8 DUP8 PUSH1 0x40 MLOAD PUSH2 0xD01 SWAP3 SWAP2 SWAP1 PUSH2 0x3242 JUMP JUMPDEST PUSH1 0x40 MLOAD DUP1 SWAP2 SUB SWAP1 LOG4 PUSH2 0xD17 DUP2 DUP8 DUP8 DUP8 DUP8 DUP8 PUSH2 0x1ED6 JUMP JUMPDEST POP POP POP POP POP POP JUMP JUMPDEST PUSH1 0x1 PUSH1 0x1 PUSH1 0xA0 SHL SUB DUP3 AND PUSH1 0x0 SWAP1 DUP2 MSTORE PUSH1 0x20 DUP2 SWAP1 MSTORE PUSH1 0x40 DUP2 KECCAK256 PUSH2 0xD41 SWAP1 DUP4 PUSH2 0x2041 JUMP JUMPDEST SWAP4 SWAP3 POP POP POP JUMP JUMPDEST PUSH1 0x0 DUP3 DUP2 MSTORE PUSH1 0x9 PUSH1 0x20 MSTORE PUSH1 0x40 DUP2 KECCAK256 PUSH1 0x2 ADD DUP1 SLOAD DUP4 SWAP1 DUP2 LT PUSH2 0xD79 JUMPI PUSH4 0x4E487B71 PUSH1 0xE0 SHL PUSH1 0x0 MSTORE PUSH1 0x32 PUSH1 0x4 MSTORE PUSH1 0x24 PUSH1 0x0 REVERT JUMPDEST SWAP1 PUSH1 0x0 MSTORE PUSH1 0x20 PUSH1 0x0 KECCAK256 SWAP1 PUSH1 0x8 SWAP2 DUP3 DUP3 DIV ADD SWAP2 SWAP1 MOD PUSH1 0x4 MUL SWAP1 SLOAD SWAP1 PUSH2 0x100 EXP SWAP1 DIV PUSH4 0xFFFFFFFF AND SWAP1 POP SWAP3 SWAP2 POP POP JUMP JUMPDEST PUSH1 0x1 PUSH1 0x1 PUSH1 0xA0 SHL SUB DUP2 AND PUSH1 0x0 SWAP1 DUP2 MSTORE PUSH1 0x20 DUP2 SWAP1 MSTORE PUSH1 0x40 DUP2 KECCAK256 PUSH2 0x7F7 SWAP1 PUSH2 0x204D JUMP JUMPDEST PUSH1 0x60 DUP2 MLOAD DUP4 MLOAD EQ PUSH2 0xE2D JUMPI PUSH1 0x40 MLOAD PUSH3 0x461BCD PUSH1 0xE5 SHL DUP2 MSTORE PUSH1 0x20 PUSH1 0x4 DUP3 ADD MSTORE PUSH1 0x29 PUSH1 0x24 DUP3 ADD MSTORE PUSH32 0x455243313135353A206163636F756E747320616E6420696473206C656E677468 PUSH1 0x44 DUP3 ADD MSTORE PUSH9 0x40DAD2E6DAC2E8C6D PUSH1 0xBB SHL PUSH1 0x64 DUP3 ADD MSTORE PUSH1 0x84 ADD PUSH2 0x777 JUMP JUMPDEST PUSH1 0x0 DUP4 MLOAD PUSH8 0xFFFFFFFFFFFFFFFF DUP2 GT ISZERO PUSH2 0xE57 JUMPI PUSH4 0x4E487B71 PUSH1 0xE0 SHL PUSH1 0x0 MSTORE PUSH1 0x41 PUSH1 0x4 MSTORE PUSH1 0x24 PUSH1 0x0 REVERT JUMPDEST PUSH1 0x40 MLOAD SWAP1 DUP1 DUP3 MSTORE DUP1 PUSH1 0x20 MUL PUSH1 0x20 ADD DUP3 ADD PUSH1 0x40 MSTORE DUP1 ISZERO PUSH2 0xE80 JUMPI DUP2 PUSH1 0x20 ADD PUSH1 0x20 DUP3 MUL DUP1 CALLDATASIZE DUP4 CALLDATACOPY ADD SWAP1 POP JUMPDEST POP SWAP1 POP PUSH1 0x0 JUMPDEST DUP5 MLOAD DUP2 LT ISZERO PUSH2 0xF22 JUMPI PUSH2 0xEE7 DUP6 DUP3 DUP2 MLOAD DUP2 LT PUSH2 0xEB2 JUMPI PUSH4 0x4E487B71 PUSH1 0xE0 SHL PUSH1 0x0 MSTORE PUSH1 0x32 PUSH1 0x4 MSTORE PUSH1 0x24 PUSH1 0x0 REVERT JUMPDEST PUSH1 0x20 MUL PUSH1 0x20 ADD ADD MLOAD DUP6 DUP4 DUP2 MLOAD DUP2 LT PUSH2 0xEDA JUMPI PUSH4 0x4E487B71 PUSH1 0xE0 SHL PUSH1 0x0 MSTORE PUSH1 0x32 PUSH1 0x4 MSTORE PUSH1 0x24 PUSH1 0x0 REVERT JUMPDEST PUSH1 0x20 MUL PUSH1 0x20 ADD ADD MLOAD PUSH2 0x70F JUMP JUMPDEST DUP3 DUP3 DUP2 MLOAD DUP2 LT PUSH2 0xF07 JUMPI PUSH4 0x4E487B71 PUSH1 0xE0 SHL PUSH1 0x0 MSTORE PUSH1 0x32 PUSH1 0x4 MSTORE PUSH1 0x24 PUSH1 0x0 REVERT JUMPDEST PUSH1 0x20 SWAP1 DUP2 MUL SWAP2 SWAP1 SWAP2 ADD ADD MSTORE PUSH2 0xF1B DUP2 PUSH2 0x35F8 JUMP JUMPDEST SWAP1 POP PUSH2 0xE86 JUMP JUMPDEST POP SWAP4 SWAP3 POP POP POP JUMP JUMPDEST PUSH1 0x0 DUP3 DUP2 MSTORE PUSH1 0x9 PUSH1 0x20 MSTORE PUSH1 0x40 DUP1 DUP3 KECCAK256 DUP2 MLOAD PUSH1 0xC0 DUP2 ADD SWAP1 SWAP3 MSTORE DUP1 SLOAD DUP4 SWAP3 SWAP2 SWAP1 DUP3 SWAP1 DUP3 SWAP1 PUSH2 0xF55 SWAP1 PUSH2 0x3590 JUMP JUMPDEST DUP1 PUSH1 0x1F ADD PUSH1 0x20 DUP1 SWAP2 DIV MUL PUSH1 0x20 ADD PUSH1 0x40 MLOAD SWAP1 DUP2 ADD PUSH1 0x40 MSTORE DUP1 SWAP3 SWAP2 SWAP1 DUP2 DUP2 MSTORE PUSH1 0x20 ADD DUP3 DUP1 SLOAD PUSH2 0xF81 SWAP1 PUSH2 0x3590 JUMP JUMPDEST DUP1 ISZERO PUSH2 0xFCE JUMPI DUP1 PUSH1 0x1F LT PUSH2 0xFA3 JUMPI PUSH2 0x100 DUP1 DUP4 SLOAD DIV MUL DUP4 MSTORE SWAP2 PUSH1 0x20 ADD SWAP2 PUSH2 0xFCE JUMP JUMPDEST DUP3 ADD SWAP2 SWAP1 PUSH1 0x0 MSTORE PUSH1 0x20 PUSH1 0x0 KECCAK256 SWAP1 JUMPDEST DUP2 SLOAD DUP2 MSTORE SWAP1 PUSH1 0x1 ADD SWAP1 PUSH1 0x20 ADD DUP1 DUP4 GT PUSH2 0xFB1 JUMPI DUP3 SWAP1 SUB PUSH1 0x1F AND DUP3 ADD SWAP2 JUMPDEST POP POP POP POP POP DUP2 MSTORE PUSH1 0x20 ADD PUSH1 0x1 DUP3 ADD SLOAD DUP2 MSTORE PUSH1 0x20 ADD PUSH1 0x2 DUP3 ADD DUP1 SLOAD DUP1 PUSH1 0x20 MUL PUSH1 0x20 ADD PUSH1 0x40 MLOAD SWAP1 DUP2 ADD PUSH1 0x40 MSTORE DUP1 SWAP3 SWAP2 SWAP1 DUP2 DUP2 MSTORE PUSH1 0x20 ADD DUP3 DUP1 SLOAD DUP1 ISZERO PUSH2 0x105C JUMPI PUSH1 0x20 MUL DUP3 ADD SWAP2 SWAP1 PUSH1 0x0 MSTORE PUSH1 0x20 PUSH1 0x0 KECCAK256 SWAP1 PUSH1 0x0 SWAP1 JUMPDEST DUP3 DUP3 SWAP1 SLOAD SWAP1 PUSH2 0x100 EXP SWAP1 DIV PUSH4 0xFFFFFFFF AND PUSH4 0xFFFFFFFF AND DUP2 MSTORE PUSH1 0x20 ADD SWAP1 PUSH1 0x4 ADD SWAP1 PUSH1 0x20 DUP3 PUSH1 0x3 ADD DIV SWAP3 DUP4 ADD SWAP3 PUSH1 0x1 SUB DUP3 MUL SWAP2 POP DUP1 DUP5 GT PUSH2 0x101F JUMPI SWAP1 POP JUMPDEST POP POP POP SWAP2 DUP4 MSTORE POP POP PUSH1 0x3 DUP3 ADD SLOAD PUSH1 0x1 PUSH1 0x1 PUSH1 0xA0 SHL SUB AND PUSH1 0x20 DUP3 ADD MSTORE PUSH1 0x4 DUP3 ADD SLOAD PUSH1 0x40 DUP3 ADD MSTORE PUSH1 0x5 SWAP1 SWAP2 ADD SLOAD PUSH1 0x60 SWAP1 SWAP2 ADD MSTORE SWAP1 POP PUSH2 0x1099 DUP2 DUP5 PUSH2 0x2057 JUMP JUMPDEST POP PUSH1 0x0 DUP5 DUP2 MSTORE PUSH1 0x9 PUSH1 0x20 MSTORE PUSH1 0x40 DUP2 KECCAK256 PUSH1 0x4 ADD DUP1 SLOAD PUSH1 0x1 SWAP3 SWAP1 PUSH2 0x10BC SWAP1 DUP5 SWAP1 PUSH2 0x34D0 JUMP JUMPDEST SWAP3 POP POP DUP2 SWAP1 SSTORE POP PUSH1 0x1 PUSH1 0x14 PUSH1 0x0 DUP3 DUP3 SLOAD PUSH2 0x10D6 SWAP2 SWAP1 PUSH2 0x34D0 JUMP JUMPDEST SWAP1 SWAP2 SSTORE POP POP PUSH1 0x12 SLOAD PUSH1 0x0 DUP6 DUP2 MSTORE PUSH1 0x9 PUSH1 0x20 MSTORE PUSH1 0x40 SWAP1 KECCAK256 PUSH1 0x4 ADD SLOAD GT ISZERO PUSH2 0x1111 JUMPI PUSH1 0x0 DUP5 DUP2 MSTORE PUSH1 0x9 PUSH1 0x20 MSTORE PUSH1 0x40 SWAP1 KECCAK256 PUSH1 0x4 ADD SLOAD PUSH1 0x12 SSTORE PUSH1 0x11 DUP5 SWAP1 SSTORE JUMPDEST PUSH2 0x1123 CALLER PUSH1 0x6 SLOAD DUP7 PUSH2 0x82E SWAP2 SWAP1 PUSH2 0x34D0 JUMP JUMPDEST POP PUSH1 0x1 SWAP4 SWAP3 POP POP POP JUMP JUMPDEST PUSH1 0x0 DUP2 PUSH2 0x1142 CALLER DUP6 PUSH1 0x6 SLOAD PUSH2 0x286 SWAP2 SWAP1 PUSH2 0x34D0 JUMP JUMPDEST LT ISZERO PUSH2 0x11A2 JUMPI PUSH1 0x40 MLOAD PUSH3 0x461BCD PUSH1 0xE5 SHL DUP2 MSTORE PUSH1 0x20 PUSH1 0x4 DUP3 ADD MSTORE PUSH1 0x29 PUSH1 0x24 DUP3 ADD MSTORE PUSH32 0x596F7520646F6E277420686176652074686174206D616E79206F662074686F73 PUSH1 0x44 DUP3 ADD MSTORE PUSH9 0x6520746F2065617421 PUSH1 0xB8 SHL PUSH1 0x64 DUP3 ADD MSTORE PUSH1 0x84 ADD PUSH2 0x777 JUMP JUMPDEST PUSH1 0x0 DUP4 DUP2 MSTORE PUSH1 0x9 PUSH1 0x20 SWAP1 DUP2 MSTORE PUSH1 0x40 DUP1 DUP4 KECCAK256 PUSH1 0x2 ADD DUP1 SLOAD DUP3 MLOAD DUP2 DUP6 MUL DUP2 ADD DUP6 ADD SWAP1 SWAP4 MSTORE DUP1 DUP4 MSTORE SWAP2 SWAP3 SWAP1 SWAP2 SWAP1 DUP4 ADD DUP3 DUP3 DUP1 ISZERO PUSH2 0x1227 JUMPI PUSH1 0x20 MUL DUP3 ADD SWAP2 SWAP1 PUSH1 0x0 MSTORE PUSH1 0x20 PUSH1 0x0 KECCAK256 SWAP1 PUSH1 0x0 SWAP1 JUMPDEST DUP3 DUP3 SWAP1 SLOAD SWAP1 PUSH2 0x100 EXP SWAP1 DIV PUSH4 0xFFFFFFFF AND PUSH4 0xFFFFFFFF AND DUP2 MSTORE PUSH1 0x20 ADD SWAP1 PUSH1 0x4 ADD SWAP1 PUSH1 0x20 DUP3 PUSH1 0x3 ADD DIV SWAP3 DUP4 ADD SWAP3 PUSH1 0x1 SUB DUP3 MUL SWAP2 POP DUP1 DUP5 GT PUSH2 0x11EA JUMPI SWAP1 POP JUMPDEST POP POP POP POP POP SWAP1 POP PUSH1 0x0 DUP1 PUSH1 0x0 SWAP1 POP JUMPDEST DUP3 MLOAD DUP2 LT ISZERO PUSH2 0x1286 JUMPI DUP3 DUP2 DUP2 MLOAD DUP2 LT PUSH2 0x125F JUMPI PUSH4 0x4E487B71 PUSH1 0xE0 SHL PUSH1 0x0 MSTORE PUSH1 0x32 PUSH1 0x4 MSTORE PUSH1 0x24 PUSH1 0x0 REVERT JUMPDEST PUSH1 0x20 MUL PUSH1 0x20 ADD ADD MLOAD DUP3 PUSH2 0x1272 SWAP2 SWAP1 PUSH2 0x34E8 JUMP JUMPDEST SWAP2 POP DUP1 PUSH2 0x127E DUP2 PUSH2 0x35F8 JUMP JUMPDEST SWAP2 POP POP PUSH2 0x1236 JUMP JUMPDEST POP PUSH1 0x0 PUSH1 0x6 SLOAD DUP7 PUSH2 0x1297 SWAP2 SWAP1 PUSH2 0x34D0 JUMP JUMPDEST SWAP1 POP PUSH2 0x12A4 CALLER DUP3 DUP8 PUSH2 0x243F JUMP JUMPDEST PUSH1 0x0 DUP7 DUP2 MSTORE PUSH1 0x9 PUSH1 0x20 MSTORE PUSH1 0x40 DUP2 KECCAK256 PUSH1 0x5 ADD DUP1 SLOAD PUSH1 0x1 SWAP3 SWAP1 PUSH2 0x12C6 SWAP1 DUP5 SWAP1 PUSH2 0x34D0 JUMP JUMPDEST SWAP1 SWAP2 SSTORE POP PUSH2 0x12DC SWAP1 POP DUP6 PUSH4 0xFFFFFFFF DUP5 AND PUSH2 0x3535 JUMP JUMPDEST CALLER PUSH1 0x0 SWAP1 DUP2 MSTORE PUSH1 0xA PUSH1 0x20 MSTORE PUSH1 0x40 DUP2 KECCAK256 DUP1 SLOAD SWAP1 SWAP2 SWAP1 PUSH2 0x12FB SWAP1 DUP5 SWAP1 PUSH2 0x34D0 JUMP JUMPDEST SWAP1 SWAP2 SSTORE POP POP PUSH1 0xE SLOAD CALLER PUSH1 0x0 SWAP1 DUP2 MSTORE PUSH1 0xA PUSH1 0x20 MSTORE PUSH1 0x40 SWAP1 KECCAK256 SLOAD GT ISZERO PUSH2 0x1341 JUMPI PUSH1 0xF DUP1 SLOAD PUSH1 0x1 PUSH1 0x1 PUSH1 0xA0 SHL SUB NOT AND CALLER SWAP1 DUP2 OR SWAP1 SWAP2 SSTORE PUSH1 0x0 SWAP1 DUP2 MSTORE PUSH1 0xA PUSH1 0x20 MSTORE PUSH1 0x40 SWAP1 KECCAK256 SLOAD PUSH1 0xE SSTORE JUMPDEST POP POP POP SWAP3 SWAP2 POP POP JUMP JUMPDEST PUSH1 0x0 PUSH2 0x1356 CALLER DUP4 PUSH2 0x70F JUMP JUMPDEST PUSH1 0x1 EQ PUSH2 0x1375 JUMPI PUSH1 0x40 MLOAD PUSH3 0x461BCD PUSH1 0xE5 SHL DUP2 MSTORE PUSH1 0x4 ADD PUSH2 0x777 SWAP1 PUSH2 0x330F JUMP JUMPDEST PUSH2 0x137E DUP3 PUSH2 0x1BE0 JUMP JUMPDEST POP PUSH2 0x1387 PUSH2 0x7FF JUMP JUMPDEST POP PUSH1 0x0 DUP3 DUP2 MSTORE PUSH1 0x7 PUSH1 0x20 MSTORE PUSH1 0x40 DUP1 DUP3 KECCAK256 DUP1 SLOAD PUSH1 0x13 SLOAD DUP5 MSTORE SWAP2 DUP4 KECCAK256 DUP1 SLOAD PUSH9 0xFFFFFFFF0000000000 NOT AND PUSH1 0x1 PUSH1 0x28 SHL SWAP4 DUP5 SWAP1 DIV PUSH4 0xFFFFFFFF AND SWAP1 SWAP4 MUL SWAP3 SWAP1 SWAP3 OR SWAP1 SWAP2 SSTORE SWAP1 DUP4 SWAP1 MSTORE DUP1 SLOAD PUSH1 0x1 SWAP2 SWAP1 PUSH1 0x4 SWAP1 PUSH2 0x13EB SWAP1 DUP5 SWAP1 PUSH5 0x100000000 SWAP1 DIV PUSH1 0xFF AND PUSH2 0x3510 JUMP JUMPDEST SWAP3 POP PUSH2 0x100 EXP DUP2 SLOAD DUP2 PUSH1 0xFF MUL NOT AND SWAP1 DUP4 PUSH1 0xFF AND MUL OR SWAP1 SSTORE POP PUSH1 0x1 SWAP1 POP SWAP2 SWAP1 POP JUMP JUMPDEST CALLER PUSH1 0x1 PUSH1 0x1 PUSH1 0xA0 SHL SUB DUP4 AND EQ ISZERO PUSH2 0x1477 JUMPI PUSH1 0x40 MLOAD PUSH3 0x461BCD PUSH1 0xE5 SHL DUP2 MSTORE PUSH1 0x20 PUSH1 0x4 DUP3 ADD MSTORE PUSH1 0x29 PUSH1 0x24 DUP3 ADD MSTORE PUSH32 0x455243313135353A2073657474696E6720617070726F76616C20737461747573 PUSH1 0x44 DUP3 ADD MSTORE PUSH9 0x103337B91039B2B633 PUSH1 0xB9 SHL PUSH1 0x64 DUP3 ADD MSTORE PUSH1 0x84 ADD PUSH2 0x777 JUMP JUMPDEST CALLER PUSH1 0x0 DUP2 DUP2 MSTORE PUSH1 0x2 PUSH1 0x20 SWAP1 DUP2 MSTORE PUSH1 0x40 DUP1 DUP4 KECCAK256 PUSH1 0x1 PUSH1 0x1 PUSH1 0xA0 SHL SUB DUP8 AND DUP1 DUP6 MSTORE SWAP3 MSTORE SWAP1 SWAP2 KECCAK256 DUP1 SLOAD PUSH1 0xFF NOT AND DUP5 ISZERO ISZERO OR SWAP1 SSTORE SWAP1 PUSH1 0x1 PUSH1 0x1 PUSH1 0xA0 SHL SUB AND PUSH32 0x17307EAB39AB6107E8899845AD3D59BD9653F200F220920489CA2B5937696C31 DUP4 PUSH1 0x40 MLOAD PUSH2 0x14E4 SWAP2 ISZERO ISZERO DUP2 MSTORE PUSH1 0x20 ADD SWAP1 JUMP JUMPDEST PUSH1 0x40 MLOAD DUP1 SWAP2 SUB SWAP1 LOG3 POP POP JUMP JUMPDEST CALLER PUSH1 0x0 SWAP1 DUP2 MSTORE PUSH1 0xB PUSH1 0x20 MSTORE PUSH1 0x40 SWAP1 KECCAK256 SLOAD PUSH1 0xFF AND ISZERO PUSH2 0x1580 JUMPI PUSH1 0x40 MLOAD PUSH3 0x461BCD PUSH1 0xE5 SHL DUP2 MSTORE PUSH1 0x20 PUSH1 0x4 DUP3 ADD MSTORE PUSH1 0x41 PUSH1 0x24 DUP3 ADD MSTORE PUSH32 0x596F752061726520616C726561647920696E207468652062616B6572792C2065 PUSH1 0x44 DUP3 ADD MSTORE PUSH32 0x69746865722077616974206F72207475726E206175746F2066656564206F6666 PUSH1 0x64 DUP3 ADD MSTORE PUSH1 0x21 PUSH1 0xF8 SHL PUSH1 0x84 DUP3 ADD MSTORE PUSH1 0xA4 ADD PUSH2 0x777 JUMP JUMPDEST CALLER PUSH1 0x0 SWAP1 DUP2 MSTORE PUSH1 0x8 PUSH1 0x20 MSTORE PUSH1 0x40 SWAP1 KECCAK256 SLOAD TIMESTAMP PUSH4 0xFFFFFFFF SWAP1 SWAP2 AND LT PUSH2 0x15E6 JUMPI PUSH1 0x40 MLOAD PUSH3 0x461BCD PUSH1 0xE5 SHL DUP2 MSTORE PUSH1 0x20 PUSH1 0x4 DUP3 ADD MSTORE PUSH1 0x1B PUSH1 0x24 DUP3 ADD MSTORE PUSH32 0x596F7520646964207468697320616C726561647920746F646179210000000000 PUSH1 0x44 DUP3 ADD MSTORE PUSH1 0x64 ADD PUSH2 0x777 JUMP JUMPDEST PUSH2 0x1604 CALLER PUSH1 0x5 SLOAD PUSH1 0x64 PUSH1 0x40 MLOAD DUP1 PUSH1 0x20 ADD PUSH1 0x40 MSTORE DUP1 PUSH1 0x0 DUP2 MSTORE POP PUSH2 0x1D98 JUMP JUMPDEST PUSH1 0x64 PUSH1 0x10 PUSH1 0x0 DUP3 DUP3 SLOAD PUSH2 0x1617 SWAP2 SWAP1 PUSH2 0x34D0 JUMP JUMPDEST SWAP1 SWAP2 SSTORE POP POP PUSH1 0x4 SLOAD PUSH2 0x162F SWAP1 PUSH4 0xFFFFFFFF AND TIMESTAMP PUSH2 0x34D0 JUMP JUMPDEST CALLER PUSH1 0x0 SWAP1 DUP2 MSTORE PUSH1 0x8 PUSH1 0x20 MSTORE PUSH1 0x40 SWAP1 KECCAK256 DUP1 SLOAD PUSH4 0xFFFFFFFF NOT AND PUSH4 0xFFFFFFFF SWAP3 SWAP1 SWAP3 AND SWAP2 SWAP1 SWAP2 OR SWAP1 SSTORE JUMP JUMPDEST PUSH1 0x0 PUSH1 0xA DUP4 MLOAD GT ISZERO PUSH2 0x16BC JUMPI PUSH1 0x40 MLOAD PUSH3 0x461BCD PUSH1 0xE5 SHL DUP2 MSTORE PUSH1 0x20 PUSH1 0x4 DUP3 ADD MSTORE PUSH1 0x27 PUSH1 0x24 DUP3 ADD MSTORE PUSH32 0x596F752063616E206F6E6C79206861766520757020746F20313020696E677265 PUSH1 0x44 DUP3 ADD MSTORE PUSH7 0x6469656E747321 PUSH1 0xC8 SHL PUSH1 0x64 DUP3 ADD MSTORE PUSH1 0x84 ADD PUSH2 0x777 JUMP JUMPDEST PUSH1 0x40 DUP1 MLOAD PUSH1 0xC0 DUP2 ADD DUP3 MSTORE DUP7 DUP2 MSTORE PUSH1 0x20 DUP2 ADD DUP7 SWAP1 MSTORE SWAP1 DUP2 ADD DUP5 SWAP1 MSTORE CALLER PUSH1 0x60 DUP3 ADD MSTORE PUSH1 0x0 PUSH1 0x80 DUP3 ADD DUP2 SWAP1 MSTORE PUSH1 0xA0 DUP3 ADD MSTORE PUSH2 0x16F4 DUP2 DUP5 PUSH2 0x2057 JUMP JUMPDEST POP PUSH1 0x1 DUP2 PUSH1 0x80 ADD DUP2 DUP2 MLOAD PUSH2 0x1708 SWAP2 SWAP1 PUSH2 0x34D0 JUMP JUMPDEST SWAP1 MSTORE POP PUSH1 0x14 DUP1 SLOAD PUSH1 0x1 SWAP2 SWAP1 PUSH1 0x0 SWAP1 PUSH2 0x1721 SWAP1 DUP5 SWAP1 PUSH2 0x34D0 JUMP JUMPDEST SWAP3 POP POP DUP2 SWAP1 SSTORE POP PUSH1 0x1 PUSH1 0x15 PUSH1 0x0 DUP3 DUP3 SLOAD PUSH2 0x173B SWAP2 SWAP1 PUSH2 0x34D0 JUMP JUMPDEST SWAP1 SWAP2 SSTORE POP POP PUSH1 0x15 SLOAD PUSH1 0x6 SLOAD PUSH1 0x0 SWAP2 PUSH2 0x1752 SWAP2 PUSH2 0x34D0 JUMP JUMPDEST PUSH1 0x15 SLOAD PUSH1 0x0 SWAP1 DUP2 MSTORE PUSH1 0x9 PUSH1 0x20 SWAP1 DUP2 MSTORE PUSH1 0x40 SWAP1 SWAP2 KECCAK256 DUP5 MLOAD DUP1 MLOAD SWAP4 SWAP5 POP DUP6 SWAP4 SWAP2 SWAP3 PUSH2 0x1780 SWAP3 DUP5 SWAP3 SWAP1 SWAP2 ADD SWAP1 PUSH2 0x2A78 JUMP JUMPDEST POP PUSH1 0x20 DUP3 DUP2 ADD MLOAD PUSH1 0x1 DUP4 ADD SSTORE PUSH1 0x40 DUP4 ADD MLOAD DUP1 MLOAD PUSH2 0x17A3 SWAP3 PUSH1 0x2 DUP6 ADD SWAP3 ADD SWAP1 PUSH2 0x2AFC JUMP JUMPDEST POP PUSH1 0x60 DUP3 ADD MLOAD PUSH1 0x3 DUP3 ADD DUP1 SLOAD PUSH1 0x1 PUSH1 0x1 PUSH1 0xA0 SHL SUB NOT AND PUSH1 0x1 PUSH1 0x1 PUSH1 0xA0 SHL SUB SWAP1 SWAP3 AND SWAP2 SWAP1 SWAP2 OR SWAP1 SSTORE PUSH1 0x80 DUP3 ADD MLOAD PUSH1 0x4 DUP1 DUP4 ADD SWAP2 SWAP1 SWAP2 SSTORE PUSH1 0xA0 SWAP1 SWAP3 ADD MLOAD PUSH1 0x5 SWAP1 SWAP2 ADD SSTORE PUSH1 0x12 SLOAD PUSH1 0x15 SLOAD PUSH1 0x0 SWAP1 DUP2 MSTORE PUSH1 0x9 PUSH1 0x20 MSTORE PUSH1 0x40 SWAP1 KECCAK256 SWAP1 SWAP2 ADD SLOAD GT ISZERO PUSH2 0x181E JUMPI PUSH1 0x15 SLOAD PUSH1 0x0 DUP2 DUP2 MSTORE PUSH1 0x9 PUSH1 0x20 MSTORE PUSH1 0x40 SWAP1 KECCAK256 PUSH1 0x4 ADD SLOAD PUSH1 0x12 SSTORE PUSH1 0x11 SSTORE JUMPDEST PUSH2 0x183A CALLER DUP3 PUSH1 0x1 PUSH1 0x40 MLOAD DUP1 PUSH1 0x20 ADD PUSH1 0x40 MSTORE DUP1 PUSH1 0x0 DUP2 MSTORE POP PUSH2 0x1D98 JUMP JUMPDEST POP PUSH1 0x1 SWAP7 SWAP6 POP POP POP POP POP POP JUMP JUMPDEST PUSH1 0x0 PUSH2 0x1853 CALLER DUP4 PUSH2 0x70F JUMP JUMPDEST PUSH1 0x1 EQ PUSH2 0x1872 JUMPI PUSH1 0x40 MLOAD PUSH3 0x461BCD PUSH1 0xE5 SHL DUP2 MSTORE PUSH1 0x4 ADD PUSH2 0x777 SWAP1 PUSH2 0x330F JUMP JUMPDEST PUSH1 0x0 PUSH2 0x187F DUP5 PUSH1 0x32 PUSH2 0x3535 JUMP JUMPDEST SWAP1 POP PUSH1 0x0 PUSH2 0x188E DUP6 PUSH1 0xA PUSH2 0x3535 JUMP JUMPDEST SWAP1 POP PUSH2 0x189A CALLER DUP4 PUSH2 0x1D58 JUMP JUMPDEST PUSH2 0x18CB CALLER PUSH1 0x4 DUP1 SLOAD SWAP1 PUSH2 0x100 EXP SWAP1 DIV PUSH1 0x1 PUSH1 0x1 PUSH1 0xA0 SHL SUB AND PUSH1 0x5 SLOAD DUP5 PUSH1 0x40 MLOAD DUP1 PUSH1 0x20 ADD PUSH1 0x40 MSTORE DUP1 PUSH1 0x0 DUP2 MSTORE POP PUSH2 0x19AB JUMP JUMPDEST CALLER PUSH1 0x0 SWAP1 DUP2 MSTORE PUSH1 0xB PUSH1 0x20 MSTORE PUSH1 0x40 SWAP1 KECCAK256 DUP1 SLOAD PUSH1 0xFF NOT AND PUSH1 0x1 OR SWAP1 SSTORE PUSH1 0x4 SLOAD PUSH2 0x18F8 SWAP1 PUSH4 0xFFFFFFFF AND DUP7 PUSH2 0x3535 JUMP JUMPDEST PUSH2 0x1902 SWAP1 TIMESTAMP PUSH2 0x34D0 JUMP JUMPDEST PUSH1 0x0 DUP6 DUP2 MSTORE PUSH1 0x7 PUSH1 0x20 MSTORE PUSH1 0x40 SWAP1 KECCAK256 DUP1 SLOAD PUSH4 0xFFFFFFFF PUSH1 0xFF PUSH1 0xE8 SHL ADD NOT AND PUSH4 0xFFFFFFFF SWAP3 SWAP1 SWAP3 AND SWAP2 SWAP1 SWAP2 OR PUSH1 0x1 PUSH1 0xE8 SHL OR SWAP1 SSTORE POP PUSH1 0x1 SWAP2 POP POP SWAP3 SWAP2 POP POP JUMP JUMPDEST PUSH1 0x0 DUP2 DUP2 MSTORE PUSH1 0x7 PUSH1 0x20 MSTORE PUSH1 0x40 DUP2 KECCAK256 SLOAD PUSH1 0x1 PUSH1 0xE8 SHL SWAP1 DIV PUSH1 0xFF AND ISZERO ISZERO PUSH1 0x1 EQ PUSH2 0x1967 JUMPI PUSH1 0x0 DUP1 REVERT JUMPDEST PUSH1 0x4 SLOAD PUSH2 0x197A SWAP1 PUSH4 0xFFFFFFFF AND TIMESTAMP PUSH2 0x34D0 JUMP JUMPDEST PUSH1 0x0 SWAP3 DUP4 MSTORE PUSH1 0x7 PUSH1 0x20 MSTORE PUSH1 0x40 SWAP1 SWAP3 KECCAK256 DUP1 SLOAD PUSH4 0xFFFFFFFF PUSH1 0xFF PUSH1 0xE8 SHL ADD NOT AND PUSH4 0xFFFFFFFF SWAP4 SWAP1 SWAP4 AND SWAP3 SWAP1 SWAP3 OR SWAP1 SWAP2 SSTORE SWAP1 JUMP JUMPDEST PUSH1 0x1 PUSH1 0x1 PUSH1 0xA0 SHL SUB DUP5 AND PUSH2 0x19D1 JUMPI PUSH1 0x40 MLOAD PUSH3 0x461BCD PUSH1 0xE5 SHL DUP2 MSTORE PUSH1 0x4 ADD PUSH2 0x777 SWAP1 PUSH2 0x3392 JUMP JUMPDEST PUSH1 0x1 PUSH1 0x1 PUSH1 0xA0 SHL SUB DUP6 AND CALLER EQ DUP1 PUSH2 0x19ED JUMPI POP PUSH2 0x19ED DUP6 CALLER PUSH2 0x688 JUMP JUMPDEST PUSH2 0x1A4B JUMPI PUSH1 0x40 MLOAD PUSH3 0x461BCD PUSH1 0xE5 SHL DUP2 MSTORE PUSH1 0x20 PUSH1 0x4 DUP3 ADD MSTORE PUSH1 0x29 PUSH1 0x24 DUP3 ADD MSTORE PUSH32 0x455243313135353A2063616C6C6572206973206E6F74206F776E6572206E6F72 PUSH1 0x44 DUP3 ADD MSTORE PUSH9 0x8185C1C1C9BDD9959 PUSH1 0xBA SHL PUSH1 0x64 DUP3 ADD MSTORE PUSH1 0x84 ADD PUSH2 0x777 JUMP JUMPDEST CALLER PUSH2 0x1A6B DUP2 DUP8 DUP8 PUSH2 0x1A5B DUP9 PUSH2 0x2588 JUMP JUMPDEST PUSH2 0x1A64 DUP9 PUSH2 0x2588 JUMP JUMPDEST POP POP POP POP POP JUMP JUMPDEST PUSH1 0x0 DUP5 DUP2 MSTORE PUSH1 0x1 PUSH1 0x20 SWAP1 DUP2 MSTORE PUSH1 0x40 DUP1 DUP4 KECCAK256 PUSH1 0x1 PUSH1 0x1 PUSH1 0xA0 SHL SUB DUP11 AND DUP5 MSTORE SWAP1 SWAP2 MSTORE SWAP1 KECCAK256 SLOAD DUP4 DUP2 LT ISZERO PUSH2 0x1AAE JUMPI PUSH1 0x40 MLOAD PUSH3 0x461BCD PUSH1 0xE5 SHL DUP2 MSTORE PUSH1 0x4 ADD PUSH2 0x777 SWAP1 PUSH2 0x341A JUMP JUMPDEST PUSH2 0x1AB8 DUP5 DUP3 PUSH2 0x3554 JUMP JUMPDEST PUSH1 0x0 DUP7 DUP2 MSTORE PUSH1 0x1 PUSH1 0x20 SWAP1 DUP2 MSTORE PUSH1 0x40 DUP1 DUP4 KECCAK256 PUSH1 0x1 PUSH1 0x1 PUSH1 0xA0 SHL SUB DUP13 DUP2 AND DUP6 MSTORE SWAP3 MSTORE DUP1 DUP4 KECCAK256 SWAP4 SWAP1 SWAP4 SSTORE DUP9 AND DUP2 MSTORE SWAP1 DUP2 KECCAK256 DUP1 SLOAD DUP7 SWAP3 SWAP1 PUSH2 0x1AF6 SWAP1 DUP5 SWAP1 PUSH2 0x34D0 JUMP JUMPDEST SWAP1 SWAP2 SSTORE POP POP PUSH1 0x1 PUSH1 0x1 PUSH1 0xA0 SHL SUB DUP7 AND PUSH1 0x0 SWAP1 DUP2 MSTORE PUSH1 0x20 DUP2 SWAP1 MSTORE PUSH1 0x40 SWAP1 KECCAK256 PUSH2 0x1B1D SWAP1 DUP7 PUSH2 0x1EBE JUMP JUMPDEST POP PUSH1 0x0 DUP6 DUP2 MSTORE PUSH1 0x1 PUSH1 0x20 SWAP1 DUP2 MSTORE PUSH1 0x40 DUP1 DUP4 KECCAK256 PUSH1 0x1 PUSH1 0x1 PUSH1 0xA0 SHL SUB DUP12 AND DUP5 MSTORE SWAP1 SWAP2 MSTORE SWAP1 KECCAK256 SLOAD PUSH2 0x1B69 JUMPI PUSH1 0x1 PUSH1 0x1 PUSH1 0xA0 SHL SUB DUP8 AND PUSH1 0x0 SWAP1 DUP2 MSTORE PUSH1 0x20 DUP2 SWAP1 MSTORE PUSH1 0x40 SWAP1 KECCAK256 PUSH2 0x1B67 SWAP1 DUP7 PUSH2 0x1ECA JUMP JUMPDEST POP JUMPDEST DUP6 PUSH1 0x1 PUSH1 0x1 PUSH1 0xA0 SHL SUB AND DUP8 PUSH1 0x1 PUSH1 0x1 PUSH1 0xA0 SHL SUB AND DUP4 PUSH1 0x1 PUSH1 0x1 PUSH1 0xA0 SHL SUB AND PUSH32 0xC3D58168C5AE7397731D063D5BBF3D657854427343F4C083240F7AACAA2D0F62 DUP9 DUP9 PUSH1 0x40 MLOAD PUSH2 0x1BC1 SWAP3 SWAP2 SWAP1 SWAP2 DUP3 MSTORE PUSH1 0x20 DUP3 ADD MSTORE PUSH1 0x40 ADD SWAP1 JUMP JUMPDEST PUSH1 0x40 MLOAD DUP1 SWAP2 SUB SWAP1 LOG4 PUSH2 0x1BD7 DUP3 DUP9 DUP9 DUP9 DUP9 DUP9 PUSH2 0x25E1 JUMP JUMPDEST POP POP POP POP POP POP POP JUMP JUMPDEST PUSH1 0x0 PUSH2 0x1BEC CALLER DUP4 PUSH2 0x70F JUMP JUMPDEST PUSH1 0x1 EQ PUSH2 0x1C0B JUMPI PUSH1 0x40 MLOAD PUSH3 0x461BCD PUSH1 0xE5 SHL DUP2 MSTORE PUSH1 0x4 ADD PUSH2 0x777 SWAP1 PUSH2 0x330F JUMP JUMPDEST PUSH1 0x0 DUP3 DUP2 MSTORE PUSH1 0x7 PUSH1 0x20 MSTORE PUSH1 0x40 SWAP1 KECCAK256 SLOAD TIMESTAMP PUSH4 0xFFFFFFFF SWAP1 SWAP2 AND LT ISZERO PUSH2 0x1C97 JUMPI PUSH1 0x40 MLOAD PUSH3 0x461BCD PUSH1 0xE5 SHL DUP2 MSTORE PUSH1 0x20 PUSH1 0x4 DUP3 ADD MSTORE PUSH1 0x39 PUSH1 0x24 DUP3 ADD MSTORE PUSH32 0x596F757220737461727465722069732064656164212020596F752073686F756C PUSH1 0x44 DUP3 ADD MSTORE PUSH32 0x6420686176652066656420697420736F6F6E6572203A28202E00000000000000 PUSH1 0x64 DUP3 ADD MSTORE PUSH1 0x84 ADD PUSH2 0x777 JUMP JUMPDEST PUSH2 0x1CA2 CALLER PUSH1 0x32 PUSH2 0x1D58 JUMP JUMPDEST PUSH1 0x4 SLOAD PUSH2 0x1CB5 SWAP1 PUSH4 0xFFFFFFFF AND TIMESTAMP PUSH2 0x34D0 JUMP JUMPDEST PUSH1 0x0 DUP4 DUP2 MSTORE PUSH1 0x7 PUSH1 0x20 MSTORE PUSH1 0x40 SWAP1 KECCAK256 DUP1 SLOAD PUSH4 0xFFFFFFFF NOT AND PUSH4 0xFFFFFFFF SWAP3 SWAP1 SWAP3 AND SWAP2 SWAP1 SWAP2 OR SWAP1 DUP2 SWAP1 SSTORE PUSH1 0x1 PUSH1 0xE8 SHL SWAP1 DIV PUSH1 0xFF AND ISZERO PUSH2 0x1CF7 JUMPI PUSH1 0x0 DUP3 SWAP1 MSTORE PUSH1 0x7 PUSH1 0x20 MSTORE JUMPDEST PUSH1 0x0 DUP3 DUP2 MSTORE PUSH1 0x7 PUSH1 0x20 MSTORE PUSH1 0x40 DUP2 KECCAK256 SLOAD PUSH2 0x1D1D SWAP1 PUSH1 0x1 PUSH1 0x28 SHL SWAP1 DIV PUSH4 0xFFFFFFFF AND TIMESTAMP PUSH2 0x356B JUMP JUMPDEST PUSH1 0xD SLOAD SWAP1 SWAP2 POP PUSH4 0xFFFFFFFF SWAP1 DUP2 AND SWAP1 DUP3 AND GT ISZERO PUSH2 0x1D4F JUMPI PUSH1 0xD DUP1 SLOAD PUSH4 0xFFFFFFFF NOT AND PUSH4 0xFFFFFFFF DUP4 AND OR SWAP1 SSTORE PUSH1 0xC DUP4 SWAP1 SSTORE JUMPDEST POP PUSH1 0x1 SWAP3 SWAP2 POP POP JUMP JUMPDEST DUP1 PUSH2 0x1D65 CALLER PUSH1 0x5 SLOAD PUSH2 0x70F JUMP JUMPDEST LT ISZERO PUSH2 0x1D70 JUMPI PUSH1 0x0 DUP1 REVERT JUMPDEST PUSH2 0x1D7D DUP3 PUSH1 0x5 SLOAD DUP4 PUSH2 0x243F JUMP JUMPDEST DUP1 PUSH1 0x10 PUSH1 0x0 DUP3 DUP3 SLOAD PUSH2 0x1D8F SWAP2 SWAP1 PUSH2 0x3554 JUMP JUMPDEST SWAP1 SWAP2 SSTORE POP POP POP POP JUMP JUMPDEST PUSH1 0x1 PUSH1 0x1 PUSH1 0xA0 SHL SUB DUP5 AND PUSH2 0x1DF8 JUMPI PUSH1 0x40 MLOAD PUSH3 0x461BCD PUSH1 0xE5 SHL DUP2 MSTORE PUSH1 0x20 PUSH1 0x4 DUP3 ADD MSTORE PUSH1 0x21 PUSH1 0x24 DUP3 ADD MSTORE PUSH32 0x455243313135353A206D696E7420746F20746865207A65726F20616464726573 PUSH1 0x44 DUP3 ADD MSTORE PUSH1 0x73 PUSH1 0xF8 SHL PUSH1 0x64 DUP3 ADD MSTORE PUSH1 0x84 ADD PUSH2 0x777 JUMP JUMPDEST CALLER PUSH2 0x1E09 DUP2 PUSH1 0x0 DUP8 PUSH2 0x1A5B DUP9 PUSH2 0x2588 JUMP JUMPDEST PUSH1 0x0 DUP5 DUP2 MSTORE PUSH1 0x1 PUSH1 0x20 SWAP1 DUP2 MSTORE PUSH1 0x40 DUP1 DUP4 KECCAK256 PUSH1 0x1 PUSH1 0x1 PUSH1 0xA0 SHL SUB DUP10 AND DUP5 MSTORE SWAP1 SWAP2 MSTORE DUP2 KECCAK256 DUP1 SLOAD DUP6 SWAP3 SWAP1 PUSH2 0x1E3B SWAP1 DUP5 SWAP1 PUSH2 0x34D0 JUMP JUMPDEST SWAP1 SWAP2 SSTORE POP POP PUSH1 0x1 PUSH1 0x1 PUSH1 0xA0 SHL SUB DUP6 AND PUSH1 0x0 SWAP1 DUP2 MSTORE PUSH1 0x20 DUP2 SWAP1 MSTORE PUSH1 0x40 SWAP1 KECCAK256 PUSH2 0x1E62 SWAP1 DUP6 PUSH2 0x1EBE JUMP JUMPDEST POP PUSH1 0x40 DUP1 MLOAD DUP6 DUP2 MSTORE PUSH1 0x20 DUP2 ADD DUP6 SWAP1 MSTORE PUSH1 0x1 PUSH1 0x1 PUSH1 0xA0 SHL SUB DUP1 DUP9 AND SWAP3 PUSH1 0x0 SWAP3 SWAP2 DUP6 AND SWAP2 PUSH32 0xC3D58168C5AE7397731D063D5BBF3D657854427343F4C083240F7AACAA2D0F62 SWAP2 ADD PUSH1 0x40 MLOAD DUP1 SWAP2 SUB SWAP1 LOG4 PUSH2 0x1A64 DUP2 PUSH1 0x0 DUP8 DUP8 DUP8 DUP8 PUSH2 0x25E1 JUMP JUMPDEST PUSH1 0x0 PUSH2 0xD41 DUP4 DUP4 PUSH2 0x26AB JUMP JUMPDEST PUSH1 0x0 PUSH2 0xD41 DUP4 DUP4 PUSH2 0x26FA JUMP JUMPDEST PUSH1 0x1 PUSH1 0x1 PUSH1 0xA0 SHL SUB DUP5 AND EXTCODESIZE ISZERO PUSH2 0xD17 JUMPI PUSH1 0x40 MLOAD PUSH4 0xBC197C81 PUSH1 0xE0 SHL DUP2 MSTORE PUSH1 0x1 PUSH1 0x1 PUSH1 0xA0 SHL SUB DUP6 AND SWAP1 PUSH4 0xBC197C81 SWAP1 PUSH2 0x1F1A SWAP1 DUP10 SWAP1 DUP10 SWAP1 DUP9 SWAP1 DUP9 SWAP1 DUP9 SWAP1 PUSH1 0x4 ADD PUSH2 0x318C JUMP JUMPDEST PUSH1 0x20 PUSH1 0x40 MLOAD DUP1 DUP4 SUB DUP2 PUSH1 0x0 DUP8 DUP1 EXTCODESIZE ISZERO DUP1 ISZERO PUSH2 0x1F34 JUMPI PUSH1 0x0 DUP1 REVERT JUMPDEST POP GAS CALL SWAP3 POP POP POP DUP1 ISZERO PUSH2 0x1F64 JUMPI POP PUSH1 0x40 DUP1 MLOAD PUSH1 0x1F RETURNDATASIZE SWAP1 DUP2 ADD PUSH1 0x1F NOT AND DUP3 ADD SWAP1 SWAP3 MSTORE PUSH2 0x1F61 SWAP2 DUP2 ADD SWAP1 PUSH2 0x2F5E JUMP JUMPDEST PUSH1 0x1 JUMPDEST PUSH2 0x2011 JUMPI PUSH2 0x1F70 PUSH2 0x363F JUMP JUMPDEST DUP1 PUSH4 0x8C379A0 EQ ISZERO PUSH2 0x1FAA JUMPI POP PUSH2 0x1F85 PUSH2 0x3656 JUMP JUMPDEST DUP1 PUSH2 0x1F90 JUMPI POP PUSH2 0x1FAC JUMP JUMPDEST DUP1 PUSH1 0x40 MLOAD PUSH3 0x461BCD PUSH1 0xE5 SHL DUP2 MSTORE PUSH1 0x4 ADD PUSH2 0x777 SWAP2 SWAP1 PUSH2 0x3270 JUMP JUMPDEST POP JUMPDEST PUSH1 0x40 MLOAD PUSH3 0x461BCD PUSH1 0xE5 SHL DUP2 MSTORE PUSH1 0x20 PUSH1 0x4 DUP3 ADD MSTORE PUSH1 0x34 PUSH1 0x24 DUP3 ADD MSTORE PUSH32 0x455243313135353A207472616E7366657220746F206E6F6E2045524331313535 PUSH1 0x44 DUP3 ADD MSTORE PUSH20 0x2932B1B2B4BB32B91034B6B83632B6B2B73A32B9 PUSH1 0x61 SHL PUSH1 0x64 DUP3 ADD MSTORE PUSH1 0x84 ADD PUSH2 0x777 JUMP JUMPDEST PUSH1 0x1 PUSH1 0x1 PUSH1 0xE0 SHL SUB NOT DUP2 AND PUSH4 0xBC197C81 PUSH1 0xE0 SHL EQ PUSH2 0x1BD7 JUMPI PUSH1 0x40 MLOAD PUSH3 0x461BCD PUSH1 0xE5 SHL DUP2 MSTORE PUSH1 0x4 ADD PUSH2 0x777 SWAP1 PUSH2 0x3283 JUMP JUMPDEST PUSH1 0x0 PUSH2 0xD41 DUP4 DUP4 PUSH2 0x2811 JUMP JUMPDEST PUSH1 0x0 PUSH2 0x7F7 DUP3 SLOAD SWAP1 JUMP JUMPDEST PUSH1 0x0 DUP3 PUSH1 0x20 ADD MLOAD PUSH2 0x206A CALLER PUSH1 0x5 SLOAD PUSH2 0x70F JUMP JUMPDEST LT ISZERO PUSH2 0x20CB JUMPI PUSH1 0x40 MLOAD PUSH3 0x461BCD PUSH1 0xE5 SHL DUP2 MSTORE PUSH1 0x20 PUSH1 0x4 DUP3 ADD MSTORE PUSH1 0x2A PUSH1 0x24 DUP3 ADD MSTORE PUSH32 0x596F7520646F6E2774206861766520656E6F75676820464C4F555220746F2062 PUSH1 0x44 DUP3 ADD MSTORE PUSH10 0x616B6520746861742121 PUSH1 0xB0 SHL PUSH1 0x64 DUP3 ADD MSTORE PUSH1 0x84 ADD PUSH2 0x777 JUMP JUMPDEST PUSH1 0x40 DUP4 ADD MLOAD MLOAD PUSH1 0x0 DUP2 PUSH8 0xFFFFFFFFFFFFFFFF DUP2 GT ISZERO PUSH2 0x20FA JUMPI PUSH4 0x4E487B71 PUSH1 0xE0 SHL PUSH1 0x0 MSTORE PUSH1 0x41 PUSH1 0x4 MSTORE PUSH1 0x24 PUSH1 0x0 REVERT JUMPDEST PUSH1 0x40 MLOAD SWAP1 DUP1 DUP3 MSTORE DUP1 PUSH1 0x20 MUL PUSH1 0x20 ADD DUP3 ADD PUSH1 0x40 MSTORE DUP1 ISZERO PUSH2 0x2123 JUMPI DUP2 PUSH1 0x20 ADD PUSH1 0x20 DUP3 MUL DUP1 CALLDATASIZE DUP4 CALLDATACOPY ADD SWAP1 POP JUMPDEST POP SWAP1 POP DUP4 MLOAD DUP6 PUSH1 0x40 ADD MLOAD MLOAD EQ PUSH2 0x21A1 JUMPI PUSH1 0x40 MLOAD PUSH3 0x461BCD PUSH1 0xE5 SHL DUP2 MSTORE PUSH1 0x20 PUSH1 0x4 DUP3 ADD MSTORE PUSH1 0x3C PUSH1 0x24 DUP3 ADD MSTORE PUSH32 0x596F7520686176656E277420616464656420746865207269676874206E756D62 PUSH1 0x44 DUP3 ADD MSTORE PUSH32 0x6572206F6620737461727465727320746F207468652062617463682100000000 PUSH1 0x64 DUP3 ADD MSTORE PUSH1 0x84 ADD PUSH2 0x777 JUMP JUMPDEST PUSH1 0x0 JUMPDEST DUP6 PUSH1 0x40 ADD MLOAD MLOAD DUP2 LT ISZERO PUSH2 0x241A JUMPI PUSH1 0x0 PUSH1 0x7 PUSH1 0x0 DUP8 DUP5 DUP2 MLOAD DUP2 LT PUSH2 0x21D7 JUMPI PUSH4 0x4E487B71 PUSH1 0xE0 SHL PUSH1 0x0 MSTORE PUSH1 0x32 PUSH1 0x4 MSTORE PUSH1 0x24 PUSH1 0x0 REVERT JUMPDEST PUSH1 0x20 SWAP1 DUP2 MUL SWAP2 SWAP1 SWAP2 ADD DUP2 ADD MLOAD DUP3 MSTORE DUP2 ADD SWAP2 SWAP1 SWAP2 MSTORE PUSH1 0x40 ADD PUSH1 0x0 KECCAK256 SLOAD PUSH2 0x2209 SWAP1 PUSH1 0x1 PUSH1 0x28 SHL SWAP1 DIV PUSH4 0xFFFFFFFF AND TIMESTAMP PUSH2 0x3554 JUMP JUMPDEST SWAP1 POP DUP7 PUSH1 0x40 ADD MLOAD DUP3 DUP2 MLOAD DUP2 LT PUSH2 0x222F JUMPI PUSH4 0x4E487B71 PUSH1 0xE0 SHL PUSH1 0x0 MSTORE PUSH1 0x32 PUSH1 0x4 MSTORE PUSH1 0x24 PUSH1 0x0 REVERT JUMPDEST PUSH1 0x20 MUL PUSH1 0x20 ADD ADD MLOAD PUSH4 0xFFFFFFFF AND DUP2 PUSH4 0xFFFFFFFF AND GT PUSH2 0x22D1 JUMPI PUSH1 0x40 MLOAD PUSH3 0x461BCD PUSH1 0xE5 SHL DUP2 MSTORE PUSH1 0x20 PUSH1 0x4 DUP3 ADD MSTORE PUSH1 0x51 PUSH1 0x24 DUP3 ADD MSTORE PUSH32 0x596F757220737461727465727320617265206E6F74206F6C6420656E6F756768 PUSH1 0x44 DUP3 ADD MSTORE PUSH32 0x2C20706C65617365207573652074686520737461727465727320726571756972 PUSH1 0x64 DUP3 ADD MSTORE PUSH17 0x6564206279207468697320726563697065 PUSH1 0x78 SHL PUSH1 0x84 DUP3 ADD MSTORE PUSH1 0xA4 ADD PUSH2 0x777 JUMP JUMPDEST TIMESTAMP PUSH1 0x7 PUSH1 0x0 DUP9 DUP6 DUP2 MLOAD DUP2 LT PUSH2 0x22F6 JUMPI PUSH4 0x4E487B71 PUSH1 0xE0 SHL PUSH1 0x0 MSTORE PUSH1 0x32 PUSH1 0x4 MSTORE PUSH1 0x24 PUSH1 0x0 REVERT JUMPDEST PUSH1 0x20 SWAP1 DUP2 MUL SWAP2 SWAP1 SWAP2 ADD DUP2 ADD MLOAD DUP3 MSTORE DUP2 ADD SWAP2 SWAP1 SWAP2 MSTORE PUSH1 0x40 ADD PUSH1 0x0 KECCAK256 SLOAD PUSH4 0xFFFFFFFF AND LT ISZERO PUSH2 0x2397 JUMPI PUSH1 0x40 MLOAD PUSH3 0x461BCD PUSH1 0xE5 SHL DUP2 MSTORE PUSH1 0x20 PUSH1 0x4 DUP3 ADD MSTORE PUSH1 0x43 PUSH1 0x24 DUP3 ADD MSTORE PUSH32 0x596F757220737461727465727320617265206E6F7420616C6C20616C6976652C PUSH1 0x44 DUP3 ADD MSTORE PUSH32 0x20796F75206D757374207573652061206C6976696E6720696E6772656469656E PUSH1 0x64 DUP3 ADD MSTORE PUSH3 0x742121 PUSH1 0xE8 SHL PUSH1 0x84 DUP3 ADD MSTORE PUSH1 0xA4 ADD PUSH2 0x777 JUMP JUMPDEST PUSH2 0x23BB CALLER DUP8 DUP5 DUP2 MLOAD DUP2 LT PUSH2 0xEDA JUMPI PUSH4 0x4E487B71 PUSH1 0xE0 SHL PUSH1 0x0 MSTORE PUSH1 0x32 PUSH1 0x4 MSTORE PUSH1 0x24 PUSH1 0x0 REVERT JUMPDEST PUSH1 0x1 EQ PUSH2 0x23DA JUMPI PUSH1 0x40 MLOAD PUSH3 0x461BCD PUSH1 0xE5 SHL DUP2 MSTORE PUSH1 0x4 ADD PUSH2 0x777 SWAP1 PUSH2 0x330F JUMP JUMPDEST PUSH1 0x1 DUP4 DUP4 DUP2 MLOAD DUP2 LT PUSH2 0x23FC JUMPI PUSH4 0x4E487B71 PUSH1 0xE0 SHL PUSH1 0x0 MSTORE PUSH1 0x32 PUSH1 0x4 MSTORE PUSH1 0x24 PUSH1 0x0 REVERT JUMPDEST PUSH1 0x20 SWAP1 DUP2 MUL SWAP2 SWAP1 SWAP2 ADD ADD MSTORE POP DUP1 PUSH2 0x2412 DUP2 PUSH2 0x35F8 JUMP JUMPDEST SWAP2 POP POP PUSH2 0x21A4 JUMP JUMPDEST POP PUSH2 0x2426 CALLER DUP6 DUP4 PUSH2 0x28A5 JUMP JUMPDEST PUSH2 0x2434 CALLER DUP7 PUSH1 0x20 ADD MLOAD PUSH2 0x1D58 JUMP JUMPDEST POP PUSH1 0x1 SWAP5 SWAP4 POP POP POP POP JUMP JUMPDEST PUSH1 0x1 PUSH1 0x1 PUSH1 0xA0 SHL SUB DUP4 AND PUSH2 0x2465 JUMPI PUSH1 0x40 MLOAD PUSH3 0x461BCD PUSH1 0xE5 SHL DUP2 MSTORE PUSH1 0x4 ADD PUSH2 0x777 SWAP1 PUSH2 0x33D7 JUMP JUMPDEST CALLER PUSH2 0x2495 DUP2 DUP6 PUSH1 0x0 PUSH2 0x2476 DUP8 PUSH2 0x2588 JUMP JUMPDEST PUSH2 0x247F DUP8 PUSH2 0x2588 JUMP JUMPDEST POP POP PUSH1 0x40 DUP1 MLOAD PUSH1 0x20 DUP2 ADD SWAP1 SWAP2 MSTORE PUSH1 0x0 SWAP1 MSTORE POP POP POP JUMP JUMPDEST PUSH1 0x0 DUP4 DUP2 MSTORE PUSH1 0x1 PUSH1 0x20 SWAP1 DUP2 MSTORE PUSH1 0x40 DUP1 DUP4 KECCAK256 PUSH1 0x1 PUSH1 0x1 PUSH1 0xA0 SHL SUB DUP9 AND DUP5 MSTORE SWAP1 SWAP2 MSTORE SWAP1 KECCAK256 SLOAD DUP3 DUP2 LT ISZERO PUSH2 0x24D8 JUMPI PUSH1 0x40 MLOAD PUSH3 0x461BCD PUSH1 0xE5 SHL DUP2 MSTORE PUSH1 0x4 ADD PUSH2 0x777 SWAP1 PUSH2 0x32CB JUMP JUMPDEST PUSH1 0x0 PUSH2 0x24E4 DUP5 DUP4 PUSH2 0x3554 JUMP JUMPDEST PUSH1 0x0 DUP7 DUP2 MSTORE PUSH1 0x1 PUSH1 0x20 SWAP1 DUP2 MSTORE PUSH1 0x40 DUP1 DUP4 KECCAK256 PUSH1 0x1 PUSH1 0x1 PUSH1 0xA0 SHL SUB DUP12 AND DUP5 MSTORE SWAP1 SWAP2 MSTORE SWAP1 KECCAK256 DUP2 SWAP1 SSTORE SWAP1 POP DUP1 PUSH2 0x2534 JUMPI PUSH1 0x1 PUSH1 0x1 PUSH1 0xA0 SHL SUB DUP7 AND PUSH1 0x0 SWAP1 DUP2 MSTORE PUSH1 0x20 DUP2 SWAP1 MSTORE PUSH1 0x40 SWAP1 KECCAK256 PUSH2 0x2532 SWAP1 DUP7 PUSH2 0x1ECA JUMP JUMPDEST POP JUMPDEST PUSH1 0x40 DUP1 MLOAD DUP7 DUP2 MSTORE PUSH1 0x20 DUP2 ADD DUP7 SWAP1 MSTORE PUSH1 0x0 SWAP2 PUSH1 0x1 PUSH1 0x1 PUSH1 0xA0 SHL SUB DUP10 DUP2 AND SWAP3 SWAP1 DUP8 AND SWAP2 PUSH32 0xC3D58168C5AE7397731D063D5BBF3D657854427343F4C083240F7AACAA2D0F62 SWAP2 ADD PUSH1 0x40 MLOAD DUP1 SWAP2 SUB SWAP1 LOG4 POP POP POP POP POP POP JUMP JUMPDEST PUSH1 0x40 DUP1 MLOAD PUSH1 0x1 DUP1 DUP3 MSTORE DUP2 DUP4 ADD SWAP1 SWAP3 MSTORE PUSH1 0x60 SWAP2 PUSH1 0x0 SWAP2 SWAP1 PUSH1 0x20 DUP1 DUP4 ADD SWAP1 DUP1 CALLDATASIZE DUP4 CALLDATACOPY ADD SWAP1 POP POP SWAP1 POP DUP3 DUP2 PUSH1 0x0 DUP2 MLOAD DUP2 LT PUSH2 0x25D0 JUMPI PUSH4 0x4E487B71 PUSH1 0xE0 SHL PUSH1 0x0 MSTORE PUSH1 0x32 PUSH1 0x4 MSTORE PUSH1 0x24 PUSH1 0x0 REVERT JUMPDEST PUSH1 0x20 SWAP1 DUP2 MUL SWAP2 SWAP1 SWAP2 ADD ADD MSTORE SWAP3 SWAP2 POP POP JUMP JUMPDEST PUSH1 0x1 PUSH1 0x1 PUSH1 0xA0 SHL SUB DUP5 AND EXTCODESIZE ISZERO PUSH2 0xD17 JUMPI PUSH1 0x40 MLOAD PUSH4 0xF23A6E61 PUSH1 0xE0 SHL DUP2 MSTORE PUSH1 0x1 PUSH1 0x1 PUSH1 0xA0 SHL SUB DUP6 AND SWAP1 PUSH4 0xF23A6E61 SWAP1 PUSH2 0x2625 SWAP1 DUP10 SWAP1 DUP10 SWAP1 DUP9 SWAP1 DUP9 SWAP1 DUP9 SWAP1 PUSH1 0x4 ADD PUSH2 0x31EA JUMP JUMPDEST PUSH1 0x20 PUSH1 0x40 MLOAD DUP1 DUP4 SUB DUP2 PUSH1 0x0 DUP8 DUP1 EXTCODESIZE ISZERO DUP1 ISZERO PUSH2 0x263F JUMPI PUSH1 0x0 DUP1 REVERT JUMPDEST POP GAS CALL SWAP3 POP POP POP DUP1 ISZERO PUSH2 0x266F JUMPI POP PUSH1 0x40 DUP1 MLOAD PUSH1 0x1F RETURNDATASIZE SWAP1 DUP2 ADD PUSH1 0x1F NOT AND DUP3 ADD SWAP1 SWAP3 MSTORE PUSH2 0x266C SWAP2 DUP2 ADD SWAP1 PUSH2 0x2F5E JUMP JUMPDEST PUSH1 0x1 JUMPDEST PUSH2 0x267B JUMPI PUSH2 0x1F70 PUSH2 0x363F JUMP JUMPDEST PUSH1 0x1 PUSH1 0x1 PUSH1 0xE0 SHL SUB NOT DUP2 AND PUSH4 0xF23A6E61 PUSH1 0xE0 SHL EQ PUSH2 0x1BD7 JUMPI PUSH1 0x40 MLOAD PUSH3 0x461BCD PUSH1 0xE5 SHL DUP2 MSTORE PUSH1 0x4 ADD PUSH2 0x777 SWAP1 PUSH2 0x3283 JUMP JUMPDEST PUSH1 0x0 DUP2 DUP2 MSTORE PUSH1 0x1 DUP4 ADD PUSH1 0x20 MSTORE PUSH1 0x40 DUP2 KECCAK256 SLOAD PUSH2 0x26F2 JUMPI POP DUP2 SLOAD PUSH1 0x1 DUP2 DUP2 ADD DUP5 SSTORE PUSH1 0x0 DUP5 DUP2 MSTORE PUSH1 0x20 DUP1 DUP3 KECCAK256 SWAP1 SWAP4 ADD DUP5 SWAP1 SSTORE DUP5 SLOAD DUP5 DUP3 MSTORE DUP3 DUP7 ADD SWAP1 SWAP4 MSTORE PUSH1 0x40 SWAP1 KECCAK256 SWAP2 SWAP1 SWAP2 SSTORE PUSH2 0x7A5 JUMP JUMPDEST POP PUSH1 0x0 PUSH2 0x7A5 JUMP JUMPDEST PUSH1 0x0 DUP2 DUP2 MSTORE PUSH1 0x1 DUP4 ADD PUSH1 0x20 MSTORE PUSH1 0x40 DUP2 KECCAK256 SLOAD DUP1 ISZERO PUSH2 0x2807 JUMPI PUSH1 0x0 PUSH2 0x271E PUSH1 0x1 DUP4 PUSH2 0x3554 JUMP JUMPDEST DUP6 SLOAD SWAP1 SWAP2 POP PUSH1 0x0 SWAP1 PUSH2 0x2732 SWAP1 PUSH1 0x1 SWAP1 PUSH2 0x3554 JUMP JUMPDEST SWAP1 POP PUSH1 0x0 DUP7 PUSH1 0x0 ADD DUP3 DUP2 SLOAD DUP2 LT PUSH2 0x2759 JUMPI PUSH4 0x4E487B71 PUSH1 0xE0 SHL PUSH1 0x0 MSTORE PUSH1 0x32 PUSH1 0x4 MSTORE PUSH1 0x24 PUSH1 0x0 REVERT JUMPDEST SWAP1 PUSH1 0x0 MSTORE PUSH1 0x20 PUSH1 0x0 KECCAK256 ADD SLOAD SWAP1 POP DUP1 DUP8 PUSH1 0x0 ADD DUP5 DUP2 SLOAD DUP2 LT PUSH2 0x278A JUMPI PUSH4 0x4E487B71 PUSH1 0xE0 SHL PUSH1 0x0 MSTORE PUSH1 0x32 PUSH1 0x4 MSTORE PUSH1 0x24 PUSH1 0x0 REVERT JUMPDEST PUSH1 0x0 SWAP2 DUP3 MSTORE PUSH1 0x20 DUP1 DUP4 KECCAK256 SWAP1 SWAP2 ADD SWAP3 SWAP1 SWAP3 SSTORE DUP3 DUP2 MSTORE PUSH1 0x1 DUP10 ADD SWAP1 SWAP2 MSTORE PUSH1 0x40 SWAP1 KECCAK256 DUP5 SWAP1 SSTORE DUP7 SLOAD DUP8 SWAP1 DUP1 PUSH2 0x27CB JUMPI PUSH4 0x4E487B71 PUSH1 0xE0 SHL PUSH1 0x0 MSTORE PUSH1 0x31 PUSH1 0x4 MSTORE PUSH1 0x24 PUSH1 0x0 REVERT JUMPDEST PUSH1 0x1 SWAP1 SUB DUP2 DUP2 SWAP1 PUSH1 0x0 MSTORE PUSH1 0x20 PUSH1 0x0 KECCAK256 ADD PUSH1 0x0 SWAP1 SSTORE SWAP1 SSTORE DUP7 PUSH1 0x1 ADD PUSH1 0x0 DUP8 DUP2 MSTORE PUSH1 0x20 ADD SWAP1 DUP2 MSTORE PUSH1 0x20 ADD PUSH1 0x0 KECCAK256 PUSH1 0x0 SWAP1 SSTORE PUSH1 0x1 SWAP5 POP POP POP POP POP PUSH2 0x7A5 JUMP JUMPDEST PUSH1 0x0 SWAP2 POP POP PUSH2 0x7A5 JUMP JUMPDEST DUP2 SLOAD PUSH1 0x0 SWAP1 DUP3 LT PUSH2 0x286F JUMPI PUSH1 0x40 MLOAD PUSH3 0x461BCD PUSH1 0xE5 SHL DUP2 MSTORE PUSH1 0x20 PUSH1 0x4 DUP3 ADD MSTORE PUSH1 0x22 PUSH1 0x24 DUP3 ADD MSTORE PUSH32 0x456E756D657261626C655365743A20696E646578206F7574206F6620626F756E PUSH1 0x44 DUP3 ADD MSTORE PUSH2 0x6473 PUSH1 0xF0 SHL PUSH1 0x64 DUP3 ADD MSTORE PUSH1 0x84 ADD PUSH2 0x777 JUMP JUMPDEST DUP3 PUSH1 0x0 ADD DUP3 DUP2 SLOAD DUP2 LT PUSH2 0x2892 JUMPI PUSH4 0x4E487B71 PUSH1 0xE0 SHL PUSH1 0x0 MSTORE PUSH1 0x32 PUSH1 0x4 MSTORE PUSH1 0x24 PUSH1 0x0 REVERT JUMPDEST SWAP1 PUSH1 0x0 MSTORE PUSH1 0x20 PUSH1 0x0 KECCAK256 ADD SLOAD SWAP1 POP SWAP3 SWAP2 POP POP JUMP JUMPDEST PUSH1 0x1 PUSH1 0x1 PUSH1 0xA0 SHL SUB DUP4 AND PUSH2 0x28CB JUMPI PUSH1 0x40 MLOAD PUSH3 0x461BCD PUSH1 0xE5 SHL DUP2 MSTORE PUSH1 0x4 ADD PUSH2 0x777 SWAP1 PUSH2 0x33D7 JUMP JUMPDEST DUP1 MLOAD DUP3 MLOAD EQ PUSH2 0x28EC JUMPI PUSH1 0x40 MLOAD PUSH3 0x461BCD PUSH1 0xE5 SHL DUP2 MSTORE PUSH1 0x4 ADD PUSH2 0x777 SWAP1 PUSH2 0x3464 JUMP JUMPDEST PUSH1 0x40 DUP1 MLOAD PUSH1 0x20 DUP2 ADD SWAP1 SWAP2 MSTORE PUSH1 0x0 SWAP1 DUP2 SWAP1 MSTORE CALLER SWAP1 JUMPDEST DUP4 MLOAD DUP2 LT ISZERO PUSH2 0x2A19 JUMPI PUSH1 0x0 DUP5 DUP3 DUP2 MLOAD DUP2 LT PUSH2 0x292B JUMPI PUSH4 0x4E487B71 PUSH1 0xE0 SHL PUSH1 0x0 MSTORE PUSH1 0x32 PUSH1 0x4 MSTORE PUSH1 0x24 PUSH1 0x0 REVERT JUMPDEST PUSH1 0x20 MUL PUSH1 0x20 ADD ADD MLOAD SWAP1 POP PUSH1 0x0 DUP5 DUP4 DUP2 MLOAD DUP2 LT PUSH2 0x2957 JUMPI PUSH4 0x4E487B71 PUSH1 0xE0 SHL PUSH1 0x0 MSTORE PUSH1 0x32 PUSH1 0x4 MSTORE PUSH1 0x24 PUSH1 0x0 REVERT JUMPDEST PUSH1 0x20 SWAP1 DUP2 MUL SWAP2 SWAP1 SWAP2 ADD DUP2 ADD MLOAD PUSH1 0x0 DUP5 DUP2 MSTORE PUSH1 0x1 DUP4 MSTORE PUSH1 0x40 DUP1 DUP3 KECCAK256 PUSH1 0x1 PUSH1 0x1 PUSH1 0xA0 SHL SUB DUP13 AND DUP4 MSTORE SWAP1 SWAP4 MSTORE SWAP2 DUP3 KECCAK256 SLOAD SWAP1 SWAP3 POP SWAP1 PUSH2 0x2992 DUP4 DUP4 PUSH2 0x3554 JUMP JUMPDEST SWAP1 POP DUP3 DUP3 LT ISZERO PUSH2 0x29B4 JUMPI PUSH1 0x40 MLOAD PUSH3 0x461BCD PUSH1 0xE5 SHL DUP2 MSTORE PUSH1 0x4 ADD PUSH2 0x777 SWAP1 PUSH2 0x32CB JUMP JUMPDEST PUSH1 0x0 DUP5 DUP2 MSTORE PUSH1 0x1 PUSH1 0x20 SWAP1 DUP2 MSTORE PUSH1 0x40 DUP1 DUP4 KECCAK256 PUSH1 0x1 PUSH1 0x1 PUSH1 0xA0 SHL SUB DUP14 AND DUP5 MSTORE SWAP1 SWAP2 MSTORE SWAP1 KECCAK256 DUP2 SWAP1 SSTORE DUP1 PUSH2 0x2A02 JUMPI PUSH1 0x1 PUSH1 0x1 PUSH1 0xA0 SHL SUB DUP10 AND PUSH1 0x0 SWAP1 DUP2 MSTORE PUSH1 0x20 DUP2 SWAP1 MSTORE PUSH1 0x40 SWAP1 KECCAK256 PUSH2 0x2A00 SWAP1 DUP6 PUSH2 0x1ECA JUMP JUMPDEST POP JUMPDEST POP POP POP POP DUP1 DUP1 PUSH2 0x2A11 SWAP1 PUSH2 0x35F8 JUMP JUMPDEST SWAP2 POP POP PUSH2 0x2900 JUMP JUMPDEST POP PUSH1 0x0 PUSH1 0x1 PUSH1 0x1 PUSH1 0xA0 SHL SUB AND DUP5 PUSH1 0x1 PUSH1 0x1 PUSH1 0xA0 SHL SUB AND DUP3 PUSH1 0x1 PUSH1 0x1 PUSH1 0xA0 SHL SUB AND PUSH32 0x4A39DC06D4C0DBC64B70AF90FD698A233A518AA5D07E595D983B8C0526C8F7FB DUP7 DUP7 PUSH1 0x40 MLOAD PUSH2 0x2A6A SWAP3 SWAP2 SWAP1 PUSH2 0x3242 JUMP JUMPDEST PUSH1 0x40 MLOAD DUP1 SWAP2 SUB SWAP1 LOG4 POP POP POP POP JUMP JUMPDEST DUP3 DUP1 SLOAD PUSH2 0x2A84 SWAP1 PUSH2 0x3590 JUMP JUMPDEST SWAP1 PUSH1 0x0 MSTORE PUSH1 0x20 PUSH1 0x0 KECCAK256 SWAP1 PUSH1 0x1F ADD PUSH1 0x20 SWAP1 DIV DUP2 ADD SWAP3 DUP3 PUSH2 0x2AA6 JUMPI PUSH1 0x0 DUP6 SSTORE PUSH2 0x2AEC JUMP JUMPDEST DUP3 PUSH1 0x1F LT PUSH2 0x2ABF JUMPI DUP1 MLOAD PUSH1 0xFF NOT AND DUP4 DUP1 ADD OR DUP6 SSTORE PUSH2 0x2AEC JUMP JUMPDEST DUP3 DUP1 ADD PUSH1 0x1 ADD DUP6 SSTORE DUP3 ISZERO PUSH2 0x2AEC JUMPI SWAP2 DUP3 ADD JUMPDEST DUP3 DUP2 GT ISZERO PUSH2 0x2AEC JUMPI DUP3 MLOAD DUP3 SSTORE SWAP2 PUSH1 0x20 ADD SWAP2 SWAP1 PUSH1 0x1 ADD SWAP1 PUSH2 0x2AD1 JUMP JUMPDEST POP PUSH2 0x2AF8 SWAP3 SWAP2 POP PUSH2 0x2BA2 JUMP JUMPDEST POP SWAP1 JUMP JUMPDEST DUP3 DUP1 SLOAD DUP3 DUP3 SSTORE SWAP1 PUSH1 0x0 MSTORE PUSH1 0x20 PUSH1 0x0 KECCAK256 SWAP1 PUSH1 0x7 ADD PUSH1 0x8 SWAP1 DIV DUP2 ADD SWAP3 DUP3 ISZERO PUSH2 0x2AEC JUMPI SWAP2 PUSH1 0x20 MUL DUP3 ADD PUSH1 0x0 JUMPDEST DUP4 DUP3 GT ISZERO PUSH2 0x2B69 JUMPI DUP4 MLOAD DUP4 DUP3 PUSH2 0x100 EXP DUP2 SLOAD DUP2 PUSH4 0xFFFFFFFF MUL NOT AND SWAP1 DUP4 PUSH4 0xFFFFFFFF AND MUL OR SWAP1 SSTORE POP SWAP3 PUSH1 0x20 ADD SWAP3 PUSH1 0x4 ADD PUSH1 0x20 DUP2 PUSH1 0x3 ADD DIV SWAP3 DUP4 ADD SWAP3 PUSH1 0x1 SUB MUL PUSH2 0x2B25 JUMP JUMPDEST DUP1 ISZERO PUSH2 0x2B99 JUMPI DUP3 DUP2 PUSH2 0x100 EXP DUP2 SLOAD SWAP1 PUSH4 0xFFFFFFFF MUL NOT AND SWAP1 SSTORE PUSH1 0x4 ADD PUSH1 0x20 DUP2 PUSH1 0x3 ADD DIV SWAP3 DUP4 ADD SWAP3 PUSH1 0x1 SUB MUL PUSH2 0x2B69 JUMP JUMPDEST POP POP PUSH2 0x2AF8 SWAP3 SWAP2 POP JUMPDEST JUMPDEST DUP1 DUP3 GT ISZERO PUSH2 0x2AF8 JUMPI PUSH1 0x0 DUP2 SSTORE PUSH1 0x1 ADD PUSH2 0x2BA3 JUMP JUMPDEST PUSH1 0x0 PUSH8 0xFFFFFFFFFFFFFFFF DUP4 GT ISZERO PUSH2 0x2BD1 JUMPI PUSH2 0x2BD1 PUSH2 0x3629 JUMP JUMPDEST PUSH1 0x40 MLOAD PUSH2 0x2BE8 PUSH1 0x1F DUP6 ADD PUSH1 0x1F NOT AND PUSH1 0x20 ADD DUP3 PUSH2 0x35CB JUMP JUMPDEST DUP1 SWAP2 POP DUP4 DUP2 MSTORE DUP5 DUP5 DUP5 ADD GT ISZERO PUSH2 0x2BFD JUMPI PUSH1 0x0 DUP1 REVERT JUMPDEST DUP4 DUP4 PUSH1 0x20 DUP4 ADD CALLDATACOPY PUSH1 0x0 PUSH1 0x20 DUP6 DUP4 ADD ADD MSTORE POP SWAP4 SWAP3 POP POP POP JUMP JUMPDEST DUP1 CALLDATALOAD PUSH1 0x1 PUSH1 0x1 PUSH1 0xA0 SHL SUB DUP2 AND DUP2 EQ PUSH2 0x7FA JUMPI PUSH1 0x0 DUP1 REVERT JUMPDEST PUSH1 0x0 DUP3 PUSH1 0x1F DUP4 ADD SLT PUSH2 0x2C3C JUMPI DUP1 DUP2 REVERT JUMPDEST DUP2 CALLDATALOAD PUSH1 0x20 PUSH2 0x2C49 DUP3 PUSH2 0x34AC JUMP JUMPDEST PUSH1 0x40 MLOAD PUSH2 0x2C56 DUP3 DUP3 PUSH2 0x35CB JUMP JUMPDEST DUP4 DUP2 MSTORE DUP3 DUP2 ADD SWAP2 POP DUP6 DUP4 ADD PUSH1 0x5 DUP6 SWAP1 SHL DUP8 ADD DUP5 ADD DUP9 LT ISZERO PUSH2 0x2C75 JUMPI DUP6 DUP7 REVERT JUMPDEST DUP6 JUMPDEST DUP6 DUP2 LT ISZERO PUSH2 0x2C93 JUMPI DUP2 CALLDATALOAD DUP5 MSTORE SWAP3 DUP5 ADD SWAP3 SWAP1 DUP5 ADD SWAP1 PUSH1 0x1 ADD PUSH2 0x2C77 JUMP JUMPDEST POP SWAP1 SWAP8 SWAP7 POP POP POP POP POP POP POP JUMP JUMPDEST PUSH1 0x0 DUP3 PUSH1 0x1F DUP4 ADD SLT PUSH2 0x2CB0 JUMPI DUP1 DUP2 REVERT JUMPDEST PUSH2 0xD41 DUP4 DUP4 CALLDATALOAD PUSH1 0x20 DUP6 ADD PUSH2 0x2BB7 JUMP JUMPDEST PUSH1 0x0 PUSH1 0x20 DUP3 DUP5 SUB SLT ISZERO PUSH2 0x2CD0 JUMPI DUP1 DUP2 REVERT JUMPDEST PUSH2 0xD41 DUP3 PUSH2 0x2C15 JUMP JUMPDEST PUSH1 0x0 DUP1 PUSH1 0x40 DUP4 DUP6 SUB SLT ISZERO PUSH2 0x2CEB JUMPI DUP1 DUP2 REVERT JUMPDEST PUSH2 0x2CF4 DUP4 PUSH2 0x2C15 JUMP JUMPDEST SWAP2 POP PUSH2 0x2D02 PUSH1 0x20 DUP5 ADD PUSH2 0x2C15 JUMP JUMPDEST SWAP1 POP SWAP3 POP SWAP3 SWAP1 POP JUMP JUMPDEST PUSH1 0x0 DUP1 PUSH1 0x0 DUP1 PUSH1 0x0 PUSH1 0xA0 DUP7 DUP9 SUB SLT ISZERO PUSH2 0x2D22 JUMPI DUP1 DUP2 REVERT JUMPDEST PUSH2 0x2D2B DUP7 PUSH2 0x2C15 JUMP JUMPDEST SWAP5 POP PUSH2 0x2D39 PUSH1 0x20 DUP8 ADD PUSH2 0x2C15 JUMP JUMPDEST SWAP4 POP PUSH1 0x40 DUP7 ADD CALLDATALOAD PUSH8 0xFFFFFFFFFFFFFFFF DUP1 DUP3 GT ISZERO PUSH2 0x2D55 JUMPI DUP3 DUP4 REVERT JUMPDEST PUSH2 0x2D61 DUP10 DUP4 DUP11 ADD PUSH2 0x2C2C JUMP JUMPDEST SWAP5 POP PUSH1 0x60 DUP9 ADD CALLDATALOAD SWAP2 POP DUP1 DUP3 GT ISZERO PUSH2 0x2D76 JUMPI DUP3 DUP4 REVERT JUMPDEST PUSH2 0x2D82 DUP10 DUP4 DUP11 ADD PUSH2 0x2C2C JUMP JUMPDEST SWAP4 POP PUSH1 0x80 DUP9 ADD CALLDATALOAD SWAP2 POP DUP1 DUP3 GT ISZERO PUSH2 0x2D97 JUMPI DUP3 DUP4 REVERT JUMPDEST POP PUSH2 0x2DA4 DUP9 DUP3 DUP10 ADD PUSH2 0x2CA0 JUMP JUMPDEST SWAP2 POP POP SWAP3 SWAP6 POP SWAP3 SWAP6 SWAP1 SWAP4 POP JUMP JUMPDEST PUSH1 0x0 DUP1 PUSH1 0x0 DUP1 PUSH1 0x0 PUSH1 0xA0 DUP7 DUP9 SUB SLT ISZERO PUSH2 0x2DC8 JUMPI DUP1 DUP2 REVERT JUMPDEST PUSH2 0x2DD1 DUP7 PUSH2 0x2C15 JUMP JUMPDEST SWAP5 POP PUSH2 0x2DDF PUSH1 0x20 DUP8 ADD PUSH2 0x2C15 JUMP JUMPDEST SWAP4 POP PUSH1 0x40 DUP7 ADD CALLDATALOAD SWAP3 POP PUSH1 0x60 DUP7 ADD CALLDATALOAD SWAP2 POP PUSH1 0x80 DUP7 ADD CALLDATALOAD PUSH8 0xFFFFFFFFFFFFFFFF DUP2 GT ISZERO PUSH2 0x2E08 JUMPI DUP2 DUP3 REVERT JUMPDEST PUSH2 0x2DA4 DUP9 DUP3 DUP10 ADD PUSH2 0x2CA0 JUMP JUMPDEST PUSH1 0x0 DUP1 PUSH1 0x40 DUP4 DUP6 SUB SLT ISZERO PUSH2 0x2E26 JUMPI DUP2 DUP3 REVERT JUMPDEST PUSH2 0x2E2F DUP4 PUSH2 0x2C15 JUMP JUMPDEST SWAP2 POP PUSH1 0x20 DUP4 ADD CALLDATALOAD DUP1 ISZERO ISZERO DUP2 EQ PUSH2 0x2E43 JUMPI DUP2 DUP3 REVERT JUMPDEST DUP1 SWAP2 POP POP SWAP3 POP SWAP3 SWAP1 POP JUMP JUMPDEST PUSH1 0x0 DUP1 PUSH1 0x40 DUP4 DUP6 SUB SLT ISZERO PUSH2 0x2E60 JUMPI DUP1 DUP2 REVERT JUMPDEST PUSH2 0x2E69 DUP4 PUSH2 0x2C15 JUMP JUMPDEST SWAP5 PUSH1 0x20 SWAP4 SWAP1 SWAP4 ADD CALLDATALOAD SWAP4 POP POP POP JUMP JUMPDEST PUSH1 0x0 DUP1 PUSH1 0x40 DUP4 DUP6 SUB SLT ISZERO PUSH2 0x2E89 JUMPI DUP2 DUP3 REVERT JUMPDEST DUP3 CALLDATALOAD PUSH8 0xFFFFFFFFFFFFFFFF DUP1 DUP3 GT ISZERO PUSH2 0x2EA0 JUMPI DUP4 DUP5 REVERT JUMPDEST DUP2 DUP6 ADD SWAP2 POP DUP6 PUSH1 0x1F DUP4 ADD SLT PUSH2 0x2EB3 JUMPI DUP4 DUP5 REVERT JUMPDEST DUP2 CALLDATALOAD PUSH1 0x20 PUSH2 0x2EC0 DUP3 PUSH2 0x34AC JUMP JUMPDEST PUSH1 0x40 MLOAD PUSH2 0x2ECD DUP3 DUP3 PUSH2 0x35CB JUMP JUMPDEST DUP4 DUP2 MSTORE DUP3 DUP2 ADD SWAP2 POP DUP6 DUP4 ADD PUSH1 0x5 DUP6 SWAP1 SHL DUP8 ADD DUP5 ADD DUP12 LT ISZERO PUSH2 0x2EEC JUMPI DUP9 DUP10 REVERT JUMPDEST DUP9 SWAP7 POP JUMPDEST DUP5 DUP8 LT ISZERO PUSH2 0x2F15 JUMPI PUSH2 0x2F01 DUP2 PUSH2 0x2C15 JUMP JUMPDEST DUP4 MSTORE PUSH1 0x1 SWAP7 SWAP1 SWAP7 ADD SWAP6 SWAP2 DUP4 ADD SWAP2 DUP4 ADD PUSH2 0x2EF0 JUMP JUMPDEST POP SWAP7 POP POP DUP7 ADD CALLDATALOAD SWAP3 POP POP DUP1 DUP3 GT ISZERO PUSH2 0x2F2B JUMPI DUP3 DUP4 REVERT JUMPDEST POP PUSH2 0x2F38 DUP6 DUP3 DUP7 ADD PUSH2 0x2C2C JUMP JUMPDEST SWAP2 POP POP SWAP3 POP SWAP3 SWAP1 POP JUMP JUMPDEST PUSH1 0x0 PUSH1 0x20 DUP3 DUP5 SUB SLT ISZERO PUSH2 0x2F53 JUMPI DUP1 DUP2 REVERT JUMPDEST DUP2 CALLDATALOAD PUSH2 0xD41 DUP2 PUSH2 0x36E8 JUMP JUMPDEST PUSH1 0x0 PUSH1 0x20 DUP3 DUP5 SUB SLT ISZERO PUSH2 0x2F6F JUMPI DUP1 DUP2 REVERT JUMPDEST DUP2 MLOAD PUSH2 0xD41 DUP2 PUSH2 0x36E8 JUMP JUMPDEST PUSH1 0x0 DUP1 PUSH1 0x0 DUP1 PUSH1 0x80 DUP6 DUP8 SUB SLT ISZERO PUSH2 0x2F8F JUMPI DUP2 DUP3 REVERT JUMPDEST DUP5 CALLDATALOAD PUSH8 0xFFFFFFFFFFFFFFFF DUP1 DUP3 GT ISZERO PUSH2 0x2FA6 JUMPI DUP4 DUP5 REVERT JUMPDEST DUP2 DUP8 ADD SWAP2 POP DUP8 PUSH1 0x1F DUP4 ADD SLT PUSH2 0x2FB9 JUMPI DUP4 DUP5 REVERT JUMPDEST PUSH1 0x20 PUSH2 0x2FC9 DUP10 DUP5 CALLDATALOAD DUP4 DUP7 ADD PUSH2 0x2BB7 JUMP JUMPDEST SWAP7 POP DUP1 DUP9 ADD CALLDATALOAD SWAP6 POP PUSH1 0x40 DUP9 ADD CALLDATALOAD SWAP3 POP DUP2 DUP4 GT ISZERO PUSH2 0x2FE4 JUMPI DUP5 DUP6 REVERT JUMPDEST DUP3 DUP9 ADD SWAP3 POP DUP9 PUSH1 0x1F DUP5 ADD SLT PUSH2 0x2FF7 JUMPI DUP5 DUP6 REVERT JUMPDEST DUP3 CALLDATALOAD PUSH2 0x3002 DUP2 PUSH2 0x34AC JUMP JUMPDEST PUSH1 0x40 MLOAD PUSH2 0x300F DUP3 DUP3 PUSH2 0x35CB JUMP JUMPDEST DUP3 DUP2 MSTORE DUP4 DUP2 ADD SWAP2 POP DUP6 DUP5 ADD PUSH1 0x5 DUP5 SWAP1 SHL DUP8 ADD DUP6 ADD DUP14 LT ISZERO PUSH2 0x302E JUMPI DUP9 DUP10 REVERT JUMPDEST DUP9 SWAP7 POP JUMPDEST DUP4 DUP8 LT ISZERO PUSH2 0x3061 JUMPI DUP1 CALLDATALOAD PUSH4 0xFFFFFFFF DUP2 AND DUP2 EQ PUSH2 0x304D JUMPI DUP10 DUP11 REVERT JUMPDEST DUP4 MSTORE PUSH1 0x1 SWAP7 SWAP1 SWAP7 ADD SWAP6 SWAP2 DUP5 ADD SWAP2 DUP5 ADD PUSH2 0x3032 JUMP JUMPDEST POP SWAP7 POP POP POP POP PUSH1 0x60 DUP8 ADD CALLDATALOAD SWAP2 POP DUP1 DUP3 GT ISZERO PUSH2 0x307A JUMPI DUP3 DUP4 REVERT JUMPDEST POP PUSH2 0x3087 DUP8 DUP3 DUP9 ADD PUSH2 0x2C2C JUMP JUMPDEST SWAP2 POP POP SWAP3 SWAP6 SWAP2 SWAP5 POP SWAP3 POP JUMP JUMPDEST PUSH1 0x0 PUSH1 0x20 DUP3 DUP5 SUB SLT ISZERO PUSH2 0x30A4 JUMPI DUP1 DUP2 REVERT JUMPDEST POP CALLDATALOAD SWAP2 SWAP1 POP JUMP JUMPDEST PUSH1 0x0 DUP1 PUSH1 0x40 DUP4 DUP6 SUB SLT ISZERO PUSH2 0x30BD JUMPI DUP2 DUP3 REVERT JUMPDEST DUP3 CALLDATALOAD SWAP2 POP PUSH1 0x20 DUP4 ADD CALLDATALOAD PUSH8 0xFFFFFFFFFFFFFFFF DUP2 GT ISZERO PUSH2 0x30DA JUMPI DUP2 DUP3 REVERT JUMPDEST PUSH2 0x2F38 DUP6 DUP3 DUP7 ADD PUSH2 0x2C2C JUMP JUMPDEST PUSH1 0x0 DUP1 PUSH1 0x40 DUP4 DUP6 SUB SLT ISZERO PUSH2 0x30F8 JUMPI DUP2 DUP3 REVERT JUMPDEST POP POP DUP1 CALLDATALOAD SWAP3 PUSH1 0x20 SWAP1 SWAP2 ADD CALLDATALOAD SWAP2 POP JUMP JUMPDEST PUSH1 0x0 DUP2 MLOAD DUP1 DUP5 MSTORE PUSH1 0x20 DUP1 DUP6 ADD SWAP5 POP DUP1 DUP5 ADD DUP4 JUMPDEST DUP4 DUP2 LT ISZERO PUSH2 0x3136 JUMPI DUP2 MLOAD DUP8 MSTORE SWAP6 DUP3 ADD SWAP6 SWAP1 DUP3 ADD SWAP1 PUSH1 0x1 ADD PUSH2 0x311A JUMP JUMPDEST POP SWAP5 SWAP6 SWAP5 POP POP POP POP POP JUMP JUMPDEST PUSH1 0x0 DUP2 MLOAD DUP1 DUP5 MSTORE DUP2 JUMPDEST DUP2 DUP2 LT ISZERO PUSH2 0x3166 JUMPI PUSH1 0x20 DUP2 DUP6 ADD DUP2 ADD MLOAD DUP7 DUP4 ADD DUP3 ADD MSTORE ADD PUSH2 0x314A JUMP JUMPDEST DUP2 DUP2 GT ISZERO PUSH2 0x3177 JUMPI DUP3 PUSH1 0x20 DUP4 DUP8 ADD ADD MSTORE JUMPDEST POP PUSH1 0x1F ADD PUSH1 0x1F NOT AND SWAP3 SWAP1 SWAP3 ADD PUSH1 0x20 ADD SWAP3 SWAP2 POP POP JUMP JUMPDEST PUSH1 0x1 PUSH1 0x1 PUSH1 0xA0 SHL SUB DUP7 DUP2 AND DUP3 MSTORE DUP6 AND PUSH1 0x20 DUP3 ADD MSTORE PUSH1 0xA0 PUSH1 0x40 DUP3 ADD DUP2 SWAP1 MSTORE PUSH1 0x0 SWAP1 PUSH2 0x31B8 SWAP1 DUP4 ADD DUP7 PUSH2 0x3107 JUMP JUMPDEST DUP3 DUP2 SUB PUSH1 0x60 DUP5 ADD MSTORE PUSH2 0x31CA DUP2 DUP7 PUSH2 0x3107 JUMP JUMPDEST SWAP1 POP DUP3 DUP2 SUB PUSH1 0x80 DUP5 ADD MSTORE PUSH2 0x31DE DUP2 DUP6 PUSH2 0x3141 JUMP JUMPDEST SWAP9 SWAP8 POP POP POP POP POP POP POP POP JUMP JUMPDEST PUSH1 0x1 PUSH1 0x1 PUSH1 0xA0 SHL SUB DUP7 DUP2 AND DUP3 MSTORE DUP6 AND PUSH1 0x20 DUP3 ADD MSTORE PUSH1 0x40 DUP2 ADD DUP5 SWAP1 MSTORE PUSH1 0x60 DUP2 ADD DUP4 SWAP1 MSTORE PUSH1 0xA0 PUSH1 0x80 DUP3 ADD DUP2 SWAP1 MSTORE PUSH1 0x0 SWAP1 PUSH2 0x3224 SWAP1 DUP4 ADD DUP5 PUSH2 0x3141 JUMP JUMPDEST SWAP8 SWAP7 POP POP POP POP POP POP POP JUMP JUMPDEST PUSH1 0x0 PUSH1 0x20 DUP3 MSTORE PUSH2 0xD41 PUSH1 0x20 DUP4 ADD DUP5 PUSH2 0x3107 JUMP JUMPDEST PUSH1 0x0 PUSH1 0x40 DUP3 MSTORE PUSH2 0x3255 PUSH1 0x40 DUP4 ADD DUP6 PUSH2 0x3107 JUMP JUMPDEST DUP3 DUP2 SUB PUSH1 0x20 DUP5 ADD MSTORE PUSH2 0x3267 DUP2 DUP6 PUSH2 0x3107 JUMP JUMPDEST SWAP6 SWAP5 POP POP POP POP POP JUMP JUMPDEST PUSH1 0x0 PUSH1 0x20 DUP3 MSTORE PUSH2 0xD41 PUSH1 0x20 DUP4 ADD DUP5 PUSH2 0x3141 JUMP JUMPDEST PUSH1 0x20 DUP1 DUP3 MSTORE PUSH1 0x28 SWAP1 DUP3 ADD MSTORE PUSH32 0x455243313135353A204552433131353552656365697665722072656A65637465 PUSH1 0x40 DUP3 ADD MSTORE PUSH8 0x6420746F6B656E73 PUSH1 0xC0 SHL PUSH1 0x60 DUP3 ADD MSTORE PUSH1 0x80 ADD SWAP1 JUMP JUMPDEST PUSH1 0x20 DUP1 DUP3 MSTORE PUSH1 0x24 SWAP1 DUP3 ADD MSTORE PUSH32 0x455243313135353A206275726E20616D6F756E7420657863656564732062616C PUSH1 0x40 DUP3 ADD MSTORE PUSH4 0x616E6365 PUSH1 0xE0 SHL PUSH1 0x60 DUP3 ADD MSTORE PUSH1 0x80 ADD SWAP1 JUMP JUMPDEST PUSH1 0x20 DUP1 DUP3 MSTORE PUSH1 0x57 SWAP1 DUP3 ADD MSTORE PUSH32 0x54686973204964206E756D626572206973206E6F74206173736F636961746564 PUSH1 0x40 DUP3 ADD MSTORE PUSH32 0x2077697468206F6E65206F6620796F75722073746172746572732C20706C6561 PUSH1 0x60 DUP3 ADD MSTORE PUSH32 0x736520747279207769746820612076616C69642069642E000000000000000000 PUSH1 0x80 DUP3 ADD MSTORE PUSH1 0xA0 ADD SWAP1 JUMP JUMPDEST PUSH1 0x20 DUP1 DUP3 MSTORE PUSH1 0x25 SWAP1 DUP3 ADD MSTORE PUSH32 0x455243313135353A207472616E7366657220746F20746865207A65726F206164 PUSH1 0x40 DUP3 ADD MSTORE PUSH5 0x6472657373 PUSH1 0xD8 SHL PUSH1 0x60 DUP3 ADD MSTORE PUSH1 0x80 ADD SWAP1 JUMP JUMPDEST PUSH1 0x20 DUP1 DUP3 MSTORE PUSH1 0x23 SWAP1 DUP3 ADD MSTORE PUSH32 0x455243313135353A206275726E2066726F6D20746865207A65726F2061646472 PUSH1 0x40 DUP3 ADD MSTORE PUSH3 0x657373 PUSH1 0xE8 SHL PUSH1 0x60 DUP3 ADD MSTORE PUSH1 0x80 ADD SWAP1 JUMP JUMPDEST PUSH1 0x20 DUP1 DUP3 MSTORE PUSH1 0x2A SWAP1 DUP3 ADD MSTORE PUSH32 0x455243313135353A20696E73756666696369656E742062616C616E636520666F PUSH1 0x40 DUP3 ADD MSTORE PUSH10 0x39103A3930B739B332B9 PUSH1 0xB1 SHL PUSH1 0x60 DUP3 ADD MSTORE PUSH1 0x80 ADD SWAP1 JUMP JUMPDEST PUSH1 0x20 DUP1 DUP3 MSTORE PUSH1 0x28 SWAP1 DUP3 ADD MSTORE PUSH32 0x455243313135353A2069647320616E6420616D6F756E7473206C656E67746820 PUSH1 0x40 DUP3 ADD MSTORE PUSH8 0xDAD2E6DAC2E8C6D PUSH1 0xC3 SHL PUSH1 0x60 DUP3 ADD MSTORE PUSH1 0x80 ADD SWAP1 JUMP JUMPDEST PUSH1 0x0 PUSH8 0xFFFFFFFFFFFFFFFF DUP3 GT ISZERO PUSH2 0x34C6 JUMPI PUSH2 0x34C6 PUSH2 0x3629 JUMP JUMPDEST POP PUSH1 0x5 SHL PUSH1 0x20 ADD SWAP1 JUMP JUMPDEST PUSH1 0x0 DUP3 NOT DUP3 GT ISZERO PUSH2 0x34E3 JUMPI PUSH2 0x34E3 PUSH2 0x3613 JUMP JUMPDEST POP ADD SWAP1 JUMP JUMPDEST PUSH1 0x0 PUSH4 0xFFFFFFFF DUP1 DUP4 AND DUP2 DUP6 AND DUP1 DUP4 SUB DUP3 GT ISZERO PUSH2 0x3507 JUMPI PUSH2 0x3507 PUSH2 0x3613 JUMP JUMPDEST ADD SWAP5 SWAP4 POP POP POP POP JUMP JUMPDEST PUSH1 0x0 PUSH1 0xFF DUP3 AND PUSH1 0xFF DUP5 AND DUP1 PUSH1 0xFF SUB DUP3 GT ISZERO PUSH2 0x352D JUMPI PUSH2 0x352D PUSH2 0x3613 JUMP JUMPDEST ADD SWAP4 SWAP3 POP POP POP JUMP JUMPDEST PUSH1 0x0 DUP2 PUSH1 0x0 NOT DIV DUP4 GT DUP3 ISZERO ISZERO AND ISZERO PUSH2 0x354F JUMPI PUSH2 0x354F PUSH2 0x3613 JUMP JUMPDEST POP MUL SWAP1 JUMP JUMPDEST PUSH1 0x0 DUP3 DUP3 LT ISZERO PUSH2 0x3566 JUMPI PUSH2 0x3566 PUSH2 0x3613 JUMP JUMPDEST POP SUB SWAP1 JUMP JUMPDEST PUSH1 0x0 PUSH4 0xFFFFFFFF DUP4 DUP2 AND SWAP1 DUP4 AND DUP2 DUP2 LT ISZERO PUSH2 0x3588 JUMPI PUSH2 0x3588 PUSH2 0x3613 JUMP JUMPDEST SUB SWAP4 SWAP3 POP POP POP JUMP JUMPDEST PUSH1 0x1 DUP2 DUP2 SHR SWAP1 DUP3 AND DUP1 PUSH2 0x35A4 JUMPI PUSH1 0x7F DUP3 AND SWAP2 POP JUMPDEST PUSH1 0x20 DUP3 LT DUP2 EQ ISZERO PUSH2 0x35C5 JUMPI PUSH4 0x4E487B71 PUSH1 0xE0 SHL PUSH1 0x0 MSTORE PUSH1 0x22 PUSH1 0x4 MSTORE PUSH1 0x24 PUSH1 0x0 REVERT JUMPDEST POP SWAP2 SWAP1 POP JUMP JUMPDEST PUSH1 0x1F DUP3 ADD PUSH1 0x1F NOT AND DUP2 ADD PUSH8 0xFFFFFFFFFFFFFFFF DUP2 GT DUP3 DUP3 LT OR ISZERO PUSH2 0x35F1 JUMPI PUSH2 0x35F1 PUSH2 0x3629 JUMP JUMPDEST PUSH1 0x40 MSTORE POP POP JUMP JUMPDEST PUSH1 0x0 PUSH1 0x0 NOT DUP3 EQ ISZERO PUSH2 0x360C JUMPI PUSH2 0x360C PUSH2 0x3613 JUMP JUMPDEST POP PUSH1 0x1 ADD SWAP1 JUMP JUMPDEST PUSH4 0x4E487B71 PUSH1 0xE0 SHL PUSH1 0x0 MSTORE PUSH1 0x11 PUSH1 0x4 MSTORE PUSH1 0x24 PUSH1 0x0 REVERT JUMPDEST PUSH4 0x4E487B71 PUSH1 0xE0 SHL PUSH1 0x0 MSTORE PUSH1 0x41 PUSH1 0x4 MSTORE PUSH1 0x24 PUSH1 0x0 REVERT JUMPDEST PUSH1 0x0 PUSH1 0x3 RETURNDATASIZE GT ISZERO PUSH2 0x976 JUMPI PUSH1 0x4 DUP2 DUP3 RETURNDATACOPY MLOAD PUSH1 0xE0 SHR SWAP1 JUMP JUMPDEST PUSH1 0x0 PUSH1 0x44 RETURNDATASIZE LT ISZERO PUSH2 0x3666 JUMPI PUSH2 0x976 JUMP JUMPDEST PUSH1 0x40 MLOAD PUSH1 0x3 NOT RETURNDATASIZE DUP2 ADD PUSH1 0x4 DUP4 RETURNDATACOPY DUP2 MLOAD RETURNDATASIZE PUSH8 0xFFFFFFFFFFFFFFFF DUP2 PUSH1 0x24 DUP5 ADD GT DUP2 DUP5 GT OR ISZERO PUSH2 0x3698 JUMPI POP POP POP POP POP PUSH2 0x976 JUMP JUMPDEST DUP3 DUP6 ADD SWAP2 POP DUP2 MLOAD DUP2 DUP2 GT ISZERO PUSH2 0x36B2 JUMPI POP POP POP POP POP POP PUSH2 0x976 JUMP JUMPDEST DUP5 RETURNDATASIZE DUP8 ADD ADD PUSH1 0x20 DUP3 DUP6 ADD ADD GT ISZERO PUSH2 0x36CE JUMPI POP POP POP POP POP POP PUSH2 0x976 JUMP JUMPDEST PUSH2 0x36DD PUSH1 0x20 DUP3 DUP7 ADD ADD DUP8 PUSH2 0x35CB JUMP JUMPDEST POP SWAP1 SWAP5 POP POP POP POP POP SWAP1 JUMP JUMPDEST PUSH1 0x1 PUSH1 0x1 PUSH1 0xE0 SHL SUB NOT DUP2 AND DUP2 EQ PUSH2 0x36FE JUMPI PUSH1 0x0 DUP1 REVERT JUMPDEST POP JUMP INVALID LOG2 PUSH5 0x6970667358 0x22 SLT KECCAK256 0xE6 0xC9 LOG2 ISZERO 0xAD LOG1 0xCB 0xC4 0xF6 CALL DUP12 0xE4 SWAP9 RETURNDATACOPY 0xE9 0xC2 0xF9 CALLER PUSH4 0x6B9D6CC3 CALLCODE SWAP13 PUSH25 0xEEBF733D992564736F6C634300080300330000000000000000 ","sha1":"ce2227b52de0af13512e6b34861d7d9c77531c45","source":"pragma solidity ^0.8.0;\n\nimport \"./openzeppelin-contracts/contracts/token/ERC1155/ERC1155.sol\";\n\n  \n\ncontract Cafe is ERC1155 {\n    \n    \n    constructor (string memory uri_, uint32 _timescale) public ERC1155(uri_) {\n        _setURI(uri_);\n        timescale = _timescale;\n        devAddress=msg.sender;\n    }\n\n    uint32 timescale;\n    /** @dev Sourdough Struct represents the living sourdough starters\n    _timeOfDeath is the Unix timestamp at which the starter 'dies' and becomes unavailable for use in baking\n    _childCount describes the number of times the starter has been split\n    _creationTime shows when the starter was born! \n    _creator is the person who made the starter\n     */\n\n    struct Sourdough{\n        uint32 _timeOfDeath;\n        uint8 _childCount;\n        uint32 _creationTime;\n        address _creator;\n        bool _beingAutoFed;\n        }\n\n\n\n\n/** @dev Recipe struct represents baked items.  \n_name is the name..must be unique\n_flourRequired is burned when baking the recipe\n_ages is an array of the ages of the required starter ingredients*/\n    struct Recipe{\n        string _name;\n        uint256 _flourRequired;\n        uint32[] _ages;\n        address _creator;\n        uint256 _timesBaked;\n        uint256 _numberEaten;\n        \n    }\n/** @dev flourId denotes the id of the fungible FLOUR token\ndividerIndex separates semi-fungible starter ingredients and semi-fungible baked goods\ngrindCooldown determine whether or not an address can grind flour\n */\n    address public devAddress = address(this);\n    uint256 flourId = 0;\n    uint256 dividerIndex = 57896044618658097711785492504343953926634992332820282019728792003956564819968;\n    mapping (uint256 => Sourdough) Sourdoughs;\n    mapping(address => uint32) grindCooldown;\n    mapping(uint256 => Recipe) BakedGoods;\n    mapping(address => uint256) totalScore;\n    mapping(address => bool) isAutoFeeding;\n/** @dev total stats\n */ \n    uint256 public oldestStarterId;\n    uint32 public oldestStarterAge =0;\n    uint256 public topScore =0;\n    address public leader;\n    uint256 public flourSupply = 0;\n    uint256 public mostUsedRecipe;\n    uint256 public topRecipeScore;\n\n    uint256 public startersCreated = 0;\n    uint256 public itemsBaked = 0;\n    uint256 public recipesPublished = 0;\n\n/** @dev Credits the user 100 FLOUR every 24 hours if submitted\n */\n    function grindFlour() public {\n        require(isAutoFeeding[msg.sender]==false,\"You are already in the bakery, either wait or turn auto feed off!\");\n        require(grindCooldown[msg.sender]<block.timestamp,\"You did this already today!\");\n        _mint(msg.sender,flourId, 100, \"\");\n        flourSupply += 100;\n        grindCooldown[msg.sender] = uint32(block.timestamp + timescale);\n    }\n\n/** @dev Internally used to get rid of flour tokens */\n    function _burnFlour(address account, uint256 amount) internal {\n        require(balanceOf(msg.sender,flourId)>=amount);\n        _burn(account,flourId,amount);\n        flourSupply -= amount;\n    }\n\n/** @dev Makes a new nonfungible starter with age attributes by burning 50 FLOUR */\n    function createStarter() public returns (bool) {\n        _burnFlour(msg.sender,  50);  \n        uint256 tokenId = startersCreated +1; \n        _mint(msg.sender, 0+tokenId, 1,\"\");\n        Sourdough memory sourdough = Sourdough(uint32(block.timestamp + timescale),0,uint32(block.timestamp),msg.sender,false);\n        \n        startersCreated+=1;\n        Sourdoughs[tokenId] = sourdough;\n        return true;\n    \n    }\n/** @dev Burns 50 FLOUR and resets the time of death for your token*/\n    function feedStarter(uint256 tokenId) public returns (bool) {\n        require(balanceOf(msg.sender,tokenId) == 1, \"This Id number is not associated with one of your starters, please try with a valid id.\");\n        require(Sourdoughs[tokenId]._timeOfDeath >= block.timestamp, \"Your starter is dead!  You should have fed it sooner :( .\");\n        _burnFlour(msg.sender, 50);\n        Sourdoughs[tokenId]._timeOfDeath = uint32(block.timestamp + timescale);\n        if(Sourdoughs[tokenId]._beingAutoFed){\n            Sourdoughs[tokenId]._beingAutoFed==false;\n        }\n        uint32 currentAge = uint32(block.timestamp) - Sourdoughs[tokenId]._creationTime;\n\n        if(currentAge > oldestStarterAge){\n            oldestStarterAge = currentAge;\n            oldestStarterId = tokenId;\n        }\n\n        return true;\n    }\n\n/** @dev Feeds and duplicates your starter, returning another with identical age - costs 100 FLOUR */\n    function splitStarter(uint256 tokenId) public returns (bool) { \n        require(balanceOf(msg.sender,tokenId)==1, \"This Id number is not associated with one of your starters, please try with a valid id.\");\n        feedStarter(tokenId);\n        createStarter();\n        Sourdoughs[startersCreated]._creationTime = Sourdoughs[tokenId]._creationTime;\n        Sourdoughs[tokenId]._childCount+=1;\n        return true;\n\n    }\n/** @dev Internal. Takes a recipe struct and a batch of ingredients by id number.  Burns the ingredients and FLOUR required, then mints a semi-fungible item to the owner\nwith the Id of the recipe */\n    function _bakeRecipe(Recipe memory recipe, uint256[] memory starterBatch) internal returns (bool) {\n        require(balanceOf(msg.sender, flourId)>= recipe._flourRequired,\"You don't have enough FLOUR to bake that!!\");\n        uint length = recipe._ages.length;\n        uint[] memory amounts = new uint[](length);\n        require(recipe._ages.length == starterBatch.length,\"You haven't added the right number of starters to the batch!\");\n        for(uint i=0;i<recipe._ages.length;i++){\n            uint32 starterAge = uint32(block.timestamp-Sourdoughs[starterBatch[i]]._creationTime);\n            require(starterAge > recipe._ages[i], \"Your starters are not old enough, please use the starters required by this recipe\");  \n            require(Sourdoughs[starterBatch[i]]._timeOfDeath >= block.timestamp, \"Your starters are not all alive, you must use a living ingredient!!\");\n            require(balanceOf(msg.sender,starterBatch[i])==1, \"This Id number is not associated with one of your starters, please try with a valid id.\");\n            amounts[i] = 1;\n        }\n        _burnBatch(msg.sender, starterBatch, amounts); \n        _burnFlour(msg.sender,recipe._flourRequired);\n        return true;\n    }\n/** @dev Bakes and publishes a recipe that does not yet exist */\n    function publishNewRecipe(string memory name, uint256 flourRequired, uint32[] memory ages, uint256[] memory starterBatch) public returns (bool) {\n        require(ages.length <=10, \"You can only have up to 10 ingredients!\");\n        Recipe memory recipe = Recipe(name,flourRequired, ages,msg.sender,0,0);\n        _bakeRecipe(recipe,starterBatch);\n\n        recipe._timesBaked+=1;\n        itemsBaked+=1;\n        recipesPublished+=1;\n        uint256 recipeId = dividerIndex + recipesPublished;\n        BakedGoods[recipesPublished] = recipe;\n        if (BakedGoods[recipesPublished]._timesBaked> topRecipeScore){\n            topRecipeScore = BakedGoods[recipesPublished]._timesBaked;\n            mostUsedRecipe = recipesPublished;\n        }\n        _mint(msg.sender,recipeId,1,\"\");\n        return true;\n\n\n    }\n/** @dev Takes the id of an existing recipe and a batch of ingredients.  Burns the batch and the required flour, mints an item with the recipe Id */\n    function bakeExistingRecipe(uint256 recipeId, uint256[] memory starterBatch) public returns (bool) {\n        Recipe memory recipe = BakedGoods[recipeId];\n        _bakeRecipe(recipe,starterBatch);\n\n        BakedGoods[recipeId]._timesBaked+=1;\n        \n        itemsBaked+=1;\n        if( BakedGoods[recipeId]._timesBaked > topRecipeScore){\n            topRecipeScore = BakedGoods[recipeId]._timesBaked;\n            mostUsedRecipe = recipeId;\n        }\n        _mint(msg.sender,recipeId+dividerIndex,1,\"\");\n        return true;\n    }\n/** @dev Burns an item, credits the player with a score equivalent to the total age of all ingredients */\n    function eatBakedGood(uint256 recipeId, uint256 amount) public returns (bool){\n        require(balanceOf(msg.sender,dividerIndex + recipeId)>=amount, \"You don't have that many of those to eat!\");\n        uint32[] memory ages = BakedGoods[recipeId]._ages;\n        uint32 total;\n        for(uint i=0;i<ages.length;i++){\n            total+=ages[i];\n        }\n        uint256 index = recipeId + dividerIndex;\n        _burn(msg.sender,index,amount);\n        BakedGoods[recipeId]._numberEaten+=1;\n        totalScore[msg.sender]+= uint256(total)*amount;\n        if (totalScore[msg.sender] > topScore){\n            leader = msg.sender;\n            topScore = totalScore[msg.sender];\n        }\n\n        \n    }\n\n\n    function autoFeed(uint feedingTimes,uint256 starterId) public returns (bool) {\n        require(balanceOf(msg.sender,starterId)==1, \"This Id number is not associated with one of your starters, please try with a valid id.\");\n        uint256 cost = feedingTimes*50;\n        uint256 devFee = feedingTimes*10;\n        _burnFlour(msg.sender, cost);\n        safeTransferFrom(msg.sender,devAddress,flourId,devFee,\"\");\n        isAutoFeeding[msg.sender]=true;\n        Sourdoughs[starterId]._timeOfDeath =  uint32(block.timestamp + feedingTimes* timescale);\n        Sourdoughs[starterId]._beingAutoFed = true;\n        return true;\n    }\n\n\n    function stopAutoFeed(uint256 starterId) public returns(bool) {\n        require(Sourdoughs[starterId]._beingAutoFed ==true);\n        Sourdoughs[starterId]._timeOfDeath = uint32(block.timestamp + timescale);\n        Sourdoughs[starterId]._beingAutoFed = false;\n    }\n    \n\n\n\n\n\n\n\n\n\n    function getTimeOfDeath(uint256 starterId) public view returns(uint32){\n        return Sourdoughs[starterId]._timeOfDeath;\n    }\n    function getChildCount(uint256 starterId) public view returns(uint8){\n        return Sourdoughs[starterId]._childCount;\n    }\n    function getCreationTime(uint256 starterId) public view returns(uint32){\n        return Sourdoughs[starterId]._creationTime;\n    }\n    function getCreatorAddress(uint256 starterId) public view returns(address){\n        return Sourdoughs[starterId]._creator;\n    }\n    function getIsAutoFed(uint256 starterId) public view returns(bool){\n        return Sourdoughs[starterId]._beingAutoFed;\n    }\n\n\n\n\n    function getRecipeName(uint256 recipeId) public view returns(string memory){\n        return BakedGoods[recipeId]._name;\n    }\n\n     function getIngredientByIndex(uint256 recipeId, uint index) public view returns(uint32){\n        return BakedGoods[recipeId]._ages[index];\n    }\n     function getRecipeCreator(uint256 recipeId) public view returns(address){\n        return BakedGoods[recipeId]._creator;\n    }\n     function getFlourRequired(uint256 recipeId) public view returns(uint256){\n        return BakedGoods[recipeId]._flourRequired;\n    }\n     function getTimesBaked(uint256 recipeId) public view returns(uint256){\n        return BakedGoods[recipeId]._timesBaked;\n    }\n     function getNumberEaten(uint256 recipeId) public view returns(uint256){\n        return BakedGoods[recipeId]._numberEaten;\n    }\n\n\n    function getGrindReset(address player) public view returns(uint32){\n        return grindCooldown[player];\n    }\n    function getPlayerScore(address player) public view returns(uint256){\n        return totalScore[player];\n    }\n    function isPlayerAutoFeeding(address player) public view returns(bool){\n        return isAutoFeeding[player];\n    }\n}\n    \n","sourcePath":"contracts/Cafe.sol","type":"contract","deployment":{"address":"0xD3f54Be2B59A9622116C5006852114FAdED95071","chainid":"4","blockHeight":8361648}}