{
  "abi": [
    {
      "inputs": [
        {
          "internalType": "string",
          "name": "uri_",
          "type": "string"
        },
        {
          "internalType": "uint32",
          "name": "_timescale",
          "type": "uint32"
        },
        {
          "internalType": "uint256",
          "name": "_createCost",
          "type": "uint256"
        },
        {
          "internalType": "uint256",
          "name": "_feedCost",
          "type": "uint256"
        },
        {
          "internalType": "uint256",
          "name": "_grindReward",
          "type": "uint256"
        }
      ],
      "stateMutability": "nonpayable",
      "type": "constructor"
    },
    {
      "anonymous": false,
      "inputs": [
        {
          "indexed": true,
          "internalType": "address",
          "name": "account",
          "type": "address"
        },
        {
          "indexed": true,
          "internalType": "address",
          "name": "operator",
          "type": "address"
        },
        {
          "indexed": false,
          "internalType": "bool",
          "name": "approved",
          "type": "bool"
        }
      ],
      "name": "ApprovalForAll",
      "type": "event"
    },
    {
      "anonymous": false,
      "inputs": [
        {
          "indexed": true,
          "internalType": "address",
          "name": "operator",
          "type": "address"
        },
        {
          "indexed": true,
          "internalType": "address",
          "name": "from",
          "type": "address"
        },
        {
          "indexed": true,
          "internalType": "address",
          "name": "to",
          "type": "address"
        },
        {
          "indexed": false,
          "internalType": "uint256[]",
          "name": "ids",
          "type": "uint256[]"
        },
        {
          "indexed": false,
          "internalType": "uint256[]",
          "name": "values",
          "type": "uint256[]"
        }
      ],
      "name": "TransferBatch",
      "type": "event"
    },
    {
      "anonymous": false,
      "inputs": [
        {
          "indexed": true,
          "internalType": "address",
          "name": "operator",
          "type": "address"
        },
        {
          "indexed": true,
          "internalType": "address",
          "name": "from",
          "type": "address"
        },
        {
          "indexed": true,
          "internalType": "address",
          "name": "to",
          "type": "address"
        },
        {
          "indexed": false,
          "internalType": "uint256",
          "name": "id",
          "type": "uint256"
        },
        {
          "indexed": false,
          "internalType": "uint256",
          "name": "value",
          "type": "uint256"
        }
      ],
      "name": "TransferSingle",
      "type": "event"
    },
    {
      "anonymous": false,
      "inputs": [
        {
          "indexed": false,
          "internalType": "string",
          "name": "value",
          "type": "string"
        },
        {
          "indexed": true,
          "internalType": "uint256",
          "name": "id",
          "type": "uint256"
        }
      ],
      "name": "URI",
      "type": "event"
    },
    {
      "inputs": [
        {
          "internalType": "uint256",
          "name": "feedingTimes",
          "type": "uint256"
        },
        {
          "internalType": "uint256",
          "name": "starterId",
          "type": "uint256"
        }
      ],
      "name": "autoFeed",
      "outputs": [
        {
          "internalType": "bool",
          "name": "",
          "type": "bool"
        }
      ],
      "stateMutability": "nonpayable",
      "type": "function"
    },
    {
      "inputs": [
        {
          "internalType": "uint256",
          "name": "recipeId",
          "type": "uint256"
        },
        {
          "internalType": "uint256[]",
          "name": "starterBatch",
          "type": "uint256[]"
        }
      ],
      "name": "bakeExistingRecipe",
      "outputs": [
        {
          "internalType": "bool",
          "name": "",
          "type": "bool"
        }
      ],
      "stateMutability": "nonpayable",
      "type": "function"
    },
    {
      "inputs": [
        {
          "internalType": "address",
          "name": "account",
          "type": "address"
        },
        {
          "internalType": "uint256",
          "name": "id",
          "type": "uint256"
        }
      ],
      "name": "balanceOf",
      "outputs": [
        {
          "internalType": "uint256",
          "name": "",
          "type": "uint256"
        }
      ],
      "stateMutability": "view",
      "type": "function"
    },
    {
      "inputs": [
        {
          "internalType": "address[]",
          "name": "accounts",
          "type": "address[]"
        },
        {
          "internalType": "uint256[]",
          "name": "ids",
          "type": "uint256[]"
        }
      ],
      "name": "balanceOfBatch",
      "outputs": [
        {
          "internalType": "uint256[]",
          "name": "",
          "type": "uint256[]"
        }
      ],
      "stateMutability": "view",
      "type": "function"
    },
    {
      "inputs": [],
      "name": "createCost",
      "outputs": [
        {
          "internalType": "uint256",
          "name": "",
          "type": "uint256"
        }
      ],
      "stateMutability": "view",
      "type": "function"
    },
    {
      "inputs": [],
      "name": "createStarter",
      "outputs": [
        {
          "internalType": "bool",
          "name": "",
          "type": "bool"
        }
      ],
      "stateMutability": "nonpayable",
      "type": "function"
    },
    {
      "inputs": [],
      "name": "devAddress",
      "outputs": [
        {
          "internalType": "address",
          "name": "",
          "type": "address"
        }
      ],
      "stateMutability": "view",
      "type": "function"
    },
    {
      "inputs": [
        {
          "internalType": "uint256",
          "name": "recipeId",
          "type": "uint256"
        },
        {
          "internalType": "uint256",
          "name": "amount",
          "type": "uint256"
        }
      ],
      "name": "eatBakedGood",
      "outputs": [
        {
          "internalType": "bool",
          "name": "",
          "type": "bool"
        }
      ],
      "stateMutability": "nonpayable",
      "type": "function"
    },
    {
      "inputs": [],
      "name": "feedCost",
      "outputs": [
        {
          "internalType": "uint256",
          "name": "",
          "type": "uint256"
        }
      ],
      "stateMutability": "view",
      "type": "function"
    },
    {
      "inputs": [
        {
          "internalType": "uint256",
          "name": "tokenId",
          "type": "uint256"
        }
      ],
      "name": "feedStarter",
      "outputs": [
        {
          "internalType": "bool",
          "name": "",
          "type": "bool"
        }
      ],
      "stateMutability": "nonpayable",
      "type": "function"
    },
    {
      "inputs": [],
      "name": "flourSupply",
      "outputs": [
        {
          "internalType": "uint256",
          "name": "",
          "type": "uint256"
        }
      ],
      "stateMutability": "view",
      "type": "function"
    },
    {
      "inputs": [
        {
          "internalType": "uint256",
          "name": "starterId",
          "type": "uint256"
        }
      ],
      "name": "getChildCount",
      "outputs": [
        {
          "internalType": "uint8",
          "name": "",
          "type": "uint8"
        }
      ],
      "stateMutability": "view",
      "type": "function"
    },
    {
      "inputs": [
        {
          "internalType": "uint256",
          "name": "starterId",
          "type": "uint256"
        }
      ],
      "name": "getCreationTime",
      "outputs": [
        {
          "internalType": "uint32",
          "name": "",
          "type": "uint32"
        }
      ],
      "stateMutability": "view",
      "type": "function"
    },
    {
      "inputs": [
        {
          "internalType": "uint256",
          "name": "starterId",
          "type": "uint256"
        }
      ],
      "name": "getCreatorAddress",
      "outputs": [
        {
          "internalType": "address",
          "name": "",
          "type": "address"
        }
      ],
      "stateMutability": "view",
      "type": "function"
    },
    {
      "inputs": [
        {
          "internalType": "uint256",
          "name": "recipeId",
          "type": "uint256"
        }
      ],
      "name": "getFlourRequired",
      "outputs": [
        {
          "internalType": "uint256",
          "name": "",
          "type": "uint256"
        }
      ],
      "stateMutability": "view",
      "type": "function"
    },
    {
      "inputs": [
        {
          "internalType": "address",
          "name": "player",
          "type": "address"
        }
      ],
      "name": "getGrindReset",
      "outputs": [
        {
          "internalType": "uint32",
          "name": "",
          "type": "uint32"
        }
      ],
      "stateMutability": "view",
      "type": "function"
    },
    {
      "inputs": [
        {
          "internalType": "uint256",
          "name": "recipeId",
          "type": "uint256"
        },
        {
          "internalType": "uint256",
          "name": "index",
          "type": "uint256"
        }
      ],
      "name": "getIngredientByIndex",
      "outputs": [
        {
          "internalType": "uint32",
          "name": "",
          "type": "uint32"
        }
      ],
      "stateMutability": "view",
      "type": "function"
    },
    {
      "inputs": [
        {
          "internalType": "uint256",
          "name": "recipeId",
          "type": "uint256"
        }
      ],
      "name": "getIngredientCount",
      "outputs": [
        {
          "internalType": "uint256",
          "name": "",
          "type": "uint256"
        }
      ],
      "stateMutability": "view",
      "type": "function"
    },
    {
      "inputs": [
        {
          "internalType": "uint256",
          "name": "starterId",
          "type": "uint256"
        }
      ],
      "name": "getIsAutoFed",
      "outputs": [
        {
          "internalType": "bool",
          "name": "",
          "type": "bool"
        }
      ],
      "stateMutability": "view",
      "type": "function"
    },
    {
      "inputs": [
        {
          "internalType": "uint256",
          "name": "recipeId",
          "type": "uint256"
        }
      ],
      "name": "getNumberEaten",
      "outputs": [
        {
          "internalType": "uint256",
          "name": "",
          "type": "uint256"
        }
      ],
      "stateMutability": "view",
      "type": "function"
    },
    {
      "inputs": [
        {
          "internalType": "address",
          "name": "owner",
          "type": "address"
        }
      ],
      "name": "getOwnerUniqueRecipes",
      "outputs": [
        {
          "internalType": "uint256",
          "name": "",
          "type": "uint256"
        }
      ],
      "stateMutability": "view",
      "type": "function"
    },
    {
      "inputs": [
        {
          "internalType": "address",
          "name": "owner",
          "type": "address"
        }
      ],
      "name": "getOwnerUniqueTokens",
      "outputs": [
        {
          "internalType": "uint256",
          "name": "",
          "type": "uint256"
        }
      ],
      "stateMutability": "view",
      "type": "function"
    },
    {
      "inputs": [
        {
          "internalType": "address",
          "name": "player",
          "type": "address"
        }
      ],
      "name": "getPlayerScore",
      "outputs": [
        {
          "internalType": "uint256",
          "name": "",
          "type": "uint256"
        }
      ],
      "stateMutability": "view",
      "type": "function"
    },
    {
      "inputs": [
        {
          "internalType": "uint256",
          "name": "recipeId",
          "type": "uint256"
        }
      ],
      "name": "getRecipeCreator",
      "outputs": [
        {
          "internalType": "address",
          "name": "",
          "type": "address"
        }
      ],
      "stateMutability": "view",
      "type": "function"
    },
    {
      "inputs": [
        {
          "internalType": "uint256",
          "name": "recipeId",
          "type": "uint256"
        }
      ],
      "name": "getRecipeName",
      "outputs": [
        {
          "internalType": "string",
          "name": "",
          "type": "string"
        }
      ],
      "stateMutability": "view",
      "type": "function"
    },
    {
      "inputs": [
        {
          "internalType": "uint256",
          "name": "recipeId",
          "type": "uint256"
        }
      ],
      "name": "getRecipeScore",
      "outputs": [
        {
          "internalType": "uint32",
          "name": "",
          "type": "uint32"
        }
      ],
      "stateMutability": "view",
      "type": "function"
    },
    {
      "inputs": [
        {
          "internalType": "uint256",
          "name": "starterId",
          "type": "uint256"
        }
      ],
      "name": "getTimeOfDeath",
      "outputs": [
        {
          "internalType": "uint32",
          "name": "",
          "type": "uint32"
        }
      ],
      "stateMutability": "view",
      "type": "function"
    },
    {
      "inputs": [
        {
          "internalType": "uint256",
          "name": "recipeId",
          "type": "uint256"
        }
      ],
      "name": "getTimesBaked",
      "outputs": [
        {
          "internalType": "uint256",
          "name": "",
          "type": "uint256"
        }
      ],
      "stateMutability": "view",
      "type": "function"
    },
    {
      "inputs": [],
      "name": "grindFlour",
      "outputs": [],
      "stateMutability": "nonpayable",
      "type": "function"
    },
    {
      "inputs": [],
      "name": "grindReward",
      "outputs": [
        {
          "internalType": "uint256",
          "name": "",
          "type": "uint256"
        }
      ],
      "stateMutability": "view",
      "type": "function"
    },
    {
      "inputs": [
        {
          "internalType": "address",
          "name": "account",
          "type": "address"
        },
        {
          "internalType": "address",
          "name": "operator",
          "type": "address"
        }
      ],
      "name": "isApprovedForAll",
      "outputs": [
        {
          "internalType": "bool",
          "name": "",
          "type": "bool"
        }
      ],
      "stateMutability": "view",
      "type": "function"
    },
    {
      "inputs": [
        {
          "internalType": "address",
          "name": "player",
          "type": "address"
        }
      ],
      "name": "isPlayerAutoFeeding",
      "outputs": [
        {
          "internalType": "bool",
          "name": "",
          "type": "bool"
        }
      ],
      "stateMutability": "view",
      "type": "function"
    },
    {
      "inputs": [],
      "name": "itemsBaked",
      "outputs": [
        {
          "internalType": "uint256",
          "name": "",
          "type": "uint256"
        }
      ],
      "stateMutability": "view",
      "type": "function"
    },
    {
      "inputs": [
        {
          "internalType": "uint256",
          "name": "",
          "type": "uint256"
        }
      ],
      "name": "playerHighScore",
      "outputs": [
        {
          "internalType": "address",
          "name": "",
          "type": "address"
        }
      ],
      "stateMutability": "view",
      "type": "function"
    },
    {
      "inputs": [
        {
          "internalType": "string",
          "name": "name",
          "type": "string"
        },
        {
          "internalType": "uint256",
          "name": "flourRequired",
          "type": "uint256"
        },
        {
          "internalType": "uint32[]",
          "name": "ages",
          "type": "uint32[]"
        },
        {
          "internalType": "uint256[]",
          "name": "starterBatch",
          "type": "uint256[]"
        }
      ],
      "name": "publishNewRecipe",
      "outputs": [
        {
          "internalType": "uint256",
          "name": "",
          "type": "uint256"
        }
      ],
      "stateMutability": "nonpayable",
      "type": "function"
    },
    {
      "inputs": [
        {
          "internalType": "uint256",
          "name": "",
          "type": "uint256"
        }
      ],
      "name": "recipeHighScore",
      "outputs": [
        {
          "internalType": "uint256",
          "name": "",
          "type": "uint256"
        }
      ],
      "stateMutability": "view",
      "type": "function"
    },
    {
      "inputs": [
        {
          "internalType": "address",
          "name": "owner",
          "type": "address"
        },
        {
          "internalType": "uint256",
          "name": "index",
          "type": "uint256"
        }
      ],
      "name": "recipeOfOwnerByIndex",
      "outputs": [
        {
          "internalType": "uint256",
          "name": "",
          "type": "uint256"
        }
      ],
      "stateMutability": "view",
      "type": "function"
    },
    {
      "inputs": [],
      "name": "recipesPublished",
      "outputs": [
        {
          "internalType": "uint256",
          "name": "",
          "type": "uint256"
        }
      ],
      "stateMutability": "view",
      "type": "function"
    },
    {
      "inputs": [
        {
          "internalType": "address",
          "name": "from",
          "type": "address"
        },
        {
          "internalType": "address",
          "name": "to",
          "type": "address"
        },
        {
          "internalType": "uint256[]",
          "name": "ids",
          "type": "uint256[]"
        },
        {
          "internalType": "uint256[]",
          "name": "amounts",
          "type": "uint256[]"
        },
        {
          "internalType": "bytes",
          "name": "data",
          "type": "bytes"
        }
      ],
      "name": "safeBatchTransferFrom",
      "outputs": [],
      "stateMutability": "nonpayable",
      "type": "function"
    },
    {
      "inputs": [
        {
          "internalType": "address",
          "name": "from",
          "type": "address"
        },
        {
          "internalType": "address",
          "name": "to",
          "type": "address"
        },
        {
          "internalType": "uint256",
          "name": "id",
          "type": "uint256"
        },
        {
          "internalType": "uint256",
          "name": "amount",
          "type": "uint256"
        },
        {
          "internalType": "bytes",
          "name": "data",
          "type": "bytes"
        }
      ],
      "name": "safeTransferFrom",
      "outputs": [],
      "stateMutability": "nonpayable",
      "type": "function"
    },
    {
      "inputs": [
        {
          "internalType": "address",
          "name": "operator",
          "type": "address"
        },
        {
          "internalType": "bool",
          "name": "approved",
          "type": "bool"
        }
      ],
      "name": "setApprovalForAll",
      "outputs": [],
      "stateMutability": "nonpayable",
      "type": "function"
    },
    {
      "inputs": [
        {
          "internalType": "uint256",
          "name": "tokenId",
          "type": "uint256"
        }
      ],
      "name": "splitStarter",
      "outputs": [
        {
          "internalType": "bool",
          "name": "",
          "type": "bool"
        }
      ],
      "stateMutability": "nonpayable",
      "type": "function"
    },
    {
      "inputs": [
        {
          "internalType": "uint256",
          "name": "",
          "type": "uint256"
        }
      ],
      "name": "starterHighScore",
      "outputs": [
        {
          "internalType": "uint256",
          "name": "",
          "type": "uint256"
        }
      ],
      "stateMutability": "view",
      "type": "function"
    },
    {
      "inputs": [
        {
          "internalType": "uint256",
          "name": "",
          "type": "uint256"
        }
      ],
      "name": "starterHighScoreAges",
      "outputs": [
        {
          "internalType": "uint32",
          "name": "",
          "type": "uint32"
        }
      ],
      "stateMutability": "view",
      "type": "function"
    },
    {
      "inputs": [],
      "name": "startersCreated",
      "outputs": [
        {
          "internalType": "uint256",
          "name": "",
          "type": "uint256"
        }
      ],
      "stateMutability": "view",
      "type": "function"
    },
    {
      "inputs": [
        {
          "internalType": "uint256",
          "name": "starterId",
          "type": "uint256"
        }
      ],
      "name": "stopAutoFeed",
      "outputs": [
        {
          "internalType": "bool",
          "name": "",
          "type": "bool"
        }
      ],
      "stateMutability": "nonpayable",
      "type": "function"
    },
    {
      "inputs": [
        {
          "internalType": "bytes4",
          "name": "interfaceId",
          "type": "bytes4"
        }
      ],
      "name": "supportsInterface",
      "outputs": [
        {
          "internalType": "bool",
          "name": "",
          "type": "bool"
        }
      ],
      "stateMutability": "view",
      "type": "function"
    },
    {
      "inputs": [],
      "name": "timescale",
      "outputs": [
        {
          "internalType": "uint32",
          "name": "",
          "type": "uint32"
        }
      ],
      "stateMutability": "view",
      "type": "function"
    },
    {
      "inputs": [
        {
          "internalType": "address",
          "name": "owner",
          "type": "address"
        },
        {
          "internalType": "uint256",
          "name": "index",
          "type": "uint256"
        }
      ],
      "name": "tokenOfOwnerByIndex",
      "outputs": [
        {
          "internalType": "uint256",
          "name": "",
          "type": "uint256"
        }
      ],
      "stateMutability": "view",
      "type": "function"
    },
    {
      "inputs": [
        {
          "internalType": "uint256",
          "name": "",
          "type": "uint256"
        }
      ],
      "name": "uri",
      "outputs": [
        {
          "internalType": "string",
          "name": "",
          "type": "string"
        }
      ],
      "stateMutability": "view",
      "type": "function"
    }
  ],
  "bytecode": "6080604052600880546001600160a01b0319163017905560006009819055600160ff1b600a556034819055603581905560368190556037553480156200004457600080fd5b506040516200437a3803806200437a833981016040819052620000679162000199565b846200007381620000c0565b506200007f85620000c0565b6006805463ffffffff90951663ffffffff1990951694909417909355600880546001600160a01b0319163317905560049190915560055560075550620002f2565b8051620000d5906003906020840190620000d9565b5050565b828054620000e7906200029f565b90600052602060002090601f0160209004810192826200010b576000855562000156565b82601f106200012657805160ff191683800117855562000156565b8280016001018555821562000156579182015b828111156200015657825182559160200191906001019062000139565b506200016492915062000168565b5090565b5b8082111562000164576000815560010162000169565b805163ffffffff811681146200019457600080fd5b919050565b600080600080600060a08688031215620001b1578081fd5b85516001600160401b0380821115620001c8578283fd5b818801915088601f830112620001dc578283fd5b815181811115620001f157620001f1620002dc565b604051601f8201601f19908116603f011681019083821181831017156200021c576200021c620002dc565b81604052828152602093508b8484870101111562000238578586fd5b8591505b828210156200025b57848201840151818301850152908301906200023c565b828211156200026c57858484830101525b98506200027e9150508882016200017f565b604089015160608a01516080909a0151989b919a5098979650945050505050565b600181811c90821680620002b457607f821691505b60208210811415620002d657634e487b7160e01b600052602260045260246000fd5b50919050565b634e487b7160e01b600052604160045260246000fd5b61407880620003026000396000f3fe608060405234801561001057600080fd5b50600436106102d55760003560e01c8063976c39be11610182578063c889d089116100e9578063e11fd028116100a2578063f6d989f21161007c578063f6d989f2146107b2578063f71ed3b8146107bb578063fc4f816c146107e5578063fcf73cbe146107f8576102d5565b8063e11fd02814610750578063e985e9c514610763578063f242432a1461079f576102d5565b8063c889d08914610693578063c8cf79d91461069c578063cb208010146106af578063d0eaf368146106d2578063d682d87a146106fb578063e085c53914610727576102d5565b8063a41e1c171161013b578063a41e1c1714610635578063a7c6232314610648578063b172decc14610651578063ba0bd64a14610664578063bf3c95b91461066d578063c3b1066f14610680576102d5565b8063976c39be1461059157806397ec23cb146105b4578063a07b6a42146105e1578063a22cb465146105ea578063a30b4db9146105fd578063a34867581461062d576102d5565b80633ad10ef6116102415780636510989c116101fa5780637985781f116101d45780637985781f146104ef5780637a77af5c1461051e5780637f8315cd1461055b578063956ac17a14610581576102d5565b80636510989c146104a657806370b5e7b0146104b9578063781f1b75146104dc576102d5565b80633ad10ef61461043157806342da6f9c146104445780634c777cac146104575780634e1273f41461046a5780634f41393b1461048a5780635c2c894a1461049d576102d5565b80632a316cdf116102935780632a316cdf146103895780632b944ddf146103ac5780632eb2c2d6146103b55780632f745c59146103ca57806334b7fa22146103dd57806336ff4c9514610405576102d5565b8062fdd58e146102da57806301ffc9a71461030057806307047482146103235780630e89341c1461032b5780631269ca401461034b578063214fa99b1461035e575b600080fd5b6102ed6102e83660046137c0565b61080b565b6040519081526020015b60405180910390f35b61031361030e3660046138b4565b6108a7565b60405190151581526020016102f7565b6103136108fb565b61033e610339366004613a05565b610aa0565b6040516102f79190613bd6565b61033e610359366004613a05565b610b34565b61037161036c366004613a05565b610b51565b6040516001600160a01b0390911681526020016102f7565b6102ed610397366004613a05565b6000908152600d602052604090206001015490565b6102ed60355481565b6103c86103c336600461367d565b610b71565b005b6102ed6103d83660046137c0565b610e66565b6103f06103eb366004613a58565b610e8f565b60405163ffffffff90911681526020016102f7565b610313610413366004613631565b6001600160a01b031660009081526010602052604090205460ff1690565b600854610371906001600160a01b031681565b6102ed610452366004613631565b610eee565b6103f0610465366004613a05565b610f0f565b61047d6104783660046137e9565b610f3f565b6040516102f79190613b95565b610313610498366004613a1d565b6110a1565b6102ed60365481565b6103136104b4366004613a58565b611288565b6102ed6104c7366004613a05565b6000908152600d602052604090206005015490565b6103136104ea366004613a05565b6113a1565b6103f06104fd366004613631565b6001600160a01b03166000908152600c602052604090205463ffffffff1690565b61054961052c366004613a05565b6000908152600b6020526040902054640100000000900460ff1690565b60405160ff90911681526020016102f7565b6103f0610569366004613a05565b6000908152600b602052604090205463ffffffff1690565b6006546103f09063ffffffff1681565b6102ed61059f366004613a05565b6000908152600d602052604090206004015490565b6103f06105c2366004613a05565b6000908152600b6020526040902054600160281b900463ffffffff1690565b6102ed60055481565b6103c86105f8366004613786565b61156a565b61037161060b366004613a05565b6000908152600b6020526040902054600160481b90046001600160a01b031690565b6103c861164e565b6102ed6106433660046138ec565b611728565b6102ed60075481565b61031361065f366004613a58565b61198f565b6102ed60045481565b6102ed61067b366004613631565b611a8b565b6102ed61068e366004613a05565b611aac565b6102ed60345481565b6103136106aa366004613a05565b611ac3565b6102ed6106bd366004613a05565b6000908152600d602052604090206002015490565b6103f06106e0366004613a05565b6000908152600d602052604090206006015463ffffffff1690565b610371610709366004613a05565b6000908152600d60205260409020600301546001600160a01b031690565b6102ed610735366004613631565b6001600160a01b03166000908152600f602052604090205490565b6102ed61075e366004613a05565b611b2e565b61031361077136600461364b565b6001600160a01b03918216600090815260026020908152604080832093909416825291909152205460ff1690565b6103c86107ad366004613723565b611b3e565b6102ed60375481565b6103136107c9366004613a05565b6000908152600b6020526040902054600160e81b900460ff1690565b6103136107f3366004613a05565b611d73565b6102ed6108063660046137c0565b611e9c565b60006001600160a01b03831661087c5760405162461bcd60e51b815260206004820152602b60248201527f455243313135353a2062616c616e636520717565727920666f7220746865207a60448201526a65726f206164647265737360a81b60648201526084015b60405180910390fd5b5060008181526001602090815260408083206001600160a01b03861684529091529020545b92915050565b60006001600160e01b03198216636cdb3d1360e11b14806108d857506001600160e01b031982166303a24d0760e21b145b806108f357506301ffc9a760e01b6001600160e01b03198316145b90505b919050565b600061090933600454611ebe565b6000603554600161091a9190613e36565b90506109423361092b836000613e36565b600160405180602001604052806000815250611efe565b6040805160c081019091526006546000919081906109669063ffffffff1642613e36565b63ffffffff168152602001600060ff1681526020014263ffffffff168152602001336001600160a01b031681526020016000151581526020014263ffffffff1681525090506001603560008282546109be9190613e36565b90915550506000918252600b6020908152604092839020825181549284015194840151606085015160808601511515600160e81b0260ff60e81b196001600160a01b03909216600160481b027fffffff0000000000000000000000000000000000000000ffffffffffffffffff63ffffffff948516600160281b021665010000000000600160e81b031960ff909a166401000000000264ffffffffff1990981695851695909517969096179790971692909217939093171693909317835560a090910151600192830180549190921663ffffffff199190911617905590505b90565b606060038054610aaf90613ed1565b80601f0160208091040260200160405190810160405280929190818152602001828054610adb90613ed1565b8015610b285780601f10610afd57610100808354040283529160200191610b28565b820191906000526020600020905b815481529060010190602001808311610b0b57829003601f168201915b50505050509050919050565b6000818152600d60205260409020805460609190610aaf90613ed1565b602981600b8110610b6157600080fd5b01546001600160a01b0316905081565b8151835114610b925760405162461bcd60e51b815260040161087390613dca565b6001600160a01b038416610bb85760405162461bcd60e51b815260040161087390613cf8565b6001600160a01b038516331480610bd45750610bd48533610771565b610c3b5760405162461bcd60e51b815260206004820152603260248201527f455243313135353a207472616e736665722063616c6c6572206973206e6f74206044820152711bdddb995c881b9bdc88185c1c1c9bdd995960721b6064820152608401610873565b3360005b8451811015610df8576000858281518110610c6a57634e487b7160e01b600052603260045260246000fd5b602002602001015190506000858381518110610c9657634e487b7160e01b600052603260045260246000fd5b60209081029190910181015160008481526001835260408082206001600160a01b038e168352909352919091205490915081811015610ce75760405162461bcd60e51b815260040161087390613d80565b610cf18282613eba565b6001600085815260200190815260200160002060008c6001600160a01b03166001600160a01b0316815260200190815260200160002081905550816001600085815260200190815260200160002060008b6001600160a01b03166001600160a01b031681526020019081526020016000206000828254610d719190613e36565b90915550506001600160a01b0389166000908152602081905260409020610d989084612024565b5060008381526001602090815260408083206001600160a01b038e168452909152902054610de4576001600160a01b038a166000908152602081905260409020610de29084612030565b505b50505080610df190613f39565b9050610c3f565b50846001600160a01b0316866001600160a01b0316826001600160a01b03167f4a39dc06d4c0dbc64b70af90fd698a233a518aa5d07e595d983b8c0526c8f7fb8787604051610e48929190613ba8565b60405180910390a4610e5e81878787878761203c565b505050505050565b6001600160a01b0382166000908152602081905260408120610e8890836121a7565b9392505050565b6000828152600d60205260408120600201805483908110610ec057634e487b7160e01b600052603260045260246000fd5b90600052602060002090600891828204019190066004029054906101000a900463ffffffff16905092915050565b6001600160a01b03811660009081526020819052604081206108f3906121b3565b601181600b8110610f1f57600080fd5b60089182820401919006600402915054906101000a900463ffffffff1681565b60608151835114610fa45760405162461bcd60e51b815260206004820152602960248201527f455243313135353a206163636f756e747320616e6420696473206c656e677468604482015268040dad2e6dac2e8c6d60bb1b6064820152608401610873565b6000835167ffffffffffffffff811115610fce57634e487b7160e01b600052604160045260246000fd5b604051908082528060200260200182016040528015610ff7578160200160208202803683370190505b50905060005b84518110156110995761105e85828151811061102957634e487b7160e01b600052603260045260246000fd5b602002602001015185838151811061105157634e487b7160e01b600052603260045260246000fd5b602002602001015161080b565b82828151811061107e57634e487b7160e01b600052603260045260246000fd5b602090810291909101015261109281613f39565b9050610ffd565b509392505050565b6000828152600d6020526040808220815160e08101909252805483929190829082906110cc90613ed1565b80601f01602080910402602001604051908101604052809291908181526020018280546110f890613ed1565b80156111455780601f1061111a57610100808354040283529160200191611145565b820191906000526020600020905b81548152906001019060200180831161112857829003601f168201915b5050505050815260200160018201548152602001600282018054806020026020016040519081016040528092919081815260200182805480156111d357602002820191906000526020600020906000905b82829054906101000a900463ffffffff1663ffffffff16815260200190600401906020826003010492830192600103820291508084116111965790505b505050918352505060038201546001600160a01b03166020820152600482015460408201526005820154606082015260069091015463ffffffff16608090910152905061122081846121bd565b506000848152600d60205260408120600401805460019290611243908490613e36565b9250508190555060016036600082825461125d9190613e36565b9091555061126c9050846125a5565b61127e33600a548661092b9190613e36565b5060019392505050565b60008161129d3385600a546102e89190613e36565b10156112fd5760405162461bcd60e51b815260206004820152602960248201527f596f7520646f6e277420686176652074686174206d616e79206f662074686f736044820152686520746f206561742160b81b6064820152608401610873565b6000838152600d6020526040812060060154600a5463ffffffff90911691906113269086613e36565b905061133333828661279f565b6000858152600d60205260408120600501805460019290611355908490613e36565b9091555061136b90508463ffffffff8416613e9b565b336000908152600f60205260408120805490919061138a908490613e36565b909155506113999050336128e8565b505092915050565b60006113ad338361080b565b6001146113cc5760405162461bcd60e51b815260040161087390613c75565b6000828152600b60205260409020600101544263ffffffff909116111561145b5760405162461bcd60e51b815260206004820152603c60248201527f596f7520686176652073706c697420746865207374617274657220616c72656160448201527f647920746f6461792120576169742074696c2720746f6d6f72726f77000000006064820152608401610873565b61146482611d73565b5061146e82611d73565b506114776108fb565b506000828152600b60205260408082205460355483529120805468ffffffff00000000001916600160281b9283900463ffffffff169092029190911790556114c24262015180613e36565b6035546000908152600b60205260408082206001908101805463ffffffff191663ffffffff959095169490941790935584825290208054600490611512908490640100000000900460ff16613e76565b92506101000a81548160ff021916908360ff16021790555042620151806115399190613e36565b6000928352600b60205260409092206001908101805463ffffffff191663ffffffff94909416939093179092555090565b336001600160a01b03831614156115d55760405162461bcd60e51b815260206004820152602960248201527f455243313135353a2073657474696e6720617070726f76616c20737461747573604482015268103337b91039b2b63360b91b6064820152608401610873565b3360008181526002602090815260408083206001600160a01b0387168085529252909120805460ff1916841515179055906001600160a01b03167f17307eab39ab6107e8899845ad3d59bd9653f200f220920489ca2b5937696c3183604051611642911515815260200190565b60405180910390a35050565b336000908152600c60205260409020544263ffffffff909116106116b45760405162461bcd60e51b815260206004820152601b60248201527f596f7520646964207468697320616c726561647920746f6461792100000000006044820152606401610873565b6116d33360095460075460405180602001604052806000815250611efe565b600754603460008282546116e79190613e36565b90915550506006546116ff9063ffffffff1642613e36565b336000908152600c60205260409020805463ffffffff191663ffffffff92909216919091179055565b6000600a8351111561178c5760405162461bcd60e51b815260206004820152602760248201527f596f752063616e206f6e6c79206861766520757020746f20313020696e6772656044820152666469656e74732160c81b6064820152608401610873565b6040805160e0810182528681526020810186905290810184905233606082015260006080820181905260a0820181905260c08201526117cb81846121bd565b5060408101516000805b8251811015611825578281815181106117fe57634e487b7160e01b600052603260045260246000fd5b6020026020010151826118119190613e4e565b91508061181d81613f39565b9150506117d5565b5063ffffffff811660c084015260808301805160019190611847908390613e36565b9052506036805460019190600090611860908490613e36565b9250508190555060016037600082825461187a9190613e36565b9091555050603754600a5460009161189191613e36565b6037546000908152600d6020908152604090912086518051939450879391926118bf928492909101906133ea565b506020828101516001830155604083015180516118e2926002850192019061346e565b5060608201516003820180546001600160a01b0319166001600160a01b039092169190911790556080820151600482015560a0820151600582015560c0909101516006909101805463ffffffff191663ffffffff928316179055603754336000908152600e6020526040902061195b9290919061202416565b506119676037546125a5565b6119833382600160405180602001604052806000815250611efe565b98975050505050505050565b600061199b338361080b565b6001146119ba5760405162461bcd60e51b815260040161087390613c75565b6000600554846119ca9190613e9b565b90506000600554856119dc9190613e9b565b90506119e83383611ebe565b600854600954604080516020810190915260008152611a169233926001600160a01b03909116918590611b3e565b336000908152601060205260409020805460ff19166001179055600654611a439063ffffffff1686613e9b565b611a4d9042613e36565b6000858152600b60205260409020805463ffffffff60ff60e81b01191663ffffffff9290921691909117600160e81b17905550600191505092915050565b6001600160a01b0381166000908152600e602052604081206108f3906121b3565b601381600b8110611abc57600080fd5b0154905081565b6000818152600b6020526040812054600160e81b900460ff161515600114611aea57600080fd5b600654611afd9063ffffffff1642613e36565b6000928352600b6020526040909220805463ffffffff60ff60e81b01191663ffffffff939093169290921790915590565b601e81600b8110611abc57600080fd5b6001600160a01b038416611b645760405162461bcd60e51b815260040161087390613cf8565b6001600160a01b038516331480611b805750611b808533610771565b611bde5760405162461bcd60e51b815260206004820152602960248201527f455243313135353a2063616c6c6572206973206e6f74206f776e6572206e6f7260448201526808185c1c1c9bdd995960ba1b6064820152608401610873565b33611bfe818787611bee88612b6b565b611bf788612b6b565b5050505050565b60008481526001602090815260408083206001600160a01b038a16845290915290205483811015611c415760405162461bcd60e51b815260040161087390613d80565b611c4b8482613eba565b60008681526001602090815260408083206001600160a01b038c81168552925280832093909355881681529081208054869290611c89908490613e36565b90915550506001600160a01b0386166000908152602081905260409020611cb09086612024565b5060008581526001602090815260408083206001600160a01b038b168452909152902054611cfc576001600160a01b0387166000908152602081905260409020611cfa9086612030565b505b856001600160a01b0316876001600160a01b0316836001600160a01b03167fc3d58168c5ae7397731d063d5bbf3d657854427343f4c083240f7aacaa2d0f628888604051611d54929190918252602082015260400190565b60405180910390a4611d6a828888888888612bc4565b50505050505050565b6000611d7f338361080b565b600114611d9e5760405162461bcd60e51b815260040161087390613c75565b6000828152600b60205260409020544263ffffffff9091161015611e2a5760405162461bcd60e51b815260206004820152603960248201527f596f757220737461727465722069732064656164212020596f752073686f756c60448201527f6420686176652066656420697420736f6f6e6572203a28202e000000000000006064820152608401610873565b611e3633600554611ebe565b600654611e499063ffffffff1642613e36565b6000838152600b60205260409020805463ffffffff191663ffffffff929092169190911790819055600160e81b900460ff1615611e8b576000829052600b6020525b611e9482612c8e565b506001919050565b6001600160a01b0382166000908152600e60205260408120610e8890836121a7565b80611ecb3360095461080b565b1015611ed657600080fd5b611ee3826009548361279f565b8060346000828254611ef59190613eba565b90915550505050565b6001600160a01b038416611f5e5760405162461bcd60e51b815260206004820152602160248201527f455243313135353a206d696e7420746f20746865207a65726f206164647265736044820152607360f81b6064820152608401610873565b33611f6f81600087611bee88612b6b565b60008481526001602090815260408083206001600160a01b038916845290915281208054859290611fa1908490613e36565b90915550506001600160a01b0385166000908152602081905260409020611fc89085612024565b5060408051858152602081018590526001600160a01b0380881692600092918516917fc3d58168c5ae7397731d063d5bbf3d657854427343f4c083240f7aacaa2d0f62910160405180910390a4611bf781600087878787612bc4565b6000610e88838361301d565b6000610e88838361306c565b6001600160a01b0384163b15610e5e5760405163bc197c8160e01b81526001600160a01b0385169063bc197c81906120809089908990889088908890600401613afe565b602060405180830381600087803b15801561209a57600080fd5b505af19250505080156120ca575060408051601f3d908101601f191682019092526120c7918101906138d0565b60015b612177576120d6613f80565b806308c379a0141561211057506120eb613f97565b806120f65750612112565b8060405162461bcd60e51b81526004016108739190613bd6565b505b60405162461bcd60e51b815260206004820152603460248201527f455243313135353a207472616e7366657220746f206e6f6e20455243313135356044820152732932b1b2b4bb32b91034b6b83632b6b2b73a32b960611b6064820152608401610873565b6001600160e01b0319811663bc197c8160e01b14611d6a5760405162461bcd60e51b815260040161087390613be9565b6000610e888383613183565b60006108f3825490565b600082602001516121d03360095461080b565b10156122315760405162461bcd60e51b815260206004820152602a60248201527f596f7520646f6e2774206861766520656e6f75676820464c4f555220746f2062604482015269616b652074686174212160b01b6064820152608401610873565b60408301515160008167ffffffffffffffff81111561226057634e487b7160e01b600052604160045260246000fd5b604051908082528060200260200182016040528015612289578160200160208202803683370190505b5090508351856040015151146123075760405162461bcd60e51b815260206004820152603c60248201527f596f7520686176656e277420616464656420746865207269676874206e756d6260448201527f6572206f6620737461727465727320746f2074686520626174636821000000006064820152608401610873565b60005b856040015151811015612580576000600b600087848151811061233d57634e487b7160e01b600052603260045260246000fd5b60209081029190910181015182528101919091526040016000205461236f90600160281b900463ffffffff1642613eba565b90508660400151828151811061239557634e487b7160e01b600052603260045260246000fd5b602002602001015163ffffffff168163ffffffff16116124375760405162461bcd60e51b815260206004820152605160248201527f596f757220737461727465727320617265206e6f74206f6c6420656e6f75676860448201527f2c20706c65617365207573652074686520737461727465727320726571756972606482015270656420627920746869732072656369706560781b608482015260a401610873565b42600b600088858151811061245c57634e487b7160e01b600052603260045260246000fd5b60209081029190910181015182528101919091526040016000205463ffffffff1610156124fd5760405162461bcd60e51b815260206004820152604360248201527f596f757220737461727465727320617265206e6f7420616c6c20616c6976652c60448201527f20796f75206d757374207573652061206c6976696e6720696e6772656469656e60648201526274212160e81b608482015260a401610873565b6125213387848151811061105157634e487b7160e01b600052603260045260246000fd5b6001146125405760405162461bcd60e51b815260040161087390613c75565b600183838151811061256257634e487b7160e01b600052603260045260246000fd5b6020908102919091010152508061257881613f39565b91505061230a565b5061258c338583613217565b61259a338660200151611ebe565b506001949350505050565b6000805b600a8210156125f65782601e83600b81106125d457634e487b7160e01b600052603260045260246000fd5b015414156125e4575060016125f6565b6125ef826001613e36565b91506125a9565b8015612668575b600a82101561266857601e612613836001613e36565b600b811061263157634e487b7160e01b600052603260045260246000fd5b0154601e83600b811061265457634e487b7160e01b600052603260045260246000fd5b0155612661826001613e36565b91506125fd565b6000838152600d6020526040808220600490810154601e5484529183200154919350905b8082116126ee5761269e846001613e36565b9350600a8411156126ae576126ee565b600d6000601e86600b81106126d357634e487b7160e01b600052603260045260246000fd5b0154815260200190815260200160002060040154905061268c565b600a841015611bf75760095b84811061277357601e81600b811061272257634e487b7160e01b600052603260045260246000fd5b0154601e612731836001613e36565b600b811061274f57634e487b7160e01b600052603260045260246000fd5b0155801561276957612762600182613eba565b905061276e565b612773565b6126fa565b85601e86600b811061279557634e487b7160e01b600052603260045260246000fd5b0155505050505050565b6001600160a01b0383166127c55760405162461bcd60e51b815260040161087390613d3d565b336127f5818560006127d687612b6b565b6127df87612b6b565b5050604080516020810190915260009052505050565b60008381526001602090815260408083206001600160a01b0388168452909152902054828110156128385760405162461bcd60e51b815260040161087390613c31565b60006128448483613eba565b60008681526001602090815260408083206001600160a01b038b1684529091529020819055905080612894576001600160a01b03861660009081526020819052604090206128929086612030565b505b60408051868152602081018690526000916001600160a01b0389811692908716917fc3d58168c5ae7397731d063d5bbf3d657854427343f4c083240f7aacaa2d0f62910160405180910390a4505050505050565b6000805b600a82101561294b57826001600160a01b0316602983600b811061292057634e487b7160e01b600052603260045260246000fd5b01546001600160a01b031614156129395750600161294b565b612944826001613e36565b91506128ec565b80156129e3575b600a8210156129e3576029612968836001613e36565b600b811061298657634e487b7160e01b600052603260045260246000fd5b01546001600160a01b0316602983600b81106129b257634e487b7160e01b600052603260045260246000fd5b0180546001600160a01b0319166001600160a01b03929092169190911790556129dc826001613e36565b9150612952565b6001600160a01b038381166000908152600f60205260408082205460295490931682528120549093505b808211612a7757612a1f846001613e36565b9350600a841115612a2f57612a77565b600f6000602986600b8110612a5457634e487b7160e01b600052603260045260246000fd5b01546001600160a01b031681526020810191909152604001600020549050612a0d565b600a841015611bf75760095b848110612b2257602981600b8110612aab57634e487b7160e01b600052603260045260246000fd5b01546001600160a01b03166029612ac3836001613e36565b600b8110612ae157634e487b7160e01b600052603260045260246000fd5b0180546001600160a01b0319166001600160a01b03929092169190911790558015612b1857612b11600182613eba565b9050612b1d565b612b22565b612a83565b85602986600b8110612b4457634e487b7160e01b600052603260045260246000fd5b0180546001600160a01b0319166001600160a01b0392909216919091179055505050505050565b60408051600180825281830190925260609160009190602080830190803683370190505090508281600081518110612bb357634e487b7160e01b600052603260045260246000fd5b602090810291909101015292915050565b6001600160a01b0384163b15610e5e5760405163f23a6e6160e01b81526001600160a01b0385169063f23a6e6190612c089089908990889088908890600401613b50565b602060405180830381600087803b158015612c2257600080fd5b505af1925050508015612c52575060408051601f3d908101601f19168201909252612c4f918101906138d0565b60015b612c5e576120d6613f80565b6001600160e01b0319811663f23a6e6160e01b14611d6a5760405162461bcd60e51b815260040161087390613be9565b6000805b600a821015612cdf5782601383600b8110612cbd57634e487b7160e01b600052603260045260246000fd5b01541415612ccd57506001612cdf565b612cd8826001613e36565b9150612c92565b8015612de4575b600a821015612de4576013612cfc836001613e36565b600b8110612d1a57634e487b7160e01b600052603260045260246000fd5b0154601383600b8110612d3d57634e487b7160e01b600052603260045260246000fd5b01556011612d4c836001613e36565b600b8110612d6a57634e487b7160e01b600052603260045260246000fd5b600891828204019190066004029054906101000a900463ffffffff16601183600b8110612da757634e487b7160e01b600052603260045260246000fd5b600891828204019190066004026101000a81548163ffffffff021916908363ffffffff160217905550816001612ddd9190613e36565b9150612ce6565b6011546000848152600b602052604081205490935063ffffffff918216918491612e1791600160281b9091041642613eba565b90505b8163ffffffff168163ffffffff1611612e8c57612e38846001613e36565b9350600a841115612e4857612e8c565b601184600b8110612e6957634e487b7160e01b600052603260045260246000fd5b600891828204019190066004029054906101000a900463ffffffff169150612e1a565b600a841015611bf75760095b848110612fa657601381600b8110612ec057634e487b7160e01b600052603260045260246000fd5b01546013612ecf836001613e36565b600b8110612eed57634e487b7160e01b600052603260045260246000fd5b0155601181600b8110612f1057634e487b7160e01b600052603260045260246000fd5b600891828204019190066004029054906101000a900463ffffffff166011826001612f3b9190613e36565b600b8110612f5957634e487b7160e01b600052603260045260246000fd5b600891828204019190066004026101000a81548163ffffffff021916908363ffffffff16021790555080600014612f9c57612f95600182613eba565b9050612fa1565b612fa6565b612e98565b85601386600b8110612fc857634e487b7160e01b600052603260045260246000fd5b015581601186600b8110612fec57634e487b7160e01b600052603260045260246000fd5b600891828204019190066004026101000a81548163ffffffff021916908363ffffffff160217905550505050505050565b6000818152600183016020526040812054613064575081546001818101845560008481526020808220909301849055845484825282860190935260409020919091556108a1565b5060006108a1565b60008181526001830160205260408120548015613179576000613090600183613eba565b85549091506000906130a490600190613eba565b905060008660000182815481106130cb57634e487b7160e01b600052603260045260246000fd5b90600052602060002001549050808760000184815481106130fc57634e487b7160e01b600052603260045260246000fd5b60009182526020808320909101929092558281526001890190915260409020849055865487908061313d57634e487b7160e01b600052603160045260246000fd5b600190038181906000526020600020016000905590558660010160008781526020019081526020016000206000905560019450505050506108a1565b60009150506108a1565b815460009082106131e15760405162461bcd60e51b815260206004820152602260248201527f456e756d657261626c655365743a20696e646578206f7574206f6620626f756e604482015261647360f01b6064820152608401610873565b82600001828154811061320457634e487b7160e01b600052603260045260246000fd5b9060005260206000200154905092915050565b6001600160a01b03831661323d5760405162461bcd60e51b815260040161087390613d3d565b805182511461325e5760405162461bcd60e51b815260040161087390613dca565b604080516020810190915260009081905233905b835181101561338b57600084828151811061329d57634e487b7160e01b600052603260045260246000fd5b6020026020010151905060008483815181106132c957634e487b7160e01b600052603260045260246000fd5b60209081029190910181015160008481526001835260408082206001600160a01b038c16835290935291822054909250906133048383613eba565b9050828210156133265760405162461bcd60e51b815260040161087390613c31565b60008481526001602090815260408083206001600160a01b038d168452909152902081905580613374576001600160a01b03891660009081526020819052604090206133729085612030565b505b50505050808061338390613f39565b915050613272565b5060006001600160a01b0316846001600160a01b0316826001600160a01b03167f4a39dc06d4c0dbc64b70af90fd698a233a518aa5d07e595d983b8c0526c8f7fb86866040516133dc929190613ba8565b60405180910390a450505050565b8280546133f690613ed1565b90600052602060002090601f016020900481019282613418576000855561345e565b82601f1061343157805160ff191683800117855561345e565b8280016001018555821561345e579182015b8281111561345e578251825591602001919060010190613443565b5061346a929150613514565b5090565b8280548282559060005260206000209060070160089004810192821561345e5791602002820160005b838211156134db57835183826101000a81548163ffffffff021916908363ffffffff1602179055509260200192600401602081600301049283019260010302613497565b801561350b5782816101000a81549063ffffffff02191690556004016020816003010492830192600103026134db565b505061346a9291505b5b8082111561346a5760008155600101613515565b600067ffffffffffffffff83111561354357613543613f6a565b60405161355a601f8501601f191660200182613f0c565b80915083815284848401111561356f57600080fd5b83836020830137600060208583010152509392505050565b80356001600160a01b03811681146108f657600080fd5b600082601f8301126135ae578081fd5b813560206135bb82613e12565b6040516135c88282613f0c565b8381528281019150858301600585901b870184018810156135e7578586fd5b855b85811015613605578135845292840192908401906001016135e9565b5090979650505050505050565b600082601f830112613622578081fd5b610e8883833560208501613529565b600060208284031215613642578081fd5b610e8882613587565b6000806040838503121561365d578081fd5b61366683613587565b915061367460208401613587565b90509250929050565b600080600080600060a08688031215613694578081fd5b61369d86613587565b94506136ab60208701613587565b9350604086013567ffffffffffffffff808211156136c7578283fd5b6136d389838a0161359e565b945060608801359150808211156136e8578283fd5b6136f489838a0161359e565b93506080880135915080821115613709578283fd5b5061371688828901613612565b9150509295509295909350565b600080600080600060a0868803121561373a578081fd5b61374386613587565b945061375160208701613587565b93506040860135925060608601359150608086013567ffffffffffffffff81111561377a578182fd5b61371688828901613612565b60008060408385031215613798578182fd5b6137a183613587565b9150602083013580151581146137b5578182fd5b809150509250929050565b600080604083850312156137d2578081fd5b6137db83613587565b946020939093013593505050565b600080604083850312156137fb578182fd5b823567ffffffffffffffff80821115613812578384fd5b818501915085601f830112613825578384fd5b8135602061383282613e12565b60405161383f8282613f0c565b8381528281019150858301600585901b870184018b101561385e578889fd5b8896505b848710156138875761387381613587565b835260019690960195918301918301613862565b509650508601359250508082111561389d578283fd5b506138aa8582860161359e565b9150509250929050565b6000602082840312156138c5578081fd5b8135610e8881614029565b6000602082840312156138e1578081fd5b8151610e8881614029565b60008060008060808587031215613901578182fd5b843567ffffffffffffffff80821115613918578384fd5b818701915087601f83011261392b578384fd5b602061393b898435838601613529565b96508088013595506040880135925081831115613956578485fd5b828801925088601f840112613969578485fd5b823561397481613e12565b6040516139818282613f0c565b8281528381019150858401600584901b870185018d10156139a0578889fd5b8896505b838710156139d357803563ffffffff811681146139bf57898afd5b8352600196909601959184019184016139a4565b50965050505060608701359150808211156139ec578283fd5b506139f98782880161359e565b91505092959194509250565b600060208284031215613a16578081fd5b5035919050565b60008060408385031215613a2f578182fd5b82359150602083013567ffffffffffffffff811115613a4c578182fd5b6138aa8582860161359e565b60008060408385031215613a6a578182fd5b50508035926020909101359150565b6000815180845260208085019450808401835b83811015613aa857815187529582019590820190600101613a8c565b509495945050505050565b60008151808452815b81811015613ad857602081850181015186830182015201613abc565b81811115613ae95782602083870101525b50601f01601f19169290920160200192915050565b6001600160a01b0386811682528516602082015260a060408201819052600090613b2a90830186613a79565b8281036060840152613b3c8186613a79565b905082810360808401526119838185613ab3565b6001600160a01b03868116825285166020820152604081018490526060810183905260a060808201819052600090613b8a90830184613ab3565b979650505050505050565b600060208252610e886020830184613a79565b600060408252613bbb6040830185613a79565b8281036020840152613bcd8185613a79565b95945050505050565b600060208252610e886020830184613ab3565b60208082526028908201527f455243313135353a204552433131353552656365697665722072656a656374656040820152676420746f6b656e7360c01b606082015260800190565b60208082526024908201527f455243313135353a206275726e20616d6f756e7420657863656564732062616c604082015263616e636560e01b606082015260800190565b60208082526057908201527f54686973204964206e756d626572206973206e6f74206173736f63696174656460408201527f2077697468206f6e65206f6620796f75722073746172746572732c20706c656160608201527f736520747279207769746820612076616c69642069642e000000000000000000608082015260a00190565b60208082526025908201527f455243313135353a207472616e7366657220746f20746865207a65726f206164604082015264647265737360d81b606082015260800190565b60208082526023908201527f455243313135353a206275726e2066726f6d20746865207a65726f206164647260408201526265737360e81b606082015260800190565b6020808252602a908201527f455243313135353a20696e73756666696369656e742062616c616e636520666f60408201526939103a3930b739b332b960b11b606082015260800190565b60208082526028908201527f455243313135353a2069647320616e6420616d6f756e7473206c656e677468206040820152670dad2e6dac2e8c6d60c31b606082015260800190565b600067ffffffffffffffff821115613e2c57613e2c613f6a565b5060051b60200190565b60008219821115613e4957613e49613f54565b500190565b600063ffffffff808316818516808303821115613e6d57613e6d613f54565b01949350505050565b600060ff821660ff84168060ff03821115613e9357613e93613f54565b019392505050565b6000816000190483118215151615613eb557613eb5613f54565b500290565b600082821015613ecc57613ecc613f54565b500390565b600181811c90821680613ee557607f821691505b60208210811415613f0657634e487b7160e01b600052602260045260246000fd5b50919050565b601f8201601f1916810167ffffffffffffffff81118282101715613f3257613f32613f6a565b6040525050565b6000600019821415613f4d57613f4d613f54565b5060010190565b634e487b7160e01b600052601160045260246000fd5b634e487b7160e01b600052604160045260246000fd5b600060033d1115610a9d57600481823e5160e01c90565b600060443d1015613fa757610a9d565b6040516003193d81016004833e81513d67ffffffffffffffff8160248401118184111715613fd9575050505050610a9d565b8285019150815181811115613ff357505050505050610a9d565b843d870101602082850101111561400f57505050505050610a9d565b61401e60208286010187613f0c565b509094505050505090565b6001600160e01b03198116811461403f57600080fd5b5056fea2646970667358221220fc30fe8a3a040997243dea79d6722dbe89e0a2a9170619efc34368d079e4cf0064736f6c63430008030033",
  "bytecodeSha1": "07177b26416436be09e22ba03f2a7c6831b11a97",
  "compiler": {
    "evm_version": "istanbul",
    "optimizer": {
      "enabled": true,
      "runs": 200
    },
    "version": "0.8.3+commit.8d00100c"
  },
  "contractName": "Cafe",
  "language": "Solidity",
  "natspec": {
    "kind": "dev",
    "methods": {
      "bakeExistingRecipe(uint256,uint256[])": {
        "details": "Takes the id of an existing recipe and a batch of ingredients.  Burns the batch and the required flour, mints an item with the recipe Id "
      },
      "balanceOf(address,uint256)": {
        "details": "See {IERC1155-balanceOf}. Requirements: - `account` cannot be the zero address."
      },
      "balanceOfBatch(address[],uint256[])": {
        "details": "See {IERC1155-balanceOfBatch}. Requirements: - `accounts` and `ids` must have the same length."
      },
      "createStarter()": {
        "details": "Makes a new nonfungible starter with age attributes by burning 50 FLOUR "
      },
      "eatBakedGood(uint256,uint256)": {
        "details": "Burns an item, credits the player with a score equivalent to the total age of all ingredients "
      },
      "feedStarter(uint256)": {
        "details": "Burns 50 FLOUR and resets the time of death for your token"
      },
      "getGrindReset(address)": {
        "details": "Player stats and timers "
      },
      "getRecipeName(uint256)": {
        "details": "Helper functions for Recipe Struct "
      },
      "getTimeOfDeath(uint256)": {
        "details": "Helper functions for the Sourdough Struct "
      },
      "grindFlour()": {
        "details": "Credits the user FLOUR every 24 hours if submitted"
      },
      "isApprovedForAll(address,address)": {
        "details": "See {IERC1155-isApprovedForAll}."
      },
      "publishNewRecipe(string,uint256,uint32[],uint256[])": {
        "details": "Bakes and publishes a recipe that does not yet exist "
      },
      "safeBatchTransferFrom(address,address,uint256[],uint256[],bytes)": {
        "details": "See {IERC1155-safeBatchTransferFrom}."
      },
      "safeTransferFrom(address,address,uint256,uint256,bytes)": {
        "details": "See {IERC1155-safeTransferFrom}."
      },
      "setApprovalForAll(address,bool)": {
        "details": "See {IERC1155-setApprovalForAll}."
      },
      "splitStarter(uint256)": {
        "details": "Feeds and duplicates your starter, returning another with identical age - costs 100 FLOUR "
      },
      "supportsInterface(bytes4)": {
        "details": "See {IERC165-supportsInterface}."
      },
      "uri(uint256)": {
        "details": "See {IERC1155MetadataURI-uri}. This implementation returns the same URI for *all* token types. It relies on the token type ID substitution mechanism https://eips.ethereum.org/EIPS/eip-1155#metadata[defined in the EIP]. Clients calling this function must replace the `\\{id\\}` substring with the actual token type ID."
      }
    },
    "stateVariables": {
      "createCost": {
        "details": "These are the constructor parameters.  Create/feed Costs are the flour required to create and feed starters.   Timescale represents the timescale at which starters die, feed reset time, and  grindFlour cooldown grindReward is the reward for grinding flour"
      },
      "devAddress": {
        "details": "flourId denotes the id of the fungible FLOUR token dividerIndex separates fully-non-fungible starter ingredients and semi-fungible baked goods flourId is the index of the fungible flour asset grindCooldown determine whether or not an address can grind flour"
      },
      "flourSupply": {
        "details": "total stats"
      },
      "starterHighScoreAges": {
        "details": "highscores here "
      }
    },
    "version": 1
  },
  "opcodes": "PUSH1 0x80 PUSH1 0x40 MSTORE CALLVALUE DUP1 ISZERO PUSH2 0x10 JUMPI PUSH1 0x0 DUP1 REVERT JUMPDEST POP PUSH1 0x4 CALLDATASIZE LT PUSH2 0x2D5 JUMPI PUSH1 0x0 CALLDATALOAD PUSH1 0xE0 SHR DUP1 PUSH4 0x976C39BE GT PUSH2 0x182 JUMPI DUP1 PUSH4 0xC889D089 GT PUSH2 0xE9 JUMPI DUP1 PUSH4 0xE11FD028 GT PUSH2 0xA2 JUMPI DUP1 PUSH4 0xF6D989F2 GT PUSH2 0x7C JUMPI DUP1 PUSH4 0xF6D989F2 EQ PUSH2 0x7B2 JUMPI DUP1 PUSH4 0xF71ED3B8 EQ PUSH2 0x7BB JUMPI DUP1 PUSH4 0xFC4F816C EQ PUSH2 0x7E5 JUMPI DUP1 PUSH4 0xFCF73CBE EQ PUSH2 0x7F8 JUMPI PUSH2 0x2D5 JUMP JUMPDEST DUP1 PUSH4 0xE11FD028 EQ PUSH2 0x750 JUMPI DUP1 PUSH4 0xE985E9C5 EQ PUSH2 0x763 JUMPI DUP1 PUSH4 0xF242432A EQ PUSH2 0x79F JUMPI PUSH2 0x2D5 JUMP JUMPDEST DUP1 PUSH4 0xC889D089 EQ PUSH2 0x693 JUMPI DUP1 PUSH4 0xC8CF79D9 EQ PUSH2 0x69C JUMPI DUP1 PUSH4 0xCB208010 EQ PUSH2 0x6AF JUMPI DUP1 PUSH4 0xD0EAF368 EQ PUSH2 0x6D2 JUMPI DUP1 PUSH4 0xD682D87A EQ PUSH2 0x6FB JUMPI DUP1 PUSH4 0xE085C539 EQ PUSH2 0x727 JUMPI PUSH2 0x2D5 JUMP JUMPDEST DUP1 PUSH4 0xA41E1C17 GT PUSH2 0x13B JUMPI DUP1 PUSH4 0xA41E1C17 EQ PUSH2 0x635 JUMPI DUP1 PUSH4 0xA7C62323 EQ PUSH2 0x648 JUMPI DUP1 PUSH4 0xB172DECC EQ PUSH2 0x651 JUMPI DUP1 PUSH4 0xBA0BD64A EQ PUSH2 0x664 JUMPI DUP1 PUSH4 0xBF3C95B9 EQ PUSH2 0x66D JUMPI DUP1 PUSH4 0xC3B1066F EQ PUSH2 0x680 JUMPI PUSH2 0x2D5 JUMP JUMPDEST DUP1 PUSH4 0x976C39BE EQ PUSH2 0x591 JUMPI DUP1 PUSH4 0x97EC23CB EQ PUSH2 0x5B4 JUMPI DUP1 PUSH4 0xA07B6A42 EQ PUSH2 0x5E1 JUMPI DUP1 PUSH4 0xA22CB465 EQ PUSH2 0x5EA JUMPI DUP1 PUSH4 0xA30B4DB9 EQ PUSH2 0x5FD JUMPI DUP1 PUSH4 0xA3486758 EQ PUSH2 0x62D JUMPI PUSH2 0x2D5 JUMP JUMPDEST DUP1 PUSH4 0x3AD10EF6 GT PUSH2 0x241 JUMPI DUP1 PUSH4 0x6510989C GT PUSH2 0x1FA JUMPI DUP1 PUSH4 0x7985781F GT PUSH2 0x1D4 JUMPI DUP1 PUSH4 0x7985781F EQ PUSH2 0x4EF JUMPI DUP1 PUSH4 0x7A77AF5C EQ PUSH2 0x51E JUMPI DUP1 PUSH4 0x7F8315CD EQ PUSH2 0x55B JUMPI DUP1 PUSH4 0x956AC17A EQ PUSH2 0x581 JUMPI PUSH2 0x2D5 JUMP JUMPDEST DUP1 PUSH4 0x6510989C EQ PUSH2 0x4A6 JUMPI DUP1 PUSH4 0x70B5E7B0 EQ PUSH2 0x4B9 JUMPI DUP1 PUSH4 0x781F1B75 EQ PUSH2 0x4DC JUMPI PUSH2 0x2D5 JUMP JUMPDEST DUP1 PUSH4 0x3AD10EF6 EQ PUSH2 0x431 JUMPI DUP1 PUSH4 0x42DA6F9C EQ PUSH2 0x444 JUMPI DUP1 PUSH4 0x4C777CAC EQ PUSH2 0x457 JUMPI DUP1 PUSH4 0x4E1273F4 EQ PUSH2 0x46A JUMPI DUP1 PUSH4 0x4F41393B EQ PUSH2 0x48A JUMPI DUP1 PUSH4 0x5C2C894A EQ PUSH2 0x49D JUMPI PUSH2 0x2D5 JUMP JUMPDEST DUP1 PUSH4 0x2A316CDF GT PUSH2 0x293 JUMPI DUP1 PUSH4 0x2A316CDF EQ PUSH2 0x389 JUMPI DUP1 PUSH4 0x2B944DDF EQ PUSH2 0x3AC JUMPI DUP1 PUSH4 0x2EB2C2D6 EQ PUSH2 0x3B5 JUMPI DUP1 PUSH4 0x2F745C59 EQ PUSH2 0x3CA JUMPI DUP1 PUSH4 0x34B7FA22 EQ PUSH2 0x3DD JUMPI DUP1 PUSH4 0x36FF4C95 EQ PUSH2 0x405 JUMPI PUSH2 0x2D5 JUMP JUMPDEST DUP1 PUSH3 0xFDD58E EQ PUSH2 0x2DA JUMPI DUP1 PUSH4 0x1FFC9A7 EQ PUSH2 0x300 JUMPI DUP1 PUSH4 0x7047482 EQ PUSH2 0x323 JUMPI DUP1 PUSH4 0xE89341C EQ PUSH2 0x32B JUMPI DUP1 PUSH4 0x1269CA40 EQ PUSH2 0x34B JUMPI DUP1 PUSH4 0x214FA99B EQ PUSH2 0x35E JUMPI JUMPDEST PUSH1 0x0 DUP1 REVERT JUMPDEST PUSH2 0x2ED PUSH2 0x2E8 CALLDATASIZE PUSH1 0x4 PUSH2 0x37C0 JUMP JUMPDEST PUSH2 0x80B JUMP JUMPDEST PUSH1 0x40 MLOAD SWAP1 DUP2 MSTORE PUSH1 0x20 ADD JUMPDEST PUSH1 0x40 MLOAD DUP1 SWAP2 SUB SWAP1 RETURN JUMPDEST PUSH2 0x313 PUSH2 0x30E CALLDATASIZE PUSH1 0x4 PUSH2 0x38B4 JUMP JUMPDEST PUSH2 0x8A7 JUMP JUMPDEST PUSH1 0x40 MLOAD SWAP1 ISZERO ISZERO DUP2 MSTORE PUSH1 0x20 ADD PUSH2 0x2F7 JUMP JUMPDEST PUSH2 0x313 PUSH2 0x8FB JUMP JUMPDEST PUSH2 0x33E PUSH2 0x339 CALLDATASIZE PUSH1 0x4 PUSH2 0x3A05 JUMP JUMPDEST PUSH2 0xAA0 JUMP JUMPDEST PUSH1 0x40 MLOAD PUSH2 0x2F7 SWAP2 SWAP1 PUSH2 0x3BD6 JUMP JUMPDEST PUSH2 0x33E PUSH2 0x359 CALLDATASIZE PUSH1 0x4 PUSH2 0x3A05 JUMP JUMPDEST PUSH2 0xB34 JUMP JUMPDEST PUSH2 0x371 PUSH2 0x36C CALLDATASIZE PUSH1 0x4 PUSH2 0x3A05 JUMP JUMPDEST PUSH2 0xB51 JUMP JUMPDEST PUSH1 0x40 MLOAD PUSH1 0x1 PUSH1 0x1 PUSH1 0xA0 SHL SUB SWAP1 SWAP2 AND DUP2 MSTORE PUSH1 0x20 ADD PUSH2 0x2F7 JUMP JUMPDEST PUSH2 0x2ED PUSH2 0x397 CALLDATASIZE PUSH1 0x4 PUSH2 0x3A05 JUMP JUMPDEST PUSH1 0x0 SWAP1 DUP2 MSTORE PUSH1 0xD PUSH1 0x20 MSTORE PUSH1 0x40 SWAP1 KECCAK256 PUSH1 0x1 ADD SLOAD SWAP1 JUMP JUMPDEST PUSH2 0x2ED PUSH1 0x35 SLOAD DUP2 JUMP JUMPDEST PUSH2 0x3C8 PUSH2 0x3C3 CALLDATASIZE PUSH1 0x4 PUSH2 0x367D JUMP JUMPDEST PUSH2 0xB71 JUMP JUMPDEST STOP JUMPDEST PUSH2 0x2ED PUSH2 0x3D8 CALLDATASIZE PUSH1 0x4 PUSH2 0x37C0 JUMP JUMPDEST PUSH2 0xE66 JUMP JUMPDEST PUSH2 0x3F0 PUSH2 0x3EB CALLDATASIZE PUSH1 0x4 PUSH2 0x3A58 JUMP JUMPDEST PUSH2 0xE8F JUMP JUMPDEST PUSH1 0x40 MLOAD PUSH4 0xFFFFFFFF SWAP1 SWAP2 AND DUP2 MSTORE PUSH1 0x20 ADD PUSH2 0x2F7 JUMP JUMPDEST PUSH2 0x313 PUSH2 0x413 CALLDATASIZE PUSH1 0x4 PUSH2 0x3631 JUMP JUMPDEST PUSH1 0x1 PUSH1 0x1 PUSH1 0xA0 SHL SUB AND PUSH1 0x0 SWAP1 DUP2 MSTORE PUSH1 0x10 PUSH1 0x20 MSTORE PUSH1 0x40 SWAP1 KECCAK256 SLOAD PUSH1 0xFF AND SWAP1 JUMP JUMPDEST PUSH1 0x8 SLOAD PUSH2 0x371 SWAP1 PUSH1 0x1 PUSH1 0x1 PUSH1 0xA0 SHL SUB AND DUP2 JUMP JUMPDEST PUSH2 0x2ED PUSH2 0x452 CALLDATASIZE PUSH1 0x4 PUSH2 0x3631 JUMP JUMPDEST PUSH2 0xEEE JUMP JUMPDEST PUSH2 0x3F0 PUSH2 0x465 CALLDATASIZE PUSH1 0x4 PUSH2 0x3A05 JUMP JUMPDEST PUSH2 0xF0F JUMP JUMPDEST PUSH2 0x47D PUSH2 0x478 CALLDATASIZE PUSH1 0x4 PUSH2 0x37E9 JUMP JUMPDEST PUSH2 0xF3F JUMP JUMPDEST PUSH1 0x40 MLOAD PUSH2 0x2F7 SWAP2 SWAP1 PUSH2 0x3B95 JUMP JUMPDEST PUSH2 0x313 PUSH2 0x498 CALLDATASIZE PUSH1 0x4 PUSH2 0x3A1D JUMP JUMPDEST PUSH2 0x10A1 JUMP JUMPDEST PUSH2 0x2ED PUSH1 0x36 SLOAD DUP2 JUMP JUMPDEST PUSH2 0x313 PUSH2 0x4B4 CALLDATASIZE PUSH1 0x4 PUSH2 0x3A58 JUMP JUMPDEST PUSH2 0x1288 JUMP JUMPDEST PUSH2 0x2ED PUSH2 0x4C7 CALLDATASIZE PUSH1 0x4 PUSH2 0x3A05 JUMP JUMPDEST PUSH1 0x0 SWAP1 DUP2 MSTORE PUSH1 0xD PUSH1 0x20 MSTORE PUSH1 0x40 SWAP1 KECCAK256 PUSH1 0x5 ADD SLOAD SWAP1 JUMP JUMPDEST PUSH2 0x313 PUSH2 0x4EA CALLDATASIZE PUSH1 0x4 PUSH2 0x3A05 JUMP JUMPDEST PUSH2 0x13A1 JUMP JUMPDEST PUSH2 0x3F0 PUSH2 0x4FD CALLDATASIZE PUSH1 0x4 PUSH2 0x3631 JUMP JUMPDEST PUSH1 0x1 PUSH1 0x1 PUSH1 0xA0 SHL SUB AND PUSH1 0x0 SWAP1 DUP2 MSTORE PUSH1 0xC PUSH1 0x20 MSTORE PUSH1 0x40 SWAP1 KECCAK256 SLOAD PUSH4 0xFFFFFFFF AND SWAP1 JUMP JUMPDEST PUSH2 0x549 PUSH2 0x52C CALLDATASIZE PUSH1 0x4 PUSH2 0x3A05 JUMP JUMPDEST PUSH1 0x0 SWAP1 DUP2 MSTORE PUSH1 0xB PUSH1 0x20 MSTORE PUSH1 0x40 SWAP1 KECCAK256 SLOAD PUSH5 0x100000000 SWAP1 DIV PUSH1 0xFF AND SWAP1 JUMP JUMPDEST PUSH1 0x40 MLOAD PUSH1 0xFF SWAP1 SWAP2 AND DUP2 MSTORE PUSH1 0x20 ADD PUSH2 0x2F7 JUMP JUMPDEST PUSH2 0x3F0 PUSH2 0x569 CALLDATASIZE PUSH1 0x4 PUSH2 0x3A05 JUMP JUMPDEST PUSH1 0x0 SWAP1 DUP2 MSTORE PUSH1 0xB PUSH1 0x20 MSTORE PUSH1 0x40 SWAP1 KECCAK256 SLOAD PUSH4 0xFFFFFFFF AND SWAP1 JUMP JUMPDEST PUSH1 0x6 SLOAD PUSH2 0x3F0 SWAP1 PUSH4 0xFFFFFFFF AND DUP2 JUMP JUMPDEST PUSH2 0x2ED PUSH2 0x59F CALLDATASIZE PUSH1 0x4 PUSH2 0x3A05 JUMP JUMPDEST PUSH1 0x0 SWAP1 DUP2 MSTORE PUSH1 0xD PUSH1 0x20 MSTORE PUSH1 0x40 SWAP1 KECCAK256 PUSH1 0x4 ADD SLOAD SWAP1 JUMP JUMPDEST PUSH2 0x3F0 PUSH2 0x5C2 CALLDATASIZE PUSH1 0x4 PUSH2 0x3A05 JUMP JUMPDEST PUSH1 0x0 SWAP1 DUP2 MSTORE PUSH1 0xB PUSH1 0x20 MSTORE PUSH1 0x40 SWAP1 KECCAK256 SLOAD PUSH1 0x1 PUSH1 0x28 SHL SWAP1 DIV PUSH4 0xFFFFFFFF AND SWAP1 JUMP JUMPDEST PUSH2 0x2ED PUSH1 0x5 SLOAD DUP2 JUMP JUMPDEST PUSH2 0x3C8 PUSH2 0x5F8 CALLDATASIZE PUSH1 0x4 PUSH2 0x3786 JUMP JUMPDEST PUSH2 0x156A JUMP JUMPDEST PUSH2 0x371 PUSH2 0x60B CALLDATASIZE PUSH1 0x4 PUSH2 0x3A05 JUMP JUMPDEST PUSH1 0x0 SWAP1 DUP2 MSTORE PUSH1 0xB PUSH1 0x20 MSTORE PUSH1 0x40 SWAP1 KECCAK256 SLOAD PUSH1 0x1 PUSH1 0x48 SHL SWAP1 DIV PUSH1 0x1 PUSH1 0x1 PUSH1 0xA0 SHL SUB AND SWAP1 JUMP JUMPDEST PUSH2 0x3C8 PUSH2 0x164E JUMP JUMPDEST PUSH2 0x2ED PUSH2 0x643 CALLDATASIZE PUSH1 0x4 PUSH2 0x38EC JUMP JUMPDEST PUSH2 0x1728 JUMP JUMPDEST PUSH2 0x2ED PUSH1 0x7 SLOAD DUP2 JUMP JUMPDEST PUSH2 0x313 PUSH2 0x65F CALLDATASIZE PUSH1 0x4 PUSH2 0x3A58 JUMP JUMPDEST PUSH2 0x198F JUMP JUMPDEST PUSH2 0x2ED PUSH1 0x4 SLOAD DUP2 JUMP JUMPDEST PUSH2 0x2ED PUSH2 0x67B CALLDATASIZE PUSH1 0x4 PUSH2 0x3631 JUMP JUMPDEST PUSH2 0x1A8B JUMP JUMPDEST PUSH2 0x2ED PUSH2 0x68E CALLDATASIZE PUSH1 0x4 PUSH2 0x3A05 JUMP JUMPDEST PUSH2 0x1AAC JUMP JUMPDEST PUSH2 0x2ED PUSH1 0x34 SLOAD DUP2 JUMP JUMPDEST PUSH2 0x313 PUSH2 0x6AA CALLDATASIZE PUSH1 0x4 PUSH2 0x3A05 JUMP JUMPDEST PUSH2 0x1AC3 JUMP JUMPDEST PUSH2 0x2ED PUSH2 0x6BD CALLDATASIZE PUSH1 0x4 PUSH2 0x3A05 JUMP JUMPDEST PUSH1 0x0 SWAP1 DUP2 MSTORE PUSH1 0xD PUSH1 0x20 MSTORE PUSH1 0x40 SWAP1 KECCAK256 PUSH1 0x2 ADD SLOAD SWAP1 JUMP JUMPDEST PUSH2 0x3F0 PUSH2 0x6E0 CALLDATASIZE PUSH1 0x4 PUSH2 0x3A05 JUMP JUMPDEST PUSH1 0x0 SWAP1 DUP2 MSTORE PUSH1 0xD PUSH1 0x20 MSTORE PUSH1 0x40 SWAP1 KECCAK256 PUSH1 0x6 ADD SLOAD PUSH4 0xFFFFFFFF AND SWAP1 JUMP JUMPDEST PUSH2 0x371 PUSH2 0x709 CALLDATASIZE PUSH1 0x4 PUSH2 0x3A05 JUMP JUMPDEST PUSH1 0x0 SWAP1 DUP2 MSTORE PUSH1 0xD PUSH1 0x20 MSTORE PUSH1 0x40 SWAP1 KECCAK256 PUSH1 0x3 ADD SLOAD PUSH1 0x1 PUSH1 0x1 PUSH1 0xA0 SHL SUB AND SWAP1 JUMP JUMPDEST PUSH2 0x2ED PUSH2 0x735 CALLDATASIZE PUSH1 0x4 PUSH2 0x3631 JUMP JUMPDEST PUSH1 0x1 PUSH1 0x1 PUSH1 0xA0 SHL SUB AND PUSH1 0x0 SWAP1 DUP2 MSTORE PUSH1 0xF PUSH1 0x20 MSTORE PUSH1 0x40 SWAP1 KECCAK256 SLOAD SWAP1 JUMP JUMPDEST PUSH2 0x2ED PUSH2 0x75E CALLDATASIZE PUSH1 0x4 PUSH2 0x3A05 JUMP JUMPDEST PUSH2 0x1B2E JUMP JUMPDEST PUSH2 0x313 PUSH2 0x771 CALLDATASIZE PUSH1 0x4 PUSH2 0x364B JUMP JUMPDEST PUSH1 0x1 PUSH1 0x1 PUSH1 0xA0 SHL SUB SWAP2 DUP3 AND PUSH1 0x0 SWAP1 DUP2 MSTORE PUSH1 0x2 PUSH1 0x20 SWAP1 DUP2 MSTORE PUSH1 0x40 DUP1 DUP4 KECCAK256 SWAP4 SWAP1 SWAP5 AND DUP3 MSTORE SWAP2 SWAP1 SWAP2 MSTORE KECCAK256 SLOAD PUSH1 0xFF AND SWAP1 JUMP JUMPDEST PUSH2 0x3C8 PUSH2 0x7AD CALLDATASIZE PUSH1 0x4 PUSH2 0x3723 JUMP JUMPDEST PUSH2 0x1B3E JUMP JUMPDEST PUSH2 0x2ED PUSH1 0x37 SLOAD DUP2 JUMP JUMPDEST PUSH2 0x313 PUSH2 0x7C9 CALLDATASIZE PUSH1 0x4 PUSH2 0x3A05 JUMP JUMPDEST PUSH1 0x0 SWAP1 DUP2 MSTORE PUSH1 0xB PUSH1 0x20 MSTORE PUSH1 0x40 SWAP1 KECCAK256 SLOAD PUSH1 0x1 PUSH1 0xE8 SHL SWAP1 DIV PUSH1 0xFF AND SWAP1 JUMP JUMPDEST PUSH2 0x313 PUSH2 0x7F3 CALLDATASIZE PUSH1 0x4 PUSH2 0x3A05 JUMP JUMPDEST PUSH2 0x1D73 JUMP JUMPDEST PUSH2 0x2ED PUSH2 0x806 CALLDATASIZE PUSH1 0x4 PUSH2 0x37C0 JUMP JUMPDEST PUSH2 0x1E9C JUMP JUMPDEST PUSH1 0x0 PUSH1 0x1 PUSH1 0x1 PUSH1 0xA0 SHL SUB DUP4 AND PUSH2 0x87C JUMPI PUSH1 0x40 MLOAD PUSH3 0x461BCD PUSH1 0xE5 SHL DUP2 MSTORE PUSH1 0x20 PUSH1 0x4 DUP3 ADD MSTORE PUSH1 0x2B PUSH1 0x24 DUP3 ADD MSTORE PUSH32 0x455243313135353A2062616C616E636520717565727920666F7220746865207A PUSH1 0x44 DUP3 ADD MSTORE PUSH11 0x65726F2061646472657373 PUSH1 0xA8 SHL PUSH1 0x64 DUP3 ADD MSTORE PUSH1 0x84 ADD JUMPDEST PUSH1 0x40 MLOAD DUP1 SWAP2 SUB SWAP1 REVERT JUMPDEST POP PUSH1 0x0 DUP2 DUP2 MSTORE PUSH1 0x1 PUSH1 0x20 SWAP1 DUP2 MSTORE PUSH1 0x40 DUP1 DUP4 KECCAK256 PUSH1 0x1 PUSH1 0x1 PUSH1 0xA0 SHL SUB DUP7 AND DUP5 MSTORE SWAP1 SWAP2 MSTORE SWAP1 KECCAK256 SLOAD JUMPDEST SWAP3 SWAP2 POP POP JUMP JUMPDEST PUSH1 0x0 PUSH1 0x1 PUSH1 0x1 PUSH1 0xE0 SHL SUB NOT DUP3 AND PUSH4 0x6CDB3D13 PUSH1 0xE1 SHL EQ DUP1 PUSH2 0x8D8 JUMPI POP PUSH1 0x1 PUSH1 0x1 PUSH1 0xE0 SHL SUB NOT DUP3 AND PUSH4 0x3A24D07 PUSH1 0xE2 SHL EQ JUMPDEST DUP1 PUSH2 0x8F3 JUMPI POP PUSH4 0x1FFC9A7 PUSH1 0xE0 SHL PUSH1 0x1 PUSH1 0x1 PUSH1 0xE0 SHL SUB NOT DUP4 AND EQ JUMPDEST SWAP1 POP JUMPDEST SWAP2 SWAP1 POP JUMP JUMPDEST PUSH1 0x0 PUSH2 0x909 CALLER PUSH1 0x4 SLOAD PUSH2 0x1EBE JUMP JUMPDEST PUSH1 0x0 PUSH1 0x35 SLOAD PUSH1 0x1 PUSH2 0x91A SWAP2 SWAP1 PUSH2 0x3E36 JUMP JUMPDEST SWAP1 POP PUSH2 0x942 CALLER PUSH2 0x92B DUP4 PUSH1 0x0 PUSH2 0x3E36 JUMP JUMPDEST PUSH1 0x1 PUSH1 0x40 MLOAD DUP1 PUSH1 0x20 ADD PUSH1 0x40 MSTORE DUP1 PUSH1 0x0 DUP2 MSTORE POP PUSH2 0x1EFE JUMP JUMPDEST PUSH1 0x40 DUP1 MLOAD PUSH1 0xC0 DUP2 ADD SWAP1 SWAP2 MSTORE PUSH1 0x6 SLOAD PUSH1 0x0 SWAP2 SWAP1 DUP2 SWAP1 PUSH2 0x966 SWAP1 PUSH4 0xFFFFFFFF AND TIMESTAMP PUSH2 0x3E36 JUMP JUMPDEST PUSH4 0xFFFFFFFF AND DUP2 MSTORE PUSH1 0x20 ADD PUSH1 0x0 PUSH1 0xFF AND DUP2 MSTORE PUSH1 0x20 ADD TIMESTAMP PUSH4 0xFFFFFFFF AND DUP2 MSTORE PUSH1 0x20 ADD CALLER PUSH1 0x1 PUSH1 0x1 PUSH1 0xA0 SHL SUB AND DUP2 MSTORE PUSH1 0x20 ADD PUSH1 0x0 ISZERO ISZERO DUP2 MSTORE PUSH1 0x20 ADD TIMESTAMP PUSH4 0xFFFFFFFF AND DUP2 MSTORE POP SWAP1 POP PUSH1 0x1 PUSH1 0x35 PUSH1 0x0 DUP3 DUP3 SLOAD PUSH2 0x9BE SWAP2 SWAP1 PUSH2 0x3E36 JUMP JUMPDEST SWAP1 SWAP2 SSTORE POP POP PUSH1 0x0 SWAP2 DUP3 MSTORE PUSH1 0xB PUSH1 0x20 SWAP1 DUP2 MSTORE PUSH1 0x40 SWAP3 DUP4 SWAP1 KECCAK256 DUP3 MLOAD DUP2 SLOAD SWAP3 DUP5 ADD MLOAD SWAP5 DUP5 ADD MLOAD PUSH1 0x60 DUP6 ADD MLOAD PUSH1 0x80 DUP7 ADD MLOAD ISZERO ISZERO PUSH1 0x1 PUSH1 0xE8 SHL MUL PUSH1 0xFF PUSH1 0xE8 SHL NOT PUSH1 0x1 PUSH1 0x1 PUSH1 0xA0 SHL SUB SWAP1 SWAP3 AND PUSH1 0x1 PUSH1 0x48 SHL MUL PUSH32 0xFFFFFF0000000000000000000000000000000000000000FFFFFFFFFFFFFFFFFF PUSH4 0xFFFFFFFF SWAP5 DUP6 AND PUSH1 0x1 PUSH1 0x28 SHL MUL AND PUSH6 0x10000000000 PUSH1 0x1 PUSH1 0xE8 SHL SUB NOT PUSH1 0xFF SWAP1 SWAP11 AND PUSH5 0x100000000 MUL PUSH5 0xFFFFFFFFFF NOT SWAP1 SWAP9 AND SWAP6 DUP6 AND SWAP6 SWAP1 SWAP6 OR SWAP7 SWAP1 SWAP7 OR SWAP8 SWAP1 SWAP8 AND SWAP3 SWAP1 SWAP3 OR SWAP4 SWAP1 SWAP4 OR AND SWAP4 SWAP1 SWAP4 OR DUP4 SSTORE PUSH1 0xA0 SWAP1 SWAP2 ADD MLOAD PUSH1 0x1 SWAP3 DUP4 ADD DUP1 SLOAD SWAP2 SWAP1 SWAP3 AND PUSH4 0xFFFFFFFF NOT SWAP2 SWAP1 SWAP2 AND OR SWAP1 SSTORE SWAP1 POP JUMPDEST SWAP1 JUMP JUMPDEST PUSH1 0x60 PUSH1 0x3 DUP1 SLOAD PUSH2 0xAAF SWAP1 PUSH2 0x3ED1 JUMP JUMPDEST DUP1 PUSH1 0x1F ADD PUSH1 0x20 DUP1 SWAP2 DIV MUL PUSH1 0x20 ADD PUSH1 0x40 MLOAD SWAP1 DUP2 ADD PUSH1 0x40 MSTORE DUP1 SWAP3 SWAP2 SWAP1 DUP2 DUP2 MSTORE PUSH1 0x20 ADD DUP3 DUP1 SLOAD PUSH2 0xADB SWAP1 PUSH2 0x3ED1 JUMP JUMPDEST DUP1 ISZERO PUSH2 0xB28 JUMPI DUP1 PUSH1 0x1F LT PUSH2 0xAFD JUMPI PUSH2 0x100 DUP1 DUP4 SLOAD DIV MUL DUP4 MSTORE SWAP2 PUSH1 0x20 ADD SWAP2 PUSH2 0xB28 JUMP JUMPDEST DUP3 ADD SWAP2 SWAP1 PUSH1 0x0 MSTORE PUSH1 0x20 PUSH1 0x0 KECCAK256 SWAP1 JUMPDEST DUP2 SLOAD DUP2 MSTORE SWAP1 PUSH1 0x1 ADD SWAP1 PUSH1 0x20 ADD DUP1 DUP4 GT PUSH2 0xB0B JUMPI DUP3 SWAP1 SUB PUSH1 0x1F AND DUP3 ADD SWAP2 JUMPDEST POP POP POP POP POP SWAP1 POP SWAP2 SWAP1 POP JUMP JUMPDEST PUSH1 0x0 DUP2 DUP2 MSTORE PUSH1 0xD PUSH1 0x20 MSTORE PUSH1 0x40 SWAP1 KECCAK256 DUP1 SLOAD PUSH1 0x60 SWAP2 SWAP1 PUSH2 0xAAF SWAP1 PUSH2 0x3ED1 JUMP JUMPDEST PUSH1 0x29 DUP2 PUSH1 0xB DUP2 LT PUSH2 0xB61 JUMPI PUSH1 0x0 DUP1 REVERT JUMPDEST ADD SLOAD PUSH1 0x1 PUSH1 0x1 PUSH1 0xA0 SHL SUB AND SWAP1 POP DUP2 JUMP JUMPDEST DUP2 MLOAD DUP4 MLOAD EQ PUSH2 0xB92 JUMPI PUSH1 0x40 MLOAD PUSH3 0x461BCD PUSH1 0xE5 SHL DUP2 MSTORE PUSH1 0x4 ADD PUSH2 0x873 SWAP1 PUSH2 0x3DCA JUMP JUMPDEST PUSH1 0x1 PUSH1 0x1 PUSH1 0xA0 SHL SUB DUP5 AND PUSH2 0xBB8 JUMPI PUSH1 0x40 MLOAD PUSH3 0x461BCD PUSH1 0xE5 SHL DUP2 MSTORE PUSH1 0x4 ADD PUSH2 0x873 SWAP1 PUSH2 0x3CF8 JUMP JUMPDEST PUSH1 0x1 PUSH1 0x1 PUSH1 0xA0 SHL SUB DUP6 AND CALLER EQ DUP1 PUSH2 0xBD4 JUMPI POP PUSH2 0xBD4 DUP6 CALLER PUSH2 0x771 JUMP JUMPDEST PUSH2 0xC3B JUMPI PUSH1 0x40 MLOAD PUSH3 0x461BCD PUSH1 0xE5 SHL DUP2 MSTORE PUSH1 0x20 PUSH1 0x4 DUP3 ADD MSTORE PUSH1 0x32 PUSH1 0x24 DUP3 ADD MSTORE PUSH32 0x455243313135353A207472616E736665722063616C6C6572206973206E6F7420 PUSH1 0x44 DUP3 ADD MSTORE PUSH18 0x1BDDDB995C881B9BDC88185C1C1C9BDD9959 PUSH1 0x72 SHL PUSH1 0x64 DUP3 ADD MSTORE PUSH1 0x84 ADD PUSH2 0x873 JUMP JUMPDEST CALLER PUSH1 0x0 JUMPDEST DUP5 MLOAD DUP2 LT ISZERO PUSH2 0xDF8 JUMPI PUSH1 0x0 DUP6 DUP3 DUP2 MLOAD DUP2 LT PUSH2 0xC6A JUMPI PUSH4 0x4E487B71 PUSH1 0xE0 SHL PUSH1 0x0 MSTORE PUSH1 0x32 PUSH1 0x4 MSTORE PUSH1 0x24 PUSH1 0x0 REVERT JUMPDEST PUSH1 0x20 MUL PUSH1 0x20 ADD ADD MLOAD SWAP1 POP PUSH1 0x0 DUP6 DUP4 DUP2 MLOAD DUP2 LT PUSH2 0xC96 JUMPI PUSH4 0x4E487B71 PUSH1 0xE0 SHL PUSH1 0x0 MSTORE PUSH1 0x32 PUSH1 0x4 MSTORE PUSH1 0x24 PUSH1 0x0 REVERT JUMPDEST PUSH1 0x20 SWAP1 DUP2 MUL SWAP2 SWAP1 SWAP2 ADD DUP2 ADD MLOAD PUSH1 0x0 DUP5 DUP2 MSTORE PUSH1 0x1 DUP4 MSTORE PUSH1 0x40 DUP1 DUP3 KECCAK256 PUSH1 0x1 PUSH1 0x1 PUSH1 0xA0 SHL SUB DUP15 AND DUP4 MSTORE SWAP1 SWAP4 MSTORE SWAP2 SWAP1 SWAP2 KECCAK256 SLOAD SWAP1 SWAP2 POP DUP2 DUP2 LT ISZERO PUSH2 0xCE7 JUMPI PUSH1 0x40 MLOAD PUSH3 0x461BCD PUSH1 0xE5 SHL DUP2 MSTORE PUSH1 0x4 ADD PUSH2 0x873 SWAP1 PUSH2 0x3D80 JUMP JUMPDEST PUSH2 0xCF1 DUP3 DUP3 PUSH2 0x3EBA JUMP JUMPDEST PUSH1 0x1 PUSH1 0x0 DUP6 DUP2 MSTORE PUSH1 0x20 ADD SWAP1 DUP2 MSTORE PUSH1 0x20 ADD PUSH1 0x0 KECCAK256 PUSH1 0x0 DUP13 PUSH1 0x1 PUSH1 0x1 PUSH1 0xA0 SHL SUB AND PUSH1 0x1 PUSH1 0x1 PUSH1 0xA0 SHL SUB AND DUP2 MSTORE PUSH1 0x20 ADD SWAP1 DUP2 MSTORE PUSH1 0x20 ADD PUSH1 0x0 KECCAK256 DUP2 SWAP1 SSTORE POP DUP2 PUSH1 0x1 PUSH1 0x0 DUP6 DUP2 MSTORE PUSH1 0x20 ADD SWAP1 DUP2 MSTORE PUSH1 0x20 ADD PUSH1 0x0 KECCAK256 PUSH1 0x0 DUP12 PUSH1 0x1 PUSH1 0x1 PUSH1 0xA0 SHL SUB AND PUSH1 0x1 PUSH1 0x1 PUSH1 0xA0 SHL SUB AND DUP2 MSTORE PUSH1 0x20 ADD SWAP1 DUP2 MSTORE PUSH1 0x20 ADD PUSH1 0x0 KECCAK256 PUSH1 0x0 DUP3 DUP3 SLOAD PUSH2 0xD71 SWAP2 SWAP1 PUSH2 0x3E36 JUMP JUMPDEST SWAP1 SWAP2 SSTORE POP POP PUSH1 0x1 PUSH1 0x1 PUSH1 0xA0 SHL SUB DUP10 AND PUSH1 0x0 SWAP1 DUP2 MSTORE PUSH1 0x20 DUP2 SWAP1 MSTORE PUSH1 0x40 SWAP1 KECCAK256 PUSH2 0xD98 SWAP1 DUP5 PUSH2 0x2024 JUMP JUMPDEST POP PUSH1 0x0 DUP4 DUP2 MSTORE PUSH1 0x1 PUSH1 0x20 SWAP1 DUP2 MSTORE PUSH1 0x40 DUP1 DUP4 KECCAK256 PUSH1 0x1 PUSH1 0x1 PUSH1 0xA0 SHL SUB DUP15 AND DUP5 MSTORE SWAP1 SWAP2 MSTORE SWAP1 KECCAK256 SLOAD PUSH2 0xDE4 JUMPI PUSH1 0x1 PUSH1 0x1 PUSH1 0xA0 SHL SUB DUP11 AND PUSH1 0x0 SWAP1 DUP2 MSTORE PUSH1 0x20 DUP2 SWAP1 MSTORE PUSH1 0x40 SWAP1 KECCAK256 PUSH2 0xDE2 SWAP1 DUP5 PUSH2 0x2030 JUMP JUMPDEST POP JUMPDEST POP POP POP DUP1 PUSH2 0xDF1 SWAP1 PUSH2 0x3F39 JUMP JUMPDEST SWAP1 POP PUSH2 0xC3F JUMP JUMPDEST POP DUP5 PUSH1 0x1 PUSH1 0x1 PUSH1 0xA0 SHL SUB AND DUP7 PUSH1 0x1 PUSH1 0x1 PUSH1 0xA0 SHL SUB AND DUP3 PUSH1 0x1 PUSH1 0x1 PUSH1 0xA0 SHL SUB AND PUSH32 0x4A39DC06D4C0DBC64B70AF90FD698A233A518AA5D07E595D983B8C0526C8F7FB DUP8 DUP8 PUSH1 0x40 MLOAD PUSH2 0xE48 SWAP3 SWAP2 SWAP1 PUSH2 0x3BA8 JUMP JUMPDEST PUSH1 0x40 MLOAD DUP1 SWAP2 SUB SWAP1 LOG4 PUSH2 0xE5E DUP2 DUP8 DUP8 DUP8 DUP8 DUP8 PUSH2 0x203C JUMP JUMPDEST POP POP POP POP POP POP JUMP JUMPDEST PUSH1 0x1 PUSH1 0x1 PUSH1 0xA0 SHL SUB DUP3 AND PUSH1 0x0 SWAP1 DUP2 MSTORE PUSH1 0x20 DUP2 SWAP1 MSTORE PUSH1 0x40 DUP2 KECCAK256 PUSH2 0xE88 SWAP1 DUP4 PUSH2 0x21A7 JUMP JUMPDEST SWAP4 SWAP3 POP POP POP JUMP JUMPDEST PUSH1 0x0 DUP3 DUP2 MSTORE PUSH1 0xD PUSH1 0x20 MSTORE PUSH1 0x40 DUP2 KECCAK256 PUSH1 0x2 ADD DUP1 SLOAD DUP4 SWAP1 DUP2 LT PUSH2 0xEC0 JUMPI PUSH4 0x4E487B71 PUSH1 0xE0 SHL PUSH1 0x0 MSTORE PUSH1 0x32 PUSH1 0x4 MSTORE PUSH1 0x24 PUSH1 0x0 REVERT JUMPDEST SWAP1 PUSH1 0x0 MSTORE PUSH1 0x20 PUSH1 0x0 KECCAK256 SWAP1 PUSH1 0x8 SWAP2 DUP3 DUP3 DIV ADD SWAP2 SWAP1 MOD PUSH1 0x4 MUL SWAP1 SLOAD SWAP1 PUSH2 0x100 EXP SWAP1 DIV PUSH4 0xFFFFFFFF AND SWAP1 POP SWAP3 SWAP2 POP POP JUMP JUMPDEST PUSH1 0x1 PUSH1 0x1 PUSH1 0xA0 SHL SUB DUP2 AND PUSH1 0x0 SWAP1 DUP2 MSTORE PUSH1 0x20 DUP2 SWAP1 MSTORE PUSH1 0x40 DUP2 KECCAK256 PUSH2 0x8F3 SWAP1 PUSH2 0x21B3 JUMP JUMPDEST PUSH1 0x11 DUP2 PUSH1 0xB DUP2 LT PUSH2 0xF1F JUMPI PUSH1 0x0 DUP1 REVERT JUMPDEST PUSH1 0x8 SWAP2 DUP3 DUP3 DIV ADD SWAP2 SWAP1 MOD PUSH1 0x4 MUL SWAP2 POP SLOAD SWAP1 PUSH2 0x100 EXP SWAP1 DIV PUSH4 0xFFFFFFFF AND DUP2 JUMP JUMPDEST PUSH1 0x60 DUP2 MLOAD DUP4 MLOAD EQ PUSH2 0xFA4 JUMPI PUSH1 0x40 MLOAD PUSH3 0x461BCD PUSH1 0xE5 SHL DUP2 MSTORE PUSH1 0x20 PUSH1 0x4 DUP3 ADD MSTORE PUSH1 0x29 PUSH1 0x24 DUP3 ADD MSTORE PUSH32 0x455243313135353A206163636F756E747320616E6420696473206C656E677468 PUSH1 0x44 DUP3 ADD MSTORE PUSH9 0x40DAD2E6DAC2E8C6D PUSH1 0xBB SHL PUSH1 0x64 DUP3 ADD MSTORE PUSH1 0x84 ADD PUSH2 0x873 JUMP JUMPDEST PUSH1 0x0 DUP4 MLOAD PUSH8 0xFFFFFFFFFFFFFFFF DUP2 GT ISZERO PUSH2 0xFCE JUMPI PUSH4 0x4E487B71 PUSH1 0xE0 SHL PUSH1 0x0 MSTORE PUSH1 0x41 PUSH1 0x4 MSTORE PUSH1 0x24 PUSH1 0x0 REVERT JUMPDEST PUSH1 0x40 MLOAD SWAP1 DUP1 DUP3 MSTORE DUP1 PUSH1 0x20 MUL PUSH1 0x20 ADD DUP3 ADD PUSH1 0x40 MSTORE DUP1 ISZERO PUSH2 0xFF7 JUMPI DUP2 PUSH1 0x20 ADD PUSH1 0x20 DUP3 MUL DUP1 CALLDATASIZE DUP4 CALLDATACOPY ADD SWAP1 POP JUMPDEST POP SWAP1 POP PUSH1 0x0 JUMPDEST DUP5 MLOAD DUP2 LT ISZERO PUSH2 0x1099 JUMPI PUSH2 0x105E DUP6 DUP3 DUP2 MLOAD DUP2 LT PUSH2 0x1029 JUMPI PUSH4 0x4E487B71 PUSH1 0xE0 SHL PUSH1 0x0 MSTORE PUSH1 0x32 PUSH1 0x4 MSTORE PUSH1 0x24 PUSH1 0x0 REVERT JUMPDEST PUSH1 0x20 MUL PUSH1 0x20 ADD ADD MLOAD DUP6 DUP4 DUP2 MLOAD DUP2 LT PUSH2 0x1051 JUMPI PUSH4 0x4E487B71 PUSH1 0xE0 SHL PUSH1 0x0 MSTORE PUSH1 0x32 PUSH1 0x4 MSTORE PUSH1 0x24 PUSH1 0x0 REVERT JUMPDEST PUSH1 0x20 MUL PUSH1 0x20 ADD ADD MLOAD PUSH2 0x80B JUMP JUMPDEST DUP3 DUP3 DUP2 MLOAD DUP2 LT PUSH2 0x107E JUMPI PUSH4 0x4E487B71 PUSH1 0xE0 SHL PUSH1 0x0 MSTORE PUSH1 0x32 PUSH1 0x4 MSTORE PUSH1 0x24 PUSH1 0x0 REVERT JUMPDEST PUSH1 0x20 SWAP1 DUP2 MUL SWAP2 SWAP1 SWAP2 ADD ADD MSTORE PUSH2 0x1092 DUP2 PUSH2 0x3F39 JUMP JUMPDEST SWAP1 POP PUSH2 0xFFD JUMP JUMPDEST POP SWAP4 SWAP3 POP POP POP JUMP JUMPDEST PUSH1 0x0 DUP3 DUP2 MSTORE PUSH1 0xD PUSH1 0x20 MSTORE PUSH1 0x40 DUP1 DUP3 KECCAK256 DUP2 MLOAD PUSH1 0xE0 DUP2 ADD SWAP1 SWAP3 MSTORE DUP1 SLOAD DUP4 SWAP3 SWAP2 SWAP1 DUP3 SWAP1 DUP3 SWAP1 PUSH2 0x10CC SWAP1 PUSH2 0x3ED1 JUMP JUMPDEST DUP1 PUSH1 0x1F ADD PUSH1 0x20 DUP1 SWAP2 DIV MUL PUSH1 0x20 ADD PUSH1 0x40 MLOAD SWAP1 DUP2 ADD PUSH1 0x40 MSTORE DUP1 SWAP3 SWAP2 SWAP1 DUP2 DUP2 MSTORE PUSH1 0x20 ADD DUP3 DUP1 SLOAD PUSH2 0x10F8 SWAP1 PUSH2 0x3ED1 JUMP JUMPDEST DUP1 ISZERO PUSH2 0x1145 JUMPI DUP1 PUSH1 0x1F LT PUSH2 0x111A JUMPI PUSH2 0x100 DUP1 DUP4 SLOAD DIV MUL DUP4 MSTORE SWAP2 PUSH1 0x20 ADD SWAP2 PUSH2 0x1145 JUMP JUMPDEST DUP3 ADD SWAP2 SWAP1 PUSH1 0x0 MSTORE PUSH1 0x20 PUSH1 0x0 KECCAK256 SWAP1 JUMPDEST DUP2 SLOAD DUP2 MSTORE SWAP1 PUSH1 0x1 ADD SWAP1 PUSH1 0x20 ADD DUP1 DUP4 GT PUSH2 0x1128 JUMPI DUP3 SWAP1 SUB PUSH1 0x1F AND DUP3 ADD SWAP2 JUMPDEST POP POP POP POP POP DUP2 MSTORE PUSH1 0x20 ADD PUSH1 0x1 DUP3 ADD SLOAD DUP2 MSTORE PUSH1 0x20 ADD PUSH1 0x2 DUP3 ADD DUP1 SLOAD DUP1 PUSH1 0x20 MUL PUSH1 0x20 ADD PUSH1 0x40 MLOAD SWAP1 DUP2 ADD PUSH1 0x40 MSTORE DUP1 SWAP3 SWAP2 SWAP1 DUP2 DUP2 MSTORE PUSH1 0x20 ADD DUP3 DUP1 SLOAD DUP1 ISZERO PUSH2 0x11D3 JUMPI PUSH1 0x20 MUL DUP3 ADD SWAP2 SWAP1 PUSH1 0x0 MSTORE PUSH1 0x20 PUSH1 0x0 KECCAK256 SWAP1 PUSH1 0x0 SWAP1 JUMPDEST DUP3 DUP3 SWAP1 SLOAD SWAP1 PUSH2 0x100 EXP SWAP1 DIV PUSH4 0xFFFFFFFF AND PUSH4 0xFFFFFFFF AND DUP2 MSTORE PUSH1 0x20 ADD SWAP1 PUSH1 0x4 ADD SWAP1 PUSH1 0x20 DUP3 PUSH1 0x3 ADD DIV SWAP3 DUP4 ADD SWAP3 PUSH1 0x1 SUB DUP3 MUL SWAP2 POP DUP1 DUP5 GT PUSH2 0x1196 JUMPI SWAP1 POP JUMPDEST POP POP POP SWAP2 DUP4 MSTORE POP POP PUSH1 0x3 DUP3 ADD SLOAD PUSH1 0x1 PUSH1 0x1 PUSH1 0xA0 SHL SUB AND PUSH1 0x20 DUP3 ADD MSTORE PUSH1 0x4 DUP3 ADD SLOAD PUSH1 0x40 DUP3 ADD MSTORE PUSH1 0x5 DUP3 ADD SLOAD PUSH1 0x60 DUP3 ADD MSTORE PUSH1 0x6 SWAP1 SWAP2 ADD SLOAD PUSH4 0xFFFFFFFF AND PUSH1 0x80 SWAP1 SWAP2 ADD MSTORE SWAP1 POP PUSH2 0x1220 DUP2 DUP5 PUSH2 0x21BD JUMP JUMPDEST POP PUSH1 0x0 DUP5 DUP2 MSTORE PUSH1 0xD PUSH1 0x20 MSTORE PUSH1 0x40 DUP2 KECCAK256 PUSH1 0x4 ADD DUP1 SLOAD PUSH1 0x1 SWAP3 SWAP1 PUSH2 0x1243 SWAP1 DUP5 SWAP1 PUSH2 0x3E36 JUMP JUMPDEST SWAP3 POP POP DUP2 SWAP1 SSTORE POP PUSH1 0x1 PUSH1 0x36 PUSH1 0x0 DUP3 DUP3 SLOAD PUSH2 0x125D SWAP2 SWAP1 PUSH2 0x3E36 JUMP JUMPDEST SWAP1 SWAP2 SSTORE POP PUSH2 0x126C SWAP1 POP DUP5 PUSH2 0x25A5 JUMP JUMPDEST PUSH2 0x127E CALLER PUSH1 0xA SLOAD DUP7 PUSH2 0x92B SWAP2 SWAP1 PUSH2 0x3E36 JUMP JUMPDEST POP PUSH1 0x1 SWAP4 SWAP3 POP POP POP JUMP JUMPDEST PUSH1 0x0 DUP2 PUSH2 0x129D CALLER DUP6 PUSH1 0xA SLOAD PUSH2 0x2E8 SWAP2 SWAP1 PUSH2 0x3E36 JUMP JUMPDEST LT ISZERO PUSH2 0x12FD JUMPI PUSH1 0x40 MLOAD PUSH3 0x461BCD PUSH1 0xE5 SHL DUP2 MSTORE PUSH1 0x20 PUSH1 0x4 DUP3 ADD MSTORE PUSH1 0x29 PUSH1 0x24 DUP3 ADD MSTORE PUSH32 0x596F7520646F6E277420686176652074686174206D616E79206F662074686F73 PUSH1 0x44 DUP3 ADD MSTORE PUSH9 0x6520746F2065617421 PUSH1 0xB8 SHL PUSH1 0x64 DUP3 ADD MSTORE PUSH1 0x84 ADD PUSH2 0x873 JUMP JUMPDEST PUSH1 0x0 DUP4 DUP2 MSTORE PUSH1 0xD PUSH1 0x20 MSTORE PUSH1 0x40 DUP2 KECCAK256 PUSH1 0x6 ADD SLOAD PUSH1 0xA SLOAD PUSH4 0xFFFFFFFF SWAP1 SWAP2 AND SWAP2 SWAP1 PUSH2 0x1326 SWAP1 DUP7 PUSH2 0x3E36 JUMP JUMPDEST SWAP1 POP PUSH2 0x1333 CALLER DUP3 DUP7 PUSH2 0x279F JUMP JUMPDEST PUSH1 0x0 DUP6 DUP2 MSTORE PUSH1 0xD PUSH1 0x20 MSTORE PUSH1 0x40 DUP2 KECCAK256 PUSH1 0x5 ADD DUP1 SLOAD PUSH1 0x1 SWAP3 SWAP1 PUSH2 0x1355 SWAP1 DUP5 SWAP1 PUSH2 0x3E36 JUMP JUMPDEST SWAP1 SWAP2 SSTORE POP PUSH2 0x136B SWAP1 POP DUP5 PUSH4 0xFFFFFFFF DUP5 AND PUSH2 0x3E9B JUMP JUMPDEST CALLER PUSH1 0x0 SWAP1 DUP2 MSTORE PUSH1 0xF PUSH1 0x20 MSTORE PUSH1 0x40 DUP2 KECCAK256 DUP1 SLOAD SWAP1 SWAP2 SWAP1 PUSH2 0x138A SWAP1 DUP5 SWAP1 PUSH2 0x3E36 JUMP JUMPDEST SWAP1 SWAP2 SSTORE POP PUSH2 0x1399 SWAP1 POP CALLER PUSH2 0x28E8 JUMP JUMPDEST POP POP SWAP3 SWAP2 POP POP JUMP JUMPDEST PUSH1 0x0 PUSH2 0x13AD CALLER DUP4 PUSH2 0x80B JUMP JUMPDEST PUSH1 0x1 EQ PUSH2 0x13CC JUMPI PUSH1 0x40 MLOAD PUSH3 0x461BCD PUSH1 0xE5 SHL DUP2 MSTORE PUSH1 0x4 ADD PUSH2 0x873 SWAP1 PUSH2 0x3C75 JUMP JUMPDEST PUSH1 0x0 DUP3 DUP2 MSTORE PUSH1 0xB PUSH1 0x20 MSTORE PUSH1 0x40 SWAP1 KECCAK256 PUSH1 0x1 ADD SLOAD TIMESTAMP PUSH4 0xFFFFFFFF SWAP1 SWAP2 AND GT ISZERO PUSH2 0x145B JUMPI PUSH1 0x40 MLOAD PUSH3 0x461BCD PUSH1 0xE5 SHL DUP2 MSTORE PUSH1 0x20 PUSH1 0x4 DUP3 ADD MSTORE PUSH1 0x3C PUSH1 0x24 DUP3 ADD MSTORE PUSH32 0x596F7520686176652073706C697420746865207374617274657220616C726561 PUSH1 0x44 DUP3 ADD MSTORE PUSH32 0x647920746F6461792120576169742074696C2720746F6D6F72726F7700000000 PUSH1 0x64 DUP3 ADD MSTORE PUSH1 0x84 ADD PUSH2 0x873 JUMP JUMPDEST PUSH2 0x1464 DUP3 PUSH2 0x1D73 JUMP JUMPDEST POP PUSH2 0x146E DUP3 PUSH2 0x1D73 JUMP JUMPDEST POP PUSH2 0x1477 PUSH2 0x8FB JUMP JUMPDEST POP PUSH1 0x0 DUP3 DUP2 MSTORE PUSH1 0xB PUSH1 0x20 MSTORE PUSH1 0x40 DUP1 DUP3 KECCAK256 SLOAD PUSH1 0x35 SLOAD DUP4 MSTORE SWAP2 KECCAK256 DUP1 SLOAD PUSH9 0xFFFFFFFF0000000000 NOT AND PUSH1 0x1 PUSH1 0x28 SHL SWAP3 DUP4 SWAP1 DIV PUSH4 0xFFFFFFFF AND SWAP1 SWAP3 MUL SWAP2 SWAP1 SWAP2 OR SWAP1 SSTORE PUSH2 0x14C2 TIMESTAMP PUSH3 0x15180 PUSH2 0x3E36 JUMP JUMPDEST PUSH1 0x35 SLOAD PUSH1 0x0 SWAP1 DUP2 MSTORE PUSH1 0xB PUSH1 0x20 MSTORE PUSH1 0x40 DUP1 DUP3 KECCAK256 PUSH1 0x1 SWAP1 DUP2 ADD DUP1 SLOAD PUSH4 0xFFFFFFFF NOT AND PUSH4 0xFFFFFFFF SWAP6 SWAP1 SWAP6 AND SWAP5 SWAP1 SWAP5 OR SWAP1 SWAP4 SSTORE DUP5 DUP3 MSTORE SWAP1 KECCAK256 DUP1 SLOAD PUSH1 0x4 SWAP1 PUSH2 0x1512 SWAP1 DUP5 SWAP1 PUSH5 0x100000000 SWAP1 DIV PUSH1 0xFF AND PUSH2 0x3E76 JUMP JUMPDEST SWAP3 POP PUSH2 0x100 EXP DUP2 SLOAD DUP2 PUSH1 0xFF MUL NOT AND SWAP1 DUP4 PUSH1 0xFF AND MUL OR SWAP1 SSTORE POP TIMESTAMP PUSH3 0x15180 PUSH2 0x1539 SWAP2 SWAP1 PUSH2 0x3E36 JUMP JUMPDEST PUSH1 0x0 SWAP3 DUP4 MSTORE PUSH1 0xB PUSH1 0x20 MSTORE PUSH1 0x40 SWAP1 SWAP3 KECCAK256 PUSH1 0x1 SWAP1 DUP2 ADD DUP1 SLOAD PUSH4 0xFFFFFFFF NOT AND PUSH4 0xFFFFFFFF SWAP5 SWAP1 SWAP5 AND SWAP4 SWAP1 SWAP4 OR SWAP1 SWAP3 SSTORE POP SWAP1 JUMP JUMPDEST CALLER PUSH1 0x1 PUSH1 0x1 PUSH1 0xA0 SHL SUB DUP4 AND EQ ISZERO PUSH2 0x15D5 JUMPI PUSH1 0x40 MLOAD PUSH3 0x461BCD PUSH1 0xE5 SHL DUP2 MSTORE PUSH1 0x20 PUSH1 0x4 DUP3 ADD MSTORE PUSH1 0x29 PUSH1 0x24 DUP3 ADD MSTORE PUSH32 0x455243313135353A2073657474696E6720617070726F76616C20737461747573 PUSH1 0x44 DUP3 ADD MSTORE PUSH9 0x103337B91039B2B633 PUSH1 0xB9 SHL PUSH1 0x64 DUP3 ADD MSTORE PUSH1 0x84 ADD PUSH2 0x873 JUMP JUMPDEST CALLER PUSH1 0x0 DUP2 DUP2 MSTORE PUSH1 0x2 PUSH1 0x20 SWAP1 DUP2 MSTORE PUSH1 0x40 DUP1 DUP4 KECCAK256 PUSH1 0x1 PUSH1 0x1 PUSH1 0xA0 SHL SUB DUP8 AND DUP1 DUP6 MSTORE SWAP3 MSTORE SWAP1 SWAP2 KECCAK256 DUP1 SLOAD PUSH1 0xFF NOT AND DUP5 ISZERO ISZERO OR SWAP1 SSTORE SWAP1 PUSH1 0x1 PUSH1 0x1 PUSH1 0xA0 SHL SUB AND PUSH32 0x17307EAB39AB6107E8899845AD3D59BD9653F200F220920489CA2B5937696C31 DUP4 PUSH1 0x40 MLOAD PUSH2 0x1642 SWAP2 ISZERO ISZERO DUP2 MSTORE PUSH1 0x20 ADD SWAP1 JUMP JUMPDEST PUSH1 0x40 MLOAD DUP1 SWAP2 SUB SWAP1 LOG3 POP POP JUMP JUMPDEST CALLER PUSH1 0x0 SWAP1 DUP2 MSTORE PUSH1 0xC PUSH1 0x20 MSTORE PUSH1 0x40 SWAP1 KECCAK256 SLOAD TIMESTAMP PUSH4 0xFFFFFFFF SWAP1 SWAP2 AND LT PUSH2 0x16B4 JUMPI PUSH1 0x40 MLOAD PUSH3 0x461BCD PUSH1 0xE5 SHL DUP2 MSTORE PUSH1 0x20 PUSH1 0x4 DUP3 ADD MSTORE PUSH1 0x1B PUSH1 0x24 DUP3 ADD MSTORE PUSH32 0x596F7520646964207468697320616C726561647920746F646179210000000000 PUSH1 0x44 DUP3 ADD MSTORE PUSH1 0x64 ADD PUSH2 0x873 JUMP JUMPDEST PUSH2 0x16D3 CALLER PUSH1 0x9 SLOAD PUSH1 0x7 SLOAD PUSH1 0x40 MLOAD DUP1 PUSH1 0x20 ADD PUSH1 0x40 MSTORE DUP1 PUSH1 0x0 DUP2 MSTORE POP PUSH2 0x1EFE JUMP JUMPDEST PUSH1 0x7 SLOAD PUSH1 0x34 PUSH1 0x0 DUP3 DUP3 SLOAD PUSH2 0x16E7 SWAP2 SWAP1 PUSH2 0x3E36 JUMP JUMPDEST SWAP1 SWAP2 SSTORE POP POP PUSH1 0x6 SLOAD PUSH2 0x16FF SWAP1 PUSH4 0xFFFFFFFF AND TIMESTAMP PUSH2 0x3E36 JUMP JUMPDEST CALLER PUSH1 0x0 SWAP1 DUP2 MSTORE PUSH1 0xC PUSH1 0x20 MSTORE PUSH1 0x40 SWAP1 KECCAK256 DUP1 SLOAD PUSH4 0xFFFFFFFF NOT AND PUSH4 0xFFFFFFFF SWAP3 SWAP1 SWAP3 AND SWAP2 SWAP1 SWAP2 OR SWAP1 SSTORE JUMP JUMPDEST PUSH1 0x0 PUSH1 0xA DUP4 MLOAD GT ISZERO PUSH2 0x178C JUMPI PUSH1 0x40 MLOAD PUSH3 0x461BCD PUSH1 0xE5 SHL DUP2 MSTORE PUSH1 0x20 PUSH1 0x4 DUP3 ADD MSTORE PUSH1 0x27 PUSH1 0x24 DUP3 ADD MSTORE PUSH32 0x596F752063616E206F6E6C79206861766520757020746F20313020696E677265 PUSH1 0x44 DUP3 ADD MSTORE PUSH7 0x6469656E747321 PUSH1 0xC8 SHL PUSH1 0x64 DUP3 ADD MSTORE PUSH1 0x84 ADD PUSH2 0x873 JUMP JUMPDEST PUSH1 0x40 DUP1 MLOAD PUSH1 0xE0 DUP2 ADD DUP3 MSTORE DUP7 DUP2 MSTORE PUSH1 0x20 DUP2 ADD DUP7 SWAP1 MSTORE SWAP1 DUP2 ADD DUP5 SWAP1 MSTORE CALLER PUSH1 0x60 DUP3 ADD MSTORE PUSH1 0x0 PUSH1 0x80 DUP3 ADD DUP2 SWAP1 MSTORE PUSH1 0xA0 DUP3 ADD DUP2 SWAP1 MSTORE PUSH1 0xC0 DUP3 ADD MSTORE PUSH2 0x17CB DUP2 DUP5 PUSH2 0x21BD JUMP JUMPDEST POP PUSH1 0x40 DUP2 ADD MLOAD PUSH1 0x0 DUP1 JUMPDEST DUP3 MLOAD DUP2 LT ISZERO PUSH2 0x1825 JUMPI DUP3 DUP2 DUP2 MLOAD DUP2 LT PUSH2 0x17FE JUMPI PUSH4 0x4E487B71 PUSH1 0xE0 SHL PUSH1 0x0 MSTORE PUSH1 0x32 PUSH1 0x4 MSTORE PUSH1 0x24 PUSH1 0x0 REVERT JUMPDEST PUSH1 0x20 MUL PUSH1 0x20 ADD ADD MLOAD DUP3 PUSH2 0x1811 SWAP2 SWAP1 PUSH2 0x3E4E JUMP JUMPDEST SWAP2 POP DUP1 PUSH2 0x181D DUP2 PUSH2 0x3F39 JUMP JUMPDEST SWAP2 POP POP PUSH2 0x17D5 JUMP JUMPDEST POP PUSH4 0xFFFFFFFF DUP2 AND PUSH1 0xC0 DUP5 ADD MSTORE PUSH1 0x80 DUP4 ADD DUP1 MLOAD PUSH1 0x1 SWAP2 SWAP1 PUSH2 0x1847 SWAP1 DUP4 SWAP1 PUSH2 0x3E36 JUMP JUMPDEST SWAP1 MSTORE POP PUSH1 0x36 DUP1 SLOAD PUSH1 0x1 SWAP2 SWAP1 PUSH1 0x0 SWAP1 PUSH2 0x1860 SWAP1 DUP5 SWAP1 PUSH2 0x3E36 JUMP JUMPDEST SWAP3 POP POP DUP2 SWAP1 SSTORE POP PUSH1 0x1 PUSH1 0x37 PUSH1 0x0 DUP3 DUP3 SLOAD PUSH2 0x187A SWAP2 SWAP1 PUSH2 0x3E36 JUMP JUMPDEST SWAP1 SWAP2 SSTORE POP POP PUSH1 0x37 SLOAD PUSH1 0xA SLOAD PUSH1 0x0 SWAP2 PUSH2 0x1891 SWAP2 PUSH2 0x3E36 JUMP JUMPDEST PUSH1 0x37 SLOAD PUSH1 0x0 SWAP1 DUP2 MSTORE PUSH1 0xD PUSH1 0x20 SWAP1 DUP2 MSTORE PUSH1 0x40 SWAP1 SWAP2 KECCAK256 DUP7 MLOAD DUP1 MLOAD SWAP4 SWAP5 POP DUP8 SWAP4 SWAP2 SWAP3 PUSH2 0x18BF SWAP3 DUP5 SWAP3 SWAP1 SWAP2 ADD SWAP1 PUSH2 0x33EA JUMP JUMPDEST POP PUSH1 0x20 DUP3 DUP2 ADD MLOAD PUSH1 0x1 DUP4 ADD SSTORE PUSH1 0x40 DUP4 ADD MLOAD DUP1 MLOAD PUSH2 0x18E2 SWAP3 PUSH1 0x2 DUP6 ADD SWAP3 ADD SWAP1 PUSH2 0x346E JUMP JUMPDEST POP PUSH1 0x60 DUP3 ADD MLOAD PUSH1 0x3 DUP3 ADD DUP1 SLOAD PUSH1 0x1 PUSH1 0x1 PUSH1 0xA0 SHL SUB NOT AND PUSH1 0x1 PUSH1 0x1 PUSH1 0xA0 SHL SUB SWAP1 SWAP3 AND SWAP2 SWAP1 SWAP2 OR SWAP1 SSTORE PUSH1 0x80 DUP3 ADD MLOAD PUSH1 0x4 DUP3 ADD SSTORE PUSH1 0xA0 DUP3 ADD MLOAD PUSH1 0x5 DUP3 ADD SSTORE PUSH1 0xC0 SWAP1 SWAP2 ADD MLOAD PUSH1 0x6 SWAP1 SWAP2 ADD DUP1 SLOAD PUSH4 0xFFFFFFFF NOT AND PUSH4 0xFFFFFFFF SWAP3 DUP4 AND OR SWAP1 SSTORE PUSH1 0x37 SLOAD CALLER PUSH1 0x0 SWAP1 DUP2 MSTORE PUSH1 0xE PUSH1 0x20 MSTORE PUSH1 0x40 SWAP1 KECCAK256 PUSH2 0x195B SWAP3 SWAP1 SWAP2 SWAP1 PUSH2 0x2024 AND JUMP JUMPDEST POP PUSH2 0x1967 PUSH1 0x37 SLOAD PUSH2 0x25A5 JUMP JUMPDEST PUSH2 0x1983 CALLER DUP3 PUSH1 0x1 PUSH1 0x40 MLOAD DUP1 PUSH1 0x20 ADD PUSH1 0x40 MSTORE DUP1 PUSH1 0x0 DUP2 MSTORE POP PUSH2 0x1EFE JUMP JUMPDEST SWAP9 SWAP8 POP POP POP POP POP POP POP POP JUMP JUMPDEST PUSH1 0x0 PUSH2 0x199B CALLER DUP4 PUSH2 0x80B JUMP JUMPDEST PUSH1 0x1 EQ PUSH2 0x19BA JUMPI PUSH1 0x40 MLOAD PUSH3 0x461BCD PUSH1 0xE5 SHL DUP2 MSTORE PUSH1 0x4 ADD PUSH2 0x873 SWAP1 PUSH2 0x3C75 JUMP JUMPDEST PUSH1 0x0 PUSH1 0x5 SLOAD DUP5 PUSH2 0x19CA SWAP2 SWAP1 PUSH2 0x3E9B JUMP JUMPDEST SWAP1 POP PUSH1 0x0 PUSH1 0x5 SLOAD DUP6 PUSH2 0x19DC SWAP2 SWAP1 PUSH2 0x3E9B JUMP JUMPDEST SWAP1 POP PUSH2 0x19E8 CALLER DUP4 PUSH2 0x1EBE JUMP JUMPDEST PUSH1 0x8 SLOAD PUSH1 0x9 SLOAD PUSH1 0x40 DUP1 MLOAD PUSH1 0x20 DUP2 ADD SWAP1 SWAP2 MSTORE PUSH1 0x0 DUP2 MSTORE PUSH2 0x1A16 SWAP3 CALLER SWAP3 PUSH1 0x1 PUSH1 0x1 PUSH1 0xA0 SHL SUB SWAP1 SWAP2 AND SWAP2 DUP6 SWAP1 PUSH2 0x1B3E JUMP JUMPDEST CALLER PUSH1 0x0 SWAP1 DUP2 MSTORE PUSH1 0x10 PUSH1 0x20 MSTORE PUSH1 0x40 SWAP1 KECCAK256 DUP1 SLOAD PUSH1 0xFF NOT AND PUSH1 0x1 OR SWAP1 SSTORE PUSH1 0x6 SLOAD PUSH2 0x1A43 SWAP1 PUSH4 0xFFFFFFFF AND DUP7 PUSH2 0x3E9B JUMP JUMPDEST PUSH2 0x1A4D SWAP1 TIMESTAMP PUSH2 0x3E36 JUMP JUMPDEST PUSH1 0x0 DUP6 DUP2 MSTORE PUSH1 0xB PUSH1 0x20 MSTORE PUSH1 0x40 SWAP1 KECCAK256 DUP1 SLOAD PUSH4 0xFFFFFFFF PUSH1 0xFF PUSH1 0xE8 SHL ADD NOT AND PUSH4 0xFFFFFFFF SWAP3 SWAP1 SWAP3 AND SWAP2 SWAP1 SWAP2 OR PUSH1 0x1 PUSH1 0xE8 SHL OR SWAP1 SSTORE POP PUSH1 0x1 SWAP2 POP POP SWAP3 SWAP2 POP POP JUMP JUMPDEST PUSH1 0x1 PUSH1 0x1 PUSH1 0xA0 SHL SUB DUP2 AND PUSH1 0x0 SWAP1 DUP2 MSTORE PUSH1 0xE PUSH1 0x20 MSTORE PUSH1 0x40 DUP2 KECCAK256 PUSH2 0x8F3 SWAP1 PUSH2 0x21B3 JUMP JUMPDEST PUSH1 0x13 DUP2 PUSH1 0xB DUP2 LT PUSH2 0x1ABC JUMPI PUSH1 0x0 DUP1 REVERT JUMPDEST ADD SLOAD SWAP1 POP DUP2 JUMP JUMPDEST PUSH1 0x0 DUP2 DUP2 MSTORE PUSH1 0xB PUSH1 0x20 MSTORE PUSH1 0x40 DUP2 KECCAK256 SLOAD PUSH1 0x1 PUSH1 0xE8 SHL SWAP1 DIV PUSH1 0xFF AND ISZERO ISZERO PUSH1 0x1 EQ PUSH2 0x1AEA JUMPI PUSH1 0x0 DUP1 REVERT JUMPDEST PUSH1 0x6 SLOAD PUSH2 0x1AFD SWAP1 PUSH4 0xFFFFFFFF AND TIMESTAMP PUSH2 0x3E36 JUMP JUMPDEST PUSH1 0x0 SWAP3 DUP4 MSTORE PUSH1 0xB PUSH1 0x20 MSTORE PUSH1 0x40 SWAP1 SWAP3 KECCAK256 DUP1 SLOAD PUSH4 0xFFFFFFFF PUSH1 0xFF PUSH1 0xE8 SHL ADD NOT AND PUSH4 0xFFFFFFFF SWAP4 SWAP1 SWAP4 AND SWAP3 SWAP1 SWAP3 OR SWAP1 SWAP2 SSTORE SWAP1 JUMP JUMPDEST PUSH1 0x1E DUP2 PUSH1 0xB DUP2 LT PUSH2 0x1ABC JUMPI PUSH1 0x0 DUP1 REVERT JUMPDEST PUSH1 0x1 PUSH1 0x1 PUSH1 0xA0 SHL SUB DUP5 AND PUSH2 0x1B64 JUMPI PUSH1 0x40 MLOAD PUSH3 0x461BCD PUSH1 0xE5 SHL DUP2 MSTORE PUSH1 0x4 ADD PUSH2 0x873 SWAP1 PUSH2 0x3CF8 JUMP JUMPDEST PUSH1 0x1 PUSH1 0x1 PUSH1 0xA0 SHL SUB DUP6 AND CALLER EQ DUP1 PUSH2 0x1B80 JUMPI POP PUSH2 0x1B80 DUP6 CALLER PUSH2 0x771 JUMP JUMPDEST PUSH2 0x1BDE JUMPI PUSH1 0x40 MLOAD PUSH3 0x461BCD PUSH1 0xE5 SHL DUP2 MSTORE PUSH1 0x20 PUSH1 0x4 DUP3 ADD MSTORE PUSH1 0x29 PUSH1 0x24 DUP3 ADD MSTORE PUSH32 0x455243313135353A2063616C6C6572206973206E6F74206F776E6572206E6F72 PUSH1 0x44 DUP3 ADD MSTORE PUSH9 0x8185C1C1C9BDD9959 PUSH1 0xBA SHL PUSH1 0x64 DUP3 ADD MSTORE PUSH1 0x84 ADD PUSH2 0x873 JUMP JUMPDEST CALLER PUSH2 0x1BFE DUP2 DUP8 DUP8 PUSH2 0x1BEE DUP9 PUSH2 0x2B6B JUMP JUMPDEST PUSH2 0x1BF7 DUP9 PUSH2 0x2B6B JUMP JUMPDEST POP POP POP POP POP JUMP JUMPDEST PUSH1 0x0 DUP5 DUP2 MSTORE PUSH1 0x1 PUSH1 0x20 SWAP1 DUP2 MSTORE PUSH1 0x40 DUP1 DUP4 KECCAK256 PUSH1 0x1 PUSH1 0x1 PUSH1 0xA0 SHL SUB DUP11 AND DUP5 MSTORE SWAP1 SWAP2 MSTORE SWAP1 KECCAK256 SLOAD DUP4 DUP2 LT ISZERO PUSH2 0x1C41 JUMPI PUSH1 0x40 MLOAD PUSH3 0x461BCD PUSH1 0xE5 SHL DUP2 MSTORE PUSH1 0x4 ADD PUSH2 0x873 SWAP1 PUSH2 0x3D80 JUMP JUMPDEST PUSH2 0x1C4B DUP5 DUP3 PUSH2 0x3EBA JUMP JUMPDEST PUSH1 0x0 DUP7 DUP2 MSTORE PUSH1 0x1 PUSH1 0x20 SWAP1 DUP2 MSTORE PUSH1 0x40 DUP1 DUP4 KECCAK256 PUSH1 0x1 PUSH1 0x1 PUSH1 0xA0 SHL SUB DUP13 DUP2 AND DUP6 MSTORE SWAP3 MSTORE DUP1 DUP4 KECCAK256 SWAP4 SWAP1 SWAP4 SSTORE DUP9 AND DUP2 MSTORE SWAP1 DUP2 KECCAK256 DUP1 SLOAD DUP7 SWAP3 SWAP1 PUSH2 0x1C89 SWAP1 DUP5 SWAP1 PUSH2 0x3E36 JUMP JUMPDEST SWAP1 SWAP2 SSTORE POP POP PUSH1 0x1 PUSH1 0x1 PUSH1 0xA0 SHL SUB DUP7 AND PUSH1 0x0 SWAP1 DUP2 MSTORE PUSH1 0x20 DUP2 SWAP1 MSTORE PUSH1 0x40 SWAP1 KECCAK256 PUSH2 0x1CB0 SWAP1 DUP7 PUSH2 0x2024 JUMP JUMPDEST POP PUSH1 0x0 DUP6 DUP2 MSTORE PUSH1 0x1 PUSH1 0x20 SWAP1 DUP2 MSTORE PUSH1 0x40 DUP1 DUP4 KECCAK256 PUSH1 0x1 PUSH1 0x1 PUSH1 0xA0 SHL SUB DUP12 AND DUP5 MSTORE SWAP1 SWAP2 MSTORE SWAP1 KECCAK256 SLOAD PUSH2 0x1CFC JUMPI PUSH1 0x1 PUSH1 0x1 PUSH1 0xA0 SHL SUB DUP8 AND PUSH1 0x0 SWAP1 DUP2 MSTORE PUSH1 0x20 DUP2 SWAP1 MSTORE PUSH1 0x40 SWAP1 KECCAK256 PUSH2 0x1CFA SWAP1 DUP7 PUSH2 0x2030 JUMP JUMPDEST POP JUMPDEST DUP6 PUSH1 0x1 PUSH1 0x1 PUSH1 0xA0 SHL SUB AND DUP8 PUSH1 0x1 PUSH1 0x1 PUSH1 0xA0 SHL SUB AND DUP4 PUSH1 0x1 PUSH1 0x1 PUSH1 0xA0 SHL SUB AND PUSH32 0xC3D58168C5AE7397731D063D5BBF3D657854427343F4C083240F7AACAA2D0F62 DUP9 DUP9 PUSH1 0x40 MLOAD PUSH2 0x1D54 SWAP3 SWAP2 SWAP1 SWAP2 DUP3 MSTORE PUSH1 0x20 DUP3 ADD MSTORE PUSH1 0x40 ADD SWAP1 JUMP JUMPDEST PUSH1 0x40 MLOAD DUP1 SWAP2 SUB SWAP1 LOG4 PUSH2 0x1D6A DUP3 DUP9 DUP9 DUP9 DUP9 DUP9 PUSH2 0x2BC4 JUMP JUMPDEST POP POP POP POP POP POP POP JUMP JUMPDEST PUSH1 0x0 PUSH2 0x1D7F CALLER DUP4 PUSH2 0x80B JUMP JUMPDEST PUSH1 0x1 EQ PUSH2 0x1D9E JUMPI PUSH1 0x40 MLOAD PUSH3 0x461BCD PUSH1 0xE5 SHL DUP2 MSTORE PUSH1 0x4 ADD PUSH2 0x873 SWAP1 PUSH2 0x3C75 JUMP JUMPDEST PUSH1 0x0 DUP3 DUP2 MSTORE PUSH1 0xB PUSH1 0x20 MSTORE PUSH1 0x40 SWAP1 KECCAK256 SLOAD TIMESTAMP PUSH4 0xFFFFFFFF SWAP1 SWAP2 AND LT ISZERO PUSH2 0x1E2A JUMPI PUSH1 0x40 MLOAD PUSH3 0x461BCD PUSH1 0xE5 SHL DUP2 MSTORE PUSH1 0x20 PUSH1 0x4 DUP3 ADD MSTORE PUSH1 0x39 PUSH1 0x24 DUP3 ADD MSTORE PUSH32 0x596F757220737461727465722069732064656164212020596F752073686F756C PUSH1 0x44 DUP3 ADD MSTORE PUSH32 0x6420686176652066656420697420736F6F6E6572203A28202E00000000000000 PUSH1 0x64 DUP3 ADD MSTORE PUSH1 0x84 ADD PUSH2 0x873 JUMP JUMPDEST PUSH2 0x1E36 CALLER PUSH1 0x5 SLOAD PUSH2 0x1EBE JUMP JUMPDEST PUSH1 0x6 SLOAD PUSH2 0x1E49 SWAP1 PUSH4 0xFFFFFFFF AND TIMESTAMP PUSH2 0x3E36 JUMP JUMPDEST PUSH1 0x0 DUP4 DUP2 MSTORE PUSH1 0xB PUSH1 0x20 MSTORE PUSH1 0x40 SWAP1 KECCAK256 DUP1 SLOAD PUSH4 0xFFFFFFFF NOT AND PUSH4 0xFFFFFFFF SWAP3 SWAP1 SWAP3 AND SWAP2 SWAP1 SWAP2 OR SWAP1 DUP2 SWAP1 SSTORE PUSH1 0x1 PUSH1 0xE8 SHL SWAP1 DIV PUSH1 0xFF AND ISZERO PUSH2 0x1E8B JUMPI PUSH1 0x0 DUP3 SWAP1 MSTORE PUSH1 0xB PUSH1 0x20 MSTORE JUMPDEST PUSH2 0x1E94 DUP3 PUSH2 0x2C8E JUMP JUMPDEST POP PUSH1 0x1 SWAP2 SWAP1 POP JUMP JUMPDEST PUSH1 0x1 PUSH1 0x1 PUSH1 0xA0 SHL SUB DUP3 AND PUSH1 0x0 SWAP1 DUP2 MSTORE PUSH1 0xE PUSH1 0x20 MSTORE PUSH1 0x40 DUP2 KECCAK256 PUSH2 0xE88 SWAP1 DUP4 PUSH2 0x21A7 JUMP JUMPDEST DUP1 PUSH2 0x1ECB CALLER PUSH1 0x9 SLOAD PUSH2 0x80B JUMP JUMPDEST LT ISZERO PUSH2 0x1ED6 JUMPI PUSH1 0x0 DUP1 REVERT JUMPDEST PUSH2 0x1EE3 DUP3 PUSH1 0x9 SLOAD DUP4 PUSH2 0x279F JUMP JUMPDEST DUP1 PUSH1 0x34 PUSH1 0x0 DUP3 DUP3 SLOAD PUSH2 0x1EF5 SWAP2 SWAP1 PUSH2 0x3EBA JUMP JUMPDEST SWAP1 SWAP2 SSTORE POP POP POP POP JUMP JUMPDEST PUSH1 0x1 PUSH1 0x1 PUSH1 0xA0 SHL SUB DUP5 AND PUSH2 0x1F5E JUMPI PUSH1 0x40 MLOAD PUSH3 0x461BCD PUSH1 0xE5 SHL DUP2 MSTORE PUSH1 0x20 PUSH1 0x4 DUP3 ADD MSTORE PUSH1 0x21 PUSH1 0x24 DUP3 ADD MSTORE PUSH32 0x455243313135353A206D696E7420746F20746865207A65726F20616464726573 PUSH1 0x44 DUP3 ADD MSTORE PUSH1 0x73 PUSH1 0xF8 SHL PUSH1 0x64 DUP3 ADD MSTORE PUSH1 0x84 ADD PUSH2 0x873 JUMP JUMPDEST CALLER PUSH2 0x1F6F DUP2 PUSH1 0x0 DUP8 PUSH2 0x1BEE DUP9 PUSH2 0x2B6B JUMP JUMPDEST PUSH1 0x0 DUP5 DUP2 MSTORE PUSH1 0x1 PUSH1 0x20 SWAP1 DUP2 MSTORE PUSH1 0x40 DUP1 DUP4 KECCAK256 PUSH1 0x1 PUSH1 0x1 PUSH1 0xA0 SHL SUB DUP10 AND DUP5 MSTORE SWAP1 SWAP2 MSTORE DUP2 KECCAK256 DUP1 SLOAD DUP6 SWAP3 SWAP1 PUSH2 0x1FA1 SWAP1 DUP5 SWAP1 PUSH2 0x3E36 JUMP JUMPDEST SWAP1 SWAP2 SSTORE POP POP PUSH1 0x1 PUSH1 0x1 PUSH1 0xA0 SHL SUB DUP6 AND PUSH1 0x0 SWAP1 DUP2 MSTORE PUSH1 0x20 DUP2 SWAP1 MSTORE PUSH1 0x40 SWAP1 KECCAK256 PUSH2 0x1FC8 SWAP1 DUP6 PUSH2 0x2024 JUMP JUMPDEST POP PUSH1 0x40 DUP1 MLOAD DUP6 DUP2 MSTORE PUSH1 0x20 DUP2 ADD DUP6 SWAP1 MSTORE PUSH1 0x1 PUSH1 0x1 PUSH1 0xA0 SHL SUB DUP1 DUP9 AND SWAP3 PUSH1 0x0 SWAP3 SWAP2 DUP6 AND SWAP2 PUSH32 0xC3D58168C5AE7397731D063D5BBF3D657854427343F4C083240F7AACAA2D0F62 SWAP2 ADD PUSH1 0x40 MLOAD DUP1 SWAP2 SUB SWAP1 LOG4 PUSH2 0x1BF7 DUP2 PUSH1 0x0 DUP8 DUP8 DUP8 DUP8 PUSH2 0x2BC4 JUMP JUMPDEST PUSH1 0x0 PUSH2 0xE88 DUP4 DUP4 PUSH2 0x301D JUMP JUMPDEST PUSH1 0x0 PUSH2 0xE88 DUP4 DUP4 PUSH2 0x306C JUMP JUMPDEST PUSH1 0x1 PUSH1 0x1 PUSH1 0xA0 SHL SUB DUP5 AND EXTCODESIZE ISZERO PUSH2 0xE5E JUMPI PUSH1 0x40 MLOAD PUSH4 0xBC197C81 PUSH1 0xE0 SHL DUP2 MSTORE PUSH1 0x1 PUSH1 0x1 PUSH1 0xA0 SHL SUB DUP6 AND SWAP1 PUSH4 0xBC197C81 SWAP1 PUSH2 0x2080 SWAP1 DUP10 SWAP1 DUP10 SWAP1 DUP9 SWAP1 DUP9 SWAP1 DUP9 SWAP1 PUSH1 0x4 ADD PUSH2 0x3AFE JUMP JUMPDEST PUSH1 0x20 PUSH1 0x40 MLOAD DUP1 DUP4 SUB DUP2 PUSH1 0x0 DUP8 DUP1 EXTCODESIZE ISZERO DUP1 ISZERO PUSH2 0x209A JUMPI PUSH1 0x0 DUP1 REVERT JUMPDEST POP GAS CALL SWAP3 POP POP POP DUP1 ISZERO PUSH2 0x20CA JUMPI POP PUSH1 0x40 DUP1 MLOAD PUSH1 0x1F RETURNDATASIZE SWAP1 DUP2 ADD PUSH1 0x1F NOT AND DUP3 ADD SWAP1 SWAP3 MSTORE PUSH2 0x20C7 SWAP2 DUP2 ADD SWAP1 PUSH2 0x38D0 JUMP JUMPDEST PUSH1 0x1 JUMPDEST PUSH2 0x2177 JUMPI PUSH2 0x20D6 PUSH2 0x3F80 JUMP JUMPDEST DUP1 PUSH4 0x8C379A0 EQ ISZERO PUSH2 0x2110 JUMPI POP PUSH2 0x20EB PUSH2 0x3F97 JUMP JUMPDEST DUP1 PUSH2 0x20F6 JUMPI POP PUSH2 0x2112 JUMP JUMPDEST DUP1 PUSH1 0x40 MLOAD PUSH3 0x461BCD PUSH1 0xE5 SHL DUP2 MSTORE PUSH1 0x4 ADD PUSH2 0x873 SWAP2 SWAP1 PUSH2 0x3BD6 JUMP JUMPDEST POP JUMPDEST PUSH1 0x40 MLOAD PUSH3 0x461BCD PUSH1 0xE5 SHL DUP2 MSTORE PUSH1 0x20 PUSH1 0x4 DUP3 ADD MSTORE PUSH1 0x34 PUSH1 0x24 DUP3 ADD MSTORE PUSH32 0x455243313135353A207472616E7366657220746F206E6F6E2045524331313535 PUSH1 0x44 DUP3 ADD MSTORE PUSH20 0x2932B1B2B4BB32B91034B6B83632B6B2B73A32B9 PUSH1 0x61 SHL PUSH1 0x64 DUP3 ADD MSTORE PUSH1 0x84 ADD PUSH2 0x873 JUMP JUMPDEST PUSH1 0x1 PUSH1 0x1 PUSH1 0xE0 SHL SUB NOT DUP2 AND PUSH4 0xBC197C81 PUSH1 0xE0 SHL EQ PUSH2 0x1D6A JUMPI PUSH1 0x40 MLOAD PUSH3 0x461BCD PUSH1 0xE5 SHL DUP2 MSTORE PUSH1 0x4 ADD PUSH2 0x873 SWAP1 PUSH2 0x3BE9 JUMP JUMPDEST PUSH1 0x0 PUSH2 0xE88 DUP4 DUP4 PUSH2 0x3183 JUMP JUMPDEST PUSH1 0x0 PUSH2 0x8F3 DUP3 SLOAD SWAP1 JUMP JUMPDEST PUSH1 0x0 DUP3 PUSH1 0x20 ADD MLOAD PUSH2 0x21D0 CALLER PUSH1 0x9 SLOAD PUSH2 0x80B JUMP JUMPDEST LT ISZERO PUSH2 0x2231 JUMPI PUSH1 0x40 MLOAD PUSH3 0x461BCD PUSH1 0xE5 SHL DUP2 MSTORE PUSH1 0x20 PUSH1 0x4 DUP3 ADD MSTORE PUSH1 0x2A PUSH1 0x24 DUP3 ADD MSTORE PUSH32 0x596F7520646F6E2774206861766520656E6F75676820464C4F555220746F2062 PUSH1 0x44 DUP3 ADD MSTORE PUSH10 0x616B6520746861742121 PUSH1 0xB0 SHL PUSH1 0x64 DUP3 ADD MSTORE PUSH1 0x84 ADD PUSH2 0x873 JUMP JUMPDEST PUSH1 0x40 DUP4 ADD MLOAD MLOAD PUSH1 0x0 DUP2 PUSH8 0xFFFFFFFFFFFFFFFF DUP2 GT ISZERO PUSH2 0x2260 JUMPI PUSH4 0x4E487B71 PUSH1 0xE0 SHL PUSH1 0x0 MSTORE PUSH1 0x41 PUSH1 0x4 MSTORE PUSH1 0x24 PUSH1 0x0 REVERT JUMPDEST PUSH1 0x40 MLOAD SWAP1 DUP1 DUP3 MSTORE DUP1 PUSH1 0x20 MUL PUSH1 0x20 ADD DUP3 ADD PUSH1 0x40 MSTORE DUP1 ISZERO PUSH2 0x2289 JUMPI DUP2 PUSH1 0x20 ADD PUSH1 0x20 DUP3 MUL DUP1 CALLDATASIZE DUP4 CALLDATACOPY ADD SWAP1 POP JUMPDEST POP SWAP1 POP DUP4 MLOAD DUP6 PUSH1 0x40 ADD MLOAD MLOAD EQ PUSH2 0x2307 JUMPI PUSH1 0x40 MLOAD PUSH3 0x461BCD PUSH1 0xE5 SHL DUP2 MSTORE PUSH1 0x20 PUSH1 0x4 DUP3 ADD MSTORE PUSH1 0x3C PUSH1 0x24 DUP3 ADD MSTORE PUSH32 0x596F7520686176656E277420616464656420746865207269676874206E756D62 PUSH1 0x44 DUP3 ADD MSTORE PUSH32 0x6572206F6620737461727465727320746F207468652062617463682100000000 PUSH1 0x64 DUP3 ADD MSTORE PUSH1 0x84 ADD PUSH2 0x873 JUMP JUMPDEST PUSH1 0x0 JUMPDEST DUP6 PUSH1 0x40 ADD MLOAD MLOAD DUP2 LT ISZERO PUSH2 0x2580 JUMPI PUSH1 0x0 PUSH1 0xB PUSH1 0x0 DUP8 DUP5 DUP2 MLOAD DUP2 LT PUSH2 0x233D JUMPI PUSH4 0x4E487B71 PUSH1 0xE0 SHL PUSH1 0x0 MSTORE PUSH1 0x32 PUSH1 0x4 MSTORE PUSH1 0x24 PUSH1 0x0 REVERT JUMPDEST PUSH1 0x20 SWAP1 DUP2 MUL SWAP2 SWAP1 SWAP2 ADD DUP2 ADD MLOAD DUP3 MSTORE DUP2 ADD SWAP2 SWAP1 SWAP2 MSTORE PUSH1 0x40 ADD PUSH1 0x0 KECCAK256 SLOAD PUSH2 0x236F SWAP1 PUSH1 0x1 PUSH1 0x28 SHL SWAP1 DIV PUSH4 0xFFFFFFFF AND TIMESTAMP PUSH2 0x3EBA JUMP JUMPDEST SWAP1 POP DUP7 PUSH1 0x40 ADD MLOAD DUP3 DUP2 MLOAD DUP2 LT PUSH2 0x2395 JUMPI PUSH4 0x4E487B71 PUSH1 0xE0 SHL PUSH1 0x0 MSTORE PUSH1 0x32 PUSH1 0x4 MSTORE PUSH1 0x24 PUSH1 0x0 REVERT JUMPDEST PUSH1 0x20 MUL PUSH1 0x20 ADD ADD MLOAD PUSH4 0xFFFFFFFF AND DUP2 PUSH4 0xFFFFFFFF AND GT PUSH2 0x2437 JUMPI PUSH1 0x40 MLOAD PUSH3 0x461BCD PUSH1 0xE5 SHL DUP2 MSTORE PUSH1 0x20 PUSH1 0x4 DUP3 ADD MSTORE PUSH1 0x51 PUSH1 0x24 DUP3 ADD MSTORE PUSH32 0x596F757220737461727465727320617265206E6F74206F6C6420656E6F756768 PUSH1 0x44 DUP3 ADD MSTORE PUSH32 0x2C20706C65617365207573652074686520737461727465727320726571756972 PUSH1 0x64 DUP3 ADD MSTORE PUSH17 0x6564206279207468697320726563697065 PUSH1 0x78 SHL PUSH1 0x84 DUP3 ADD MSTORE PUSH1 0xA4 ADD PUSH2 0x873 JUMP JUMPDEST TIMESTAMP PUSH1 0xB PUSH1 0x0 DUP9 DUP6 DUP2 MLOAD DUP2 LT PUSH2 0x245C JUMPI PUSH4 0x4E487B71 PUSH1 0xE0 SHL PUSH1 0x0 MSTORE PUSH1 0x32 PUSH1 0x4 MSTORE PUSH1 0x24 PUSH1 0x0 REVERT JUMPDEST PUSH1 0x20 SWAP1 DUP2 MUL SWAP2 SWAP1 SWAP2 ADD DUP2 ADD MLOAD DUP3 MSTORE DUP2 ADD SWAP2 SWAP1 SWAP2 MSTORE PUSH1 0x40 ADD PUSH1 0x0 KECCAK256 SLOAD PUSH4 0xFFFFFFFF AND LT ISZERO PUSH2 0x24FD JUMPI PUSH1 0x40 MLOAD PUSH3 0x461BCD PUSH1 0xE5 SHL DUP2 MSTORE PUSH1 0x20 PUSH1 0x4 DUP3 ADD MSTORE PUSH1 0x43 PUSH1 0x24 DUP3 ADD MSTORE PUSH32 0x596F757220737461727465727320617265206E6F7420616C6C20616C6976652C PUSH1 0x44 DUP3 ADD MSTORE PUSH32 0x20796F75206D757374207573652061206C6976696E6720696E6772656469656E PUSH1 0x64 DUP3 ADD MSTORE PUSH3 0x742121 PUSH1 0xE8 SHL PUSH1 0x84 DUP3 ADD MSTORE PUSH1 0xA4 ADD PUSH2 0x873 JUMP JUMPDEST PUSH2 0x2521 CALLER DUP8 DUP5 DUP2 MLOAD DUP2 LT PUSH2 0x1051 JUMPI PUSH4 0x4E487B71 PUSH1 0xE0 SHL PUSH1 0x0 MSTORE PUSH1 0x32 PUSH1 0x4 MSTORE PUSH1 0x24 PUSH1 0x0 REVERT JUMPDEST PUSH1 0x1 EQ PUSH2 0x2540 JUMPI PUSH1 0x40 MLOAD PUSH3 0x461BCD PUSH1 0xE5 SHL DUP2 MSTORE PUSH1 0x4 ADD PUSH2 0x873 SWAP1 PUSH2 0x3C75 JUMP JUMPDEST PUSH1 0x1 DUP4 DUP4 DUP2 MLOAD DUP2 LT PUSH2 0x2562 JUMPI PUSH4 0x4E487B71 PUSH1 0xE0 SHL PUSH1 0x0 MSTORE PUSH1 0x32 PUSH1 0x4 MSTORE PUSH1 0x24 PUSH1 0x0 REVERT JUMPDEST PUSH1 0x20 SWAP1 DUP2 MUL SWAP2 SWAP1 SWAP2 ADD ADD MSTORE POP DUP1 PUSH2 0x2578 DUP2 PUSH2 0x3F39 JUMP JUMPDEST SWAP2 POP POP PUSH2 0x230A JUMP JUMPDEST POP PUSH2 0x258C CALLER DUP6 DUP4 PUSH2 0x3217 JUMP JUMPDEST PUSH2 0x259A CALLER DUP7 PUSH1 0x20 ADD MLOAD PUSH2 0x1EBE JUMP JUMPDEST POP PUSH1 0x1 SWAP5 SWAP4 POP POP POP POP JUMP JUMPDEST PUSH1 0x0 DUP1 JUMPDEST PUSH1 0xA DUP3 LT ISZERO PUSH2 0x25F6 JUMPI DUP3 PUSH1 0x1E DUP4 PUSH1 0xB DUP2 LT PUSH2 0x25D4 JUMPI PUSH4 0x4E487B71 PUSH1 0xE0 SHL PUSH1 0x0 MSTORE PUSH1 0x32 PUSH1 0x4 MSTORE PUSH1 0x24 PUSH1 0x0 REVERT JUMPDEST ADD SLOAD EQ ISZERO PUSH2 0x25E4 JUMPI POP PUSH1 0x1 PUSH2 0x25F6 JUMP JUMPDEST PUSH2 0x25EF DUP3 PUSH1 0x1 PUSH2 0x3E36 JUMP JUMPDEST SWAP2 POP PUSH2 0x25A9 JUMP JUMPDEST DUP1 ISZERO PUSH2 0x2668 JUMPI JUMPDEST PUSH1 0xA DUP3 LT ISZERO PUSH2 0x2668 JUMPI PUSH1 0x1E PUSH2 0x2613 DUP4 PUSH1 0x1 PUSH2 0x3E36 JUMP JUMPDEST PUSH1 0xB DUP2 LT PUSH2 0x2631 JUMPI PUSH4 0x4E487B71 PUSH1 0xE0 SHL PUSH1 0x0 MSTORE PUSH1 0x32 PUSH1 0x4 MSTORE PUSH1 0x24 PUSH1 0x0 REVERT JUMPDEST ADD SLOAD PUSH1 0x1E DUP4 PUSH1 0xB DUP2 LT PUSH2 0x2654 JUMPI PUSH4 0x4E487B71 PUSH1 0xE0 SHL PUSH1 0x0 MSTORE PUSH1 0x32 PUSH1 0x4 MSTORE PUSH1 0x24 PUSH1 0x0 REVERT JUMPDEST ADD SSTORE PUSH2 0x2661 DUP3 PUSH1 0x1 PUSH2 0x3E36 JUMP JUMPDEST SWAP2 POP PUSH2 0x25FD JUMP JUMPDEST PUSH1 0x0 DUP4 DUP2 MSTORE PUSH1 0xD PUSH1 0x20 MSTORE PUSH1 0x40 DUP1 DUP3 KECCAK256 PUSH1 0x4 SWAP1 DUP2 ADD SLOAD PUSH1 0x1E SLOAD DUP5 MSTORE SWAP2 DUP4 KECCAK256 ADD SLOAD SWAP2 SWAP4 POP SWAP1 JUMPDEST DUP1 DUP3 GT PUSH2 0x26EE JUMPI PUSH2 0x269E DUP5 PUSH1 0x1 PUSH2 0x3E36 JUMP JUMPDEST SWAP4 POP PUSH1 0xA DUP5 GT ISZERO PUSH2 0x26AE JUMPI PUSH2 0x26EE JUMP JUMPDEST PUSH1 0xD PUSH1 0x0 PUSH1 0x1E DUP7 PUSH1 0xB DUP2 LT PUSH2 0x26D3 JUMPI PUSH4 0x4E487B71 PUSH1 0xE0 SHL PUSH1 0x0 MSTORE PUSH1 0x32 PUSH1 0x4 MSTORE PUSH1 0x24 PUSH1 0x0 REVERT JUMPDEST ADD SLOAD DUP2 MSTORE PUSH1 0x20 ADD SWAP1 DUP2 MSTORE PUSH1 0x20 ADD PUSH1 0x0 KECCAK256 PUSH1 0x4 ADD SLOAD SWAP1 POP PUSH2 0x268C JUMP JUMPDEST PUSH1 0xA DUP5 LT ISZERO PUSH2 0x1BF7 JUMPI PUSH1 0x9 JUMPDEST DUP5 DUP2 LT PUSH2 0x2773 JUMPI PUSH1 0x1E DUP2 PUSH1 0xB DUP2 LT PUSH2 0x2722 JUMPI PUSH4 0x4E487B71 PUSH1 0xE0 SHL PUSH1 0x0 MSTORE PUSH1 0x32 PUSH1 0x4 MSTORE PUSH1 0x24 PUSH1 0x0 REVERT JUMPDEST ADD SLOAD PUSH1 0x1E PUSH2 0x2731 DUP4 PUSH1 0x1 PUSH2 0x3E36 JUMP JUMPDEST PUSH1 0xB DUP2 LT PUSH2 0x274F JUMPI PUSH4 0x4E487B71 PUSH1 0xE0 SHL PUSH1 0x0 MSTORE PUSH1 0x32 PUSH1 0x4 MSTORE PUSH1 0x24 PUSH1 0x0 REVERT JUMPDEST ADD SSTORE DUP1 ISZERO PUSH2 0x2769 JUMPI PUSH2 0x2762 PUSH1 0x1 DUP3 PUSH2 0x3EBA JUMP JUMPDEST SWAP1 POP PUSH2 0x276E JUMP JUMPDEST PUSH2 0x2773 JUMP JUMPDEST PUSH2 0x26FA JUMP JUMPDEST DUP6 PUSH1 0x1E DUP7 PUSH1 0xB DUP2 LT PUSH2 0x2795 JUMPI PUSH4 0x4E487B71 PUSH1 0xE0 SHL PUSH1 0x0 MSTORE PUSH1 0x32 PUSH1 0x4 MSTORE PUSH1 0x24 PUSH1 0x0 REVERT JUMPDEST ADD SSTORE POP POP POP POP POP POP JUMP JUMPDEST PUSH1 0x1 PUSH1 0x1 PUSH1 0xA0 SHL SUB DUP4 AND PUSH2 0x27C5 JUMPI PUSH1 0x40 MLOAD PUSH3 0x461BCD PUSH1 0xE5 SHL DUP2 MSTORE PUSH1 0x4 ADD PUSH2 0x873 SWAP1 PUSH2 0x3D3D JUMP JUMPDEST CALLER PUSH2 0x27F5 DUP2 DUP6 PUSH1 0x0 PUSH2 0x27D6 DUP8 PUSH2 0x2B6B JUMP JUMPDEST PUSH2 0x27DF DUP8 PUSH2 0x2B6B JUMP JUMPDEST POP POP PUSH1 0x40 DUP1 MLOAD PUSH1 0x20 DUP2 ADD SWAP1 SWAP2 MSTORE PUSH1 0x0 SWAP1 MSTORE POP POP POP JUMP JUMPDEST PUSH1 0x0 DUP4 DUP2 MSTORE PUSH1 0x1 PUSH1 0x20 SWAP1 DUP2 MSTORE PUSH1 0x40 DUP1 DUP4 KECCAK256 PUSH1 0x1 PUSH1 0x1 PUSH1 0xA0 SHL SUB DUP9 AND DUP5 MSTORE SWAP1 SWAP2 MSTORE SWAP1 KECCAK256 SLOAD DUP3 DUP2 LT ISZERO PUSH2 0x2838 JUMPI PUSH1 0x40 MLOAD PUSH3 0x461BCD PUSH1 0xE5 SHL DUP2 MSTORE PUSH1 0x4 ADD PUSH2 0x873 SWAP1 PUSH2 0x3C31 JUMP JUMPDEST PUSH1 0x0 PUSH2 0x2844 DUP5 DUP4 PUSH2 0x3EBA JUMP JUMPDEST PUSH1 0x0 DUP7 DUP2 MSTORE PUSH1 0x1 PUSH1 0x20 SWAP1 DUP2 MSTORE PUSH1 0x40 DUP1 DUP4 KECCAK256 PUSH1 0x1 PUSH1 0x1 PUSH1 0xA0 SHL SUB DUP12 AND DUP5 MSTORE SWAP1 SWAP2 MSTORE SWAP1 KECCAK256 DUP2 SWAP1 SSTORE SWAP1 POP DUP1 PUSH2 0x2894 JUMPI PUSH1 0x1 PUSH1 0x1 PUSH1 0xA0 SHL SUB DUP7 AND PUSH1 0x0 SWAP1 DUP2 MSTORE PUSH1 0x20 DUP2 SWAP1 MSTORE PUSH1 0x40 SWAP1 KECCAK256 PUSH2 0x2892 SWAP1 DUP7 PUSH2 0x2030 JUMP JUMPDEST POP JUMPDEST PUSH1 0x40 DUP1 MLOAD DUP7 DUP2 MSTORE PUSH1 0x20 DUP2 ADD DUP7 SWAP1 MSTORE PUSH1 0x0 SWAP2 PUSH1 0x1 PUSH1 0x1 PUSH1 0xA0 SHL SUB DUP10 DUP2 AND SWAP3 SWAP1 DUP8 AND SWAP2 PUSH32 0xC3D58168C5AE7397731D063D5BBF3D657854427343F4C083240F7AACAA2D0F62 SWAP2 ADD PUSH1 0x40 MLOAD DUP1 SWAP2 SUB SWAP1 LOG4 POP POP POP POP POP POP JUMP JUMPDEST PUSH1 0x0 DUP1 JUMPDEST PUSH1 0xA DUP3 LT ISZERO PUSH2 0x294B JUMPI DUP3 PUSH1 0x1 PUSH1 0x1 PUSH1 0xA0 SHL SUB AND PUSH1 0x29 DUP4 PUSH1 0xB DUP2 LT PUSH2 0x2920 JUMPI PUSH4 0x4E487B71 PUSH1 0xE0 SHL PUSH1 0x0 MSTORE PUSH1 0x32 PUSH1 0x4 MSTORE PUSH1 0x24 PUSH1 0x0 REVERT JUMPDEST ADD SLOAD PUSH1 0x1 PUSH1 0x1 PUSH1 0xA0 SHL SUB AND EQ ISZERO PUSH2 0x2939 JUMPI POP PUSH1 0x1 PUSH2 0x294B JUMP JUMPDEST PUSH2 0x2944 DUP3 PUSH1 0x1 PUSH2 0x3E36 JUMP JUMPDEST SWAP2 POP PUSH2 0x28EC JUMP JUMPDEST DUP1 ISZERO PUSH2 0x29E3 JUMPI JUMPDEST PUSH1 0xA DUP3 LT ISZERO PUSH2 0x29E3 JUMPI PUSH1 0x29 PUSH2 0x2968 DUP4 PUSH1 0x1 PUSH2 0x3E36 JUMP JUMPDEST PUSH1 0xB DUP2 LT PUSH2 0x2986 JUMPI PUSH4 0x4E487B71 PUSH1 0xE0 SHL PUSH1 0x0 MSTORE PUSH1 0x32 PUSH1 0x4 MSTORE PUSH1 0x24 PUSH1 0x0 REVERT JUMPDEST ADD SLOAD PUSH1 0x1 PUSH1 0x1 PUSH1 0xA0 SHL SUB AND PUSH1 0x29 DUP4 PUSH1 0xB DUP2 LT PUSH2 0x29B2 JUMPI PUSH4 0x4E487B71 PUSH1 0xE0 SHL PUSH1 0x0 MSTORE PUSH1 0x32 PUSH1 0x4 MSTORE PUSH1 0x24 PUSH1 0x0 REVERT JUMPDEST ADD DUP1 SLOAD PUSH1 0x1 PUSH1 0x1 PUSH1 0xA0 SHL SUB NOT AND PUSH1 0x1 PUSH1 0x1 PUSH1 0xA0 SHL SUB SWAP3 SWAP1 SWAP3 AND SWAP2 SWAP1 SWAP2 OR SWAP1 SSTORE PUSH2 0x29DC DUP3 PUSH1 0x1 PUSH2 0x3E36 JUMP JUMPDEST SWAP2 POP PUSH2 0x2952 JUMP JUMPDEST PUSH1 0x1 PUSH1 0x1 PUSH1 0xA0 SHL SUB DUP4 DUP2 AND PUSH1 0x0 SWAP1 DUP2 MSTORE PUSH1 0xF PUSH1 0x20 MSTORE PUSH1 0x40 DUP1 DUP3 KECCAK256 SLOAD PUSH1 0x29 SLOAD SWAP1 SWAP4 AND DUP3 MSTORE DUP2 KECCAK256 SLOAD SWAP1 SWAP4 POP JUMPDEST DUP1 DUP3 GT PUSH2 0x2A77 JUMPI PUSH2 0x2A1F DUP5 PUSH1 0x1 PUSH2 0x3E36 JUMP JUMPDEST SWAP4 POP PUSH1 0xA DUP5 GT ISZERO PUSH2 0x2A2F JUMPI PUSH2 0x2A77 JUMP JUMPDEST PUSH1 0xF PUSH1 0x0 PUSH1 0x29 DUP7 PUSH1 0xB DUP2 LT PUSH2 0x2A54 JUMPI PUSH4 0x4E487B71 PUSH1 0xE0 SHL PUSH1 0x0 MSTORE PUSH1 0x32 PUSH1 0x4 MSTORE PUSH1 0x24 PUSH1 0x0 REVERT JUMPDEST ADD SLOAD PUSH1 0x1 PUSH1 0x1 PUSH1 0xA0 SHL SUB AND DUP2 MSTORE PUSH1 0x20 DUP2 ADD SWAP2 SWAP1 SWAP2 MSTORE PUSH1 0x40 ADD PUSH1 0x0 KECCAK256 SLOAD SWAP1 POP PUSH2 0x2A0D JUMP JUMPDEST PUSH1 0xA DUP5 LT ISZERO PUSH2 0x1BF7 JUMPI PUSH1 0x9 JUMPDEST DUP5 DUP2 LT PUSH2 0x2B22 JUMPI PUSH1 0x29 DUP2 PUSH1 0xB DUP2 LT PUSH2 0x2AAB JUMPI PUSH4 0x4E487B71 PUSH1 0xE0 SHL PUSH1 0x0 MSTORE PUSH1 0x32 PUSH1 0x4 MSTORE PUSH1 0x24 PUSH1 0x0 REVERT JUMPDEST ADD SLOAD PUSH1 0x1 PUSH1 0x1 PUSH1 0xA0 SHL SUB AND PUSH1 0x29 PUSH2 0x2AC3 DUP4 PUSH1 0x1 PUSH2 0x3E36 JUMP JUMPDEST PUSH1 0xB DUP2 LT PUSH2 0x2AE1 JUMPI PUSH4 0x4E487B71 PUSH1 0xE0 SHL PUSH1 0x0 MSTORE PUSH1 0x32 PUSH1 0x4 MSTORE PUSH1 0x24 PUSH1 0x0 REVERT JUMPDEST ADD DUP1 SLOAD PUSH1 0x1 PUSH1 0x1 PUSH1 0xA0 SHL SUB NOT AND PUSH1 0x1 PUSH1 0x1 PUSH1 0xA0 SHL SUB SWAP3 SWAP1 SWAP3 AND SWAP2 SWAP1 SWAP2 OR SWAP1 SSTORE DUP1 ISZERO PUSH2 0x2B18 JUMPI PUSH2 0x2B11 PUSH1 0x1 DUP3 PUSH2 0x3EBA JUMP JUMPDEST SWAP1 POP PUSH2 0x2B1D JUMP JUMPDEST PUSH2 0x2B22 JUMP JUMPDEST PUSH2 0x2A83 JUMP JUMPDEST DUP6 PUSH1 0x29 DUP7 PUSH1 0xB DUP2 LT PUSH2 0x2B44 JUMPI PUSH4 0x4E487B71 PUSH1 0xE0 SHL PUSH1 0x0 MSTORE PUSH1 0x32 PUSH1 0x4 MSTORE PUSH1 0x24 PUSH1 0x0 REVERT JUMPDEST ADD DUP1 SLOAD PUSH1 0x1 PUSH1 0x1 PUSH1 0xA0 SHL SUB NOT AND PUSH1 0x1 PUSH1 0x1 PUSH1 0xA0 SHL SUB SWAP3 SWAP1 SWAP3 AND SWAP2 SWAP1 SWAP2 OR SWAP1 SSTORE POP POP POP POP POP POP JUMP JUMPDEST PUSH1 0x40 DUP1 MLOAD PUSH1 0x1 DUP1 DUP3 MSTORE DUP2 DUP4 ADD SWAP1 SWAP3 MSTORE PUSH1 0x60 SWAP2 PUSH1 0x0 SWAP2 SWAP1 PUSH1 0x20 DUP1 DUP4 ADD SWAP1 DUP1 CALLDATASIZE DUP4 CALLDATACOPY ADD SWAP1 POP POP SWAP1 POP DUP3 DUP2 PUSH1 0x0 DUP2 MLOAD DUP2 LT PUSH2 0x2BB3 JUMPI PUSH4 0x4E487B71 PUSH1 0xE0 SHL PUSH1 0x0 MSTORE PUSH1 0x32 PUSH1 0x4 MSTORE PUSH1 0x24 PUSH1 0x0 REVERT JUMPDEST PUSH1 0x20 SWAP1 DUP2 MUL SWAP2 SWAP1 SWAP2 ADD ADD MSTORE SWAP3 SWAP2 POP POP JUMP JUMPDEST PUSH1 0x1 PUSH1 0x1 PUSH1 0xA0 SHL SUB DUP5 AND EXTCODESIZE ISZERO PUSH2 0xE5E JUMPI PUSH1 0x40 MLOAD PUSH4 0xF23A6E61 PUSH1 0xE0 SHL DUP2 MSTORE PUSH1 0x1 PUSH1 0x1 PUSH1 0xA0 SHL SUB DUP6 AND SWAP1 PUSH4 0xF23A6E61 SWAP1 PUSH2 0x2C08 SWAP1 DUP10 SWAP1 DUP10 SWAP1 DUP9 SWAP1 DUP9 SWAP1 DUP9 SWAP1 PUSH1 0x4 ADD PUSH2 0x3B50 JUMP JUMPDEST PUSH1 0x20 PUSH1 0x40 MLOAD DUP1 DUP4 SUB DUP2 PUSH1 0x0 DUP8 DUP1 EXTCODESIZE ISZERO DUP1 ISZERO PUSH2 0x2C22 JUMPI PUSH1 0x0 DUP1 REVERT JUMPDEST POP GAS CALL SWAP3 POP POP POP DUP1 ISZERO PUSH2 0x2C52 JUMPI POP PUSH1 0x40 DUP1 MLOAD PUSH1 0x1F RETURNDATASIZE SWAP1 DUP2 ADD PUSH1 0x1F NOT AND DUP3 ADD SWAP1 SWAP3 MSTORE PUSH2 0x2C4F SWAP2 DUP2 ADD SWAP1 PUSH2 0x38D0 JUMP JUMPDEST PUSH1 0x1 JUMPDEST PUSH2 0x2C5E JUMPI PUSH2 0x20D6 PUSH2 0x3F80 JUMP JUMPDEST PUSH1 0x1 PUSH1 0x1 PUSH1 0xE0 SHL SUB NOT DUP2 AND PUSH4 0xF23A6E61 PUSH1 0xE0 SHL EQ PUSH2 0x1D6A JUMPI PUSH1 0x40 MLOAD PUSH3 0x461BCD PUSH1 0xE5 SHL DUP2 MSTORE PUSH1 0x4 ADD PUSH2 0x873 SWAP1 PUSH2 0x3BE9 JUMP JUMPDEST PUSH1 0x0 DUP1 JUMPDEST PUSH1 0xA DUP3 LT ISZERO PUSH2 0x2CDF JUMPI DUP3 PUSH1 0x13 DUP4 PUSH1 0xB DUP2 LT PUSH2 0x2CBD JUMPI PUSH4 0x4E487B71 PUSH1 0xE0 SHL PUSH1 0x0 MSTORE PUSH1 0x32 PUSH1 0x4 MSTORE PUSH1 0x24 PUSH1 0x0 REVERT JUMPDEST ADD SLOAD EQ ISZERO PUSH2 0x2CCD JUMPI POP PUSH1 0x1 PUSH2 0x2CDF JUMP JUMPDEST PUSH2 0x2CD8 DUP3 PUSH1 0x1 PUSH2 0x3E36 JUMP JUMPDEST SWAP2 POP PUSH2 0x2C92 JUMP JUMPDEST DUP1 ISZERO PUSH2 0x2DE4 JUMPI JUMPDEST PUSH1 0xA DUP3 LT ISZERO PUSH2 0x2DE4 JUMPI PUSH1 0x13 PUSH2 0x2CFC DUP4 PUSH1 0x1 PUSH2 0x3E36 JUMP JUMPDEST PUSH1 0xB DUP2 LT PUSH2 0x2D1A JUMPI PUSH4 0x4E487B71 PUSH1 0xE0 SHL PUSH1 0x0 MSTORE PUSH1 0x32 PUSH1 0x4 MSTORE PUSH1 0x24 PUSH1 0x0 REVERT JUMPDEST ADD SLOAD PUSH1 0x13 DUP4 PUSH1 0xB DUP2 LT PUSH2 0x2D3D JUMPI PUSH4 0x4E487B71 PUSH1 0xE0 SHL PUSH1 0x0 MSTORE PUSH1 0x32 PUSH1 0x4 MSTORE PUSH1 0x24 PUSH1 0x0 REVERT JUMPDEST ADD SSTORE PUSH1 0x11 PUSH2 0x2D4C DUP4 PUSH1 0x1 PUSH2 0x3E36 JUMP JUMPDEST PUSH1 0xB DUP2 LT PUSH2 0x2D6A JUMPI PUSH4 0x4E487B71 PUSH1 0xE0 SHL PUSH1 0x0 MSTORE PUSH1 0x32 PUSH1 0x4 MSTORE PUSH1 0x24 PUSH1 0x0 REVERT JUMPDEST PUSH1 0x8 SWAP2 DUP3 DUP3 DIV ADD SWAP2 SWAP1 MOD PUSH1 0x4 MUL SWAP1 SLOAD SWAP1 PUSH2 0x100 EXP SWAP1 DIV PUSH4 0xFFFFFFFF AND PUSH1 0x11 DUP4 PUSH1 0xB DUP2 LT PUSH2 0x2DA7 JUMPI PUSH4 0x4E487B71 PUSH1 0xE0 SHL PUSH1 0x0 MSTORE PUSH1 0x32 PUSH1 0x4 MSTORE PUSH1 0x24 PUSH1 0x0 REVERT JUMPDEST PUSH1 0x8 SWAP2 DUP3 DUP3 DIV ADD SWAP2 SWAP1 MOD PUSH1 0x4 MUL PUSH2 0x100 EXP DUP2 SLOAD DUP2 PUSH4 0xFFFFFFFF MUL NOT AND SWAP1 DUP4 PUSH4 0xFFFFFFFF AND MUL OR SWAP1 SSTORE POP DUP2 PUSH1 0x1 PUSH2 0x2DDD SWAP2 SWAP1 PUSH2 0x3E36 JUMP JUMPDEST SWAP2 POP PUSH2 0x2CE6 JUMP JUMPDEST PUSH1 0x11 SLOAD PUSH1 0x0 DUP5 DUP2 MSTORE PUSH1 0xB PUSH1 0x20 MSTORE PUSH1 0x40 DUP2 KECCAK256 SLOAD SWAP1 SWAP4 POP PUSH4 0xFFFFFFFF SWAP2 DUP3 AND SWAP2 DUP5 SWAP2 PUSH2 0x2E17 SWAP2 PUSH1 0x1 PUSH1 0x28 SHL SWAP1 SWAP2 DIV AND TIMESTAMP PUSH2 0x3EBA JUMP JUMPDEST SWAP1 POP JUMPDEST DUP2 PUSH4 0xFFFFFFFF AND DUP2 PUSH4 0xFFFFFFFF AND GT PUSH2 0x2E8C JUMPI PUSH2 0x2E38 DUP5 PUSH1 0x1 PUSH2 0x3E36 JUMP JUMPDEST SWAP4 POP PUSH1 0xA DUP5 GT ISZERO PUSH2 0x2E48 JUMPI PUSH2 0x2E8C JUMP JUMPDEST PUSH1 0x11 DUP5 PUSH1 0xB DUP2 LT PUSH2 0x2E69 JUMPI PUSH4 0x4E487B71 PUSH1 0xE0 SHL PUSH1 0x0 MSTORE PUSH1 0x32 PUSH1 0x4 MSTORE PUSH1 0x24 PUSH1 0x0 REVERT JUMPDEST PUSH1 0x8 SWAP2 DUP3 DUP3 DIV ADD SWAP2 SWAP1 MOD PUSH1 0x4 MUL SWAP1 SLOAD SWAP1 PUSH2 0x100 EXP SWAP1 DIV PUSH4 0xFFFFFFFF AND SWAP2 POP PUSH2 0x2E1A JUMP JUMPDEST PUSH1 0xA DUP5 LT ISZERO PUSH2 0x1BF7 JUMPI PUSH1 0x9 JUMPDEST DUP5 DUP2 LT PUSH2 0x2FA6 JUMPI PUSH1 0x13 DUP2 PUSH1 0xB DUP2 LT PUSH2 0x2EC0 JUMPI PUSH4 0x4E487B71 PUSH1 0xE0 SHL PUSH1 0x0 MSTORE PUSH1 0x32 PUSH1 0x4 MSTORE PUSH1 0x24 PUSH1 0x0 REVERT JUMPDEST ADD SLOAD PUSH1 0x13 PUSH2 0x2ECF DUP4 PUSH1 0x1 PUSH2 0x3E36 JUMP JUMPDEST PUSH1 0xB DUP2 LT PUSH2 0x2EED JUMPI PUSH4 0x4E487B71 PUSH1 0xE0 SHL PUSH1 0x0 MSTORE PUSH1 0x32 PUSH1 0x4 MSTORE PUSH1 0x24 PUSH1 0x0 REVERT JUMPDEST ADD SSTORE PUSH1 0x11 DUP2 PUSH1 0xB DUP2 LT PUSH2 0x2F10 JUMPI PUSH4 0x4E487B71 PUSH1 0xE0 SHL PUSH1 0x0 MSTORE PUSH1 0x32 PUSH1 0x4 MSTORE PUSH1 0x24 PUSH1 0x0 REVERT JUMPDEST PUSH1 0x8 SWAP2 DUP3 DUP3 DIV ADD SWAP2 SWAP1 MOD PUSH1 0x4 MUL SWAP1 SLOAD SWAP1 PUSH2 0x100 EXP SWAP1 DIV PUSH4 0xFFFFFFFF AND PUSH1 0x11 DUP3 PUSH1 0x1 PUSH2 0x2F3B SWAP2 SWAP1 PUSH2 0x3E36 JUMP JUMPDEST PUSH1 0xB DUP2 LT PUSH2 0x2F59 JUMPI PUSH4 0x4E487B71 PUSH1 0xE0 SHL PUSH1 0x0 MSTORE PUSH1 0x32 PUSH1 0x4 MSTORE PUSH1 0x24 PUSH1 0x0 REVERT JUMPDEST PUSH1 0x8 SWAP2 DUP3 DUP3 DIV ADD SWAP2 SWAP1 MOD PUSH1 0x4 MUL PUSH2 0x100 EXP DUP2 SLOAD DUP2 PUSH4 0xFFFFFFFF MUL NOT AND SWAP1 DUP4 PUSH4 0xFFFFFFFF AND MUL OR SWAP1 SSTORE POP DUP1 PUSH1 0x0 EQ PUSH2 0x2F9C JUMPI PUSH2 0x2F95 PUSH1 0x1 DUP3 PUSH2 0x3EBA JUMP JUMPDEST SWAP1 POP PUSH2 0x2FA1 JUMP JUMPDEST PUSH2 0x2FA6 JUMP JUMPDEST PUSH2 0x2E98 JUMP JUMPDEST DUP6 PUSH1 0x13 DUP7 PUSH1 0xB DUP2 LT PUSH2 0x2FC8 JUMPI PUSH4 0x4E487B71 PUSH1 0xE0 SHL PUSH1 0x0 MSTORE PUSH1 0x32 PUSH1 0x4 MSTORE PUSH1 0x24 PUSH1 0x0 REVERT JUMPDEST ADD SSTORE DUP2 PUSH1 0x11 DUP7 PUSH1 0xB DUP2 LT PUSH2 0x2FEC JUMPI PUSH4 0x4E487B71 PUSH1 0xE0 SHL PUSH1 0x0 MSTORE PUSH1 0x32 PUSH1 0x4 MSTORE PUSH1 0x24 PUSH1 0x0 REVERT JUMPDEST PUSH1 0x8 SWAP2 DUP3 DUP3 DIV ADD SWAP2 SWAP1 MOD PUSH1 0x4 MUL PUSH2 0x100 EXP DUP2 SLOAD DUP2 PUSH4 0xFFFFFFFF MUL NOT AND SWAP1 DUP4 PUSH4 0xFFFFFFFF AND MUL OR SWAP1 SSTORE POP POP POP POP POP POP POP JUMP JUMPDEST PUSH1 0x0 DUP2 DUP2 MSTORE PUSH1 0x1 DUP4 ADD PUSH1 0x20 MSTORE PUSH1 0x40 DUP2 KECCAK256 SLOAD PUSH2 0x3064 JUMPI POP DUP2 SLOAD PUSH1 0x1 DUP2 DUP2 ADD DUP5 SSTORE PUSH1 0x0 DUP5 DUP2 MSTORE PUSH1 0x20 DUP1 DUP3 KECCAK256 SWAP1 SWAP4 ADD DUP5 SWAP1 SSTORE DUP5 SLOAD DUP5 DUP3 MSTORE DUP3 DUP7 ADD SWAP1 SWAP4 MSTORE PUSH1 0x40 SWAP1 KECCAK256 SWAP2 SWAP1 SWAP2 SSTORE PUSH2 0x8A1 JUMP JUMPDEST POP PUSH1 0x0 PUSH2 0x8A1 JUMP JUMPDEST PUSH1 0x0 DUP2 DUP2 MSTORE PUSH1 0x1 DUP4 ADD PUSH1 0x20 MSTORE PUSH1 0x40 DUP2 KECCAK256 SLOAD DUP1 ISZERO PUSH2 0x3179 JUMPI PUSH1 0x0 PUSH2 0x3090 PUSH1 0x1 DUP4 PUSH2 0x3EBA JUMP JUMPDEST DUP6 SLOAD SWAP1 SWAP2 POP PUSH1 0x0 SWAP1 PUSH2 0x30A4 SWAP1 PUSH1 0x1 SWAP1 PUSH2 0x3EBA JUMP JUMPDEST SWAP1 POP PUSH1 0x0 DUP7 PUSH1 0x0 ADD DUP3 DUP2 SLOAD DUP2 LT PUSH2 0x30CB JUMPI PUSH4 0x4E487B71 PUSH1 0xE0 SHL PUSH1 0x0 MSTORE PUSH1 0x32 PUSH1 0x4 MSTORE PUSH1 0x24 PUSH1 0x0 REVERT JUMPDEST SWAP1 PUSH1 0x0 MSTORE PUSH1 0x20 PUSH1 0x0 KECCAK256 ADD SLOAD SWAP1 POP DUP1 DUP8 PUSH1 0x0 ADD DUP5 DUP2 SLOAD DUP2 LT PUSH2 0x30FC JUMPI PUSH4 0x4E487B71 PUSH1 0xE0 SHL PUSH1 0x0 MSTORE PUSH1 0x32 PUSH1 0x4 MSTORE PUSH1 0x24 PUSH1 0x0 REVERT JUMPDEST PUSH1 0x0 SWAP2 DUP3 MSTORE PUSH1 0x20 DUP1 DUP4 KECCAK256 SWAP1 SWAP2 ADD SWAP3 SWAP1 SWAP3 SSTORE DUP3 DUP2 MSTORE PUSH1 0x1 DUP10 ADD SWAP1 SWAP2 MSTORE PUSH1 0x40 SWAP1 KECCAK256 DUP5 SWAP1 SSTORE DUP7 SLOAD DUP8 SWAP1 DUP1 PUSH2 0x313D JUMPI PUSH4 0x4E487B71 PUSH1 0xE0 SHL PUSH1 0x0 MSTORE PUSH1 0x31 PUSH1 0x4 MSTORE PUSH1 0x24 PUSH1 0x0 REVERT JUMPDEST PUSH1 0x1 SWAP1 SUB DUP2 DUP2 SWAP1 PUSH1 0x0 MSTORE PUSH1 0x20 PUSH1 0x0 KECCAK256 ADD PUSH1 0x0 SWAP1 SSTORE SWAP1 SSTORE DUP7 PUSH1 0x1 ADD PUSH1 0x0 DUP8 DUP2 MSTORE PUSH1 0x20 ADD SWAP1 DUP2 MSTORE PUSH1 0x20 ADD PUSH1 0x0 KECCAK256 PUSH1 0x0 SWAP1 SSTORE PUSH1 0x1 SWAP5 POP POP POP POP POP PUSH2 0x8A1 JUMP JUMPDEST PUSH1 0x0 SWAP2 POP POP PUSH2 0x8A1 JUMP JUMPDEST DUP2 SLOAD PUSH1 0x0 SWAP1 DUP3 LT PUSH2 0x31E1 JUMPI PUSH1 0x40 MLOAD PUSH3 0x461BCD PUSH1 0xE5 SHL DUP2 MSTORE PUSH1 0x20 PUSH1 0x4 DUP3 ADD MSTORE PUSH1 0x22 PUSH1 0x24 DUP3 ADD MSTORE PUSH32 0x456E756D657261626C655365743A20696E646578206F7574206F6620626F756E PUSH1 0x44 DUP3 ADD MSTORE PUSH2 0x6473 PUSH1 0xF0 SHL PUSH1 0x64 DUP3 ADD MSTORE PUSH1 0x84 ADD PUSH2 0x873 JUMP JUMPDEST DUP3 PUSH1 0x0 ADD DUP3 DUP2 SLOAD DUP2 LT PUSH2 0x3204 JUMPI PUSH4 0x4E487B71 PUSH1 0xE0 SHL PUSH1 0x0 MSTORE PUSH1 0x32 PUSH1 0x4 MSTORE PUSH1 0x24 PUSH1 0x0 REVERT JUMPDEST SWAP1 PUSH1 0x0 MSTORE PUSH1 0x20 PUSH1 0x0 KECCAK256 ADD SLOAD SWAP1 POP SWAP3 SWAP2 POP POP JUMP JUMPDEST PUSH1 0x1 PUSH1 0x1 PUSH1 0xA0 SHL SUB DUP4 AND PUSH2 0x323D JUMPI PUSH1 0x40 MLOAD PUSH3 0x461BCD PUSH1 0xE5 SHL DUP2 MSTORE PUSH1 0x4 ADD PUSH2 0x873 SWAP1 PUSH2 0x3D3D JUMP JUMPDEST DUP1 MLOAD DUP3 MLOAD EQ PUSH2 0x325E JUMPI PUSH1 0x40 MLOAD PUSH3 0x461BCD PUSH1 0xE5 SHL DUP2 MSTORE PUSH1 0x4 ADD PUSH2 0x873 SWAP1 PUSH2 0x3DCA JUMP JUMPDEST PUSH1 0x40 DUP1 MLOAD PUSH1 0x20 DUP2 ADD SWAP1 SWAP2 MSTORE PUSH1 0x0 SWAP1 DUP2 SWAP1 MSTORE CALLER SWAP1 JUMPDEST DUP4 MLOAD DUP2 LT ISZERO PUSH2 0x338B JUMPI PUSH1 0x0 DUP5 DUP3 DUP2 MLOAD DUP2 LT PUSH2 0x329D JUMPI PUSH4 0x4E487B71 PUSH1 0xE0 SHL PUSH1 0x0 MSTORE PUSH1 0x32 PUSH1 0x4 MSTORE PUSH1 0x24 PUSH1 0x0 REVERT JUMPDEST PUSH1 0x20 MUL PUSH1 0x20 ADD ADD MLOAD SWAP1 POP PUSH1 0x0 DUP5 DUP4 DUP2 MLOAD DUP2 LT PUSH2 0x32C9 JUMPI PUSH4 0x4E487B71 PUSH1 0xE0 SHL PUSH1 0x0 MSTORE PUSH1 0x32 PUSH1 0x4 MSTORE PUSH1 0x24 PUSH1 0x0 REVERT JUMPDEST PUSH1 0x20 SWAP1 DUP2 MUL SWAP2 SWAP1 SWAP2 ADD DUP2 ADD MLOAD PUSH1 0x0 DUP5 DUP2 MSTORE PUSH1 0x1 DUP4 MSTORE PUSH1 0x40 DUP1 DUP3 KECCAK256 PUSH1 0x1 PUSH1 0x1 PUSH1 0xA0 SHL SUB DUP13 AND DUP4 MSTORE SWAP1 SWAP4 MSTORE SWAP2 DUP3 KECCAK256 SLOAD SWAP1 SWAP3 POP SWAP1 PUSH2 0x3304 DUP4 DUP4 PUSH2 0x3EBA JUMP JUMPDEST SWAP1 POP DUP3 DUP3 LT ISZERO PUSH2 0x3326 JUMPI PUSH1 0x40 MLOAD PUSH3 0x461BCD PUSH1 0xE5 SHL DUP2 MSTORE PUSH1 0x4 ADD PUSH2 0x873 SWAP1 PUSH2 0x3C31 JUMP JUMPDEST PUSH1 0x0 DUP5 DUP2 MSTORE PUSH1 0x1 PUSH1 0x20 SWAP1 DUP2 MSTORE PUSH1 0x40 DUP1 DUP4 KECCAK256 PUSH1 0x1 PUSH1 0x1 PUSH1 0xA0 SHL SUB DUP14 AND DUP5 MSTORE SWAP1 SWAP2 MSTORE SWAP1 KECCAK256 DUP2 SWAP1 SSTORE DUP1 PUSH2 0x3374 JUMPI PUSH1 0x1 PUSH1 0x1 PUSH1 0xA0 SHL SUB DUP10 AND PUSH1 0x0 SWAP1 DUP2 MSTORE PUSH1 0x20 DUP2 SWAP1 MSTORE PUSH1 0x40 SWAP1 KECCAK256 PUSH2 0x3372 SWAP1 DUP6 PUSH2 0x2030 JUMP JUMPDEST POP JUMPDEST POP POP POP POP DUP1 DUP1 PUSH2 0x3383 SWAP1 PUSH2 0x3F39 JUMP JUMPDEST SWAP2 POP POP PUSH2 0x3272 JUMP JUMPDEST POP PUSH1 0x0 PUSH1 0x1 PUSH1 0x1 PUSH1 0xA0 SHL SUB AND DUP5 PUSH1 0x1 PUSH1 0x1 PUSH1 0xA0 SHL SUB AND DUP3 PUSH1 0x1 PUSH1 0x1 PUSH1 0xA0 SHL SUB AND PUSH32 0x4A39DC06D4C0DBC64B70AF90FD698A233A518AA5D07E595D983B8C0526C8F7FB DUP7 DUP7 PUSH1 0x40 MLOAD PUSH2 0x33DC SWAP3 SWAP2 SWAP1 PUSH2 0x3BA8 JUMP JUMPDEST PUSH1 0x40 MLOAD DUP1 SWAP2 SUB SWAP1 LOG4 POP POP POP POP JUMP JUMPDEST DUP3 DUP1 SLOAD PUSH2 0x33F6 SWAP1 PUSH2 0x3ED1 JUMP JUMPDEST SWAP1 PUSH1 0x0 MSTORE PUSH1 0x20 PUSH1 0x0 KECCAK256 SWAP1 PUSH1 0x1F ADD PUSH1 0x20 SWAP1 DIV DUP2 ADD SWAP3 DUP3 PUSH2 0x3418 JUMPI PUSH1 0x0 DUP6 SSTORE PUSH2 0x345E JUMP JUMPDEST DUP3 PUSH1 0x1F LT PUSH2 0x3431 JUMPI DUP1 MLOAD PUSH1 0xFF NOT AND DUP4 DUP1 ADD OR DUP6 SSTORE PUSH2 0x345E JUMP JUMPDEST DUP3 DUP1 ADD PUSH1 0x1 ADD DUP6 SSTORE DUP3 ISZERO PUSH2 0x345E JUMPI SWAP2 DUP3 ADD JUMPDEST DUP3 DUP2 GT ISZERO PUSH2 0x345E JUMPI DUP3 MLOAD DUP3 SSTORE SWAP2 PUSH1 0x20 ADD SWAP2 SWAP1 PUSH1 0x1 ADD SWAP1 PUSH2 0x3443 JUMP JUMPDEST POP PUSH2 0x346A SWAP3 SWAP2 POP PUSH2 0x3514 JUMP JUMPDEST POP SWAP1 JUMP JUMPDEST DUP3 DUP1 SLOAD DUP3 DUP3 SSTORE SWAP1 PUSH1 0x0 MSTORE PUSH1 0x20 PUSH1 0x0 KECCAK256 SWAP1 PUSH1 0x7 ADD PUSH1 0x8 SWAP1 DIV DUP2 ADD SWAP3 DUP3 ISZERO PUSH2 0x345E JUMPI SWAP2 PUSH1 0x20 MUL DUP3 ADD PUSH1 0x0 JUMPDEST DUP4 DUP3 GT ISZERO PUSH2 0x34DB JUMPI DUP4 MLOAD DUP4 DUP3 PUSH2 0x100 EXP DUP2 SLOAD DUP2 PUSH4 0xFFFFFFFF MUL NOT AND SWAP1 DUP4 PUSH4 0xFFFFFFFF AND MUL OR SWAP1 SSTORE POP SWAP3 PUSH1 0x20 ADD SWAP3 PUSH1 0x4 ADD PUSH1 0x20 DUP2 PUSH1 0x3 ADD DIV SWAP3 DUP4 ADD SWAP3 PUSH1 0x1 SUB MUL PUSH2 0x3497 JUMP JUMPDEST DUP1 ISZERO PUSH2 0x350B JUMPI DUP3 DUP2 PUSH2 0x100 EXP DUP2 SLOAD SWAP1 PUSH4 0xFFFFFFFF MUL NOT AND SWAP1 SSTORE PUSH1 0x4 ADD PUSH1 0x20 DUP2 PUSH1 0x3 ADD DIV SWAP3 DUP4 ADD SWAP3 PUSH1 0x1 SUB MUL PUSH2 0x34DB JUMP JUMPDEST POP POP PUSH2 0x346A SWAP3 SWAP2 POP JUMPDEST JUMPDEST DUP1 DUP3 GT ISZERO PUSH2 0x346A JUMPI PUSH1 0x0 DUP2 SSTORE PUSH1 0x1 ADD PUSH2 0x3515 JUMP JUMPDEST PUSH1 0x0 PUSH8 0xFFFFFFFFFFFFFFFF DUP4 GT ISZERO PUSH2 0x3543 JUMPI PUSH2 0x3543 PUSH2 0x3F6A JUMP JUMPDEST PUSH1 0x40 MLOAD PUSH2 0x355A PUSH1 0x1F DUP6 ADD PUSH1 0x1F NOT AND PUSH1 0x20 ADD DUP3 PUSH2 0x3F0C JUMP JUMPDEST DUP1 SWAP2 POP DUP4 DUP2 MSTORE DUP5 DUP5 DUP5 ADD GT ISZERO PUSH2 0x356F JUMPI PUSH1 0x0 DUP1 REVERT JUMPDEST DUP4 DUP4 PUSH1 0x20 DUP4 ADD CALLDATACOPY PUSH1 0x0 PUSH1 0x20 DUP6 DUP4 ADD ADD MSTORE POP SWAP4 SWAP3 POP POP POP JUMP JUMPDEST DUP1 CALLDATALOAD PUSH1 0x1 PUSH1 0x1 PUSH1 0xA0 SHL SUB DUP2 AND DUP2 EQ PUSH2 0x8F6 JUMPI PUSH1 0x0 DUP1 REVERT JUMPDEST PUSH1 0x0 DUP3 PUSH1 0x1F DUP4 ADD SLT PUSH2 0x35AE JUMPI DUP1 DUP2 REVERT JUMPDEST DUP2 CALLDATALOAD PUSH1 0x20 PUSH2 0x35BB DUP3 PUSH2 0x3E12 JUMP JUMPDEST PUSH1 0x40 MLOAD PUSH2 0x35C8 DUP3 DUP3 PUSH2 0x3F0C JUMP JUMPDEST DUP4 DUP2 MSTORE DUP3 DUP2 ADD SWAP2 POP DUP6 DUP4 ADD PUSH1 0x5 DUP6 SWAP1 SHL DUP8 ADD DUP5 ADD DUP9 LT ISZERO PUSH2 0x35E7 JUMPI DUP6 DUP7 REVERT JUMPDEST DUP6 JUMPDEST DUP6 DUP2 LT ISZERO PUSH2 0x3605 JUMPI DUP2 CALLDATALOAD DUP5 MSTORE SWAP3 DUP5 ADD SWAP3 SWAP1 DUP5 ADD SWAP1 PUSH1 0x1 ADD PUSH2 0x35E9 JUMP JUMPDEST POP SWAP1 SWAP8 SWAP7 POP POP POP POP POP POP POP JUMP JUMPDEST PUSH1 0x0 DUP3 PUSH1 0x1F DUP4 ADD SLT PUSH2 0x3622 JUMPI DUP1 DUP2 REVERT JUMPDEST PUSH2 0xE88 DUP4 DUP4 CALLDATALOAD PUSH1 0x20 DUP6 ADD PUSH2 0x3529 JUMP JUMPDEST PUSH1 0x0 PUSH1 0x20 DUP3 DUP5 SUB SLT ISZERO PUSH2 0x3642 JUMPI DUP1 DUP2 REVERT JUMPDEST PUSH2 0xE88 DUP3 PUSH2 0x3587 JUMP JUMPDEST PUSH1 0x0 DUP1 PUSH1 0x40 DUP4 DUP6 SUB SLT ISZERO PUSH2 0x365D JUMPI DUP1 DUP2 REVERT JUMPDEST PUSH2 0x3666 DUP4 PUSH2 0x3587 JUMP JUMPDEST SWAP2 POP PUSH2 0x3674 PUSH1 0x20 DUP5 ADD PUSH2 0x3587 JUMP JUMPDEST SWAP1 POP SWAP3 POP SWAP3 SWAP1 POP JUMP JUMPDEST PUSH1 0x0 DUP1 PUSH1 0x0 DUP1 PUSH1 0x0 PUSH1 0xA0 DUP7 DUP9 SUB SLT ISZERO PUSH2 0x3694 JUMPI DUP1 DUP2 REVERT JUMPDEST PUSH2 0x369D DUP7 PUSH2 0x3587 JUMP JUMPDEST SWAP5 POP PUSH2 0x36AB PUSH1 0x20 DUP8 ADD PUSH2 0x3587 JUMP JUMPDEST SWAP4 POP PUSH1 0x40 DUP7 ADD CALLDATALOAD PUSH8 0xFFFFFFFFFFFFFFFF DUP1 DUP3 GT ISZERO PUSH2 0x36C7 JUMPI DUP3 DUP4 REVERT JUMPDEST PUSH2 0x36D3 DUP10 DUP4 DUP11 ADD PUSH2 0x359E JUMP JUMPDEST SWAP5 POP PUSH1 0x60 DUP9 ADD CALLDATALOAD SWAP2 POP DUP1 DUP3 GT ISZERO PUSH2 0x36E8 JUMPI DUP3 DUP4 REVERT JUMPDEST PUSH2 0x36F4 DUP10 DUP4 DUP11 ADD PUSH2 0x359E JUMP JUMPDEST SWAP4 POP PUSH1 0x80 DUP9 ADD CALLDATALOAD SWAP2 POP DUP1 DUP3 GT ISZERO PUSH2 0x3709 JUMPI DUP3 DUP4 REVERT JUMPDEST POP PUSH2 0x3716 DUP9 DUP3 DUP10 ADD PUSH2 0x3612 JUMP JUMPDEST SWAP2 POP POP SWAP3 SWAP6 POP SWAP3 SWAP6 SWAP1 SWAP4 POP JUMP JUMPDEST PUSH1 0x0 DUP1 PUSH1 0x0 DUP1 PUSH1 0x0 PUSH1 0xA0 DUP7 DUP9 SUB SLT ISZERO PUSH2 0x373A JUMPI DUP1 DUP2 REVERT JUMPDEST PUSH2 0x3743 DUP7 PUSH2 0x3587 JUMP JUMPDEST SWAP5 POP PUSH2 0x3751 PUSH1 0x20 DUP8 ADD PUSH2 0x3587 JUMP JUMPDEST SWAP4 POP PUSH1 0x40 DUP7 ADD CALLDATALOAD SWAP3 POP PUSH1 0x60 DUP7 ADD CALLDATALOAD SWAP2 POP PUSH1 0x80 DUP7 ADD CALLDATALOAD PUSH8 0xFFFFFFFFFFFFFFFF DUP2 GT ISZERO PUSH2 0x377A JUMPI DUP2 DUP3 REVERT JUMPDEST PUSH2 0x3716 DUP9 DUP3 DUP10 ADD PUSH2 0x3612 JUMP JUMPDEST PUSH1 0x0 DUP1 PUSH1 0x40 DUP4 DUP6 SUB SLT ISZERO PUSH2 0x3798 JUMPI DUP2 DUP3 REVERT JUMPDEST PUSH2 0x37A1 DUP4 PUSH2 0x3587 JUMP JUMPDEST SWAP2 POP PUSH1 0x20 DUP4 ADD CALLDATALOAD DUP1 ISZERO ISZERO DUP2 EQ PUSH2 0x37B5 JUMPI DUP2 DUP3 REVERT JUMPDEST DUP1 SWAP2 POP POP SWAP3 POP SWAP3 SWAP1 POP JUMP JUMPDEST PUSH1 0x0 DUP1 PUSH1 0x40 DUP4 DUP6 SUB SLT ISZERO PUSH2 0x37D2 JUMPI DUP1 DUP2 REVERT JUMPDEST PUSH2 0x37DB DUP4 PUSH2 0x3587 JUMP JUMPDEST SWAP5 PUSH1 0x20 SWAP4 SWAP1 SWAP4 ADD CALLDATALOAD SWAP4 POP POP POP JUMP JUMPDEST PUSH1 0x0 DUP1 PUSH1 0x40 DUP4 DUP6 SUB SLT ISZERO PUSH2 0x37FB JUMPI DUP2 DUP3 REVERT JUMPDEST DUP3 CALLDATALOAD PUSH8 0xFFFFFFFFFFFFFFFF DUP1 DUP3 GT ISZERO PUSH2 0x3812 JUMPI DUP4 DUP5 REVERT JUMPDEST DUP2 DUP6 ADD SWAP2 POP DUP6 PUSH1 0x1F DUP4 ADD SLT PUSH2 0x3825 JUMPI DUP4 DUP5 REVERT JUMPDEST DUP2 CALLDATALOAD PUSH1 0x20 PUSH2 0x3832 DUP3 PUSH2 0x3E12 JUMP JUMPDEST PUSH1 0x40 MLOAD PUSH2 0x383F DUP3 DUP3 PUSH2 0x3F0C JUMP JUMPDEST DUP4 DUP2 MSTORE DUP3 DUP2 ADD SWAP2 POP DUP6 DUP4 ADD PUSH1 0x5 DUP6 SWAP1 SHL DUP8 ADD DUP5 ADD DUP12 LT ISZERO PUSH2 0x385E JUMPI DUP9 DUP10 REVERT JUMPDEST DUP9 SWAP7 POP JUMPDEST DUP5 DUP8 LT ISZERO PUSH2 0x3887 JUMPI PUSH2 0x3873 DUP2 PUSH2 0x3587 JUMP JUMPDEST DUP4 MSTORE PUSH1 0x1 SWAP7 SWAP1 SWAP7 ADD SWAP6 SWAP2 DUP4 ADD SWAP2 DUP4 ADD PUSH2 0x3862 JUMP JUMPDEST POP SWAP7 POP POP DUP7 ADD CALLDATALOAD SWAP3 POP POP DUP1 DUP3 GT ISZERO PUSH2 0x389D JUMPI DUP3 DUP4 REVERT JUMPDEST POP PUSH2 0x38AA DUP6 DUP3 DUP7 ADD PUSH2 0x359E JUMP JUMPDEST SWAP2 POP POP SWAP3 POP SWAP3 SWAP1 POP JUMP JUMPDEST PUSH1 0x0 PUSH1 0x20 DUP3 DUP5 SUB SLT ISZERO PUSH2 0x38C5 JUMPI DUP1 DUP2 REVERT JUMPDEST DUP2 CALLDATALOAD PUSH2 0xE88 DUP2 PUSH2 0x4029 JUMP JUMPDEST PUSH1 0x0 PUSH1 0x20 DUP3 DUP5 SUB SLT ISZERO PUSH2 0x38E1 JUMPI DUP1 DUP2 REVERT JUMPDEST DUP2 MLOAD PUSH2 0xE88 DUP2 PUSH2 0x4029 JUMP JUMPDEST PUSH1 0x0 DUP1 PUSH1 0x0 DUP1 PUSH1 0x80 DUP6 DUP8 SUB SLT ISZERO PUSH2 0x3901 JUMPI DUP2 DUP3 REVERT JUMPDEST DUP5 CALLDATALOAD PUSH8 0xFFFFFFFFFFFFFFFF DUP1 DUP3 GT ISZERO PUSH2 0x3918 JUMPI DUP4 DUP5 REVERT JUMPDEST DUP2 DUP8 ADD SWAP2 POP DUP8 PUSH1 0x1F DUP4 ADD SLT PUSH2 0x392B JUMPI DUP4 DUP5 REVERT JUMPDEST PUSH1 0x20 PUSH2 0x393B DUP10 DUP5 CALLDATALOAD DUP4 DUP7 ADD PUSH2 0x3529 JUMP JUMPDEST SWAP7 POP DUP1 DUP9 ADD CALLDATALOAD SWAP6 POP PUSH1 0x40 DUP9 ADD CALLDATALOAD SWAP3 POP DUP2 DUP4 GT ISZERO PUSH2 0x3956 JUMPI DUP5 DUP6 REVERT JUMPDEST DUP3 DUP9 ADD SWAP3 POP DUP9 PUSH1 0x1F DUP5 ADD SLT PUSH2 0x3969 JUMPI DUP5 DUP6 REVERT JUMPDEST DUP3 CALLDATALOAD PUSH2 0x3974 DUP2 PUSH2 0x3E12 JUMP JUMPDEST PUSH1 0x40 MLOAD PUSH2 0x3981 DUP3 DUP3 PUSH2 0x3F0C JUMP JUMPDEST DUP3 DUP2 MSTORE DUP4 DUP2 ADD SWAP2 POP DUP6 DUP5 ADD PUSH1 0x5 DUP5 SWAP1 SHL DUP8 ADD DUP6 ADD DUP14 LT ISZERO PUSH2 0x39A0 JUMPI DUP9 DUP10 REVERT JUMPDEST DUP9 SWAP7 POP JUMPDEST DUP4 DUP8 LT ISZERO PUSH2 0x39D3 JUMPI DUP1 CALLDATALOAD PUSH4 0xFFFFFFFF DUP2 AND DUP2 EQ PUSH2 0x39BF JUMPI DUP10 DUP11 REVERT JUMPDEST DUP4 MSTORE PUSH1 0x1 SWAP7 SWAP1 SWAP7 ADD SWAP6 SWAP2 DUP5 ADD SWAP2 DUP5 ADD PUSH2 0x39A4 JUMP JUMPDEST POP SWAP7 POP POP POP POP PUSH1 0x60 DUP8 ADD CALLDATALOAD SWAP2 POP DUP1 DUP3 GT ISZERO PUSH2 0x39EC JUMPI DUP3 DUP4 REVERT JUMPDEST POP PUSH2 0x39F9 DUP8 DUP3 DUP9 ADD PUSH2 0x359E JUMP JUMPDEST SWAP2 POP POP SWAP3 SWAP6 SWAP2 SWAP5 POP SWAP3 POP JUMP JUMPDEST PUSH1 0x0 PUSH1 0x20 DUP3 DUP5 SUB SLT ISZERO PUSH2 0x3A16 JUMPI DUP1 DUP2 REVERT JUMPDEST POP CALLDATALOAD SWAP2 SWAP1 POP JUMP JUMPDEST PUSH1 0x0 DUP1 PUSH1 0x40 DUP4 DUP6 SUB SLT ISZERO PUSH2 0x3A2F JUMPI DUP2 DUP3 REVERT JUMPDEST DUP3 CALLDATALOAD SWAP2 POP PUSH1 0x20 DUP4 ADD CALLDATALOAD PUSH8 0xFFFFFFFFFFFFFFFF DUP2 GT ISZERO PUSH2 0x3A4C JUMPI DUP2 DUP3 REVERT JUMPDEST PUSH2 0x38AA DUP6 DUP3 DUP7 ADD PUSH2 0x359E JUMP JUMPDEST PUSH1 0x0 DUP1 PUSH1 0x40 DUP4 DUP6 SUB SLT ISZERO PUSH2 0x3A6A JUMPI DUP2 DUP3 REVERT JUMPDEST POP POP DUP1 CALLDATALOAD SWAP3 PUSH1 0x20 SWAP1 SWAP2 ADD CALLDATALOAD SWAP2 POP JUMP JUMPDEST PUSH1 0x0 DUP2 MLOAD DUP1 DUP5 MSTORE PUSH1 0x20 DUP1 DUP6 ADD SWAP5 POP DUP1 DUP5 ADD DUP4 JUMPDEST DUP4 DUP2 LT ISZERO PUSH2 0x3AA8 JUMPI DUP2 MLOAD DUP8 MSTORE SWAP6 DUP3 ADD SWAP6 SWAP1 DUP3 ADD SWAP1 PUSH1 0x1 ADD PUSH2 0x3A8C JUMP JUMPDEST POP SWAP5 SWAP6 SWAP5 POP POP POP POP POP JUMP JUMPDEST PUSH1 0x0 DUP2 MLOAD DUP1 DUP5 MSTORE DUP2 JUMPDEST DUP2 DUP2 LT ISZERO PUSH2 0x3AD8 JUMPI PUSH1 0x20 DUP2 DUP6 ADD DUP2 ADD MLOAD DUP7 DUP4 ADD DUP3 ADD MSTORE ADD PUSH2 0x3ABC JUMP JUMPDEST DUP2 DUP2 GT ISZERO PUSH2 0x3AE9 JUMPI DUP3 PUSH1 0x20 DUP4 DUP8 ADD ADD MSTORE JUMPDEST POP PUSH1 0x1F ADD PUSH1 0x1F NOT AND SWAP3 SWAP1 SWAP3 ADD PUSH1 0x20 ADD SWAP3 SWAP2 POP POP JUMP JUMPDEST PUSH1 0x1 PUSH1 0x1 PUSH1 0xA0 SHL SUB DUP7 DUP2 AND DUP3 MSTORE DUP6 AND PUSH1 0x20 DUP3 ADD MSTORE PUSH1 0xA0 PUSH1 0x40 DUP3 ADD DUP2 SWAP1 MSTORE PUSH1 0x0 SWAP1 PUSH2 0x3B2A SWAP1 DUP4 ADD DUP7 PUSH2 0x3A79 JUMP JUMPDEST DUP3 DUP2 SUB PUSH1 0x60 DUP5 ADD MSTORE PUSH2 0x3B3C DUP2 DUP7 PUSH2 0x3A79 JUMP JUMPDEST SWAP1 POP DUP3 DUP2 SUB PUSH1 0x80 DUP5 ADD MSTORE PUSH2 0x1983 DUP2 DUP6 PUSH2 0x3AB3 JUMP JUMPDEST PUSH1 0x1 PUSH1 0x1 PUSH1 0xA0 SHL SUB DUP7 DUP2 AND DUP3 MSTORE DUP6 AND PUSH1 0x20 DUP3 ADD MSTORE PUSH1 0x40 DUP2 ADD DUP5 SWAP1 MSTORE PUSH1 0x60 DUP2 ADD DUP4 SWAP1 MSTORE PUSH1 0xA0 PUSH1 0x80 DUP3 ADD DUP2 SWAP1 MSTORE PUSH1 0x0 SWAP1 PUSH2 0x3B8A SWAP1 DUP4 ADD DUP5 PUSH2 0x3AB3 JUMP JUMPDEST SWAP8 SWAP7 POP POP POP POP POP POP POP JUMP JUMPDEST PUSH1 0x0 PUSH1 0x20 DUP3 MSTORE PUSH2 0xE88 PUSH1 0x20 DUP4 ADD DUP5 PUSH2 0x3A79 JUMP JUMPDEST PUSH1 0x0 PUSH1 0x40 DUP3 MSTORE PUSH2 0x3BBB PUSH1 0x40 DUP4 ADD DUP6 PUSH2 0x3A79 JUMP JUMPDEST DUP3 DUP2 SUB PUSH1 0x20 DUP5 ADD MSTORE PUSH2 0x3BCD DUP2 DUP6 PUSH2 0x3A79 JUMP JUMPDEST SWAP6 SWAP5 POP POP POP POP POP JUMP JUMPDEST PUSH1 0x0 PUSH1 0x20 DUP3 MSTORE PUSH2 0xE88 PUSH1 0x20 DUP4 ADD DUP5 PUSH2 0x3AB3 JUMP JUMPDEST PUSH1 0x20 DUP1 DUP3 MSTORE PUSH1 0x28 SWAP1 DUP3 ADD MSTORE PUSH32 0x455243313135353A204552433131353552656365697665722072656A65637465 PUSH1 0x40 DUP3 ADD MSTORE PUSH8 0x6420746F6B656E73 PUSH1 0xC0 SHL PUSH1 0x60 DUP3 ADD MSTORE PUSH1 0x80 ADD SWAP1 JUMP JUMPDEST PUSH1 0x20 DUP1 DUP3 MSTORE PUSH1 0x24 SWAP1 DUP3 ADD MSTORE PUSH32 0x455243313135353A206275726E20616D6F756E7420657863656564732062616C PUSH1 0x40 DUP3 ADD MSTORE PUSH4 0x616E6365 PUSH1 0xE0 SHL PUSH1 0x60 DUP3 ADD MSTORE PUSH1 0x80 ADD SWAP1 JUMP JUMPDEST PUSH1 0x20 DUP1 DUP3 MSTORE PUSH1 0x57 SWAP1 DUP3 ADD MSTORE PUSH32 0x54686973204964206E756D626572206973206E6F74206173736F636961746564 PUSH1 0x40 DUP3 ADD MSTORE PUSH32 0x2077697468206F6E65206F6620796F75722073746172746572732C20706C6561 PUSH1 0x60 DUP3 ADD MSTORE PUSH32 0x736520747279207769746820612076616C69642069642E000000000000000000 PUSH1 0x80 DUP3 ADD MSTORE PUSH1 0xA0 ADD SWAP1 JUMP JUMPDEST PUSH1 0x20 DUP1 DUP3 MSTORE PUSH1 0x25 SWAP1 DUP3 ADD MSTORE PUSH32 0x455243313135353A207472616E7366657220746F20746865207A65726F206164 PUSH1 0x40 DUP3 ADD MSTORE PUSH5 0x6472657373 PUSH1 0xD8 SHL PUSH1 0x60 DUP3 ADD MSTORE PUSH1 0x80 ADD SWAP1 JUMP JUMPDEST PUSH1 0x20 DUP1 DUP3 MSTORE PUSH1 0x23 SWAP1 DUP3 ADD MSTORE PUSH32 0x455243313135353A206275726E2066726F6D20746865207A65726F2061646472 PUSH1 0x40 DUP3 ADD MSTORE PUSH3 0x657373 PUSH1 0xE8 SHL PUSH1 0x60 DUP3 ADD MSTORE PUSH1 0x80 ADD SWAP1 JUMP JUMPDEST PUSH1 0x20 DUP1 DUP3 MSTORE PUSH1 0x2A SWAP1 DUP3 ADD MSTORE PUSH32 0x455243313135353A20696E73756666696369656E742062616C616E636520666F PUSH1 0x40 DUP3 ADD MSTORE PUSH10 0x39103A3930B739B332B9 PUSH1 0xB1 SHL PUSH1 0x60 DUP3 ADD MSTORE PUSH1 0x80 ADD SWAP1 JUMP JUMPDEST PUSH1 0x20 DUP1 DUP3 MSTORE PUSH1 0x28 SWAP1 DUP3 ADD MSTORE PUSH32 0x455243313135353A2069647320616E6420616D6F756E7473206C656E67746820 PUSH1 0x40 DUP3 ADD MSTORE PUSH8 0xDAD2E6DAC2E8C6D PUSH1 0xC3 SHL PUSH1 0x60 DUP3 ADD MSTORE PUSH1 0x80 ADD SWAP1 JUMP JUMPDEST PUSH1 0x0 PUSH8 0xFFFFFFFFFFFFFFFF DUP3 GT ISZERO PUSH2 0x3E2C JUMPI PUSH2 0x3E2C PUSH2 0x3F6A JUMP JUMPDEST POP PUSH1 0x5 SHL PUSH1 0x20 ADD SWAP1 JUMP JUMPDEST PUSH1 0x0 DUP3 NOT DUP3 GT ISZERO PUSH2 0x3E49 JUMPI PUSH2 0x3E49 PUSH2 0x3F54 JUMP JUMPDEST POP ADD SWAP1 JUMP JUMPDEST PUSH1 0x0 PUSH4 0xFFFFFFFF DUP1 DUP4 AND DUP2 DUP6 AND DUP1 DUP4 SUB DUP3 GT ISZERO PUSH2 0x3E6D JUMPI PUSH2 0x3E6D PUSH2 0x3F54 JUMP JUMPDEST ADD SWAP5 SWAP4 POP POP POP POP JUMP JUMPDEST PUSH1 0x0 PUSH1 0xFF DUP3 AND PUSH1 0xFF DUP5 AND DUP1 PUSH1 0xFF SUB DUP3 GT ISZERO PUSH2 0x3E93 JUMPI PUSH2 0x3E93 PUSH2 0x3F54 JUMP JUMPDEST ADD SWAP4 SWAP3 POP POP POP JUMP JUMPDEST PUSH1 0x0 DUP2 PUSH1 0x0 NOT DIV DUP4 GT DUP3 ISZERO ISZERO AND ISZERO PUSH2 0x3EB5 JUMPI PUSH2 0x3EB5 PUSH2 0x3F54 JUMP JUMPDEST POP MUL SWAP1 JUMP JUMPDEST PUSH1 0x0 DUP3 DUP3 LT ISZERO PUSH2 0x3ECC JUMPI PUSH2 0x3ECC PUSH2 0x3F54 JUMP JUMPDEST POP SUB SWAP1 JUMP JUMPDEST PUSH1 0x1 DUP2 DUP2 SHR SWAP1 DUP3 AND DUP1 PUSH2 0x3EE5 JUMPI PUSH1 0x7F DUP3 AND SWAP2 POP JUMPDEST PUSH1 0x20 DUP3 LT DUP2 EQ ISZERO PUSH2 0x3F06 JUMPI PUSH4 0x4E487B71 PUSH1 0xE0 SHL PUSH1 0x0 MSTORE PUSH1 0x22 PUSH1 0x4 MSTORE PUSH1 0x24 PUSH1 0x0 REVERT JUMPDEST POP SWAP2 SWAP1 POP JUMP JUMPDEST PUSH1 0x1F DUP3 ADD PUSH1 0x1F NOT AND DUP2 ADD PUSH8 0xFFFFFFFFFFFFFFFF DUP2 GT DUP3 DUP3 LT OR ISZERO PUSH2 0x3F32 JUMPI PUSH2 0x3F32 PUSH2 0x3F6A JUMP JUMPDEST PUSH1 0x40 MSTORE POP POP JUMP JUMPDEST PUSH1 0x0 PUSH1 0x0 NOT DUP3 EQ ISZERO PUSH2 0x3F4D JUMPI PUSH2 0x3F4D PUSH2 0x3F54 JUMP JUMPDEST POP PUSH1 0x1 ADD SWAP1 JUMP JUMPDEST PUSH4 0x4E487B71 PUSH1 0xE0 SHL PUSH1 0x0 MSTORE PUSH1 0x11 PUSH1 0x4 MSTORE PUSH1 0x24 PUSH1 0x0 REVERT JUMPDEST PUSH4 0x4E487B71 PUSH1 0xE0 SHL PUSH1 0x0 MSTORE PUSH1 0x41 PUSH1 0x4 MSTORE PUSH1 0x24 PUSH1 0x0 REVERT JUMPDEST PUSH1 0x0 PUSH1 0x3 RETURNDATASIZE GT ISZERO PUSH2 0xA9D JUMPI PUSH1 0x4 DUP2 DUP3 RETURNDATACOPY MLOAD PUSH1 0xE0 SHR SWAP1 JUMP JUMPDEST PUSH1 0x0 PUSH1 0x44 RETURNDATASIZE LT ISZERO PUSH2 0x3FA7 JUMPI PUSH2 0xA9D JUMP JUMPDEST PUSH1 0x40 MLOAD PUSH1 0x3 NOT RETURNDATASIZE DUP2 ADD PUSH1 0x4 DUP4 RETURNDATACOPY DUP2 MLOAD RETURNDATASIZE PUSH8 0xFFFFFFFFFFFFFFFF DUP2 PUSH1 0x24 DUP5 ADD GT DUP2 DUP5 GT OR ISZERO PUSH2 0x3FD9 JUMPI POP POP POP POP POP PUSH2 0xA9D JUMP JUMPDEST DUP3 DUP6 ADD SWAP2 POP DUP2 MLOAD DUP2 DUP2 GT ISZERO PUSH2 0x3FF3 JUMPI POP POP POP POP POP POP PUSH2 0xA9D JUMP JUMPDEST DUP5 RETURNDATASIZE DUP8 ADD ADD PUSH1 0x20 DUP3 DUP6 ADD ADD GT ISZERO PUSH2 0x400F JUMPI POP POP POP POP POP POP PUSH2 0xA9D JUMP JUMPDEST PUSH2 0x401E PUSH1 0x20 DUP3 DUP7 ADD ADD DUP8 PUSH2 0x3F0C JUMP JUMPDEST POP SWAP1 SWAP5 POP POP POP POP POP SWAP1 JUMP JUMPDEST PUSH1 0x1 PUSH1 0x1 PUSH1 0xE0 SHL SUB NOT DUP2 AND DUP2 EQ PUSH2 0x403F JUMPI PUSH1 0x0 DUP1 REVERT JUMPDEST POP JUMP INVALID LOG2 PUSH5 0x6970667358 0x22 SLT KECCAK256 0xFC ADDRESS INVALID DUP11 GASPRICE DIV MULMOD SWAP8 0x24 RETURNDATASIZE 0xEA PUSH26 0xD6722DBE89E0A2A9170619EFC34368D079E4CF0064736F6C6343 STOP ADDMOD SUB STOP CALLER ",
  "sha1": "49835c68fc3a06561df6f27fe951c9cc2c148690",
  "source": "pragma solidity ^0.8.0;\n\nimport \"./openzeppelin-contracts/contracts/token/ERC1155/ERC1155.sol\";\nimport \"./openzeppelin-contracts/contracts/utils/structs/EnumerableSet.sol\";\n  \n\ncontract Cafe is ERC1155 {\n\n    using EnumerableSet for EnumerableSet.UintSet;\n    \n    \n    constructor (string memory uri_, uint32 _timescale, uint256 _createCost, uint256 _feedCost, uint256 _grindReward) public ERC1155(uri_) {\n        _setURI(uri_);\n        timescale = _timescale;\n        devAddress=msg.sender;\n        createCost = _createCost;\n        feedCost = _feedCost;\n        grindReward = _grindReward;\n    }\n    /** @dev These are the constructor parameters.  Create/feed Costs are the flour required to create and feed starters.  \n    Timescale represents the timescale at which starters die, feed reset time, and  grindFlour cooldown\n    grindReward is the reward for grinding flour\n     */\n    uint256 public createCost;\n    uint256 public feedCost;\n    uint32 public timescale;\n    uint256 public grindReward;\n\n\n    /** @dev Sourdough Struct represents the living sourdough starters\n    _timeOfDeath is the Unix timestamp at which the starter 'dies' and becomes unavailable for use in baking\n    _childCount describes the number of times the starter has been split\n    _creationTime shows when the starter was born! \n    _creator is the person who made the starter\n     */\n\n    struct Sourdough{\n        uint32 _timeOfDeath;\n        uint8 _childCount;\n        uint32 _creationTime;\n        address _creator;\n        bool _beingAutoFed;\n        uint32 _splitCooldown;\n        }\n\n/** @dev Recipe struct represents baked items.  \n_name is the name..must be unique\n_flourRequired is burned when baking the recipe\n_ages is an array of the ages of the required starter ingredients*/\n    struct Recipe{\n        string _name;\n        uint256 _flourRequired;\n        uint32[] _ages;\n        address _creator;\n        uint256 _timesBaked;\n        uint256 _numberEaten;\n        uint32 _score;\n        \n    }\n/** @dev flourId denotes the id of the fungible FLOUR token\ndividerIndex separates fully-non-fungible starter ingredients and semi-fungible baked goods\nflourId is the index of the fungible flour asset\ngrindCooldown determine whether or not an address can grind flour\n */\n    address public devAddress = address(this);\n    uint256 flourId = 0;\n    uint256 dividerIndex = 57896044618658097711785492504343953926634992332820282019728792003956564819968;\n    mapping (uint256 => Sourdough) Sourdoughs;\n    mapping(address => uint32) grindCooldown;\n\n    mapping(uint256 => Recipe) BakedGoods;\n    mapping(address =>  EnumerableSet.UintSet) private _ownerRecipes;\n    mapping(address => uint256) totalScore;\n    mapping(address => bool) isAutoFeeding;\n\n/** @dev highscores here */\n    uint32[11] public starterHighScoreAges;\n    uint256[11] public starterHighScore;\n    uint256[11] public recipeHighScore;\n    address[11] public playerHighScore;\n\n   \n   \n   \n/** @dev total stats\n */ \n    uint256 public flourSupply = 0;\n    uint256 public startersCreated = 0;\n    uint256 public itemsBaked = 0;\n    uint256 public recipesPublished = 0;\n\n/** @dev Credits the user FLOUR every 24 hours if submitted\n */\n    function grindFlour() public {\n       \n        require(grindCooldown[msg.sender]<block.timestamp,\"You did this already today!\");\n        _mint(msg.sender,flourId, grindReward, \"\");\n        flourSupply += grindReward;\n        grindCooldown[msg.sender] = uint32(block.timestamp + timescale);\n    }\n\n/** @dev Internally used to get rid of flour tokens */\n    function _burnFlour(address account, uint256 amount) internal {\n        require(balanceOf(msg.sender,flourId)>=amount);\n        _burn(account,flourId,amount);\n        flourSupply -= amount;\n    }\n\n/** @dev Makes a new nonfungible starter with age attributes by burning 50 FLOUR */\n    function createStarter() public returns (bool) {\n        _burnFlour(msg.sender,  createCost);  \n        uint256 tokenId = startersCreated +1; \n        _mint(msg.sender, 0+tokenId, 1,\"\");\n        Sourdough memory sourdough = Sourdough(uint32(block.timestamp + timescale),0,uint32(block.timestamp),msg.sender,false,uint32(block.timestamp));\n        \n        startersCreated+=1;\n        Sourdoughs[tokenId] = sourdough;\n        return true;\n    \n    }\n/** @dev Burns 50 FLOUR and resets the time of death for your token*/\n    function feedStarter(uint256 tokenId) public returns (bool) {\n        require(balanceOf(msg.sender,tokenId) == 1 , \"This Id number is not associated with one of your starters, please try with a valid id.\");\n        require(Sourdoughs[tokenId]._timeOfDeath >= block.timestamp, \"Your starter is dead!  You should have fed it sooner :( .\");\n        _burnFlour(msg.sender, feedCost);\n        Sourdoughs[tokenId]._timeOfDeath = uint32(block.timestamp + timescale);\n        if(Sourdoughs[tokenId]._beingAutoFed){\n            Sourdoughs[tokenId]._beingAutoFed==false;\n        }\n        _updateStarterScore(tokenId);\n\n        return true;\n    }\n\n/** @dev Feeds and duplicates your starter, returning another with identical age - costs 100 FLOUR */\n    function splitStarter(uint256 tokenId) public returns (bool) { \n        require(balanceOf(msg.sender,tokenId)==1, \"This Id number is not associated with one of your starters, please try with a valid id.\");\n        require(Sourdoughs[tokenId]._splitCooldown <= block.timestamp,\"You have split the starter already today! Wait til' tomorrow\");\n        feedStarter(tokenId);\n        feedStarter(tokenId);\n        createStarter();\n        Sourdoughs[startersCreated]._creationTime = Sourdoughs[tokenId]._creationTime;\n        Sourdoughs[startersCreated]._splitCooldown = uint32(block.timestamp + 1 days);\n        Sourdoughs[tokenId]._childCount+=1;\n        Sourdoughs[tokenId]._splitCooldown =uint32(block.timestamp + 1 days);\n        return true;\n\n    }\n/** @dev Internal. Takes a recipe struct and a batch of ingredients by id number.  Burns the ingredients and FLOUR required, then mints a semi-fungible item to the owner\nwith the Id of the recipe */\n    function _bakeRecipe(Recipe memory recipe, uint256[] memory starterBatch) internal returns (bool) {\n        require(balanceOf(msg.sender, flourId)>= recipe._flourRequired,\"You don't have enough FLOUR to bake that!!\");\n        uint length = recipe._ages.length;\n        uint[] memory amounts = new uint[](length);\n        require(recipe._ages.length == starterBatch.length,\"You haven't added the right number of starters to the batch!\");\n        for(uint i=0;i<recipe._ages.length;i++){\n            uint32 starterAge = uint32(block.timestamp-Sourdoughs[starterBatch[i]]._creationTime);\n            require(starterAge > recipe._ages[i], \"Your starters are not old enough, please use the starters required by this recipe\");  \n            require(Sourdoughs[starterBatch[i]]._timeOfDeath >= block.timestamp, \"Your starters are not all alive, you must use a living ingredient!!\");\n            require(balanceOf(msg.sender,starterBatch[i])==1, \"This Id number is not associated with one of your starters, please try with a valid id.\");\n            amounts[i] = 1;\n        }\n        _burnBatch(msg.sender, starterBatch, amounts); \n        _burnFlour(msg.sender,recipe._flourRequired);\n        return true;\n    }\n/** @dev Bakes and publishes a recipe that does not yet exist */\n    function publishNewRecipe(string memory name, uint256 flourRequired, uint32[] memory ages, uint256[] memory starterBatch) public returns (uint256) {\n        require(ages.length <=10, \"You can only have up to 10 ingredients!\");\n        Recipe memory recipe = Recipe(name,flourRequired, ages,msg.sender,0,0,0);\n        _bakeRecipe(recipe,starterBatch);\n\n        uint32[] memory ages = recipe._ages;\n        uint32 total;\n        for(uint i=0;i<ages.length;i++){\n            total+=ages[i];\n        }\n        recipe._score = total;\n\n        recipe._timesBaked+=1;\n        itemsBaked+=1;\n        recipesPublished+=1;\n        uint256 recipeId = dividerIndex + recipesPublished;\n        BakedGoods[recipesPublished] = recipe;\n        _ownerRecipes[msg.sender].add(recipesPublished);\n        _updateRecipeScore(recipesPublished);\n        _mint(msg.sender,recipeId,1,\"\");\n        return recipeId;\n\n\n    }\n/** @dev Takes the id of an existing recipe and a batch of ingredients.  Burns the batch and the required flour, mints an item with the recipe Id */\n    function bakeExistingRecipe(uint256 recipeId, uint256[] memory starterBatch) public returns (bool) {\n        Recipe memory recipe = BakedGoods[recipeId];\n        _bakeRecipe(recipe,starterBatch);\n\n        BakedGoods[recipeId]._timesBaked+=1;\n        \n        itemsBaked+=1;\n        _updateRecipeScore(recipeId);\n        _mint(msg.sender,recipeId+dividerIndex,1,\"\");\n        return true;\n    }\n/** @dev Burns an item, credits the player with a score equivalent to the total age of all ingredients */\n    function eatBakedGood(uint256 recipeId, uint256 amount) public returns (bool){\n        require(balanceOf(msg.sender,dividerIndex + recipeId)>=amount, \"You don't have that many of those to eat!\");\n        \n        uint32 total = BakedGoods[recipeId]._score;\n       \n        uint256 index = recipeId + dividerIndex;\n        _burn(msg.sender,index,amount);\n        BakedGoods[recipeId]._numberEaten+=1;\n        totalScore[msg.sender]+= uint256(total)*amount;\n        _updatePlayerScore(msg.sender);\n\n        \n    }\n\n\n\n    function autoFeed(uint feedingTimes,uint256 starterId) public returns (bool) {\n        require(balanceOf(msg.sender,starterId)==1, \"This Id number is not associated with one of your starters, please try with a valid id.\");\n        uint256 cost = feedingTimes*feedCost;\n        uint256 devFee = feedingTimes*feedCost;\n        _burnFlour(msg.sender, cost);\n        safeTransferFrom(msg.sender,devAddress,flourId,devFee,\"\");\n        isAutoFeeding[msg.sender]=true;\n        Sourdoughs[starterId]._timeOfDeath =  uint32(block.timestamp + feedingTimes* timescale);\n        Sourdoughs[starterId]._beingAutoFed = true;\n        return true;\n    }\n\n\n    function stopAutoFeed(uint256 starterId) public returns(bool) {\n        require(Sourdoughs[starterId]._beingAutoFed ==true);\n        Sourdoughs[starterId]._timeOfDeath = uint32(block.timestamp + timescale);\n        Sourdoughs[starterId]._beingAutoFed = false;\n    }\n    \n\n    \n\n    function _updateStarterScore(uint256 _starterId) internal {\n        uint index = 0;\n        bool isOnList = false;\n        while(index<10){\n            if(starterHighScore[index]==_starterId){\n                isOnList=true;\n                break;\n            }\n            index=index+1;\n        }\n\n        if(isOnList){\n            while(index<10){\n                starterHighScore[index]=starterHighScore[index+1];\n                starterHighScoreAges[index]=starterHighScoreAges[index+1];\n                index=index+1;\n            }\n        }\n        index =0;\n        uint32 toBeat = starterHighScoreAges[index];\n        uint32 score = uint32( block.timestamp - Sourdoughs[_starterId]._creationTime );\n        while(score <= toBeat){\n            index=index+1;\n            if(index>10){\n                break;\n            }else{\n                toBeat = starterHighScoreAges[index];\n            }\n        }\n\n        if(index<10){\n            uint index2 =9;\n            while(index2>=index){\n                starterHighScore[index2+1] = starterHighScore[index2];\n                starterHighScoreAges[index2+1]=starterHighScoreAges[index2];\n                if(index2!=0){\n                index2=index2-1;}\n                else{\n                    break;\n                }\n            }\n            starterHighScore[index]= _starterId;\n            starterHighScoreAges[index]=score;\n        }\n    }\n    \n\n\n\n\n\n\n    function _updateRecipeScore(uint256 _recipeId) internal {\n        uint index = 0;\n        bool isOnList = false;\n        while(index<10){\n            if(recipeHighScore[index]==_recipeId){\n                isOnList=true;\n                break;\n            }\n            index=index+1;\n        }\n\n        if(isOnList){\n            while(index<10){\n                recipeHighScore[index]=recipeHighScore[index+1];\n                index=index+1;\n            }\n        }\n\n        index=0;\n        uint256 score = BakedGoods[_recipeId]._timesBaked;\n        uint256 toBeat = BakedGoods[recipeHighScore[index]]._timesBaked;\n        while(score <= toBeat){\n            index=index+1;\n            if(index>10){\n                break;\n            }else{\n                toBeat = BakedGoods[recipeHighScore[index]]._timesBaked;\n            }\n        }\n\n        if(index<10){\n            uint index2 = 9;\n            while(index2>=index){\n                recipeHighScore[index2+1]=recipeHighScore[index2];\n                if(index2!=0){\n                index2=index2-1;}\n                else{\n                    break;\n                }\n            }\n            recipeHighScore[index]=_recipeId;\n        }\n   }\n    \n\n    function _updatePlayerScore(address _player) internal {\n        uint index = 0;\n        bool isOnList = false;\n        while(index<10){\n            if(playerHighScore[index]==_player){\n                isOnList=true;\n                break;\n            }\n            index=index+1;\n        }\n        if(isOnList){\n            while(index<10){\n                playerHighScore[index]=playerHighScore[index+1];\n                index=index+1;\n            }\n        }\n        index=0;\n        uint256 score = totalScore[_player];\n        uint256 toBeat = totalScore[playerHighScore[index]];\n        while(score<=toBeat){\n            index=index+1;\n            if(index>10){\n                break;\n            }else{\n                toBeat = totalScore[playerHighScore[index]];\n            }\n        }\n        if(index<10){\n            uint index2 =9;\n            while(index2>=index){\n                playerHighScore[index2+1]=playerHighScore[index2];\n                if(index2!=0){\n                index2=index2-1;}\n                else{\n                    break;\n                }\n            }\n            playerHighScore[index]=_player;\n        }\n    }\n\n\n\n\n\n\n\n/**@dev Helper functions for the Sourdough Struct */\n    function getTimeOfDeath(uint256 starterId) public view returns(uint32){\n        return Sourdoughs[starterId]._timeOfDeath;\n    }\n    function getChildCount(uint256 starterId) public view returns(uint8){\n        return Sourdoughs[starterId]._childCount;\n    }\n    function getCreationTime(uint256 starterId) public view returns(uint32){\n        return Sourdoughs[starterId]._creationTime;\n    }\n    function getCreatorAddress(uint256 starterId) public view returns(address){\n        return Sourdoughs[starterId]._creator;\n    }\n    function getIsAutoFed(uint256 starterId) public view returns(bool){\n        return Sourdoughs[starterId]._beingAutoFed;\n    }\n\n\n/** @dev Helper functions for Recipe Struct */\n    function getRecipeName(uint256 recipeId) public view returns(string memory){\n        return BakedGoods[recipeId]._name;\n    }\n\n    function getRecipeScore(uint256 recipeId) public view returns(uint32){\n        return BakedGoods[recipeId]._score;\n    }\n    function getIngredientCount(uint256 recipeId) public view returns(uint256){\n        return BakedGoods[recipeId]._ages.length;\n    }\n     function getIngredientByIndex(uint256 recipeId, uint index) public view returns(uint32){\n        return BakedGoods[recipeId]._ages[index];\n    }\n     function getRecipeCreator(uint256 recipeId) public view returns(address){\n        return BakedGoods[recipeId]._creator;\n    }\n     function getFlourRequired(uint256 recipeId) public view returns(uint256){\n        return BakedGoods[recipeId]._flourRequired;\n    }\n     function getTimesBaked(uint256 recipeId) public view returns(uint256){\n        return BakedGoods[recipeId]._timesBaked;\n    }\n     function getNumberEaten(uint256 recipeId) public view returns(uint256){\n        return BakedGoods[recipeId]._numberEaten;\n    }\n\n\n/** @dev Player stats and timers */\n    function getGrindReset(address player) public view returns(uint32){\n        return grindCooldown[player];\n    }\n    function getPlayerScore(address player) public view returns(uint256){\n        return totalScore[player];\n    }\n    function isPlayerAutoFeeding(address player) public view returns(bool){\n        return isAutoFeeding[player];\n    }\n\n      function recipeOfOwnerByIndex(address owner, uint256 index) public view returns (uint256) {\n        return _ownerRecipes[owner].at(index);\n    }\n    function getOwnerUniqueRecipes(address owner) public view returns (uint256) {\n        return _ownerRecipes[owner].length();\n    }\n}\n    \n",
  "sourcePath": "contracts/Cafe.sol",
  "type": "contract"
}