{
  "abi": [
    {
      "inputs": [],
      "name": "depositFunds",
      "outputs": [
        {
          "internalType": "bool",
          "name": "",
          "type": "bool"
        }
      ],
      "stateMutability": "payable",
      "type": "function"
    },
    {
      "inputs": [],
      "name": "takeAllowance",
      "outputs": [
        {
          "internalType": "bool",
          "name": "",
          "type": "bool"
        }
      ],
      "stateMutability": "nonpayable",
      "type": "function"
    }
  ],
  "bytecode": "608060405234801561001057600080fd5b5061017b806100206000396000f3fe6080604052600436106100295760003560e01c806341ad7a911461002e578063e2c41dbc14610057575b600080fd5b34801561003a57600080fd5b5061004361005f565b604051901515815260200160405180910390f35b61004361012d565b3360009081526020819052604081205460ff16156100d65760405162461bcd60e51b815260206004820152602a60248201527f536f7272792c20796f7520616c7265616479207765726520676976656e20616e60448201526920616c6c6f77616e636560b01b606482015260840160405180910390fd5b604051339081906000906702c68af0bb1400009082818181858883f19350505050158015610108573d6000803e3d6000fd5b5050336000908152602081905260409020805460ff1916600190811790915590505b90565b6000341561013d5750600161012a565b50600061012a56fea2646970667358221220e6129c69233582803252b90ac2048035eda301fc352a14c66fe5b9566e92197764736f6c63430008030033",
  "bytecodeSha1": "b90654e6d616d639d764319a524f4bcbd38bfdff",
  "compiler": {
    "evm_version": "istanbul",
    "optimizer": {
      "enabled": true,
      "runs": 200
    },
    "version": "0.8.3+commit.8d00100c"
  },
  "contractName": "CafeEscrow",
  "language": "Solidity",
  "natspec": {
    "kind": "dev",
    "methods": {},
    "version": 1
  },
  "opcodes": "PUSH1 0x80 PUSH1 0x40 MSTORE PUSH1 0x4 CALLDATASIZE LT PUSH2 0x29 JUMPI PUSH1 0x0 CALLDATALOAD PUSH1 0xE0 SHR DUP1 PUSH4 0x41AD7A91 EQ PUSH2 0x2E JUMPI DUP1 PUSH4 0xE2C41DBC EQ PUSH2 0x57 JUMPI JUMPDEST PUSH1 0x0 DUP1 REVERT JUMPDEST CALLVALUE DUP1 ISZERO PUSH2 0x3A JUMPI PUSH1 0x0 DUP1 REVERT JUMPDEST POP PUSH2 0x43 PUSH2 0x5F JUMP JUMPDEST PUSH1 0x40 MLOAD SWAP1 ISZERO ISZERO DUP2 MSTORE PUSH1 0x20 ADD PUSH1 0x40 MLOAD DUP1 SWAP2 SUB SWAP1 RETURN JUMPDEST PUSH2 0x43 PUSH2 0x12D JUMP JUMPDEST CALLER PUSH1 0x0 SWAP1 DUP2 MSTORE PUSH1 0x20 DUP2 SWAP1 MSTORE PUSH1 0x40 DUP2 KECCAK256 SLOAD PUSH1 0xFF AND ISZERO PUSH2 0xD6 JUMPI PUSH1 0x40 MLOAD PUSH3 0x461BCD PUSH1 0xE5 SHL DUP2 MSTORE PUSH1 0x20 PUSH1 0x4 DUP3 ADD MSTORE PUSH1 0x2A PUSH1 0x24 DUP3 ADD MSTORE PUSH32 0x536F7272792C20796F7520616C7265616479207765726520676976656E20616E PUSH1 0x44 DUP3 ADD MSTORE PUSH10 0x20616C6C6F77616E6365 PUSH1 0xB0 SHL PUSH1 0x64 DUP3 ADD MSTORE PUSH1 0x84 ADD PUSH1 0x40 MLOAD DUP1 SWAP2 SUB SWAP1 REVERT JUMPDEST PUSH1 0x40 MLOAD CALLER SWAP1 DUP2 SWAP1 PUSH1 0x0 SWAP1 PUSH8 0x2C68AF0BB140000 SWAP1 DUP3 DUP2 DUP2 DUP2 DUP6 DUP9 DUP4 CALL SWAP4 POP POP POP POP ISZERO DUP1 ISZERO PUSH2 0x108 JUMPI RETURNDATASIZE PUSH1 0x0 DUP1 RETURNDATACOPY RETURNDATASIZE PUSH1 0x0 REVERT JUMPDEST POP POP CALLER PUSH1 0x0 SWAP1 DUP2 MSTORE PUSH1 0x20 DUP2 SWAP1 MSTORE PUSH1 0x40 SWAP1 KECCAK256 DUP1 SLOAD PUSH1 0xFF NOT AND PUSH1 0x1 SWAP1 DUP2 OR SWAP1 SWAP2 SSTORE SWAP1 POP JUMPDEST SWAP1 JUMP JUMPDEST PUSH1 0x0 CALLVALUE ISZERO PUSH2 0x13D JUMPI POP PUSH1 0x1 PUSH2 0x12A JUMP JUMPDEST POP PUSH1 0x0 PUSH2 0x12A JUMP INVALID LOG2 PUSH5 0x6970667358 0x22 SLT KECCAK256 0xE6 SLT SWAP13 PUSH10 0x233582803252B90AC204 DUP1 CALLDATALOAD 0xED LOG3 ADD 0xFC CALLDATALOAD 0x2A EQ 0xC6 PUSH16 0xE5B9566E92197764736F6C6343000803 STOP CALLER ",
  "sha1": "c83fb3e699756b52f84c788c1c60fd924ac7b9bb",
  "source": "pragma solidity ^0.8.0;\n\ncontract CafeEscrow{\n\n    mapping ( address => bool ) withdrawals;\n\n\n    function depositFunds() public payable returns(bool){\n        if(msg.value!=0){\n            return true;\n        } else{\n            return false;\n        }\n    }\n\n    function takeAllowance() public returns(bool){\n        require(withdrawals[msg.sender]==false,'Sorry, you already were given an allowance');\n        address payable Address = payable(msg.sender);\n        Address.transfer(200000000000000000);\n        withdrawals[msg.sender]= true;\n        return true;\n    }\n\n    \n}",
  "sourcePath": "contracts/CafeEscrow.sol",
  "type": "contract"
}