{
  "abi": [
    {
      "inputs": [],
      "name": "admin",
      "outputs": [
        {
          "internalType": "address",
          "name": "",
          "type": "address"
        }
      ],
      "stateMutability": "pure",
      "type": "function"
    },
    {
      "inputs": [],
      "name": "delegatedFunction",
      "outputs": [
        {
          "internalType": "bool",
          "name": "",
          "type": "bool"
        }
      ],
      "stateMutability": "pure",
      "type": "function"
    }
  ],
  "bytecode": "6080604052348015600f57600080fd5b5060928061001e6000396000f3fe6080604052348015600f57600080fd5b506004361060325760003560e01c8063abf8e0e7146037578063f851a44014604b575b600080fd5b604051600181526020015b60405180910390f35b60405163111111428152602001604256fea2646970667358221220cdee7066f3c96a194a2899aaced499c64fe688afdd0cb3e4b8e234f5b60ab26164736f6c63430008030033",
  "bytecodeSha1": "f980c65fa0f29cb40ae4279cdfa27087efc36dfa",
  "compiler": {
    "evm_version": "istanbul",
    "optimizer": {
      "enabled": true,
      "runs": 200
    },
    "version": "0.8.3+commit.8d00100c"
  },
  "contractName": "ClashingImplementation",
  "language": "Solidity",
  "natspec": {
    "details": "Implementation contract with an admin() function made to clash withTransparentUpgradeableProxy's to test correct functioning of theTransparent Proxy feature.",
    "kind": "dev",
    "methods": {},
    "version": 1
  },
  "opcodes": "PUSH1 0x80 PUSH1 0x40 MSTORE CALLVALUE DUP1 ISZERO PUSH1 0xF JUMPI PUSH1 0x0 DUP1 REVERT JUMPDEST POP PUSH1 0x4 CALLDATASIZE LT PUSH1 0x32 JUMPI PUSH1 0x0 CALLDATALOAD PUSH1 0xE0 SHR DUP1 PUSH4 0xABF8E0E7 EQ PUSH1 0x37 JUMPI DUP1 PUSH4 0xF851A440 EQ PUSH1 0x4B JUMPI JUMPDEST PUSH1 0x0 DUP1 REVERT JUMPDEST PUSH1 0x40 MLOAD PUSH1 0x1 DUP2 MSTORE PUSH1 0x20 ADD JUMPDEST PUSH1 0x40 MLOAD DUP1 SWAP2 SUB SWAP1 RETURN JUMPDEST PUSH1 0x40 MLOAD PUSH4 0x11111142 DUP2 MSTORE PUSH1 0x20 ADD PUSH1 0x42 JUMP INVALID LOG2 PUSH5 0x6970667358 0x22 SLT KECCAK256 0xCD 0xEE PUSH17 0x66F3C96A194A2899AACED499C64FE688AF 0xDD 0xC 0xB3 0xE4 0xB8 0xE2 CALLVALUE CREATE2 0xB6 EXP 0xB2 PUSH2 0x6473 PUSH16 0x6C634300080300330000000000000000 ",
  "sha1": "d2a763e77fe9c38b6ed006840f38bb1dba315470",
  "source": "// SPDX-License-Identifier: MIT\n\npragma solidity ^0.8.0;\n\n\n/**\n * @dev Implementation contract with an admin() function made to clash with\n * @dev TransparentUpgradeableProxy's to test correct functioning of the\n * @dev Transparent Proxy feature.\n */\ncontract ClashingImplementation {\n\n  function admin() external pure returns (address) {\n    return 0x0000000000000000000000000000000011111142;\n  }\n\n  function delegatedFunction() external pure returns (bool) {\n    return true;\n  }\n}\n",
  "sourcePath": "contracts/openzeppelin-contracts/contracts/mocks/ClashingImplementation.sol",
  "type": "contract"
}