{
  "abi": [
    {
      "inputs": [],
      "name": "get",
      "outputs": [
        {
          "internalType": "bool",
          "name": "",
          "type": "bool"
        }
      ],
      "stateMutability": "pure",
      "type": "function"
    },
    {
      "inputs": [
        {
          "internalType": "uint256",
          "name": "_value",
          "type": "uint256"
        },
        {
          "internalType": "string",
          "name": "_text",
          "type": "string"
        },
        {
          "internalType": "uint256[]",
          "name": "_values",
          "type": "uint256[]"
        }
      ],
      "name": "initialize",
      "outputs": [],
      "stateMutability": "nonpayable",
      "type": "function"
    },
    {
      "inputs": [],
      "name": "initializeNonPayable",
      "outputs": [],
      "stateMutability": "nonpayable",
      "type": "function"
    },
    {
      "inputs": [
        {
          "internalType": "uint256",
          "name": "_value",
          "type": "uint256"
        }
      ],
      "name": "initializeNonPayableWithValue",
      "outputs": [],
      "stateMutability": "nonpayable",
      "type": "function"
    },
    {
      "inputs": [],
      "name": "initializePayable",
      "outputs": [],
      "stateMutability": "payable",
      "type": "function"
    },
    {
      "inputs": [
        {
          "internalType": "uint256",
          "name": "_value",
          "type": "uint256"
        }
      ],
      "name": "initializePayableWithValue",
      "outputs": [],
      "stateMutability": "payable",
      "type": "function"
    },
    {
      "inputs": [
        {
          "internalType": "uint256",
          "name": "newVal",
          "type": "uint256"
        }
      ],
      "name": "migrate",
      "outputs": [],
      "stateMutability": "payable",
      "type": "function"
    },
    {
      "inputs": [],
      "name": "reverts",
      "outputs": [],
      "stateMutability": "pure",
      "type": "function"
    },
    {
      "inputs": [],
      "name": "text",
      "outputs": [
        {
          "internalType": "string",
          "name": "",
          "type": "string"
        }
      ],
      "stateMutability": "view",
      "type": "function"
    },
    {
      "inputs": [],
      "name": "value",
      "outputs": [
        {
          "internalType": "uint256",
          "name": "",
          "type": "uint256"
        }
      ],
      "stateMutability": "view",
      "type": "function"
    },
    {
      "inputs": [
        {
          "internalType": "uint256",
          "name": "",
          "type": "uint256"
        }
      ],
      "name": "values",
      "outputs": [
        {
          "internalType": "uint256",
          "name": "",
          "type": "uint256"
        }
      ],
      "stateMutability": "view",
      "type": "function"
    },
    {
      "inputs": [],
      "name": "version",
      "outputs": [
        {
          "internalType": "string",
          "name": "",
          "type": "string"
        }
      ],
      "stateMutability": "pure",
      "type": "function"
    }
  ],
  "bytecode": "608060405234801561001057600080fd5b5061064a806100206000396000f3fe6080604052600436106100a75760003560e01c80635e383d21116100645780635e383d21146101675780636d4ce63c14610187578063763e2831146101a35780639fba1f9a146101be578063d31f8b6b146101c8578063e79f5bee14610129576100a7565b80631f1bd692146100ac578063227367d5146100d75780633bccbbc9146100f05780633fa4f24514610105578063454b06081461012957806354fd4d501461013c575b600080fd5b3480156100b857600080fd5b506100c16101e8565b6040516100ce919061053f565b60405180910390f35b3480156100e357600080fd5b506100ee600a600055565b005b3480156100fc57600080fd5b506100ee610276565b34801561011157600080fd5b5061011b60005481565b6040519081526020016100ce565b6100ee61013736600461046b565b600055565b34801561014857600080fd5b506040805180820190915260028152612b1960f11b60208201526100c1565b34801561017357600080fd5b5061011b61018236600461046b565b6102c2565b34801561019357600080fd5b50604051600181526020016100ce565b3480156101af57600080fd5b506100ee61013736600461046b565b6100ee6064600055565b3480156101d457600080fd5b506100ee6101e3366004610483565b6102e3565b600180546101f5906105c3565b80601f0160208091040260200160405190810160405280929190818152602001828054610221906105c3565b801561026e5780601f106102435761010080835404028352916020019161026e565b820191906000526020600020905b81548152906001019060200180831161025157829003601f168201915b505050505081565b60405162461bcd60e51b815260206004820152601c60248201527f44756d6d79496d706c656d656e746174696f6e20726576657274656400000000604482015260640160405180910390fd5b600281815481106102d257600080fd5b600091825260209091200154905081565b600083905581516102fb906001906020850190610315565b50805161030f906002906020840190610399565b50505050565b828054610321906105c3565b90600052602060002090601f0160209004810192826103435760008555610389565b82601f1061035c57805160ff1916838001178555610389565b82800160010185558215610389579182015b8281111561038957825182559160200191906001019061036e565b506103959291506103d3565b5090565b828054828255906000526020600020908101928215610389579160200282018281111561038957825182559160200191906001019061036e565b5b8082111561039557600081556001016103d4565b600082601f8301126103f8578081fd5b8135602067ffffffffffffffff821115610414576104146105fe565b8160051b610423828201610592565b83815282810190868401838801850189101561043d578687fd5b8693505b8584101561045f578035835260019390930192918401918401610441565b50979650505050505050565b60006020828403121561047c578081fd5b5035919050565b600080600060608486031215610497578182fd5b8335925060208085013567ffffffffffffffff808211156104b6578485fd5b818701915087601f8301126104c9578485fd5b8135818111156104db576104db6105fe565b6104ed601f8201601f19168501610592565b8181528985838601011115610500578687fd5b81858501868301378685838301015280965050506040870135925080831115610527578384fd5b5050610535868287016103e8565b9150509250925092565b6000602080835283518082850152825b8181101561056b5785810183015185820160400152820161054f565b8181111561057c5783604083870101525b50601f01601f1916929092016040019392505050565b604051601f8201601f1916810167ffffffffffffffff811182821017156105bb576105bb6105fe565b604052919050565b600181811c908216806105d757607f821691505b602082108114156105f857634e487b7160e01b600052602260045260246000fd5b50919050565b634e487b7160e01b600052604160045260246000fdfea2646970667358221220bfe02c8bd36ece05af5389b1997a7924ab50a2a6950f2719ddccf258e39bce9f64736f6c63430008030033",
  "bytecodeSha1": "66c84d758c91690e083a290e5a795574cf1e5ed1",
  "compiler": {
    "evm_version": "istanbul",
    "optimizer": {
      "enabled": true,
      "runs": 200
    },
    "version": "0.8.3+commit.8d00100c"
  },
  "contractName": "DummyImplementationV2",
  "language": "Solidity",
  "natspec": {
    "kind": "dev",
    "methods": {},
    "version": 1
  },
  "opcodes": "PUSH1 0x80 PUSH1 0x40 MSTORE PUSH1 0x4 CALLDATASIZE LT PUSH2 0xA7 JUMPI PUSH1 0x0 CALLDATALOAD PUSH1 0xE0 SHR DUP1 PUSH4 0x5E383D21 GT PUSH2 0x64 JUMPI DUP1 PUSH4 0x5E383D21 EQ PUSH2 0x167 JUMPI DUP1 PUSH4 0x6D4CE63C EQ PUSH2 0x187 JUMPI DUP1 PUSH4 0x763E2831 EQ PUSH2 0x1A3 JUMPI DUP1 PUSH4 0x9FBA1F9A EQ PUSH2 0x1BE JUMPI DUP1 PUSH4 0xD31F8B6B EQ PUSH2 0x1C8 JUMPI DUP1 PUSH4 0xE79F5BEE EQ PUSH2 0x129 JUMPI PUSH2 0xA7 JUMP JUMPDEST DUP1 PUSH4 0x1F1BD692 EQ PUSH2 0xAC JUMPI DUP1 PUSH4 0x227367D5 EQ PUSH2 0xD7 JUMPI DUP1 PUSH4 0x3BCCBBC9 EQ PUSH2 0xF0 JUMPI DUP1 PUSH4 0x3FA4F245 EQ PUSH2 0x105 JUMPI DUP1 PUSH4 0x454B0608 EQ PUSH2 0x129 JUMPI DUP1 PUSH4 0x54FD4D50 EQ PUSH2 0x13C JUMPI JUMPDEST PUSH1 0x0 DUP1 REVERT JUMPDEST CALLVALUE DUP1 ISZERO PUSH2 0xB8 JUMPI PUSH1 0x0 DUP1 REVERT JUMPDEST POP PUSH2 0xC1 PUSH2 0x1E8 JUMP JUMPDEST PUSH1 0x40 MLOAD PUSH2 0xCE SWAP2 SWAP1 PUSH2 0x53F JUMP JUMPDEST PUSH1 0x40 MLOAD DUP1 SWAP2 SUB SWAP1 RETURN JUMPDEST CALLVALUE DUP1 ISZERO PUSH2 0xE3 JUMPI PUSH1 0x0 DUP1 REVERT JUMPDEST POP PUSH2 0xEE PUSH1 0xA PUSH1 0x0 SSTORE JUMP JUMPDEST STOP JUMPDEST CALLVALUE DUP1 ISZERO PUSH2 0xFC JUMPI PUSH1 0x0 DUP1 REVERT JUMPDEST POP PUSH2 0xEE PUSH2 0x276 JUMP JUMPDEST CALLVALUE DUP1 ISZERO PUSH2 0x111 JUMPI PUSH1 0x0 DUP1 REVERT JUMPDEST POP PUSH2 0x11B PUSH1 0x0 SLOAD DUP2 JUMP JUMPDEST PUSH1 0x40 MLOAD SWAP1 DUP2 MSTORE PUSH1 0x20 ADD PUSH2 0xCE JUMP JUMPDEST PUSH2 0xEE PUSH2 0x137 CALLDATASIZE PUSH1 0x4 PUSH2 0x46B JUMP JUMPDEST PUSH1 0x0 SSTORE JUMP JUMPDEST CALLVALUE DUP1 ISZERO PUSH2 0x148 JUMPI PUSH1 0x0 DUP1 REVERT JUMPDEST POP PUSH1 0x40 DUP1 MLOAD DUP1 DUP3 ADD SWAP1 SWAP2 MSTORE PUSH1 0x2 DUP2 MSTORE PUSH2 0x2B19 PUSH1 0xF1 SHL PUSH1 0x20 DUP3 ADD MSTORE PUSH2 0xC1 JUMP JUMPDEST CALLVALUE DUP1 ISZERO PUSH2 0x173 JUMPI PUSH1 0x0 DUP1 REVERT JUMPDEST POP PUSH2 0x11B PUSH2 0x182 CALLDATASIZE PUSH1 0x4 PUSH2 0x46B JUMP JUMPDEST PUSH2 0x2C2 JUMP JUMPDEST CALLVALUE DUP1 ISZERO PUSH2 0x193 JUMPI PUSH1 0x0 DUP1 REVERT JUMPDEST POP PUSH1 0x40 MLOAD PUSH1 0x1 DUP2 MSTORE PUSH1 0x20 ADD PUSH2 0xCE JUMP JUMPDEST CALLVALUE DUP1 ISZERO PUSH2 0x1AF JUMPI PUSH1 0x0 DUP1 REVERT JUMPDEST POP PUSH2 0xEE PUSH2 0x137 CALLDATASIZE PUSH1 0x4 PUSH2 0x46B JUMP JUMPDEST PUSH2 0xEE PUSH1 0x64 PUSH1 0x0 SSTORE JUMP JUMPDEST CALLVALUE DUP1 ISZERO PUSH2 0x1D4 JUMPI PUSH1 0x0 DUP1 REVERT JUMPDEST POP PUSH2 0xEE PUSH2 0x1E3 CALLDATASIZE PUSH1 0x4 PUSH2 0x483 JUMP JUMPDEST PUSH2 0x2E3 JUMP JUMPDEST PUSH1 0x1 DUP1 SLOAD PUSH2 0x1F5 SWAP1 PUSH2 0x5C3 JUMP JUMPDEST DUP1 PUSH1 0x1F ADD PUSH1 0x20 DUP1 SWAP2 DIV MUL PUSH1 0x20 ADD PUSH1 0x40 MLOAD SWAP1 DUP2 ADD PUSH1 0x40 MSTORE DUP1 SWAP3 SWAP2 SWAP1 DUP2 DUP2 MSTORE PUSH1 0x20 ADD DUP3 DUP1 SLOAD PUSH2 0x221 SWAP1 PUSH2 0x5C3 JUMP JUMPDEST DUP1 ISZERO PUSH2 0x26E JUMPI DUP1 PUSH1 0x1F LT PUSH2 0x243 JUMPI PUSH2 0x100 DUP1 DUP4 SLOAD DIV MUL DUP4 MSTORE SWAP2 PUSH1 0x20 ADD SWAP2 PUSH2 0x26E JUMP JUMPDEST DUP3 ADD SWAP2 SWAP1 PUSH1 0x0 MSTORE PUSH1 0x20 PUSH1 0x0 KECCAK256 SWAP1 JUMPDEST DUP2 SLOAD DUP2 MSTORE SWAP1 PUSH1 0x1 ADD SWAP1 PUSH1 0x20 ADD DUP1 DUP4 GT PUSH2 0x251 JUMPI DUP3 SWAP1 SUB PUSH1 0x1F AND DUP3 ADD SWAP2 JUMPDEST POP POP POP POP POP DUP2 JUMP JUMPDEST PUSH1 0x40 MLOAD PUSH3 0x461BCD PUSH1 0xE5 SHL DUP2 MSTORE PUSH1 0x20 PUSH1 0x4 DUP3 ADD MSTORE PUSH1 0x1C PUSH1 0x24 DUP3 ADD MSTORE PUSH32 0x44756D6D79496D706C656D656E746174696F6E20726576657274656400000000 PUSH1 0x44 DUP3 ADD MSTORE PUSH1 0x64 ADD PUSH1 0x40 MLOAD DUP1 SWAP2 SUB SWAP1 REVERT JUMPDEST PUSH1 0x2 DUP2 DUP2 SLOAD DUP2 LT PUSH2 0x2D2 JUMPI PUSH1 0x0 DUP1 REVERT JUMPDEST PUSH1 0x0 SWAP2 DUP3 MSTORE PUSH1 0x20 SWAP1 SWAP2 KECCAK256 ADD SLOAD SWAP1 POP DUP2 JUMP JUMPDEST PUSH1 0x0 DUP4 SWAP1 SSTORE DUP2 MLOAD PUSH2 0x2FB SWAP1 PUSH1 0x1 SWAP1 PUSH1 0x20 DUP6 ADD SWAP1 PUSH2 0x315 JUMP JUMPDEST POP DUP1 MLOAD PUSH2 0x30F SWAP1 PUSH1 0x2 SWAP1 PUSH1 0x20 DUP5 ADD SWAP1 PUSH2 0x399 JUMP JUMPDEST POP POP POP POP JUMP JUMPDEST DUP3 DUP1 SLOAD PUSH2 0x321 SWAP1 PUSH2 0x5C3 JUMP JUMPDEST SWAP1 PUSH1 0x0 MSTORE PUSH1 0x20 PUSH1 0x0 KECCAK256 SWAP1 PUSH1 0x1F ADD PUSH1 0x20 SWAP1 DIV DUP2 ADD SWAP3 DUP3 PUSH2 0x343 JUMPI PUSH1 0x0 DUP6 SSTORE PUSH2 0x389 JUMP JUMPDEST DUP3 PUSH1 0x1F LT PUSH2 0x35C JUMPI DUP1 MLOAD PUSH1 0xFF NOT AND DUP4 DUP1 ADD OR DUP6 SSTORE PUSH2 0x389 JUMP JUMPDEST DUP3 DUP1 ADD PUSH1 0x1 ADD DUP6 SSTORE DUP3 ISZERO PUSH2 0x389 JUMPI SWAP2 DUP3 ADD JUMPDEST DUP3 DUP2 GT ISZERO PUSH2 0x389 JUMPI DUP3 MLOAD DUP3 SSTORE SWAP2 PUSH1 0x20 ADD SWAP2 SWAP1 PUSH1 0x1 ADD SWAP1 PUSH2 0x36E JUMP JUMPDEST POP PUSH2 0x395 SWAP3 SWAP2 POP PUSH2 0x3D3 JUMP JUMPDEST POP SWAP1 JUMP JUMPDEST DUP3 DUP1 SLOAD DUP3 DUP3 SSTORE SWAP1 PUSH1 0x0 MSTORE PUSH1 0x20 PUSH1 0x0 KECCAK256 SWAP1 DUP2 ADD SWAP3 DUP3 ISZERO PUSH2 0x389 JUMPI SWAP2 PUSH1 0x20 MUL DUP3 ADD DUP3 DUP2 GT ISZERO PUSH2 0x389 JUMPI DUP3 MLOAD DUP3 SSTORE SWAP2 PUSH1 0x20 ADD SWAP2 SWAP1 PUSH1 0x1 ADD SWAP1 PUSH2 0x36E JUMP JUMPDEST JUMPDEST DUP1 DUP3 GT ISZERO PUSH2 0x395 JUMPI PUSH1 0x0 DUP2 SSTORE PUSH1 0x1 ADD PUSH2 0x3D4 JUMP JUMPDEST PUSH1 0x0 DUP3 PUSH1 0x1F DUP4 ADD SLT PUSH2 0x3F8 JUMPI DUP1 DUP2 REVERT JUMPDEST DUP2 CALLDATALOAD PUSH1 0x20 PUSH8 0xFFFFFFFFFFFFFFFF DUP3 GT ISZERO PUSH2 0x414 JUMPI PUSH2 0x414 PUSH2 0x5FE JUMP JUMPDEST DUP2 PUSH1 0x5 SHL PUSH2 0x423 DUP3 DUP3 ADD PUSH2 0x592 JUMP JUMPDEST DUP4 DUP2 MSTORE DUP3 DUP2 ADD SWAP1 DUP7 DUP5 ADD DUP4 DUP9 ADD DUP6 ADD DUP10 LT ISZERO PUSH2 0x43D JUMPI DUP7 DUP8 REVERT JUMPDEST DUP7 SWAP4 POP JUMPDEST DUP6 DUP5 LT ISZERO PUSH2 0x45F JUMPI DUP1 CALLDATALOAD DUP4 MSTORE PUSH1 0x1 SWAP4 SWAP1 SWAP4 ADD SWAP3 SWAP2 DUP5 ADD SWAP2 DUP5 ADD PUSH2 0x441 JUMP JUMPDEST POP SWAP8 SWAP7 POP POP POP POP POP POP POP JUMP JUMPDEST PUSH1 0x0 PUSH1 0x20 DUP3 DUP5 SUB SLT ISZERO PUSH2 0x47C JUMPI DUP1 DUP2 REVERT JUMPDEST POP CALLDATALOAD SWAP2 SWAP1 POP JUMP JUMPDEST PUSH1 0x0 DUP1 PUSH1 0x0 PUSH1 0x60 DUP5 DUP7 SUB SLT ISZERO PUSH2 0x497 JUMPI DUP2 DUP3 REVERT JUMPDEST DUP4 CALLDATALOAD SWAP3 POP PUSH1 0x20 DUP1 DUP6 ADD CALLDATALOAD PUSH8 0xFFFFFFFFFFFFFFFF DUP1 DUP3 GT ISZERO PUSH2 0x4B6 JUMPI DUP5 DUP6 REVERT JUMPDEST DUP2 DUP8 ADD SWAP2 POP DUP8 PUSH1 0x1F DUP4 ADD SLT PUSH2 0x4C9 JUMPI DUP5 DUP6 REVERT JUMPDEST DUP2 CALLDATALOAD DUP2 DUP2 GT ISZERO PUSH2 0x4DB JUMPI PUSH2 0x4DB PUSH2 0x5FE JUMP JUMPDEST PUSH2 0x4ED PUSH1 0x1F DUP3 ADD PUSH1 0x1F NOT AND DUP6 ADD PUSH2 0x592 JUMP JUMPDEST DUP2 DUP2 MSTORE DUP10 DUP6 DUP4 DUP7 ADD ADD GT ISZERO PUSH2 0x500 JUMPI DUP7 DUP8 REVERT JUMPDEST DUP2 DUP6 DUP6 ADD DUP7 DUP4 ADD CALLDATACOPY DUP7 DUP6 DUP4 DUP4 ADD ADD MSTORE DUP1 SWAP7 POP POP POP PUSH1 0x40 DUP8 ADD CALLDATALOAD SWAP3 POP DUP1 DUP4 GT ISZERO PUSH2 0x527 JUMPI DUP4 DUP5 REVERT JUMPDEST POP POP PUSH2 0x535 DUP7 DUP3 DUP8 ADD PUSH2 0x3E8 JUMP JUMPDEST SWAP2 POP POP SWAP3 POP SWAP3 POP SWAP3 JUMP JUMPDEST PUSH1 0x0 PUSH1 0x20 DUP1 DUP4 MSTORE DUP4 MLOAD DUP1 DUP3 DUP6 ADD MSTORE DUP3 JUMPDEST DUP2 DUP2 LT ISZERO PUSH2 0x56B JUMPI DUP6 DUP2 ADD DUP4 ADD MLOAD DUP6 DUP3 ADD PUSH1 0x40 ADD MSTORE DUP3 ADD PUSH2 0x54F JUMP JUMPDEST DUP2 DUP2 GT ISZERO PUSH2 0x57C JUMPI DUP4 PUSH1 0x40 DUP4 DUP8 ADD ADD MSTORE JUMPDEST POP PUSH1 0x1F ADD PUSH1 0x1F NOT AND SWAP3 SWAP1 SWAP3 ADD PUSH1 0x40 ADD SWAP4 SWAP3 POP POP POP JUMP JUMPDEST PUSH1 0x40 MLOAD PUSH1 0x1F DUP3 ADD PUSH1 0x1F NOT AND DUP2 ADD PUSH8 0xFFFFFFFFFFFFFFFF DUP2 GT DUP3 DUP3 LT OR ISZERO PUSH2 0x5BB JUMPI PUSH2 0x5BB PUSH2 0x5FE JUMP JUMPDEST PUSH1 0x40 MSTORE SWAP2 SWAP1 POP JUMP JUMPDEST PUSH1 0x1 DUP2 DUP2 SHR SWAP1 DUP3 AND DUP1 PUSH2 0x5D7 JUMPI PUSH1 0x7F DUP3 AND SWAP2 POP JUMPDEST PUSH1 0x20 DUP3 LT DUP2 EQ ISZERO PUSH2 0x5F8 JUMPI PUSH4 0x4E487B71 PUSH1 0xE0 SHL PUSH1 0x0 MSTORE PUSH1 0x22 PUSH1 0x4 MSTORE PUSH1 0x24 PUSH1 0x0 REVERT JUMPDEST POP SWAP2 SWAP1 POP JUMP JUMPDEST PUSH4 0x4E487B71 PUSH1 0xE0 SHL PUSH1 0x0 MSTORE PUSH1 0x41 PUSH1 0x4 MSTORE PUSH1 0x24 PUSH1 0x0 REVERT INVALID LOG2 PUSH5 0x6970667358 0x22 SLT KECCAK256 0xBF 0xE0 0x2C DUP12 0xD3 PUSH15 0xCE05AF5389B1997A7924AB50A2A695 0xF 0x27 NOT 0xDD 0xCC CALLCODE PC 0xE3 SWAP12 0xCE SWAP16 PUSH5 0x736F6C6343 STOP ADDMOD SUB STOP CALLER ",
  "sha1": "2d26450d6e73133375babe347f2b9fa87d1bba73",
  "source": "// SPDX-License-Identifier: MIT\n\npragma solidity ^0.8.0;\n\nabstract contract Impl {\n  function version() public pure virtual returns (string memory); \n}\n\ncontract DummyImplementation {\n  uint256 public value;\n  string public text;\n  uint256[] public values;\n\n  function initializeNonPayable() public {\n    value = 10;\n  }\n\n  function initializePayable() public payable {\n    value = 100;\n  }\n\n  function initializeNonPayableWithValue(uint256 _value) public {\n    value = _value;\n  }\n\n  function initializePayableWithValue(uint256 _value) public payable {\n    value = _value;\n  }\n\n  function initialize(uint256 _value, string memory _text, uint256[] memory _values) public {\n    value = _value;\n    text = _text;\n    values = _values;\n  }\n\n  function get() public pure returns (bool) {\n    return true;\n  }\n\n  function version() public pure virtual returns (string memory) {\n    return \"V1\";\n  }\n\n  function reverts() public pure {\n    require(false, \"DummyImplementation reverted\");\n  }\n}\n\ncontract DummyImplementationV2 is DummyImplementation {\n  function migrate(uint256 newVal) public payable {\n    value = newVal;\n  }\n\n  function version() public pure override returns (string memory) {\n    return \"V2\";\n  }\n}\n",
  "sourcePath": "contracts/openzeppelin-contracts/contracts/mocks/DummyImplementation.sol",
  "type": "contract"
}