{
  "abi": [
    {
      "anonymous": false,
      "inputs": [
        {
          "indexed": false,
          "internalType": "bool",
          "name": "result",
          "type": "bool"
        }
      ],
      "name": "OperationResult",
      "type": "event"
    },
    {
      "inputs": [
        {
          "internalType": "bytes32",
          "name": "value",
          "type": "bytes32"
        }
      ],
      "name": "add",
      "outputs": [],
      "stateMutability": "nonpayable",
      "type": "function"
    },
    {
      "inputs": [
        {
          "internalType": "uint256",
          "name": "index",
          "type": "uint256"
        }
      ],
      "name": "at",
      "outputs": [
        {
          "internalType": "bytes32",
          "name": "",
          "type": "bytes32"
        }
      ],
      "stateMutability": "view",
      "type": "function"
    },
    {
      "inputs": [
        {
          "internalType": "bytes32",
          "name": "value",
          "type": "bytes32"
        }
      ],
      "name": "contains",
      "outputs": [
        {
          "internalType": "bool",
          "name": "",
          "type": "bool"
        }
      ],
      "stateMutability": "view",
      "type": "function"
    },
    {
      "inputs": [],
      "name": "length",
      "outputs": [
        {
          "internalType": "uint256",
          "name": "",
          "type": "uint256"
        }
      ],
      "stateMutability": "view",
      "type": "function"
    },
    {
      "inputs": [
        {
          "internalType": "bytes32",
          "name": "value",
          "type": "bytes32"
        }
      ],
      "name": "remove",
      "outputs": [],
      "stateMutability": "nonpayable",
      "type": "function"
    }
  ],
  "bytecode": "608060405234801561001057600080fd5b50610415806100206000396000f3fe608060405234801561001057600080fd5b50600436106100575760003560e01c80631d1a696d1461005c5780631f7b6d3214610084578063446bffba1461009a57806395bc2673146100af578063e0886f90146100c2575b600080fd5b61006f61006a3660046103a4565b6100d5565b60405190151581526020015b60405180910390f35b61008c6100e7565b60405190815260200161007b565b6100ad6100a83660046103a4565b6100f8565b005b6100ad6100bd3660046103a4565b610145565b61008c6100d03660046103a4565b610151565b60006100e1818361015d565b92915050565b60006100f36000610178565b905090565b60006101048183610182565b90507fed9840e0775590557ad736875d96c95cf1458b766335f74339951a32c82a9e3381604051610139911515815260200190565b60405180910390a15050565b6000610104818361018e565b60006100e1818361019a565b600081815260018301602052604081205415155b9392505050565b60006100e1825490565b600061017183836101a6565b600061017183836101f5565b6000610171838361030c565b60008181526001830160205260408120546101ed575081546001818101845560008481526020808220909301849055845484825282860190935260409020919091556100e1565b5060006100e1565b600081815260018301602052604081205480156103025760006102196001836103bc565b855490915060009061022d906001906103bc565b9050600086600001828154811061025457634e487b7160e01b600052603260045260246000fd5b906000526020600020015490508087600001848154811061028557634e487b7160e01b600052603260045260246000fd5b6000918252602080832090910192909255828152600189019091526040902084905586548790806102c657634e487b7160e01b600052603160045260246000fd5b600190038181906000526020600020016000905590558660010160008781526020019081526020016000206000905560019450505050506100e1565b60009150506100e1565b8154600090821061036e5760405162461bcd60e51b815260206004820152602260248201527f456e756d657261626c655365743a20696e646578206f7574206f6620626f756e604482015261647360f01b606482015260840160405180910390fd5b82600001828154811061039157634e487b7160e01b600052603260045260246000fd5b9060005260206000200154905092915050565b6000602082840312156103b5578081fd5b5035919050565b6000828210156103da57634e487b7160e01b81526011600452602481fd5b50039056fea2646970667358221220b5d068019f5f35e108dd575d4fa16ce905c62976ac6534953054000e2cdde48f64736f6c63430008030033",
  "bytecodeSha1": "8940a1acc57df4808693191d61bd483cd200b392",
  "compiler": {
    "evm_version": "istanbul",
    "optimizer": {
      "enabled": true,
      "runs": 200
    },
    "version": "0.8.3+commit.8d00100c"
  },
  "contractName": "EnumerableBytes32SetMock",
  "language": "Solidity",
  "natspec": {
    "kind": "dev",
    "methods": {},
    "version": 1
  },
  "opcodes": "PUSH1 0x80 PUSH1 0x40 MSTORE CALLVALUE DUP1 ISZERO PUSH2 0x10 JUMPI PUSH1 0x0 DUP1 REVERT JUMPDEST POP PUSH1 0x4 CALLDATASIZE LT PUSH2 0x57 JUMPI PUSH1 0x0 CALLDATALOAD PUSH1 0xE0 SHR DUP1 PUSH4 0x1D1A696D EQ PUSH2 0x5C JUMPI DUP1 PUSH4 0x1F7B6D32 EQ PUSH2 0x84 JUMPI DUP1 PUSH4 0x446BFFBA EQ PUSH2 0x9A JUMPI DUP1 PUSH4 0x95BC2673 EQ PUSH2 0xAF JUMPI DUP1 PUSH4 0xE0886F90 EQ PUSH2 0xC2 JUMPI JUMPDEST PUSH1 0x0 DUP1 REVERT JUMPDEST PUSH2 0x6F PUSH2 0x6A CALLDATASIZE PUSH1 0x4 PUSH2 0x3A4 JUMP JUMPDEST PUSH2 0xD5 JUMP JUMPDEST PUSH1 0x40 MLOAD SWAP1 ISZERO ISZERO DUP2 MSTORE PUSH1 0x20 ADD JUMPDEST PUSH1 0x40 MLOAD DUP1 SWAP2 SUB SWAP1 RETURN JUMPDEST PUSH2 0x8C PUSH2 0xE7 JUMP JUMPDEST PUSH1 0x40 MLOAD SWAP1 DUP2 MSTORE PUSH1 0x20 ADD PUSH2 0x7B JUMP JUMPDEST PUSH2 0xAD PUSH2 0xA8 CALLDATASIZE PUSH1 0x4 PUSH2 0x3A4 JUMP JUMPDEST PUSH2 0xF8 JUMP JUMPDEST STOP JUMPDEST PUSH2 0xAD PUSH2 0xBD CALLDATASIZE PUSH1 0x4 PUSH2 0x3A4 JUMP JUMPDEST PUSH2 0x145 JUMP JUMPDEST PUSH2 0x8C PUSH2 0xD0 CALLDATASIZE PUSH1 0x4 PUSH2 0x3A4 JUMP JUMPDEST PUSH2 0x151 JUMP JUMPDEST PUSH1 0x0 PUSH2 0xE1 DUP2 DUP4 PUSH2 0x15D JUMP JUMPDEST SWAP3 SWAP2 POP POP JUMP JUMPDEST PUSH1 0x0 PUSH2 0xF3 PUSH1 0x0 PUSH2 0x178 JUMP JUMPDEST SWAP1 POP SWAP1 JUMP JUMPDEST PUSH1 0x0 PUSH2 0x104 DUP2 DUP4 PUSH2 0x182 JUMP JUMPDEST SWAP1 POP PUSH32 0xED9840E0775590557AD736875D96C95CF1458B766335F74339951A32C82A9E33 DUP2 PUSH1 0x40 MLOAD PUSH2 0x139 SWAP2 ISZERO ISZERO DUP2 MSTORE PUSH1 0x20 ADD SWAP1 JUMP JUMPDEST PUSH1 0x40 MLOAD DUP1 SWAP2 SUB SWAP1 LOG1 POP POP JUMP JUMPDEST PUSH1 0x0 PUSH2 0x104 DUP2 DUP4 PUSH2 0x18E JUMP JUMPDEST PUSH1 0x0 PUSH2 0xE1 DUP2 DUP4 PUSH2 0x19A JUMP JUMPDEST PUSH1 0x0 DUP2 DUP2 MSTORE PUSH1 0x1 DUP4 ADD PUSH1 0x20 MSTORE PUSH1 0x40 DUP2 KECCAK256 SLOAD ISZERO ISZERO JUMPDEST SWAP4 SWAP3 POP POP POP JUMP JUMPDEST PUSH1 0x0 PUSH2 0xE1 DUP3 SLOAD SWAP1 JUMP JUMPDEST PUSH1 0x0 PUSH2 0x171 DUP4 DUP4 PUSH2 0x1A6 JUMP JUMPDEST PUSH1 0x0 PUSH2 0x171 DUP4 DUP4 PUSH2 0x1F5 JUMP JUMPDEST PUSH1 0x0 PUSH2 0x171 DUP4 DUP4 PUSH2 0x30C JUMP JUMPDEST PUSH1 0x0 DUP2 DUP2 MSTORE PUSH1 0x1 DUP4 ADD PUSH1 0x20 MSTORE PUSH1 0x40 DUP2 KECCAK256 SLOAD PUSH2 0x1ED JUMPI POP DUP2 SLOAD PUSH1 0x1 DUP2 DUP2 ADD DUP5 SSTORE PUSH1 0x0 DUP5 DUP2 MSTORE PUSH1 0x20 DUP1 DUP3 KECCAK256 SWAP1 SWAP4 ADD DUP5 SWAP1 SSTORE DUP5 SLOAD DUP5 DUP3 MSTORE DUP3 DUP7 ADD SWAP1 SWAP4 MSTORE PUSH1 0x40 SWAP1 KECCAK256 SWAP2 SWAP1 SWAP2 SSTORE PUSH2 0xE1 JUMP JUMPDEST POP PUSH1 0x0 PUSH2 0xE1 JUMP JUMPDEST PUSH1 0x0 DUP2 DUP2 MSTORE PUSH1 0x1 DUP4 ADD PUSH1 0x20 MSTORE PUSH1 0x40 DUP2 KECCAK256 SLOAD DUP1 ISZERO PUSH2 0x302 JUMPI PUSH1 0x0 PUSH2 0x219 PUSH1 0x1 DUP4 PUSH2 0x3BC JUMP JUMPDEST DUP6 SLOAD SWAP1 SWAP2 POP PUSH1 0x0 SWAP1 PUSH2 0x22D SWAP1 PUSH1 0x1 SWAP1 PUSH2 0x3BC JUMP JUMPDEST SWAP1 POP PUSH1 0x0 DUP7 PUSH1 0x0 ADD DUP3 DUP2 SLOAD DUP2 LT PUSH2 0x254 JUMPI PUSH4 0x4E487B71 PUSH1 0xE0 SHL PUSH1 0x0 MSTORE PUSH1 0x32 PUSH1 0x4 MSTORE PUSH1 0x24 PUSH1 0x0 REVERT JUMPDEST SWAP1 PUSH1 0x0 MSTORE PUSH1 0x20 PUSH1 0x0 KECCAK256 ADD SLOAD SWAP1 POP DUP1 DUP8 PUSH1 0x0 ADD DUP5 DUP2 SLOAD DUP2 LT PUSH2 0x285 JUMPI PUSH4 0x4E487B71 PUSH1 0xE0 SHL PUSH1 0x0 MSTORE PUSH1 0x32 PUSH1 0x4 MSTORE PUSH1 0x24 PUSH1 0x0 REVERT JUMPDEST PUSH1 0x0 SWAP2 DUP3 MSTORE PUSH1 0x20 DUP1 DUP4 KECCAK256 SWAP1 SWAP2 ADD SWAP3 SWAP1 SWAP3 SSTORE DUP3 DUP2 MSTORE PUSH1 0x1 DUP10 ADD SWAP1 SWAP2 MSTORE PUSH1 0x40 SWAP1 KECCAK256 DUP5 SWAP1 SSTORE DUP7 SLOAD DUP8 SWAP1 DUP1 PUSH2 0x2C6 JUMPI PUSH4 0x4E487B71 PUSH1 0xE0 SHL PUSH1 0x0 MSTORE PUSH1 0x31 PUSH1 0x4 MSTORE PUSH1 0x24 PUSH1 0x0 REVERT JUMPDEST PUSH1 0x1 SWAP1 SUB DUP2 DUP2 SWAP1 PUSH1 0x0 MSTORE PUSH1 0x20 PUSH1 0x0 KECCAK256 ADD PUSH1 0x0 SWAP1 SSTORE SWAP1 SSTORE DUP7 PUSH1 0x1 ADD PUSH1 0x0 DUP8 DUP2 MSTORE PUSH1 0x20 ADD SWAP1 DUP2 MSTORE PUSH1 0x20 ADD PUSH1 0x0 KECCAK256 PUSH1 0x0 SWAP1 SSTORE PUSH1 0x1 SWAP5 POP POP POP POP POP PUSH2 0xE1 JUMP JUMPDEST PUSH1 0x0 SWAP2 POP POP PUSH2 0xE1 JUMP JUMPDEST DUP2 SLOAD PUSH1 0x0 SWAP1 DUP3 LT PUSH2 0x36E JUMPI PUSH1 0x40 MLOAD PUSH3 0x461BCD PUSH1 0xE5 SHL DUP2 MSTORE PUSH1 0x20 PUSH1 0x4 DUP3 ADD MSTORE PUSH1 0x22 PUSH1 0x24 DUP3 ADD MSTORE PUSH32 0x456E756D657261626C655365743A20696E646578206F7574206F6620626F756E PUSH1 0x44 DUP3 ADD MSTORE PUSH2 0x6473 PUSH1 0xF0 SHL PUSH1 0x64 DUP3 ADD MSTORE PUSH1 0x84 ADD PUSH1 0x40 MLOAD DUP1 SWAP2 SUB SWAP1 REVERT JUMPDEST DUP3 PUSH1 0x0 ADD DUP3 DUP2 SLOAD DUP2 LT PUSH2 0x391 JUMPI PUSH4 0x4E487B71 PUSH1 0xE0 SHL PUSH1 0x0 MSTORE PUSH1 0x32 PUSH1 0x4 MSTORE PUSH1 0x24 PUSH1 0x0 REVERT JUMPDEST SWAP1 PUSH1 0x0 MSTORE PUSH1 0x20 PUSH1 0x0 KECCAK256 ADD SLOAD SWAP1 POP SWAP3 SWAP2 POP POP JUMP JUMPDEST PUSH1 0x0 PUSH1 0x20 DUP3 DUP5 SUB SLT ISZERO PUSH2 0x3B5 JUMPI DUP1 DUP2 REVERT JUMPDEST POP CALLDATALOAD SWAP2 SWAP1 POP JUMP JUMPDEST PUSH1 0x0 DUP3 DUP3 LT ISZERO PUSH2 0x3DA JUMPI PUSH4 0x4E487B71 PUSH1 0xE0 SHL DUP2 MSTORE PUSH1 0x11 PUSH1 0x4 MSTORE PUSH1 0x24 DUP2 REVERT JUMPDEST POP SUB SWAP1 JUMP INVALID LOG2 PUSH5 0x6970667358 0x22 SLT KECCAK256 0xB5 0xD0 PUSH9 0x19F5F35E108DD575D 0x4F LOG1 PUSH13 0xE905C62976AC6534953054000E 0x2C 0xDD 0xE4 DUP16 PUSH5 0x736F6C6343 STOP ADDMOD SUB STOP CALLER ",
  "sha1": "18ae609d95dc4eb8761607546dc18a6aae1b08de",
  "source": "// SPDX-License-Identifier: MIT\n\npragma solidity ^0.8.0;\n\nimport \"../utils/structs/EnumerableSet.sol\";\n\n// Bytes32Set\ncontract EnumerableBytes32SetMock {\n    using EnumerableSet for EnumerableSet.Bytes32Set;\n\n    event OperationResult(bool result);\n\n    EnumerableSet.Bytes32Set private _set;\n\n    function contains(bytes32 value) public view returns (bool) {\n        return _set.contains(value);\n    }\n\n    function add(bytes32 value) public {\n        bool result = _set.add(value);\n        emit OperationResult(result);\n    }\n\n    function remove(bytes32 value) public {\n        bool result = _set.remove(value);\n        emit OperationResult(result);\n    }\n\n    function length() public view returns (uint256) {\n        return _set.length();\n    }\n\n    function at(uint256 index) public view returns (bytes32) {\n        return _set.at(index);\n    }\n}\n\n// AddressSet\ncontract EnumerableAddressSetMock {\n    using EnumerableSet for EnumerableSet.AddressSet;\n\n    event OperationResult(bool result);\n\n    EnumerableSet.AddressSet private _set;\n\n    function contains(address value) public view returns (bool) {\n        return _set.contains(value);\n    }\n\n    function add(address value) public {\n        bool result = _set.add(value);\n        emit OperationResult(result);\n    }\n\n    function remove(address value) public {\n        bool result = _set.remove(value);\n        emit OperationResult(result);\n    }\n\n    function length() public view returns (uint256) {\n        return _set.length();\n    }\n\n    function at(uint256 index) public view returns (address) {\n        return _set.at(index);\n    }\n}\n\n// UintSet\ncontract EnumerableUintSetMock {\n    using EnumerableSet for EnumerableSet.UintSet;\n\n    event OperationResult(bool result);\n\n    EnumerableSet.UintSet private _set;\n\n    function contains(uint256 value) public view returns (bool) {\n        return _set.contains(value);\n    }\n\n    function add(uint256 value) public {\n        bool result = _set.add(value);\n        emit OperationResult(result);\n    }\n\n    function remove(uint256 value) public {\n        bool result = _set.remove(value);\n        emit OperationResult(result);\n    }\n\n    function length() public view returns (uint256) {\n        return _set.length();\n    }\n\n    function at(uint256 index) public view returns (uint256) {\n        return _set.at(index);\n    }\n}\n",
  "sourcePath": "contracts/openzeppelin-contracts/contracts/mocks/EnumerableSetMock.sol",
  "type": "contract"
}