{
  "abi": [
    {
      "inputs": [
        {
          "internalType": "address",
          "name": "account",
          "type": "address"
        },
        {
          "internalType": "bytes4[]",
          "name": "interfaceIds",
          "type": "bytes4[]"
        }
      ],
      "name": "getSupportedInterfaces",
      "outputs": [
        {
          "internalType": "bool[]",
          "name": "",
          "type": "bool[]"
        }
      ],
      "stateMutability": "view",
      "type": "function"
    },
    {
      "inputs": [
        {
          "internalType": "address",
          "name": "account",
          "type": "address"
        },
        {
          "internalType": "bytes4[]",
          "name": "interfaceIds",
          "type": "bytes4[]"
        }
      ],
      "name": "supportsAllInterfaces",
      "outputs": [
        {
          "internalType": "bool",
          "name": "",
          "type": "bool"
        }
      ],
      "stateMutability": "view",
      "type": "function"
    },
    {
      "inputs": [
        {
          "internalType": "address",
          "name": "account",
          "type": "address"
        }
      ],
      "name": "supportsERC165",
      "outputs": [
        {
          "internalType": "bool",
          "name": "",
          "type": "bool"
        }
      ],
      "stateMutability": "view",
      "type": "function"
    },
    {
      "inputs": [
        {
          "internalType": "address",
          "name": "account",
          "type": "address"
        },
        {
          "internalType": "bytes4",
          "name": "interfaceId",
          "type": "bytes4"
        }
      ],
      "name": "supportsInterface",
      "outputs": [
        {
          "internalType": "bool",
          "name": "",
          "type": "bool"
        }
      ],
      "stateMutability": "view",
      "type": "function"
    }
  ],
  "bytecode": "608060405234801561001057600080fd5b5061061c806100206000396000f3fe608060405234801561001057600080fd5b506004361061004c5760003560e01c80634b9dd9041461005157806377e6b4cc14610079578063c398a92514610099578063d9057007146100ac575b600080fd5b61006461005f3660046103fe565b6100bf565b60405190151581526020015b60405180910390f35b61008c6100873660046103fe565b6100dd565b6040516100709190610563565b6100646100a73660046103e4565b6100f2565b6100646100ba3660046104d8565b61010e565b60006100d46001600160a01b03841683610123565b90505b92915050565b60606100d46001600160a01b038416836101a1565b6000610106826001600160a01b0316610281565b90505b919050565b60006100d46001600160a01b038416836102b4565b600061012e83610281565b61013a575060006100d7565b60005b8251811015610197576101778484838151811061016a57634e487b7160e01b600052603260045260246000fd5b60200260200101516102cc565b6101855760009150506100d7565b8061018f816105a9565b91505061013d565b5060019392505050565b60606000825167ffffffffffffffff8111156101cd57634e487b7160e01b600052604160045260246000fd5b6040519080825280602002602001820160405280156101f6578160200160208202803683370190505b50905061020284610281565b156100d45760005b8351811015610279576102378585838151811061016a57634e487b7160e01b600052603260045260246000fd5b82828151811061025757634e487b7160e01b600052603260045260246000fd5b9115156020928302919091019091015280610271816105a9565b91505061020a565b509392505050565b6000610294826301ffc9a760e01b6102cc565b801561010657506102ad826001600160e01b03196102cc565b1592915050565b60006102bf83610281565b80156100d457506100d483835b604080516001600160e01b0319831660248083019190915282518083039091018152604490910182526020810180516001600160e01b03166301ffc9a760e01b179052905160009190829081906001600160a01b038716906175309061033390869061052a565b6000604051808303818686fa925050503d806000811461036f576040519150601f19603f3d011682016040523d82523d6000602084013e610374565b606091505b509150915060208151101561038f57600093505050506100d7565b8180156103ab5750808060200190518101906103ab919061050a565b9695505050505050565b80356001600160a01b038116811461010957600080fd5b80356001600160e01b03198116811461010957600080fd5b6000602082840312156103f5578081fd5b6100d4826103b5565b60008060408385031215610410578081fd5b610419836103b5565b915060208084013567ffffffffffffffff80821115610436578384fd5b818601915086601f830112610449578384fd5b81358181111561045b5761045b6105d0565b8060051b604051601f19603f83011681018181108582111715610480576104806105d0565b604052828152858101935084860182860187018b101561049e578788fd5b8795505b838610156104c7576104b3816103cc565b8552600195909501949386019386016104a2565b508096505050505050509250929050565b600080604083850312156104ea578182fd5b6104f3836103b5565b9150610501602084016103cc565b90509250929050565b60006020828403121561051b578081fd5b815180151581146100d4578182fd5b60008251815b8181101561054a5760208186018101518583015201610530565b818111156105585782828501525b509190910192915050565b6020808252825182820181905260009190848201906040850190845b8181101561059d57835115158352928401929184019160010161057f565b50909695505050505050565b60006000198214156105c957634e487b7160e01b81526011600452602481fd5b5060010190565b634e487b7160e01b600052604160045260246000fdfea264697066735822122005b37e13133292fd0f878c1c5feb0d978a2f93a2280b697231c2ef8777dfafd164736f6c63430008030033",
  "bytecodeSha1": "ff2bdb9055f74d1dc0476a1aaeec662d6efea27d",
  "compiler": {
    "evm_version": "istanbul",
    "optimizer": {
      "enabled": true,
      "runs": 200
    },
    "version": "0.8.3+commit.8d00100c"
  },
  "contractName": "ERC165CheckerMock",
  "language": "Solidity",
  "natspec": {
    "kind": "dev",
    "methods": {},
    "version": 1
  },
  "opcodes": "PUSH1 0x80 PUSH1 0x40 MSTORE CALLVALUE DUP1 ISZERO PUSH2 0x10 JUMPI PUSH1 0x0 DUP1 REVERT JUMPDEST POP PUSH1 0x4 CALLDATASIZE LT PUSH2 0x4C JUMPI PUSH1 0x0 CALLDATALOAD PUSH1 0xE0 SHR DUP1 PUSH4 0x4B9DD904 EQ PUSH2 0x51 JUMPI DUP1 PUSH4 0x77E6B4CC EQ PUSH2 0x79 JUMPI DUP1 PUSH4 0xC398A925 EQ PUSH2 0x99 JUMPI DUP1 PUSH4 0xD9057007 EQ PUSH2 0xAC JUMPI JUMPDEST PUSH1 0x0 DUP1 REVERT JUMPDEST PUSH2 0x64 PUSH2 0x5F CALLDATASIZE PUSH1 0x4 PUSH2 0x3FE JUMP JUMPDEST PUSH2 0xBF JUMP JUMPDEST PUSH1 0x40 MLOAD SWAP1 ISZERO ISZERO DUP2 MSTORE PUSH1 0x20 ADD JUMPDEST PUSH1 0x40 MLOAD DUP1 SWAP2 SUB SWAP1 RETURN JUMPDEST PUSH2 0x8C PUSH2 0x87 CALLDATASIZE PUSH1 0x4 PUSH2 0x3FE JUMP JUMPDEST PUSH2 0xDD JUMP JUMPDEST PUSH1 0x40 MLOAD PUSH2 0x70 SWAP2 SWAP1 PUSH2 0x563 JUMP JUMPDEST PUSH2 0x64 PUSH2 0xA7 CALLDATASIZE PUSH1 0x4 PUSH2 0x3E4 JUMP JUMPDEST PUSH2 0xF2 JUMP JUMPDEST PUSH2 0x64 PUSH2 0xBA CALLDATASIZE PUSH1 0x4 PUSH2 0x4D8 JUMP JUMPDEST PUSH2 0x10E JUMP JUMPDEST PUSH1 0x0 PUSH2 0xD4 PUSH1 0x1 PUSH1 0x1 PUSH1 0xA0 SHL SUB DUP5 AND DUP4 PUSH2 0x123 JUMP JUMPDEST SWAP1 POP JUMPDEST SWAP3 SWAP2 POP POP JUMP JUMPDEST PUSH1 0x60 PUSH2 0xD4 PUSH1 0x1 PUSH1 0x1 PUSH1 0xA0 SHL SUB DUP5 AND DUP4 PUSH2 0x1A1 JUMP JUMPDEST PUSH1 0x0 PUSH2 0x106 DUP3 PUSH1 0x1 PUSH1 0x1 PUSH1 0xA0 SHL SUB AND PUSH2 0x281 JUMP JUMPDEST SWAP1 POP JUMPDEST SWAP2 SWAP1 POP JUMP JUMPDEST PUSH1 0x0 PUSH2 0xD4 PUSH1 0x1 PUSH1 0x1 PUSH1 0xA0 SHL SUB DUP5 AND DUP4 PUSH2 0x2B4 JUMP JUMPDEST PUSH1 0x0 PUSH2 0x12E DUP4 PUSH2 0x281 JUMP JUMPDEST PUSH2 0x13A JUMPI POP PUSH1 0x0 PUSH2 0xD7 JUMP JUMPDEST PUSH1 0x0 JUMPDEST DUP3 MLOAD DUP2 LT ISZERO PUSH2 0x197 JUMPI PUSH2 0x177 DUP5 DUP5 DUP4 DUP2 MLOAD DUP2 LT PUSH2 0x16A JUMPI PUSH4 0x4E487B71 PUSH1 0xE0 SHL PUSH1 0x0 MSTORE PUSH1 0x32 PUSH1 0x4 MSTORE PUSH1 0x24 PUSH1 0x0 REVERT JUMPDEST PUSH1 0x20 MUL PUSH1 0x20 ADD ADD MLOAD PUSH2 0x2CC JUMP JUMPDEST PUSH2 0x185 JUMPI PUSH1 0x0 SWAP2 POP POP PUSH2 0xD7 JUMP JUMPDEST DUP1 PUSH2 0x18F DUP2 PUSH2 0x5A9 JUMP JUMPDEST SWAP2 POP POP PUSH2 0x13D JUMP JUMPDEST POP PUSH1 0x1 SWAP4 SWAP3 POP POP POP JUMP JUMPDEST PUSH1 0x60 PUSH1 0x0 DUP3 MLOAD PUSH8 0xFFFFFFFFFFFFFFFF DUP2 GT ISZERO PUSH2 0x1CD JUMPI PUSH4 0x4E487B71 PUSH1 0xE0 SHL PUSH1 0x0 MSTORE PUSH1 0x41 PUSH1 0x4 MSTORE PUSH1 0x24 PUSH1 0x0 REVERT JUMPDEST PUSH1 0x40 MLOAD SWAP1 DUP1 DUP3 MSTORE DUP1 PUSH1 0x20 MUL PUSH1 0x20 ADD DUP3 ADD PUSH1 0x40 MSTORE DUP1 ISZERO PUSH2 0x1F6 JUMPI DUP2 PUSH1 0x20 ADD PUSH1 0x20 DUP3 MUL DUP1 CALLDATASIZE DUP4 CALLDATACOPY ADD SWAP1 POP JUMPDEST POP SWAP1 POP PUSH2 0x202 DUP5 PUSH2 0x281 JUMP JUMPDEST ISZERO PUSH2 0xD4 JUMPI PUSH1 0x0 JUMPDEST DUP4 MLOAD DUP2 LT ISZERO PUSH2 0x279 JUMPI PUSH2 0x237 DUP6 DUP6 DUP4 DUP2 MLOAD DUP2 LT PUSH2 0x16A JUMPI PUSH4 0x4E487B71 PUSH1 0xE0 SHL PUSH1 0x0 MSTORE PUSH1 0x32 PUSH1 0x4 MSTORE PUSH1 0x24 PUSH1 0x0 REVERT JUMPDEST DUP3 DUP3 DUP2 MLOAD DUP2 LT PUSH2 0x257 JUMPI PUSH4 0x4E487B71 PUSH1 0xE0 SHL PUSH1 0x0 MSTORE PUSH1 0x32 PUSH1 0x4 MSTORE PUSH1 0x24 PUSH1 0x0 REVERT JUMPDEST SWAP2 ISZERO ISZERO PUSH1 0x20 SWAP3 DUP4 MUL SWAP2 SWAP1 SWAP2 ADD SWAP1 SWAP2 ADD MSTORE DUP1 PUSH2 0x271 DUP2 PUSH2 0x5A9 JUMP JUMPDEST SWAP2 POP POP PUSH2 0x20A JUMP JUMPDEST POP SWAP4 SWAP3 POP POP POP JUMP JUMPDEST PUSH1 0x0 PUSH2 0x294 DUP3 PUSH4 0x1FFC9A7 PUSH1 0xE0 SHL PUSH2 0x2CC JUMP JUMPDEST DUP1 ISZERO PUSH2 0x106 JUMPI POP PUSH2 0x2AD DUP3 PUSH1 0x1 PUSH1 0x1 PUSH1 0xE0 SHL SUB NOT PUSH2 0x2CC JUMP JUMPDEST ISZERO SWAP3 SWAP2 POP POP JUMP JUMPDEST PUSH1 0x0 PUSH2 0x2BF DUP4 PUSH2 0x281 JUMP JUMPDEST DUP1 ISZERO PUSH2 0xD4 JUMPI POP PUSH2 0xD4 DUP4 DUP4 JUMPDEST PUSH1 0x40 DUP1 MLOAD PUSH1 0x1 PUSH1 0x1 PUSH1 0xE0 SHL SUB NOT DUP4 AND PUSH1 0x24 DUP1 DUP4 ADD SWAP2 SWAP1 SWAP2 MSTORE DUP3 MLOAD DUP1 DUP4 SUB SWAP1 SWAP2 ADD DUP2 MSTORE PUSH1 0x44 SWAP1 SWAP2 ADD DUP3 MSTORE PUSH1 0x20 DUP2 ADD DUP1 MLOAD PUSH1 0x1 PUSH1 0x1 PUSH1 0xE0 SHL SUB AND PUSH4 0x1FFC9A7 PUSH1 0xE0 SHL OR SWAP1 MSTORE SWAP1 MLOAD PUSH1 0x0 SWAP2 SWAP1 DUP3 SWAP1 DUP2 SWAP1 PUSH1 0x1 PUSH1 0x1 PUSH1 0xA0 SHL SUB DUP8 AND SWAP1 PUSH2 0x7530 SWAP1 PUSH2 0x333 SWAP1 DUP7 SWAP1 PUSH2 0x52A JUMP JUMPDEST PUSH1 0x0 PUSH1 0x40 MLOAD DUP1 DUP4 SUB DUP2 DUP7 DUP7 STATICCALL SWAP3 POP POP POP RETURNDATASIZE DUP1 PUSH1 0x0 DUP2 EQ PUSH2 0x36F JUMPI PUSH1 0x40 MLOAD SWAP2 POP PUSH1 0x1F NOT PUSH1 0x3F RETURNDATASIZE ADD AND DUP3 ADD PUSH1 0x40 MSTORE RETURNDATASIZE DUP3 MSTORE RETURNDATASIZE PUSH1 0x0 PUSH1 0x20 DUP5 ADD RETURNDATACOPY PUSH2 0x374 JUMP JUMPDEST PUSH1 0x60 SWAP2 POP JUMPDEST POP SWAP2 POP SWAP2 POP PUSH1 0x20 DUP2 MLOAD LT ISZERO PUSH2 0x38F JUMPI PUSH1 0x0 SWAP4 POP POP POP POP PUSH2 0xD7 JUMP JUMPDEST DUP2 DUP1 ISZERO PUSH2 0x3AB JUMPI POP DUP1 DUP1 PUSH1 0x20 ADD SWAP1 MLOAD DUP2 ADD SWAP1 PUSH2 0x3AB SWAP2 SWAP1 PUSH2 0x50A JUMP JUMPDEST SWAP7 SWAP6 POP POP POP POP POP POP JUMP JUMPDEST DUP1 CALLDATALOAD PUSH1 0x1 PUSH1 0x1 PUSH1 0xA0 SHL SUB DUP2 AND DUP2 EQ PUSH2 0x109 JUMPI PUSH1 0x0 DUP1 REVERT JUMPDEST DUP1 CALLDATALOAD PUSH1 0x1 PUSH1 0x1 PUSH1 0xE0 SHL SUB NOT DUP2 AND DUP2 EQ PUSH2 0x109 JUMPI PUSH1 0x0 DUP1 REVERT JUMPDEST PUSH1 0x0 PUSH1 0x20 DUP3 DUP5 SUB SLT ISZERO PUSH2 0x3F5 JUMPI DUP1 DUP2 REVERT JUMPDEST PUSH2 0xD4 DUP3 PUSH2 0x3B5 JUMP JUMPDEST PUSH1 0x0 DUP1 PUSH1 0x40 DUP4 DUP6 SUB SLT ISZERO PUSH2 0x410 JUMPI DUP1 DUP2 REVERT JUMPDEST PUSH2 0x419 DUP4 PUSH2 0x3B5 JUMP JUMPDEST SWAP2 POP PUSH1 0x20 DUP1 DUP5 ADD CALLDATALOAD PUSH8 0xFFFFFFFFFFFFFFFF DUP1 DUP3 GT ISZERO PUSH2 0x436 JUMPI DUP4 DUP5 REVERT JUMPDEST DUP2 DUP7 ADD SWAP2 POP DUP7 PUSH1 0x1F DUP4 ADD SLT PUSH2 0x449 JUMPI DUP4 DUP5 REVERT JUMPDEST DUP2 CALLDATALOAD DUP2 DUP2 GT ISZERO PUSH2 0x45B JUMPI PUSH2 0x45B PUSH2 0x5D0 JUMP JUMPDEST DUP1 PUSH1 0x5 SHL PUSH1 0x40 MLOAD PUSH1 0x1F NOT PUSH1 0x3F DUP4 ADD AND DUP2 ADD DUP2 DUP2 LT DUP6 DUP3 GT OR ISZERO PUSH2 0x480 JUMPI PUSH2 0x480 PUSH2 0x5D0 JUMP JUMPDEST PUSH1 0x40 MSTORE DUP3 DUP2 MSTORE DUP6 DUP2 ADD SWAP4 POP DUP5 DUP7 ADD DUP3 DUP7 ADD DUP8 ADD DUP12 LT ISZERO PUSH2 0x49E JUMPI DUP8 DUP9 REVERT JUMPDEST DUP8 SWAP6 POP JUMPDEST DUP4 DUP7 LT ISZERO PUSH2 0x4C7 JUMPI PUSH2 0x4B3 DUP2 PUSH2 0x3CC JUMP JUMPDEST DUP6 MSTORE PUSH1 0x1 SWAP6 SWAP1 SWAP6 ADD SWAP5 SWAP4 DUP7 ADD SWAP4 DUP7 ADD PUSH2 0x4A2 JUMP JUMPDEST POP DUP1 SWAP7 POP POP POP POP POP POP POP SWAP3 POP SWAP3 SWAP1 POP JUMP JUMPDEST PUSH1 0x0 DUP1 PUSH1 0x40 DUP4 DUP6 SUB SLT ISZERO PUSH2 0x4EA JUMPI DUP2 DUP3 REVERT JUMPDEST PUSH2 0x4F3 DUP4 PUSH2 0x3B5 JUMP JUMPDEST SWAP2 POP PUSH2 0x501 PUSH1 0x20 DUP5 ADD PUSH2 0x3CC JUMP JUMPDEST SWAP1 POP SWAP3 POP SWAP3 SWAP1 POP JUMP JUMPDEST PUSH1 0x0 PUSH1 0x20 DUP3 DUP5 SUB SLT ISZERO PUSH2 0x51B JUMPI DUP1 DUP2 REVERT JUMPDEST DUP2 MLOAD DUP1 ISZERO ISZERO DUP2 EQ PUSH2 0xD4 JUMPI DUP2 DUP3 REVERT JUMPDEST PUSH1 0x0 DUP3 MLOAD DUP2 JUMPDEST DUP2 DUP2 LT ISZERO PUSH2 0x54A JUMPI PUSH1 0x20 DUP2 DUP7 ADD DUP2 ADD MLOAD DUP6 DUP4 ADD MSTORE ADD PUSH2 0x530 JUMP JUMPDEST DUP2 DUP2 GT ISZERO PUSH2 0x558 JUMPI DUP3 DUP3 DUP6 ADD MSTORE JUMPDEST POP SWAP2 SWAP1 SWAP2 ADD SWAP3 SWAP2 POP POP JUMP JUMPDEST PUSH1 0x20 DUP1 DUP3 MSTORE DUP3 MLOAD DUP3 DUP3 ADD DUP2 SWAP1 MSTORE PUSH1 0x0 SWAP2 SWAP1 DUP5 DUP3 ADD SWAP1 PUSH1 0x40 DUP6 ADD SWAP1 DUP5 JUMPDEST DUP2 DUP2 LT ISZERO PUSH2 0x59D JUMPI DUP4 MLOAD ISZERO ISZERO DUP4 MSTORE SWAP3 DUP5 ADD SWAP3 SWAP2 DUP5 ADD SWAP2 PUSH1 0x1 ADD PUSH2 0x57F JUMP JUMPDEST POP SWAP1 SWAP7 SWAP6 POP POP POP POP POP POP JUMP JUMPDEST PUSH1 0x0 PUSH1 0x0 NOT DUP3 EQ ISZERO PUSH2 0x5C9 JUMPI PUSH4 0x4E487B71 PUSH1 0xE0 SHL DUP2 MSTORE PUSH1 0x11 PUSH1 0x4 MSTORE PUSH1 0x24 DUP2 REVERT JUMPDEST POP PUSH1 0x1 ADD SWAP1 JUMP JUMPDEST PUSH4 0x4E487B71 PUSH1 0xE0 SHL PUSH1 0x0 MSTORE PUSH1 0x41 PUSH1 0x4 MSTORE PUSH1 0x24 PUSH1 0x0 REVERT INVALID LOG2 PUSH5 0x6970667358 0x22 SLT KECCAK256 SDIV 0xB3 PUSH31 0x13133292FD0F878C1C5FEB0D978A2F93A2280B697231C2EF8777DFAFD16473 PUSH16 0x6C634300080300330000000000000000 ",
  "sha1": "856947e50415f111dacea6e27ae2020f718f6050",
  "source": "// SPDX-License-Identifier: MIT\n\npragma solidity ^0.8.0;\n\nimport \"../utils/introspection/ERC165Checker.sol\";\n\ncontract ERC165CheckerMock {\n    using ERC165Checker for address;\n\n    function supportsERC165(address account) public view returns (bool) {\n        return account.supportsERC165();\n    }\n\n    function supportsInterface(address account, bytes4 interfaceId) public view returns (bool) {\n        return account.supportsInterface(interfaceId);\n    }\n\n    function supportsAllInterfaces(address account, bytes4[] memory interfaceIds) public view returns (bool) {\n        return account.supportsAllInterfaces(interfaceIds);\n    }\n\n    function getSupportedInterfaces(address account, bytes4[] memory interfaceIds) public view returns (bool[] memory) {\n        return account.getSupportedInterfaces(interfaceIds);\n    }\n}\n",
  "sourcePath": "contracts/openzeppelin-contracts/contracts/mocks/ERC165CheckerMock.sol",
  "type": "contract"
}