{
  "abi": [
    {
      "inputs": [
        {
          "internalType": "address",
          "name": "trustedForwarder",
          "type": "address"
        }
      ],
      "stateMutability": "nonpayable",
      "type": "constructor"
    },
    {
      "anonymous": false,
      "inputs": [
        {
          "indexed": false,
          "internalType": "bytes",
          "name": "data",
          "type": "bytes"
        },
        {
          "indexed": false,
          "internalType": "uint256",
          "name": "integerValue",
          "type": "uint256"
        },
        {
          "indexed": false,
          "internalType": "string",
          "name": "stringValue",
          "type": "string"
        }
      ],
      "name": "Data",
      "type": "event"
    },
    {
      "anonymous": false,
      "inputs": [
        {
          "indexed": false,
          "internalType": "address",
          "name": "sender",
          "type": "address"
        }
      ],
      "name": "Sender",
      "type": "event"
    },
    {
      "inputs": [
        {
          "internalType": "address",
          "name": "forwarder",
          "type": "address"
        }
      ],
      "name": "isTrustedForwarder",
      "outputs": [
        {
          "internalType": "bool",
          "name": "",
          "type": "bool"
        }
      ],
      "stateMutability": "view",
      "type": "function"
    },
    {
      "inputs": [
        {
          "internalType": "uint256",
          "name": "integerValue",
          "type": "uint256"
        },
        {
          "internalType": "string",
          "name": "stringValue",
          "type": "string"
        }
      ],
      "name": "msgData",
      "outputs": [],
      "stateMutability": "nonpayable",
      "type": "function"
    },
    {
      "inputs": [],
      "name": "msgSender",
      "outputs": [],
      "stateMutability": "nonpayable",
      "type": "function"
    }
  ],
  "bytecode": "60a060405234801561001057600080fd5b5060405161046038038061046083398101604081905261002f91610044565b60601b6001600160601b031916608052610072565b600060208284031215610055578081fd5b81516001600160a01b038116811461006b578182fd5b9392505050565b60805160601c6103d161008f600039600060d301526103d16000f3fe608060405234801561001057600080fd5b50600436106100415760003560e01c8063376bf26214610046578063572b6c051461005b578063d737d0c714610082575b600080fd5b6100596100543660046101ff565b61008a565b005b61006e6100693660046101d1565b6100d1565b604051901515815260200160405180910390f35b610059610103565b7faf235354a0a47c91ee171961326335cb2d1a8e55b8a89859b0e61eb049e50ea06100b3610149565b84846040516100c594939291906102b5565b60405180910390a15050565b7f00000000000000000000000000000000000000000000000000000000000000006001600160a01b0390811691161490565b7fd6558c3ed910d959271054471fd1c326679d9fece99c5091b00ed89627cf2bfc61012c61015d565b6040516001600160a01b03909116815260200160405180910390a1565b36600061015461016d565b915091505b9091565b60006101676101ab565b90505b90565b366000610179336100d1565b156101a3576000803661018d601482610362565b9261019a9392919061033a565b91509150610159565b60003661019a565b60006101b6336100d1565b156101ca575060131936013560601c61016a565b503361016a565b6000602082840312156101e2578081fd5b81356001600160a01b03811681146101f8578182fd5b9392505050565b60008060408385031215610211578081fd5b82359150602083013567ffffffffffffffff8082111561022f578283fd5b818501915085601f830112610242578283fd5b81358181111561025457610254610385565b604051601f8201601f19908116603f0116810190838211818310171561027c5761027c610385565b81604052828152886020848701011115610294578586fd5b82602086016020830137856020848301015280955050505050509250929050565b600060608252846060830152848660808401378060808684010152601f1980601f87011683016020868186015260808583030160408601528551806080840152845b818110156103135787810183015184820160a0015282016102f7565b81811115610324578560a083860101525b50601f019092160160a001979650505050505050565b60008085851115610349578182fd5b83861115610355578182fd5b5050820193919092039150565b60008282101561038057634e487b7160e01b81526011600452602481fd5b500390565b634e487b7160e01b600052604160045260246000fdfea2646970667358221220b8af36c2cac8eee59d531c413bdff4fb5aa06edce08e3c9306b8f1484c6aa62964736f6c63430008030033",
  "bytecodeSha1": "c39da5d173d49008b23d1313655688d7fda1bfed",
  "compiler": {
    "evm_version": "istanbul",
    "optimizer": {
      "enabled": true,
      "runs": 200
    },
    "version": "0.8.3+commit.8d00100c"
  },
  "contractName": "ERC2771ContextMock",
  "language": "Solidity",
  "natspec": {
    "kind": "dev",
    "methods": {},
    "version": 1
  },
  "opcodes": "PUSH1 0x80 PUSH1 0x40 MSTORE CALLVALUE DUP1 ISZERO PUSH2 0x10 JUMPI PUSH1 0x0 DUP1 REVERT JUMPDEST POP PUSH1 0x4 CALLDATASIZE LT PUSH2 0x41 JUMPI PUSH1 0x0 CALLDATALOAD PUSH1 0xE0 SHR DUP1 PUSH4 0x376BF262 EQ PUSH2 0x46 JUMPI DUP1 PUSH4 0x572B6C05 EQ PUSH2 0x5B JUMPI DUP1 PUSH4 0xD737D0C7 EQ PUSH2 0x82 JUMPI JUMPDEST PUSH1 0x0 DUP1 REVERT JUMPDEST PUSH2 0x59 PUSH2 0x54 CALLDATASIZE PUSH1 0x4 PUSH2 0x1FF JUMP JUMPDEST PUSH2 0x8A JUMP JUMPDEST STOP JUMPDEST PUSH2 0x6E PUSH2 0x69 CALLDATASIZE PUSH1 0x4 PUSH2 0x1D1 JUMP JUMPDEST PUSH2 0xD1 JUMP JUMPDEST PUSH1 0x40 MLOAD SWAP1 ISZERO ISZERO DUP2 MSTORE PUSH1 0x20 ADD PUSH1 0x40 MLOAD DUP1 SWAP2 SUB SWAP1 RETURN JUMPDEST PUSH2 0x59 PUSH2 0x103 JUMP JUMPDEST PUSH32 0xAF235354A0A47C91EE171961326335CB2D1A8E55B8A89859B0E61EB049E50EA0 PUSH2 0xB3 PUSH2 0x149 JUMP JUMPDEST DUP5 DUP5 PUSH1 0x40 MLOAD PUSH2 0xC5 SWAP5 SWAP4 SWAP3 SWAP2 SWAP1 PUSH2 0x2B5 JUMP JUMPDEST PUSH1 0x40 MLOAD DUP1 SWAP2 SUB SWAP1 LOG1 POP POP JUMP JUMPDEST PUSH32 0x0 PUSH1 0x1 PUSH1 0x1 PUSH1 0xA0 SHL SUB SWAP1 DUP2 AND SWAP2 AND EQ SWAP1 JUMP JUMPDEST PUSH32 0xD6558C3ED910D959271054471FD1C326679D9FECE99C5091B00ED89627CF2BFC PUSH2 0x12C PUSH2 0x15D JUMP JUMPDEST PUSH1 0x40 MLOAD PUSH1 0x1 PUSH1 0x1 PUSH1 0xA0 SHL SUB SWAP1 SWAP2 AND DUP2 MSTORE PUSH1 0x20 ADD PUSH1 0x40 MLOAD DUP1 SWAP2 SUB SWAP1 LOG1 JUMP JUMPDEST CALLDATASIZE PUSH1 0x0 PUSH2 0x154 PUSH2 0x16D JUMP JUMPDEST SWAP2 POP SWAP2 POP JUMPDEST SWAP1 SWAP2 JUMP JUMPDEST PUSH1 0x0 PUSH2 0x167 PUSH2 0x1AB JUMP JUMPDEST SWAP1 POP JUMPDEST SWAP1 JUMP JUMPDEST CALLDATASIZE PUSH1 0x0 PUSH2 0x179 CALLER PUSH2 0xD1 JUMP JUMPDEST ISZERO PUSH2 0x1A3 JUMPI PUSH1 0x0 DUP1 CALLDATASIZE PUSH2 0x18D PUSH1 0x14 DUP3 PUSH2 0x362 JUMP JUMPDEST SWAP3 PUSH2 0x19A SWAP4 SWAP3 SWAP2 SWAP1 PUSH2 0x33A JUMP JUMPDEST SWAP2 POP SWAP2 POP PUSH2 0x159 JUMP JUMPDEST PUSH1 0x0 CALLDATASIZE PUSH2 0x19A JUMP JUMPDEST PUSH1 0x0 PUSH2 0x1B6 CALLER PUSH2 0xD1 JUMP JUMPDEST ISZERO PUSH2 0x1CA JUMPI POP PUSH1 0x13 NOT CALLDATASIZE ADD CALLDATALOAD PUSH1 0x60 SHR PUSH2 0x16A JUMP JUMPDEST POP CALLER PUSH2 0x16A JUMP JUMPDEST PUSH1 0x0 PUSH1 0x20 DUP3 DUP5 SUB SLT ISZERO PUSH2 0x1E2 JUMPI DUP1 DUP2 REVERT JUMPDEST DUP2 CALLDATALOAD PUSH1 0x1 PUSH1 0x1 PUSH1 0xA0 SHL SUB DUP2 AND DUP2 EQ PUSH2 0x1F8 JUMPI DUP2 DUP3 REVERT JUMPDEST SWAP4 SWAP3 POP POP POP JUMP JUMPDEST PUSH1 0x0 DUP1 PUSH1 0x40 DUP4 DUP6 SUB SLT ISZERO PUSH2 0x211 JUMPI DUP1 DUP2 REVERT JUMPDEST DUP3 CALLDATALOAD SWAP2 POP PUSH1 0x20 DUP4 ADD CALLDATALOAD PUSH8 0xFFFFFFFFFFFFFFFF DUP1 DUP3 GT ISZERO PUSH2 0x22F JUMPI DUP3 DUP4 REVERT JUMPDEST DUP2 DUP6 ADD SWAP2 POP DUP6 PUSH1 0x1F DUP4 ADD SLT PUSH2 0x242 JUMPI DUP3 DUP4 REVERT JUMPDEST DUP2 CALLDATALOAD DUP2 DUP2 GT ISZERO PUSH2 0x254 JUMPI PUSH2 0x254 PUSH2 0x385 JUMP JUMPDEST PUSH1 0x40 MLOAD PUSH1 0x1F DUP3 ADD PUSH1 0x1F NOT SWAP1 DUP2 AND PUSH1 0x3F ADD AND DUP2 ADD SWAP1 DUP4 DUP3 GT DUP2 DUP4 LT OR ISZERO PUSH2 0x27C JUMPI PUSH2 0x27C PUSH2 0x385 JUMP JUMPDEST DUP2 PUSH1 0x40 MSTORE DUP3 DUP2 MSTORE DUP9 PUSH1 0x20 DUP5 DUP8 ADD ADD GT ISZERO PUSH2 0x294 JUMPI DUP6 DUP7 REVERT JUMPDEST DUP3 PUSH1 0x20 DUP7 ADD PUSH1 0x20 DUP4 ADD CALLDATACOPY DUP6 PUSH1 0x20 DUP5 DUP4 ADD ADD MSTORE DUP1 SWAP6 POP POP POP POP POP POP SWAP3 POP SWAP3 SWAP1 POP JUMP JUMPDEST PUSH1 0x0 PUSH1 0x60 DUP3 MSTORE DUP5 PUSH1 0x60 DUP4 ADD MSTORE DUP5 DUP7 PUSH1 0x80 DUP5 ADD CALLDATACOPY DUP1 PUSH1 0x80 DUP7 DUP5 ADD ADD MSTORE PUSH1 0x1F NOT DUP1 PUSH1 0x1F DUP8 ADD AND DUP4 ADD PUSH1 0x20 DUP7 DUP2 DUP7 ADD MSTORE PUSH1 0x80 DUP6 DUP4 SUB ADD PUSH1 0x40 DUP7 ADD MSTORE DUP6 MLOAD DUP1 PUSH1 0x80 DUP5 ADD MSTORE DUP5 JUMPDEST DUP2 DUP2 LT ISZERO PUSH2 0x313 JUMPI DUP8 DUP2 ADD DUP4 ADD MLOAD DUP5 DUP3 ADD PUSH1 0xA0 ADD MSTORE DUP3 ADD PUSH2 0x2F7 JUMP JUMPDEST DUP2 DUP2 GT ISZERO PUSH2 0x324 JUMPI DUP6 PUSH1 0xA0 DUP4 DUP7 ADD ADD MSTORE JUMPDEST POP PUSH1 0x1F ADD SWAP1 SWAP3 AND ADD PUSH1 0xA0 ADD SWAP8 SWAP7 POP POP POP POP POP POP POP JUMP JUMPDEST PUSH1 0x0 DUP1 DUP6 DUP6 GT ISZERO PUSH2 0x349 JUMPI DUP2 DUP3 REVERT JUMPDEST DUP4 DUP7 GT ISZERO PUSH2 0x355 JUMPI DUP2 DUP3 REVERT JUMPDEST POP POP DUP3 ADD SWAP4 SWAP2 SWAP1 SWAP3 SUB SWAP2 POP JUMP JUMPDEST PUSH1 0x0 DUP3 DUP3 LT ISZERO PUSH2 0x380 JUMPI PUSH4 0x4E487B71 PUSH1 0xE0 SHL DUP2 MSTORE PUSH1 0x11 PUSH1 0x4 MSTORE PUSH1 0x24 DUP2 REVERT JUMPDEST POP SUB SWAP1 JUMP JUMPDEST PUSH4 0x4E487B71 PUSH1 0xE0 SHL PUSH1 0x0 MSTORE PUSH1 0x41 PUSH1 0x4 MSTORE PUSH1 0x24 PUSH1 0x0 REVERT INVALID LOG2 PUSH5 0x6970667358 0x22 SLT KECCAK256 0xB8 0xAF CALLDATASIZE 0xC2 0xCA 0xC8 0xEE 0xE5 SWAP14 MSTORE8 SHR COINBASE EXTCODESIZE 0xDF DELEGATECALL 0xFB GAS LOG0 PUSH15 0xDCE08E3C9306B8F1484C6AA6296473 PUSH16 0x6C634300080300330000000000000000 ",
  "sha1": "f956fd4e0d55c482633e7eda08deb923f3450e1c",
  "source": "// SPDX-License-Identifier: MIT\n\npragma solidity ^0.8.0;\n\nimport \"./ContextMock.sol\";\nimport \"../metatx/ERC2771Context.sol\";\n\n// By inheriting from ERC2771Context, Context's internal functions are overridden automatically\ncontract ERC2771ContextMock is ContextMock, ERC2771Context {\n    constructor(address trustedForwarder) ERC2771Context(trustedForwarder) {}\n\n    function _msgSender() internal override(Context, ERC2771Context) view virtual returns (address) {\n        return ERC2771Context._msgSender();\n    }\n\n    function _msgData() internal override(Context, ERC2771Context) view virtual returns (bytes calldata) {\n        return ERC2771Context._msgData();\n    }\n}\n",
  "sourcePath": "contracts/openzeppelin-contracts/contracts/mocks/ERC2771ContextMock.sol",
  "type": "contract"
}