{
  "abi": [
    {
      "inputs": [
        {
          "internalType": "bool",
          "name": "acceptEther",
          "type": "bool"
        }
      ],
      "name": "setAcceptEther",
      "outputs": [],
      "stateMutability": "nonpayable",
      "type": "function"
    },
    {
      "stateMutability": "payable",
      "type": "receive"
    }
  ],
  "bytecode": "608060405234801561001057600080fd5b5060bd8061001f6000396000f3fe608060405260043610601f5760003560e01c80634fea120c146038576033565b3660335760005460ff16603157600080fd5b005b600080fd5b348015604357600080fd5b506031604f3660046062565b6000805460ff1916911515919091179055565b6000602082840312156072578081fd5b813580151581146080578182fd5b939250505056fea264697066735822122030f041b7aeb13b0c00b73790737eed03a15bc4f3fca096e30199c1f9fab0f77d64736f6c63430008030033",
  "bytecodeSha1": "53e8502ac653d53bb1abe24e970211c7f8dbf85c",
  "compiler": {
    "evm_version": "istanbul",
    "optimizer": {
      "enabled": true,
      "runs": 200
    },
    "version": "0.8.3+commit.8d00100c"
  },
  "contractName": "EtherReceiverMock",
  "language": "Solidity",
  "natspec": {
    "kind": "dev",
    "methods": {},
    "version": 1
  },
  "opcodes": "PUSH1 0x80 PUSH1 0x40 MSTORE PUSH1 0x4 CALLDATASIZE LT PUSH1 0x1F JUMPI PUSH1 0x0 CALLDATALOAD PUSH1 0xE0 SHR DUP1 PUSH4 0x4FEA120C EQ PUSH1 0x38 JUMPI PUSH1 0x33 JUMP JUMPDEST CALLDATASIZE PUSH1 0x33 JUMPI PUSH1 0x0 SLOAD PUSH1 0xFF AND PUSH1 0x31 JUMPI PUSH1 0x0 DUP1 REVERT JUMPDEST STOP JUMPDEST PUSH1 0x0 DUP1 REVERT JUMPDEST CALLVALUE DUP1 ISZERO PUSH1 0x43 JUMPI PUSH1 0x0 DUP1 REVERT JUMPDEST POP PUSH1 0x31 PUSH1 0x4F CALLDATASIZE PUSH1 0x4 PUSH1 0x62 JUMP JUMPDEST PUSH1 0x0 DUP1 SLOAD PUSH1 0xFF NOT AND SWAP2 ISZERO ISZERO SWAP2 SWAP1 SWAP2 OR SWAP1 SSTORE JUMP JUMPDEST PUSH1 0x0 PUSH1 0x20 DUP3 DUP5 SUB SLT ISZERO PUSH1 0x72 JUMPI DUP1 DUP2 REVERT JUMPDEST DUP2 CALLDATALOAD DUP1 ISZERO ISZERO DUP2 EQ PUSH1 0x80 JUMPI DUP2 DUP3 REVERT JUMPDEST SWAP4 SWAP3 POP POP POP JUMP INVALID LOG2 PUSH5 0x6970667358 0x22 SLT KECCAK256 ADDRESS CREATE COINBASE 0xB7 0xAE 0xB1 EXTCODESIZE 0xC STOP 0xB7 CALLDATACOPY SWAP1 PUSH20 0x7EED03A15BC4F3FCA096E30199C1F9FAB0F77D64 PUSH20 0x6F6C634300080300330000000000000000000000 ",
  "sha1": "c3d5136f5f27dffad235b8a29d5bf9abc9e196d0",
  "source": "// SPDX-License-Identifier: MIT\n\npragma solidity ^0.8.0;\n\ncontract EtherReceiverMock {\n    bool private _acceptEther;\n\n    function setAcceptEther(bool acceptEther) public {\n        _acceptEther = acceptEther;\n    }\n\n    receive () external payable {\n        if (!_acceptEther) {\n            revert();\n        }\n    }\n}\n",
  "sourcePath": "contracts/openzeppelin-contracts/contracts/mocks/EtherReceiverMock.sol",
  "type": "contract"
}