{
  "abi": [
    {
      "inputs": [],
      "name": "fail",
      "outputs": [],
      "stateMutability": "pure",
      "type": "function"
    },
    {
      "inputs": [],
      "name": "initialize",
      "outputs": [],
      "stateMutability": "nonpayable",
      "type": "function"
    },
    {
      "inputs": [],
      "name": "initializeNested",
      "outputs": [],
      "stateMutability": "nonpayable",
      "type": "function"
    },
    {
      "inputs": [
        {
          "internalType": "uint256",
          "name": "_x",
          "type": "uint256"
        }
      ],
      "name": "initializeWithX",
      "outputs": [],
      "stateMutability": "payable",
      "type": "function"
    },
    {
      "inputs": [],
      "name": "initializerRan",
      "outputs": [
        {
          "internalType": "bool",
          "name": "",
          "type": "bool"
        }
      ],
      "stateMutability": "view",
      "type": "function"
    },
    {
      "inputs": [
        {
          "internalType": "uint256",
          "name": "_x",
          "type": "uint256"
        }
      ],
      "name": "nonInitializable",
      "outputs": [],
      "stateMutability": "payable",
      "type": "function"
    },
    {
      "inputs": [],
      "name": "x",
      "outputs": [
        {
          "internalType": "uint256",
          "name": "",
          "type": "uint256"
        }
      ],
      "stateMutability": "view",
      "type": "function"
    }
  ],
  "bytecode": "608060405234801561001057600080fd5b50610383806100206000396000f3fe60806040526004361061006f5760003560e01c8063a9cc47181161004e578063a9cc4718146100c7578063c3b8ef2a146100dc578063cb3a528d1461010c578063e955c9ec146101215761006f565b806218eaa8146100745780630c55699c146100895780638129fc1c146100b2575b600080fd5b6100876100823660046102e7565b610134565b005b34801561009557600080fd5b5061009f60015481565b6040519081526020015b60405180910390f35b3480156100be57600080fd5b506100876101af565b3480156100d357600080fd5b5061008761022c565b3480156100e857600080fd5b506000546100fc9062010000900460ff1681565b60405190151581526020016100a9565b34801561011857600080fd5b50610087610274565b61008761012f3660046102e7565b600155565b600054610100900460ff168061014d575060005460ff16155b6101725760405162461bcd60e51b8152600401610169906102ff565b60405180910390fd5b600054610100900460ff16158015610194576000805461ffff19166101011790555b600182905580156101ab576000805461ff00191690555b5050565b600054610100900460ff16806101c8575060005460ff16155b6101e45760405162461bcd60e51b8152600401610169906102ff565b600054610100900460ff16158015610206576000805461ffff19166101011790555b6000805462ff00001916620100001790558015610229576000805461ff00191690555b50565b60405162461bcd60e51b815260206004820181905260248201527f496e697469616c697a61626c654d6f636b20666f72636564206661696c7572656044820152606401610169565b600054610100900460ff168061028d575060005460ff16155b6102a95760405162461bcd60e51b8152600401610169906102ff565b600054610100900460ff161580156102cb576000805461ffff19166101011790555b6102d36101af565b8015610229576000805461ff001916905550565b6000602082840312156102f8578081fd5b5035919050565b6020808252602e908201527f496e697469616c697a61626c653a20636f6e747261637420697320616c72656160408201526d191e481a5b9a5d1a585b1a5e995960921b60608201526080019056fea2646970667358221220918c4cf7f337742b8ccc31bebde1ea12a3324bd48ccb9a9c639cc800a4b5b17164736f6c63430008030033",
  "bytecodeSha1": "e223d6a783ced02b57cebf3c3c2ed31fa53425e1",
  "compiler": {
    "evm_version": "istanbul",
    "optimizer": {
      "enabled": true,
      "runs": 200
    },
    "version": "0.8.3+commit.8d00100c"
  },
  "contractName": "InitializableMock",
  "language": "Solidity",
  "natspec": {
    "details": "This contract is a mock to test initializable functionality",
    "kind": "dev",
    "methods": {},
    "title": "InitializableMock",
    "version": 1
  },
  "opcodes": "PUSH1 0x80 PUSH1 0x40 MSTORE PUSH1 0x4 CALLDATASIZE LT PUSH2 0x6F JUMPI PUSH1 0x0 CALLDATALOAD PUSH1 0xE0 SHR DUP1 PUSH4 0xA9CC4718 GT PUSH2 0x4E JUMPI DUP1 PUSH4 0xA9CC4718 EQ PUSH2 0xC7 JUMPI DUP1 PUSH4 0xC3B8EF2A EQ PUSH2 0xDC JUMPI DUP1 PUSH4 0xCB3A528D EQ PUSH2 0x10C JUMPI DUP1 PUSH4 0xE955C9EC EQ PUSH2 0x121 JUMPI PUSH2 0x6F JUMP JUMPDEST DUP1 PUSH3 0x18EAA8 EQ PUSH2 0x74 JUMPI DUP1 PUSH4 0xC55699C EQ PUSH2 0x89 JUMPI DUP1 PUSH4 0x8129FC1C EQ PUSH2 0xB2 JUMPI JUMPDEST PUSH1 0x0 DUP1 REVERT JUMPDEST PUSH2 0x87 PUSH2 0x82 CALLDATASIZE PUSH1 0x4 PUSH2 0x2E7 JUMP JUMPDEST PUSH2 0x134 JUMP JUMPDEST STOP JUMPDEST CALLVALUE DUP1 ISZERO PUSH2 0x95 JUMPI PUSH1 0x0 DUP1 REVERT JUMPDEST POP PUSH2 0x9F PUSH1 0x1 SLOAD DUP2 JUMP JUMPDEST PUSH1 0x40 MLOAD SWAP1 DUP2 MSTORE PUSH1 0x20 ADD JUMPDEST PUSH1 0x40 MLOAD DUP1 SWAP2 SUB SWAP1 RETURN JUMPDEST CALLVALUE DUP1 ISZERO PUSH2 0xBE JUMPI PUSH1 0x0 DUP1 REVERT JUMPDEST POP PUSH2 0x87 PUSH2 0x1AF JUMP JUMPDEST CALLVALUE DUP1 ISZERO PUSH2 0xD3 JUMPI PUSH1 0x0 DUP1 REVERT JUMPDEST POP PUSH2 0x87 PUSH2 0x22C JUMP JUMPDEST CALLVALUE DUP1 ISZERO PUSH2 0xE8 JUMPI PUSH1 0x0 DUP1 REVERT JUMPDEST POP PUSH1 0x0 SLOAD PUSH2 0xFC SWAP1 PUSH3 0x10000 SWAP1 DIV PUSH1 0xFF AND DUP2 JUMP JUMPDEST PUSH1 0x40 MLOAD SWAP1 ISZERO ISZERO DUP2 MSTORE PUSH1 0x20 ADD PUSH2 0xA9 JUMP JUMPDEST CALLVALUE DUP1 ISZERO PUSH2 0x118 JUMPI PUSH1 0x0 DUP1 REVERT JUMPDEST POP PUSH2 0x87 PUSH2 0x274 JUMP JUMPDEST PUSH2 0x87 PUSH2 0x12F CALLDATASIZE PUSH1 0x4 PUSH2 0x2E7 JUMP JUMPDEST PUSH1 0x1 SSTORE JUMP JUMPDEST PUSH1 0x0 SLOAD PUSH2 0x100 SWAP1 DIV PUSH1 0xFF AND DUP1 PUSH2 0x14D JUMPI POP PUSH1 0x0 SLOAD PUSH1 0xFF AND ISZERO JUMPDEST PUSH2 0x172 JUMPI PUSH1 0x40 MLOAD PUSH3 0x461BCD PUSH1 0xE5 SHL DUP2 MSTORE PUSH1 0x4 ADD PUSH2 0x169 SWAP1 PUSH2 0x2FF JUMP JUMPDEST PUSH1 0x40 MLOAD DUP1 SWAP2 SUB SWAP1 REVERT JUMPDEST PUSH1 0x0 SLOAD PUSH2 0x100 SWAP1 DIV PUSH1 0xFF AND ISZERO DUP1 ISZERO PUSH2 0x194 JUMPI PUSH1 0x0 DUP1 SLOAD PUSH2 0xFFFF NOT AND PUSH2 0x101 OR SWAP1 SSTORE JUMPDEST PUSH1 0x1 DUP3 SWAP1 SSTORE DUP1 ISZERO PUSH2 0x1AB JUMPI PUSH1 0x0 DUP1 SLOAD PUSH2 0xFF00 NOT AND SWAP1 SSTORE JUMPDEST POP POP JUMP JUMPDEST PUSH1 0x0 SLOAD PUSH2 0x100 SWAP1 DIV PUSH1 0xFF AND DUP1 PUSH2 0x1C8 JUMPI POP PUSH1 0x0 SLOAD PUSH1 0xFF AND ISZERO JUMPDEST PUSH2 0x1E4 JUMPI PUSH1 0x40 MLOAD PUSH3 0x461BCD PUSH1 0xE5 SHL DUP2 MSTORE PUSH1 0x4 ADD PUSH2 0x169 SWAP1 PUSH2 0x2FF JUMP JUMPDEST PUSH1 0x0 SLOAD PUSH2 0x100 SWAP1 DIV PUSH1 0xFF AND ISZERO DUP1 ISZERO PUSH2 0x206 JUMPI PUSH1 0x0 DUP1 SLOAD PUSH2 0xFFFF NOT AND PUSH2 0x101 OR SWAP1 SSTORE JUMPDEST PUSH1 0x0 DUP1 SLOAD PUSH3 0xFF0000 NOT AND PUSH3 0x10000 OR SWAP1 SSTORE DUP1 ISZERO PUSH2 0x229 JUMPI PUSH1 0x0 DUP1 SLOAD PUSH2 0xFF00 NOT AND SWAP1 SSTORE JUMPDEST POP JUMP JUMPDEST PUSH1 0x40 MLOAD PUSH3 0x461BCD PUSH1 0xE5 SHL DUP2 MSTORE PUSH1 0x20 PUSH1 0x4 DUP3 ADD DUP2 SWAP1 MSTORE PUSH1 0x24 DUP3 ADD MSTORE PUSH32 0x496E697469616C697A61626C654D6F636B20666F72636564206661696C757265 PUSH1 0x44 DUP3 ADD MSTORE PUSH1 0x64 ADD PUSH2 0x169 JUMP JUMPDEST PUSH1 0x0 SLOAD PUSH2 0x100 SWAP1 DIV PUSH1 0xFF AND DUP1 PUSH2 0x28D JUMPI POP PUSH1 0x0 SLOAD PUSH1 0xFF AND ISZERO JUMPDEST PUSH2 0x2A9 JUMPI PUSH1 0x40 MLOAD PUSH3 0x461BCD PUSH1 0xE5 SHL DUP2 MSTORE PUSH1 0x4 ADD PUSH2 0x169 SWAP1 PUSH2 0x2FF JUMP JUMPDEST PUSH1 0x0 SLOAD PUSH2 0x100 SWAP1 DIV PUSH1 0xFF AND ISZERO DUP1 ISZERO PUSH2 0x2CB JUMPI PUSH1 0x0 DUP1 SLOAD PUSH2 0xFFFF NOT AND PUSH2 0x101 OR SWAP1 SSTORE JUMPDEST PUSH2 0x2D3 PUSH2 0x1AF JUMP JUMPDEST DUP1 ISZERO PUSH2 0x229 JUMPI PUSH1 0x0 DUP1 SLOAD PUSH2 0xFF00 NOT AND SWAP1 SSTORE POP JUMP JUMPDEST PUSH1 0x0 PUSH1 0x20 DUP3 DUP5 SUB SLT ISZERO PUSH2 0x2F8 JUMPI DUP1 DUP2 REVERT JUMPDEST POP CALLDATALOAD SWAP2 SWAP1 POP JUMP JUMPDEST PUSH1 0x20 DUP1 DUP3 MSTORE PUSH1 0x2E SWAP1 DUP3 ADD MSTORE PUSH32 0x496E697469616C697A61626C653A20636F6E747261637420697320616C726561 PUSH1 0x40 DUP3 ADD MSTORE PUSH14 0x191E481A5B9A5D1A585B1A5E9959 PUSH1 0x92 SHL PUSH1 0x60 DUP3 ADD MSTORE PUSH1 0x80 ADD SWAP1 JUMP INVALID LOG2 PUSH5 0x6970667358 0x22 SLT KECCAK256 SWAP2 DUP13 0x4C 0xF7 RETURN CALLDATACOPY PUSH21 0x2B8CCC31BEBDE1EA12A3324BD48CCB9A9C639CC800 LOG4 0xB5 0xB1 PUSH18 0x64736F6C6343000803003300000000000000 ",
  "sha1": "fee21e61504b961c1b1d2011357ffa6a13688d1b",
  "source": "// SPDX-License-Identifier: MIT\n\npragma solidity ^0.8.0;\n\nimport \"../proxy/utils/Initializable.sol\";\n\n/**\n * @title InitializableMock\n * @dev This contract is a mock to test initializable functionality\n */\ncontract InitializableMock is Initializable {\n\n  bool public initializerRan;\n  uint256 public x;\n\n  function initialize() public initializer {\n    initializerRan = true;\n  }\n\n  function initializeNested() public initializer {\n    initialize();\n  }\n\n  function initializeWithX(uint256 _x) public payable initializer {\n    x = _x;\n  }\n\n  function nonInitializable(uint256 _x) public payable {\n    x = _x;\n  }\n\n  function fail() public pure {\n    require(false, \"InitializableMock forced failure\");\n  }\n\n}\n",
  "sourcePath": "contracts/openzeppelin-contracts/contracts/mocks/InitializableMock.sol",
  "type": "contract"
}