{
  "abi": [
    {
      "inputs": [
        {
          "internalType": "uint256",
          "name": "value",
          "type": "uint256"
        }
      ],
      "name": "initialize",
      "outputs": [],
      "stateMutability": "payable",
      "type": "function"
    },
    {
      "inputs": [
        {
          "internalType": "uint256",
          "name": "value",
          "type": "uint256"
        },
        {
          "internalType": "uint256",
          "name": "anotherValue",
          "type": "uint256"
        }
      ],
      "name": "migrate",
      "outputs": [],
      "stateMutability": "payable",
      "type": "function"
    },
    {
      "inputs": [],
      "name": "x",
      "outputs": [
        {
          "internalType": "uint256",
          "name": "",
          "type": "uint256"
        }
      ],
      "stateMutability": "view",
      "type": "function"
    },
    {
      "inputs": [],
      "name": "y",
      "outputs": [
        {
          "internalType": "uint256",
          "name": "",
          "type": "uint256"
        }
      ],
      "stateMutability": "view",
      "type": "function"
    }
  ],
  "bytecode": "608060405234801561001057600080fd5b506101fd806100206000396000f3fe60806040526004361061003f5760003560e01c80630c55699c146100445780633e54bacb1461006c578063a56dfe4a14610081578063fe4b84df14610097575b600080fd5b34801561005057600080fd5b5061005a60015481565b60405190815260200160405180910390f35b61007f61007a3660046101a6565b6100aa565b005b34801561008d57600080fd5b5061005a60035481565b61007f6100a536600461018e565b6100d1565b60025460ff16156100ba57600080fd5b60019182556003556002805460ff19169091179055565b600054610100900460ff16806100ea575060005460ff16155b6101515760405162461bcd60e51b815260206004820152602e60248201527f496e697469616c697a61626c653a20636f6e747261637420697320616c72656160448201526d191e481a5b9a5d1a585b1a5e995960921b606482015260840160405180910390fd5b600054610100900460ff16158015610173576000805461ffff19166101011790555b6001829055801561018a576000805461ff00191690555b5050565b60006020828403121561019f578081fd5b5035919050565b600080604083850312156101b8578081fd5b5050803592602090910135915056fea2646970667358221220a709a9a3553b5296f3c6afba96b9de906fce89c78dde1739d7890c171cbef89064736f6c63430008030033",
  "bytecodeSha1": "9e22e87d9e9d6ceb28894c566db10b74ca596c7b",
  "compiler": {
    "evm_version": "istanbul",
    "optimizer": {
      "enabled": true,
      "runs": 200
    },
    "version": "0.8.3+commit.8d00100c"
  },
  "contractName": "MigratableMockV2",
  "language": "Solidity",
  "natspec": {
    "details": "This contract is a mock to test migratable functionality with params",
    "kind": "dev",
    "methods": {},
    "title": "MigratableMockV2",
    "version": 1
  },
  "opcodes": "PUSH1 0x80 PUSH1 0x40 MSTORE PUSH1 0x4 CALLDATASIZE LT PUSH2 0x3F JUMPI PUSH1 0x0 CALLDATALOAD PUSH1 0xE0 SHR DUP1 PUSH4 0xC55699C EQ PUSH2 0x44 JUMPI DUP1 PUSH4 0x3E54BACB EQ PUSH2 0x6C JUMPI DUP1 PUSH4 0xA56DFE4A EQ PUSH2 0x81 JUMPI DUP1 PUSH4 0xFE4B84DF EQ PUSH2 0x97 JUMPI JUMPDEST PUSH1 0x0 DUP1 REVERT JUMPDEST CALLVALUE DUP1 ISZERO PUSH2 0x50 JUMPI PUSH1 0x0 DUP1 REVERT JUMPDEST POP PUSH2 0x5A PUSH1 0x1 SLOAD DUP2 JUMP JUMPDEST PUSH1 0x40 MLOAD SWAP1 DUP2 MSTORE PUSH1 0x20 ADD PUSH1 0x40 MLOAD DUP1 SWAP2 SUB SWAP1 RETURN JUMPDEST PUSH2 0x7F PUSH2 0x7A CALLDATASIZE PUSH1 0x4 PUSH2 0x1A6 JUMP JUMPDEST PUSH2 0xAA JUMP JUMPDEST STOP JUMPDEST CALLVALUE DUP1 ISZERO PUSH2 0x8D JUMPI PUSH1 0x0 DUP1 REVERT JUMPDEST POP PUSH2 0x5A PUSH1 0x3 SLOAD DUP2 JUMP JUMPDEST PUSH2 0x7F PUSH2 0xA5 CALLDATASIZE PUSH1 0x4 PUSH2 0x18E JUMP JUMPDEST PUSH2 0xD1 JUMP JUMPDEST PUSH1 0x2 SLOAD PUSH1 0xFF AND ISZERO PUSH2 0xBA JUMPI PUSH1 0x0 DUP1 REVERT JUMPDEST PUSH1 0x1 SWAP2 DUP3 SSTORE PUSH1 0x3 SSTORE PUSH1 0x2 DUP1 SLOAD PUSH1 0xFF NOT AND SWAP1 SWAP2 OR SWAP1 SSTORE JUMP JUMPDEST PUSH1 0x0 SLOAD PUSH2 0x100 SWAP1 DIV PUSH1 0xFF AND DUP1 PUSH2 0xEA JUMPI POP PUSH1 0x0 SLOAD PUSH1 0xFF AND ISZERO JUMPDEST PUSH2 0x151 JUMPI PUSH1 0x40 MLOAD PUSH3 0x461BCD PUSH1 0xE5 SHL DUP2 MSTORE PUSH1 0x20 PUSH1 0x4 DUP3 ADD MSTORE PUSH1 0x2E PUSH1 0x24 DUP3 ADD MSTORE PUSH32 0x496E697469616C697A61626C653A20636F6E747261637420697320616C726561 PUSH1 0x44 DUP3 ADD MSTORE PUSH14 0x191E481A5B9A5D1A585B1A5E9959 PUSH1 0x92 SHL PUSH1 0x64 DUP3 ADD MSTORE PUSH1 0x84 ADD PUSH1 0x40 MLOAD DUP1 SWAP2 SUB SWAP1 REVERT JUMPDEST PUSH1 0x0 SLOAD PUSH2 0x100 SWAP1 DIV PUSH1 0xFF AND ISZERO DUP1 ISZERO PUSH2 0x173 JUMPI PUSH1 0x0 DUP1 SLOAD PUSH2 0xFFFF NOT AND PUSH2 0x101 OR SWAP1 SSTORE JUMPDEST PUSH1 0x1 DUP3 SWAP1 SSTORE DUP1 ISZERO PUSH2 0x18A JUMPI PUSH1 0x0 DUP1 SLOAD PUSH2 0xFF00 NOT AND SWAP1 SSTORE JUMPDEST POP POP JUMP JUMPDEST PUSH1 0x0 PUSH1 0x20 DUP3 DUP5 SUB SLT ISZERO PUSH2 0x19F JUMPI DUP1 DUP2 REVERT JUMPDEST POP CALLDATALOAD SWAP2 SWAP1 POP JUMP JUMPDEST PUSH1 0x0 DUP1 PUSH1 0x40 DUP4 DUP6 SUB SLT ISZERO PUSH2 0x1B8 JUMPI DUP1 DUP2 REVERT JUMPDEST POP POP DUP1 CALLDATALOAD SWAP3 PUSH1 0x20 SWAP1 SWAP2 ADD CALLDATALOAD SWAP2 POP JUMP INVALID LOG2 PUSH5 0x6970667358 0x22 SLT KECCAK256 0xA7 MULMOD 0xA9 LOG3 SSTORE EXTCODESIZE MSTORE SWAP7 RETURN 0xC6 0xAF 0xBA SWAP7 0xB9 0xDE SWAP1 PUSH16 0xCE89C78DDE1739D7890C171CBEF89064 PUSH20 0x6F6C634300080300330000000000000000000000 ",
  "sha1": "acdba022ff865ab9ff0b90093805c5d3bcdd3f91",
  "source": "// SPDX-License-Identifier: MIT\n\npragma solidity ^0.8.0;\n\nimport \"../proxy/utils/Initializable.sol\";\n\n/**\n * @title MigratableMockV1\n * @dev This contract is a mock to test initializable functionality through migrations\n */\ncontract MigratableMockV1 is Initializable {\n  uint256 public x;\n\n  function initialize(uint256 value) public payable initializer {\n    x = value;\n  }\n}\n\n/**\n * @title MigratableMockV2\n * @dev This contract is a mock to test migratable functionality with params\n */\ncontract MigratableMockV2 is MigratableMockV1 {\n  bool internal _migratedV2;\n  uint256 public y;\n\n  function migrate(uint256 value, uint256 anotherValue) public payable {\n    require(!_migratedV2);\n    x = value;\n    y = anotherValue;\n    _migratedV2 = true;\n  }\n}\n\n/**\n * @title MigratableMockV3\n * @dev This contract is a mock to test migratable functionality without params\n */\ncontract MigratableMockV3 is MigratableMockV2 {\n  bool internal _migratedV3;\n\n  function migrate() public payable {\n    require(!_migratedV3);\n    uint256 oldX = x;\n    x = y;\n    y = oldX;\n    _migratedV3 = true;\n  }\n}\n",
  "sourcePath": "contracts/openzeppelin-contracts/contracts/mocks/SingleInheritanceInitializableMocks.sol",
  "type": "contract"
}