{
  "abi": [
    {
      "inputs": [
        {
          "internalType": "int256",
          "name": "a",
          "type": "int256"
        }
      ],
      "name": "toInt128",
      "outputs": [
        {
          "internalType": "int128",
          "name": "",
          "type": "int128"
        }
      ],
      "stateMutability": "pure",
      "type": "function"
    },
    {
      "inputs": [
        {
          "internalType": "int256",
          "name": "a",
          "type": "int256"
        }
      ],
      "name": "toInt16",
      "outputs": [
        {
          "internalType": "int16",
          "name": "",
          "type": "int16"
        }
      ],
      "stateMutability": "pure",
      "type": "function"
    },
    {
      "inputs": [
        {
          "internalType": "uint256",
          "name": "a",
          "type": "uint256"
        }
      ],
      "name": "toInt256",
      "outputs": [
        {
          "internalType": "int256",
          "name": "",
          "type": "int256"
        }
      ],
      "stateMutability": "pure",
      "type": "function"
    },
    {
      "inputs": [
        {
          "internalType": "int256",
          "name": "a",
          "type": "int256"
        }
      ],
      "name": "toInt32",
      "outputs": [
        {
          "internalType": "int32",
          "name": "",
          "type": "int32"
        }
      ],
      "stateMutability": "pure",
      "type": "function"
    },
    {
      "inputs": [
        {
          "internalType": "int256",
          "name": "a",
          "type": "int256"
        }
      ],
      "name": "toInt64",
      "outputs": [
        {
          "internalType": "int64",
          "name": "",
          "type": "int64"
        }
      ],
      "stateMutability": "pure",
      "type": "function"
    },
    {
      "inputs": [
        {
          "internalType": "int256",
          "name": "a",
          "type": "int256"
        }
      ],
      "name": "toInt8",
      "outputs": [
        {
          "internalType": "int8",
          "name": "",
          "type": "int8"
        }
      ],
      "stateMutability": "pure",
      "type": "function"
    },
    {
      "inputs": [
        {
          "internalType": "uint256",
          "name": "a",
          "type": "uint256"
        }
      ],
      "name": "toUint128",
      "outputs": [
        {
          "internalType": "uint128",
          "name": "",
          "type": "uint128"
        }
      ],
      "stateMutability": "pure",
      "type": "function"
    },
    {
      "inputs": [
        {
          "internalType": "uint256",
          "name": "a",
          "type": "uint256"
        }
      ],
      "name": "toUint16",
      "outputs": [
        {
          "internalType": "uint16",
          "name": "",
          "type": "uint16"
        }
      ],
      "stateMutability": "pure",
      "type": "function"
    },
    {
      "inputs": [
        {
          "internalType": "int256",
          "name": "a",
          "type": "int256"
        }
      ],
      "name": "toUint256",
      "outputs": [
        {
          "internalType": "uint256",
          "name": "",
          "type": "uint256"
        }
      ],
      "stateMutability": "pure",
      "type": "function"
    },
    {
      "inputs": [
        {
          "internalType": "uint256",
          "name": "a",
          "type": "uint256"
        }
      ],
      "name": "toUint32",
      "outputs": [
        {
          "internalType": "uint32",
          "name": "",
          "type": "uint32"
        }
      ],
      "stateMutability": "pure",
      "type": "function"
    },
    {
      "inputs": [
        {
          "internalType": "uint256",
          "name": "a",
          "type": "uint256"
        }
      ],
      "name": "toUint64",
      "outputs": [
        {
          "internalType": "uint64",
          "name": "",
          "type": "uint64"
        }
      ],
      "stateMutability": "pure",
      "type": "function"
    },
    {
      "inputs": [
        {
          "internalType": "uint256",
          "name": "a",
          "type": "uint256"
        }
      ],
      "name": "toUint8",
      "outputs": [
        {
          "internalType": "uint8",
          "name": "",
          "type": "uint8"
        }
      ],
      "stateMutability": "pure",
      "type": "function"
    }
  ],
  "bytecode": "608060405234801561001057600080fd5b50610752806100206000396000f3fe608060405234801561001057600080fd5b50600436106100b45760003560e01c8063cf65b4d311610071578063cf65b4d3146101b7578063d6bd32aa146101dd578063dd2a031614610203578063dfbe873b14610229578063f136dc021461024a578063fdcf791b14610270576100b4565b80630cc4681e146100b95780632665fad0146100e3578063809fdd331461010f5780639374068f146101435780639c6f59be14610169578063c81932551461018f575b600080fd5b6100cc6100c73660046105a6565b610283565b60405160ff90911681526020015b60405180910390f35b6100f66100f13660046105a6565b610294565b60405167ffffffffffffffff90911681526020016100da565b61012261011d3660046105a6565b61029f565b6040516fffffffffffffffffffffffffffffffff90911681526020016100da565b6101566101513660046105a6565b6102aa565b60405161ffff90911681526020016100da565b61017c6101773660046105a6565b6102b5565b60405160039190910b81526020016100da565b6101a261019d3660046105a6565b6102c0565b60405163ffffffff90911681526020016100da565b6101ca6101c53660046105a6565b6102cb565b60405160019190910b81526020016100da565b6101f06101eb3660046105a6565b6102d6565b60405160079190910b81526020016100da565b6102166102113660046105a6565b6102e1565b604051600f9190910b81526020016100da565b61023c6102373660046105a6565b6102ec565b6040519081526020016100da565b61025d6102583660046105a6565b6102f7565b60405160009190910b81526020016100da565b61023c61027e3660046105a6565b610302565b600061028e8261030d565b92915050565b600061028e8261033d565b600061028e82610367565b600061028e8261038c565b600061028e826103b0565b600061028e826103e6565b600061028e8261040c565b600061028e8261043e565b600061028e8261047c565b600061028e826104be565b600061028e82610524565b600061028e82610554565b600061010082106103395760405162461bcd60e51b815260040161033090610604565b60405180910390fd5b5090565b60006801000000000000000082106103395760405162461bcd60e51b815260040161033090610690565b6000600160801b82106103395760405162461bcd60e51b815260040161033090610649565b60006201000082106103395760405162461bcd60e51b8152600401610330906105be565b6000637fffffff1982121580156103ca5750638000000082125b6103395760405162461bcd60e51b8152600401610330906106d6565b600064010000000082106103395760405162461bcd60e51b8152600401610330906106d6565b6000617fff198212158015610422575061800082125b6103395760405162461bcd60e51b8152600401610330906105be565b6000677fffffffffffffff198212158015610460575067800000000000000082125b6103395760405162461bcd60e51b815260040161033090610690565b60006f7fffffffffffffffffffffffffffffff1982121580156104a257506001607f1b82125b6103395760405162461bcd60e51b815260040161033090610649565b6000600160ff1b82106103395760405162461bcd60e51b815260206004820152602860248201527f53616665436173743a2076616c756520646f65736e27742066697420696e2061604482015267371034b73a191a9b60c11b6064820152608401610330565b6000607f1982121580156105385750608082125b6103395760405162461bcd60e51b815260040161033090610604565b6000808212156103395760405162461bcd60e51b815260206004820181905260248201527f53616665436173743a2076616c7565206d75737420626520706f7369746976656044820152606401610330565b6000602082840312156105b7578081fd5b5035919050565b60208082526026908201527f53616665436173743a2076616c756520646f65736e27742066697420696e203160408201526536206269747360d01b606082015260800190565b60208082526025908201527f53616665436173743a2076616c756520646f65736e27742066697420696e2038604082015264206269747360d81b606082015260800190565b60208082526027908201527f53616665436173743a2076616c756520646f65736e27742066697420696e20316040820152663238206269747360c81b606082015260800190565b60208082526026908201527f53616665436173743a2076616c756520646f65736e27742066697420696e203660408201526534206269747360d01b606082015260800190565b60208082526026908201527f53616665436173743a2076616c756520646f65736e27742066697420696e203360408201526532206269747360d01b60608201526080019056fea2646970667358221220e2237ed1b526826ca5cee10e36cfb1032347486065b0e1ed4433d40764f32cdc64736f6c63430008030033",
  "bytecodeSha1": "80f874f605e4102eeb4097f6824a979b0547597e",
  "compiler": {
    "evm_version": "istanbul",
    "optimizer": {
      "enabled": true,
      "runs": 200
    },
    "version": "0.8.3+commit.8d00100c"
  },
  "contractName": "SafeCastMock",
  "language": "Solidity",
  "natspec": {
    "kind": "dev",
    "methods": {},
    "version": 1
  },
  "opcodes": "PUSH1 0x80 PUSH1 0x40 MSTORE CALLVALUE DUP1 ISZERO PUSH2 0x10 JUMPI PUSH1 0x0 DUP1 REVERT JUMPDEST POP PUSH1 0x4 CALLDATASIZE LT PUSH2 0xB4 JUMPI PUSH1 0x0 CALLDATALOAD PUSH1 0xE0 SHR DUP1 PUSH4 0xCF65B4D3 GT PUSH2 0x71 JUMPI DUP1 PUSH4 0xCF65B4D3 EQ PUSH2 0x1B7 JUMPI DUP1 PUSH4 0xD6BD32AA EQ PUSH2 0x1DD JUMPI DUP1 PUSH4 0xDD2A0316 EQ PUSH2 0x203 JUMPI DUP1 PUSH4 0xDFBE873B EQ PUSH2 0x229 JUMPI DUP1 PUSH4 0xF136DC02 EQ PUSH2 0x24A JUMPI DUP1 PUSH4 0xFDCF791B EQ PUSH2 0x270 JUMPI PUSH2 0xB4 JUMP JUMPDEST DUP1 PUSH4 0xCC4681E EQ PUSH2 0xB9 JUMPI DUP1 PUSH4 0x2665FAD0 EQ PUSH2 0xE3 JUMPI DUP1 PUSH4 0x809FDD33 EQ PUSH2 0x10F JUMPI DUP1 PUSH4 0x9374068F EQ PUSH2 0x143 JUMPI DUP1 PUSH4 0x9C6F59BE EQ PUSH2 0x169 JUMPI DUP1 PUSH4 0xC8193255 EQ PUSH2 0x18F JUMPI JUMPDEST PUSH1 0x0 DUP1 REVERT JUMPDEST PUSH2 0xCC PUSH2 0xC7 CALLDATASIZE PUSH1 0x4 PUSH2 0x5A6 JUMP JUMPDEST PUSH2 0x283 JUMP JUMPDEST PUSH1 0x40 MLOAD PUSH1 0xFF SWAP1 SWAP2 AND DUP2 MSTORE PUSH1 0x20 ADD JUMPDEST PUSH1 0x40 MLOAD DUP1 SWAP2 SUB SWAP1 RETURN JUMPDEST PUSH2 0xF6 PUSH2 0xF1 CALLDATASIZE PUSH1 0x4 PUSH2 0x5A6 JUMP JUMPDEST PUSH2 0x294 JUMP JUMPDEST PUSH1 0x40 MLOAD PUSH8 0xFFFFFFFFFFFFFFFF SWAP1 SWAP2 AND DUP2 MSTORE PUSH1 0x20 ADD PUSH2 0xDA JUMP JUMPDEST PUSH2 0x122 PUSH2 0x11D CALLDATASIZE PUSH1 0x4 PUSH2 0x5A6 JUMP JUMPDEST PUSH2 0x29F JUMP JUMPDEST PUSH1 0x40 MLOAD PUSH16 0xFFFFFFFFFFFFFFFFFFFFFFFFFFFFFFFF SWAP1 SWAP2 AND DUP2 MSTORE PUSH1 0x20 ADD PUSH2 0xDA JUMP JUMPDEST PUSH2 0x156 PUSH2 0x151 CALLDATASIZE PUSH1 0x4 PUSH2 0x5A6 JUMP JUMPDEST PUSH2 0x2AA JUMP JUMPDEST PUSH1 0x40 MLOAD PUSH2 0xFFFF SWAP1 SWAP2 AND DUP2 MSTORE PUSH1 0x20 ADD PUSH2 0xDA JUMP JUMPDEST PUSH2 0x17C PUSH2 0x177 CALLDATASIZE PUSH1 0x4 PUSH2 0x5A6 JUMP JUMPDEST PUSH2 0x2B5 JUMP JUMPDEST PUSH1 0x40 MLOAD PUSH1 0x3 SWAP2 SWAP1 SWAP2 SIGNEXTEND DUP2 MSTORE PUSH1 0x20 ADD PUSH2 0xDA JUMP JUMPDEST PUSH2 0x1A2 PUSH2 0x19D CALLDATASIZE PUSH1 0x4 PUSH2 0x5A6 JUMP JUMPDEST PUSH2 0x2C0 JUMP JUMPDEST PUSH1 0x40 MLOAD PUSH4 0xFFFFFFFF SWAP1 SWAP2 AND DUP2 MSTORE PUSH1 0x20 ADD PUSH2 0xDA JUMP JUMPDEST PUSH2 0x1CA PUSH2 0x1C5 CALLDATASIZE PUSH1 0x4 PUSH2 0x5A6 JUMP JUMPDEST PUSH2 0x2CB JUMP JUMPDEST PUSH1 0x40 MLOAD PUSH1 0x1 SWAP2 SWAP1 SWAP2 SIGNEXTEND DUP2 MSTORE PUSH1 0x20 ADD PUSH2 0xDA JUMP JUMPDEST PUSH2 0x1F0 PUSH2 0x1EB CALLDATASIZE PUSH1 0x4 PUSH2 0x5A6 JUMP JUMPDEST PUSH2 0x2D6 JUMP JUMPDEST PUSH1 0x40 MLOAD PUSH1 0x7 SWAP2 SWAP1 SWAP2 SIGNEXTEND DUP2 MSTORE PUSH1 0x20 ADD PUSH2 0xDA JUMP JUMPDEST PUSH2 0x216 PUSH2 0x211 CALLDATASIZE PUSH1 0x4 PUSH2 0x5A6 JUMP JUMPDEST PUSH2 0x2E1 JUMP JUMPDEST PUSH1 0x40 MLOAD PUSH1 0xF SWAP2 SWAP1 SWAP2 SIGNEXTEND DUP2 MSTORE PUSH1 0x20 ADD PUSH2 0xDA JUMP JUMPDEST PUSH2 0x23C PUSH2 0x237 CALLDATASIZE PUSH1 0x4 PUSH2 0x5A6 JUMP JUMPDEST PUSH2 0x2EC JUMP JUMPDEST PUSH1 0x40 MLOAD SWAP1 DUP2 MSTORE PUSH1 0x20 ADD PUSH2 0xDA JUMP JUMPDEST PUSH2 0x25D PUSH2 0x258 CALLDATASIZE PUSH1 0x4 PUSH2 0x5A6 JUMP JUMPDEST PUSH2 0x2F7 JUMP JUMPDEST PUSH1 0x40 MLOAD PUSH1 0x0 SWAP2 SWAP1 SWAP2 SIGNEXTEND DUP2 MSTORE PUSH1 0x20 ADD PUSH2 0xDA JUMP JUMPDEST PUSH2 0x23C PUSH2 0x27E CALLDATASIZE PUSH1 0x4 PUSH2 0x5A6 JUMP JUMPDEST PUSH2 0x302 JUMP JUMPDEST PUSH1 0x0 PUSH2 0x28E DUP3 PUSH2 0x30D JUMP JUMPDEST SWAP3 SWAP2 POP POP JUMP JUMPDEST PUSH1 0x0 PUSH2 0x28E DUP3 PUSH2 0x33D JUMP JUMPDEST PUSH1 0x0 PUSH2 0x28E DUP3 PUSH2 0x367 JUMP JUMPDEST PUSH1 0x0 PUSH2 0x28E DUP3 PUSH2 0x38C JUMP JUMPDEST PUSH1 0x0 PUSH2 0x28E DUP3 PUSH2 0x3B0 JUMP JUMPDEST PUSH1 0x0 PUSH2 0x28E DUP3 PUSH2 0x3E6 JUMP JUMPDEST PUSH1 0x0 PUSH2 0x28E DUP3 PUSH2 0x40C JUMP JUMPDEST PUSH1 0x0 PUSH2 0x28E DUP3 PUSH2 0x43E JUMP JUMPDEST PUSH1 0x0 PUSH2 0x28E DUP3 PUSH2 0x47C JUMP JUMPDEST PUSH1 0x0 PUSH2 0x28E DUP3 PUSH2 0x4BE JUMP JUMPDEST PUSH1 0x0 PUSH2 0x28E DUP3 PUSH2 0x524 JUMP JUMPDEST PUSH1 0x0 PUSH2 0x28E DUP3 PUSH2 0x554 JUMP JUMPDEST PUSH1 0x0 PUSH2 0x100 DUP3 LT PUSH2 0x339 JUMPI PUSH1 0x40 MLOAD PUSH3 0x461BCD PUSH1 0xE5 SHL DUP2 MSTORE PUSH1 0x4 ADD PUSH2 0x330 SWAP1 PUSH2 0x604 JUMP JUMPDEST PUSH1 0x40 MLOAD DUP1 SWAP2 SUB SWAP1 REVERT JUMPDEST POP SWAP1 JUMP JUMPDEST PUSH1 0x0 PUSH9 0x10000000000000000 DUP3 LT PUSH2 0x339 JUMPI PUSH1 0x40 MLOAD PUSH3 0x461BCD PUSH1 0xE5 SHL DUP2 MSTORE PUSH1 0x4 ADD PUSH2 0x330 SWAP1 PUSH2 0x690 JUMP JUMPDEST PUSH1 0x0 PUSH1 0x1 PUSH1 0x80 SHL DUP3 LT PUSH2 0x339 JUMPI PUSH1 0x40 MLOAD PUSH3 0x461BCD PUSH1 0xE5 SHL DUP2 MSTORE PUSH1 0x4 ADD PUSH2 0x330 SWAP1 PUSH2 0x649 JUMP JUMPDEST PUSH1 0x0 PUSH3 0x10000 DUP3 LT PUSH2 0x339 JUMPI PUSH1 0x40 MLOAD PUSH3 0x461BCD PUSH1 0xE5 SHL DUP2 MSTORE PUSH1 0x4 ADD PUSH2 0x330 SWAP1 PUSH2 0x5BE JUMP JUMPDEST PUSH1 0x0 PUSH4 0x7FFFFFFF NOT DUP3 SLT ISZERO DUP1 ISZERO PUSH2 0x3CA JUMPI POP PUSH4 0x80000000 DUP3 SLT JUMPDEST PUSH2 0x339 JUMPI PUSH1 0x40 MLOAD PUSH3 0x461BCD PUSH1 0xE5 SHL DUP2 MSTORE PUSH1 0x4 ADD PUSH2 0x330 SWAP1 PUSH2 0x6D6 JUMP JUMPDEST PUSH1 0x0 PUSH5 0x100000000 DUP3 LT PUSH2 0x339 JUMPI PUSH1 0x40 MLOAD PUSH3 0x461BCD PUSH1 0xE5 SHL DUP2 MSTORE PUSH1 0x4 ADD PUSH2 0x330 SWAP1 PUSH2 0x6D6 JUMP JUMPDEST PUSH1 0x0 PUSH2 0x7FFF NOT DUP3 SLT ISZERO DUP1 ISZERO PUSH2 0x422 JUMPI POP PUSH2 0x8000 DUP3 SLT JUMPDEST PUSH2 0x339 JUMPI PUSH1 0x40 MLOAD PUSH3 0x461BCD PUSH1 0xE5 SHL DUP2 MSTORE PUSH1 0x4 ADD PUSH2 0x330 SWAP1 PUSH2 0x5BE JUMP JUMPDEST PUSH1 0x0 PUSH8 0x7FFFFFFFFFFFFFFF NOT DUP3 SLT ISZERO DUP1 ISZERO PUSH2 0x460 JUMPI POP PUSH8 0x8000000000000000 DUP3 SLT JUMPDEST PUSH2 0x339 JUMPI PUSH1 0x40 MLOAD PUSH3 0x461BCD PUSH1 0xE5 SHL DUP2 MSTORE PUSH1 0x4 ADD PUSH2 0x330 SWAP1 PUSH2 0x690 JUMP JUMPDEST PUSH1 0x0 PUSH16 0x7FFFFFFFFFFFFFFFFFFFFFFFFFFFFFFF NOT DUP3 SLT ISZERO DUP1 ISZERO PUSH2 0x4A2 JUMPI POP PUSH1 0x1 PUSH1 0x7F SHL DUP3 SLT JUMPDEST PUSH2 0x339 JUMPI PUSH1 0x40 MLOAD PUSH3 0x461BCD PUSH1 0xE5 SHL DUP2 MSTORE PUSH1 0x4 ADD PUSH2 0x330 SWAP1 PUSH2 0x649 JUMP JUMPDEST PUSH1 0x0 PUSH1 0x1 PUSH1 0xFF SHL DUP3 LT PUSH2 0x339 JUMPI PUSH1 0x40 MLOAD PUSH3 0x461BCD PUSH1 0xE5 SHL DUP2 MSTORE PUSH1 0x20 PUSH1 0x4 DUP3 ADD MSTORE PUSH1 0x28 PUSH1 0x24 DUP3 ADD MSTORE PUSH32 0x53616665436173743A2076616C756520646F65736E27742066697420696E2061 PUSH1 0x44 DUP3 ADD MSTORE PUSH8 0x371034B73A191A9B PUSH1 0xC1 SHL PUSH1 0x64 DUP3 ADD MSTORE PUSH1 0x84 ADD PUSH2 0x330 JUMP JUMPDEST PUSH1 0x0 PUSH1 0x7F NOT DUP3 SLT ISZERO DUP1 ISZERO PUSH2 0x538 JUMPI POP PUSH1 0x80 DUP3 SLT JUMPDEST PUSH2 0x339 JUMPI PUSH1 0x40 MLOAD PUSH3 0x461BCD PUSH1 0xE5 SHL DUP2 MSTORE PUSH1 0x4 ADD PUSH2 0x330 SWAP1 PUSH2 0x604 JUMP JUMPDEST PUSH1 0x0 DUP1 DUP3 SLT ISZERO PUSH2 0x339 JUMPI PUSH1 0x40 MLOAD PUSH3 0x461BCD PUSH1 0xE5 SHL DUP2 MSTORE PUSH1 0x20 PUSH1 0x4 DUP3 ADD DUP2 SWAP1 MSTORE PUSH1 0x24 DUP3 ADD MSTORE PUSH32 0x53616665436173743A2076616C7565206D75737420626520706F736974697665 PUSH1 0x44 DUP3 ADD MSTORE PUSH1 0x64 ADD PUSH2 0x330 JUMP JUMPDEST PUSH1 0x0 PUSH1 0x20 DUP3 DUP5 SUB SLT ISZERO PUSH2 0x5B7 JUMPI DUP1 DUP2 REVERT JUMPDEST POP CALLDATALOAD SWAP2 SWAP1 POP JUMP JUMPDEST PUSH1 0x20 DUP1 DUP3 MSTORE PUSH1 0x26 SWAP1 DUP3 ADD MSTORE PUSH32 0x53616665436173743A2076616C756520646F65736E27742066697420696E2031 PUSH1 0x40 DUP3 ADD MSTORE PUSH6 0x362062697473 PUSH1 0xD0 SHL PUSH1 0x60 DUP3 ADD MSTORE PUSH1 0x80 ADD SWAP1 JUMP JUMPDEST PUSH1 0x20 DUP1 DUP3 MSTORE PUSH1 0x25 SWAP1 DUP3 ADD MSTORE PUSH32 0x53616665436173743A2076616C756520646F65736E27742066697420696E2038 PUSH1 0x40 DUP3 ADD MSTORE PUSH5 0x2062697473 PUSH1 0xD8 SHL PUSH1 0x60 DUP3 ADD MSTORE PUSH1 0x80 ADD SWAP1 JUMP JUMPDEST PUSH1 0x20 DUP1 DUP3 MSTORE PUSH1 0x27 SWAP1 DUP3 ADD MSTORE PUSH32 0x53616665436173743A2076616C756520646F65736E27742066697420696E2031 PUSH1 0x40 DUP3 ADD MSTORE PUSH7 0x32382062697473 PUSH1 0xC8 SHL PUSH1 0x60 DUP3 ADD MSTORE PUSH1 0x80 ADD SWAP1 JUMP JUMPDEST PUSH1 0x20 DUP1 DUP3 MSTORE PUSH1 0x26 SWAP1 DUP3 ADD MSTORE PUSH32 0x53616665436173743A2076616C756520646F65736E27742066697420696E2036 PUSH1 0x40 DUP3 ADD MSTORE PUSH6 0x342062697473 PUSH1 0xD0 SHL PUSH1 0x60 DUP3 ADD MSTORE PUSH1 0x80 ADD SWAP1 JUMP JUMPDEST PUSH1 0x20 DUP1 DUP3 MSTORE PUSH1 0x26 SWAP1 DUP3 ADD MSTORE PUSH32 0x53616665436173743A2076616C756520646F65736E27742066697420696E2033 PUSH1 0x40 DUP3 ADD MSTORE PUSH6 0x322062697473 PUSH1 0xD0 SHL PUSH1 0x60 DUP3 ADD MSTORE PUSH1 0x80 ADD SWAP1 JUMP INVALID LOG2 PUSH5 0x6970667358 0x22 SLT KECCAK256 0xE2 0x23 PUSH31 0xD1B526826CA5CEE10E36CFB1032347486065B0E1ED4433D40764F32CDC6473 PUSH16 0x6C634300080300330000000000000000 ",
  "sha1": "bb122ccdba214b02fcbc02a994a2b27a8b8cd252",
  "source": "// SPDX-License-Identifier: MIT\n\npragma solidity ^0.8.0;\n\nimport \"../utils/math/SafeCast.sol\";\n\ncontract SafeCastMock {\n    using SafeCast for uint;\n    using SafeCast for int;\n\n    function toUint256(int a) public pure returns (uint256) {\n        return a.toUint256();\n    }\n\n    function toInt256(uint a) public pure returns (int256) {\n        return a.toInt256();\n    }\n\n    function toUint128(uint a) public pure returns (uint128) {\n        return a.toUint128();\n    }\n\n    function toUint64(uint a) public pure returns (uint64) {\n        return a.toUint64();\n    }\n\n    function toUint32(uint a) public pure returns (uint32) {\n        return a.toUint32();\n    }\n\n    function toUint16(uint a) public pure returns (uint16) {\n        return a.toUint16();\n    }\n\n    function toUint8(uint a) public pure returns (uint8) {\n        return a.toUint8();\n    }\n\n    function toInt128(int a) public pure returns (int128) {\n        return a.toInt128();\n    }\n\n    function toInt64(int a) public pure returns (int64) {\n        return a.toInt64();\n    }\n\n    function toInt32(int a) public pure returns (int32) {\n        return a.toInt32();\n    }\n\n    function toInt16(int a) public pure returns (int16) {\n        return a.toInt16();\n    }\n\n    function toInt8(int a) public pure returns (int8) {\n        return a.toInt8();\n    }\n}\n",
  "sourcePath": "contracts/openzeppelin-contracts/contracts/mocks/SafeCastMock.sol",
  "type": "contract"
}