{
  "abi": [
    {
      "inputs": [],
      "name": "addMemoryCheck",
      "outputs": [
        {
          "internalType": "uint256",
          "name": "mem",
          "type": "uint256"
        }
      ],
      "stateMutability": "pure",
      "type": "function"
    },
    {
      "inputs": [],
      "name": "divMemoryCheck",
      "outputs": [
        {
          "internalType": "uint256",
          "name": "mem",
          "type": "uint256"
        }
      ],
      "stateMutability": "pure",
      "type": "function"
    },
    {
      "inputs": [
        {
          "internalType": "uint256",
          "name": "a",
          "type": "uint256"
        },
        {
          "internalType": "uint256",
          "name": "b",
          "type": "uint256"
        },
        {
          "internalType": "string",
          "name": "errorMessage",
          "type": "string"
        }
      ],
      "name": "divWithMessage",
      "outputs": [
        {
          "internalType": "uint256",
          "name": "",
          "type": "uint256"
        }
      ],
      "stateMutability": "pure",
      "type": "function"
    },
    {
      "inputs": [
        {
          "internalType": "uint256",
          "name": "a",
          "type": "uint256"
        },
        {
          "internalType": "uint256",
          "name": "b",
          "type": "uint256"
        }
      ],
      "name": "doAdd",
      "outputs": [
        {
          "internalType": "uint256",
          "name": "",
          "type": "uint256"
        }
      ],
      "stateMutability": "pure",
      "type": "function"
    },
    {
      "inputs": [
        {
          "internalType": "uint256",
          "name": "a",
          "type": "uint256"
        },
        {
          "internalType": "uint256",
          "name": "b",
          "type": "uint256"
        }
      ],
      "name": "doDiv",
      "outputs": [
        {
          "internalType": "uint256",
          "name": "",
          "type": "uint256"
        }
      ],
      "stateMutability": "pure",
      "type": "function"
    },
    {
      "inputs": [
        {
          "internalType": "uint256",
          "name": "a",
          "type": "uint256"
        },
        {
          "internalType": "uint256",
          "name": "b",
          "type": "uint256"
        }
      ],
      "name": "doMod",
      "outputs": [
        {
          "internalType": "uint256",
          "name": "",
          "type": "uint256"
        }
      ],
      "stateMutability": "pure",
      "type": "function"
    },
    {
      "inputs": [
        {
          "internalType": "uint256",
          "name": "a",
          "type": "uint256"
        },
        {
          "internalType": "uint256",
          "name": "b",
          "type": "uint256"
        }
      ],
      "name": "doMul",
      "outputs": [
        {
          "internalType": "uint256",
          "name": "",
          "type": "uint256"
        }
      ],
      "stateMutability": "pure",
      "type": "function"
    },
    {
      "inputs": [
        {
          "internalType": "uint256",
          "name": "a",
          "type": "uint256"
        },
        {
          "internalType": "uint256",
          "name": "b",
          "type": "uint256"
        }
      ],
      "name": "doSub",
      "outputs": [
        {
          "internalType": "uint256",
          "name": "",
          "type": "uint256"
        }
      ],
      "stateMutability": "pure",
      "type": "function"
    },
    {
      "inputs": [],
      "name": "modMemoryCheck",
      "outputs": [
        {
          "internalType": "uint256",
          "name": "mem",
          "type": "uint256"
        }
      ],
      "stateMutability": "pure",
      "type": "function"
    },
    {
      "inputs": [
        {
          "internalType": "uint256",
          "name": "a",
          "type": "uint256"
        },
        {
          "internalType": "uint256",
          "name": "b",
          "type": "uint256"
        },
        {
          "internalType": "string",
          "name": "errorMessage",
          "type": "string"
        }
      ],
      "name": "modWithMessage",
      "outputs": [
        {
          "internalType": "uint256",
          "name": "",
          "type": "uint256"
        }
      ],
      "stateMutability": "pure",
      "type": "function"
    },
    {
      "inputs": [],
      "name": "mulMemoryCheck",
      "outputs": [
        {
          "internalType": "uint256",
          "name": "mem",
          "type": "uint256"
        }
      ],
      "stateMutability": "pure",
      "type": "function"
    },
    {
      "inputs": [],
      "name": "subMemoryCheck",
      "outputs": [
        {
          "internalType": "uint256",
          "name": "mem",
          "type": "uint256"
        }
      ],
      "stateMutability": "pure",
      "type": "function"
    },
    {
      "inputs": [
        {
          "internalType": "uint256",
          "name": "a",
          "type": "uint256"
        },
        {
          "internalType": "uint256",
          "name": "b",
          "type": "uint256"
        },
        {
          "internalType": "string",
          "name": "errorMessage",
          "type": "string"
        }
      ],
      "name": "subWithMessage",
      "outputs": [
        {
          "internalType": "uint256",
          "name": "",
          "type": "uint256"
        }
      ],
      "stateMutability": "pure",
      "type": "function"
    },
    {
      "inputs": [
        {
          "internalType": "uint256",
          "name": "a",
          "type": "uint256"
        },
        {
          "internalType": "uint256",
          "name": "b",
          "type": "uint256"
        }
      ],
      "name": "tryAdd",
      "outputs": [
        {
          "internalType": "bool",
          "name": "flag",
          "type": "bool"
        },
        {
          "internalType": "uint256",
          "name": "value",
          "type": "uint256"
        }
      ],
      "stateMutability": "pure",
      "type": "function"
    },
    {
      "inputs": [
        {
          "internalType": "uint256",
          "name": "a",
          "type": "uint256"
        },
        {
          "internalType": "uint256",
          "name": "b",
          "type": "uint256"
        }
      ],
      "name": "tryDiv",
      "outputs": [
        {
          "internalType": "bool",
          "name": "flag",
          "type": "bool"
        },
        {
          "internalType": "uint256",
          "name": "value",
          "type": "uint256"
        }
      ],
      "stateMutability": "pure",
      "type": "function"
    },
    {
      "inputs": [
        {
          "internalType": "uint256",
          "name": "a",
          "type": "uint256"
        },
        {
          "internalType": "uint256",
          "name": "b",
          "type": "uint256"
        }
      ],
      "name": "tryMod",
      "outputs": [
        {
          "internalType": "bool",
          "name": "flag",
          "type": "bool"
        },
        {
          "internalType": "uint256",
          "name": "value",
          "type": "uint256"
        }
      ],
      "stateMutability": "pure",
      "type": "function"
    },
    {
      "inputs": [
        {
          "internalType": "uint256",
          "name": "a",
          "type": "uint256"
        },
        {
          "internalType": "uint256",
          "name": "b",
          "type": "uint256"
        }
      ],
      "name": "tryMul",
      "outputs": [
        {
          "internalType": "bool",
          "name": "flag",
          "type": "bool"
        },
        {
          "internalType": "uint256",
          "name": "value",
          "type": "uint256"
        }
      ],
      "stateMutability": "pure",
      "type": "function"
    },
    {
      "inputs": [
        {
          "internalType": "uint256",
          "name": "a",
          "type": "uint256"
        },
        {
          "internalType": "uint256",
          "name": "b",
          "type": "uint256"
        }
      ],
      "name": "trySub",
      "outputs": [
        {
          "internalType": "bool",
          "name": "flag",
          "type": "bool"
        },
        {
          "internalType": "uint256",
          "name": "value",
          "type": "uint256"
        }
      ],
      "stateMutability": "pure",
      "type": "function"
    }
  ],
  "bytecode": "608060405234801561001057600080fd5b50610852806100206000396000f3fe608060405234801561001057600080fd5b50600436106101165760003560e01c80639f5cec89116100a2578063dcc721d211610071578063dcc721d21461021b578063fb1191981461022e578063fb24c86014610241578063fb999ded14610249578063fc0ce5031461025157610116565b80639f5cec89146101da578063a155bd62146101ed578063a29962b114610200578063c460ae041461021357610116565b80636f91e802116100e95780636f91e80214610191578063736ecb18146101995780637e86d25c146101ac578063869f602f146101b4578063884557bf146101c757610116565b80633449b5fb1461011b57806338dc0867146101415780636281efa41461016b5780636c7ac6371461017e575b600080fd5b61012e610129366004610637565b610264565b6040519081526020015b60405180910390f35b61015461014f366004610616565b610279565b604080519215158352602083019190915201610138565b610154610179366004610616565b610292565b61012e61018c366004610616565b61029f565b61012e6102b2565b6101546101a7366004610616565b6102e7565b61012e6102f4565b61012e6101c2366004610616565b610320565b6101546101d5366004610616565b61032c565b61012e6101e8366004610637565b610339565b61012e6101fb366004610637565b610346565b61015461020e366004610616565b610353565b61012e610360565b61012e610229366004610616565b61038c565b61012e61023c366004610616565b610398565b61012e6103a4565b61012e6103d0565b61012e61025f366004610616565b6103fc565b6000610271848484610408565b949350505050565b6000806102868484610459565b915091505b9250929050565b6000806102868484610497565b60006102ab83836104eb565b9392505050565b604051602060005b818110156102de576102cd6001806104f7565b506102d7816107ab565b90506102ba565b50506040510390565b6000806102868484610503565b604051602060005b818110156102de5761030f600180610541565b50610319816107ab565b90506102fc565b60006102ab83836104f7565b600080610286848461054d565b6000610271848484610568565b6000610271848484610594565b60008061028684846105dc565b604051602060005b818110156102de5761037b6001806105fe565b50610385816107ab565b9050610368565b60006102ab838361060a565b60006102ab8383610541565b604051602060005b818110156102de576103bf60018061060a565b506103c9816107ab565b90506103ac565b604051602060005b818110156102de576103eb6001806104eb565b506103f5816107ab565b90506103d8565b60006102ab83836105fe565b600081836104325760405162461bcd60e51b815260040161042991906106f6565b60405180910390fd5b5082848161045057634e487b7160e01b600052601260045260246000fd5b04949350505050565b6000808261046c5750600090508061028b565b600183858161048b57634e487b7160e01b600052601260045260246000fd5b06915091509250929050565b600080836104ab575060019050600061028b565b838302838582816104cc57634e487b7160e01b600052601260045260246000fd5b04146104df57600080925092505061028b565b60019590945092505050565b60006102ab8284610794565b60006102ab82846107c6565b600080826105165750600090508061028b565b600183858161053557634e487b7160e01b600052601260045260246000fd5b04915091509250929050565b60006102ab8284610775565b600080838301848110156104df57600080925092505061028b565b6000818484111561058c5760405162461bcd60e51b815260040161042991906106f6565b505050900390565b600081836105b55760405162461bcd60e51b815260040161042991906106f6565b508284816105d357634e487b7160e01b600052601260045260246000fd5b06949350505050565b600080838311156105f25750600090508061028b565b50600193919092039150565b60006102ab8284610761565b60006102ab8284610749565b60008060408385031215610628578182fd5b50508035926020909101359150565b60008060006060848603121561064b578081fd5b8335925060208401359150604084013567ffffffffffffffff80821115610670578283fd5b818601915086601f830112610683578283fd5b81358181111561069557610695610806565b604051601f8201601f19908116603f011681019083821181831017156106bd576106bd610806565b816040528281528960208487010111156106d5578586fd5b82602086016020830137856020848301015280955050505050509250925092565b6000602080835283518082850152825b8181101561072257858101830151858201604001528201610706565b818111156107335783604083870101525b50601f01601f1916929092016040019392505050565b6000821982111561075c5761075c6107da565b500190565b600082610770576107706107f0565b500490565b600081600019048311821515161561078f5761078f6107da565b500290565b6000828210156107a6576107a66107da565b500390565b60006000198214156107bf576107bf6107da565b5060010190565b6000826107d5576107d56107f0565b500690565b634e487b7160e01b600052601160045260246000fd5b634e487b7160e01b600052601260045260246000fd5b634e487b7160e01b600052604160045260246000fdfea2646970667358221220cbe6d17acb851eb0ffd98767db975704848d26408c802c62d6cde696e9051a2564736f6c63430008030033",
  "bytecodeSha1": "b384cb1e9844a394eaeed28b19219271d9e243e1",
  "compiler": {
    "evm_version": "istanbul",
    "optimizer": {
      "enabled": true,
      "runs": 200
    },
    "version": "0.8.3+commit.8d00100c"
  },
  "contractName": "SafeMathMock",
  "language": "Solidity",
  "natspec": {
    "kind": "dev",
    "methods": {},
    "version": 1
  },
  "opcodes": "PUSH1 0x80 PUSH1 0x40 MSTORE CALLVALUE DUP1 ISZERO PUSH2 0x10 JUMPI PUSH1 0x0 DUP1 REVERT JUMPDEST POP PUSH1 0x4 CALLDATASIZE LT PUSH2 0x116 JUMPI PUSH1 0x0 CALLDATALOAD PUSH1 0xE0 SHR DUP1 PUSH4 0x9F5CEC89 GT PUSH2 0xA2 JUMPI DUP1 PUSH4 0xDCC721D2 GT PUSH2 0x71 JUMPI DUP1 PUSH4 0xDCC721D2 EQ PUSH2 0x21B JUMPI DUP1 PUSH4 0xFB119198 EQ PUSH2 0x22E JUMPI DUP1 PUSH4 0xFB24C860 EQ PUSH2 0x241 JUMPI DUP1 PUSH4 0xFB999DED EQ PUSH2 0x249 JUMPI DUP1 PUSH4 0xFC0CE503 EQ PUSH2 0x251 JUMPI PUSH2 0x116 JUMP JUMPDEST DUP1 PUSH4 0x9F5CEC89 EQ PUSH2 0x1DA JUMPI DUP1 PUSH4 0xA155BD62 EQ PUSH2 0x1ED JUMPI DUP1 PUSH4 0xA29962B1 EQ PUSH2 0x200 JUMPI DUP1 PUSH4 0xC460AE04 EQ PUSH2 0x213 JUMPI PUSH2 0x116 JUMP JUMPDEST DUP1 PUSH4 0x6F91E802 GT PUSH2 0xE9 JUMPI DUP1 PUSH4 0x6F91E802 EQ PUSH2 0x191 JUMPI DUP1 PUSH4 0x736ECB18 EQ PUSH2 0x199 JUMPI DUP1 PUSH4 0x7E86D25C EQ PUSH2 0x1AC JUMPI DUP1 PUSH4 0x869F602F EQ PUSH2 0x1B4 JUMPI DUP1 PUSH4 0x884557BF EQ PUSH2 0x1C7 JUMPI PUSH2 0x116 JUMP JUMPDEST DUP1 PUSH4 0x3449B5FB EQ PUSH2 0x11B JUMPI DUP1 PUSH4 0x38DC0867 EQ PUSH2 0x141 JUMPI DUP1 PUSH4 0x6281EFA4 EQ PUSH2 0x16B JUMPI DUP1 PUSH4 0x6C7AC637 EQ PUSH2 0x17E JUMPI JUMPDEST PUSH1 0x0 DUP1 REVERT JUMPDEST PUSH2 0x12E PUSH2 0x129 CALLDATASIZE PUSH1 0x4 PUSH2 0x637 JUMP JUMPDEST PUSH2 0x264 JUMP JUMPDEST PUSH1 0x40 MLOAD SWAP1 DUP2 MSTORE PUSH1 0x20 ADD JUMPDEST PUSH1 0x40 MLOAD DUP1 SWAP2 SUB SWAP1 RETURN JUMPDEST PUSH2 0x154 PUSH2 0x14F CALLDATASIZE PUSH1 0x4 PUSH2 0x616 JUMP JUMPDEST PUSH2 0x279 JUMP JUMPDEST PUSH1 0x40 DUP1 MLOAD SWAP3 ISZERO ISZERO DUP4 MSTORE PUSH1 0x20 DUP4 ADD SWAP2 SWAP1 SWAP2 MSTORE ADD PUSH2 0x138 JUMP JUMPDEST PUSH2 0x154 PUSH2 0x179 CALLDATASIZE PUSH1 0x4 PUSH2 0x616 JUMP JUMPDEST PUSH2 0x292 JUMP JUMPDEST PUSH2 0x12E PUSH2 0x18C CALLDATASIZE PUSH1 0x4 PUSH2 0x616 JUMP JUMPDEST PUSH2 0x29F JUMP JUMPDEST PUSH2 0x12E PUSH2 0x2B2 JUMP JUMPDEST PUSH2 0x154 PUSH2 0x1A7 CALLDATASIZE PUSH1 0x4 PUSH2 0x616 JUMP JUMPDEST PUSH2 0x2E7 JUMP JUMPDEST PUSH2 0x12E PUSH2 0x2F4 JUMP JUMPDEST PUSH2 0x12E PUSH2 0x1C2 CALLDATASIZE PUSH1 0x4 PUSH2 0x616 JUMP JUMPDEST PUSH2 0x320 JUMP JUMPDEST PUSH2 0x154 PUSH2 0x1D5 CALLDATASIZE PUSH1 0x4 PUSH2 0x616 JUMP JUMPDEST PUSH2 0x32C JUMP JUMPDEST PUSH2 0x12E PUSH2 0x1E8 CALLDATASIZE PUSH1 0x4 PUSH2 0x637 JUMP JUMPDEST PUSH2 0x339 JUMP JUMPDEST PUSH2 0x12E PUSH2 0x1FB CALLDATASIZE PUSH1 0x4 PUSH2 0x637 JUMP JUMPDEST PUSH2 0x346 JUMP JUMPDEST PUSH2 0x154 PUSH2 0x20E CALLDATASIZE PUSH1 0x4 PUSH2 0x616 JUMP JUMPDEST PUSH2 0x353 JUMP JUMPDEST PUSH2 0x12E PUSH2 0x360 JUMP JUMPDEST PUSH2 0x12E PUSH2 0x229 CALLDATASIZE PUSH1 0x4 PUSH2 0x616 JUMP JUMPDEST PUSH2 0x38C JUMP JUMPDEST PUSH2 0x12E PUSH2 0x23C CALLDATASIZE PUSH1 0x4 PUSH2 0x616 JUMP JUMPDEST PUSH2 0x398 JUMP JUMPDEST PUSH2 0x12E PUSH2 0x3A4 JUMP JUMPDEST PUSH2 0x12E PUSH2 0x3D0 JUMP JUMPDEST PUSH2 0x12E PUSH2 0x25F CALLDATASIZE PUSH1 0x4 PUSH2 0x616 JUMP JUMPDEST PUSH2 0x3FC JUMP JUMPDEST PUSH1 0x0 PUSH2 0x271 DUP5 DUP5 DUP5 PUSH2 0x408 JUMP JUMPDEST SWAP5 SWAP4 POP POP POP POP JUMP JUMPDEST PUSH1 0x0 DUP1 PUSH2 0x286 DUP5 DUP5 PUSH2 0x459 JUMP JUMPDEST SWAP2 POP SWAP2 POP JUMPDEST SWAP3 POP SWAP3 SWAP1 POP JUMP JUMPDEST PUSH1 0x0 DUP1 PUSH2 0x286 DUP5 DUP5 PUSH2 0x497 JUMP JUMPDEST PUSH1 0x0 PUSH2 0x2AB DUP4 DUP4 PUSH2 0x4EB JUMP JUMPDEST SWAP4 SWAP3 POP POP POP JUMP JUMPDEST PUSH1 0x40 MLOAD PUSH1 0x20 PUSH1 0x0 JUMPDEST DUP2 DUP2 LT ISZERO PUSH2 0x2DE JUMPI PUSH2 0x2CD PUSH1 0x1 DUP1 PUSH2 0x4F7 JUMP JUMPDEST POP PUSH2 0x2D7 DUP2 PUSH2 0x7AB JUMP JUMPDEST SWAP1 POP PUSH2 0x2BA JUMP JUMPDEST POP POP PUSH1 0x40 MLOAD SUB SWAP1 JUMP JUMPDEST PUSH1 0x0 DUP1 PUSH2 0x286 DUP5 DUP5 PUSH2 0x503 JUMP JUMPDEST PUSH1 0x40 MLOAD PUSH1 0x20 PUSH1 0x0 JUMPDEST DUP2 DUP2 LT ISZERO PUSH2 0x2DE JUMPI PUSH2 0x30F PUSH1 0x1 DUP1 PUSH2 0x541 JUMP JUMPDEST POP PUSH2 0x319 DUP2 PUSH2 0x7AB JUMP JUMPDEST SWAP1 POP PUSH2 0x2FC JUMP JUMPDEST PUSH1 0x0 PUSH2 0x2AB DUP4 DUP4 PUSH2 0x4F7 JUMP JUMPDEST PUSH1 0x0 DUP1 PUSH2 0x286 DUP5 DUP5 PUSH2 0x54D JUMP JUMPDEST PUSH1 0x0 PUSH2 0x271 DUP5 DUP5 DUP5 PUSH2 0x568 JUMP JUMPDEST PUSH1 0x0 PUSH2 0x271 DUP5 DUP5 DUP5 PUSH2 0x594 JUMP JUMPDEST PUSH1 0x0 DUP1 PUSH2 0x286 DUP5 DUP5 PUSH2 0x5DC JUMP JUMPDEST PUSH1 0x40 MLOAD PUSH1 0x20 PUSH1 0x0 JUMPDEST DUP2 DUP2 LT ISZERO PUSH2 0x2DE JUMPI PUSH2 0x37B PUSH1 0x1 DUP1 PUSH2 0x5FE JUMP JUMPDEST POP PUSH2 0x385 DUP2 PUSH2 0x7AB JUMP JUMPDEST SWAP1 POP PUSH2 0x368 JUMP JUMPDEST PUSH1 0x0 PUSH2 0x2AB DUP4 DUP4 PUSH2 0x60A JUMP JUMPDEST PUSH1 0x0 PUSH2 0x2AB DUP4 DUP4 PUSH2 0x541 JUMP JUMPDEST PUSH1 0x40 MLOAD PUSH1 0x20 PUSH1 0x0 JUMPDEST DUP2 DUP2 LT ISZERO PUSH2 0x2DE JUMPI PUSH2 0x3BF PUSH1 0x1 DUP1 PUSH2 0x60A JUMP JUMPDEST POP PUSH2 0x3C9 DUP2 PUSH2 0x7AB JUMP JUMPDEST SWAP1 POP PUSH2 0x3AC JUMP JUMPDEST PUSH1 0x40 MLOAD PUSH1 0x20 PUSH1 0x0 JUMPDEST DUP2 DUP2 LT ISZERO PUSH2 0x2DE JUMPI PUSH2 0x3EB PUSH1 0x1 DUP1 PUSH2 0x4EB JUMP JUMPDEST POP PUSH2 0x3F5 DUP2 PUSH2 0x7AB JUMP JUMPDEST SWAP1 POP PUSH2 0x3D8 JUMP JUMPDEST PUSH1 0x0 PUSH2 0x2AB DUP4 DUP4 PUSH2 0x5FE JUMP JUMPDEST PUSH1 0x0 DUP2 DUP4 PUSH2 0x432 JUMPI PUSH1 0x40 MLOAD PUSH3 0x461BCD PUSH1 0xE5 SHL DUP2 MSTORE PUSH1 0x4 ADD PUSH2 0x429 SWAP2 SWAP1 PUSH2 0x6F6 JUMP JUMPDEST PUSH1 0x40 MLOAD DUP1 SWAP2 SUB SWAP1 REVERT JUMPDEST POP DUP3 DUP5 DUP2 PUSH2 0x450 JUMPI PUSH4 0x4E487B71 PUSH1 0xE0 SHL PUSH1 0x0 MSTORE PUSH1 0x12 PUSH1 0x4 MSTORE PUSH1 0x24 PUSH1 0x0 REVERT JUMPDEST DIV SWAP5 SWAP4 POP POP POP POP JUMP JUMPDEST PUSH1 0x0 DUP1 DUP3 PUSH2 0x46C JUMPI POP PUSH1 0x0 SWAP1 POP DUP1 PUSH2 0x28B JUMP JUMPDEST PUSH1 0x1 DUP4 DUP6 DUP2 PUSH2 0x48B JUMPI PUSH4 0x4E487B71 PUSH1 0xE0 SHL PUSH1 0x0 MSTORE PUSH1 0x12 PUSH1 0x4 MSTORE PUSH1 0x24 PUSH1 0x0 REVERT JUMPDEST MOD SWAP2 POP SWAP2 POP SWAP3 POP SWAP3 SWAP1 POP JUMP JUMPDEST PUSH1 0x0 DUP1 DUP4 PUSH2 0x4AB JUMPI POP PUSH1 0x1 SWAP1 POP PUSH1 0x0 PUSH2 0x28B JUMP JUMPDEST DUP4 DUP4 MUL DUP4 DUP6 DUP3 DUP2 PUSH2 0x4CC JUMPI PUSH4 0x4E487B71 PUSH1 0xE0 SHL PUSH1 0x0 MSTORE PUSH1 0x12 PUSH1 0x4 MSTORE PUSH1 0x24 PUSH1 0x0 REVERT JUMPDEST DIV EQ PUSH2 0x4DF JUMPI PUSH1 0x0 DUP1 SWAP3 POP SWAP3 POP POP PUSH2 0x28B JUMP JUMPDEST PUSH1 0x1 SWAP6 SWAP1 SWAP5 POP SWAP3 POP POP POP JUMP JUMPDEST PUSH1 0x0 PUSH2 0x2AB DUP3 DUP5 PUSH2 0x794 JUMP JUMPDEST PUSH1 0x0 PUSH2 0x2AB DUP3 DUP5 PUSH2 0x7C6 JUMP JUMPDEST PUSH1 0x0 DUP1 DUP3 PUSH2 0x516 JUMPI POP PUSH1 0x0 SWAP1 POP DUP1 PUSH2 0x28B JUMP JUMPDEST PUSH1 0x1 DUP4 DUP6 DUP2 PUSH2 0x535 JUMPI PUSH4 0x4E487B71 PUSH1 0xE0 SHL PUSH1 0x0 MSTORE PUSH1 0x12 PUSH1 0x4 MSTORE PUSH1 0x24 PUSH1 0x0 REVERT JUMPDEST DIV SWAP2 POP SWAP2 POP SWAP3 POP SWAP3 SWAP1 POP JUMP JUMPDEST PUSH1 0x0 PUSH2 0x2AB DUP3 DUP5 PUSH2 0x775 JUMP JUMPDEST PUSH1 0x0 DUP1 DUP4 DUP4 ADD DUP5 DUP2 LT ISZERO PUSH2 0x4DF JUMPI PUSH1 0x0 DUP1 SWAP3 POP SWAP3 POP POP PUSH2 0x28B JUMP JUMPDEST PUSH1 0x0 DUP2 DUP5 DUP5 GT ISZERO PUSH2 0x58C JUMPI PUSH1 0x40 MLOAD PUSH3 0x461BCD PUSH1 0xE5 SHL DUP2 MSTORE PUSH1 0x4 ADD PUSH2 0x429 SWAP2 SWAP1 PUSH2 0x6F6 JUMP JUMPDEST POP POP POP SWAP1 SUB SWAP1 JUMP JUMPDEST PUSH1 0x0 DUP2 DUP4 PUSH2 0x5B5 JUMPI PUSH1 0x40 MLOAD PUSH3 0x461BCD PUSH1 0xE5 SHL DUP2 MSTORE PUSH1 0x4 ADD PUSH2 0x429 SWAP2 SWAP1 PUSH2 0x6F6 JUMP JUMPDEST POP DUP3 DUP5 DUP2 PUSH2 0x5D3 JUMPI PUSH4 0x4E487B71 PUSH1 0xE0 SHL PUSH1 0x0 MSTORE PUSH1 0x12 PUSH1 0x4 MSTORE PUSH1 0x24 PUSH1 0x0 REVERT JUMPDEST MOD SWAP5 SWAP4 POP POP POP POP JUMP JUMPDEST PUSH1 0x0 DUP1 DUP4 DUP4 GT ISZERO PUSH2 0x5F2 JUMPI POP PUSH1 0x0 SWAP1 POP DUP1 PUSH2 0x28B JUMP JUMPDEST POP PUSH1 0x1 SWAP4 SWAP2 SWAP1 SWAP3 SUB SWAP2 POP JUMP JUMPDEST PUSH1 0x0 PUSH2 0x2AB DUP3 DUP5 PUSH2 0x761 JUMP JUMPDEST PUSH1 0x0 PUSH2 0x2AB DUP3 DUP5 PUSH2 0x749 JUMP JUMPDEST PUSH1 0x0 DUP1 PUSH1 0x40 DUP4 DUP6 SUB SLT ISZERO PUSH2 0x628 JUMPI DUP2 DUP3 REVERT JUMPDEST POP POP DUP1 CALLDATALOAD SWAP3 PUSH1 0x20 SWAP1 SWAP2 ADD CALLDATALOAD SWAP2 POP JUMP JUMPDEST PUSH1 0x0 DUP1 PUSH1 0x0 PUSH1 0x60 DUP5 DUP7 SUB SLT ISZERO PUSH2 0x64B JUMPI DUP1 DUP2 REVERT JUMPDEST DUP4 CALLDATALOAD SWAP3 POP PUSH1 0x20 DUP5 ADD CALLDATALOAD SWAP2 POP PUSH1 0x40 DUP5 ADD CALLDATALOAD PUSH8 0xFFFFFFFFFFFFFFFF DUP1 DUP3 GT ISZERO PUSH2 0x670 JUMPI DUP3 DUP4 REVERT JUMPDEST DUP2 DUP7 ADD SWAP2 POP DUP7 PUSH1 0x1F DUP4 ADD SLT PUSH2 0x683 JUMPI DUP3 DUP4 REVERT JUMPDEST DUP2 CALLDATALOAD DUP2 DUP2 GT ISZERO PUSH2 0x695 JUMPI PUSH2 0x695 PUSH2 0x806 JUMP JUMPDEST PUSH1 0x40 MLOAD PUSH1 0x1F DUP3 ADD PUSH1 0x1F NOT SWAP1 DUP2 AND PUSH1 0x3F ADD AND DUP2 ADD SWAP1 DUP4 DUP3 GT DUP2 DUP4 LT OR ISZERO PUSH2 0x6BD JUMPI PUSH2 0x6BD PUSH2 0x806 JUMP JUMPDEST DUP2 PUSH1 0x40 MSTORE DUP3 DUP2 MSTORE DUP10 PUSH1 0x20 DUP5 DUP8 ADD ADD GT ISZERO PUSH2 0x6D5 JUMPI DUP6 DUP7 REVERT JUMPDEST DUP3 PUSH1 0x20 DUP7 ADD PUSH1 0x20 DUP4 ADD CALLDATACOPY DUP6 PUSH1 0x20 DUP5 DUP4 ADD ADD MSTORE DUP1 SWAP6 POP POP POP POP POP POP SWAP3 POP SWAP3 POP SWAP3 JUMP JUMPDEST PUSH1 0x0 PUSH1 0x20 DUP1 DUP4 MSTORE DUP4 MLOAD DUP1 DUP3 DUP6 ADD MSTORE DUP3 JUMPDEST DUP2 DUP2 LT ISZERO PUSH2 0x722 JUMPI DUP6 DUP2 ADD DUP4 ADD MLOAD DUP6 DUP3 ADD PUSH1 0x40 ADD MSTORE DUP3 ADD PUSH2 0x706 JUMP JUMPDEST DUP2 DUP2 GT ISZERO PUSH2 0x733 JUMPI DUP4 PUSH1 0x40 DUP4 DUP8 ADD ADD MSTORE JUMPDEST POP PUSH1 0x1F ADD PUSH1 0x1F NOT AND SWAP3 SWAP1 SWAP3 ADD PUSH1 0x40 ADD SWAP4 SWAP3 POP POP POP JUMP JUMPDEST PUSH1 0x0 DUP3 NOT DUP3 GT ISZERO PUSH2 0x75C JUMPI PUSH2 0x75C PUSH2 0x7DA JUMP JUMPDEST POP ADD SWAP1 JUMP JUMPDEST PUSH1 0x0 DUP3 PUSH2 0x770 JUMPI PUSH2 0x770 PUSH2 0x7F0 JUMP JUMPDEST POP DIV SWAP1 JUMP JUMPDEST PUSH1 0x0 DUP2 PUSH1 0x0 NOT DIV DUP4 GT DUP3 ISZERO ISZERO AND ISZERO PUSH2 0x78F JUMPI PUSH2 0x78F PUSH2 0x7DA JUMP JUMPDEST POP MUL SWAP1 JUMP JUMPDEST PUSH1 0x0 DUP3 DUP3 LT ISZERO PUSH2 0x7A6 JUMPI PUSH2 0x7A6 PUSH2 0x7DA JUMP JUMPDEST POP SUB SWAP1 JUMP JUMPDEST PUSH1 0x0 PUSH1 0x0 NOT DUP3 EQ ISZERO PUSH2 0x7BF JUMPI PUSH2 0x7BF PUSH2 0x7DA JUMP JUMPDEST POP PUSH1 0x1 ADD SWAP1 JUMP JUMPDEST PUSH1 0x0 DUP3 PUSH2 0x7D5 JUMPI PUSH2 0x7D5 PUSH2 0x7F0 JUMP JUMPDEST POP MOD SWAP1 JUMP JUMPDEST PUSH4 0x4E487B71 PUSH1 0xE0 SHL PUSH1 0x0 MSTORE PUSH1 0x11 PUSH1 0x4 MSTORE PUSH1 0x24 PUSH1 0x0 REVERT JUMPDEST PUSH4 0x4E487B71 PUSH1 0xE0 SHL PUSH1 0x0 MSTORE PUSH1 0x12 PUSH1 0x4 MSTORE PUSH1 0x24 PUSH1 0x0 REVERT JUMPDEST PUSH4 0x4E487B71 PUSH1 0xE0 SHL PUSH1 0x0 MSTORE PUSH1 0x41 PUSH1 0x4 MSTORE PUSH1 0x24 PUSH1 0x0 REVERT INVALID LOG2 PUSH5 0x6970667358 0x22 SLT KECCAK256 0xCB 0xE6 0xD1 PUSH27 0xCB851EB0FFD98767DB975704848D26408C802C62D6CDE696E9051A 0x25 PUSH5 0x736F6C6343 STOP ADDMOD SUB STOP CALLER ",
  "sha1": "1fb930264f110cd0f1fc5abb99e1422298ad7713",
  "source": "// SPDX-License-Identifier: MIT\n\npragma solidity ^0.8.0;\n\nimport \"../utils/math/SafeMath.sol\";\n\ncontract SafeMathMock {\n    function tryAdd(uint256 a, uint256 b) public pure returns (bool flag, uint256 value) {\n        return SafeMath.tryAdd(a, b);\n    }\n\n    function trySub(uint256 a, uint256 b) public pure returns (bool flag, uint256 value) {\n        return SafeMath.trySub(a, b);\n    }\n\n    function tryMul(uint256 a, uint256 b) public pure returns (bool flag, uint256 value) {\n        return SafeMath.tryMul(a, b);\n    }\n\n    function tryDiv(uint256 a, uint256 b) public pure returns (bool flag, uint256 value) {\n        return SafeMath.tryDiv(a, b);\n    }\n\n    function tryMod(uint256 a, uint256 b) public pure returns (bool flag, uint256 value) {\n        return SafeMath.tryMod(a, b);\n    }\n\n    // using the do* naming convention to avoid warnings due to clashing opcode names\n\n    function doAdd(uint256 a, uint256 b) public pure returns (uint256) {\n        return SafeMath.add(a, b);\n    }\n\n    function doSub(uint256 a, uint256 b) public pure returns (uint256) {\n        return SafeMath.sub(a, b);\n    }\n\n    function doMul(uint256 a, uint256 b) public pure returns (uint256) {\n        return SafeMath.mul(a, b);\n    }\n\n    function doDiv(uint256 a, uint256 b) public pure returns (uint256) {\n        return SafeMath.div(a, b);\n    }\n\n    function doMod(uint256 a, uint256 b) public pure returns (uint256) {\n        return SafeMath.mod(a, b);\n    }\n\n    function subWithMessage(uint256 a, uint256 b, string memory errorMessage) public pure returns (uint256) {\n        return SafeMath.sub(a, b, errorMessage);\n    }\n\n    function divWithMessage(uint256 a, uint256 b, string memory errorMessage) public pure returns (uint256) {\n        return SafeMath.div(a, b, errorMessage);\n    }\n\n    function modWithMessage(uint256 a, uint256 b, string memory errorMessage) public pure returns (uint256) {\n        return SafeMath.mod(a, b, errorMessage);\n    }\n\n    function addMemoryCheck() public pure returns (uint256 mem) {\n        uint256 length = 32;\n        // solhint-disable-next-line no-inline-assembly\n        assembly { mem := mload(0x40) }\n        for (uint256 i = 0; i < length; ++i) { SafeMath.add(1, 1); }\n        // solhint-disable-next-line no-inline-assembly\n        assembly { mem := sub(mload(0x40), mem) }\n    }\n\n    function subMemoryCheck() public pure returns (uint256 mem) {\n        uint256 length = 32;\n        // solhint-disable-next-line no-inline-assembly\n        assembly { mem := mload(0x40) }\n        for (uint256 i = 0; i < length; ++i) { SafeMath.sub(1, 1); }\n        // solhint-disable-next-line no-inline-assembly\n        assembly { mem := sub(mload(0x40), mem) }\n    }\n\n    function mulMemoryCheck() public pure returns (uint256 mem) {\n        uint256 length = 32;\n        // solhint-disable-next-line no-inline-assembly\n        assembly { mem := mload(0x40) }\n        for (uint256 i = 0; i < length; ++i) { SafeMath.mul(1, 1); }\n        // solhint-disable-next-line no-inline-assembly\n        assembly { mem := sub(mload(0x40), mem) }\n    }\n\n    function divMemoryCheck() public pure returns (uint256 mem) {\n        uint256 length = 32;\n        // solhint-disable-next-line no-inline-assembly\n        assembly { mem := mload(0x40) }\n        for (uint256 i = 0; i < length; ++i) { SafeMath.div(1, 1); }\n        // solhint-disable-next-line no-inline-assembly\n        assembly { mem := sub(mload(0x40), mem) }\n    }\n\n    function modMemoryCheck() public pure returns (uint256 mem) {\n        uint256 length = 32;\n        // solhint-disable-next-line no-inline-assembly\n        assembly { mem := mload(0x40) }\n        for (uint256 i = 0; i < length; ++i) { SafeMath.mod(1, 1); }\n        // solhint-disable-next-line no-inline-assembly\n        assembly { mem := sub(mload(0x40), mem) }\n    }\n\n}\n",
  "sourcePath": "contracts/openzeppelin-contracts/contracts/mocks/SafeMathMock.sol",
  "type": "contract"
}